{
  "contractName": "GameContract",
  "abi": [
    {
      "inputs": [
        {
          "internalType": "address payable",
          "name": "_creator",
          "type": "address"
        },
        {
          "internalType": "uint256",
          "name": "resolveTime",
          "type": "uint256"
        },
        {
          "internalType": "address",
          "name": "oracleAddr",
          "type": "address"
        },
        {
          "internalType": "int256",
          "name": "thres",
          "type": "int256"
        }
      ],
      "stateMutability": "nonpayable",
      "type": "constructor"
    },
    {
      "inputs": [
        {
          "internalType": "enum GameContract.gameSide",
          "name": "",
          "type": "uint8"
        }
      ],
      "name": "amtPlacedOnSide",
      "outputs": [
        {
          "internalType": "uint256",
          "name": "",
          "type": "uint256"
        }
      ],
      "stateMutability": "view",
      "type": "function"
    },
    {
      "inputs": [
        {
          "internalType": "address",
          "name": "",
          "type": "address"
        }
      ],
      "name": "betRecords",
      "outputs": [
        {
          "internalType": "uint256",
          "name": "",
          "type": "uint256"
        }
      ],
      "stateMutability": "view",
      "type": "function"
    },
    {
      "inputs": [
        {
          "internalType": "address",
          "name": "",
          "type": "address"
        }
      ],
      "name": "betSides",
      "outputs": [
        {
          "internalType": "enum GameContract.gameSide",
          "name": "",
          "type": "uint8"
        }
      ],
      "stateMutability": "view",
      "type": "function"
    },
    {
      "inputs": [],
      "name": "creator",
      "outputs": [
        {
          "internalType": "address",
          "name": "",
          "type": "address"
        }
      ],
      "stateMutability": "view",
      "type": "function"
    },
    {
      "inputs": [],
      "name": "gameOutcome",
      "outputs": [
        {
          "internalType": "enum GameContract.gameSide",
          "name": "",
          "type": "uint8"
        }
      ],
      "stateMutability": "view",
      "type": "function"
    },
    {
      "inputs": [],
      "name": "gameResolveTime",
      "outputs": [
        {
          "internalType": "uint256",
          "name": "",
          "type": "uint256"
        }
      ],
      "stateMutability": "view",
      "type": "function"
    },
    {
      "inputs": [],
      "name": "mainContract",
      "outputs": [
        {
          "internalType": "contract HwangMarket",
          "name": "",
          "type": "address"
        }
      ],
      "stateMutability": "view",
      "type": "function"
    },
    {
      "inputs": [],
      "name": "status",
      "outputs": [
        {
          "internalType": "enum GameContract.GameStatus",
          "name": "",
          "type": "uint8"
        }
      ],
      "stateMutability": "view",
      "type": "function"
    },
    {
      "inputs": [],
      "name": "threshold",
      "outputs": [
        {
          "internalType": "int256",
          "name": "",
          "type": "int256"
        }
      ],
      "stateMutability": "view",
      "type": "function"
    },
    {
      "inputs": [
        {
          "internalType": "address",
          "name": "",
          "type": "address"
        }
      ],
      "name": "winningWithdrawals",
      "outputs": [
        {
          "internalType": "enum GameContract.hasWithdrawn",
          "name": "",
          "type": "uint8"
        }
      ],
      "stateMutability": "view",
      "type": "function"
    },
    {
      "stateMutability": "payable",
      "type": "receive"
    },
    {
      "inputs": [],
      "name": "getLatestPrice",
      "outputs": [
        {
          "internalType": "int256",
          "name": "",
          "type": "int256"
        }
      ],
      "stateMutability": "view",
      "type": "function"
    },
    {
      "inputs": [],
      "name": "getGameInfo",
      "outputs": [
        {
          "internalType": "address",
          "name": "",
          "type": "address"
        },
        {
          "internalType": "enum GameContract.GameStatus",
          "name": "",
          "type": "uint8"
        },
        {
          "internalType": "enum GameContract.gameSide",
          "name": "",
          "type": "uint8"
        },
        {
          "internalType": "uint256",
          "name": "",
          "type": "uint256"
        },
        {
          "internalType": "int256",
          "name": "",
          "type": "int256"
        }
      ],
      "stateMutability": "view",
      "type": "function"
    },
    {
      "inputs": [
        {
          "internalType": "address",
          "name": "_player",
          "type": "address"
        },
        {
          "internalType": "uint256",
          "name": "_ethAmount",
          "type": "uint256"
        },
        {
          "internalType": "uint8",
          "name": "betSide",
          "type": "uint8"
        }
      ],
      "name": "addPlayer",
      "outputs": [],
      "stateMutability": "payable",
      "type": "function"
    },
    {
      "inputs": [],
      "name": "getTrxs",
      "outputs": [
        {
          "components": [
            {
              "internalType": "uint256",
              "name": "trxId",
              "type": "uint256"
            },
            {
              "internalType": "string",
              "name": "activityType",
              "type": "string"
            },
            {
              "internalType": "uint256",
              "name": "trxAmt",
              "type": "uint256"
            },
            {
              "internalType": "uint256",
              "name": "trxTime",
              "type": "uint256"
            },
            {
              "internalType": "uint8",
              "name": "gameSide",
              "type": "uint8"
            },
            {
              "internalType": "address",
              "name": "from",
              "type": "address"
            },
            {
              "internalType": "address",
              "name": "to",
              "type": "address"
            }
          ],
          "internalType": "struct GameContract.Trx[]",
          "name": "",
          "type": "tuple[]"
        }
      ],
      "stateMutability": "view",
      "type": "function"
    },
    {
      "inputs": [
        {
          "internalType": "uint8",
          "name": "s",
          "type": "uint8"
        }
      ],
      "name": "getSideAmt",
      "outputs": [
        {
          "internalType": "uint256",
          "name": "",
          "type": "uint256"
        }
      ],
      "stateMutability": "view",
      "type": "function"
    },
    {
      "inputs": [],
      "name": "performUpkeep",
      "outputs": [],
      "stateMutability": "nonpayable",
      "type": "function"
    },
    {
      "inputs": [
        {
          "internalType": "address payable",
          "name": "_player",
          "type": "address"
        }
      ],
      "name": "withdrawWinnings",
      "outputs": [],
      "stateMutability": "nonpayable",
      "type": "function"
    },
    {
      "inputs": [],
      "name": "getBalance",
      "outputs": [
        {
          "internalType": "uint256",
          "name": "",
          "type": "uint256"
        }
      ],
      "stateMutability": "view",
      "type": "function"
    }
  ],
  "bytecode": "0x608060405234801561001057600080fd5b5060405161162038038061162083398101604081905261002f91610096565b60008054600a8054600160a060020a03978816600160a060020a03199182168117909255600196909655600160b060020a031990911617905560078054909316919093161790556002556100df565b600160a060020a038116811461009357600080fd5b50565b600080600080608085870312156100ac57600080fd5b84516100b78161007e565b6020860151604087015191955093506100cf8161007e565b6060959095015193969295505050565b611532806100ee6000396000f3fe6080604052600436106100e05760e060020a600035046302d05d3f81146100ec578063053a2cfb1461012957806312065fe0146101575780631486d611146101755780631746bd1b146101a2578063200d2ed2146101e85780633618d3431461021657806342cde4e8146102465780636e4d243a1461025c5780637256eba4146102735780637a576ab3146102865780638e15f473146102b35780639260b33f146102c85780639b2900ed146102e8578063d270e7ab14610318578063e2cb747d14610338578063f91c2cbc14610358578063f92a9e091461037a57600080fd5b366100e757005b600080fd5b3480156100f857600080fd5b5060005461010c90600160a060020a031681565b604051600160a060020a0390911681526020015b60405180910390f35b34801561013557600080fd5b5060005461014a9060a860020a900460ff1681565b6040516101209190611068565b34801561016357600080fd5b5030315b604051908152602001610120565b34801561018157600080fd5b5061016761019036600461107c565b60066020526000908152604090205481565b3480156101ae57600080fd5b5060005460015460025460405161012093600160a060020a0381169360ff60a060020a830481169460a860020a90930416929091906110b7565b3480156101f457600080fd5b506000546102099060a060020a900460ff1681565b60405161012091906110f6565b34801561022257600080fd5b5061014a61023136600461111e565b60036020526000908152604090205460ff1681565b34801561025257600080fd5b5061016760025481565b34801561026857600080fd5b50610271610390565b005b610271610281366004611151565b61051a565b34801561029257600080fd5b506101676102a136600461111e565b60046020526000908152604090205481565b3480156102bf57600080fd5b506101676109f9565b3480156102d457600080fd5b506102716102e336600461111e565b610a81565b3480156102f457600080fd5b5061020961030336600461111e565b60056020526000908152604090205460ff1681565b34801561032457600080fd5b50600a5461010c90600160a060020a031681565b34801561034457600080fd5b5061016761035336600461118f565b610e97565b34801561036457600080fd5b5061036d610ee8565b60405161012091906111aa565b34801561038657600080fd5b5061016760015481565b6001544210156103ea5760405160e560020a62461bcd02815260206004820181905260248201527f67616d65206973206e6f7420726561647920746f206265207265736f6c76656460448201526064015b60405180910390fd5b600160005460a060020a900460ff16600181111561040a5761040a61103a565b036104565760405160e560020a62461bcd0281526020600482015260166024820152605260020a7519d85b59481a5cc8185b1c9958591e4818db1bdcd9590260448201526064016103e1565b6000805460a060020a60ff02191660a060020a17905560028054819061047a6109f9565b12610486575060019050805b6000805483919060a860020a60ff02191660a860020a8360028111156104ae576104ae61103a565b0217905550600a5460405160e060020a63e362937d02815260ff83166004820152600160a060020a039091169063e362937d90602401600060405180830381600087803b1580156104fe57600080fd5b505af1158015610512573d6000803e3d6000fd5b505050505050565b600083600160a060020a0316313411156105795760405160e560020a62461bcd02815260206004820152601e60248201527f596f7520646f206e6f74206861766520656e6f7567682062616c616e6365000060448201526064016103e1565b600160a060020a03841633146105cd5760405160e560020a62461bcd0281526020600482015260136024820152606960020a7224b73b30b634b2102a3930b739b0b1ba34b7b70260448201526064016103e1565b8234146106365760405160e560020a62461bcd02815260206004820152602b60248201527f4d73672076616c7565206e6f7420657175616c20746f2065746820616d6f756e604482015260aa60020a6a1d081cdc1958da599a59590260648201526084016103e1565b6000805460a060020a900460ff1660018111156106555761065561103a565b146106b95760405160e560020a62461bcd02815260206004820152602860248201527f47616d6520697320636c6f7365642c206e6f2066757274686572206265747320604482015260c260020a671858d8d95c1d19590260648201526084016103e1565b8160ff16600114806106ce57508160ff166002145b61071d5760405160e560020a62461bcd02815260206004820152601a60248201527f6265742073696465206973206e6f74207265636f676e6973656400000000000060448201526064016103e1565b6001544211156107805760405160e560020a62461bcd02815260206004820152602260248201527f63616e6e6f74207075742062657473206166746572207265736f6c7665207469604482015260f060020a616d650260648201526084016103e1565b600160a060020a0384166000908152600460205260409020349055600260ff83166001036107ac575060015b600160a060020a0385166000908152600360205260409020805482919060ff191660018360028111156107e1576107e161103a565b021790555083600660008360028111156107fd576107fd61103a565b600281111561080e5761080e61103a565b8152602001908152602001600020600082825461082b91906112c4565b90915550506040805160e0810182526009548152815180830183526003815260ea60020a6210915502602082810191909152820190815291810186905242606082015260ff851660808201523060a0820152600160a060020a03871660c082015260088054600181018255600091909152815160069091027ff3f7a9fe364faab93b216da50a3214154f22a0a2b415b23a84c8169e8b636ee381019182559251919290917ff3f7a9fe364faab93b216da50a3214154f22a0a2b415b23a84c8169e8b636ee4909101906108fe908261137a565b506040820151600282015560608201516003820155608082015160048201805460a085015160ff909316600160a860020a031990911617610100600160a060020a039384160217905560c09092015160059091018054600160a060020a03191691909216179055600980549060006109758361143f565b9091555050600a5460405160e060020a635039eb97028152600160a060020a03878116600483015260ff861660248301526044820187905242606483015290911690635039eb9790608401600060405180830381600087803b1580156109da57600080fd5b505af11580156109ee573d6000803e3d6000fd5b505050505050505050565b600080600760009054906101000a9004600160a060020a0316600160a060020a031663feaf968c6040518163ffffffff1660e060020a02815260040160a060405180830381865afa158015610a52573d6000803e3d6000fd5b505050506040513d601f19601f82011682018060405250810190610a76919061146f565b509195945050505050565b33600160a060020a03821614610ae95760405160e560020a62461bcd02815260206004820152602160248201527f63616e6e6f74207769746864726177206f6e20736f6d656f6e6520626568616c604482015260f960020a60330260648201526084016103e1565b33600090815260046020526040902054610b485760405160e560020a62461bcd02815260206004820152601e60248201527f706c61796572206d75737420686176652062657420736f6d657468696e67000060448201526064016103e1565b600160005460a060020a900460ff166001811115610b6857610b6861103a565b14610bb45760405160e560020a62461bcd0281526020600482015260166024820152605260020a7519d85b59481a5cc81b9bdd081e595d0818db1bdcd9590260448201526064016103e1565b600160a060020a03811660009081526003602052604090205460ff166002811115610be157610be161103a565b60005460a860020a900460ff166002811115610bff57610bff61103a565b14610c4f5760405160e560020a62461bcd02815260206004820152601e60248201527f706c61796572206d757374206265206f6e2077696e6e696e672073696465000060448201526064016103e1565b6000805460a860020a900460ff166002811115610c6e57610c6e61103a565b03610cbe5760405160e560020a62461bcd02815260206004820152601e60248201527f67616d65206f7574636f6d652063616e6e6f7420626520756e6b6e6f776e000060448201526064016103e1565b600160a060020a03811660009081526005602052604081205460ff166001811115610ceb57610ceb61103a565b03610d4c5760405160e560020a62461bcd02815260206004820152602560248201527f706c617965722068617320616c72656164792077697468647261776e2077696e604482015260d860020a646e696e67730260648201526084016103e1565b60028060005460a860020a900460ff166002811115610d6d57610d6d61103a565b03610d76575060015b600060066000836002811115610d8e57610d8e61103a565b6002811115610d9f57610d9f61103a565b815260200190815260200160002054600660008060159054906101000a900460ff166002811115610dd257610dd261103a565b6002811115610de357610de361103a565b81526020808201929092526040908101600090812054600160a060020a038816825260049093522054610e1691906114bf565b610e2091906114e5565b600160a060020a038416600081815260046020526040902054919250906108fc90610e4b90846112c4565b6040518115909202916000818181858888f19350505050158015610e73573d6000803e3d6000fd5b505050600160a060020a03166000908152600560205260409020805460ff19169055565b6000600260ff8316600103610eaa575060015b60066000826002811115610ec057610ec061103a565b6002811115610ed157610ed161103a565b815260200190815260200160002054915050919050565b60606008805480602002602001604051908101604052809291908181526020016000905b8282101561102457838290600052602060002090600602016040518060e001604052908160008201548152602001600182018054610f49906112f1565b80601f0160208091040260200160405190810160405280929190818152602001828054610f75906112f1565b8015610fc25780601f10610f9757610100808354040283529160200191610fc2565b820191906000526020600020905b815481529060010190602001808311610fa557829003601f168201915b5050509183525050600282015460208083019190915260038301546040830152600483015460ff81166060840152600160a060020a036101009091048116608084015260059093015490921660a0909101529082526001929092019101610f0c565b50505050905090565b600160a060020a03169052565b60e060020a634e487b710260009081526021600452602490fd5b600381106110645761106461103a565b9052565b602081016110768284611054565b92915050565b60006020828403121561108e57600080fd5b81356003811061109d57600080fd5b9392505050565b600281106110b4576110b461103a565b50565b600160a060020a038616815260a081016110d0866110a4565b8560208301526110e36040830186611054565b6060820193909352608001529392505050565b60208101611103836110a4565b91905290565b600160a060020a03811681146110b457600080fd5b60006020828403121561113057600080fd5b813561109d81611109565b803560ff8116811461114c57600080fd5b919050565b60008060006060848603121561116657600080fd5b833561117181611109565b9250602084013591506111866040850161113b565b90509250925092565b6000602082840312156111a157600080fd5b61109d8261113b565b6020808252825182820181905260009190604090818501908084028601830187850186805b8481101561129b57603f198a8503018652825160e08151865289820151818b880152805180838901528592505b8083101561121b578183018c01518884016101000152918b01916111fc565b61010092508583828a0101528a8401518b8901526060915081840151828901526080915081840151611251838a018260ff169052565b5060a0915081840151611266838a018261102d565b5060c09384015193915061127c8883018561102d565b988b0198601f01601f19169690960101945050918701916001016111cf565b50919998505050505050505050565b60e060020a634e487b710260009081526011600452602490fd5b80820180821115611076576110766112aa565b60e060020a634e487b710260009081526041600452602490fd5b60028104600182168061130557607f821691505b6020821081036113295760e060020a634e487b710260009081526022600452602490fd5b50919050565b601f821115611375576000818152602081206020601f860104810160208610156113565750805b6020601f860104820191505b8181101561051257828155600101611362565b505050565b81516001604060020a03811115611393576113936112d7565b6113a7816113a184546112f1565b8461132f565b602080601f8311600181146113e057600084156113c45750858301515b60028086026008870290910a6000190419821617865550610512565b600085815260208120601f198616915b8281101561140f578886015182559484019460019091019084016113f0565b508582101561142f57878501516008601f88160260020a60001904191681555b5050505050600202600101905550565b600060018201611451576114516112aa565b5060010190565b80516001605060020a038116811461114c57600080fd5b600080600080600060a0868803121561148757600080fd5b61149086611458565b94506020860151935060408601519250606086015191506114b360808701611458565b90509295509295909350565b6000826114e05760e060020a634e487b710260009081526012600452602490fd5b500490565b8082028115828204841417611076576110766112aa56fea264697066735822122014a2cb24b892bfb9d8f9c112d28b22d0d87fc329207c71680bcfdca825a004f064736f6c63430008110033",
  "immutableReferences": {},
  "source": "// SPDX-License-Identifier: MIT\npragma solidity >=0.4.22 <0.9.0;\n\nimport \"./HwangMarket.sol\";\nimport \"@chainlink/contracts/src/v0.8/interfaces/AggregatorV3Interface.sol\";\n\ncontract GameContract {\n\n  enum GameStatus {\n    OPEN,\n    CLOSED\n  }\n\n  enum hasWithdrawn {\n    YES,\n    NO\n  }\n\n  enum gameSide {\n    UNKNOWN,\n    YES,\n    NO\n  }\n\n  address public creator; \n  GameStatus public status;\n  gameSide public gameOutcome;\n  uint256 public gameResolveTime;\n  int256 public threshold;\n  mapping(address => gameSide) public betSides; // whether user bets yes or no\n  mapping(address => uint256) public betRecords; // bet amount user committed (in wei)\n  mapping(address => hasWithdrawn) public winningWithdrawals; // indicate if user has already withdrawn winnings\n  mapping(gameSide => uint256) public amtPlacedOnSide; // remember how much amount is placed on each side\n  AggregatorV3Interface internal priceFeed;\n\n\n  // Trx types constant\n  string constant BetActivityType = \"BET\";\n  string constant SellActivityType = \"SELL\";\n\n  // for every record, we track a list of transactions\n  struct Trx {\n    // Common fields\n    uint256 trxId;\n    string activityType;  // \"BET\", \"SELL\"\n    uint256 trxAmt;\n    uint256 trxTime; // when the trx was initiated\n    uint8 gameSide;\n\n    // if BET, from = game contract addr, to = player addr\n    // if SELL, from = seller addr, to = buyer addr\n    address from;\n    address to;\n  }\n  Trx[] trxs;\n  uint256 internal trxId;\n\n  HwangMarket public mainContract;\n\n  // constructor takes in a resolve time, a oracleAddr (oracle address), and a threshold, \n  // where a gameSide of NO indicates < threshold, and a gameSide of YES indicates >= threshold\n  constructor(address payable _creator, uint256 resolveTime, address oracleAddr, int256 thres) {\n    creator = _creator;\n    mainContract = HwangMarket(_creator);\n    status = GameStatus.OPEN;\n    gameResolveTime = resolveTime; // set when the game is allowed to conclude\n    gameOutcome = gameSide.UNKNOWN; // explicitly set gameOutcome to undecided\n    \n    priceFeed = AggregatorV3Interface(oracleAddr);\n    threshold = thres;\n  }\n\n  /**\n    * Returns the latest price\n    */\n  function getLatestPrice() public view returns (int) {\n      (\n          /*uint80 roundID*/,\n          int price,\n          /*uint startedAt*/,\n          /*uint timeStamp*/,\n          /*uint80 answeredInRound*/\n      ) = priceFeed.latestRoundData();\n      return price;\n  }\n\n  // to check if message sent is by creator\n  modifier isCreator(bool isEqual) {\n    if (isEqual) {\n      require(\n        creator == msg.sender,\n        \"You are not the creator of this game!\"\n      );\n    }\n    _;\n  }\n\n  // to get game information\n  function getGameInfo() \n    public \n    view \n    returns (\n      address,  // creator\n      GameStatus, // status\n      gameSide,\n      uint256,\n      int256\n  ) {\n    return (creator, status, gameOutcome, gameResolveTime, threshold);\n  }\n\n  // payable keyword should allow depositing of ethereum into smart contract\n  // allow msg.sender address to register as a player\n  function addPlayer(address _player, uint256 _ethAmount, uint8 betSide)\n    payable\n    public\n    isCreator(false) {\n      require(msg.value <= _player.balance, \"You do not have enough balance\"); \n      require(_player == msg.sender, \"Invalid Transaction\");\n      require(msg.value == _ethAmount, \"Msg value not equal to eth amount specified\"); \n      require(status == GameStatus.OPEN, \"Game is closed, no further bets accepted\");\n      require(betSide == 1 || betSide == 2, \"bet side is not recognised\");\n      require(block.timestamp <= gameResolveTime, \"cannot put bets after resolve time\");\n      \n      // book keeping\n      betRecords[_player] = msg.value; // add players and corresponding amount deposited into mapping\n      gameSide side = gameSide.NO; // 1 - YES, 2 - NO\n      if (betSide == 1) {\n        side = gameSide.YES;\n      }\n      betSides[_player] = side; // add player to side he bets on\n      amtPlacedOnSide[side] += _ethAmount;\n\n      trxs.push(Trx({\n        trxId: trxId,\n        activityType: BetActivityType,\n        gameSide: betSide,\n        trxAmt: _ethAmount,\n        trxTime: block.timestamp,\n        from: address(this),\n        to: _player\n      }));\n      trxId++;\n\n      mainContract.playerJoinedSide(_player, betSide, _ethAmount, block.timestamp);\n    }\n\n  // for now, we return all, can consider performing pagination here\n  function getTrxs() external view returns(Trx[] memory) {\n    return trxs;\n  }\n\n  // disable any backdoor by creator\n  // // allow creator to cancel the game created.\n  // function cancelGame() public isCreator(true) {\n  //   status = GameStatus.CLOSED;\n  // }\n\n  function getSideAmt(uint8 s) public view returns (uint256) {\n    // require(s == 0 || s == 1, \"side must be one of 0 or 1\");\n    gameSide side = gameSide.NO;\n    if (s == 1) {\n      side = gameSide.YES;\n    }\n\n    return amtPlacedOnSide[side];\n  }\n\n  // impt: anyone can call the contract to perform upkeep but it has a guard to protect against early resolves\n  // and it checks against a \"trusted\" oracle chainlink to fetch the result\n  function performUpkeep() public {\n    require(block.timestamp >= gameResolveTime, \"game is not ready to be resolved\");\n    require(status != GameStatus.CLOSED, \"game is already closed\");\n\n    status = GameStatus.CLOSED;\n    gameSide side = gameSide.NO;\n    uint8 rawSide = 2;\n    if (getLatestPrice() >= threshold) {\n      side = gameSide.YES;\n      rawSide = 1;\n    }\n    gameOutcome = side;\n\n    mainContract.concludeGame(rawSide);\n  }\n\n  // allow winners to withdraw their winnings\n  function withdrawWinnings(address payable _player) public {\n    require(msg.sender == _player, \"cannot withdraw on someone behalf\"); //restrict only winner can withdraw his/her own winnings\n    require(betRecords[msg.sender] > 0, \"player must have bet something\"); // player must have bet something\n    require(status == GameStatus.CLOSED, \"game is not yet closed\"); // game must be closed\n    require(gameOutcome == betSides[_player], \"player must be on winning side\"); // player must be on winning side\n    require(gameOutcome != gameSide.UNKNOWN, \"game outcome cannot be unknown\"); // game outcome cannot be unknown\n    require(winningWithdrawals[_player] != hasWithdrawn.YES, \"player has already withdrawn winnings\"); // player must not have already withdrawn\n\n    // where to calculate amount of winnings\n    // calculated winnings = (player's bet amount / total bet amount on winning side) * total bet amount on losing side\n    gameSide oppSide = gameSide.NO;\n    if (gameOutcome == gameSide.NO) {\n      oppSide = gameSide.YES;\n    }\n    uint256 winnings = (betRecords[_player] / amtPlacedOnSide[gameOutcome]) * amtPlacedOnSide[oppSide];\n    _player.transfer(winnings + betRecords[_player]);\n    winningWithdrawals[_player] = hasWithdrawn.YES;\n  }\n\n  // to get smart contract's balance\n  function getBalance() public view returns (uint256) {\n    return address(this).balance;\n  }\n\n  // @notice Will receive any eth sent to the contract\n  receive() external payable {\n  }\n}\n",
  "sourcePath": "/Users/gerald/Desktop/HwangMarket/contracts/GameContract.sol",
  "compiler": {
    "name": "solc",
    "version": "0.8.17+commit.8df45f5f.Emscripten.clang"
  },
  "schemaVersion": "3.4.10",
  "updatedAt": "2022-10-20T15:09:42.422Z",
  "devdoc": {
    "kind": "dev",
    "methods": {},
    "version": 1
  },
  "userdoc": {
    "kind": "user",
    "methods": {
      "getLatestPrice()": {
        "notice": "Returns the latest price"
      }
    },
    "version": 1
  }
}