{
  "contractName": "GameContract",
  "abi": [
    {
      "inputs": [
        {
          "internalType": "address",
          "name": "_creator",
          "type": "address"
        },
        {
          "internalType": "uint256",
          "name": "resolveTime",
          "type": "uint256"
        },
        {
          "internalType": "address",
          "name": "oracleAddr",
          "type": "address"
        },
        {
          "internalType": "int256",
          "name": "thres",
          "type": "int256"
        }
      ],
      "stateMutability": "nonpayable",
      "type": "constructor"
    },
    {
      "inputs": [
        {
          "internalType": "enum GameContract.gameSide",
          "name": "",
          "type": "uint8"
        }
      ],
      "name": "amtPlacedOnSide",
      "outputs": [
        {
          "internalType": "uint256",
          "name": "",
          "type": "uint256"
        }
      ],
      "stateMutability": "view",
      "type": "function"
    },
    {
      "inputs": [
        {
          "internalType": "address",
          "name": "",
          "type": "address"
        }
      ],
      "name": "betRecords",
      "outputs": [
        {
          "internalType": "uint256",
          "name": "",
          "type": "uint256"
        }
      ],
      "stateMutability": "view",
      "type": "function"
    },
    {
      "inputs": [
        {
          "internalType": "address",
          "name": "",
          "type": "address"
        }
      ],
      "name": "betSides",
      "outputs": [
        {
          "internalType": "enum GameContract.gameSide",
          "name": "",
          "type": "uint8"
        }
      ],
      "stateMutability": "view",
      "type": "function"
    },
    {
      "inputs": [],
      "name": "creator",
      "outputs": [
        {
          "internalType": "address",
          "name": "",
          "type": "address"
        }
      ],
      "stateMutability": "view",
      "type": "function"
    },
    {
      "inputs": [],
      "name": "gameOutcome",
      "outputs": [
        {
          "internalType": "enum GameContract.gameSide",
          "name": "",
          "type": "uint8"
        }
      ],
      "stateMutability": "view",
      "type": "function"
    },
    {
      "inputs": [],
      "name": "gameResolveTime",
      "outputs": [
        {
          "internalType": "uint256",
          "name": "",
          "type": "uint256"
        }
      ],
      "stateMutability": "view",
      "type": "function"
    },
    {
      "inputs": [],
      "name": "status",
      "outputs": [
        {
          "internalType": "enum GameContract.GameStatus",
          "name": "",
          "type": "uint8"
        }
      ],
      "stateMutability": "view",
      "type": "function"
    },
    {
      "inputs": [],
      "name": "threshold",
      "outputs": [
        {
          "internalType": "int256",
          "name": "",
          "type": "int256"
        }
      ],
      "stateMutability": "view",
      "type": "function"
    },
    {
      "inputs": [
        {
          "internalType": "address",
          "name": "",
          "type": "address"
        }
      ],
      "name": "winningWithdrawals",
      "outputs": [
        {
          "internalType": "enum GameContract.hasWithdrawn",
          "name": "",
          "type": "uint8"
        }
      ],
      "stateMutability": "view",
      "type": "function"
    },
    {
      "stateMutability": "payable",
      "type": "receive"
    },
    {
      "inputs": [],
      "name": "getLatestPrice",
      "outputs": [
        {
          "internalType": "int256",
          "name": "",
          "type": "int256"
        }
      ],
      "stateMutability": "view",
      "type": "function"
    },
    {
      "inputs": [],
      "name": "getGameInfo",
      "outputs": [
        {
          "internalType": "address",
          "name": "",
          "type": "address"
        },
        {
          "internalType": "enum GameContract.GameStatus",
          "name": "",
          "type": "uint8"
        }
      ],
      "stateMutability": "view",
      "type": "function"
    },
    {
      "inputs": [
        {
          "internalType": "address",
          "name": "_player",
          "type": "address"
        },
        {
          "internalType": "uint256",
          "name": "_ethAmount",
          "type": "uint256"
        },
        {
          "internalType": "uint8",
          "name": "betSide",
          "type": "uint8"
        }
      ],
      "name": "addPlayer",
      "outputs": [],
      "stateMutability": "payable",
      "type": "function"
    },
    {
      "inputs": [
        {
          "internalType": "uint8",
          "name": "s",
          "type": "uint8"
        }
      ],
      "name": "getSideAmt",
      "outputs": [
        {
          "internalType": "uint256",
          "name": "",
          "type": "uint256"
        }
      ],
      "stateMutability": "view",
      "type": "function"
    },
    {
      "inputs": [],
      "name": "performUpkeep",
      "outputs": [],
      "stateMutability": "nonpayable",
      "type": "function"
    },
    {
      "inputs": [
        {
          "internalType": "address payable",
          "name": "_player",
          "type": "address"
        }
      ],
      "name": "withdrawWinnings",
      "outputs": [],
      "stateMutability": "nonpayable",
      "type": "function"
    },
    {
      "inputs": [],
      "name": "getBalance",
      "outputs": [
        {
          "internalType": "uint256",
          "name": "",
          "type": "uint256"
        }
      ],
      "stateMutability": "view",
      "type": "function"
    }
  ],
  "bytecode": "0x60806040523480156200001157600080fd5b5060405162001b8138038062001b8183398181016040528101906200003791906200020a565b836000806101000a81548173ffffffffffffffffffffffffffffffffffffffff021916908373ffffffffffffffffffffffffffffffffffffffff16021790555060008060146101000a81548160ff021916908360018111156200009f576200009e6200027c565b5b02179055508260018190555060008060156101000a81548160ff02191690836002811115620000d357620000d26200027c565b5b021790555081600760006101000a81548173ffffffffffffffffffffffffffffffffffffffff021916908373ffffffffffffffffffffffffffffffffffffffff1602179055508060028190555050505050620002ab565b600080fd5b600073ffffffffffffffffffffffffffffffffffffffff82169050919050565b60006200015c826200012f565b9050919050565b6200016e816200014f565b81146200017a57600080fd5b50565b6000815190506200018e8162000163565b92915050565b6000819050919050565b620001a98162000194565b8114620001b557600080fd5b50565b600081519050620001c9816200019e565b92915050565b6000819050919050565b620001e481620001cf565b8114620001f057600080fd5b50565b6000815190506200020481620001d9565b92915050565b600080600080608085870312156200022757620002266200012a565b5b600062000237878288016200017d565b94505060206200024a87828801620001b8565b93505060406200025d878288016200017d565b92505060606200027087828801620001f3565b91505092959194509250565b7f4e487b7100000000000000000000000000000000000000000000000000000000600052602160045260246000fd5b6118c680620002bb6000396000f3fe6080604052600436106100f75760003560e01c80636e4d243a1161008a5780639260b33f116100595780639260b33f1461031b5780639b2900ed14610344578063e2cb747d14610381578063f92a9e09146103be576100fe565b80636e4d243a146102805780637256eba4146102975780637a576ab3146102b35780638e15f473146102f0576100fe565b80631746bd1b116100c65780631746bd1b146101c1578063200d2ed2146101ed5780633618d3431461021857806342cde4e814610255576100fe565b806302d05d3f14610103578063053a2cfb1461012e57806312065fe0146101595780631486d61114610184576100fe565b366100fe57005b600080fd5b34801561010f57600080fd5b506101186103e9565b6040516101259190610e14565b60405180910390f35b34801561013a57600080fd5b5061014361040d565b6040516101509190610ea6565b60405180910390f35b34801561016557600080fd5b5061016e610420565b60405161017b9190610eda565b60405180910390f35b34801561019057600080fd5b506101ab60048036038101906101a69190610f1f565b610428565b6040516101b89190610eda565b60405180910390f35b3480156101cd57600080fd5b506101d6610440565b6040516101e4929190610f94565b60405180910390f35b3480156101f957600080fd5b5061020261047c565b60405161020f9190610fbd565b60405180910390f35b34801561022457600080fd5b5061023f600480360381019061023a9190611004565b61048f565b60405161024c9190610ea6565b60405180910390f35b34801561026157600080fd5b5061026a6104af565b604051610277919061104a565b60405180910390f35b34801561028c57600080fd5b506102956104b5565b005b6102b160048036038101906102ac91906110ca565b6105e2565b005b3480156102bf57600080fd5b506102da60048036038101906102d59190611004565b6109a8565b6040516102e79190610eda565b60405180910390f35b3480156102fc57600080fd5b506103056109c0565b604051610312919061104a565b60405180910390f35b34801561032757600080fd5b50610342600480360381019061033d919061115b565b610a61565b005b34801561035057600080fd5b5061036b60048036038101906103669190611004565b610d56565b60405161037891906111d0565b60405180910390f35b34801561038d57600080fd5b506103a860048036038101906103a391906111eb565b610d76565b6040516103b59190610eda565b60405180910390f35b3480156103ca57600080fd5b506103d3610dcd565b6040516103e09190610eda565b60405180910390f35b60008054906101000a900473ffffffffffffffffffffffffffffffffffffffff1681565b600060159054906101000a900460ff1681565b600047905090565b60066020528060005260406000206000915090505481565b60008060008054906101000a900473ffffffffffffffffffffffffffffffffffffffff16600060149054906101000a900460ff16915091509091565b600060149054906101000a900460ff1681565b60036020528060005260406000206000915054906101000a900460ff1681565b60025481565b6001544210156104fa576040517f08c379a00000000000000000000000000000000000000000000000000000000081526004016104f190611275565b60405180910390fd5b60018081111561050d5761050c610e2f565b5b600060149054906101000a900460ff16600181111561052f5761052e610e2f565b5b0361056f576040517f08c379a0000000000000000000000000000000000000000000000000000000008152600401610566906112e1565b60405180910390fd5b6001600060146101000a81548160ff0219169083600181111561059557610594610e2f565b5b02179055506000600290506002546105ab6109c0565b126105b557600190505b80600060156101000a81548160ff021916908360028111156105da576105d9610e2f565b5b021790555050565b60008015610679573373ffffffffffffffffffffffffffffffffffffffff1660008054906101000a900473ffffffffffffffffffffffffffffffffffffffff1673ffffffffffffffffffffffffffffffffffffffff1614610678576040517f08c379a000000000000000000000000000000000000000000000000000000000815260040161066f90611373565b60405180910390fd5b5b8373ffffffffffffffffffffffffffffffffffffffff16313411156106d3576040517f08c379a00000000000000000000000000000000000000000000000000000000081526004016106ca906113df565b60405180910390fd5b3373ffffffffffffffffffffffffffffffffffffffff168473ffffffffffffffffffffffffffffffffffffffff1614610741576040517f08c379a00000000000000000000000000000000000000000000000000000000081526004016107389061144b565b60405180910390fd5b823414610783576040517f08c379a000000000000000000000000000000000000000000000000000000000815260040161077a906114dd565b60405180910390fd5b6000600181111561079757610796610e2f565b5b600060149054906101000a900460ff1660018111156107b9576107b8610e2f565b5b146107f9576040517f08c379a00000000000000000000000000000000000000000000000000000000081526004016107f09061156f565b60405180910390fd5b60008260ff16148061080e575060018260ff16145b61084d576040517f08c379a0000000000000000000000000000000000000000000000000000000008152600401610844906115db565b60405180910390fd5b600154421115610892576040517f08c379a00000000000000000000000000000000000000000000000000000000081526004016108899061166d565b60405180910390fd5b34600460003373ffffffffffffffffffffffffffffffffffffffff1673ffffffffffffffffffffffffffffffffffffffff1681526020019081526020016000208190555060006002905060018360ff16036108ec57600190505b80600360003373ffffffffffffffffffffffffffffffffffffffff1673ffffffffffffffffffffffffffffffffffffffff16815260200190815260200160002060006101000a81548160ff0219169083600281111561094e5761094d610e2f565b5b0217905550836006600083600281111561096b5761096a610e2f565b5b600281111561097d5761097c610e2f565b5b8152602001908152602001600020600082825461099a91906116bc565b925050819055505050505050565b60046020528060005260406000206000915090505481565b600080600760009054906101000a900473ffffffffffffffffffffffffffffffffffffffff1673ffffffffffffffffffffffffffffffffffffffff1663feaf968c6040518163ffffffff1660e01b815260040160a060405180830381865afa158015610a30573d6000803e3d6000fd5b505050506040513d601f19601f82011682018060405250810190610a549190611773565b5050509150508091505090565b8073ffffffffffffffffffffffffffffffffffffffff163373ffffffffffffffffffffffffffffffffffffffff1614610a9957600080fd5b6000600460003373ffffffffffffffffffffffffffffffffffffffff1673ffffffffffffffffffffffffffffffffffffffff1681526020019081526020016000205411610ae557600080fd5b600180811115610af857610af7610e2f565b5b600060149054906101000a900460ff166001811115610b1a57610b19610e2f565b5b14610b2457600080fd5b600360008273ffffffffffffffffffffffffffffffffffffffff1673ffffffffffffffffffffffffffffffffffffffff16815260200190815260200160002060009054906101000a900460ff166002811115610b8357610b82610e2f565b5b600060159054906101000a900460ff166002811115610ba557610ba4610e2f565b5b14610baf57600080fd5b60006002811115610bc357610bc2610e2f565b5b600060159054906101000a900460ff166002811115610be557610be4610e2f565b5b03610bef57600080fd5b600060029050600280811115610c0857610c07610e2f565b5b600060159054906101000a900460ff166002811115610c2a57610c29610e2f565b5b03610c3457600190505b600060066000836002811115610c4d57610c4c610e2f565b5b6002811115610c5f57610c5e610e2f565b5b815260200190815260200160002054600660008060159054906101000a900460ff166002811115610c9357610c92610e2f565b5b6002811115610ca557610ca4610e2f565b5b815260200190815260200160002054600460008673ffffffffffffffffffffffffffffffffffffffff1673ffffffffffffffffffffffffffffffffffffffff16815260200190815260200160002054610cfe919061181d565b610d08919061184e565b90508273ffffffffffffffffffffffffffffffffffffffff166108fc829081150290604051600060405180830381858888f19350505050158015610d50573d6000803e3d6000fd5b50505050565b60056020528060005260406000206000915054906101000a900460ff1681565b6000806002905060018360ff1603610d8d57600190505b60066000826002811115610da457610da3610e2f565b5b6002811115610db657610db5610e2f565b5b815260200190815260200160002054915050919050565b60015481565b600073ffffffffffffffffffffffffffffffffffffffff82169050919050565b6000610dfe82610dd3565b9050919050565b610e0e81610df3565b82525050565b6000602082019050610e296000830184610e05565b92915050565b7f4e487b7100000000000000000000000000000000000000000000000000000000600052602160045260246000fd5b60038110610e6f57610e6e610e2f565b5b50565b6000819050610e8082610e5e565b919050565b6000610e9082610e72565b9050919050565b610ea081610e85565b82525050565b6000602082019050610ebb6000830184610e97565b92915050565b6000819050919050565b610ed481610ec1565b82525050565b6000602082019050610eef6000830184610ecb565b92915050565b600080fd5b60038110610f0757600080fd5b50565b600081359050610f1981610efa565b92915050565b600060208284031215610f3557610f34610ef5565b5b6000610f4384828501610f0a565b91505092915050565b60028110610f5d57610f5c610e2f565b5b50565b6000819050610f6e82610f4c565b919050565b6000610f7e82610f60565b9050919050565b610f8e81610f73565b82525050565b6000604082019050610fa96000830185610e05565b610fb66020830184610f85565b9392505050565b6000602082019050610fd26000830184610f85565b92915050565b610fe181610df3565b8114610fec57600080fd5b50565b600081359050610ffe81610fd8565b92915050565b60006020828403121561101a57611019610ef5565b5b600061102884828501610fef565b91505092915050565b6000819050919050565b61104481611031565b82525050565b600060208201905061105f600083018461103b565b92915050565b61106e81610ec1565b811461107957600080fd5b50565b60008135905061108b81611065565b92915050565b600060ff82169050919050565b6110a781611091565b81146110b257600080fd5b50565b6000813590506110c48161109e565b92915050565b6000806000606084860312156110e3576110e2610ef5565b5b60006110f186828701610fef565b93505060206111028682870161107c565b9250506040611113868287016110b5565b9150509250925092565b600061112882610dd3565b9050919050565b6111388161111d565b811461114357600080fd5b50565b6000813590506111558161112f565b92915050565b60006020828403121561117157611170610ef5565b5b600061117f84828501611146565b91505092915050565b6002811061119957611198610e2f565b5b50565b60008190506111aa82611188565b919050565b60006111ba8261119c565b9050919050565b6111ca816111af565b82525050565b60006020820190506111e560008301846111c1565b92915050565b60006020828403121561120157611200610ef5565b5b600061120f848285016110b5565b91505092915050565b600082825260208201905092915050565b7f67616d65206973206e6f7420726561647920746f206265207265736f6c766564600082015250565b600061125f602083611218565b915061126a82611229565b602082019050919050565b6000602082019050818103600083015261128e81611252565b9050919050565b7f67616d6520697320616c726561647920636c6f73656400000000000000000000600082015250565b60006112cb601683611218565b91506112d682611295565b602082019050919050565b600060208201905081810360008301526112fa816112be565b9050919050565b7f596f7520617265206e6f74207468652063726561746f72206f6620746869732060008201527f67616d6521000000000000000000000000000000000000000000000000000000602082015250565b600061135d602583611218565b915061136882611301565b604082019050919050565b6000602082019050818103600083015261138c81611350565b9050919050565b7f596f7520646f206e6f74206861766520656e6f7567682062616c616e63650000600082015250565b60006113c9601e83611218565b91506113d482611393565b602082019050919050565b600060208201905081810360008301526113f8816113bc565b9050919050565b7f496e76616c6964205472616e73616374696f6e00000000000000000000000000600082015250565b6000611435601383611218565b9150611440826113ff565b602082019050919050565b6000602082019050818103600083015261146481611428565b9050919050565b7f4d73672076616c7565206e6f7420657175616c20746f2065746820616d6f756e60008201527f7420737065636966696564000000000000000000000000000000000000000000602082015250565b60006114c7602b83611218565b91506114d28261146b565b604082019050919050565b600060208201905081810360008301526114f6816114ba565b9050919050565b7f47616d6520697320636c6f7365642c206e6f206675727468657220626574732060008201527f6163636570746564000000000000000000000000000000000000000000000000602082015250565b6000611559602883611218565b9150611564826114fd565b604082019050919050565b600060208201905081810360008301526115888161154c565b9050919050565b7f6265742073696465206973206e6f74207265636f676e69736564000000000000600082015250565b60006115c5601a83611218565b91506115d08261158f565b602082019050919050565b600060208201905081810360008301526115f4816115b8565b9050919050565b7f63616e6e6f74207075742062657473206166746572207265736f6c766520746960008201527f6d65000000000000000000000000000000000000000000000000000000000000602082015250565b6000611657602283611218565b9150611662826115fb565b604082019050919050565b600060208201905081810360008301526116868161164a565b9050919050565b7f4e487b7100000000000000000000000000000000000000000000000000000000600052601160045260246000fd5b60006116c782610ec1565b91506116d283610ec1565b92508282019050808211156116ea576116e961168d565b5b92915050565b600069ffffffffffffffffffff82169050919050565b61170f816116f0565b811461171a57600080fd5b50565b60008151905061172c81611706565b92915050565b61173b81611031565b811461174657600080fd5b50565b60008151905061175881611732565b92915050565b60008151905061176d81611065565b92915050565b600080600080600060a0868803121561178f5761178e610ef5565b5b600061179d8882890161171d565b95505060206117ae88828901611749565b94505060406117bf8882890161175e565b93505060606117d08882890161175e565b92505060806117e18882890161171d565b9150509295509295909350565b7f4e487b7100000000000000000000000000000000000000000000000000000000600052601260045260246000fd5b600061182882610ec1565b915061183383610ec1565b925082611843576118426117ee565b5b828204905092915050565b600061185982610ec1565b915061186483610ec1565b925082820261187281610ec1565b915082820484148315176118895761188861168d565b5b509291505056fea2646970667358221220985116ac738ae83d18292c23294cf9447929d59f5a8c47f256a11c8e5b5e62ec64736f6c63430008110033",
  "immutableReferences": {},
  "source": "// SPDX-License-Identifier: MIT\npragma solidity >=0.4.22 <0.9.0;\n\nimport \"@chainlink/contracts/src/v0.8/interfaces/AggregatorV3Interface.sol\";\n\ncontract GameContract {\n\n  enum GameStatus {\n    OPEN,\n    CLOSED\n  }\n\n  enum hasWithdrawn {\n    YES,\n    NO\n  }\n\n  enum gameSide {\n    UNKNOWN,\n    YES,\n    NO\n  }\n\n  address public creator; \n  GameStatus public status;\n  gameSide public gameOutcome;\n  uint256 public gameResolveTime;\n  int256 public threshold;\n  mapping(address => gameSide) public betSides; // whether user bets yes or no\n  mapping(address => uint256) public betRecords; // bet amount user committed (in wei)\n  mapping(address => hasWithdrawn) public winningWithdrawals; // indicate if user has already withdrawn winnings\n  mapping(gameSide => uint256) public amtPlacedOnSide; // remember how much amount is placed on each side\n  AggregatorV3Interface internal priceFeed;\n\n  // constructor takes in a resolve time, a oracleAddr (oracle address), and a threshold, \n  // where a gameSide of NO indicates < threshold, and a gameSide of YES indicates >= threshold\n  constructor(address _creator, uint256 resolveTime, address oracleAddr, int256 thres) {\n    creator = _creator;\n    status = GameStatus.OPEN;\n    gameResolveTime = resolveTime; // set when the game is allowed to conclude\n    gameOutcome = gameSide.UNKNOWN; // explicitly set gameOutcome to undecided\n    \n    priceFeed = AggregatorV3Interface(oracleAddr);\n    threshold = thres;\n  }\n\n  /**\n    * Returns the latest price\n    */\n  function getLatestPrice() public view returns (int) {\n      (\n          /*uint80 roundID*/,\n          int price,\n          /*uint startedAt*/,\n          /*uint timeStamp*/,\n          /*uint80 answeredInRound*/\n      ) = priceFeed.latestRoundData();\n      return price;\n  }\n\n  // to check if message sent is by creator\n  modifier isCreator(bool isEqual) {\n    if (isEqual) {\n      require(\n        creator == msg.sender,\n        \"You are not the creator of this game!\"\n      );\n    }\n    _;\n  }\n\n  // to get game information\n  function getGameInfo() \n    public \n    view \n    returns (\n      address,  // creator\n      GameStatus // status\n  ) {\n    return (creator, status);\n  }\n\n  // payable keyword should allow depositing of ethereum into smart contract\n  // allow msg.sender address to register as a player\n  function addPlayer(address _player, uint256 _ethAmount, uint8 betSide)\n    payable\n    public\n    isCreator(false) {\n      require(msg.value <= _player.balance, \"You do not have enough balance\"); \n      require(_player == msg.sender, \"Invalid Transaction\");\n      require(msg.value == _ethAmount, \"Msg value not equal to eth amount specified\"); \n      require(status == GameStatus.OPEN, \"Game is closed, no further bets accepted\");\n      require(betSide == 0 || betSide == 1, \"bet side is not recognised\");\n      require(block.timestamp <= gameResolveTime, \"cannot put bets after resolve time\");\n      \n      // book keeping\n      betRecords[msg.sender] = msg.value; // add players and corresponding amount deposited into mapping\n      gameSide side = gameSide.NO; // 0 - NO, 1 - YES\n      if (betSide == 1) {\n        side = gameSide.YES;\n      }\n      betSides[msg.sender] = side; // add player to side he bets on\n      amtPlacedOnSide[side] += _ethAmount;\n    }\n\n  // disable any backdoor by creator\n  // // allow creator to cancel the game created.\n  // function cancelGame() public isCreator(true) {\n  //   status = GameStatus.CLOSED;\n  // }\n\n  function getSideAmt(uint8 s) public view returns (uint256) {\n    // require(s == 0 || s == 1, \"side must be one of 0 or 1\");\n    gameSide side = gameSide.NO;\n    if (s == 1) {\n      side = gameSide.YES;\n    }\n\n    return amtPlacedOnSide[side];\n  }\n\n  // impt: anyone can call the contract to perform upkeep but it has a guard to protect against early resolves\n  // and it checks against a \"trusted\" oracle chainlink to fetch the result\n  function performUpkeep() public {\n    require(block.timestamp >= gameResolveTime, \"game is not ready to be resolved\");\n    require(status != GameStatus.CLOSED, \"game is already closed\");\n\n    status = GameStatus.CLOSED;\n    gameSide side = gameSide.NO;\n    if (getLatestPrice() >= threshold) {\n      side = gameSide.YES;\n    }\n    gameOutcome = side;\n  }\n\n  // allow winners to withdraw their winnings\n  function withdrawWinnings(address payable _player) public {\n    require(msg.sender == _player); //restrict only winner can withdraw his/her own winnings\n    require(betRecords[msg.sender] > 0); // player must have bet something\n    require(status == GameStatus.CLOSED); // game must be closed\n    require(gameOutcome == betSides[_player]); // player must be on winning side\n    require(gameOutcome != gameSide.UNKNOWN); // player must be on winning side\n\n    // where to calculate amount of winnings\n    // calculated winnings = (player's bet amount / total bet amount on winning side) * total bet amount on losing side\n    gameSide oppSide = gameSide.NO;\n    if (gameOutcome == gameSide.NO) {\n      oppSide = gameSide.YES;\n    }\n    uint256 winnings = (betRecords[_player] / amtPlacedOnSide[gameOutcome]) * amtPlacedOnSide[oppSide];\n    _player.transfer(winnings);\n  }\n\n  // to get smart contract's balance\n  function getBalance() public view returns (uint256) {\n    return address(this).balance;\n  }\n\n  // @notice Will receive any eth sent to the contract\n  receive() external payable {\n  }\n}\n",
  "sourcePath": "/Users/gerald/Desktop/HwangMarket/contracts/GameContract.sol",
  "compiler": {
    "name": "solc",
    "version": "0.8.17+commit.8df45f5f.Emscripten.clang"
  },
  "schemaVersion": "3.4.10",
  "updatedAt": "2022-10-18T17:37:35.277Z",
  "devdoc": {
    "kind": "dev",
    "methods": {},
    "version": 1
  },
  "userdoc": {
    "kind": "user",
    "methods": {
      "getLatestPrice()": {
        "notice": "Returns the latest price"
      }
    },
    "version": 1
  }
}