{
  "contractName": "GameContract",
  "abi": [
    {
      "inputs": [
        {
          "internalType": "address",
          "name": "_creator",
          "type": "address"
        },
        {
          "internalType": "uint256",
          "name": "resolveTime",
          "type": "uint256"
        }
      ],
      "stateMutability": "nonpayable",
      "type": "constructor"
    },
    {
      "inputs": [
        {
          "internalType": "enum GameContract.gameSide",
          "name": "",
          "type": "uint8"
        }
      ],
      "name": "amtPlacedOnSide",
      "outputs": [
        {
          "internalType": "uint256",
          "name": "",
          "type": "uint256"
        }
      ],
      "stateMutability": "view",
      "type": "function"
    },
    {
      "inputs": [
        {
          "internalType": "address",
          "name": "",
          "type": "address"
        }
      ],
      "name": "betRecords",
      "outputs": [
        {
          "internalType": "uint256",
          "name": "",
          "type": "uint256"
        }
      ],
      "stateMutability": "view",
      "type": "function"
    },
    {
      "inputs": [
        {
          "internalType": "address",
          "name": "",
          "type": "address"
        }
      ],
      "name": "betSides",
      "outputs": [
        {
          "internalType": "enum GameContract.gameSide",
          "name": "",
          "type": "uint8"
        }
      ],
      "stateMutability": "view",
      "type": "function"
    },
    {
      "inputs": [],
      "name": "creator",
      "outputs": [
        {
          "internalType": "address",
          "name": "",
          "type": "address"
        }
      ],
      "stateMutability": "view",
      "type": "function"
    },
    {
      "inputs": [],
      "name": "gameOutcome",
      "outputs": [
        {
          "internalType": "enum GameContract.gameSide",
          "name": "",
          "type": "uint8"
        }
      ],
      "stateMutability": "view",
      "type": "function"
    },
    {
      "inputs": [],
      "name": "gameResolveTime",
      "outputs": [
        {
          "internalType": "uint256",
          "name": "",
          "type": "uint256"
        }
      ],
      "stateMutability": "view",
      "type": "function"
    },
    {
      "inputs": [],
      "name": "status",
      "outputs": [
        {
          "internalType": "enum GameContract.GameStatus",
          "name": "",
          "type": "uint8"
        }
      ],
      "stateMutability": "view",
      "type": "function"
    },
    {
      "inputs": [
        {
          "internalType": "address",
          "name": "",
          "type": "address"
        }
      ],
      "name": "winningWithdrawals",
      "outputs": [
        {
          "internalType": "enum GameContract.hasWithdrawn",
          "name": "",
          "type": "uint8"
        }
      ],
      "stateMutability": "view",
      "type": "function"
    },
    {
      "stateMutability": "payable",
      "type": "receive"
    },
    {
      "inputs": [],
      "name": "getGameInfo",
      "outputs": [
        {
          "internalType": "address",
          "name": "",
          "type": "address"
        },
        {
          "internalType": "enum GameContract.GameStatus",
          "name": "",
          "type": "uint8"
        }
      ],
      "stateMutability": "view",
      "type": "function"
    },
    {
      "inputs": [
        {
          "internalType": "address",
          "name": "_player",
          "type": "address"
        },
        {
          "internalType": "uint256",
          "name": "_ethAmount",
          "type": "uint256"
        },
        {
          "internalType": "uint8",
          "name": "betSide",
          "type": "uint8"
        }
      ],
      "name": "addPlayer",
      "outputs": [],
      "stateMutability": "payable",
      "type": "function"
    },
    {
      "inputs": [],
      "name": "cancelGame",
      "outputs": [],
      "stateMutability": "nonpayable",
      "type": "function"
    },
    {
      "inputs": [
        {
          "internalType": "uint8",
          "name": "s",
          "type": "uint8"
        }
      ],
      "name": "getSideAmt",
      "outputs": [
        {
          "internalType": "uint256",
          "name": "",
          "type": "uint256"
        }
      ],
      "stateMutability": "view",
      "type": "function"
    },
    {
      "inputs": [
        {
          "internalType": "uint8",
          "name": "_gameOutcome",
          "type": "uint8"
        }
      ],
      "name": "performUpkeep",
      "outputs": [],
      "stateMutability": "nonpayable",
      "type": "function"
    },
    {
      "inputs": [
        {
          "internalType": "address payable",
          "name": "_player",
          "type": "address"
        }
      ],
      "name": "withdrawWinnings",
      "outputs": [],
      "stateMutability": "nonpayable",
      "type": "function"
    },
    {
      "inputs": [],
      "name": "getBalance",
      "outputs": [
        {
          "internalType": "uint256",
          "name": "",
          "type": "uint256"
        }
      ],
      "stateMutability": "view",
      "type": "function"
    }
  ],
  "bytecode": "0x60806040523480156200001157600080fd5b506040516200181338038062001813833981810160405281019062000037919062000185565b816000806101000a81548173ffffffffffffffffffffffffffffffffffffffff021916908373ffffffffffffffffffffffffffffffffffffffff16021790555060008060146101000a81548160ff021916908360018111156200009f576200009e620001cc565b5b02179055508060018190555060008060156101000a81548160ff02191690836002811115620000d357620000d2620001cc565b5b02179055505050620001fb565b600080fd5b600073ffffffffffffffffffffffffffffffffffffffff82169050919050565b60006200011282620000e5565b9050919050565b620001248162000105565b81146200013057600080fd5b50565b600081519050620001448162000119565b92915050565b6000819050919050565b6200015f816200014a565b81146200016b57600080fd5b50565b6000815190506200017f8162000154565b92915050565b600080604083850312156200019f576200019e620000e0565b5b6000620001af8582860162000133565b9250506020620001c2858286016200016e565b9150509250929050565b7f4e487b7100000000000000000000000000000000000000000000000000000000600052602160045260246000fd5b611608806200020b6000396000f3fe6080604052600436106100ec5760003560e01c80637256eba41161008a5780639b2900ed116100595780639b2900ed146102f5578063d84c1ac914610332578063e2cb747d14610349578063f92a9e0914610386576100f3565b80637256eba41461024a57806378c4e9a9146102665780637a576ab31461028f5780639260b33f146102cc576100f3565b80631486d611116100c65780631486d611146101795780631746bd1b146101b6578063200d2ed2146101e25780633618d3431461020d576100f3565b806302d05d3f146100f8578063053a2cfb1461012357806312065fe01461014e576100f3565b366100f357005b600080fd5b34801561010457600080fd5b5061010d6103b1565b60405161011a9190610df2565b60405180910390f35b34801561012f57600080fd5b506101386103d5565b6040516101459190610e84565b60405180910390f35b34801561015a57600080fd5b506101636103e8565b6040516101709190610eb8565b60405180910390f35b34801561018557600080fd5b506101a0600480360381019061019b9190610efd565b6103f0565b6040516101ad9190610eb8565b60405180910390f35b3480156101c257600080fd5b506101cb610408565b6040516101d9929190610f72565b60405180910390f35b3480156101ee57600080fd5b506101f7610444565b6040516102049190610f9b565b60405180910390f35b34801561021957600080fd5b50610234600480360381019061022f9190610fe2565b610457565b6040516102419190610e84565b60405180910390f35b610264600480360381019061025f9190611074565b610477565b005b34801561027257600080fd5b5061028d600480360381019061028891906110c7565b6107f8565b005b34801561029b57600080fd5b506102b660048036038101906102b19190610fe2565b610962565b6040516102c39190610eb8565b60405180910390f35b3480156102d857600080fd5b506102f360048036038101906102ee9190611132565b61097a565b005b34801561030157600080fd5b5061031c60048036038101906103179190610fe2565b610c6f565b60405161032991906111a7565b60405180910390f35b34801561033e57600080fd5b50610347610c8f565b005b34801561035557600080fd5b50610370600480360381019061036b91906110c7565b610d54565b60405161037d9190610eb8565b60405180910390f35b34801561039257600080fd5b5061039b610dab565b6040516103a89190610eb8565b60405180910390f35b60008054906101000a900473ffffffffffffffffffffffffffffffffffffffff1681565b600060159054906101000a900460ff1681565b600047905090565b60056020528060005260406000206000915090505481565b60008060008054906101000a900473ffffffffffffffffffffffffffffffffffffffff16600060149054906101000a900460ff16915091509091565b600060149054906101000a900460ff1681565b60026020528060005260406000206000915054906101000a900460ff1681565b6000801561050e573373ffffffffffffffffffffffffffffffffffffffff1660008054906101000a900473ffffffffffffffffffffffffffffffffffffffff1673ffffffffffffffffffffffffffffffffffffffff161461050d576040517f08c379a000000000000000000000000000000000000000000000000000000000815260040161050490611245565b60405180910390fd5b5b8373ffffffffffffffffffffffffffffffffffffffff1631341115610568576040517f08c379a000000000000000000000000000000000000000000000000000000000815260040161055f906112b1565b60405180910390fd5b3373ffffffffffffffffffffffffffffffffffffffff168473ffffffffffffffffffffffffffffffffffffffff16146105d6576040517f08c379a00000000000000000000000000000000000000000000000000000000081526004016105cd9061131d565b60405180910390fd5b823414610618576040517f08c379a000000000000000000000000000000000000000000000000000000000815260040161060f906113af565b60405180910390fd5b6000600181111561062c5761062b610e0d565b5b600060149054906101000a900460ff16600181111561064e5761064d610e0d565b5b1461068e576040517f08c379a000000000000000000000000000000000000000000000000000000000815260040161068590611441565b60405180910390fd5b60008260ff1614806106a3575060018260ff16145b6106e2576040517f08c379a00000000000000000000000000000000000000000000000000000000081526004016106d9906114ad565b60405180910390fd5b34600360003373ffffffffffffffffffffffffffffffffffffffff1673ffffffffffffffffffffffffffffffffffffffff1681526020019081526020016000208190555060006002905060018360ff160361073c57600190505b80600260003373ffffffffffffffffffffffffffffffffffffffff1673ffffffffffffffffffffffffffffffffffffffff16815260200190815260200160002060006101000a81548160ff0219169083600281111561079e5761079d610e0d565b5b021790555083600560008360028111156107bb576107ba610e0d565b5b60028111156107cd576107cc610e0d565b5b815260200190815260200160002060008282546107ea91906114fc565b925050819055505050505050565b6001801561088f573373ffffffffffffffffffffffffffffffffffffffff1660008054906101000a900473ffffffffffffffffffffffffffffffffffffffff1673ffffffffffffffffffffffffffffffffffffffff161461088e576040517f08c379a000000000000000000000000000000000000000000000000000000000815260040161088590611245565b60405180910390fd5b5b60015442101561089e57600080fd5b60008260ff1614806108b3575060018260ff16145b6108f2576040517f08c379a00000000000000000000000000000000000000000000000000000000081526004016108e9906114ad565b60405180910390fd5b6001600060146101000a81548160ff0219169083600181111561091857610917610e0d565b5b021790555060006002905060018360ff160361093357600190505b80600060156101000a81548160ff0219169083600281111561095857610957610e0d565b5b0217905550505050565b60036020528060005260406000206000915090505481565b8073ffffffffffffffffffffffffffffffffffffffff163373ffffffffffffffffffffffffffffffffffffffff16146109b257600080fd5b6000600360003373ffffffffffffffffffffffffffffffffffffffff1673ffffffffffffffffffffffffffffffffffffffff16815260200190815260200160002054116109fe57600080fd5b600180811115610a1157610a10610e0d565b5b600060149054906101000a900460ff166001811115610a3357610a32610e0d565b5b14610a3d57600080fd5b600260008273ffffffffffffffffffffffffffffffffffffffff1673ffffffffffffffffffffffffffffffffffffffff16815260200190815260200160002060009054906101000a900460ff166002811115610a9c57610a9b610e0d565b5b600060159054906101000a900460ff166002811115610abe57610abd610e0d565b5b14610ac857600080fd5b60006002811115610adc57610adb610e0d565b5b600060159054906101000a900460ff166002811115610afe57610afd610e0d565b5b03610b0857600080fd5b600060029050600280811115610b2157610b20610e0d565b5b600060159054906101000a900460ff166002811115610b4357610b42610e0d565b5b03610b4d57600190505b600060056000836002811115610b6657610b65610e0d565b5b6002811115610b7857610b77610e0d565b5b815260200190815260200160002054600560008060159054906101000a900460ff166002811115610bac57610bab610e0d565b5b6002811115610bbe57610bbd610e0d565b5b815260200190815260200160002054600360008673ffffffffffffffffffffffffffffffffffffffff1673ffffffffffffffffffffffffffffffffffffffff16815260200190815260200160002054610c17919061155f565b610c219190611590565b90508273ffffffffffffffffffffffffffffffffffffffff166108fc829081150290604051600060405180830381858888f19350505050158015610c69573d6000803e3d6000fd5b50505050565b60046020528060005260406000206000915054906101000a900460ff1681565b60018015610d26573373ffffffffffffffffffffffffffffffffffffffff1660008054906101000a900473ffffffffffffffffffffffffffffffffffffffff1673ffffffffffffffffffffffffffffffffffffffff1614610d25576040517f08c379a0000000000000000000000000000000000000000000000000000000008152600401610d1c90611245565b60405180910390fd5b5b6001600060146101000a81548160ff02191690836001811115610d4c57610d4b610e0d565b5b021790555050565b6000806002905060018360ff1603610d6b57600190505b60056000826002811115610d8257610d81610e0d565b5b6002811115610d9457610d93610e0d565b5b815260200190815260200160002054915050919050565b60015481565b600073ffffffffffffffffffffffffffffffffffffffff82169050919050565b6000610ddc82610db1565b9050919050565b610dec81610dd1565b82525050565b6000602082019050610e076000830184610de3565b92915050565b7f4e487b7100000000000000000000000000000000000000000000000000000000600052602160045260246000fd5b60038110610e4d57610e4c610e0d565b5b50565b6000819050610e5e82610e3c565b919050565b6000610e6e82610e50565b9050919050565b610e7e81610e63565b82525050565b6000602082019050610e996000830184610e75565b92915050565b6000819050919050565b610eb281610e9f565b82525050565b6000602082019050610ecd6000830184610ea9565b92915050565b600080fd5b60038110610ee557600080fd5b50565b600081359050610ef781610ed8565b92915050565b600060208284031215610f1357610f12610ed3565b5b6000610f2184828501610ee8565b91505092915050565b60028110610f3b57610f3a610e0d565b5b50565b6000819050610f4c82610f2a565b919050565b6000610f5c82610f3e565b9050919050565b610f6c81610f51565b82525050565b6000604082019050610f876000830185610de3565b610f946020830184610f63565b9392505050565b6000602082019050610fb06000830184610f63565b92915050565b610fbf81610dd1565b8114610fca57600080fd5b50565b600081359050610fdc81610fb6565b92915050565b600060208284031215610ff857610ff7610ed3565b5b600061100684828501610fcd565b91505092915050565b61101881610e9f565b811461102357600080fd5b50565b6000813590506110358161100f565b92915050565b600060ff82169050919050565b6110518161103b565b811461105c57600080fd5b50565b60008135905061106e81611048565b92915050565b60008060006060848603121561108d5761108c610ed3565b5b600061109b86828701610fcd565b93505060206110ac86828701611026565b92505060406110bd8682870161105f565b9150509250925092565b6000602082840312156110dd576110dc610ed3565b5b60006110eb8482850161105f565b91505092915050565b60006110ff82610db1565b9050919050565b61110f816110f4565b811461111a57600080fd5b50565b60008135905061112c81611106565b92915050565b60006020828403121561114857611147610ed3565b5b60006111568482850161111d565b91505092915050565b600281106111705761116f610e0d565b5b50565b60008190506111818261115f565b919050565b600061119182611173565b9050919050565b6111a181611186565b82525050565b60006020820190506111bc6000830184611198565b92915050565b600082825260208201905092915050565b7f596f7520617265206e6f74207468652063726561746f72206f6620746869732060008201527f67616d6521000000000000000000000000000000000000000000000000000000602082015250565b600061122f6025836111c2565b915061123a826111d3565b604082019050919050565b6000602082019050818103600083015261125e81611222565b9050919050565b7f596f7520646f206e6f74206861766520656e6f7567682062616c616e63650000600082015250565b600061129b601e836111c2565b91506112a682611265565b602082019050919050565b600060208201905081810360008301526112ca8161128e565b9050919050565b7f496e76616c6964205472616e73616374696f6e00000000000000000000000000600082015250565b60006113076013836111c2565b9150611312826112d1565b602082019050919050565b60006020820190508181036000830152611336816112fa565b9050919050565b7f4d73672076616c7565206e6f7420657175616c20746f2065746820616d6f756e60008201527f7420737065636966696564000000000000000000000000000000000000000000602082015250565b6000611399602b836111c2565b91506113a48261133d565b604082019050919050565b600060208201905081810360008301526113c88161138c565b9050919050565b7f47616d6520697320636c6f7365642c206e6f206675727468657220626574732060008201527f6163636570746564000000000000000000000000000000000000000000000000602082015250565b600061142b6028836111c2565b9150611436826113cf565b604082019050919050565b6000602082019050818103600083015261145a8161141e565b9050919050565b7f6265742073696465206973206e6f74207265636f676e69736564000000000000600082015250565b6000611497601a836111c2565b91506114a282611461565b602082019050919050565b600060208201905081810360008301526114c68161148a565b9050919050565b7f4e487b7100000000000000000000000000000000000000000000000000000000600052601160045260246000fd5b600061150782610e9f565b915061151283610e9f565b925082820190508082111561152a576115296114cd565b5b92915050565b7f4e487b7100000000000000000000000000000000000000000000000000000000600052601260045260246000fd5b600061156a82610e9f565b915061157583610e9f565b92508261158557611584611530565b5b828204905092915050565b600061159b82610e9f565b91506115a683610e9f565b92508282026115b481610e9f565b915082820484148315176115cb576115ca6114cd565b5b509291505056fea26469706673582212209de5ded39e24002cb8a8ac6e555d18e7624fcb31a5ce908af4f085931a591b6c64736f6c63430008110033",
  "immutableReferences": {},
  "source": "// SPDX-License-Identifier: MIT\npragma solidity >=0.4.22 <0.9.0;\n\ncontract GameContract {\n\n  enum GameStatus {\n    OPEN,\n    CLOSED\n  }\n\n  enum hasWithdrawn {\n    YES,\n    NO\n  }\n\n  enum gameSide {\n    UNKNOWN,\n    YES,\n    NO\n  }\n\n  address public creator; \n  GameStatus public status;\n  gameSide public gameOutcome;\n  uint256 public gameResolveTime;\n  mapping(address => gameSide) public betSides; // whether user bets yes or no\n  mapping(address => uint256) public betRecords; // bet amount user committed (in wei)\n  mapping(address => hasWithdrawn) public winningWithdrawals; // indicate if user has already withdrawn winnings\n  mapping(gameSide => uint256) public amtPlacedOnSide; // remember how much amount is placed on each side\n  \n  constructor(address _creator, uint256 resolveTime) {\n    creator = _creator;\n    status = GameStatus.OPEN;\n    gameResolveTime = resolveTime; // set when the game is allowed to conclude\n    gameOutcome = gameSide.UNKNOWN; // explicitly set gameOutcome to undecided\n  }\n\n  // to check if message sent is by creator\n  modifier isCreator(bool isEqual) {\n    if (isEqual) {\n      require(\n        creator == msg.sender,\n        \"You are not the creator of this game!\"\n      );\n    }\n    _;\n  }\n\n  // to get game information\n  function getGameInfo() \n    public \n    view \n    returns (\n      address,  // creator\n      GameStatus // status\n  ) {\n    return (creator, status);\n  }\n\n  // payable keyword should allow depositing of ethereum into smart contract\n  // allow msg.sender address to register as a player\n  function addPlayer(address _player, uint256 _ethAmount, uint8 betSide)\n    payable\n    public\n    isCreator(false) {\n      require(msg.value <= _player.balance, \"You do not have enough balance\"); \n      require(_player == msg.sender, \"Invalid Transaction\");\n      require(msg.value == _ethAmount, \"Msg value not equal to eth amount specified\"); \n      require(status == GameStatus.OPEN, \"Game is closed, no further bets accepted\");\n      require(betSide == 0 || betSide == 1, \"bet side is not recognised\");\n      \n      // book keeping\n      betRecords[msg.sender] = msg.value; // add players and corresponding amount deposited into mapping\n      gameSide side = gameSide.NO; // 0 - NO, 1 - YES\n      if (betSide == 1) {\n        side = gameSide.YES;\n      }\n      betSides[msg.sender] = side; // add player to side he bets on\n      amtPlacedOnSide[side] += _ethAmount;\n    }\n\n  // allow creator to cancel the game created.\n  function cancelGame() public isCreator(true) {\n    status = GameStatus.CLOSED;\n  }\n\n  function getSideAmt(uint8 s) public view returns (uint256) {\n    // require(s == 0 || s == 1, \"side must be one of 0 or 1\");\n    gameSide side = gameSide.NO;\n    if (s == 1) {\n      side = gameSide.YES;\n    }\n\n    return amtPlacedOnSide[side];\n  }\n\n  // TODO: get decision from oracle instead, for now we let creater close and set game outcome\n  function performUpkeep(uint8 _gameOutcome) public isCreator(true) {\n    require(block.timestamp >= gameResolveTime);\n    require(_gameOutcome == 0 || _gameOutcome == 1, \"bet side is not recognised\");\n    status = GameStatus.CLOSED;\n    gameSide side = gameSide.NO;\n    if (_gameOutcome == 1) {\n      side = gameSide.YES;\n    }\n    gameOutcome = side;\n  }\n\n  // allow winners to withdraw their winnings\n  function withdrawWinnings(address payable _player) public {\n    require(msg.sender == _player); //restrict only winner can withdraw his/her own winnings\n    require(betRecords[msg.sender] > 0); // player must have bet something\n    require(status == GameStatus.CLOSED); // game must be closed\n    require(gameOutcome == betSides[_player]); // player must be on winning side\n    require(gameOutcome != gameSide.UNKNOWN); // player must be on winning side\n\n    // where to calculate amount of winnings\n    // calculated winnings = (player's bet amount / total bet amount on winning side) * total bet amount on losing side\n    gameSide oppSide = gameSide.NO;\n    if (gameOutcome == gameSide.NO) {\n      oppSide = gameSide.YES;\n    }\n    uint256 winnings = (betRecords[_player] / amtPlacedOnSide[gameOutcome]) * amtPlacedOnSide[oppSide];\n    _player.transfer(winnings);\n  }\n\n  // to get smart contract's balance\n  function getBalance() public view returns (uint256) {\n    return address(this).balance;\n  }\n\n  // @notice Will receive any eth sent to the contract\n  receive() external payable {\n  }\n}\n",
  "sourcePath": "/Users/gerald/Desktop/HwangMarket/contracts/GameContract.sol",
  "compiler": {
    "name": "solc",
    "version": "0.8.17+commit.8df45f5f.Emscripten.clang"
  },
  "schemaVersion": "3.4.10",
  "updatedAt": "2022-10-18T10:00:55.034Z",
  "devdoc": {
    "kind": "dev",
    "methods": {},
    "version": 1
  },
  "userdoc": {
    "kind": "user",
    "methods": {},
    "version": 1
  }
}