{
  "contractName": "GameContract",
  "abi": [
    {
      "inputs": [
        {
          "internalType": "address",
          "name": "_creator",
          "type": "address"
        },
        {
          "internalType": "uint256",
          "name": "resolveTime",
          "type": "uint256"
        },
        {
          "internalType": "address",
          "name": "oracleAddr",
          "type": "address"
        },
        {
          "internalType": "int256",
          "name": "thres",
          "type": "int256"
        }
      ],
      "stateMutability": "nonpayable",
      "type": "constructor"
    },
    {
      "anonymous": false,
      "inputs": [
        {
          "components": [
            {
              "internalType": "uint256",
              "name": "listingId",
              "type": "uint256"
            },
            {
              "internalType": "address",
              "name": "listingAddr",
              "type": "address"
            },
            {
              "internalType": "address",
              "name": "player1",
              "type": "address"
            },
            {
              "internalType": "address",
              "name": "token1",
              "type": "address"
            },
            {
              "internalType": "uint256",
              "name": "token1Amt",
              "type": "uint256"
            },
            {
              "internalType": "address",
              "name": "player2",
              "type": "address"
            },
            {
              "internalType": "address",
              "name": "token2",
              "type": "address"
            },
            {
              "internalType": "uint256",
              "name": "token2Amt",
              "type": "uint256"
            },
            {
              "internalType": "bool",
              "name": "fulfilled",
              "type": "bool"
            }
          ],
          "indexed": false,
          "internalType": "struct Models.ListingInfo",
          "name": "listingInfo",
          "type": "tuple"
        }
      ],
      "name": "ListingFulfilled",
      "type": "event"
    },
    {
      "anonymous": false,
      "inputs": [
        {
          "components": [
            {
              "internalType": "uint256",
              "name": "listingId",
              "type": "uint256"
            },
            {
              "internalType": "address",
              "name": "listingAddr",
              "type": "address"
            },
            {
              "internalType": "address",
              "name": "player1",
              "type": "address"
            },
            {
              "internalType": "address",
              "name": "token1",
              "type": "address"
            },
            {
              "internalType": "uint256",
              "name": "token1Amt",
              "type": "uint256"
            },
            {
              "internalType": "address",
              "name": "player2",
              "type": "address"
            },
            {
              "internalType": "address",
              "name": "token2",
              "type": "address"
            },
            {
              "internalType": "uint256",
              "name": "token2Amt",
              "type": "uint256"
            },
            {
              "internalType": "bool",
              "name": "fulfilled",
              "type": "bool"
            }
          ],
          "indexed": false,
          "internalType": "struct Models.ListingInfo",
          "name": "listingInfo",
          "type": "tuple"
        }
      ],
      "name": "NewListing",
      "type": "event"
    },
    {
      "inputs": [
        {
          "internalType": "enum GameContract.gameSide",
          "name": "",
          "type": "uint8"
        }
      ],
      "name": "amtPlacedOnSide",
      "outputs": [
        {
          "internalType": "uint256",
          "name": "",
          "type": "uint256"
        }
      ],
      "stateMutability": "view",
      "type": "function"
    },
    {
      "inputs": [],
      "name": "creator",
      "outputs": [
        {
          "internalType": "address",
          "name": "",
          "type": "address"
        }
      ],
      "stateMutability": "view",
      "type": "function"
    },
    {
      "inputs": [],
      "name": "gameNoTokenContract",
      "outputs": [
        {
          "internalType": "contract GameERC20Token",
          "name": "",
          "type": "address"
        }
      ],
      "stateMutability": "view",
      "type": "function"
    },
    {
      "inputs": [],
      "name": "gameNoTokenContractAddress",
      "outputs": [
        {
          "internalType": "address",
          "name": "",
          "type": "address"
        }
      ],
      "stateMutability": "view",
      "type": "function"
    },
    {
      "inputs": [],
      "name": "gameOutcome",
      "outputs": [
        {
          "internalType": "enum GameContract.gameSide",
          "name": "",
          "type": "uint8"
        }
      ],
      "stateMutability": "view",
      "type": "function"
    },
    {
      "inputs": [],
      "name": "gameResolveTime",
      "outputs": [
        {
          "internalType": "uint256",
          "name": "",
          "type": "uint256"
        }
      ],
      "stateMutability": "view",
      "type": "function"
    },
    {
      "inputs": [],
      "name": "gameYesTokenContract",
      "outputs": [
        {
          "internalType": "contract GameERC20Token",
          "name": "",
          "type": "address"
        }
      ],
      "stateMutability": "view",
      "type": "function"
    },
    {
      "inputs": [],
      "name": "gameYesTokenContractAddress",
      "outputs": [
        {
          "internalType": "address",
          "name": "",
          "type": "address"
        }
      ],
      "stateMutability": "view",
      "type": "function"
    },
    {
      "inputs": [],
      "name": "listingsCount",
      "outputs": [
        {
          "internalType": "uint256",
          "name": "",
          "type": "uint256"
        }
      ],
      "stateMutability": "view",
      "type": "function"
    },
    {
      "inputs": [],
      "name": "mainContract",
      "outputs": [
        {
          "internalType": "contract HwangMarket",
          "name": "",
          "type": "address"
        }
      ],
      "stateMutability": "view",
      "type": "function"
    },
    {
      "inputs": [],
      "name": "status",
      "outputs": [
        {
          "internalType": "enum GameContract.GameStatus",
          "name": "",
          "type": "uint8"
        }
      ],
      "stateMutability": "view",
      "type": "function"
    },
    {
      "inputs": [],
      "name": "threshold",
      "outputs": [
        {
          "internalType": "int256",
          "name": "",
          "type": "int256"
        }
      ],
      "stateMutability": "view",
      "type": "function"
    },
    {
      "inputs": [
        {
          "internalType": "address",
          "name": "_player",
          "type": "address"
        },
        {
          "internalType": "uint256",
          "name": "token1Amt",
          "type": "uint256"
        },
        {
          "internalType": "address",
          "name": "token2",
          "type": "address"
        },
        {
          "internalType": "uint256",
          "name": "token2Amt",
          "type": "uint256"
        }
      ],
      "name": "newListing",
      "outputs": [
        {
          "components": [
            {
              "internalType": "uint256",
              "name": "listingId",
              "type": "uint256"
            },
            {
              "internalType": "address",
              "name": "listingAddr",
              "type": "address"
            },
            {
              "internalType": "address",
              "name": "player1",
              "type": "address"
            },
            {
              "internalType": "address",
              "name": "token1",
              "type": "address"
            },
            {
              "internalType": "uint256",
              "name": "token1Amt",
              "type": "uint256"
            },
            {
              "internalType": "address",
              "name": "player2",
              "type": "address"
            },
            {
              "internalType": "address",
              "name": "token2",
              "type": "address"
            },
            {
              "internalType": "uint256",
              "name": "token2Amt",
              "type": "uint256"
            },
            {
              "internalType": "bool",
              "name": "fulfilled",
              "type": "bool"
            }
          ],
          "internalType": "struct Models.ListingInfo",
          "name": "",
          "type": "tuple"
        }
      ],
      "stateMutability": "nonpayable",
      "type": "function"
    },
    {
      "inputs": [
        {
          "internalType": "uint256",
          "name": "listingId",
          "type": "uint256"
        }
      ],
      "name": "getListingContractAddressById",
      "outputs": [
        {
          "internalType": "address",
          "name": "",
          "type": "address"
        }
      ],
      "stateMutability": "view",
      "type": "function"
    },
    {
      "inputs": [],
      "name": "getAllListings",
      "outputs": [
        {
          "components": [
            {
              "internalType": "uint256",
              "name": "listingId",
              "type": "uint256"
            },
            {
              "internalType": "address",
              "name": "listingAddr",
              "type": "address"
            },
            {
              "internalType": "address",
              "name": "player1",
              "type": "address"
            },
            {
              "internalType": "address",
              "name": "token1",
              "type": "address"
            },
            {
              "internalType": "uint256",
              "name": "token1Amt",
              "type": "uint256"
            },
            {
              "internalType": "address",
              "name": "player2",
              "type": "address"
            },
            {
              "internalType": "address",
              "name": "token2",
              "type": "address"
            },
            {
              "internalType": "uint256",
              "name": "token2Amt",
              "type": "uint256"
            },
            {
              "internalType": "bool",
              "name": "fulfilled",
              "type": "bool"
            }
          ],
          "internalType": "struct Models.ListingInfo[]",
          "name": "",
          "type": "tuple[]"
        }
      ],
      "stateMutability": "view",
      "type": "function"
    },
    {
      "inputs": [
        {
          "components": [
            {
              "internalType": "uint256",
              "name": "listingId",
              "type": "uint256"
            },
            {
              "internalType": "address",
              "name": "listingAddr",
              "type": "address"
            },
            {
              "internalType": "address",
              "name": "player1",
              "type": "address"
            },
            {
              "internalType": "address",
              "name": "token1",
              "type": "address"
            },
            {
              "internalType": "uint256",
              "name": "token1Amt",
              "type": "uint256"
            },
            {
              "internalType": "address",
              "name": "player2",
              "type": "address"
            },
            {
              "internalType": "address",
              "name": "token2",
              "type": "address"
            },
            {
              "internalType": "uint256",
              "name": "token2Amt",
              "type": "uint256"
            },
            {
              "internalType": "bool",
              "name": "fulfilled",
              "type": "bool"
            }
          ],
          "internalType": "struct Models.ListingInfo",
          "name": "listingInfo",
          "type": "tuple"
        }
      ],
      "name": "updateListing",
      "outputs": [],
      "stateMutability": "nonpayable",
      "type": "function"
    },
    {
      "inputs": [
        {
          "internalType": "address",
          "name": "_player",
          "type": "address"
        },
        {
          "internalType": "address",
          "name": "listingAddr",
          "type": "address"
        }
      ],
      "name": "partakeInListing",
      "outputs": [
        {
          "components": [
            {
              "internalType": "uint256",
              "name": "listingId",
              "type": "uint256"
            },
            {
              "internalType": "address",
              "name": "listingAddr",
              "type": "address"
            },
            {
              "internalType": "address",
              "name": "player1",
              "type": "address"
            },
            {
              "internalType": "address",
              "name": "token1",
              "type": "address"
            },
            {
              "internalType": "uint256",
              "name": "token1Amt",
              "type": "uint256"
            },
            {
              "internalType": "address",
              "name": "player2",
              "type": "address"
            },
            {
              "internalType": "address",
              "name": "token2",
              "type": "address"
            },
            {
              "internalType": "uint256",
              "name": "token2Amt",
              "type": "uint256"
            },
            {
              "internalType": "bool",
              "name": "fulfilled",
              "type": "bool"
            }
          ],
          "internalType": "struct Models.ListingInfo",
          "name": "",
          "type": "tuple"
        }
      ],
      "stateMutability": "nonpayable",
      "type": "function"
    },
    {
      "inputs": [],
      "name": "getLatestPrice",
      "outputs": [
        {
          "internalType": "int256",
          "name": "",
          "type": "int256"
        }
      ],
      "stateMutability": "view",
      "type": "function"
    },
    {
      "inputs": [],
      "name": "getGameInfo",
      "outputs": [
        {
          "internalType": "address",
          "name": "",
          "type": "address"
        },
        {
          "internalType": "enum GameContract.GameStatus",
          "name": "",
          "type": "uint8"
        },
        {
          "internalType": "enum GameContract.gameSide",
          "name": "",
          "type": "uint8"
        },
        {
          "internalType": "uint256",
          "name": "",
          "type": "uint256"
        },
        {
          "internalType": "int256",
          "name": "",
          "type": "int256"
        }
      ],
      "stateMutability": "view",
      "type": "function"
    },
    {
      "inputs": [
        {
          "internalType": "address",
          "name": "_player",
          "type": "address"
        },
        {
          "internalType": "uint256",
          "name": "hwangMktTokenAmt",
          "type": "uint256"
        },
        {
          "internalType": "uint8",
          "name": "betSide",
          "type": "uint8"
        }
      ],
      "name": "addPlayer",
      "outputs": [],
      "stateMutability": "nonpayable",
      "type": "function"
    },
    {
      "inputs": [],
      "name": "getTrxs",
      "outputs": [
        {
          "components": [
            {
              "internalType": "uint256",
              "name": "trxId",
              "type": "uint256"
            },
            {
              "internalType": "string",
              "name": "activityType",
              "type": "string"
            },
            {
              "internalType": "uint256",
              "name": "trxAmt",
              "type": "uint256"
            },
            {
              "internalType": "uint256",
              "name": "trxTime",
              "type": "uint256"
            },
            {
              "internalType": "uint8",
              "name": "gameSide",
              "type": "uint8"
            },
            {
              "internalType": "address",
              "name": "from",
              "type": "address"
            },
            {
              "internalType": "address",
              "name": "to",
              "type": "address"
            }
          ],
          "internalType": "struct GameContract.Trx[]",
          "name": "",
          "type": "tuple[]"
        }
      ],
      "stateMutability": "view",
      "type": "function"
    },
    {
      "inputs": [
        {
          "internalType": "uint8",
          "name": "s",
          "type": "uint8"
        }
      ],
      "name": "getSideAmt",
      "outputs": [
        {
          "internalType": "uint256",
          "name": "",
          "type": "uint256"
        }
      ],
      "stateMutability": "view",
      "type": "function"
    },
    {
      "inputs": [],
      "name": "performUpkeep",
      "outputs": [],
      "stateMutability": "nonpayable",
      "type": "function"
    },
    {
      "inputs": [
        {
          "internalType": "uint256",
          "name": "withdrawAmt",
          "type": "uint256"
        }
      ],
      "name": "withdrawWinnings",
      "outputs": [],
      "stateMutability": "nonpayable",
      "type": "function"
    },
    {
      "inputs": [],
      "name": "getBalance",
      "outputs": [
        {
          "internalType": "uint256",
          "name": "",
          "type": "uint256"
        }
      ],
      "stateMutability": "view",
      "type": "function"
    },
    {
      "inputs": [
        {
          "internalType": "int256",
          "name": "price",
          "type": "int256"
        }
      ],
      "name": "backdoor",
      "outputs": [],
      "stateMutability": "nonpayable",
      "type": "function"
    }
  ],
  "bytecode": "0x60806040523480156200001157600080fd5b5060405162004d6c38038062004d6c83398101604081905262000034916200024f565b6000805460078054600160a060020a03888116600160a060020a031992831681179093556001889055600160b060020a03199093169091179092556004805490921690841617905560028190556040516103e890620000939062000224565b6060808252600b908201527f47616d654e6f546f6b656e000000000000000000000000000000000000000000608082015260a0602082018190526003908201527f474e54000000000000000000000000000000000000000000000000000000000060c0820152604081019190915260e001604051809103906000f08015801562000121573d6000803e3d6000fd5b5060098054600160a060020a0392909216600160a060020a03199283168117909155600880549092161790556040516103e8906200015f9062000224565b6060808252600c908201527f47616d65596573546f6b656e0000000000000000000000000000000000000000608082015260a0602082018190526003908201527f475954000000000000000000000000000000000000000000000000000000000060c0820152604081019190915260e001604051809103906000f080158015620001ed573d6000803e3d6000fd5b50600b8054600160a060020a0392909216600160a060020a03199283168117909155600a8054909216179055506200029892505050565b6114d3806200389983390190565b8051600160a060020a03811681146200024a57600080fd5b919050565b600080600080608085870312156200026657600080fd5b620002718562000232565b935060208501519250620002886040860162000232565b6060959095015193969295505050565b6135f180620002a86000396000f3fe60806040523480156200001157600080fd5b5060043610620001b35760003560e060020a900480636e4d243a11620000f4578063d270e7ab11620000a7578063e07056af116200007e578063e07056af14620003e1578063e2cb747d14620003f8578063f91c2cbc146200040f578063f92a9e09146200042857600080fd5b8063d270e7ab14620003a2578063d6875f9514620003b6578063dc8046f014620003ca57600080fd5b80636e4d243a14620003365780637256eba41462000340578063846c6f4f14620003575780638e15f473146200036b5780638f09cc8b1462000375578063ae73ccec146200038957600080fd5b80631486d611116200016a5780632cd1adfe11620001415780632cd1adfe14620002f757806341ef10c8146200030e57806342cde4e8146200032257806346b1df04146200032c57600080fd5b80631486d61114620002755780631746bd1b1462000298578063200d2ed214620002d357600080fd5b806302d05d3f14620001b8578063053a2cfb14620001e95780630726325f146200020d578063097cd6c9146200023357806312065fe0146200024c57806314794702146200025e575b600080fd5b600054620001cc90600160a060020a031681565b604051600160a060020a0390911681526020015b60405180910390f35b600054620001fe9060a860020a900460ff1681565b604051620001e0919062002221565b620002246200021e3660046200225c565b62000432565b604051620001e0919062002334565b6200024a6200024436600462002345565b620005f8565b005b30315b604051908152602001620001e0565b6200024a6200026f36600462002345565b620006f3565b6200024f620002863660046200235f565b60036020526000908152604090205481565b600054600154600254604051620001e093600160a060020a0381169360ff60a060020a830481169460a860020a90930416929091906200239c565b600054620002e89060a060020a900460ff1681565b604051620001e09190620023dd565b6200022462000308366004620023ed565b62000e78565b600854620001cc90600160a060020a031681565b6200024f60025481565b6200024f60115481565b6200024a620010c5565b6200024a620003513660046200244c565b62001290565b600a54620001cc90600160a060020a031681565b6200024f62001c39565b600954620001cc90600160a060020a031681565b6200039362001ccd565b604051620001e091906200248f565b600754620001cc90600160a060020a031681565b600b54620001cc90600160a060020a031681565b6200024a620003db36600462002578565b62001d69565b620001cc620003f236600462002345565b62001df5565b6200024f6200040936600462002628565b62001e9a565b6200041962001f59565b604051620001e0919062002646565b6200024f60015481565b6200043c62002197565b6040517f6f6ff405000000000000000000000000000000000000000000000000000000008152600160a060020a0384811660048301528391600091831690636f6ff40590602401610120604051808303816000875af1158015620004a4573d6000803e3d6000fd5b505050506040513d601f19601f82011682018060405250810190620004ca919062002821565b9050600082600160a060020a03166302d05d3f6040518163ffffffff1660e060020a028152600401602060405180830381865afa15801562000510573d6000803e3d6000fd5b505050506040513d601f19601f8201168201806040525081019062000536919062002841565b6040517fdc8046f0000000000000000000000000000000000000000000000000000000008152909150600160a060020a0382169063dc8046f0906200058090859060040162002334565b600060405180830381600087803b1580156200059b57600080fd5b505af1158015620005b0573d6000803e3d6000fd5b505050507f4758bcd8e425945eea731ed13074c209c3176197b970b6a78b278ad015ae907882604051620005e5919062002334565b60405180910390a1509150505b92915050565b6000805474ff0000000000000000000000000000000000000000191660a060020a179055600280548190831262000630575060019050805b6000805483919075ff000000000000000000000000000000000000000000191660a860020a8360028111156200066a576200066a620021f1565b0217905550426001556007546040517fe362937d00000000000000000000000000000000000000000000000000000000815260ff83166004820152600160a060020a039091169063e362937d90602401600060405180830381600087803b158015620006d557600080fd5b505af1158015620006ea573d6000803e3d6000fd5b50505050505050565b600160005460a060020a900460ff166001811115620007165762000716620021f1565b146200076c5760405160e560020a62461bcd02815260206004820152601660248201527f67616d65206973206e6f742079657420636c6f7365640000000000000000000060448201526064015b60405180910390fd5b6000805460a860020a900460ff1660028111156200078e576200078e620021f1565b03620007e05760405160e560020a62461bcd02815260206004820152601e60248201527f67616d65206f7574636f6d652063616e6e6f7420626520756e6b6e6f776e0000604482015260640162000763565b600954600160a060020a0316600160005460a860020a900460ff1660028111156200080f576200080f620021f1565b03620008235750600b54600160a060020a03165b6040517fdd62ed3e0000000000000000000000000000000000000000000000000000000081523360048201523060248201528290600160a060020a0383169063dd62ed3e90604401602060405180830381865afa15801562000889573d6000803e3d6000fd5b505050506040513d601f19601f82011682018060405250810190620008af919062002861565b1015620009285760405160e560020a62461bcd02815260206004820152602360248201527f706c61796572206d75737420617070726f766520776974686472617720616d6f60448201527f756e740000000000000000000000000000000000000000000000000000000000606482015260840162000763565b6040517f70a082310000000000000000000000000000000000000000000000000000000081523360048201528290600160a060020a038316906370a0823190602401602060405180830381865afa15801562000988573d6000803e3d6000fd5b505050506040513d601f19601f82011682018060405250810190620009ae919062002861565b101562000a275760405160e560020a62461bcd02815260206004820152602e60248201527f706c61796572206d75737420686176652067616d6520746f6b656e20616d6f7560448201527f6e7420746f207769746864726177000000000000000000000000000000000000606482015260840162000763565b60028060005460a860020a900460ff16600281111562000a4b5762000a4b620021f1565b0362000a55575060015b60008362000a6560018062002894565b62000a719190620028ba565b90506000816003600085600281111562000a8f5762000a8f620021f1565b600281111562000aa35762000aa3620021f1565b815260200190815260200160002054600360008060159054906101000a900460ff16600281111562000ad95762000ad9620021f1565b600281111562000aed5762000aed620021f1565b8152602001908152602001600020548462000b09919062002894565b62000b159190620028ba565b62000b219190620028d4565b9050600760009054906101000a9004600160a060020a0316600160a060020a0316633fc15f156040518163ffffffff1660e060020a028152600401602060405180830381865afa15801562000b7a573d6000803e3d6000fd5b505050506040513d601f19601f8201168201806040525081019062000ba0919062002841565b6040517fa9059cbb00000000000000000000000000000000000000000000000000000000815233600482015260248101839052600160a060020a03919091169063a9059cbb906044016020604051808303816000875af115801562000c09573d6000803e3d6000fd5b505050506040513d601f19601f8201168201806040525081019062000c2f9190620028ea565b5062000c3e84333088620020a8565b6002600160005460a860020a900460ff16600281111562000c635762000c63620021f1565b0362000c6d575060015b6040805160e08101825260068054825282518084018452600881527f57495448445241570000000000000000000000000000000000000000000000006020828101919091528301908152928201859052426060830181905260ff851660808401523060a08401523360c084015260058054600181018255600091909152835192027f036b6384b5eca791c62761152d0c79bb0604c104a5fb6f4eb0703f3154bb3db08101928355935190937f036b6384b5eca791c62761152d0c79bb0604c104a5fb6f4eb0703f3154bb3db1019062000d47908262002998565b506040820151600282015560608201516003820155608082015160048201805460a085015160ff90931674ffffffffffffffffffffffffffffffffffffffffff1990911617610100600160a060020a039384160217905560c0909201516005909101805473ffffffffffffffffffffffffffffffffffffffff1916919092161790556006805490600062000ddb8362002a6b565b90915550506007546040517f7976948800000000000000000000000000000000000000000000000000000000815233600482015260ff841660248201526044810185905260648101839052600160a060020a0390911690637976948890608401600060405180830381600087803b15801562000e5657600080fd5b505af115801562000e6b573d6000803e3d6000fd5b5050505050505050505050565b62000e8262002197565b600854600160a060020a031633148062000ea65750600a54600160a060020a031633145b62000f1d5760405160e560020a62461bcd02815260206004820152602760248201527f6f6e6c792067616d6520746f6b656e2063616e20637265617465206e6577206c60448201527f697374696e677300000000000000000000000000000000000000000000000000606482015260840162000763565b60006011549050600081873388888860405162000f3a90620021e3565b958652600160a060020a03948516602087015292841660408601526060850191909152909116608083015260a082015260c001604051809103906000f08015801562000f8a573d6000803e3d6000fd5b506040805161012081018252848152600160a060020a0380841660208301528a811682840152336060830152608082018a9052600060a0830181905290891660c083015260e0820188905261010082015290517f070b5eb40000000000000000000000000000000000000000000000000000000081529192509073__IterableMapping_______________________9063070b5eb4906200103590600c908790869060040162002a87565b60006040518083038186803b1580156200104e57600080fd5b505af415801562001063573d6000803e3d6000fd5b5050601180549250905060006200107a8362002a6b565b91905055507fd1fe3704bd3aa4f4974d5168e39528bbb86b19e98e5f798beea49af58df3013981604051620010b0919062002334565b60405180910390a1925050505b949350505050565b6001544210156200111c5760405160e560020a62461bcd02815260206004820181905260248201527f67616d65206973206e6f7420726561647920746f206265207265736f6c766564604482015260640162000763565b600160005460a060020a900460ff1660018111156200113f576200113f620021f1565b03620011915760405160e560020a62461bcd02815260206004820152601660248201527f67616d6520697320616c726561647920636c6f73656400000000000000000000604482015260640162000763565b6000805474ff0000000000000000000000000000000000000000191660a060020a179055600280548190620011c562001c39565b12620011d2575060019050805b6000805483919075ff000000000000000000000000000000000000000000191660a860020a8360028111156200120c576200120c620021f1565b02179055506007546040517fe362937d00000000000000000000000000000000000000000000000000000000815260ff83166004820152600160a060020a039091169063e362937d90602401600060405180830381600087803b1580156200127357600080fd5b505af115801562001288573d6000803e3d6000fd5b505050505050565b60008060005460a060020a900460ff166001811115620012b457620012b4620021f1565b146200132c5760405160e560020a62461bcd02815260206004820152602860248201527f47616d6520697320636c6f7365642c206e6f206675727468657220626574732060448201527f6163636570746564000000000000000000000000000000000000000000000000606482015260840162000763565b8160ff16600114806200134257508160ff166002145b620013935760405160e560020a62461bcd02815260206004820152601a60248201527f6265742073696465206973206e6f74207265636f676e69736564000000000000604482015260640162000763565b600154421115620014105760405160e560020a62461bcd02815260206004820152602260248201527f63616e6e6f74207075742062657473206166746572207265736f6c766520746960448201527f6d65000000000000000000000000000000000000000000000000000000000000606482015260840162000763565b600754604080517f3fc15f1500000000000000000000000000000000000000000000000000000000815290518592600160a060020a031691633fc15f159160048083019260209291908290030181865afa15801562001473573d6000803e3d6000fd5b505050506040513d601f19601f8201168201806040525081019062001499919062002841565b6040517fdd62ed3e000000000000000000000000000000000000000000000000000000008152600160a060020a038781166004830152306024830152919091169063dd62ed3e90604401602060405180830381865afa15801562001501573d6000803e3d6000fd5b505050506040513d601f19601f8201168201806040525081019062001527919062002861565b1015620015a05760405160e560020a62461bcd02815260206004820152602d60248201527f706c617965722773206877616e67206d61726b657420746f6b656e20616c6c6f60448201527f77616e636520746f6f206c6f7700000000000000000000000000000000000000606482015260840162000763565b600754604080517f3fc15f1500000000000000000000000000000000000000000000000000000000815290518592600160a060020a031691633fc15f159160048083019260209291908290030181865afa15801562001603573d6000803e3d6000fd5b505050506040513d601f19601f8201168201806040525081019062001629919062002841565b6040517f70a08231000000000000000000000000000000000000000000000000000000008152600160a060020a03878116600483015291909116906370a0823190602401602060405180830381865afa1580156200168b573d6000803e3d6000fd5b505050506040513d601f19601f82011682018060405250810190620016b1919062002861565b10156200172a5760405160e560020a62461bcd02815260206004820152602b60248201527f706c617965722773206877616e67206d61726b657420746f6b656e2062616c6160448201527f6e636520746f6f206c6f77000000000000000000000000000000000000000000606482015260840162000763565b600260ff83166001036200173c575060015b600954600160a060020a031660ff8416600103620017625750600b54600160a060020a03165b600062001771600187620028ba565b905081600160a060020a03166319d1997a6040518163ffffffff1660e060020a028152600401602060405180830381865afa158015620017b5573d6000803e3d6000fd5b505050506040513d601f19601f82011682018060405250810190620017db919062002861565b8183600160a060020a03166318160ddd6040518163ffffffff1660e060020a028152600401602060405180830381865afa1580156200181e573d6000803e3d6000fd5b505050506040513d601f19601f8201168201806040525081019062001844919062002861565b620018509190620028d4565b1115620018c95760405160e560020a62461bcd02815260206004820152602760248201527f67616d6520746f6b656e2063616e6e6f74206d696e742072657175657374656460448201527f20616d6f756e7400000000000000000000000000000000000000000000000000606482015260840162000763565b6040517f40c10f19000000000000000000000000000000000000000000000000000000008152600160a060020a038881166004830152602482018390528316906340c10f1990604401600060405180830381600087803b1580156200192d57600080fd5b505af115801562001942573d6000803e3d6000fd5b50505050620019d0600760009054906101000a9004600160a060020a0316600160a060020a0316633fc15f156040518163ffffffff1660e060020a028152600401602060405180830381865afa158015620019a1573d6000803e3d6000fd5b505050506040513d601f19601f82011682018060405250810190620019c7919062002841565b883089620020a8565b8560036000856002811115620019ea57620019ea620021f1565b6002811115620019fe57620019fe620021f1565b8152602001908152602001600020600082825462001a1d9190620028d4565b90915550506040805160e08101825260068054825282518084018452600381527f42455400000000000000000000000000000000000000000000000000000000006020828101919091528301908152928201899052426060830181905260ff891660808401523060a0840152600160a060020a038b1660c084015260058054600181018255600091909152835192027f036b6384b5eca791c62761152d0c79bb0604c104a5fb6f4eb0703f3154bb3db08101928355935190937f036b6384b5eca791c62761152d0c79bb0604c104a5fb6f4eb0703f3154bb3db1019062001b05908262002998565b506040820151600282015560608201516003820155608082015160048201805460a085015160ff90931674ffffffffffffffffffffffffffffffffffffffffff1990911617610100600160a060020a039384160217905560c0909201516005909101805473ffffffffffffffffffffffffffffffffffffffff1916919092161790556006805490600062001b998362002a6b565b90915550506007546040517f5039eb97000000000000000000000000000000000000000000000000000000008152600160a060020a038a8116600483015260ff89166024830152604482018a90526064820184905290911690635039eb9790608401600060405180830381600087803b15801562001c1657600080fd5b505af115801562001c2b573d6000803e3d6000fd5b505050505050505050505050565b60048054604080517ffeaf968c00000000000000000000000000000000000000000000000000000000815290516000938493600160a060020a03169263feaf968c928183019260a0928290030181865afa15801562001c9c573d6000803e3d6000fd5b505050506040513d601f19601f8201168201806040525081019062001cc2919062002ac0565b509195945050505050565b6040517f75a02c20000000000000000000000000000000000000000000000000000000008152600c600482015260609073__IterableMapping_______________________906375a02c2090602401600060405180830381865af415801562001d3a573d6000803e3d6000fd5b505050506040513d6000823e601f3d908101601f1916820160405262001d64919081019062002b15565b905090565b80516040517f070b5eb400000000000000000000000000000000000000000000000000000000815273__IterableMapping_______________________9163070b5eb49162001dc091600c91869060040162002a87565b60006040518083038186803b15801562001dd957600080fd5b505af415801562001dee573d6000803e3d6000fd5b5050505050565b6040517fd31c830c000000000000000000000000000000000000000000000000000000008152600c60048201526024810182905260009073__IterableMapping_______________________9063d31c830c9060440161012060405180830381865af415801562001e6a573d6000803e3d6000fd5b505050506040513d601f19601f8201168201806040525081019062001e90919062002821565b6020015192915050565b60008160ff166001148062001eb257508160ff166002145b62001f035760405160e560020a62461bcd02815260206004820152601a60248201527f73696465206d757374206265206f6e65206f662031206f722032000000000000604482015260640162000763565b600260ff831660010362001f15575060015b6003600082600281111562001f2e5762001f2e620021f1565b600281111562001f425762001f42620021f1565b815260200190815260200160002054915050919050565b60606005805480602002602001604051908101604052809291908181526020016000905b828210156200209f57838290600052602060002090600602016040518060e00160405290816000820154815260200160018201805462001fbd906200290a565b80601f016020809104026020016040519081016040528092919081815260200182805462001feb906200290a565b80156200203c5780601f1062002010576101008083540402835291602001916200203c565b820191906000526020600020905b8154815290600101906020018083116200201e57829003601f168201915b5050509183525050600282015460208083019190915260038301546040830152600483015460ff81166060840152600160a060020a036101009091048116608084015260059093015490921660a090910152908252600192909201910162001f7d565b50505050905090565b6040517f23b872dd000000000000000000000000000000000000000000000000000000008152600160a060020a038481166004830152838116602483015260448201839052600091908616906323b872dd906064016020604051808303816000875af11580156200211d573d6000803e3d6000fd5b505050506040513d601f19601f82011682018060405250810190620021439190620028ea565b90508062001dee5760405160e560020a62461bcd02815260206004820152601560248201527f546f6b656e207472616e73666572206661696c65640000000000000000000000604482015260640162000763565b6040805161012081018252600080825260208201819052918101829052606081018290526080810182905260a0810182905260c0810182905260e0810182905261010081019190915290565b6109e98062002bd383390190565b60e060020a634e487b7102600052602160045260246000fd5b600381106200221d576200221d620021f1565b9052565b60208101620005f282846200220a565b600160a060020a03811681146200224757600080fd5b50565b8035620022578162002231565b919050565b600080604083850312156200227057600080fd5b82356200227d8162002231565b915060208301356200228f8162002231565b809150509250929050565b805182526020810151600160a060020a03808216602085015280604084015116604085015280606084015116606085015250506080810151608083015260a0810151620022f260a0840182600160a060020a03169052565b5060c08101516200230e60c0840182600160a060020a03169052565b5060e081015160e0830152610100808201516200232e8285018215159052565b50505050565b6101208101620005f282846200229a565b6000602082840312156200235857600080fd5b5035919050565b6000602082840312156200237257600080fd5b8135600381106200238257600080fd5b9392505050565b600281106200221d576200221d620021f1565b600160a060020a038616815260a08101620023bb602083018762002389565b620023ca60408301866200220a565b6060820193909352608001529392505050565b60208101620005f2828462002389565b600080600080608085870312156200240457600080fd5b8435620024118162002231565b93506020850135925060408501356200242a8162002231565b9396929550929360600135925050565b803560ff811681146200225757600080fd5b6000806000606084860312156200246257600080fd5b83356200246f8162002231565b92506020840135915062002486604085016200243a565b90509250925092565b6020808252825182820181905260009190848201906040850190845b81811015620024d657620024c18385516200229a565b928401926101209290920191600101620024ab565b50909695505050505050565b60e060020a634e487b7102600052604160045260246000fd5b604051610120810167ffffffffffffffff81118282101715620025225762002522620024e2565b60405290565b604051601f8201601f1916810167ffffffffffffffff81118282101715620025545762002554620024e2565b604052919050565b80151581146200224757600080fd5b803562002257816200255c565b600061012082840312156200258c57600080fd5b62002596620024fb565b82358152620025a8602084016200224a565b6020820152620025bb604084016200224a565b6040820152620025ce606084016200224a565b606082015260808301356080820152620025eb60a084016200224a565b60a0820152620025fe60c084016200224a565b60c082015260e083013560e08201526101006200261d8185016200256b565b908201529392505050565b6000602082840312156200263b57600080fd5b62002382826200243a565b6020808252825182820181905260009190604090818501908084028601830187850186805b848110156200274757603f198a8503018652825160e08151865289820151818b880152805180838901528592505b80831015620026ba578183018c01518884016101000152918b019162002699565b61010092508583828a0101528a8401518b8901526060915081840151828901526080915081840151620026f1838a018260ff169052565b5060a09150818401516200270f838a0182600160a060020a03169052565b5060c093840151600160a060020a03811689860152939150988b0198601f01601f19169690960101945050918701916001016200266b565b50919998505050505050505050565b8051620022578162002231565b805162002257816200255c565b600061012082840312156200278457600080fd5b6200278e620024fb565b905081518152620027a26020830162002756565b6020820152620027b56040830162002756565b6040820152620027c86060830162002756565b606082015260808201516080820152620027e560a0830162002756565b60a0820152620027f860c0830162002756565b60c082015260e082015160e08201526101006200281781840162002763565b9082015292915050565b600061012082840312156200283557600080fd5b62002382838362002770565b6000602082840312156200285457600080fd5b8151620023828162002231565b6000602082840312156200287457600080fd5b5051919050565b60e060020a634e487b7102600052601160045260246000fd5b600082620028b55760e060020a634e487b7102600052601260045260246000fd5b500490565b8082028115828204841417620005f257620005f26200287b565b80820180821115620005f257620005f26200287b565b600060208284031215620028fd57600080fd5b815162002382816200255c565b6002810460018216806200291f57607f821691505b602082108103620029435760e060020a634e487b7102600052602260045260246000fd5b50919050565b601f82111562002993576000818152602081206020601f86010481016020861015620029725750805b6020601f860104820191505b8181101562001288578281556001016200297e565b505050565b815167ffffffffffffffff811115620029b557620029b5620024e2565b620029cd81620029c684546200290a565b8462002949565b602080601f83116001811462002a095760008415620029ec5750858301515b60028086026008870290910a600019041982161786555062001288565b600085815260208120601f198616915b8281101562002a3a5788860151825594840194600190910190840162002a19565b508582101562002a5b57878501516008601f88160260020a60001904191681555b5050505050600202600101905550565b60006001820162002a805762002a806200287b565b5060010190565b838152602081018390526101608101620010bd60408301846200229a565b805169ffffffffffffffffffff811681146200225757600080fd5b600080600080600060a0868803121562002ad957600080fd5b62002ae48662002aa5565b945060208601519350604086015192506060860151915062002b096080870162002aa5565b90509295509295909350565b6000602080838503121562002b2957600080fd5b825167ffffffffffffffff8082111562002b4257600080fd5b818501915085601f83011262002b5757600080fd5b81518181111562002b6c5762002b6c620024e2565b62002b7b848583020162002528565b818152848101925061012091820284018501918883111562002b9c57600080fd5b938501935b8285101562002bc65762002bb6898662002770565b8452938401939285019262002ba1565b5097965050505050505056fe608060405234801561001057600080fd5b506040516109e93803806109e983398101604081905261002f9161020c565b6000805433600160a060020a03199182168117909255600a805461010060a860020a031916610100909302929092179091556001879055600280548216600160a060020a03888116918217909255600380548416888416908117909155600587905560078054851693871693909317909255600984905560048054909316821783556040517f70a082310000000000000000000000000000000000000000000000000000000081529283015284916370a0823190602401602060405180830381865afa158015610103573d6000803e3d6000fd5b505050506040513d601f19601f82011682018060405250810190610127919061026b565b10156101bb57604080517f08c379a00000000000000000000000000000000000000000000000000000000081526020600482015260248101919091527f706c6179657220312068617320696e73756666696369656e742062616c616e6360448201527f65206f6620746f6b656e203120746f206372656174652061206c697374696e67606482015260840160405180910390fd5b5060088054600160a060020a031916600160a060020a03929092169190911790555050600a805460ff19169055506102849050565b8051600160a060020a038116811461020757600080fd5b919050565b60008060008060008060c0878903121561022557600080fd5b86519550610235602088016101f0565b9450610243604088016101f0565b935060608701519250610258608088016101f0565b915060a087015190509295509295509295565b60006020828403121561027d57600080fd5b5051919050565b610756806102936000396000f3fe608060405234801561001057600080fd5b50600436106100d1576000357c010000000000000000000000000000000000000000000000000000000090048063c4e5edcd1161008e578063c4e5edcd14610176578063d21220a71461017f578063d30895e414610192578063d5488048146101a5578063d70c6703146101b8578063e2d46f98146101c157600080fd5b806302d05d3f146100d657806325be124e1461010657806358aaf0be1461011957806359a5f12d1461012c5780636f6ff4051461013f5780639405dfdd1461015f575b600080fd5b6000546100e990600160a060020a031681565b604051600160a060020a0390911681526020015b60405180910390f35b6007546100e990600160a060020a031681565b6008546100e990600160a060020a031681565b6006546100e990600160a060020a031681565b61015261014d366004610604565b6101de565b6040516100fd9190610634565b61016860015481565b6040519081526020016100fd565b61016860095481565b6003546100e990600160a060020a031681565b6002546100e990600160a060020a031681565b6004546100e990600160a060020a031681565b61016860055481565b600a546101ce9060ff1681565b60405190151581526020016100fd565b6040805161012081018252600080825260208201819052918101829052606081018290526080810182905260a0810182905260c0810182905260e08101829052610100810191909152600554600480546002546040517fdd62ed3e000000000000000000000000000000000000000000000000000000008152600160a060020a0391821693810193909352306024840152169063dd62ed3e90604401602060405180830381865afa158015610297573d6000803e3d6000fd5b505050506040513d601f19601f820116820180604052508101906102bb91906106e5565b1015610328576040517f08c379a000000000000000000000000000000000000000000000000000000000815260206004820152601960248201527f546f6b656e203120616c6c6f77616e636520746f6f206c6f770000000000000060448201526064015b60405180910390fd5b6009546008546040517fdd62ed3e000000000000000000000000000000000000000000000000000000008152600160a060020a0385811660048301523060248301529091169063dd62ed3e90604401602060405180830381865afa158015610394573d6000803e3d6000fd5b505050506040513d601f19601f820116820180604052508101906103b891906106e5565b1015610420576040517f08c379a000000000000000000000000000000000000000000000000000000000815260206004820152601960248201527f546f6b656e203220616c6c6f77616e636520746f6f206c6f7700000000000000604482015260640161031f565b60045460025460055461044292600160a060020a0390811692169085906104fc565b60085460025460095461046592600160a060020a039081169286929116906104fc565b506006805473ffffffffffffffffffffffffffffffffffffffff1916600160a060020a03928316908117909155600a805460ff1916600190811790915560408051610120810182528254815230602082015260025485169181019190915260035484166060820152600554608082015260a081019290925260075490921660c082015260095460e082015261010081019190915290565b6040517f23b872dd000000000000000000000000000000000000000000000000000000008152600160a060020a038481166004830152838116602483015260448201839052600091908616906323b872dd906064016020604051808303816000875af1158015610570573d6000803e3d6000fd5b505050506040513d601f19601f8201168201806040525081019061059491906106fe565b9050806105fd576040517f08c379a000000000000000000000000000000000000000000000000000000000815260206004820152601560248201527f546f6b656e207472616e73666572206661696c65640000000000000000000000604482015260640161031f565b5050505050565b60006020828403121561061657600080fd5b8135600160a060020a038116811461062d57600080fd5b9392505050565b600061012082019050825182526020830151600160a060020a0380821660208501528060408601511660408501525050606083015161067e6060840182600160a060020a03169052565b506080830151608083015260a08301516106a360a0840182600160a060020a03169052565b5060c08301516106be60c0840182600160a060020a03169052565b5060e083015160e0830152610100808401516106dd8285018215159052565b505092915050565b6000602082840312156106f757600080fd5b5051919050565b60006020828403121561071057600080fd5b8151801515811461062d57600080fdfea26469706673582212200d29d1a19f50c8e979ed81cabab734270e5945f392e73ade7725f5346a368ddc64736f6c63430008110033a264697066735822122021bb782904e4135c78a8fd8df59c0165ae4fc948448f6774910dfc232ba78d8c64736f6c6343000811003360806040523480156200001157600080fd5b50604051620014d3380380620014d3833981016040819052620000349162000164565b60068054600160a060020a0319163317905560046200005484826200027f565b5060056200006383826200027f565b506000908155600155505060078054600160a060020a0319163317905562000351565b7f4e487b7100000000000000000000000000000000000000000000000000000000600052604160045260246000fd5b600082601f830112620000c757600080fd5b81516001604060020a0380821115620000e457620000e462000086565b604051601f8301601f19908116603f011681019082821181831017156200010f576200010f62000086565b816040528381526020925086838588010111156200012c57600080fd5b600091505b8382101562000150578582018301518183018401529082019062000131565b600093810190920192909252949350505050565b6000806000606084860312156200017a57600080fd5b83516001604060020a03808211156200019257600080fd5b620001a087838801620000b5565b94506020860151915080821115620001b757600080fd5b50620001c686828701620000b5565b925050604084015190509250925092565b600281046001821680620001ec57607f821691505b60208210810362000226577f4e487b7100000000000000000000000000000000000000000000000000000000600052602260045260246000fd5b50919050565b601f8211156200027a576000818152602081206020601f86010481016020861015620002555750805b6020601f860104820191505b81811015620002765782815560010162000261565b5050505b505050565b81516001604060020a038111156200029b576200029b62000086565b620002b381620002ac8454620001d7565b846200022c565b602080601f831160018114620002ef5760008415620002d25750858301515b60028086026008870290910a600019041982161786555062000276565b600085815260208120601f198616915b828110156200032057888601518255948401946001909101908401620002ff565b50858210156200034157878501516008601f88160260020a60001904191681555b5050505050600202600101905550565b61117280620003616000396000f3fe608060405234801561001057600080fd5b50600436106100d35760003560e060020a9004806342966c68116100905780639ea3c8201161006a5780639ea3c8201461019c578063a9059cbb146101bc578063dd62ed3e146101cf578063de6a8dc5146101fa57600080fd5b806342966c681461016157806370a082311461017457806395d89b411461019457600080fd5b806306fdde03146100d8578063095ea7b3146100f657806318160ddd1461011957806319d1997a1461013057806323b872dd1461013957806340c10f191461014c575b600080fd5b6100e061020d565b6040516100ed9190610cd4565b60405180910390f35b610109610104366004610d3a565b61029b565b60405190151581526020016100ed565b61012260015481565b6040519081526020016100ed565b61012260005481565b610109610147366004610d66565b61033c565b61015f61015a366004610d3a565b6104ec565b005b61015f61016f366004610da7565b61064c565b610122610182366004610dc0565b60026020526000908152604090205481565b6100e06106e4565b6101af6101aa366004610dc0565b6106f1565b6040516100ed9190610de4565b6101096101ca366004610d3a565b610a3f565b6101226101dd366004610e95565b600360209081526000928352604080842090915290825290205481565b6101af610208366004610ece565b610b25565b6004805461021a90610ef5565b80601f016020809104026020016040519081016040528092919081815260200182805461024690610ef5565b80156102935780601f1061026857610100808354040283529160200191610293565b820191906000526020600020905b81548152906001019060200180831161027657829003601f168201915b505050505081565b336000908152600260205260408120548211156102d65760405160e560020a62461bcd0281526004016102cd90610f48565b60405180910390fd5b336000818152600360209081526040808320600160a060020a03881680855290835292819020869055518581529192917f8c5be1e5ebec7d5bd14f71427d1e84f3dd0314c0f7b2291e5b200ac8c7c3b92591015b60405180910390a35060015b92915050565b600160a060020a03831660009081526003602090815260408083203384529091528120548211156103d85760405160e560020a62461bcd02815260206004820152602f60248201527f696e73756666696369656e7420616c6c6f77616e636520746f2072656369706960448201527f656e742066726f6d2073656e646572000000000000000000000000000000000060648201526084016102cd565b600160a060020a0384166000908152600260205260409020548211156104135760405160e560020a62461bcd0281526004016102cd90610f48565b600160a060020a038416600090815260036020908152604080832033845290915281208054849290610446908490610fae565b9091555050600160a060020a03841660009081526002602052604081208054849290610473908490610fae565b9091555050600160a060020a038316600090815260026020526040812080548492906104a0908490610fc1565b9250508190555082600160a060020a031684600160a060020a031660008051602061111d833981519152846040516104da91815260200190565b60405180910390a35060019392505050565b600654600160a060020a031633146105495760405160e560020a62461bcd02815260206004820152600e60248201527f4e6f7420617574686f72697a656400000000000000000000000000000000000060448201526064016102cd565b6000548160015461055a9190610fc1565b11156105d3576040805160e560020a62461bcd0281526020600482015260248101919091527f63616e6e6f74206d696e74207468652072657175657374656420616d6f756e7460448201527f206f6620746f6b656e732c20737570706c79206c696d697420746f6f206c6f7760648201526084016102cd565b600160a060020a038216600090815260026020526040812080548392906105fb908490610fc1565b9250508190555080600160008282546106149190610fc1565b9091555050604051818152600160a060020a0383169060009060008051602061111d8339815191529060200160405180910390a35050565b3360009081526002602052604090205481111561067e5760405160e560020a62461bcd0281526004016102cd90610f48565b336000908152600260205260408120805483929061069d908490610fae565b9250508190555080600160008282546106b69190610fae565b9091555050604051818152600090339060008051602061111d8339815191529060200160405180910390a350565b6005805461021a90610ef5565b6106f9610c88565b600082905030600160a060020a031681600160a060020a03166325be124e6040518163ffffffff1660e060020a028152600401602060405180830381865afa158015610749573d6000803e3d6000fd5b505050506040513d601f19601f8201168201806040525081019061076d9190610fe4565b600160a060020a0316146107c65760405160e560020a62461bcd02815260206004820181905260248201527f6c697374696e672077616e7473206120646966666572656e7420746f6b656e3260448201526064016102cd565b80600160a060020a031663c4e5edcd6040518163ffffffff1660e060020a028152600401602060405180830381865afa158015610807573d6000803e3d6000fd5b505050506040513d601f19601f8201168201806040525081019061082b9190611001565b33600090815260026020526040902054101561085c5760405160e560020a62461bcd0281526004016102cd90610f48565b80600160a060020a031663c4e5edcd6040518163ffffffff1660e060020a028152600401602060405180830381865afa15801561089d573d6000803e3d6000fd5b505050506040513d601f19601f820116820180604052508101906108c19190611001565b336000908152600360209081526040808320600160a060020a0388168452909152812080549091906108f4908490610fc1565b9250508190555082600160a060020a031633600160a060020a03167f8c5be1e5ebec7d5bd14f71427d1e84f3dd0314c0f7b2291e5b200ac8c7c3b92583600160a060020a031663c4e5edcd6040518163ffffffff1660e060020a028152600401602060405180830381865afa158015610971573d6000803e3d6000fd5b505050506040513d601f19601f820116820180604052508101906109959190611001565b60405190815260200160405180910390a36007546040517f0726325f000000000000000000000000000000000000000000000000000000008152336004820152600160a060020a0385811660248301526000921690630726325f90604401610120604051808303816000875af1158015610a13573d6000803e3d6000fd5b505050506040513d601f19601f82011682018060405250810190610a37919061107b565b949350505050565b33600090815260026020526040812054821115610a715760405160e560020a62461bcd0281526004016102cd90610f48565b3360009081526002602052604081208054849290610a90908490610fae565b9091555050600160a060020a03831660009081526002602052604081208054849290610abd908490610fc1565b9091555050336000908152600360209081526040808320600160a060020a038716845290915281208054849290610af5908490610fae565b9091555050604051828152600160a060020a03841690339060008051602061111d8339815191529060200161032a565b610b2d610c88565b33600090815260026020526040902054841115610b5f5760405160e560020a62461bcd0281526004016102cd90610f48565b6007546040517f2cd1adfe00000000000000000000000000000000000000000000000000000000815233600482015260248101869052600160a060020a038581166044830152606482018590526000921690632cd1adfe90608401610120604051808303816000875af1158015610bda573d6000803e3d6000fd5b505050506040513d601f19601f82011682018060405250810190610bfe919061107b565b602080820151336000908152600383526040808220600160a060020a038416835290935291822080549394509092889290610c3a908490610fc1565b9091555050604051868152600160a060020a0382169033907f8c5be1e5ebec7d5bd14f71427d1e84f3dd0314c0f7b2291e5b200ac8c7c3b9259060200160405180910390a350949350505050565b6040805161012081018252600080825260208201819052918101829052606081018290526080810182905260a0810182905260c0810182905260e0810182905261010081019190915290565b600060208083528351808285015260005b81811015610d0157858101830151858201604001528201610ce5565b506000604082860101526040601f19601f8301168501019250505092915050565b600160a060020a0381168114610d3757600080fd5b50565b60008060408385031215610d4d57600080fd5b8235610d5881610d22565b946020939093013593505050565b600080600060608486031215610d7b57600080fd5b8335610d8681610d22565b92506020840135610d9681610d22565b929592945050506040919091013590565b600060208284031215610db957600080fd5b5035919050565b600060208284031215610dd257600080fd5b8135610ddd81610d22565b9392505050565b600061012082019050825182526020830151600160a060020a03808216602085015280604086015116604085015250506060830151610e2e6060840182600160a060020a03169052565b506080830151608083015260a0830151610e5360a0840182600160a060020a03169052565b5060c0830151610e6e60c0840182600160a060020a03169052565b5060e083015160e083015261010080840151610e8d8285018215159052565b505092915050565b60008060408385031215610ea857600080fd5b8235610eb381610d22565b91506020830135610ec381610d22565b809150509250929050565b600080600060608486031215610ee357600080fd5b833592506020840135610d9681610d22565b600281046001821680610f0957607f821691505b602082108103610f42577f4e487b7100000000000000000000000000000000000000000000000000000000600052602260045260246000fd5b50919050565b6020808252601e908201527f696e73756666696369656e742062616c616e636520696e2073656e6465720000604082015260600190565b7f4e487b7100000000000000000000000000000000000000000000000000000000600052601160045260246000fd5b8181038181111561033657610336610f7f565b8082018082111561033657610336610f7f565b8051610fdf81610d22565b919050565b600060208284031215610ff657600080fd5b8151610ddd81610d22565b60006020828403121561101357600080fd5b5051919050565b604051610120810167ffffffffffffffff81118282101715611065577f4e487b7100000000000000000000000000000000000000000000000000000000600052604160045260246000fd5b60405290565b80518015158114610fdf57600080fd5b6000610120828403121561108e57600080fd5b61109661101a565b825181526110a660208401610fd4565b60208201526110b760408401610fd4565b60408201526110c860608401610fd4565b6060820152608083015160808201526110e360a08401610fd4565b60a08201526110f460c08401610fd4565b60c082015260e083015160e082015261010061111181850161106b565b90820152939250505056feddf252ad1be2c89b69c2b068fc378daa952ba7f163c4a11628f55a4df523b3efa26469706673582212206ec8b596c23a1896b96bc6db2f322ea05153908c436a64245c8b2301ab1b97ed64736f6c63430008110033",
  "immutableReferences": {},
  "source": "// SPDX-License-Identifier: MIT\npragma solidity >=0.4.22 <0.9.0;\n\nimport \"./ListingContract.sol\";\nimport \"./IListingOwner.sol\";\nimport \"./Models.sol\";\nimport \"./HwangMarket.sol\";\nimport \"./IterableMapping.sol\";\nimport \"./GameERC20Token.sol\";\nimport \"@chainlink/contracts/src/v0.8/interfaces/AggregatorV3Interface.sol\";\nimport \"@openzeppelin/contracts/token/ERC20/IERC20.sol\";\n\ncontract GameContract is IListingOwner {\n  using IterableMapping for IterableMapping.ListingsMap;\n\n  enum GameStatus {\n    OPEN,\n    CLOSED\n  }\n\n  enum hasWithdrawn {\n    YES,\n    NO\n  }\n\n  enum gameSide {\n    UNKNOWN,\n    YES,\n    NO\n  }\n\n  address public creator; \n  GameStatus public status;\n  gameSide public gameOutcome;\n  uint256 public gameResolveTime;\n  int256 public threshold;\n\n  mapping(gameSide => uint256) public amtPlacedOnSide; // remember how much amount is placed on each side in terms of HMTKN\n  AggregatorV3Interface internal priceFeed;\n\n\n  // Trx types constant\n  string constant BetActivityType = \"BET\";\n  string constant WithdrawActivityType = \"WITHDRAW\";\n\n  // conversion rate from 1 HMTKN to 1 Game Token\n  uint constant mainTkn2GameTknConversionRate = 1;\n  uint constant supplyLimit = 1000;\n\n  // for every record, we track a list of transactions\n  struct Trx {\n    // Common fields\n    uint256 trxId;\n    string activityType;  // \"BET\", \"SELL\"\n    uint256 trxAmt;\n    uint256 trxTime; // when the trx was initiated\n    uint8 gameSide;\n\n    // if BET, from = game contract addr, to = player addr\n    // if SELL, from = seller addr, to = buyer addr\n    address from;\n    address to;\n  }\n  Trx[] trxs;\n  uint256 internal trxId;\n\n  HwangMarket public mainContract;\n\n  address public gameNoTokenContractAddress;\n  GameERC20Token public gameNoTokenContract;\n  address public gameYesTokenContractAddress;\n  GameERC20Token public gameYesTokenContract;\n\n  IterableMapping.ListingsMap private listingContracts;\n  uint256 public listingsCount;\n\n  event NewListing(Models.ListingInfo listingInfo);\n  event ListingFulfilled(Models.ListingInfo listingInfo);\n\n  // constructor takes in a resolve time, a oracleAddr (oracle address), and a threshold, \n  // where a gameSide of NO indicates < threshold, and a gameSide of YES indicates >= threshold\n  constructor(address _creator, uint256 resolveTime, address oracleAddr, int256 thres) {\n    creator = _creator;\n    mainContract = HwangMarket(_creator);\n    status = GameStatus.OPEN;\n    gameResolveTime = resolveTime; // set when the game is allowed to conclude\n    gameOutcome = gameSide.UNKNOWN; // explicitly set gameOutcome to undecided\n    \n    priceFeed = AggregatorV3Interface(oracleAddr);\n    threshold = thres;\n\n    // every game contract deploys 2 IERC20 token contracts\n    // yes and no tokens\n    gameNoTokenContract = new GameERC20Token(\"GameNoToken\", \"GNT\", supplyLimit);\n    gameNoTokenContractAddress = address(gameNoTokenContract);\n    gameYesTokenContract = new GameERC20Token(\"GameYesToken\", \"GYT\", supplyLimit);\n    gameYesTokenContractAddress = address(gameYesTokenContract);\n  }\n\n  // creates a new listing\n  function newListing(address _player, uint256 token1Amt, address token2, uint256 token2Amt) public returns(Models.ListingInfo memory) {\n    require(msg.sender == gameNoTokenContractAddress || msg.sender == gameYesTokenContractAddress, \"only game token can create new listings\");\n    uint256 newListingId = listingsCount;\n    ListingContract newListingContract = new ListingContract(newListingId, _player, msg.sender, token1Amt, token2, token2Amt);\n    Models.ListingInfo memory listingInfo = Models.ListingInfo({\n      listingId: newListingId,\n      listingAddr: address(newListingContract),\n      player1: _player,\n      token1: msg.sender,\n      token1Amt: token1Amt,\n      player2: address(0),\n      token2: token2,\n      token2Amt: token2Amt,\n      fulfilled: false\n    });\n    listingContracts.set(newListingId, listingInfo);\n\n    listingsCount++;\n\n    emit NewListing(listingInfo);\n    return listingInfo;\n  }\n\n  function getListingContractAddressById(uint listingId) external view returns(address) {\n    return listingContracts.get(listingId).listingAddr;\n  }\n\n  function getAllListings() external view returns (Models.ListingInfo[] memory) {\n    return listingContracts.getlistingValues();\n  }\n\n  function updateListing(Models.ListingInfo memory listingInfo) public {\n    listingContracts.set(listingInfo.listingId, listingInfo);\n  }\n\n  function partakeInListing(address _player, address listingAddr) public returns (Models.ListingInfo memory) {\n    ListingContract listingContract = ListingContract(listingAddr);\n    Models.ListingInfo memory listingInfo = listingContract.trigger(_player);\n    IListingOwner listingOwner = IListingOwner(listingContract.creator());\n    listingOwner.updateListing(listingInfo);\n\n    emit ListingFulfilled(listingInfo);\n    return listingInfo;\n  }\n\n  /**\n    * Returns the latest price\n    */\n  function getLatestPrice() public view returns (int) {\n      (\n          /*uint80 roundID*/,\n          int price,\n          /*uint startedAt*/,\n          /*uint timeStamp*/,\n          /*uint80 answeredInRound*/\n      ) = priceFeed.latestRoundData();\n      return price;\n  }\n\n  // to check if message sent is by creator\n  modifier isCreator(bool isEqual) {\n    if (isEqual) {\n      require(\n        creator == msg.sender,\n        \"You are not the creator of this game!\"\n      );\n    }\n    _;\n  }\n\n  // to get game information\n  function getGameInfo() \n    public \n    view \n    returns (\n      address,  // creator\n      GameStatus, // status\n      gameSide,\n      uint256,\n      int256\n  ) {\n    return (creator, status, gameOutcome, gameResolveTime, threshold);\n  }\n\n  // payable keyword should allow depositing of ethereum into smart contract\n  // allow msg.sender address to register as a player\n  function addPlayer(address _player, uint256 hwangMktTokenAmt, uint8 betSide)\n    public\n    isCreator(false) {\n      require(status == GameStatus.OPEN, \"Game is closed, no further bets accepted\");\n      require(betSide == 1 || betSide == 2, \"bet side is not recognised\");\n      require(block.timestamp <= gameResolveTime, \"cannot put bets after resolve time\");\n      require(mainContract.mainToken().allowance(_player, address(this)) >= hwangMktTokenAmt, \"player's hwang market token allowance too low\");\n      require(mainContract.mainToken().balanceOf(_player) >= hwangMktTokenAmt, \"player's hwang market token balance too low\");\n      gameSide side = gameSide.NO; // 1 - YES, 2 - NO\n      if (betSide == 1) {\n        side = gameSide.YES;\n      }\n      GameERC20Token gameTokenContract = gameNoTokenContract;\n      if (betSide == 1) {\n        gameTokenContract = gameYesTokenContract;\n      }\n      uint256 requestedMintAmt = hwangMktTokenAmt * mainTkn2GameTknConversionRate;\n      require(gameTokenContract.totalSupply() + requestedMintAmt <= gameTokenContract.supplyLimit(), \"game token cannot mint requested amount\");\n\n      // mint the respective 1-1 game token to the player\n      gameTokenContract.mint(_player, requestedMintAmt);\n      // collect the player's main token, deposit under the game address\n      _safeTransferFrom(mainContract.mainToken(), _player, address(this), hwangMktTokenAmt);\n\n      // book keeping\n      amtPlacedOnSide[side] += hwangMktTokenAmt;\n      uint256 timestamp = block.timestamp;\n      trxs.push(Trx({\n        trxId: trxId,\n        activityType: BetActivityType,\n        gameSide: betSide,\n        trxAmt: hwangMktTokenAmt,\n        trxTime: timestamp,\n        from: address(this),\n        to: _player\n      }));\n      trxId++;\n\n      mainContract.playerJoinedSide(_player, betSide, hwangMktTokenAmt, timestamp);\n    }\n\n  // for now, we return all, can consider performing pagination here\n  function getTrxs() external view returns(Trx[] memory) {\n    return trxs;\n  }\n\n  // disable any backdoor by creator\n  // // allow creator to cancel the game created.\n  // function cancelGame() public isCreator(true) {\n  //   status = GameStatus.CLOSED;\n  // }\n\n  function getSideAmt(uint8 s) public view returns (uint256) {\n    require((s == 1 || s == 2), \"side must be one of 1 or 2\");\n    gameSide side = gameSide.NO;\n    if (s == 1) {\n      side = gameSide.YES;\n    }\n\n    return amtPlacedOnSide[side];\n  }\n\n  // impt: anyone can call the contract to perform upkeep but it has a guard to protect against early resolves\n  // and it checks against a \"trusted\" oracle chainlink to fetch the result\n  function performUpkeep() public {\n    require(block.timestamp >= gameResolveTime, \"game is not ready to be resolved\");\n    require(status != GameStatus.CLOSED, \"game is already closed\");\n\n    status = GameStatus.CLOSED;\n    gameSide side = gameSide.NO;\n    uint8 rawSide = 2;\n    if (getLatestPrice() >= threshold) {\n      side = gameSide.YES;\n      rawSide = 1;\n    }\n    gameOutcome = side;\n\n    mainContract.concludeGame(rawSide);\n  }\n\n  // allow winners to withdraw their winnings in term of HMTKN\n  function withdrawWinnings(uint withdrawAmt) public {\n    require(status == GameStatus.CLOSED, \"game is not yet closed\"); // game must be closed\n    require(gameOutcome != gameSide.UNKNOWN, \"game outcome cannot be unknown\"); // game outcome cannot be unknown\n    IERC20 gameTokenContract = gameNoTokenContract;\n    if (gameOutcome == gameSide.YES) {\n      gameTokenContract = gameYesTokenContract;\n    }\n    require(gameTokenContract.allowance(msg.sender, address(this)) >= withdrawAmt, \"player must approve withdraw amount\");\n    require(gameTokenContract.balanceOf(msg.sender) >= withdrawAmt, \"player must have game token amount to withdraw\");\n\n    // where to calculate amount of winnings\n    // calculated winnings = (player's bet amount / total bet amount on winning side) * total bet amount on losing side\n    gameSide oppSide = gameSide.NO;\n    if (gameOutcome == gameSide.NO) {\n      oppSide = gameSide.YES;\n    }\n    uint256 hwangMarketTokenAmt = (1 / mainTkn2GameTknConversionRate) * withdrawAmt;\n    uint256 winnings = ((hwangMarketTokenAmt / amtPlacedOnSide[gameOutcome]) * amtPlacedOnSide[oppSide]) + hwangMarketTokenAmt;\n\n    // initiate transfer of hwang market tokens from game to player\n    mainContract.mainToken().transfer(msg.sender, winnings);\n    // initiate transfer of game token from player back to game\n    _safeTransferFrom(gameTokenContract, msg.sender, address(this), withdrawAmt);\n\n    uint8 betSide = 2;\n    if (gameOutcome == gameSide.YES) {\n      betSide = 1;\n    }\n    uint256 timestamp = block.timestamp;\n    trxs.push(Trx({\n      trxId: trxId,\n      activityType: WithdrawActivityType,\n      gameSide: betSide,\n      trxAmt: winnings,\n      trxTime: timestamp,\n      from: address(this),\n      to: msg.sender\n    }));\n    trxId++;\n    mainContract.playerWithdrawWinnings(msg.sender, betSide, winnings, timestamp);\n  }\n\n  // function playerAddListing(address _player, )\n\n  // to get smart contract's balance\n  function getBalance() public view returns (uint256) {\n    return address(this).balance;\n  }\n\n  function _safeTransferFrom(\n    IERC20 token,\n    address sender,\n    address recipient,\n    uint amount\n    ) private {\n      bool sent = token.transferFrom(sender, recipient, amount);\n      require(sent, \"Token transfer failed\");\n    }\n\n  // this is only part of the demo to bypass no chainlink oracle on local\n  // this is removed in actual deployed contract\n  function backdoor(int256 price) external {\n    status = GameStatus.CLOSED;\n    gameSide side = gameSide.NO;\n    uint8 rawSide = 2;\n    if (price >= threshold) {\n      side = gameSide.YES;\n      rawSide = 1;\n    }\n    gameOutcome = side;\n\n    // also, disable gameResolveTime for other assertions\n    gameResolveTime = block.timestamp;\n\n    mainContract.concludeGame(rawSide);\n  }\n}\n",
  "sourcePath": "/Users/gerald/Desktop/HwangMarket/contracts/GameContract.sol",
  "compiler": {
    "name": "solc",
    "version": "0.8.17+commit.8df45f5f.Emscripten.clang"
  },
  "schemaVersion": "3.4.10",
  "updatedAt": "2022-10-27T05:36:56.840Z",
  "devdoc": {
    "kind": "dev",
    "methods": {},
    "version": 1
  },
  "userdoc": {
    "kind": "user",
    "methods": {
      "getLatestPrice()": {
        "notice": "Returns the latest price"
      }
    },
    "version": 1
  }
}