{
  "contractName": "GameContract",
  "abi": [
    {
      "inputs": [
        {
          "internalType": "address",
          "name": "hmAddr",
          "type": "address"
        },
        {
          "internalType": "uint256",
          "name": "_resolveTime",
          "type": "uint256"
        },
        {
          "internalType": "address",
          "name": "_oracleAddr",
          "type": "address"
        },
        {
          "internalType": "int256",
          "name": "thres",
          "type": "int256"
        },
        {
          "internalType": "string",
          "name": "_tag",
          "type": "string"
        },
        {
          "internalType": "string",
          "name": "_title",
          "type": "string"
        },
        {
          "internalType": "uint256",
          "name": "_id",
          "type": "uint256"
        }
      ],
      "stateMutability": "nonpayable",
      "type": "constructor"
    },
    {
      "anonymous": false,
      "inputs": [
        {
          "components": [
            {
              "internalType": "uint256",
              "name": "listingId",
              "type": "uint256"
            },
            {
              "internalType": "uint256",
              "name": "createdTime",
              "type": "uint256"
            },
            {
              "internalType": "address",
              "name": "listingAddr",
              "type": "address"
            },
            {
              "internalType": "address",
              "name": "player1",
              "type": "address"
            },
            {
              "internalType": "address",
              "name": "token1",
              "type": "address"
            },
            {
              "internalType": "uint256",
              "name": "token1Amt",
              "type": "uint256"
            },
            {
              "internalType": "address",
              "name": "player2",
              "type": "address"
            },
            {
              "internalType": "address",
              "name": "token2",
              "type": "address"
            },
            {
              "internalType": "uint256",
              "name": "token2Amt",
              "type": "uint256"
            },
            {
              "internalType": "bool",
              "name": "fulfilled",
              "type": "bool"
            },
            {
              "internalType": "uint256",
              "name": "fulfilledTime",
              "type": "uint256"
            }
          ],
          "indexed": false,
          "internalType": "struct Models.ListingInfo",
          "name": "listingInfo",
          "type": "tuple"
        }
      ],
      "name": "ListingFulfilled",
      "type": "event"
    },
    {
      "anonymous": false,
      "inputs": [
        {
          "components": [
            {
              "internalType": "uint256",
              "name": "listingId",
              "type": "uint256"
            },
            {
              "internalType": "uint256",
              "name": "createdTime",
              "type": "uint256"
            },
            {
              "internalType": "address",
              "name": "listingAddr",
              "type": "address"
            },
            {
              "internalType": "address",
              "name": "player1",
              "type": "address"
            },
            {
              "internalType": "address",
              "name": "token1",
              "type": "address"
            },
            {
              "internalType": "uint256",
              "name": "token1Amt",
              "type": "uint256"
            },
            {
              "internalType": "address",
              "name": "player2",
              "type": "address"
            },
            {
              "internalType": "address",
              "name": "token2",
              "type": "address"
            },
            {
              "internalType": "uint256",
              "name": "token2Amt",
              "type": "uint256"
            },
            {
              "internalType": "bool",
              "name": "fulfilled",
              "type": "bool"
            },
            {
              "internalType": "uint256",
              "name": "fulfilledTime",
              "type": "uint256"
            }
          ],
          "indexed": false,
          "internalType": "struct Models.ListingInfo",
          "name": "listingInfo",
          "type": "tuple"
        }
      ],
      "name": "NewListing",
      "type": "event"
    },
    {
      "inputs": [],
      "name": "gameInfo",
      "outputs": [
        {
          "internalType": "uint256",
          "name": "id",
          "type": "uint256"
        },
        {
          "internalType": "uint256",
          "name": "createdTime",
          "type": "uint256"
        },
        {
          "internalType": "address",
          "name": "addr",
          "type": "address"
        },
        {
          "internalType": "string",
          "name": "tag",
          "type": "string"
        },
        {
          "internalType": "string",
          "name": "title",
          "type": "string"
        },
        {
          "internalType": "address",
          "name": "oracleAddr",
          "type": "address"
        },
        {
          "internalType": "uint256",
          "name": "resolveTime",
          "type": "uint256"
        },
        {
          "internalType": "int256",
          "name": "threshold",
          "type": "int256"
        },
        {
          "internalType": "uint256",
          "name": "totalAmount",
          "type": "uint256"
        },
        {
          "internalType": "uint256",
          "name": "betYesAmount",
          "type": "uint256"
        },
        {
          "internalType": "uint256",
          "name": "betNoAmount",
          "type": "uint256"
        },
        {
          "internalType": "uint8",
          "name": "gameOutcome",
          "type": "uint8"
        }
      ],
      "stateMutability": "view",
      "type": "function"
    },
    {
      "inputs": [],
      "name": "gameNoTokenContractAddress",
      "outputs": [
        {
          "internalType": "address",
          "name": "",
          "type": "address"
        }
      ],
      "stateMutability": "view",
      "type": "function"
    },
    {
      "inputs": [],
      "name": "gameYesTokenContractAddress",
      "outputs": [
        {
          "internalType": "address",
          "name": "",
          "type": "address"
        }
      ],
      "stateMutability": "view",
      "type": "function"
    },
    {
      "inputs": [],
      "name": "hwangMarketAddr",
      "outputs": [
        {
          "internalType": "address",
          "name": "",
          "type": "address"
        }
      ],
      "stateMutability": "view",
      "type": "function"
    },
    {
      "inputs": [],
      "name": "listingsCount",
      "outputs": [
        {
          "internalType": "uint256",
          "name": "",
          "type": "uint256"
        }
      ],
      "stateMutability": "view",
      "type": "function"
    },
    {
      "inputs": [
        {
          "internalType": "uint256",
          "name": "",
          "type": "uint256"
        }
      ],
      "name": "trxs",
      "outputs": [
        {
          "internalType": "uint256",
          "name": "trxId",
          "type": "uint256"
        },
        {
          "internalType": "string",
          "name": "activityType",
          "type": "string"
        },
        {
          "internalType": "uint256",
          "name": "trxAmt",
          "type": "uint256"
        },
        {
          "internalType": "uint256",
          "name": "trxTime",
          "type": "uint256"
        },
        {
          "internalType": "uint8",
          "name": "gameSide",
          "type": "uint8"
        },
        {
          "internalType": "address",
          "name": "from",
          "type": "address"
        },
        {
          "internalType": "address",
          "name": "to",
          "type": "address"
        }
      ],
      "stateMutability": "view",
      "type": "function"
    },
    {
      "inputs": [
        {
          "internalType": "address",
          "name": "gytAddr",
          "type": "address"
        },
        {
          "internalType": "address",
          "name": "gntAddr",
          "type": "address"
        }
      ],
      "name": "initTokenAddr",
      "outputs": [],
      "stateMutability": "nonpayable",
      "type": "function"
    },
    {
      "inputs": [
        {
          "internalType": "address",
          "name": "_player",
          "type": "address"
        },
        {
          "internalType": "uint256",
          "name": "token1Amt",
          "type": "uint256"
        },
        {
          "internalType": "address",
          "name": "token2",
          "type": "address"
        },
        {
          "internalType": "uint256",
          "name": "token2Amt",
          "type": "uint256"
        }
      ],
      "name": "newListing",
      "outputs": [
        {
          "components": [
            {
              "internalType": "uint256",
              "name": "listingId",
              "type": "uint256"
            },
            {
              "internalType": "uint256",
              "name": "createdTime",
              "type": "uint256"
            },
            {
              "internalType": "address",
              "name": "listingAddr",
              "type": "address"
            },
            {
              "internalType": "address",
              "name": "player1",
              "type": "address"
            },
            {
              "internalType": "address",
              "name": "token1",
              "type": "address"
            },
            {
              "internalType": "uint256",
              "name": "token1Amt",
              "type": "uint256"
            },
            {
              "internalType": "address",
              "name": "player2",
              "type": "address"
            },
            {
              "internalType": "address",
              "name": "token2",
              "type": "address"
            },
            {
              "internalType": "uint256",
              "name": "token2Amt",
              "type": "uint256"
            },
            {
              "internalType": "bool",
              "name": "fulfilled",
              "type": "bool"
            },
            {
              "internalType": "uint256",
              "name": "fulfilledTime",
              "type": "uint256"
            }
          ],
          "internalType": "struct Models.ListingInfo",
          "name": "",
          "type": "tuple"
        }
      ],
      "stateMutability": "nonpayable",
      "type": "function"
    },
    {
      "inputs": [
        {
          "internalType": "uint256",
          "name": "listingId",
          "type": "uint256"
        }
      ],
      "name": "getListingContractAddressById",
      "outputs": [
        {
          "internalType": "address",
          "name": "",
          "type": "address"
        }
      ],
      "stateMutability": "view",
      "type": "function"
    },
    {
      "inputs": [],
      "name": "getGameInfo",
      "outputs": [
        {
          "components": [
            {
              "internalType": "uint256",
              "name": "id",
              "type": "uint256"
            },
            {
              "internalType": "uint256",
              "name": "createdTime",
              "type": "uint256"
            },
            {
              "internalType": "address",
              "name": "addr",
              "type": "address"
            },
            {
              "internalType": "string",
              "name": "tag",
              "type": "string"
            },
            {
              "internalType": "string",
              "name": "title",
              "type": "string"
            },
            {
              "internalType": "address",
              "name": "oracleAddr",
              "type": "address"
            },
            {
              "internalType": "uint256",
              "name": "resolveTime",
              "type": "uint256"
            },
            {
              "internalType": "int256",
              "name": "threshold",
              "type": "int256"
            },
            {
              "internalType": "uint256",
              "name": "totalAmount",
              "type": "uint256"
            },
            {
              "internalType": "uint256",
              "name": "betYesAmount",
              "type": "uint256"
            },
            {
              "internalType": "uint256",
              "name": "betNoAmount",
              "type": "uint256"
            },
            {
              "internalType": "uint8",
              "name": "gameOutcome",
              "type": "uint8"
            }
          ],
          "internalType": "struct Models.GameMetadata",
          "name": "",
          "type": "tuple"
        }
      ],
      "stateMutability": "view",
      "type": "function"
    },
    {
      "inputs": [],
      "name": "getAllListings",
      "outputs": [
        {
          "components": [
            {
              "internalType": "uint256",
              "name": "listingId",
              "type": "uint256"
            },
            {
              "internalType": "uint256",
              "name": "createdTime",
              "type": "uint256"
            },
            {
              "internalType": "address",
              "name": "listingAddr",
              "type": "address"
            },
            {
              "internalType": "address",
              "name": "player1",
              "type": "address"
            },
            {
              "internalType": "address",
              "name": "token1",
              "type": "address"
            },
            {
              "internalType": "uint256",
              "name": "token1Amt",
              "type": "uint256"
            },
            {
              "internalType": "address",
              "name": "player2",
              "type": "address"
            },
            {
              "internalType": "address",
              "name": "token2",
              "type": "address"
            },
            {
              "internalType": "uint256",
              "name": "token2Amt",
              "type": "uint256"
            },
            {
              "internalType": "bool",
              "name": "fulfilled",
              "type": "bool"
            },
            {
              "internalType": "uint256",
              "name": "fulfilledTime",
              "type": "uint256"
            }
          ],
          "internalType": "struct Models.ListingInfo[]",
          "name": "",
          "type": "tuple[]"
        }
      ],
      "stateMutability": "view",
      "type": "function"
    },
    {
      "inputs": [
        {
          "components": [
            {
              "internalType": "uint256",
              "name": "listingId",
              "type": "uint256"
            },
            {
              "internalType": "uint256",
              "name": "createdTime",
              "type": "uint256"
            },
            {
              "internalType": "address",
              "name": "listingAddr",
              "type": "address"
            },
            {
              "internalType": "address",
              "name": "player1",
              "type": "address"
            },
            {
              "internalType": "address",
              "name": "token1",
              "type": "address"
            },
            {
              "internalType": "uint256",
              "name": "token1Amt",
              "type": "uint256"
            },
            {
              "internalType": "address",
              "name": "player2",
              "type": "address"
            },
            {
              "internalType": "address",
              "name": "token2",
              "type": "address"
            },
            {
              "internalType": "uint256",
              "name": "token2Amt",
              "type": "uint256"
            },
            {
              "internalType": "bool",
              "name": "fulfilled",
              "type": "bool"
            },
            {
              "internalType": "uint256",
              "name": "fulfilledTime",
              "type": "uint256"
            }
          ],
          "internalType": "struct Models.ListingInfo",
          "name": "listingInfo",
          "type": "tuple"
        }
      ],
      "name": "updateListing",
      "outputs": [],
      "stateMutability": "nonpayable",
      "type": "function"
    },
    {
      "inputs": [
        {
          "internalType": "address",
          "name": "_player",
          "type": "address"
        },
        {
          "internalType": "uint256",
          "name": "hwangMktTokenAmt",
          "type": "uint256"
        },
        {
          "internalType": "uint8",
          "name": "betSide",
          "type": "uint8"
        }
      ],
      "name": "addPlayer",
      "outputs": [],
      "stateMutability": "nonpayable",
      "type": "function"
    },
    {
      "inputs": [],
      "name": "performUpkeep",
      "outputs": [],
      "stateMutability": "nonpayable",
      "type": "function"
    },
    {
      "inputs": [
        {
          "internalType": "uint256",
          "name": "withdrawAmt",
          "type": "uint256"
        }
      ],
      "name": "withdrawWinnings",
      "outputs": [],
      "stateMutability": "nonpayable",
      "type": "function"
    },
    {
      "inputs": [],
      "name": "getTrxs",
      "outputs": [
        {
          "components": [
            {
              "internalType": "uint256",
              "name": "trxId",
              "type": "uint256"
            },
            {
              "internalType": "string",
              "name": "activityType",
              "type": "string"
            },
            {
              "internalType": "uint256",
              "name": "trxAmt",
              "type": "uint256"
            },
            {
              "internalType": "uint256",
              "name": "trxTime",
              "type": "uint256"
            },
            {
              "internalType": "uint8",
              "name": "gameSide",
              "type": "uint8"
            },
            {
              "internalType": "address",
              "name": "from",
              "type": "address"
            },
            {
              "internalType": "address",
              "name": "to",
              "type": "address"
            }
          ],
          "internalType": "struct Models.Trx[]",
          "name": "",
          "type": "tuple[]"
        }
      ],
      "stateMutability": "view",
      "type": "function"
    }
  ],
  "bytecode": "0x60806040523480156200001157600080fd5b506040516200344d3803806200344d833981016040819052620000349162000297565b6000805433600160a060020a0319918216178255600180548216600160a060020a038b811691909117909155600e8054831691891691821790556040805161018081018252858152426020820181905230928201839052606082018990526080820188905260a082019390935260c081018b905260e08101899052610100810185905261012081018590526101408101859052610160810194909452600285815560039290925560048054909316179091556005620000f48682620003eb565b50608082015160048201906200010b9082620003eb565b5060a0820151600582018054600160a060020a03909216600160a060020a031990921691909117905560c0820151600682015560e0820151600782015561010082015160088201556101208201516009820155610140820151600a82015561016090910151600b909101805460ff90921660ff1992831617905560118054909116905550620004bd95505050505050565b8051600160a060020a0381168114620001b457600080fd5b919050565b7f4e487b7100000000000000000000000000000000000000000000000000000000600052604160045260246000fd5b600082601f830112620001fa57600080fd5b81516001604060020a0380821115620002175762000217620001b9565b604051601f8301601f19908116603f01168101908282118183101715620002425762000242620001b9565b816040528381526020925086838588010111156200025f57600080fd5b600091505b8382101562000283578582018301518183018401529082019062000264565b600093810190920192909252949350505050565b600080600080600080600060e0888a031215620002b357600080fd5b620002be886200019c565b965060208801519550620002d5604089016200019c565b94506060880151935060808801516001604060020a0380821115620002f957600080fd5b620003078b838c01620001e8565b945060a08a01519150808211156200031e57600080fd5b506200032d8a828b01620001e8565b92505060c0880151905092959891949750929550565b6002810460018216806200035857607f821691505b60208210810362000392577f4e487b7100000000000000000000000000000000000000000000000000000000600052602260045260246000fd5b50919050565b601f821115620003e6576000818152602081206020601f86010481016020861015620003c15750805b6020601f860104820191505b81811015620003e257828155600101620003cd565b5050505b505050565b81516001604060020a03811115620004075762000407620001b9565b6200041f8162000418845462000343565b8462000398565b602080601f8311600181146200045b57600084156200043e5750858301515b60028086026008870290910a6000190419821617865550620003e2565b600085815260208120601f198616915b828110156200048c578886015182559484019460019091019084016200046b565b5085821015620004ad57878501516008601f88160260020a60001904191681555b5050505050600202600101905550565b612f8080620004cd6000396000f3fe60806040523480156200001157600080fd5b506004361062000132576000357c0100000000000000000000000000000000000000000000000000000000900480637256eba411620000c0578063d0564663116200008b578063d05646631462000288578063db73bfce146200029f578063e07056af14620002c3578063f91c2cbc14620002da57600080fd5b80637256eba41462000218578063846c6f4f146200022f578063ae73ccec1462000243578063c7f93fac146200025c57600080fd5b806341ef10c8116200010157806341ef10c814620001af578063434ad5c814620001e157806346b1df0414620001f55780636e4d243a146200020e57600080fd5b80631479470214620001375780631746bd1b14620001505780632b1ea96714620001725780632cd1adfe1462000189575b600080fd5b6200014e620001483660046200182c565b620002f3565b005b6200015a620006e2565b6040516200016991906200188e565b60405180910390f35b6200014e6200018336600462001a4a565b6200091a565b620001a06200019a36600462001b12565b620009df565b60405162000169919062001c27565b601154620001c8906101009004600160a060020a031681565b604051600160a060020a03909116815260200162000169565b600154620001c890600160a060020a031681565b620001ff60185481565b60405190815260200162000169565b6200014e62000cc4565b6200014e6200022936600462001c38565b62000e11565b601254620001c890600160a060020a031681565b6200024d620011cd565b60405162000169919062001c84565b620002736200026d3660046200182c565b62001269565b60405162000169979695949392919062001cd7565b6200014e6200029936600462001d2b565b6200135a565b620002a9620013e2565b604051620001699c9b9a9998979695949392919062001d69565b620001c8620002d43660046200182c565b62001564565b620002e462001609565b60405162000169919062001df2565b600d5460ff166000036200030657600080fd5b601154600d54610100909104600160a060020a03169060ff16600103620003355750601254600160a060020a03165b600c54600b54600d5460ff1660010362000352575050600b54600c545b6000846200036260018062001edd565b6200036e919062001f19565b90506000818362000380868362001edd565b6200038c919062001f19565b62000398919062001f33565b9050600160009054906101000a9004600160a060020a0316600160a060020a031663ce1f335c6040518163ffffffff167c0100000000000000000000000000000000000000000000000000000000028152600401602060405180830381865afa1580156200040a573d6000803e3d6000fd5b505050506040513d601f19601f8201168201806040525081019062000430919062001f56565b6040517fa9059cbb00000000000000000000000000000000000000000000000000000000815233600482015260248101839052600160a060020a03919091169063a9059cbb906044016020604051808303816000875af115801562000499573d6000803e3d6000fd5b505050506040513d601f19601f82011682018060405250810190620004bf919062001f8a565b50620004ce8533308962001758565b6040805160e081018252601054815281518083018352600881527f574954484452415700000000000000000000000000000000000000000000000060208281019190915282019081529181018390524260608201819052600d5460ff1660808301523060a08301523360c0830152600f8054600181018255600091909152825160069091027f8d1108e10bcb7c27dddfc02ed9d693a074039d026cf4ea4240b40f7d581ac80281019182559351919390917f8d1108e10bcb7c27dddfc02ed9d693a074039d026cf4ea4240b40f7d581ac80390910190620005b090826200204e565b506040820151600282015560608201516003820155608082015160048201805460a085015160ff90931674ffffffffffffffffffffffffffffffffffffffffff1990911617610100600160a060020a039384160217905560c0909201516005909101805473ffffffffffffffffffffffffffffffffffffffff1916919092161790556010546200064290600162001807565b601055600154600d546040517f7976948800000000000000000000000000000000000000000000000000000000815233600482015260ff90911660248201526044810184905260648101839052600160a060020a03909116906379769488906084015b600060405180830381600087803b158015620006c057600080fd5b505af1158015620006d5573d6000803e3d6000fd5b5050505050505050505050565b6200075c60405180610180016040528060008152602001600081526020016000600160a060020a0316815260200160608152602001606081526020016000600160a060020a031681526020016000815260200160008152602001600081526020016000815260200160008152602001600060ff1681525090565b60408051610180810182526002805482526003546020830152600454600160a060020a03169282019290925260058054919291606084019190620007a09062001faa565b80601f0160208091040260200160405190810160405280929190818152602001828054620007ce9062001faa565b80156200081f5780601f10620007f3576101008083540402835291602001916200081f565b820191906000526020600020905b8154815290600101906020018083116200080157829003601f168201915b505050505081526020016004820180546200083a9062001faa565b80601f0160208091040260200160405190810160405280929190818152602001828054620008689062001faa565b8015620008b95780601f106200088d57610100808354040283529160200191620008b9565b820191906000526020600020905b8154815290600101906020018083116200089b57829003601f168201915b50505091835250506005820154600160a060020a03166020820152600682015460408201526007820154606082015260088201546080820152600982015460a0820152600a82015460c0820152600b9091015460ff1660e090910152919050565b80516040517f070b5eb400000000000000000000000000000000000000000000000000000000815273__IterableMapping_______________________9163070b5eb4916200097191601391869060040162002121565b60006040518083038186803b1580156200098a57600080fd5b505af41580156200099f573d6000803e3d6000fd5b505050507f0d4f0cb720f23ac552ce48f7266542778e5bfcf54859b5dc8e6d6fdcb781df1881604051620009d4919062001c27565b60405180910390a150565b6040805161016081018252600080825260208201819052918101829052606081018290526080810182905260a0810182905260c0810182905260e08101829052610100810182905261012081018290526101408101919091526011546101009004600160a060020a031633148062000a615750601254600160a060020a031633145b62000a6b57600080fd5b6000601854863387878760405162000a83906200181e565b958652600160a060020a03948516602087015292841660408601526060850191909152909116608083015260a082015260c001604051809103906000f08015801562000ad3573d6000803e3d6000fd5b5090506000604051806101600160405280601854815260200183600160a060020a031663b2f4bdb06040518163ffffffff167c0100000000000000000000000000000000000000000000000000000000028152600401602060405180830381865afa15801562000b47573d6000803e3d6000fd5b505050506040513d601f19601f8201168201806040525081019062000b6d91906200213f565b815260200183600160a060020a0316815260200188600160a060020a0316815260200133600160a060020a031681526020018781526020016000600160a060020a0316815260200186600160a060020a0316815260200185815260200160001515815260200160008152509050601373__IterableMapping_______________________63070b5eb49091601854846040518463ffffffff167c010000000000000000000000000000000000000000000000000000000002815260040162000c389392919062002121565b60006040518083038186803b15801562000c5157600080fd5b505af415801562000c66573d6000803e3d6000fd5b505060185462000c7b92509050600162001807565b6018556040517f9999e86afcda94a424f4fcf58b43db25ff28dda783f0598301af732f4066baa59062000cb090839062001c27565b60405180910390a19150505b949350505050565b60085442108062000cd95750600d5460ff1615155b1562000ce157565b600e54604080517ffeaf968c0000000000000000000000000000000000000000000000000000000081529051600092600160a060020a03169163feaf968c9160048083019260a09291908290030181865afa15801562000d45573d6000803e3d6000fd5b505050506040513d601f19601f8201168201806040525081019062000d6b919062002174565b50506009549193506002925050821262000d83575060015b600d805460ff191660ff83169081179091556001546040517fe362937d0000000000000000000000000000000000000000000000000000000081526004810192909252600160a060020a03169063e362937d90602401600060405180830381600087803b15801562000df457600080fd5b505af115801562000e09573d6000803e3d6000fd5b505050505050565b600d5460ff1615801562000e3657508060ff166001148062000e3657508060ff166002145b801562000e4557506008544211155b62000e4f57600080fd5b6011546101009004600160a060020a031660ff821660010362000e7a5750601254600160a060020a03165b600062000e8960018562001f19565b6040517f40c10f19000000000000000000000000000000000000000000000000000000008152600160a060020a03878116600483015260248201839052919250908316906340c10f1990604401600060405180830381600087803b15801562000ef157600080fd5b505af115801562000f06573d6000803e3d6000fd5b5050600154604080517fce1f335c0000000000000000000000000000000000000000000000000000000081529051600160a060020a03909216935062000fa49250839163ce1f335c916004808201926020929091908290030181865afa15801562000f75573d6000803e3d6000fd5b505050506040513d601f19601f8201168201806040525081019062000f9b919062001f56565b87308862001758565b8360ff1660010362000fd357846002600901600082825462000fc7919062001f33565b9091555062000ff09050565b846002600a01600082825462000fea919062001f33565b90915550505b6040805160e081018252601054815281518083018352600381527f42455400000000000000000000000000000000000000000000000000000000006020828101919091528201908152918101879052426060820181905260ff871660808301523060a0830152600160a060020a03891660c0830152600f8054600181018255600091909152825160069091027f8d1108e10bcb7c27dddfc02ed9d693a074039d026cf4ea4240b40f7d581ac80281019182559351919390917f8d1108e10bcb7c27dddfc02ed9d693a074039d026cf4ea4240b40f7d581ac80390910190620010d990826200204e565b506040820151600282015560608201516003820155608082015160048201805460a085015160ff90931674ffffffffffffffffffffffffffffffffffffffffff1990911617610100600160a060020a039384160217905560c0909201516005909101805473ffffffffffffffffffffffffffffffffffffffff1916919092161790556010546200116b90600162001807565b6010556040517f5039eb97000000000000000000000000000000000000000000000000000000008152600160a060020a03888116600483015260ff871660248301526044820188905260648201839052831690635039eb9790608401620006a5565b6040517f75a02c200000000000000000000000000000000000000000000000000000000081526013600482015260609073__IterableMapping_______________________906375a02c2090602401600060405180830381865af41580156200123a573d6000803e3d6000fd5b505050506040513d6000823e601f3d908101601f1916820160405262001264919081019062002292565b905090565b600f81815481106200127a57600080fd5b60009182526020909120600690910201805460018201805491935090620012a19062001faa565b80601f0160208091040260200160405190810160405280929190818152602001828054620012cf9062001faa565b8015620013205780601f10620012f45761010080835404028352916020019162001320565b820191906000526020600020905b8154815290600101906020018083116200130257829003601f168201915b5050506002840154600385015460048601546005909601549495919490935060ff82169250600160a060020a036101009092048216911687565b600054600160a060020a03163314801562001378575060115460ff16155b6200138257600080fd5b60128054600160a060020a0393841673ffffffffffffffffffffffffffffffffffffffff199091161790556011805491909216610100027fffffffffffffffffffffff0000000000000000000000000000000000000000ff909116179055565b600280546003546004546005805493949293600160a060020a0390921692916200140c9062001faa565b80601f01602080910402602001604051908101604052809291908181526020018280546200143a9062001faa565b80156200148b5780601f106200145f576101008083540402835291602001916200148b565b820191906000526020600020905b8154815290600101906020018083116200146d57829003601f168201915b505050505090806004018054620014a29062001faa565b80601f0160208091040260200160405190810160405280929190818152602001828054620014d09062001faa565b8015620015215780601f10620014f55761010080835404028352916020019162001521565b820191906000526020600020905b8154815290600101906020018083116200150357829003601f168201915b5050505060058301546006840154600785015460088601546009870154600a880154600b909801549697600160a060020a03909516969395509193909260ff168c565b6040517fd31c830c000000000000000000000000000000000000000000000000000000008152601360048201526024810182905260009073__IterableMapping_______________________9063d31c830c9060440161016060405180830381865af4158015620015d9573d6000803e3d6000fd5b505050506040513d601f19601f82011682018060405250810190620015ff91906200234f565b6040015192915050565b6060600f805480602002602001604051908101604052809291908181526020016000905b828210156200174f57838290600052602060002090600602016040518060e0016040529081600082015481526020016001820180546200166d9062001faa565b80601f01602080910402602001604051908101604052809291908181526020018280546200169b9062001faa565b8015620016ec5780601f10620016c057610100808354040283529160200191620016ec565b820191906000526020600020905b815481529060010190602001808311620016ce57829003601f168201915b5050509183525050600282015460208083019190915260038301546040830152600483015460ff81166060840152600160a060020a036101009091048116608084015260059093015490921660a09091015290825260019290920191016200162d565b50505050905090565b6040517f23b872dd000000000000000000000000000000000000000000000000000000008152600160a060020a038481166004830152838116602483015260448201839052600091908616906323b872dd906064016020604051808303816000875af1158015620017cd573d6000803e3d6000fd5b505050506040513d601f19601f82011682018060405250810190620017f3919062001f8a565b9050806200180057600080fd5b5050505050565b600062001815828462001f33565b90505b92915050565b610bdb806200237083390190565b6000602082840312156200183f57600080fd5b5035919050565b6000815180845260005b818110156200186e5760208185018101518683018201520162001850565b506000602082860101526020601f19601f83011685010191505092915050565b60208152815160208201526020820151604082015260006040830151620018c06060840182600160a060020a03169052565b506060830151610180806080850152620018df6101a085018362001846565b91506080850151601f198584030160a0860152620018fe838262001846565b92505060a08501516200191c60c0860182600160a060020a03169052565b5060c085015160e085810191909152850151610100808601919091528501516101208086019190915285015161014080860191909152850151610160808601919091529094015160ff169390920192909252919050565b7f4e487b7100000000000000000000000000000000000000000000000000000000600052604160045260246000fd5b604051610160810167ffffffffffffffff81118282101715620019c957620019c962001973565b60405290565b604051601f8201601f1916810167ffffffffffffffff81118282101715620019fb57620019fb62001973565b604052919050565b600160a060020a038116811462001a1957600080fd5b50565b803562001a298162001a03565b919050565b801515811462001a1957600080fd5b803562001a298162001a2e565b6000610160828403121562001a5e57600080fd5b62001a68620019a2565b823581526020830135602082015262001a846040840162001a1c565b604082015262001a976060840162001a1c565b606082015262001aaa6080840162001a1c565b608082015260a083013560a082015262001ac760c0840162001a1c565b60c082015262001ada60e0840162001a1c565b60e0820152610100838101359082015261012062001afa81850162001a3d565b90820152610140928301359281019290925250919050565b6000806000806080858703121562001b2957600080fd5b843562001b368162001a03565b935060208501359250604085013562001b4f8162001a03565b9396929550929360600135925050565b8051825260208101516020830152604081015162001b886040840182600160a060020a03169052565b50606081015162001ba46060840182600160a060020a03169052565b50608081015162001bc06080840182600160a060020a03169052565b5060a081015160a083015260c081015162001be660c0840182600160a060020a03169052565b5060e081015162001c0260e0840182600160a060020a03169052565b5061010081810151908301526101208082015115159083015261014090810151910152565b610160810162001818828462001b5f565b60008060006060848603121562001c4e57600080fd5b833562001c5b8162001a03565b925060208401359150604084013560ff8116811462001c7957600080fd5b809150509250925092565b6020808252825182820181905260009190848201906040850190845b8181101562001ccb5762001cb683855162001b5f565b92840192610160929092019160010162001ca0565b50909695505050505050565b87815260e06020820152600062001cf260e083018962001846565b604083019790975250606081019490945260ff929092166080840152600160a060020a0390811660a08401521660c09091015292915050565b6000806040838503121562001d3f57600080fd5b823562001d4c8162001a03565b9150602083013562001d5e8162001a03565b809150509250929050565b60006101808e83528d6020840152600160a060020a03808e16604085015281606085015262001d9b8285018e62001846565b9150838203608085015262001db1828d62001846565b9a1660a0840152505060c081019690965260e086019490945261010085019290925261012084015261014083015260ff166101609091015295945050505050565b60208082528251828201819052600091906040908185019080840286018301878501865b8381101562001ea057603f19898403018552815160e08151855288820151818a87015262001e478287018262001846565b838a0151878b01526060808501519088015260808085015160ff169088015260a080850151600160a060020a039081169189019190915260c0948501511693909601929092525050938601939086019060010162001e16565b509098975050505050505050565b7f4e487b7100000000000000000000000000000000000000000000000000000000600052601160045260246000fd5b60008262001f14577f4e487b7100000000000000000000000000000000000000000000000000000000600052601260045260246000fd5b500490565b808202811582820484141762001818576200181862001eae565b8082018082111562001818576200181862001eae565b805162001a298162001a03565b60006020828403121562001f6957600080fd5b815162001f768162001a03565b9392505050565b805162001a298162001a2e565b60006020828403121562001f9d57600080fd5b815162001f768162001a2e565b60028104600182168062001fbf57607f821691505b60208210810362001ff9577f4e487b7100000000000000000000000000000000000000000000000000000000600052602260045260246000fd5b50919050565b601f82111562002049576000818152602081206020601f86010481016020861015620020285750805b6020601f860104820191505b8181101562000e095782815560010162002034565b505050565b815167ffffffffffffffff8111156200206b576200206b62001973565b62002083816200207c845462001faa565b8462001fff565b602080601f831160018114620020bf5760008415620020a25750858301515b60028086026008870290910a600019041982161786555062000e09565b600085815260208120601f198616915b82811015620020f057888601518255948401946001909101908401620020cf565b50858210156200211157878501516008601f88160260020a60001904191681555b5050505050600202600101905550565b838152602081018390526101a0810162000cbc604083018462001b5f565b6000602082840312156200215257600080fd5b5051919050565b805169ffffffffffffffffffff8116811462001a2957600080fd5b600080600080600060a086880312156200218d57600080fd5b620021988662002159565b9450602086015193506040860151925060608601519150620021bd6080870162002159565b90509295509295909350565b60006101608284031215620021dd57600080fd5b620021e7620019a2565b90508151815260208201516020820152620022056040830162001f49565b6040820152620022186060830162001f49565b60608201526200222b6080830162001f49565b608082015260a082015160a08201526200224860c0830162001f49565b60c08201526200225b60e0830162001f49565b60e082015261010082810151908201526101206200227b81840162001f7d565b818301525061014080830151818301525092915050565b60006020808385031215620022a657600080fd5b825167ffffffffffffffff80821115620022bf57600080fd5b818501915085601f830112620022d457600080fd5b815181811115620022e957620022e962001973565b620022f88485830201620019cf565b81815284810192506101609182028401850191888311156200231957600080fd5b938501935b828510156200234357620023338986620021c9565b845293840193928501926200231e565b50979650505050505050565b600061016082840312156200236357600080fd5b620018158383620021c956fe608060405234801561001057600080fd5b50604051610bdb380380610bdb83398101604081905261002f916101f4565b6000805433600160a060020a031991821617909155600187905542600255600480548216600160a060020a038881169182178355600580548516898316908117909155600788905560098054861692881692909217909155600b8590556006805490941681179093556040517f70a08231000000000000000000000000000000000000000000000000000000008152918201528491906370a0823190602401602060405180830381865afa1580156100eb573d6000803e3d6000fd5b505050506040513d601f19601f8201168201806040525081019061010f9190610253565b10156101a357604080517f08c379a00000000000000000000000000000000000000000000000000000000081526020600482015260248101919091527f706c6179657220312068617320696e73756666696369656e742062616c616e6360448201527f65206f6620746f6b656e203120746f206372656174652061206c697374696e67606482015260840160405180910390fd5b50600a8054600160a060020a031916600160a060020a03929092169190911790555050600c805460ff191690555061026c9050565b8051600160a060020a03811681146101ef57600080fd5b919050565b60008060008060008060c0878903121561020d57600080fd5b8651955061021d602088016101d8565b945061022b604088016101d8565b935060608701519250610240608088016101d8565b915060a087015190509295509295509295565b60006020828403121561026557600080fd5b5051919050565b6109608061027b6000396000f3fe608060405234801561001057600080fd5b5060043610610107576000357c010000000000000000000000000000000000000000000000000000000090048063b2f4bdb0116100a9578063d30895e411610083578063d30895e414610228578063d548804814610248578063d70c670314610268578063e2d46f981461027157600080fd5b8063b2f4bdb0146101f6578063c4e5edcd146101ff578063d21220a71461020857600080fd5b806359a5f12d116100e557806359a5f12d146101965780635f06a8d6146101b65780636f6ff405146101cd5780639405dfdd146101ed57600080fd5b806302d05d3f1461010c57806325be124e1461015657806358aaf0be14610176575b600080fd5b60005461012c9073ffffffffffffffffffffffffffffffffffffffff1681565b60405173ffffffffffffffffffffffffffffffffffffffff90911681526020015b60405180910390f35b60095461012c9073ffffffffffffffffffffffffffffffffffffffff1681565b600a5461012c9073ffffffffffffffffffffffffffffffffffffffff1681565b60085461012c9073ffffffffffffffffffffffffffffffffffffffff1681565b6101bf60035481565b60405190815260200161014d565b6101e06101db36600461079f565b61028e565b60405161014d91906107dc565b6101bf60015481565b6101bf60025481565b6101bf600b5481565b60055461012c9073ffffffffffffffffffffffffffffffffffffffff1681565b60045461012c9073ffffffffffffffffffffffffffffffffffffffff1681565b60065461012c9073ffffffffffffffffffffffffffffffffffffffff1681565b6101bf60075481565b600c5461027e9060ff1681565b604051901515815260200161014d565b6040805161016081018252600080825260208201819052918101829052606081018290526080810182905260a0810182905260c0810182905260e0810182905261010081018290526101208101829052610140810191909152600754600654600480546040517fdd62ed3e00000000000000000000000000000000000000000000000000000000815273ffffffffffffffffffffffffffffffffffffffff918216928101929092523060248301529091169063dd62ed3e90604401602060405180830381865afa158015610366573d6000803e3d6000fd5b505050506040513d601f19601f8201168201806040525081019061038a91906108ef565b10156103f7576040517f08c379a000000000000000000000000000000000000000000000000000000000815260206004820152601960248201527f546f6b656e203120616c6c6f77616e636520746f6f206c6f770000000000000060448201526064015b60405180910390fd5b600b54600a546040517fdd62ed3e00000000000000000000000000000000000000000000000000000000815273ffffffffffffffffffffffffffffffffffffffff85811660048301523060248301529091169063dd62ed3e90604401602060405180830381865afa158015610470573d6000803e3d6000fd5b505050506040513d601f19601f8201168201806040525081019061049491906108ef565b10156104fc576040517f08c379a000000000000000000000000000000000000000000000000000000000815260206004820152601960248201527f546f6b656e203220616c6c6f77616e636520746f6f206c6f770000000000000060448201526064016103ee565b60065460045460075461052b9273ffffffffffffffffffffffffffffffffffffffff908116921690859061068a565b600a54600454600b5461055b9273ffffffffffffffffffffffffffffffffffffffff90811692869291169061068a565b600880547fffffffffffffffffffffffff00000000000000000000000000000000000000001673ffffffffffffffffffffffffffffffffffffffff848116918217909255600c805460ff191660019081179091556040805161016081018252825481526002546020820152308183015260048054861660608301526005548616608083015260075460a083015260c0820194909452600954851660e0820152600b546101008201526101208101929092524261014083015260005490517f2b1ea96700000000000000000000000000000000000000000000000000000000815291931691632b1ea96791610651918591016107dc565b600060405180830381600087803b15801561066b57600080fd5b505af115801561067f573d6000803e3d6000fd5b509295945050505050565b6040517f23b872dd00000000000000000000000000000000000000000000000000000000815273ffffffffffffffffffffffffffffffffffffffff8481166004830152838116602483015260448201839052600091908616906323b872dd906064016020604051808303816000875af115801561070b573d6000803e3d6000fd5b505050506040513d601f19601f8201168201806040525081019061072f9190610908565b905080610798576040517f08c379a000000000000000000000000000000000000000000000000000000000815260206004820152601560248201527f546f6b656e207472616e73666572206661696c6564000000000000000000000060448201526064016103ee565b5050505050565b6000602082840312156107b157600080fd5b813573ffffffffffffffffffffffffffffffffffffffff811681146107d557600080fd5b9392505050565b6000610160820190508251825260208301516020830152604083015161081a604084018273ffffffffffffffffffffffffffffffffffffffff169052565b506060830151610842606084018273ffffffffffffffffffffffffffffffffffffffff169052565b50608083015161086a608084018273ffffffffffffffffffffffffffffffffffffffff169052565b5060a083015160a083015260c083015161089c60c084018273ffffffffffffffffffffffffffffffffffffffff169052565b5060e08301516108c460e084018273ffffffffffffffffffffffffffffffffffffffff169052565b5061010083810151908301526101208084015180151582850152505061014092830151919092015290565b60006020828403121561090157600080fd5b5051919050565b60006020828403121561091a57600080fd5b815180151581146107d557600080fdfea26469706673582212208073a09165b1d7356ce1df2918bfa92eb2603ef19b37c9832246bba428138fd464736f6c63430008110033a2646970667358221220fe265146d63880c4de53eb263aae2962daa14db96a3e7ba1f8bbc900e415891764736f6c63430008110033",
  "immutableReferences": {},
  "source": "// SPDX-License-Identifier: MIT\npragma solidity >=0.4.22 <0.9.0;\n\nimport \"./ListingContract.sol\";\nimport \"./IListingOwner.sol\";\nimport \"./Models.sol\";\nimport \"./HwangMarket.sol\";\nimport \"./IterableMapping.sol\";\nimport \"./GameERC20Token.sol\";\nimport \"./GameERC20TokenFactory.sol\";\nimport \"@chainlink/contracts/src/v0.8/interfaces/AggregatorV3Interface.sol\";\nimport \"@openzeppelin/contracts/token/ERC20/IERC20.sol\";\nimport \"@openzeppelin/contracts/utils/math/SafeMath.sol\";\n\ncontract GameContract is IListingOwner {\n  using SafeMath for uint256;\n  using IterableMapping for IterableMapping.ListingsMap;\n\n  address creator;\n  address public hwangMarketAddr; \n  Models.GameMetadata public gameInfo;\n\n  AggregatorV3Interface internal priceFeed;\n\n  // Trx types constant\n  string constant BetActivityType = \"BET\";\n  string constant WithdrawActivityType = \"WITHDRAW\";\n\n  // conversion rate from 1 HMTKN to 1 Game Token\n  uint constant mainTkn2GameTknConversionRate = 1;\n  uint constant supplyLimit = 1000;\n\n  Models.Trx[] public trxs;\n  uint256 internal trxId;\n\n  bool private tokenInit;\n  address public gameNoTokenContractAddress;\n  address public gameYesTokenContractAddress;\n\n  IterableMapping.ListingsMap private listingContracts;\n  uint256 public listingsCount;\n\n  event NewListing(Models.ListingInfo listingInfo);\n  event ListingFulfilled(Models.ListingInfo listingInfo);\n\n  // a gameSide of NO indicates < threshold, and a gameSide of YES indicates >= threshold\n  constructor(address hmAddr , uint256 _resolveTime, address _oracleAddr, int256 thres, string memory _tag, string memory _title, uint256 _id) {\n    creator = msg.sender;\n    hwangMarketAddr = hmAddr;\n    priceFeed = AggregatorV3Interface(_oracleAddr);\n    gameInfo = Models.GameMetadata({\n      id: _id,\n      createdTime: block.timestamp,\n      addr: address(this),\n      tag: _tag,\n      title: _title,\n      oracleAddr: _oracleAddr,\n      resolveTime: _resolveTime,\n      threshold: thres,\n      totalAmount: 0,\n      betYesAmount: 0,\n      betNoAmount: 0,\n      gameOutcome: 0\n    });\n\n    tokenInit = false;    \n  }\n\n  function initTokenAddr(address gytAddr, address gntAddr) external {\n    require(msg.sender == creator && !tokenInit);\n\n    gameYesTokenContractAddress = gytAddr;\n    gameNoTokenContractAddress = gntAddr;\n  }\n\n  // creates a new listing\n  function newListing(address _player, uint256 token1Amt, address token2, uint256 token2Amt) public returns(Models.ListingInfo memory) {\n    require(msg.sender == gameNoTokenContractAddress || msg.sender == gameYesTokenContractAddress);\n    ListingContract newListingContract = new ListingContract(listingsCount, _player, msg.sender, token1Amt, token2, token2Amt);\n    Models.ListingInfo memory listingInfo = Models.ListingInfo({\n      listingId: listingsCount,\n      createdTime: newListingContract.createdTime(),\n      listingAddr: address(newListingContract),\n      player1: _player,\n      token1: msg.sender,\n      token1Amt: token1Amt,\n      player2: address(0),\n      token2: token2,\n      token2Amt: token2Amt,\n      fulfilled: false,\n      fulfilledTime: 0\n    });\n    listingContracts.set(listingsCount, listingInfo);\n\n    listingsCount = listingsCount.add(1);\n\n    emit NewListing(listingInfo);\n    return listingInfo;\n  }\n\n  function getListingContractAddressById(uint listingId) external view returns(address) {\n    return listingContracts.get(listingId).listingAddr;\n  }\n\n  function getGameInfo() external view returns (Models.GameMetadata memory) {\n    return gameInfo;\n  }\n\n  function getAllListings() external view returns (Models.ListingInfo[] memory) {\n    return listingContracts.getlistingValues();\n  }\n\n  function updateListing(Models.ListingInfo memory listingInfo) external {\n    listingContracts.set(listingInfo.listingId, listingInfo);\n\n    emit ListingFulfilled(listingInfo);\n  }\n\n  // payable keyword should allow depositing of ethereum into smart contract\n  // allow msg.sender address to register as a player\n  function addPlayer(address _player, uint256 hwangMktTokenAmt, uint8 betSide) public {\n      require(gameInfo.gameOutcome == 0 && (betSide == 1 || betSide == 2) && block.timestamp <= gameInfo.resolveTime);\n\n      GameERC20Token gameTokenContract = GameERC20Token(gameNoTokenContractAddress);\n      if (betSide == 1) {\n        gameTokenContract = GameERC20Token(gameYesTokenContractAddress);\n      }\n      uint256 requestedMintAmt = hwangMktTokenAmt * mainTkn2GameTknConversionRate;\n      // mint the respective 1-1 game token to the player\n      gameTokenContract.mint(_player, requestedMintAmt);\n      // collect the player's main token, deposit under the game address\n      HwangMarket hm = HwangMarket(hwangMarketAddr);\n      _safeTransferFrom(IERC20(hm.mainTokenAddress()), _player, address(this), hwangMktTokenAmt);\n\n      // book keeping\n      if (betSide == 1) {\n        gameInfo.betYesAmount += hwangMktTokenAmt;\n      } else {\n        gameInfo.betNoAmount += hwangMktTokenAmt;\n      }\n      uint256 timestamp = block.timestamp;\n      trxs.push(Models.Trx({\n        trxId: trxId,\n        activityType: BetActivityType,\n        gameSide: betSide,\n        trxAmt: hwangMktTokenAmt,\n        trxTime: timestamp,\n        from: address(this),\n        to: _player\n      }));\n      trxId = trxId.add(1);\n\n      hm.playerJoinedSide(_player, betSide, hwangMktTokenAmt, timestamp);\n    }\n\n  // impt: anyone can call the contract to perform upkeep but it has a guard to protect against early resolves\n  // and it checks against a \"trusted\" oracle chainlink to fetch the result\n  function performUpkeep() public {\n    if (block.timestamp < gameInfo.resolveTime || gameInfo.gameOutcome != 0) {\n      return;\n    }\n    (\n      /*uint80 roundID*/,\n      int price,\n      /*uint startedAt*/,\n      /*uint timeStamp*/,\n      /*uint80 answeredInRound*/\n    ) = priceFeed.latestRoundData();\n    uint8 rawSide = 2;\n    if (price >= gameInfo.threshold) {\n      rawSide = 1;\n    }\n    gameInfo.gameOutcome = rawSide;\n\n    HwangMarket(hwangMarketAddr).concludeGame(rawSide);\n  }\n\n  // allow winners to withdraw their winnings in term of HMTKN\n  function withdrawWinnings(uint withdrawAmt) public {\n    require(gameInfo.gameOutcome != 0); // game outcome cannot be unknown\n    IERC20 gameTokenContract = IERC20(gameNoTokenContractAddress);\n    if (gameInfo.gameOutcome == 1) {\n      gameTokenContract = IERC20(gameYesTokenContractAddress);\n    }\n\n    // where to calculate amount of winnings\n    // calculated winnings = (player's bet amount / total bet amount on winning side) * total bet amount on losing side\n    uint256 amtOnWinning = gameInfo.betNoAmount;\n    uint256 amtOnLosing = gameInfo.betYesAmount;\n    if (gameInfo.gameOutcome == 1) {\n      amtOnWinning = gameInfo.betYesAmount;\n      amtOnLosing = gameInfo.betNoAmount;\n    }\n    uint256 deposit = (1 / mainTkn2GameTknConversionRate) * withdrawAmt;\n    uint256 winnings = ((deposit / amtOnWinning) * amtOnLosing) + deposit;\n\n    // initiate transfer of hwang market tokens from game to player\n    IERC20(HwangMarket(hwangMarketAddr).mainTokenAddress()).transfer(msg.sender, winnings);\n    // initiate transfer of game token from player back to game\n    _safeTransferFrom(gameTokenContract, msg.sender, address(this), withdrawAmt);\n\n    uint256 timestamp = block.timestamp;\n    trxs.push(Models.Trx({\n      trxId: trxId,\n      activityType: WithdrawActivityType,\n      gameSide: gameInfo.gameOutcome,\n      trxAmt: winnings,\n      trxTime: timestamp,\n      from: address(this),\n      to: msg.sender\n    }));\n    trxId = trxId.add(1);\n    HwangMarket(hwangMarketAddr).playerWithdrawWinnings(msg.sender, gameInfo.gameOutcome, winnings, timestamp);\n  }\n\n  function getTrxs() external view returns (Models.Trx[] memory) {\n    return trxs;\n  }\n\n  function _safeTransferFrom(\n    IERC20 token,\n    address sender,\n    address recipient,\n    uint amount\n    ) private {\n      bool sent = token.transferFrom(sender, recipient, amount);\n      require(sent);\n    }\n}\n",
  "sourcePath": "/Users/gerald/Desktop/HwangMarket/contracts/GameContract.sol",
  "compiler": {
    "name": "solc",
    "version": "0.8.17+commit.8df45f5f.Emscripten.clang"
  },
  "schemaVersion": "3.4.10",
  "updatedAt": "2022-11-06T12:36:49.331Z",
  "devdoc": {
    "kind": "dev",
    "methods": {},
    "version": 1
  },
  "userdoc": {
    "kind": "user",
    "methods": {},
    "version": 1
  }
}