{
  "contractName": "GameContract",
  "abi": [
    {
      "inputs": [
        {
          "internalType": "address",
          "name": "_creator",
          "type": "address"
        },
        {
          "internalType": "uint256",
          "name": "resolveTime",
          "type": "uint256"
        },
        {
          "internalType": "address",
          "name": "oracleAddr",
          "type": "address"
        },
        {
          "internalType": "int256",
          "name": "thres",
          "type": "int256"
        }
      ],
      "stateMutability": "nonpayable",
      "type": "constructor"
    },
    {
      "anonymous": false,
      "inputs": [
        {
          "components": [
            {
              "internalType": "uint256",
              "name": "listingId",
              "type": "uint256"
            },
            {
              "internalType": "address",
              "name": "listingAddr",
              "type": "address"
            },
            {
              "internalType": "address",
              "name": "player1",
              "type": "address"
            },
            {
              "internalType": "address",
              "name": "token1",
              "type": "address"
            },
            {
              "internalType": "uint256",
              "name": "token1Amt",
              "type": "uint256"
            },
            {
              "internalType": "address",
              "name": "player2",
              "type": "address"
            },
            {
              "internalType": "address",
              "name": "token2",
              "type": "address"
            },
            {
              "internalType": "uint256",
              "name": "token2Amt",
              "type": "uint256"
            },
            {
              "internalType": "bool",
              "name": "fulfilled",
              "type": "bool"
            }
          ],
          "indexed": false,
          "internalType": "struct Models.ListingInfo",
          "name": "listingInfo",
          "type": "tuple"
        }
      ],
      "name": "ListingFulfilled",
      "type": "event"
    },
    {
      "anonymous": false,
      "inputs": [
        {
          "components": [
            {
              "internalType": "uint256",
              "name": "listingId",
              "type": "uint256"
            },
            {
              "internalType": "address",
              "name": "listingAddr",
              "type": "address"
            },
            {
              "internalType": "address",
              "name": "player1",
              "type": "address"
            },
            {
              "internalType": "address",
              "name": "token1",
              "type": "address"
            },
            {
              "internalType": "uint256",
              "name": "token1Amt",
              "type": "uint256"
            },
            {
              "internalType": "address",
              "name": "player2",
              "type": "address"
            },
            {
              "internalType": "address",
              "name": "token2",
              "type": "address"
            },
            {
              "internalType": "uint256",
              "name": "token2Amt",
              "type": "uint256"
            },
            {
              "internalType": "bool",
              "name": "fulfilled",
              "type": "bool"
            }
          ],
          "indexed": false,
          "internalType": "struct Models.ListingInfo",
          "name": "listingInfo",
          "type": "tuple"
        }
      ],
      "name": "NewListing",
      "type": "event"
    },
    {
      "inputs": [
        {
          "internalType": "enum GameContract.gameSide",
          "name": "",
          "type": "uint8"
        }
      ],
      "name": "amtPlacedOnSide",
      "outputs": [
        {
          "internalType": "uint256",
          "name": "",
          "type": "uint256"
        }
      ],
      "stateMutability": "view",
      "type": "function"
    },
    {
      "inputs": [],
      "name": "creator",
      "outputs": [
        {
          "internalType": "address",
          "name": "",
          "type": "address"
        }
      ],
      "stateMutability": "view",
      "type": "function"
    },
    {
      "inputs": [],
      "name": "gameNoTokenContract",
      "outputs": [
        {
          "internalType": "contract GameERC20Token",
          "name": "",
          "type": "address"
        }
      ],
      "stateMutability": "view",
      "type": "function"
    },
    {
      "inputs": [],
      "name": "gameNoTokenContractAddress",
      "outputs": [
        {
          "internalType": "address",
          "name": "",
          "type": "address"
        }
      ],
      "stateMutability": "view",
      "type": "function"
    },
    {
      "inputs": [],
      "name": "gameOutcome",
      "outputs": [
        {
          "internalType": "enum GameContract.gameSide",
          "name": "",
          "type": "uint8"
        }
      ],
      "stateMutability": "view",
      "type": "function"
    },
    {
      "inputs": [],
      "name": "gameResolveTime",
      "outputs": [
        {
          "internalType": "uint256",
          "name": "",
          "type": "uint256"
        }
      ],
      "stateMutability": "view",
      "type": "function"
    },
    {
      "inputs": [],
      "name": "gameYesTokenContract",
      "outputs": [
        {
          "internalType": "contract GameERC20Token",
          "name": "",
          "type": "address"
        }
      ],
      "stateMutability": "view",
      "type": "function"
    },
    {
      "inputs": [],
      "name": "gameYesTokenContractAddress",
      "outputs": [
        {
          "internalType": "address",
          "name": "",
          "type": "address"
        }
      ],
      "stateMutability": "view",
      "type": "function"
    },
    {
      "inputs": [],
      "name": "listingsCount",
      "outputs": [
        {
          "internalType": "uint256",
          "name": "",
          "type": "uint256"
        }
      ],
      "stateMutability": "view",
      "type": "function"
    },
    {
      "inputs": [],
      "name": "mainContract",
      "outputs": [
        {
          "internalType": "contract HwangMarket",
          "name": "",
          "type": "address"
        }
      ],
      "stateMutability": "view",
      "type": "function"
    },
    {
      "inputs": [],
      "name": "status",
      "outputs": [
        {
          "internalType": "enum GameContract.GameStatus",
          "name": "",
          "type": "uint8"
        }
      ],
      "stateMutability": "view",
      "type": "function"
    },
    {
      "inputs": [],
      "name": "threshold",
      "outputs": [
        {
          "internalType": "int256",
          "name": "",
          "type": "int256"
        }
      ],
      "stateMutability": "view",
      "type": "function"
    },
    {
      "inputs": [
        {
          "internalType": "address",
          "name": "_player",
          "type": "address"
        },
        {
          "internalType": "uint256",
          "name": "token1Amt",
          "type": "uint256"
        },
        {
          "internalType": "address",
          "name": "token2",
          "type": "address"
        },
        {
          "internalType": "uint256",
          "name": "token2Amt",
          "type": "uint256"
        }
      ],
      "name": "newListing",
      "outputs": [
        {
          "components": [
            {
              "internalType": "uint256",
              "name": "listingId",
              "type": "uint256"
            },
            {
              "internalType": "address",
              "name": "listingAddr",
              "type": "address"
            },
            {
              "internalType": "address",
              "name": "player1",
              "type": "address"
            },
            {
              "internalType": "address",
              "name": "token1",
              "type": "address"
            },
            {
              "internalType": "uint256",
              "name": "token1Amt",
              "type": "uint256"
            },
            {
              "internalType": "address",
              "name": "player2",
              "type": "address"
            },
            {
              "internalType": "address",
              "name": "token2",
              "type": "address"
            },
            {
              "internalType": "uint256",
              "name": "token2Amt",
              "type": "uint256"
            },
            {
              "internalType": "bool",
              "name": "fulfilled",
              "type": "bool"
            }
          ],
          "internalType": "struct Models.ListingInfo",
          "name": "",
          "type": "tuple"
        }
      ],
      "stateMutability": "nonpayable",
      "type": "function"
    },
    {
      "inputs": [
        {
          "internalType": "uint256",
          "name": "listingId",
          "type": "uint256"
        }
      ],
      "name": "getListingContractAddressById",
      "outputs": [
        {
          "internalType": "address",
          "name": "",
          "type": "address"
        }
      ],
      "stateMutability": "view",
      "type": "function"
    },
    {
      "inputs": [],
      "name": "getAllListings",
      "outputs": [
        {
          "components": [
            {
              "internalType": "uint256",
              "name": "listingId",
              "type": "uint256"
            },
            {
              "internalType": "address",
              "name": "listingAddr",
              "type": "address"
            },
            {
              "internalType": "address",
              "name": "player1",
              "type": "address"
            },
            {
              "internalType": "address",
              "name": "token1",
              "type": "address"
            },
            {
              "internalType": "uint256",
              "name": "token1Amt",
              "type": "uint256"
            },
            {
              "internalType": "address",
              "name": "player2",
              "type": "address"
            },
            {
              "internalType": "address",
              "name": "token2",
              "type": "address"
            },
            {
              "internalType": "uint256",
              "name": "token2Amt",
              "type": "uint256"
            },
            {
              "internalType": "bool",
              "name": "fulfilled",
              "type": "bool"
            }
          ],
          "internalType": "struct Models.ListingInfo[]",
          "name": "",
          "type": "tuple[]"
        }
      ],
      "stateMutability": "view",
      "type": "function"
    },
    {
      "inputs": [
        {
          "components": [
            {
              "internalType": "uint256",
              "name": "listingId",
              "type": "uint256"
            },
            {
              "internalType": "address",
              "name": "listingAddr",
              "type": "address"
            },
            {
              "internalType": "address",
              "name": "player1",
              "type": "address"
            },
            {
              "internalType": "address",
              "name": "token1",
              "type": "address"
            },
            {
              "internalType": "uint256",
              "name": "token1Amt",
              "type": "uint256"
            },
            {
              "internalType": "address",
              "name": "player2",
              "type": "address"
            },
            {
              "internalType": "address",
              "name": "token2",
              "type": "address"
            },
            {
              "internalType": "uint256",
              "name": "token2Amt",
              "type": "uint256"
            },
            {
              "internalType": "bool",
              "name": "fulfilled",
              "type": "bool"
            }
          ],
          "internalType": "struct Models.ListingInfo",
          "name": "listingInfo",
          "type": "tuple"
        }
      ],
      "name": "updateListing",
      "outputs": [],
      "stateMutability": "nonpayable",
      "type": "function"
    },
    {
      "inputs": [],
      "name": "getLatestPrice",
      "outputs": [
        {
          "internalType": "int256",
          "name": "",
          "type": "int256"
        }
      ],
      "stateMutability": "view",
      "type": "function"
    },
    {
      "inputs": [],
      "name": "getGameInfo",
      "outputs": [
        {
          "internalType": "address",
          "name": "",
          "type": "address"
        },
        {
          "internalType": "enum GameContract.GameStatus",
          "name": "",
          "type": "uint8"
        },
        {
          "internalType": "enum GameContract.gameSide",
          "name": "",
          "type": "uint8"
        },
        {
          "internalType": "uint256",
          "name": "",
          "type": "uint256"
        },
        {
          "internalType": "int256",
          "name": "",
          "type": "int256"
        }
      ],
      "stateMutability": "view",
      "type": "function"
    },
    {
      "inputs": [
        {
          "internalType": "address",
          "name": "_player",
          "type": "address"
        },
        {
          "internalType": "uint256",
          "name": "hwangMktTokenAmt",
          "type": "uint256"
        },
        {
          "internalType": "uint8",
          "name": "betSide",
          "type": "uint8"
        }
      ],
      "name": "addPlayer",
      "outputs": [],
      "stateMutability": "nonpayable",
      "type": "function"
    },
    {
      "inputs": [],
      "name": "getTrxs",
      "outputs": [
        {
          "components": [
            {
              "internalType": "uint256",
              "name": "trxId",
              "type": "uint256"
            },
            {
              "internalType": "string",
              "name": "activityType",
              "type": "string"
            },
            {
              "internalType": "uint256",
              "name": "trxAmt",
              "type": "uint256"
            },
            {
              "internalType": "uint256",
              "name": "trxTime",
              "type": "uint256"
            },
            {
              "internalType": "uint8",
              "name": "gameSide",
              "type": "uint8"
            },
            {
              "internalType": "address",
              "name": "from",
              "type": "address"
            },
            {
              "internalType": "address",
              "name": "to",
              "type": "address"
            }
          ],
          "internalType": "struct GameContract.Trx[]",
          "name": "",
          "type": "tuple[]"
        }
      ],
      "stateMutability": "view",
      "type": "function"
    },
    {
      "inputs": [
        {
          "internalType": "uint8",
          "name": "s",
          "type": "uint8"
        }
      ],
      "name": "getSideAmt",
      "outputs": [
        {
          "internalType": "uint256",
          "name": "",
          "type": "uint256"
        }
      ],
      "stateMutability": "view",
      "type": "function"
    },
    {
      "inputs": [],
      "name": "performUpkeep",
      "outputs": [],
      "stateMutability": "nonpayable",
      "type": "function"
    },
    {
      "inputs": [
        {
          "internalType": "uint256",
          "name": "withdrawAmt",
          "type": "uint256"
        }
      ],
      "name": "withdrawWinnings",
      "outputs": [],
      "stateMutability": "nonpayable",
      "type": "function"
    },
    {
      "inputs": [],
      "name": "getBalance",
      "outputs": [
        {
          "internalType": "uint256",
          "name": "",
          "type": "uint256"
        }
      ],
      "stateMutability": "view",
      "type": "function"
    }
  ],
  "bytecode": "0x60806040523480156200001157600080fd5b506040516200493d3803806200493d83398101604081905262000034916200024f565b6000805460078054600160a060020a03888116600160a060020a031992831681179093556001889055600160b060020a03199093169091179092556004805490921690841617905560028190556040516103e890620000939062000224565b6060808252600b908201527f47616d654e6f546f6b656e000000000000000000000000000000000000000000608082015260a0602082018190526003908201527f474e54000000000000000000000000000000000000000000000000000000000060c0820152604081019190915260e001604051809103906000f08015801562000121573d6000803e3d6000fd5b5060098054600160a060020a0392909216600160a060020a03199283168117909155600880549092161790556040516103e8906200015f9062000224565b6060808252600c908201527f47616d65596573546f6b656e0000000000000000000000000000000000000000608082015260a0602082018190526003908201527f475954000000000000000000000000000000000000000000000000000000000060c0820152604081019190915260e001604051809103906000f080158015620001ed573d6000803e3d6000fd5b50600b8054600160a060020a0392909216600160a060020a03199283168117909155600a8054909216179055506200029892505050565b61154580620033f883390190565b8051600160a060020a03811681146200024a57600080fd5b919050565b600080600080608085870312156200026657600080fd5b620002718562000232565b935060208501519250620002886040860162000232565b6060959095015193969295505050565b61315080620002a86000396000f3fe60806040523480156200001157600080fd5b5060043610620001795760003560e060020a900480637256eba411620000d7578063d6875f95116200008a578063d6875f951462000349578063dc8046f0146200035d578063e07056af1462000374578063e2cb747d146200038b578063f91c2cbc14620003a2578063f92a9e0914620003bb57600080fd5b80637256eba414620002d3578063846c6f4f14620002ea5780638e15f47314620002fe5780638f09cc8b1462000308578063ae73ccec146200031c578063d270e7ab146200033557600080fd5b8063200d2ed21162000130578063200d2ed214620002575780632cd1adfe146200027b57806341ef10c814620002a157806342cde4e814620002b557806346b1df0414620002bf5780636e4d243a14620002c957600080fd5b806302d05d3f146200017e578063053a2cfb14620001aa57806312065fe014620001ce5780631479470214620001e05780631486d61114620001f95780631746bd1b146200021c575b600080fd5b6000546200019290600160a060020a031681565b604051620001a1919062001dbc565b60405180910390f35b600054620001bf9060a860020a900460ff1681565b604051620001a1919062001e00565b30315b604051908152602001620001a1565b620001f7620001f136600462001e16565b620003c5565b005b620001d16200020a36600462001e30565b60036020526000908152604090205481565b600054600154600254604051620001a193600160a060020a0381169360ff60a060020a830481169460a860020a909304169290919062001e6d565b6000546200026c9060a060020a900460ff1681565b604051620001a1919062001eae565b620002926200028c36600462001ee9565b62000b31565b604051620001a1919062001fd0565b6008546200019290600160a060020a031681565b620001d160025481565b620001d160115481565b620001f762000da7565b620001f7620002e436600462001ff3565b62000edf565b600a546200019290600160a060020a031681565b620001d162001826565b6009546200019290600160a060020a031681565b62000326620018ba565b604051620001a1919062002036565b6007546200019290600160a060020a031681565b600b546200019290600160a060020a031681565b620001f76200036e3660046200211f565b62001956565b620001926200038536600462001e16565b62001a05565b620001d16200039c366004620021cf565b62001aaa565b620003ac62001b69565b604051620001a19190620021ed565b620001d160015481565b600160005460a060020a900460ff166001811115620003e857620003e862001dd0565b146200043e5760405160e560020a62461bcd02815260206004820152601660248201527f67616d65206973206e6f742079657420636c6f7365640000000000000000000060448201526064015b60405180910390fd5b6000805460a860020a900460ff16600281111562000460576200046062001dd0565b03620004b25760405160e560020a62461bcd02815260206004820152601e60248201527f67616d65206f7574636f6d652063616e6e6f7420626520756e6b6e6f776e0000604482015260640162000435565b600954600160a060020a0316600160005460a860020a900460ff166002811115620004e157620004e162001dd0565b03620004f55750600b54600160a060020a03165b60405160e160020a636eb1769f0281523360048201523060248201528290600160a060020a0383169063dd62ed3e90604401602060405180830381865afa15801562000545573d6000803e3d6000fd5b505050506040513d601f19601f820116820180604052508101906200056b9190620022fd565b1015620005e45760405160e560020a62461bcd02815260206004820152602360248201527f706c61796572206d75737420617070726f766520776974686472617720616d6f60448201527f756e740000000000000000000000000000000000000000000000000000000000606482015260840162000435565b6040517f70a082310000000000000000000000000000000000000000000000000000000081528290600160a060020a038316906370a08231906200062d90339060040162001dbc565b602060405180830381865afa1580156200064b573d6000803e3d6000fd5b505050506040513d601f19601f82011682018060405250810190620006719190620022fd565b1015620006ea5760405160e560020a62461bcd02815260206004820152602e60248201527f706c61796572206d75737420686176652067616d6520746f6b656e20616d6f7560448201527f6e7420746f207769746864726177000000000000000000000000000000000000606482015260840162000435565b60028060005460a860020a900460ff1660028111156200070e576200070e62001dd0565b0362000718575060015b6000836200072860018062002330565b62000734919062002356565b90506000816003600085600281111562000752576200075262001dd0565b600281111562000766576200076662001dd0565b815260200190815260200160002054600360008060159054906101000a900460ff1660028111156200079c576200079c62001dd0565b6002811115620007b057620007b062001dd0565b81526020019081526020016000205484620007cc919062002330565b620007d8919062002356565b620007e4919062002370565b9050600760009054906101000a9004600160a060020a0316600160a060020a0316633fc15f156040518163ffffffff1660e060020a028152600401602060405180830381865afa1580156200083d573d6000803e3d6000fd5b505050506040513d601f19601f8201168201806040525081019062000863919062002386565b6040517fa9059cbb00000000000000000000000000000000000000000000000000000000815233600482015260248101839052600160a060020a03919091169063a9059cbb906044016020604051808303816000875af1158015620008cc573d6000803e3d6000fd5b505050506040513d601f19601f82011682018060405250810190620008f29190620023b3565b50620009018433308862001cb8565b6002600160005460a860020a900460ff16600281111562000926576200092662001dd0565b0362000930575060015b6040805160e08101825260068054825282518084018452600881527f57495448445241570000000000000000000000000000000000000000000000006020828101919091528301908152928201859052426060830181905260ff851660808401523060a08401523360c084015260058054600181018255600091909152835192027f036b6384b5eca791c62761152d0c79bb0604c104a5fb6f4eb0703f3154bb3db08101928355935190937f036b6384b5eca791c62761152d0c79bb0604c104a5fb6f4eb0703f3154bb3db1019062000a0a908262002461565b506040820151600282015560608201516003820155608082015160048201805460a085015160ff90931674ffffffffffffffffffffffffffffffffffffffffff1990911617610100600160a060020a039384160217905560c0909201516005909101805473ffffffffffffffffffffffffffffffffffffffff1916919092161790556006805490600062000a9e8362002534565b90915550506007546040517f79769488000000000000000000000000000000000000000000000000000000008152600160a060020a039091169063797694889062000af490339086908890879060040162002550565b600060405180830381600087803b15801562000b0f57600080fd5b505af115801562000b24573d6000803e3d6000fd5b5050505050505050505050565b6040805161012081018252600080825260208201819052918101829052606081018290526080810182905260a0810182905260c0810182905260e08101829052610100810191909152600854600160a060020a031633148062000b9e5750600a54600160a060020a031633145b62000c155760405160e560020a62461bcd02815260206004820152602760248201527f6f6e6c792067616d6520746f6b656e2063616e20637265617465206e6577206c60448201527f697374696e677300000000000000000000000000000000000000000000000000606482015260840162000435565b60006011549050600081873388888860405162000c329062001dae565b958652600160a060020a03948516602087015292841660408601526060850191909152909116608083015260a082015260c001604051809103906000f08015801562000c82573d6000803e3d6000fd5b506040805161012081018252848152600160a060020a0380841660208301528a811682840152336060830152608082018a9052600060a0830181905290891660c083015260e08201889052610100820152905160e260020a6301c2d7ad0281529192509073__IterableMapping_______________________9063070b5eb49062000d1790600c908790869060040162002579565b60006040518083038186803b15801562000d3057600080fd5b505af415801562000d45573d6000803e3d6000fd5b50506011805492509050600062000d5c8362002534565b91905055507fd1fe3704bd3aa4f4974d5168e39528bbb86b19e98e5f798beea49af58df301398160405162000d92919062001fd0565b60405180910390a1925050505b949350505050565b60015442108062000dd85750600160005460a060020a900460ff16600181111562000dd65762000dd662001dd0565b145b1562000de057565b6000805474ff0000000000000000000000000000000000000000191660a060020a17905560028054819062000e1462001826565b1262000e21575060019050805b6000805483919075ff000000000000000000000000000000000000000000191660a860020a83600281111562000e5b5762000e5b62001dd0565b02179055506007546040517fe362937d00000000000000000000000000000000000000000000000000000000815260ff83166004820152600160a060020a039091169063e362937d90602401600060405180830381600087803b15801562000ec257600080fd5b505af115801562000ed7573d6000803e3d6000fd5b505050505050565b60008060005460a060020a900460ff16600181111562000f035762000f0362001dd0565b1462000f7b5760405160e560020a62461bcd02815260206004820152602860248201527f47616d6520697320636c6f7365642c206e6f206675727468657220626574732060448201527f6163636570746564000000000000000000000000000000000000000000000000606482015260840162000435565b8160ff166001148062000f9157508160ff166002145b62000fe25760405160e560020a62461bcd02815260206004820152601a60248201527f6265742073696465206973206e6f74207265636f676e69736564000000000000604482015260640162000435565b6001544211156200105f5760405160e560020a62461bcd02815260206004820152602260248201527f63616e6e6f74207075742062657473206166746572207265736f6c766520746960448201527f6d65000000000000000000000000000000000000000000000000000000000000606482015260840162000435565b6007546040805160e060020a633fc15f1502815290518592600160a060020a031691633fc15f159160048083019260209291908290030181865afa158015620010ac573d6000803e3d6000fd5b505050506040513d601f19601f82011682018060405250810190620010d2919062002386565b60405160e160020a636eb1769f028152600160a060020a038781166004830152306024830152919091169063dd62ed3e90604401602060405180830381865afa15801562001124573d6000803e3d6000fd5b505050506040513d601f19601f820116820180604052508101906200114a9190620022fd565b1015620011c35760405160e560020a62461bcd02815260206004820152602d60248201527f706c617965722773206877616e67206d61726b657420746f6b656e20616c6c6f60448201527f77616e636520746f6f206c6f7700000000000000000000000000000000000000606482015260840162000435565b6007546040805160e060020a633fc15f1502815290518592600160a060020a031691633fc15f159160048083019260209291908290030181865afa15801562001210573d6000803e3d6000fd5b505050506040513d601f19601f8201168201806040525081019062001236919062002386565b600160a060020a03166370a08231866040518263ffffffff1660e060020a02815260040162001266919062001dbc565b602060405180830381865afa15801562001284573d6000803e3d6000fd5b505050506040513d601f19601f82011682018060405250810190620012aa9190620022fd565b1015620013235760405160e560020a62461bcd02815260206004820152602b60248201527f706c617965722773206877616e67206d61726b657420746f6b656e2062616c6160448201527f6e636520746f6f206c6f77000000000000000000000000000000000000000000606482015260840162000435565b600260ff831660010362001335575060015b600954600160a060020a031660ff84166001036200135b5750600b54600160a060020a03165b60006200136a60018762002356565b905081600160a060020a03166319d1997a6040518163ffffffff1660e060020a028152600401602060405180830381865afa158015620013ae573d6000803e3d6000fd5b505050506040513d601f19601f82011682018060405250810190620013d49190620022fd565b8183600160a060020a03166318160ddd6040518163ffffffff1660e060020a028152600401602060405180830381865afa15801562001417573d6000803e3d6000fd5b505050506040513d601f19601f820116820180604052508101906200143d9190620022fd565b62001449919062002370565b1115620014c25760405160e560020a62461bcd02815260206004820152602760248201527f67616d6520746f6b656e2063616e6e6f74206d696e742072657175657374656460448201527f20616d6f756e7400000000000000000000000000000000000000000000000000606482015260840162000435565b6040517f40c10f19000000000000000000000000000000000000000000000000000000008152600160a060020a038881166004830152602482018390528316906340c10f1990604401600060405180830381600087803b1580156200152657600080fd5b505af11580156200153b573d6000803e3d6000fd5b50505050620015c9600760009054906101000a9004600160a060020a0316600160a060020a0316633fc15f156040518163ffffffff1660e060020a028152600401602060405180830381865afa1580156200159a573d6000803e3d6000fd5b505050506040513d601f19601f82011682018060405250810190620015c0919062002386565b88308962001cb8565b8560036000856002811115620015e357620015e362001dd0565b6002811115620015f757620015f762001dd0565b8152602001908152602001600020600082825462001616919062002370565b90915550506040805160e08101825260068054825282518084018452600381527f42455400000000000000000000000000000000000000000000000000000000006020828101919091528301908152928201899052426060830181905260ff891660808401523060a0840152600160a060020a038b1660c084015260058054600181018255600091909152835192027f036b6384b5eca791c62761152d0c79bb0604c104a5fb6f4eb0703f3154bb3db08101928355935190937f036b6384b5eca791c62761152d0c79bb0604c104a5fb6f4eb0703f3154bb3db10190620016fe908262002461565b506040820151600282015560608201516003820155608082015160048201805460a085015160ff90931674ffffffffffffffffffffffffffffffffffffffffff1990911617610100600160a060020a039384160217905560c0909201516005909101805473ffffffffffffffffffffffffffffffffffffffff19169190921617905560068054906000620017928362002534565b90915550506007546040517f5039eb97000000000000000000000000000000000000000000000000000000008152600160a060020a0390911690635039eb9790620017e8908b908a908c90879060040162002550565b600060405180830381600087803b1580156200180357600080fd5b505af115801562001818573d6000803e3d6000fd5b505050505050505050505050565b60048054604080517ffeaf968c00000000000000000000000000000000000000000000000000000000815290516000938493600160a060020a03169263feaf968c928183019260a0928290030181865afa15801562001889573d6000803e3d6000fd5b505050506040513d601f19601f82011682018060405250810190620018af9190620025b2565b509195945050505050565b6040517f75a02c20000000000000000000000000000000000000000000000000000000008152600c600482015260609073__IterableMapping_______________________906375a02c2090602401600060405180830381865af415801562001927573d6000803e3d6000fd5b505050506040513d6000823e601f3d908101601f19168201604052620019519190810190620026c5565b905090565b805160405160e260020a6301c2d7ad02815273__IterableMapping_______________________9163070b5eb4916200199791600c91869060040162002579565b60006040518083038186803b158015620019b057600080fd5b505af4158015620019c5573d6000803e3d6000fd5b505050507f4758bcd8e425945eea731ed13074c209c3176197b970b6a78b278ad015ae907881604051620019fa919062001fd0565b60405180910390a150565b6040517fd31c830c000000000000000000000000000000000000000000000000000000008152600c60048201526024810182905260009073__IterableMapping_______________________9063d31c830c9060440161012060405180830381865af415801562001a7a573d6000803e3d6000fd5b505050506040513d601f19601f8201168201806040525081019062001aa0919062002782565b6020015192915050565b60008160ff166001148062001ac257508160ff166002145b62001b135760405160e560020a62461bcd02815260206004820152601a60248201527f73696465206d757374206265206f6e65206f662031206f722032000000000000604482015260640162000435565b600260ff831660010362001b25575060015b6003600082600281111562001b3e5762001b3e62001dd0565b600281111562001b525762001b5262001dd0565b815260200190815260200160002054915050919050565b60606005805480602002602001604051908101604052809291908181526020016000905b8282101562001caf57838290600052602060002090600602016040518060e00160405290816000820154815260200160018201805462001bcd90620023d3565b80601f016020809104026020016040519081016040528092919081815260200182805462001bfb90620023d3565b801562001c4c5780601f1062001c205761010080835404028352916020019162001c4c565b820191906000526020600020905b81548152906001019060200180831162001c2e57829003601f168201915b5050509183525050600282015460208083019190915260038301546040830152600483015460ff81166060840152600160a060020a036101009091048116608084015260059093015490921660a090910152908252600192909201910162001b8d565b50505050905090565b6040517f23b872dd000000000000000000000000000000000000000000000000000000008152600160a060020a038481166004830152838116602483015260448201839052600091908616906323b872dd906064016020604051808303816000875af115801562001d2d573d6000803e3d6000fd5b505050506040513d601f19601f8201168201806040525081019062001d539190620023b3565b90508062001da75760405160e560020a62461bcd02815260206004820152601560248201527f546f6b656e207472616e73666572206661696c65640000000000000000000000604482015260640162000435565b5050505050565b61097880620027a383390190565b600160a060020a0391909116815260200190565b60e060020a634e487b7102600052602160045260246000fd5b6003811062001dfc5762001dfc62001dd0565b9052565b6020810162001e10828462001de9565b92915050565b60006020828403121562001e2957600080fd5b5035919050565b60006020828403121562001e4357600080fd5b81356003811062001e5357600080fd5b9392505050565b6002811062001dfc5762001dfc62001dd0565b600160a060020a038616815260a0810162001e8c602083018762001e5a565b62001e9b604083018662001de9565b6060820193909352608001529392505050565b6020810162001e10828462001e5a565b600160a060020a038116811462001ed457600080fd5b50565b803562001ee48162001ebe565b919050565b6000806000806080858703121562001f0057600080fd5b843562001f0d8162001ebe565b935060208501359250604085013562001f268162001ebe565b9396929550929360600135925050565b805182526020810151600160a060020a03808216602085015280604084015116604085015280606084015116606085015250506080810151608083015260a081015162001f8e60a0840182600160a060020a03169052565b5060c081015162001faa60c0840182600160a060020a03169052565b5060e081015160e08301526101008082015162001fca8285018215159052565b50505050565b610120810162001e10828462001f36565b803560ff8116811462001ee457600080fd5b6000806000606084860312156200200957600080fd5b8335620020168162001ebe565b9250602084013591506200202d6040850162001fe1565b90509250925092565b6020808252825182820181905260009190848201906040850190845b818110156200207d576200206883855162001f36565b92840192610120929092019160010162002052565b50909695505050505050565b60e060020a634e487b7102600052604160045260246000fd5b604051610120810167ffffffffffffffff81118282101715620020c957620020c962002089565b60405290565b604051601f8201601f1916810167ffffffffffffffff81118282101715620020fb57620020fb62002089565b604052919050565b801515811462001ed457600080fd5b803562001ee48162002103565b600061012082840312156200213357600080fd5b6200213d620020a2565b823581526200214f6020840162001ed7565b6020820152620021626040840162001ed7565b6040820152620021756060840162001ed7565b6060820152608083013560808201526200219260a0840162001ed7565b60a0820152620021a560c0840162001ed7565b60c082015260e083013560e0820152610100620021c481850162002112565b908201529392505050565b600060208284031215620021e257600080fd5b62001e538262001fe1565b6020808252825182820181905260009190604090818501908084028601830187850186805b84811015620022ee57603f198a8503018652825160e08151865289820151818b880152805180838901528592505b8083101562002261578183018c01518884016101000152918b019162002240565b61010092508583828a0101528a8401518b890152606091508184015182890152608091508184015162002298838a018260ff169052565b5060a0915081840151620022b6838a0182600160a060020a03169052565b5060c093840151600160a060020a03811689860152939150988b0198601f01601f191696909601019450509187019160010162002212565b50919998505050505050505050565b6000602082840312156200231057600080fd5b5051919050565b60e060020a634e487b7102600052601160045260246000fd5b600082620023515760e060020a634e487b7102600052601260045260246000fd5b500490565b808202811582820484141762001e105762001e1062002317565b8082018082111562001e105762001e1062002317565b6000602082840312156200239957600080fd5b815162001e538162001ebe565b805162001ee48162002103565b600060208284031215620023c657600080fd5b815162001e538162002103565b600281046001821680620023e857607f821691505b6020821081036200240c5760e060020a634e487b7102600052602260045260246000fd5b50919050565b601f8211156200245c576000818152602081206020601f860104810160208610156200243b5750805b6020601f860104820191505b8181101562000ed75782815560010162002447565b505050565b815167ffffffffffffffff8111156200247e576200247e62002089565b62002496816200248f8454620023d3565b8462002412565b602080601f831160018114620024d25760008415620024b55750858301515b60028086026008870290910a600019041982161786555062000ed7565b600085815260208120601f198616915b828110156200250357888601518255948401946001909101908401620024e2565b50858210156200252457878501516008601f88160260020a60001904191681555b5050505050600202600101905550565b60006001820162002549576200254962002317565b5060010190565b600160a060020a0394909416845260ff9290921660208401526040830152606082015260800190565b83815260208101839052610160810162000d9f604083018462001f36565b805169ffffffffffffffffffff8116811462001ee457600080fd5b600080600080600060a08688031215620025cb57600080fd5b620025d68662002597565b9450602086015193506040860151925060608601519150620025fb6080870162002597565b90509295509295909350565b805162001ee48162001ebe565b600061012082840312156200262857600080fd5b62002632620020a2565b905081518152620026466020830162002607565b6020820152620026596040830162002607565b60408201526200266c6060830162002607565b6060820152608082015160808201526200268960a0830162002607565b60a08201526200269c60c0830162002607565b60c082015260e082015160e0820152610100620026bb818401620023a6565b9082015292915050565b60006020808385031215620026d957600080fd5b825167ffffffffffffffff80821115620026f257600080fd5b818501915085601f8301126200270757600080fd5b8151818111156200271c576200271c62002089565b6200272b8485830201620020cf565b81815284810192506101209182028401850191888311156200274c57600080fd5b938501935b82851015620027765762002766898662002614565b8452938401939285019262002751565b50979650505050505050565b600061012082840312156200279657600080fd5b62001e5383836200261456fe608060405234801561001057600080fd5b5060405161097838038061097883398101604081905261002f9161020c565b6000805433600160a060020a03199182168117909255600a805461010060a860020a031916610100909302929092179091556001879055600280548216600160a060020a03888116918217909255600380548416888416908117909155600587905560078054851693871693909317909255600984905560048054909316821783556040517f70a082310000000000000000000000000000000000000000000000000000000081529283015284916370a0823190602401602060405180830381865afa158015610103573d6000803e3d6000fd5b505050506040513d601f19601f82011682018060405250810190610127919061026b565b10156101bb57604080517f08c379a00000000000000000000000000000000000000000000000000000000081526020600482015260248101919091527f706c6179657220312068617320696e73756666696369656e742062616c616e6360448201527f65206f6620746f6b656e203120746f206372656174652061206c697374696e67606482015260840160405180910390fd5b5060088054600160a060020a031916600160a060020a03929092169190911790555050600a805460ff19169055506102849050565b8051600160a060020a038116811461020757600080fd5b919050565b60008060008060008060c0878903121561022557600080fd5b86519550610235602088016101f0565b9450610243604088016101f0565b935060608701519250610258608088016101f0565b915060a087015190509295509295509295565b60006020828403121561027d57600080fd5b5051919050565b6106e5806102936000396000f3fe608060405234801561001057600080fd5b50600436106100d1576000357c010000000000000000000000000000000000000000000000000000000090048063c4e5edcd1161008e578063c4e5edcd14610176578063d21220a71461017f578063d30895e414610192578063d5488048146101a5578063d70c6703146101b8578063e2d46f98146101c157600080fd5b806302d05d3f146100d657806325be124e1461010657806358aaf0be1461011957806359a5f12d1461012c5780636f6ff4051461013f5780639405dfdd1461015f575b600080fd5b6000546100e990600160a060020a031681565b604051600160a060020a0390911681526020015b60405180910390f35b6007546100e990600160a060020a031681565b6008546100e990600160a060020a031681565b6006546100e990600160a060020a031681565b61015261014d366004610593565b6101de565b6040516100fd91906105c3565b61016860015481565b6040519081526020016100fd565b61016860095481565b6003546100e990600160a060020a031681565b6002546100e990600160a060020a031681565b6004546100e990600160a060020a031681565b61016860055481565b600a546101ce9060ff1681565b60405190151581526020016100fd565b6040805161012081018252600080825260208201819052918101829052606081018290526080810182905260a0810182905260c0810182905260e081018290526101008101919091526005546004805460025460405160e160020a636eb1769f028152600160a060020a0391821693810193909352306024840152169063dd62ed3e90604401602060405180830381865afa158015610281573d6000803e3d6000fd5b505050506040513d601f19601f820116820180604052508101906102a59190610674565b10156102fb5760405160e560020a62461bcd02815260206004820152601960248201527f546f6b656e203120616c6c6f77616e636520746f6f206c6f770000000000000060448201526064015b60405180910390fd5b60095460085460405160e160020a636eb1769f028152600160a060020a0385811660048301523060248301529091169063dd62ed3e90604401602060405180830381865afa158015610351573d6000803e3d6000fd5b505050506040513d601f19601f820116820180604052508101906103759190610674565b10156103c65760405160e560020a62461bcd02815260206004820152601960248201527f546f6b656e203220616c6c6f77616e636520746f6f206c6f770000000000000060448201526064016102f2565b6004546002546005546103e892600160a060020a0390811692169085906104a2565b60085460025460095461040b92600160a060020a039081169286929116906104a2565b506006805473ffffffffffffffffffffffffffffffffffffffff1916600160a060020a03928316908117909155600a805460ff1916600190811790915560408051610120810182528254815230602082015260025485169181019190915260035484166060820152600554608082015260a081019290925260075490921660c082015260095460e082015261010081019190915290565b6040517f23b872dd000000000000000000000000000000000000000000000000000000008152600160a060020a038481166004830152838116602483015260448201839052600091908616906323b872dd906064016020604051808303816000875af1158015610516573d6000803e3d6000fd5b505050506040513d601f19601f8201168201806040525081019061053a919061068d565b90508061058c5760405160e560020a62461bcd02815260206004820152601560248201527f546f6b656e207472616e73666572206661696c6564000000000000000000000060448201526064016102f2565b5050505050565b6000602082840312156105a557600080fd5b8135600160a060020a03811681146105bc57600080fd5b9392505050565b600061012082019050825182526020830151600160a060020a0380821660208501528060408601511660408501525050606083015161060d6060840182600160a060020a03169052565b506080830151608083015260a083015161063260a0840182600160a060020a03169052565b5060c083015161064d60c0840182600160a060020a03169052565b5060e083015160e08301526101008084015161066c8285018215159052565b505092915050565b60006020828403121561068657600080fd5b5051919050565b60006020828403121561069f57600080fd5b815180151581146105bc57600080fdfea2646970667358221220390088a1b0c1e56a66e9da22b3d155c6149f1428e5d1016c33317b095f3ab81b64736f6c63430008110033a26469706673582212201fd094b6eceec2bcb4c13e9115ca778462f6d4ff2be622c2fb3d03b9062c2b4b64736f6c6343000811003360806040523480156200001157600080fd5b506040516200154538038062001545833981016040819052620000349162000164565b60068054600160a060020a0319163317905560046200005484826200027f565b5060056200006383826200027f565b506000908155600155505060078054600160a060020a0319163317905562000351565b7f4e487b7100000000000000000000000000000000000000000000000000000000600052604160045260246000fd5b600082601f830112620000c757600080fd5b81516001604060020a0380821115620000e457620000e462000086565b604051601f8301601f19908116603f011681019082821181831017156200010f576200010f62000086565b816040528381526020925086838588010111156200012c57600080fd5b600091505b8382101562000150578582018301518183018401529082019062000131565b600093810190920192909252949350505050565b6000806000606084860312156200017a57600080fd5b83516001604060020a03808211156200019257600080fd5b620001a087838801620000b5565b94506020860151915080821115620001b757600080fd5b50620001c686828701620000b5565b925050604084015190509250925092565b600281046001821680620001ec57607f821691505b60208210810362000226577f4e487b7100000000000000000000000000000000000000000000000000000000600052602260045260246000fd5b50919050565b601f8211156200027a576000818152602081206020601f86010481016020861015620002555750805b6020601f860104820191505b81811015620002765782815560010162000261565b5050505b505050565b81516001604060020a038111156200029b576200029b62000086565b620002b381620002ac8454620001d7565b846200022c565b602080601f831160018114620002ef5760008415620002d25750858301515b60028086026008870290910a600019041982161786555062000276565b600085815260208120601f198616915b828110156200032057888601518255948401946001909101908401620002ff565b50858210156200034157878501516008601f88160260020a60001904191681555b5050505050600202600101905550565b6111e480620003616000396000f3fe608060405234801561001057600080fd5b50600436106100c35760003560e060020a9004806342966c681161008057806342966c681461015157806370a082311461016457806395d89b41146101845780639ea3c8201461018c578063a9059cbb146101ac578063dd62ed3e146101bf578063de6a8dc5146101ea57600080fd5b806306fdde03146100c8578063095ea7b3146100e657806318160ddd1461010957806319d1997a1461012057806323b872dd1461012957806340c10f191461013c575b600080fd5b6100d06101fd565b6040516100dd9190610d68565b60405180910390f35b6100f96100f4366004610dce565b61028b565b60405190151581526020016100dd565b61011260015481565b6040519081526020016100dd565b61011260005481565b6100f9610137366004610dfa565b61031a565b61014f61014a366004610dce565b6104ca565b005b61014f61015f366004610e3b565b61062a565b610112610172366004610e54565b60026020526000908152604090205481565b6100d06106c2565b61019f61019a366004610e54565b6106cf565b6040516100dd9190610e78565b6100f96101ba366004610dce565b610ae5565b6101126101cd366004610f29565b600360209081526000928352604080842090915290825290205481565b61019f6101f8366004610f62565b610bcb565b6004805461020a90610f89565b80601f016020809104026020016040519081016040528092919081815260200182805461023690610f89565b80156102835780601f1061025857610100808354040283529160200191610283565b820191906000526020600020905b81548152906001019060200180831161026657829003601f168201915b505050505081565b336000908152600260205260408120548211156102c65760405160e560020a62461bcd0281526004016102bd90610fc6565b60405180910390fd5b336000818152600360209081526040808320600160a060020a038816808552908352928190208690555185815291929160008051602061118f83398151915291015b60405180910390a35060015b92915050565b600160a060020a03831660009081526003602090815260408083203384529091528120548211156103b65760405160e560020a62461bcd02815260206004820152602f60248201527f696e73756666696369656e7420616c6c6f77616e636520746f2072656369706960448201527f656e742066726f6d2073656e646572000000000000000000000000000000000060648201526084016102bd565b600160a060020a0384166000908152600260205260409020548211156103f15760405160e560020a62461bcd0281526004016102bd90610fc6565b600160a060020a038416600090815260036020908152604080832033845290915281208054849290610424908490611016565b9091555050600160a060020a03841660009081526002602052604081208054849290610451908490611016565b9091555050600160a060020a0383166000908152600260205260408120805484929061047e908490611029565b9250508190555082600160a060020a031684600160a060020a031660008051602061116f833981519152846040516104b891815260200190565b60405180910390a35060019392505050565b600654600160a060020a031633146105275760405160e560020a62461bcd02815260206004820152600e60248201527f4e6f7420617574686f72697a656400000000000000000000000000000000000060448201526064016102bd565b600054816001546105389190611029565b11156105b1576040805160e560020a62461bcd0281526020600482015260248101919091527f63616e6e6f74206d696e74207468652072657175657374656420616d6f756e7460448201527f206f6620746f6b656e732c20737570706c79206c696d697420746f6f206c6f7760648201526084016102bd565b600160a060020a038216600090815260026020526040812080548392906105d9908490611029565b9250508190555080600160008282546105f29190611029565b9091555050604051818152600160a060020a0383169060009060008051602061116f8339815191529060200160405180910390a35050565b3360009081526002602052604090205481111561065c5760405160e560020a62461bcd0281526004016102bd90610fc6565b336000908152600260205260408120805483929061067b908490611016565b9250508190555080600160008282546106949190611016565b9091555050604051818152600090339060008051602061116f8339815191529060200160405180910390a350565b6005805461020a90610f89565b6106d7610d1c565b600082905030600160a060020a031681600160a060020a03166325be124e6040518163ffffffff1660e060020a028152600401602060405180830381865afa158015610727573d6000803e3d6000fd5b505050506040513d601f19601f8201168201806040525081019061074b919061104c565b600160a060020a0316146107a45760405160e560020a62461bcd02815260206004820181905260248201527f6c697374696e672077616e7473206120646966666572656e7420746f6b656e3260448201526064016102bd565b80600160a060020a031663c4e5edcd6040518163ffffffff1660e060020a028152600401602060405180830381865afa1580156107e5573d6000803e3d6000fd5b505050506040513d601f19601f820116820180604052508101906108099190611069565b33600090815260026020526040902054101561083a5760405160e560020a62461bcd0281526004016102bd90610fc6565b80600160a060020a031663c4e5edcd6040518163ffffffff1660e060020a028152600401602060405180830381865afa15801561087b573d6000803e3d6000fd5b505050506040513d601f19601f8201168201806040525081019061089f9190611069565b336000908152600360209081526040808320600160a060020a0388168452909152812080549091906108d2908490611029565b9250508190555082600160a060020a031633600160a060020a031660008051602061118f83398151915283600160a060020a031663c4e5edcd6040518163ffffffff1660e060020a028152600401602060405180830381865afa15801561093d573d6000803e3d6000fd5b505050506040513d601f19601f820116820180604052508101906109619190611069565b60405190815260200160405180910390a36040517f6f6ff405000000000000000000000000000000000000000000000000000000008152336004820152600090600160a060020a03831690636f6ff40590602401610120604051808303816000875af11580156109d5573d6000803e3d6000fd5b505050506040513d601f19601f820116820180604052508101906109f991906110cd565b9050600082600160a060020a03166302d05d3f6040518163ffffffff1660e060020a028152600401602060405180830381865afa158015610a3e573d6000803e3d6000fd5b505050506040513d601f19601f82011682018060405250810190610a62919061104c565b6040517fdc8046f0000000000000000000000000000000000000000000000000000000008152909150600160a060020a0382169063dc8046f090610aaa908590600401610e78565b600060405180830381600087803b158015610ac457600080fd5b505af1158015610ad8573d6000803e3d6000fd5b5093979650505050505050565b33600090815260026020526040812054821115610b175760405160e560020a62461bcd0281526004016102bd90610fc6565b3360009081526002602052604081208054849290610b36908490611016565b9091555050600160a060020a03831660009081526002602052604081208054849290610b63908490611029565b9091555050336000908152600360209081526040808320600160a060020a038716845290915281208054849290610b9b908490611016565b9091555050604051828152600160a060020a03841690339060008051602061116f83398151915290602001610308565b610bd3610d1c565b33600090815260026020526040902054841115610c055760405160e560020a62461bcd0281526004016102bd90610fc6565b6007546040517f2cd1adfe00000000000000000000000000000000000000000000000000000000815233600482015260248101869052600160a060020a038581166044830152606482018590526000921690632cd1adfe90608401610120604051808303816000875af1158015610c80573d6000803e3d6000fd5b505050506040513d601f19601f82011682018060405250810190610ca491906110cd565b602080820151336000908152600383526040808220600160a060020a038416835290935291822080549394509092889290610ce0908490611029565b9091555050604051868152600160a060020a03821690339060008051602061118f8339815191529060200160405180910390a350949350505050565b6040805161012081018252600080825260208201819052918101829052606081018290526080810182905260a0810182905260c0810182905260e0810182905261010081019190915290565b600060208083528351808285015260005b81811015610d9557858101830151858201604001528201610d79565b506000604082860101526040601f19601f8301168501019250505092915050565b600160a060020a0381168114610dcb57600080fd5b50565b60008060408385031215610de157600080fd5b8235610dec81610db6565b946020939093013593505050565b600080600060608486031215610e0f57600080fd5b8335610e1a81610db6565b92506020840135610e2a81610db6565b929592945050506040919091013590565b600060208284031215610e4d57600080fd5b5035919050565b600060208284031215610e6657600080fd5b8135610e7181610db6565b9392505050565b600061012082019050825182526020830151600160a060020a03808216602085015280604086015116604085015250506060830151610ec26060840182600160a060020a03169052565b506080830151608083015260a0830151610ee760a0840182600160a060020a03169052565b5060c0830151610f0260c0840182600160a060020a03169052565b5060e083015160e083015261010080840151610f218285018215159052565b505092915050565b60008060408385031215610f3c57600080fd5b8235610f4781610db6565b91506020830135610f5781610db6565b809150509250929050565b600080600060608486031215610f7757600080fd5b833592506020840135610e2a81610db6565b600281046001821680610f9d57607f821691505b602082108103610fc05760e060020a634e487b7102600052602260045260246000fd5b50919050565b6020808252601e908201527f696e73756666696369656e742062616c616e636520696e2073656e6465720000604082015260600190565b60e060020a634e487b7102600052601160045260246000fd5b8181038181111561031457610314610ffd565b8082018082111561031457610314610ffd565b805161104781610db6565b919050565b60006020828403121561105e57600080fd5b8151610e7181610db6565b60006020828403121561107b57600080fd5b5051919050565b604051610120810167ffffffffffffffff811182821017156110b75760e060020a634e487b7102600052604160045260246000fd5b60405290565b8051801515811461104757600080fd5b600061012082840312156110e057600080fd5b6110e8611082565b825181526110f86020840161103c565b60208201526111096040840161103c565b604082015261111a6060840161103c565b60608201526080830151608082015261113560a0840161103c565b60a082015261114660c0840161103c565b60c082015260e083015160e08201526101006111638185016110bd565b90820152939250505056feddf252ad1be2c89b69c2b068fc378daa952ba7f163c4a11628f55a4df523b3ef8c5be1e5ebec7d5bd14f71427d1e84f3dd0314c0f7b2291e5b200ac8c7c3b925a264697066735822122051fd6d576929a17b45ca244c8987bd6181fe0ff0fc31404ddcac14075bf6a23f64736f6c63430008110033",
  "immutableReferences": {},
  "source": "// SPDX-License-Identifier: MIT\npragma solidity >=0.4.22 <0.9.0;\n\nimport \"./ListingContract.sol\";\nimport \"./IListingOwner.sol\";\nimport \"./Models.sol\";\nimport \"./HwangMarket.sol\";\nimport \"./IterableMapping.sol\";\nimport \"./GameERC20Token.sol\";\nimport \"@chainlink/contracts/src/v0.8/interfaces/AggregatorV3Interface.sol\";\nimport \"@openzeppelin/contracts/token/ERC20/IERC20.sol\";\nimport \"@openzeppelin/contracts/utils/math/SafeMath.sol\";\n\ncontract GameContract is IListingOwner {\n  using SafeMath for uint256;\n  using IterableMapping for IterableMapping.ListingsMap;\n\n  enum GameStatus {\n    OPEN,\n    CLOSED\n  }\n\n  enum hasWithdrawn {\n    YES,\n    NO\n  }\n\n  enum gameSide {\n    UNKNOWN,\n    YES,\n    NO\n  }\n\n  address public creator; \n  GameStatus public status;\n  gameSide public gameOutcome;\n  uint256 public gameResolveTime;\n  int256 public threshold;\n\n  mapping(gameSide => uint256) public amtPlacedOnSide; // remember how much amount is placed on each side in terms of HMTKN\n  AggregatorV3Interface internal priceFeed;\n\n\n  // Trx types constant\n  string constant BetActivityType = \"BET\";\n  string constant WithdrawActivityType = \"WITHDRAW\";\n\n  // conversion rate from 1 HMTKN to 1 Game Token\n  uint constant mainTkn2GameTknConversionRate = 1;\n  uint constant supplyLimit = 1000;\n\n  // for every record, we track a list of transactions\n  struct Trx {\n    // Common fields\n    uint256 trxId;\n    string activityType;  // \"BET\", \"SELL\"\n    uint256 trxAmt;\n    uint256 trxTime; // when the trx was initiated\n    uint8 gameSide;\n\n    // if BET, from = game contract addr, to = player addr\n    // if SELL, from = seller addr, to = buyer addr\n    address from;\n    address to;\n  }\n  Trx[] trxs;\n  uint256 internal trxId;\n\n  HwangMarket public mainContract;\n\n  address public gameNoTokenContractAddress;\n  GameERC20Token public gameNoTokenContract;\n  address public gameYesTokenContractAddress;\n  GameERC20Token public gameYesTokenContract;\n\n  IterableMapping.ListingsMap private listingContracts;\n  uint256 public listingsCount;\n\n  event NewListing(Models.ListingInfo listingInfo);\n  event ListingFulfilled(Models.ListingInfo listingInfo);\n\n  // constructor takes in a resolve time, a oracleAddr (oracle address), and a threshold, \n  // where a gameSide of NO indicates < threshold, and a gameSide of YES indicates >= threshold\n  constructor(address _creator, uint256 resolveTime, address oracleAddr, int256 thres) {\n    creator = _creator;\n    mainContract = HwangMarket(_creator);\n    status = GameStatus.OPEN;\n    gameResolveTime = resolveTime; // set when the game is allowed to conclude\n    gameOutcome = gameSide.UNKNOWN; // explicitly set gameOutcome to undecided\n    \n    priceFeed = AggregatorV3Interface(oracleAddr);\n    threshold = thres;\n\n    // every game contract deploys 2 IERC20 token contracts\n    // yes and no tokens\n    gameNoTokenContract = new GameERC20Token(\"GameNoToken\", \"GNT\", supplyLimit);\n    gameNoTokenContractAddress = address(gameNoTokenContract);\n    gameYesTokenContract = new GameERC20Token(\"GameYesToken\", \"GYT\", supplyLimit);\n    gameYesTokenContractAddress = address(gameYesTokenContract);\n  }\n\n  // creates a new listing\n  function newListing(address _player, uint256 token1Amt, address token2, uint256 token2Amt) public returns(Models.ListingInfo memory) {\n    require(msg.sender == gameNoTokenContractAddress || msg.sender == gameYesTokenContractAddress, \"only game token can create new listings\");\n    uint256 newListingId = listingsCount;\n    ListingContract newListingContract = new ListingContract(newListingId, _player, msg.sender, token1Amt, token2, token2Amt);\n    Models.ListingInfo memory listingInfo = Models.ListingInfo({\n      listingId: newListingId,\n      listingAddr: address(newListingContract),\n      player1: _player,\n      token1: msg.sender,\n      token1Amt: token1Amt,\n      player2: address(0),\n      token2: token2,\n      token2Amt: token2Amt,\n      fulfilled: false\n    });\n    listingContracts.set(newListingId, listingInfo);\n\n    listingsCount++;\n\n    emit NewListing(listingInfo);\n    return listingInfo;\n  }\n\n  function getListingContractAddressById(uint listingId) external view returns(address) {\n    return listingContracts.get(listingId).listingAddr;\n  }\n\n  function getAllListings() external view returns (Models.ListingInfo[] memory) {\n    return listingContracts.getlistingValues();\n  }\n\n  function updateListing(Models.ListingInfo memory listingInfo) public {\n    listingContracts.set(listingInfo.listingId, listingInfo);\n\n    emit ListingFulfilled(listingInfo);\n  }\n\n  /**\n    * Returns the latest price\n    */\n  function getLatestPrice() public view returns (int) {\n      (\n          /*uint80 roundID*/,\n          int price,\n          /*uint startedAt*/,\n          /*uint timeStamp*/,\n          /*uint80 answeredInRound*/\n      ) = priceFeed.latestRoundData();\n      return price;\n  }\n\n  // to check if message sent is by creator\n  modifier isCreator(bool isEqual) {\n    if (isEqual) {\n      require(\n        creator == msg.sender,\n        \"You are not the creator of this game!\"\n      );\n    }\n    _;\n  }\n\n  // to get game information\n  function getGameInfo() \n    public \n    view \n    returns (\n      address,  // creator\n      GameStatus, // status\n      gameSide,\n      uint256,\n      int256\n  ) {\n    return (creator, status, gameOutcome, gameResolveTime, threshold);\n  }\n\n  // payable keyword should allow depositing of ethereum into smart contract\n  // allow msg.sender address to register as a player\n  function addPlayer(address _player, uint256 hwangMktTokenAmt, uint8 betSide)\n    public\n    isCreator(false) {\n      require(status == GameStatus.OPEN, \"Game is closed, no further bets accepted\");\n      require(betSide == 1 || betSide == 2, \"bet side is not recognised\");\n      require(block.timestamp <= gameResolveTime, \"cannot put bets after resolve time\");\n      require(mainContract.mainToken().allowance(_player, address(this)) >= hwangMktTokenAmt, \"player's hwang market token allowance too low\");\n      require(mainContract.mainToken().balanceOf(_player) >= hwangMktTokenAmt, \"player's hwang market token balance too low\");\n      gameSide side = gameSide.NO; // 1 - YES, 2 - NO\n      if (betSide == 1) {\n        side = gameSide.YES;\n      }\n      GameERC20Token gameTokenContract = gameNoTokenContract;\n      if (betSide == 1) {\n        gameTokenContract = gameYesTokenContract;\n      }\n      uint256 requestedMintAmt = hwangMktTokenAmt * mainTkn2GameTknConversionRate;\n      require(gameTokenContract.totalSupply() + requestedMintAmt <= gameTokenContract.supplyLimit(), \"game token cannot mint requested amount\");\n\n      // mint the respective 1-1 game token to the player\n      gameTokenContract.mint(_player, requestedMintAmt);\n      // collect the player's main token, deposit under the game address\n      _safeTransferFrom(mainContract.mainToken(), _player, address(this), hwangMktTokenAmt);\n\n      // book keeping\n      amtPlacedOnSide[side] += hwangMktTokenAmt;\n      uint256 timestamp = block.timestamp;\n      trxs.push(Trx({\n        trxId: trxId,\n        activityType: BetActivityType,\n        gameSide: betSide,\n        trxAmt: hwangMktTokenAmt,\n        trxTime: timestamp,\n        from: address(this),\n        to: _player\n      }));\n      trxId++;\n\n      mainContract.playerJoinedSide(_player, betSide, hwangMktTokenAmt, timestamp);\n    }\n\n  // for now, we return all, can consider performing pagination here\n  function getTrxs() external view returns(Trx[] memory) {\n    return trxs;\n  }\n\n  // disable any backdoor by creator\n  // // allow creator to cancel the game created.\n  // function cancelGame() public isCreator(true) {\n  //   status = GameStatus.CLOSED;\n  // }\n\n  function getSideAmt(uint8 s) public view returns (uint256) {\n    require((s == 1 || s == 2), \"side must be one of 1 or 2\");\n    gameSide side = gameSide.NO;\n    if (s == 1) {\n      side = gameSide.YES;\n    }\n\n    return amtPlacedOnSide[side];\n  }\n\n  // impt: anyone can call the contract to perform upkeep but it has a guard to protect against early resolves\n  // and it checks against a \"trusted\" oracle chainlink to fetch the result\n  function performUpkeep() public {\n    if (block.timestamp < gameResolveTime || status == GameStatus.CLOSED) {\n      return;\n    }\n\n    status = GameStatus.CLOSED;\n    gameSide side = gameSide.NO;\n    uint8 rawSide = 2;\n    if (getLatestPrice() >= threshold) {\n      side = gameSide.YES;\n      rawSide = 1;\n    }\n    gameOutcome = side;\n\n    mainContract.concludeGame(rawSide);\n  }\n\n  // allow winners to withdraw their winnings in term of HMTKN\n  function withdrawWinnings(uint withdrawAmt) public {\n    require(status == GameStatus.CLOSED, \"game is not yet closed\"); // game must be closed\n    require(gameOutcome != gameSide.UNKNOWN, \"game outcome cannot be unknown\"); // game outcome cannot be unknown\n    IERC20 gameTokenContract = gameNoTokenContract;\n    if (gameOutcome == gameSide.YES) {\n      gameTokenContract = gameYesTokenContract;\n    }\n    require(gameTokenContract.allowance(msg.sender, address(this)) >= withdrawAmt, \"player must approve withdraw amount\");\n    require(gameTokenContract.balanceOf(msg.sender) >= withdrawAmt, \"player must have game token amount to withdraw\");\n\n    // where to calculate amount of winnings\n    // calculated winnings = (player's bet amount / total bet amount on winning side) * total bet amount on losing side\n    gameSide oppSide = gameSide.NO;\n    if (gameOutcome == gameSide.NO) {\n      oppSide = gameSide.YES;\n    }\n    uint256 hwangMarketTokenAmt = (1 / mainTkn2GameTknConversionRate) * withdrawAmt;\n    uint256 winnings = ((hwangMarketTokenAmt / amtPlacedOnSide[gameOutcome]) * amtPlacedOnSide[oppSide]) + hwangMarketTokenAmt;\n\n    // initiate transfer of hwang market tokens from game to player\n    mainContract.mainToken().transfer(msg.sender, winnings);\n    // initiate transfer of game token from player back to game\n    _safeTransferFrom(gameTokenContract, msg.sender, address(this), withdrawAmt);\n\n    uint8 betSide = 2;\n    if (gameOutcome == gameSide.YES) {\n      betSide = 1;\n    }\n    uint256 timestamp = block.timestamp;\n    trxs.push(Trx({\n      trxId: trxId,\n      activityType: WithdrawActivityType,\n      gameSide: betSide,\n      trxAmt: winnings,\n      trxTime: timestamp,\n      from: address(this),\n      to: msg.sender\n    }));\n    trxId++;\n    mainContract.playerWithdrawWinnings(msg.sender, betSide, winnings, timestamp);\n  }\n\n  // function playerAddListing(address _player, )\n\n  // to get smart contract's balance\n  function getBalance() public view returns (uint256) {\n    return address(this).balance;\n  }\n\n  function _safeTransferFrom(\n    IERC20 token,\n    address sender,\n    address recipient,\n    uint amount\n    ) private {\n      bool sent = token.transferFrom(sender, recipient, amount);\n      require(sent, \"Token transfer failed\");\n    }\n}\n",
  "sourcePath": "/Users/gerald/Desktop/HwangMarket/contracts/GameContract.sol",
  "compiler": {
    "name": "solc",
    "version": "0.8.17+commit.8df45f5f.Emscripten.clang"
  },
  "schemaVersion": "3.4.10",
  "updatedAt": "2022-11-02T10:05:19.252Z",
  "devdoc": {
    "kind": "dev",
    "methods": {},
    "version": 1
  },
  "userdoc": {
    "kind": "user",
    "methods": {
      "getLatestPrice()": {
        "notice": "Returns the latest price"
      }
    },
    "version": 1
  }
}