{
  "contractName": "GameContract",
  "abi": [
    {
      "inputs": [
        {
          "internalType": "address",
          "name": "_creator",
          "type": "address"
        },
        {
          "internalType": "uint256",
          "name": "resolveTime",
          "type": "uint256"
        },
        {
          "internalType": "address",
          "name": "oracleAddr",
          "type": "address"
        },
        {
          "internalType": "int256",
          "name": "thres",
          "type": "int256"
        }
      ],
      "stateMutability": "nonpayable",
      "type": "constructor"
    },
    {
      "inputs": [
        {
          "internalType": "enum GameContract.gameSide",
          "name": "",
          "type": "uint8"
        }
      ],
      "name": "amtPlacedOnSide",
      "outputs": [
        {
          "internalType": "uint256",
          "name": "",
          "type": "uint256"
        }
      ],
      "stateMutability": "view",
      "type": "function"
    },
    {
      "inputs": [],
      "name": "creator",
      "outputs": [
        {
          "internalType": "address",
          "name": "",
          "type": "address"
        }
      ],
      "stateMutability": "view",
      "type": "function"
    },
    {
      "inputs": [],
      "name": "gameNoTokenContract",
      "outputs": [
        {
          "internalType": "contract GameERC20Token",
          "name": "",
          "type": "address"
        }
      ],
      "stateMutability": "view",
      "type": "function"
    },
    {
      "inputs": [],
      "name": "gameNoTokenContractAddress",
      "outputs": [
        {
          "internalType": "address",
          "name": "",
          "type": "address"
        }
      ],
      "stateMutability": "view",
      "type": "function"
    },
    {
      "inputs": [],
      "name": "gameOutcome",
      "outputs": [
        {
          "internalType": "enum GameContract.gameSide",
          "name": "",
          "type": "uint8"
        }
      ],
      "stateMutability": "view",
      "type": "function"
    },
    {
      "inputs": [],
      "name": "gameResolveTime",
      "outputs": [
        {
          "internalType": "uint256",
          "name": "",
          "type": "uint256"
        }
      ],
      "stateMutability": "view",
      "type": "function"
    },
    {
      "inputs": [],
      "name": "gameYesTokenContract",
      "outputs": [
        {
          "internalType": "contract GameERC20Token",
          "name": "",
          "type": "address"
        }
      ],
      "stateMutability": "view",
      "type": "function"
    },
    {
      "inputs": [],
      "name": "gameYesTokenContractAddress",
      "outputs": [
        {
          "internalType": "address",
          "name": "",
          "type": "address"
        }
      ],
      "stateMutability": "view",
      "type": "function"
    },
    {
      "inputs": [],
      "name": "listingsCount",
      "outputs": [
        {
          "internalType": "uint256",
          "name": "",
          "type": "uint256"
        }
      ],
      "stateMutability": "view",
      "type": "function"
    },
    {
      "inputs": [],
      "name": "mainContract",
      "outputs": [
        {
          "internalType": "contract HwangMarket",
          "name": "",
          "type": "address"
        }
      ],
      "stateMutability": "view",
      "type": "function"
    },
    {
      "inputs": [],
      "name": "status",
      "outputs": [
        {
          "internalType": "enum GameContract.GameStatus",
          "name": "",
          "type": "uint8"
        }
      ],
      "stateMutability": "view",
      "type": "function"
    },
    {
      "inputs": [],
      "name": "threshold",
      "outputs": [
        {
          "internalType": "int256",
          "name": "",
          "type": "int256"
        }
      ],
      "stateMutability": "view",
      "type": "function"
    },
    {
      "inputs": [
        {
          "internalType": "address",
          "name": "_player",
          "type": "address"
        },
        {
          "internalType": "address",
          "name": "token1",
          "type": "address"
        },
        {
          "internalType": "uint256",
          "name": "token1Amt",
          "type": "uint256"
        },
        {
          "internalType": "address",
          "name": "token2",
          "type": "address"
        },
        {
          "internalType": "uint256",
          "name": "token2Amt",
          "type": "uint256"
        }
      ],
      "name": "newListing",
      "outputs": [
        {
          "components": [
            {
              "internalType": "uint256",
              "name": "listingId",
              "type": "uint256"
            },
            {
              "internalType": "address",
              "name": "listingAddr",
              "type": "address"
            },
            {
              "internalType": "address",
              "name": "player1",
              "type": "address"
            },
            {
              "internalType": "address",
              "name": "token1",
              "type": "address"
            },
            {
              "internalType": "uint256",
              "name": "token1Amt",
              "type": "uint256"
            },
            {
              "internalType": "address",
              "name": "player2",
              "type": "address"
            },
            {
              "internalType": "address",
              "name": "token2",
              "type": "address"
            },
            {
              "internalType": "uint256",
              "name": "token2Amt",
              "type": "uint256"
            },
            {
              "internalType": "bool",
              "name": "fulfilled",
              "type": "bool"
            }
          ],
          "internalType": "struct Models.ListingInfo",
          "name": "",
          "type": "tuple"
        }
      ],
      "stateMutability": "nonpayable",
      "type": "function"
    },
    {
      "inputs": [
        {
          "internalType": "uint256",
          "name": "listingId",
          "type": "uint256"
        }
      ],
      "name": "getListingContractAddressById",
      "outputs": [
        {
          "internalType": "address",
          "name": "",
          "type": "address"
        }
      ],
      "stateMutability": "view",
      "type": "function"
    },
    {
      "inputs": [],
      "name": "getAllListings",
      "outputs": [
        {
          "components": [
            {
              "internalType": "uint256",
              "name": "listingId",
              "type": "uint256"
            },
            {
              "internalType": "address",
              "name": "listingAddr",
              "type": "address"
            },
            {
              "internalType": "address",
              "name": "player1",
              "type": "address"
            },
            {
              "internalType": "address",
              "name": "token1",
              "type": "address"
            },
            {
              "internalType": "uint256",
              "name": "token1Amt",
              "type": "uint256"
            },
            {
              "internalType": "address",
              "name": "player2",
              "type": "address"
            },
            {
              "internalType": "address",
              "name": "token2",
              "type": "address"
            },
            {
              "internalType": "uint256",
              "name": "token2Amt",
              "type": "uint256"
            },
            {
              "internalType": "bool",
              "name": "fulfilled",
              "type": "bool"
            }
          ],
          "internalType": "struct Models.ListingInfo[]",
          "name": "",
          "type": "tuple[]"
        }
      ],
      "stateMutability": "view",
      "type": "function"
    },
    {
      "inputs": [
        {
          "internalType": "address",
          "name": "_player",
          "type": "address"
        },
        {
          "internalType": "uint256",
          "name": "listingId",
          "type": "uint256"
        }
      ],
      "name": "partakeInListing",
      "outputs": [],
      "stateMutability": "nonpayable",
      "type": "function"
    },
    {
      "inputs": [],
      "name": "getLatestPrice",
      "outputs": [
        {
          "internalType": "int256",
          "name": "",
          "type": "int256"
        }
      ],
      "stateMutability": "view",
      "type": "function"
    },
    {
      "inputs": [],
      "name": "getGameInfo",
      "outputs": [
        {
          "internalType": "address",
          "name": "",
          "type": "address"
        },
        {
          "internalType": "enum GameContract.GameStatus",
          "name": "",
          "type": "uint8"
        },
        {
          "internalType": "enum GameContract.gameSide",
          "name": "",
          "type": "uint8"
        },
        {
          "internalType": "uint256",
          "name": "",
          "type": "uint256"
        },
        {
          "internalType": "int256",
          "name": "",
          "type": "int256"
        }
      ],
      "stateMutability": "view",
      "type": "function"
    },
    {
      "inputs": [
        {
          "internalType": "address",
          "name": "_player",
          "type": "address"
        },
        {
          "internalType": "uint256",
          "name": "hwangMktTokenAmt",
          "type": "uint256"
        },
        {
          "internalType": "uint8",
          "name": "betSide",
          "type": "uint8"
        }
      ],
      "name": "addPlayer",
      "outputs": [],
      "stateMutability": "nonpayable",
      "type": "function"
    },
    {
      "inputs": [],
      "name": "getTrxs",
      "outputs": [
        {
          "components": [
            {
              "internalType": "uint256",
              "name": "trxId",
              "type": "uint256"
            },
            {
              "internalType": "string",
              "name": "activityType",
              "type": "string"
            },
            {
              "internalType": "uint256",
              "name": "trxAmt",
              "type": "uint256"
            },
            {
              "internalType": "uint256",
              "name": "trxTime",
              "type": "uint256"
            },
            {
              "internalType": "uint8",
              "name": "gameSide",
              "type": "uint8"
            },
            {
              "internalType": "address",
              "name": "from",
              "type": "address"
            },
            {
              "internalType": "address",
              "name": "to",
              "type": "address"
            }
          ],
          "internalType": "struct GameContract.Trx[]",
          "name": "",
          "type": "tuple[]"
        }
      ],
      "stateMutability": "view",
      "type": "function"
    },
    {
      "inputs": [
        {
          "internalType": "uint8",
          "name": "s",
          "type": "uint8"
        }
      ],
      "name": "getSideAmt",
      "outputs": [
        {
          "internalType": "uint256",
          "name": "",
          "type": "uint256"
        }
      ],
      "stateMutability": "view",
      "type": "function"
    },
    {
      "inputs": [],
      "name": "performUpkeep",
      "outputs": [],
      "stateMutability": "nonpayable",
      "type": "function"
    },
    {
      "inputs": [
        {
          "internalType": "address",
          "name": "_player",
          "type": "address"
        },
        {
          "internalType": "uint256",
          "name": "withdrawAmt",
          "type": "uint256"
        }
      ],
      "name": "withdrawWinnings",
      "outputs": [],
      "stateMutability": "nonpayable",
      "type": "function"
    },
    {
      "inputs": [],
      "name": "getBalance",
      "outputs": [
        {
          "internalType": "uint256",
          "name": "",
          "type": "uint256"
        }
      ],
      "stateMutability": "view",
      "type": "function"
    }
  ],
  "bytecode": "0x60806040523480156200001157600080fd5b5060405162004c8238038062004c8283398101604081905262000034916200024f565b6000805460078054600160a060020a03888116600160a060020a031992831681179093556001889055600160b060020a03199093169091179092556004805490921690841617905560028190556040516103e890620000939062000224565b6060808252600b908201527f47616d654e6f546f6b656e000000000000000000000000000000000000000000608082015260a0602082018190526003908201527f474e54000000000000000000000000000000000000000000000000000000000060c0820152604081019190915260e001604051809103906000f08015801562000121573d6000803e3d6000fd5b5060098054600160a060020a0392909216600160a060020a03199283168117909155600880549092161790556040516103e8906200015f9062000224565b6060808252600c908201527f47616d65596573546f6b656e0000000000000000000000000000000000000000608082015260a0602082018190526003908201527f475954000000000000000000000000000000000000000000000000000000000060c0820152604081019190915260e001604051809103906000f080158015620001ed573d6000803e3d6000fd5b50600b8054600160a060020a0392909216600160a060020a03199283168117909155600a8054909216179055506200029892505050565b6115ca80620036b883390190565b8051600160a060020a03811681146200024a57600080fd5b919050565b600080600080608085870312156200026657600080fd5b620002718562000232565b935060208501519250620002886040860162000232565b6060959095015193969295505050565b61341080620002a86000396000f3fe60806040523480156200001157600080fd5b5060043610620001785760003560e060020a900480637256eba411620000d7578063d6875f95116200008a578063d6875f95146200033e578063dc7dbf3e1462000352578063e07056af1462000378578063e2cb747d146200038f578063f91c2cbc14620003a6578063f92a9e0914620003bf57600080fd5b80637256eba414620002c8578063846c6f4f14620002df5780638e15f47314620002f35780638f09cc8b14620002fd578063ae73ccec1462000311578063d270e7ab146200032a57600080fd5b80631746bd1b11620001305780631746bd1b1462000237578063200d2ed2146200027257806341ef10c8146200029657806342cde4e814620002aa57806346b1df0414620002b45780636e4d243a14620002be57600080fd5b8062ef52de146200017d57806302d05d3f1462000196578063053a2cfb14620001c75780630b66c67814620001eb57806312065fe014620002025780631486d6111462000214575b600080fd5b620001946200018e366004620020e3565b620003c9565b005b600054620001aa90600160a060020a031681565b604051600160a060020a0390911681526020015b60405180910390f35b600054620001dc9060a860020a900460ff1681565b604051620001be919062002142565b62000194620001fc366004620020e3565b620005e9565b30315b604051908152602001620001be565b620002056200022536600462002158565b60036020526000908152604090205481565b600054600154600254604051620001be93600160a060020a0381169360ff60a060020a830481169460a860020a909304169290919062002195565b600054620002879060a060020a900460ff1681565b604051620001be9190620021d6565b600854620001aa90600160a060020a031681565b6200020560025481565b6200020560115481565b6200019462000e97565b62000194620002d9366004620021fd565b62001062565b600a54620001aa90600160a060020a031681565b6200020562001a30565b600954620001aa90600160a060020a031681565b6200031b62001ac4565b604051620001be9190620022da565b600754620001aa90600160a060020a031681565b600b54620001aa90600160a060020a031681565b62000369620003633660046200232d565b62001b60565b604051620001be91906200238f565b620001aa62000389366004620023a0565b62001d1a565b62000205620003a0366004620023ba565b62001dbf565b620003b062001e7e565b604051620001be9190620023d8565b6200020560015481565b6040517f7e3bf307000000000000000000000000000000000000000000000000000000008152600c60048201526024810182905273__IterableMapping_______________________90637e3bf30790604401602060405180830381865af41580156200043a573d6000803e3d6000fd5b505050506040513d601f19601f82011682018060405250810190620004609190620024f9565b620004b55760405160e560020a62461bcd02815260206004820152601f60248201527f6c697374696e6720636f6e747261637420646f6573206e6f742065786973740060448201526064015b60405180910390fd5b6040517fd31c830c000000000000000000000000000000000000000000000000000000008152600c60048201526024810182905260009073__IterableMapping_______________________9063d31c830c9060440161012060405180830381865af41580156200052a573d6000803e3d6000fd5b505050506040513d601f19601f820116820180604052508101906200055091906200264f565b602001516040517f6f6ff405000000000000000000000000000000000000000000000000000000008152600160a060020a0385811660048301529192508291821690636f6ff40590602401610120604051808303816000875af1158015620005bc573d6000803e3d6000fd5b505050506040513d601f19601f82011682018060405250810190620005e291906200264f565b5050505050565b33600160a060020a038316146200066c5760405160e560020a62461bcd02815260206004820152602160248201527f63616e6e6f74207769746864726177206f6e20736f6d656f6e6520626568616c60448201527f66000000000000000000000000000000000000000000000000000000000000006064820152608401620004ac565b600160005460a060020a900460ff1660018111156200068f576200068f62002112565b14620006e15760405160e560020a62461bcd02815260206004820152601660248201527f67616d65206973206e6f742079657420636c6f736564000000000000000000006044820152606401620004ac565b6000805460a860020a900460ff16600281111562000703576200070362002112565b03620007555760405160e560020a62461bcd02815260206004820152601e60248201527f67616d65206f7574636f6d652063616e6e6f7420626520756e6b6e6f776e00006044820152606401620004ac565b600954600160a060020a0316600160005460a860020a900460ff16600281111562000784576200078462002112565b03620007985750600b54600160a060020a03165b6040517fdd62ed3e000000000000000000000000000000000000000000000000000000008152600160a060020a03848116600483015230602483015283919083169063dd62ed3e90604401602060405180830381865afa15801562000801573d6000803e3d6000fd5b505050506040513d601f19601f820116820180604052508101906200082791906200266f565b1015620008a05760405160e560020a62461bcd02815260206004820152602360248201527f706c61796572206d75737420617070726f766520776974686472617720616d6f60448201527f756e7400000000000000000000000000000000000000000000000000000000006064820152608401620004ac565b6040517f70a08231000000000000000000000000000000000000000000000000000000008152600160a060020a0384811660048301528391908316906370a0823190602401602060405180830381865afa15801562000903573d6000803e3d6000fd5b505050506040513d601f19601f820116820180604052508101906200092991906200266f565b1015620009a25760405160e560020a62461bcd02815260206004820152602e60248201527f706c61796572206d75737420686176652067616d6520746f6b656e20616d6f7560448201527f6e7420746f2077697468647261770000000000000000000000000000000000006064820152608401620004ac565b60028060005460a860020a900460ff166002811115620009c657620009c662002112565b03620009d0575060015b600083620009e0600180620026a2565b620009ec9190620026c8565b90506000816003600085600281111562000a0a5762000a0a62002112565b600281111562000a1e5762000a1e62002112565b815260200190815260200160002054600360008060159054906101000a900460ff16600281111562000a545762000a5462002112565b600281111562000a685762000a6862002112565b8152602001908152602001600020548462000a849190620026a2565b62000a909190620026c8565b62000a9c9190620026e2565b9050600760009054906101000a9004600160a060020a0316600160a060020a0316633fc15f156040518163ffffffff1660e060020a028152600401602060405180830381865afa15801562000af5573d6000803e3d6000fd5b505050506040513d601f19601f8201168201806040525081019062000b1b9190620026f8565b6040517f095ea7b3000000000000000000000000000000000000000000000000000000008152600160a060020a03888116600483015260248201849052919091169063095ea7b3906044016020604051808303816000875af115801562000b86573d6000803e3d6000fd5b505050506040513d601f19601f8201168201806040525081019062000bac9190620024f9565b50600754604080517f3fc15f15000000000000000000000000000000000000000000000000000000008152905162000c4292600160a060020a031691633fc15f159160048083019260209291908290030181865afa15801562000c13573d6000803e3d6000fd5b505050506040513d601f19601f8201168201806040525081019062000c399190620026f8565b30888462001fcd565b62000c508487308862001fcd565b6002600160005460a860020a900460ff16600281111562000c755762000c7562002112565b0362000c7f575060015b6040805160e08101825260068054825282518084018452600881527f57495448445241570000000000000000000000000000000000000000000000006020828101919091528301908152928201859052426060830181905260ff851660808401523060a0840152600160a060020a038b1660c084015260058054600181018255600091909152835192027f036b6384b5eca791c62761152d0c79bb0604c104a5fb6f4eb0703f3154bb3db08101928355935190937f036b6384b5eca791c62761152d0c79bb0604c104a5fb6f4eb0703f3154bb3db1019062000d629082620027a6565b506040820151600282015560608201516003820155608082015160048201805460a085015160ff90931674ffffffffffffffffffffffffffffffffffffffffff1990911617610100600160a060020a039384160217905560c0909201516005909101805473ffffffffffffffffffffffffffffffffffffffff1916919092161790556006805490600062000df68362002879565b90915550506007546040517f79769488000000000000000000000000000000000000000000000000000000008152600160a060020a038a8116600483015260ff851660248301526044820186905260648201849052909116906379769488906084015b600060405180830381600087803b15801562000e7457600080fd5b505af115801562000e89573d6000803e3d6000fd5b505050505050505050505050565b60015442101562000eee5760405160e560020a62461bcd02815260206004820181905260248201527f67616d65206973206e6f7420726561647920746f206265207265736f6c7665646044820152606401620004ac565b600160005460a060020a900460ff16600181111562000f115762000f1162002112565b0362000f635760405160e560020a62461bcd02815260206004820152601660248201527f67616d6520697320616c726561647920636c6f736564000000000000000000006044820152606401620004ac565b6000805474ff0000000000000000000000000000000000000000191660a060020a17905560028054819062000f9762001a30565b1262000fa4575060019050805b6000805483919075ff000000000000000000000000000000000000000000191660a860020a83600281111562000fde5762000fde62002112565b02179055506007546040517fe362937d00000000000000000000000000000000000000000000000000000000815260ff83166004820152600160a060020a039091169063e362937d90602401600060405180830381600087803b1580156200104557600080fd5b505af11580156200105a573d6000803e3d6000fd5b505050505050565b6000600160a060020a0384163314620010c15760405160e560020a62461bcd02815260206004820152601360248201527f496e76616c6964205472616e73616374696f6e000000000000000000000000006044820152606401620004ac565b6000805460a060020a900460ff166001811115620010e357620010e362002112565b146200115b5760405160e560020a62461bcd02815260206004820152602860248201527f47616d6520697320636c6f7365642c206e6f206675727468657220626574732060448201527f61636365707465640000000000000000000000000000000000000000000000006064820152608401620004ac565b8160ff16600114806200117157508160ff166002145b620011c25760405160e560020a62461bcd02815260206004820152601a60248201527f6265742073696465206973206e6f74207265636f676e697365640000000000006044820152606401620004ac565b6001544211156200123f5760405160e560020a62461bcd02815260206004820152602260248201527f63616e6e6f74207075742062657473206166746572207265736f6c766520746960448201527f6d650000000000000000000000000000000000000000000000000000000000006064820152608401620004ac565b600754604080517f3fc15f1500000000000000000000000000000000000000000000000000000000815290518592600160a060020a031691633fc15f159160048083019260209291908290030181865afa158015620012a2573d6000803e3d6000fd5b505050506040513d601f19601f82011682018060405250810190620012c89190620026f8565b6040517fdd62ed3e000000000000000000000000000000000000000000000000000000008152600160a060020a038781166004830152306024830152919091169063dd62ed3e90604401602060405180830381865afa15801562001330573d6000803e3d6000fd5b505050506040513d601f19601f820116820180604052508101906200135691906200266f565b1015620013cf5760405160e560020a62461bcd02815260206004820152602d60248201527f706c617965722773206877616e67206d61726b657420746f6b656e20616c6c6f60448201527f77616e636520746f6f206c6f77000000000000000000000000000000000000006064820152608401620004ac565b600754604080517f3fc15f1500000000000000000000000000000000000000000000000000000000815290518592600160a060020a031691633fc15f159160048083019260209291908290030181865afa15801562001432573d6000803e3d6000fd5b505050506040513d601f19601f82011682018060405250810190620014589190620026f8565b6040517f70a08231000000000000000000000000000000000000000000000000000000008152600160a060020a03878116600483015291909116906370a0823190602401602060405180830381865afa158015620014ba573d6000803e3d6000fd5b505050506040513d601f19601f82011682018060405250810190620014e091906200266f565b1015620015595760405160e560020a62461bcd02815260206004820152602b60248201527f706c617965722773206877616e67206d61726b657420746f6b656e2062616c6160448201527f6e636520746f6f206c6f770000000000000000000000000000000000000000006064820152608401620004ac565b600260ff83166001036200156b575060015b600954600160a060020a031660ff8416600103620015915750600b54600160a060020a03165b6000620015a0600187620026c8565b905081600160a060020a03166319d1997a6040518163ffffffff1660e060020a028152600401602060405180830381865afa158015620015e4573d6000803e3d6000fd5b505050506040513d601f19601f820116820180604052508101906200160a91906200266f565b8183600160a060020a03166318160ddd6040518163ffffffff1660e060020a028152600401602060405180830381865afa1580156200164d573d6000803e3d6000fd5b505050506040513d601f19601f820116820180604052508101906200167391906200266f565b6200167f9190620026e2565b1115620016f85760405160e560020a62461bcd02815260206004820152602760248201527f67616d6520746f6b656e2063616e6e6f74206d696e742072657175657374656460448201527f20616d6f756e74000000000000000000000000000000000000000000000000006064820152608401620004ac565b6040517f40c10f19000000000000000000000000000000000000000000000000000000008152600160a060020a038881166004830152602482018390528316906340c10f1990604401600060405180830381600087803b1580156200175c57600080fd5b505af115801562001771573d6000803e3d6000fd5b50505050620017ff600760009054906101000a9004600160a060020a0316600160a060020a0316633fc15f156040518163ffffffff1660e060020a028152600401602060405180830381865afa158015620017d0573d6000803e3d6000fd5b505050506040513d601f19601f82011682018060405250810190620017f69190620026f8565b88308962001fcd565b856003600085600281111562001819576200181962002112565b60028111156200182d576200182d62002112565b815260200190815260200160002060008282546200184c9190620026e2565b90915550506040805160e08101825260068054825282518084018452600381527f42455400000000000000000000000000000000000000000000000000000000006020828101919091528301908152928201899052426060830181905260ff891660808401523060a0840152600160a060020a038b1660c084015260058054600181018255600091909152835192027f036b6384b5eca791c62761152d0c79bb0604c104a5fb6f4eb0703f3154bb3db08101928355935190937f036b6384b5eca791c62761152d0c79bb0604c104a5fb6f4eb0703f3154bb3db10190620019349082620027a6565b506040820151600282015560608201516003820155608082015160048201805460a085015160ff90931674ffffffffffffffffffffffffffffffffffffffffff1990911617610100600160a060020a039384160217905560c0909201516005909101805473ffffffffffffffffffffffffffffffffffffffff19169190921617905560068054906000620019c88362002879565b90915550506007546040517f5039eb97000000000000000000000000000000000000000000000000000000008152600160a060020a038a8116600483015260ff89166024830152604482018a90526064820184905290911690635039eb979060840162000e59565b60048054604080517ffeaf968c00000000000000000000000000000000000000000000000000000000815290516000938493600160a060020a03169263feaf968c928183019260a0928290030181865afa15801562001a93573d6000803e3d6000fd5b505050506040513d601f19601f8201168201806040525081019062001ab99190620028b0565b509195945050505050565b6040517f75a02c20000000000000000000000000000000000000000000000000000000008152600c600482015260609073__IterableMapping_______________________906375a02c2090602401600060405180830381865af415801562001b31573d6000803e3d6000fd5b505050506040513d6000823e601f3d908101601f1916820160405262001b5b919081019062002905565b905090565b6040805161012081018252600080825260208201819052918101829052606081018290526080810182905260a0810182905260c0810182905260e0810182905261010081019190915260006011549050600081888888888860405162001bc690620020bc565b958652600160a060020a03948516602087015292841660408601526060850191909152909116608083015260a082015260c001604051809103906000f08015801562001c16573d6000803e3d6000fd5b506040805161012081018252848152600160a060020a0380841660208301528b8116828401528a81166060830152608082018a9052600060a0830181905290891660c083015260e0820188905261010082015290517f070b5eb40000000000000000000000000000000000000000000000000000000081529192509073__IterableMapping_______________________9063070b5eb49062001cc390600c9087908690600401620029c2565b60006040518083038186803b15801562001cdc57600080fd5b505af415801562001cf1573d6000803e3d6000fd5b50506011805492509050600062001d088362002879565b90915550909998505050505050505050565b6040517fd31c830c000000000000000000000000000000000000000000000000000000008152600c60048201526024810182905260009073__IterableMapping_______________________9063d31c830c9060440161012060405180830381865af415801562001d8f573d6000803e3d6000fd5b505050506040513d601f19601f8201168201806040525081019062001db591906200264f565b6020015192915050565b60008160ff166001148062001dd757508160ff166002145b62001e285760405160e560020a62461bcd02815260206004820152601a60248201527f73696465206d757374206265206f6e65206f662031206f7220320000000000006044820152606401620004ac565b600260ff831660010362001e3a575060015b6003600082600281111562001e535762001e5362002112565b600281111562001e675762001e6762002112565b815260200190815260200160002054915050919050565b60606005805480602002602001604051908101604052809291908181526020016000905b8282101562001fc457838290600052602060002090600602016040518060e00160405290816000820154815260200160018201805462001ee29062002718565b80601f016020809104026020016040519081016040528092919081815260200182805462001f109062002718565b801562001f615780601f1062001f355761010080835404028352916020019162001f61565b820191906000526020600020905b81548152906001019060200180831162001f4357829003601f168201915b5050509183525050600282015460208083019190915260038301546040830152600483015460ff81166060840152600160a060020a036101009091048116608084015260059093015490921660a090910152908252600192909201910162001ea2565b50505050905090565b6040517f23b872dd000000000000000000000000000000000000000000000000000000008152600160a060020a038481166004830152838116602483015260448201839052600091908616906323b872dd906064016020604051808303816000875af115801562002042573d6000803e3d6000fd5b505050506040513d601f19601f82011682018060405250810190620020689190620024f9565b905080620005e25760405160e560020a62461bcd02815260206004820152601560248201527f546f6b656e207472616e73666572206661696c656400000000000000000000006044820152606401620004ac565b6109f280620029e983390190565b600160a060020a0381168114620020e057600080fd5b50565b60008060408385031215620020f757600080fd5b82356200210481620020ca565b946020939093013593505050565b60e060020a634e487b7102600052602160045260246000fd5b600381106200213e576200213e62002112565b9052565b602081016200215282846200212b565b92915050565b6000602082840312156200216b57600080fd5b8135600381106200217b57600080fd5b9392505050565b600281106200213e576200213e62002112565b600160a060020a038616815260a08101620021b4602083018762002182565b620021c360408301866200212b565b6060820193909352608001529392505050565b6020810162002152828462002182565b803560ff81168114620021f857600080fd5b919050565b6000806000606084860312156200221357600080fd5b83356200222081620020ca565b9250602084013591506200223760408501620021e6565b90509250925092565b805182526020810151600160a060020a03808216602085015280604084015116604085015280606084015116606085015250506080810151608083015260a08101516200229860a0840182600160a060020a03169052565b5060c0810151620022b460c0840182600160a060020a03169052565b5060e081015160e083015261010080820151620022d48285018215159052565b50505050565b6020808252825182820181905260009190848201906040850190845b8181101562002321576200230c83855162002240565b928401926101209290920191600101620022f6565b50909695505050505050565b600080600080600060a086880312156200234657600080fd5b85356200235381620020ca565b945060208601356200236581620020ca565b93506040860135925060608601356200237e81620020ca565b949793965091946080013592915050565b610120810162002152828462002240565b600060208284031215620023b357600080fd5b5035919050565b600060208284031215620023cd57600080fd5b6200217b82620021e6565b6020808252825182820181905260009190604090818501908084028601830187850186805b84811015620024d957603f198a8503018652825160e08151865289820151818b880152805180838901528592505b808310156200244c578183018c01518884016101000152918b01916200242b565b61010092508583828a0101528a8401518b890152606091508184015182890152608091508184015162002483838a018260ff169052565b5060a0915081840151620024a1838a0182600160a060020a03169052565b5060c093840151600160a060020a03811689860152939150988b0198601f01601f1916969096010194505091870191600101620023fd565b50919998505050505050505050565b80518015158114620021f857600080fd5b6000602082840312156200250c57600080fd5b6200217b82620024e8565b60e060020a634e487b7102600052604160045260246000fd5b604051610120810167ffffffffffffffff8111828210171562002557576200255762002517565b60405290565b604051601f8201601f1916810167ffffffffffffffff8111828210171562002589576200258962002517565b604052919050565b8051620021f881620020ca565b60006101208284031215620025b257600080fd5b620025bc62002530565b905081518152620025d06020830162002591565b6020820152620025e36040830162002591565b6040820152620025f66060830162002591565b6060820152608082015160808201526200261360a0830162002591565b60a08201526200262660c0830162002591565b60c082015260e082015160e082015261010062002645818401620024e8565b9082015292915050565b600061012082840312156200266357600080fd5b6200217b83836200259e565b6000602082840312156200268257600080fd5b5051919050565b60e060020a634e487b7102600052601160045260246000fd5b600082620026c35760e060020a634e487b7102600052601260045260246000fd5b500490565b808202811582820484141762002152576200215262002689565b8082018082111562002152576200215262002689565b6000602082840312156200270b57600080fd5b81516200217b81620020ca565b6002810460018216806200272d57607f821691505b602082108103620027515760e060020a634e487b7102600052602260045260246000fd5b50919050565b601f821115620027a1576000818152602081206020601f86010481016020861015620027805750805b6020601f860104820191505b818110156200105a578281556001016200278c565b505050565b815167ffffffffffffffff811115620027c357620027c362002517565b620027db81620027d4845462002718565b8462002757565b602080601f831160018114620028175760008415620027fa5750858301515b60028086026008870290910a60001904198216178655506200105a565b600085815260208120601f198616915b82811015620028485788860151825594840194600190910190840162002827565b50858210156200286957878501516008601f88160260020a60001904191681555b5050505050600202600101905550565b6000600182016200288e576200288e62002689565b5060010190565b805169ffffffffffffffffffff81168114620021f857600080fd5b600080600080600060a08688031215620028c957600080fd5b620028d48662002895565b9450602086015193506040860151925060608601519150620028f96080870162002895565b90509295509295909350565b600060208083850312156200291957600080fd5b825167ffffffffffffffff808211156200293257600080fd5b818501915085601f8301126200294757600080fd5b8151818111156200295c576200295c62002517565b6200296b84858302016200255d565b81815284810192506101209182028401850191888311156200298c57600080fd5b938501935b82851015620029b657620029a689866200259e565b8452938401939285019262002991565b50979650505050505050565b838152602081018390526101608101620029e0604083018462002240565b94935050505056fe608060405234801561001057600080fd5b506040516109f23803806109f283398101604081905261002f9161020c565b6000805433600160a060020a03199182168117909255600a805461010060a860020a031916610100909302929092179091556001879055600280548216600160a060020a03888116918217909255600380548416888416908117909155600587905560078054851693871693909317909255600984905560048054909316821783556040517f70a082310000000000000000000000000000000000000000000000000000000081529283015284916370a0823190602401602060405180830381865afa158015610103573d6000803e3d6000fd5b505050506040513d601f19601f82011682018060405250810190610127919061026b565b10156101bb57604080517f08c379a00000000000000000000000000000000000000000000000000000000081526020600482015260248101919091527f706c6179657220312068617320696e73756666696369656e742062616c616e6360448201527f65206f6620746f6b656e203120746f206372656174652061206c697374696e67606482015260840160405180910390fd5b5060088054600160a060020a031916600160a060020a03929092169190911790555050600a805460ff19169055506102849050565b8051600160a060020a038116811461020757600080fd5b919050565b60008060008060008060c0878903121561022557600080fd5b86519550610235602088016101f0565b9450610243604088016101f0565b935060608701519250610258608088016101f0565b915060a087015190509295509295509295565b60006020828403121561027d57600080fd5b5051919050565b61075f806102936000396000f3fe608060405234801561001057600080fd5b50600436106100d1576000357c010000000000000000000000000000000000000000000000000000000090048063c4e5edcd1161008e578063c4e5edcd14610176578063d21220a71461017f578063d30895e414610192578063d5488048146101a5578063d70c6703146101b8578063e2d46f98146101c157600080fd5b806302d05d3f146100d657806325be124e1461010657806358aaf0be1461011957806359a5f12d1461012c5780636f6ff4051461013f5780639405dfdd1461015f575b600080fd5b6000546100e990600160a060020a031681565b604051600160a060020a0390911681526020015b60405180910390f35b6007546100e990600160a060020a031681565b6008546100e990600160a060020a031681565b6006546100e990600160a060020a031681565b61015261014d36600461060d565b6101de565b6040516100fd919061063d565b61016860015481565b6040519081526020016100fd565b61016860095481565b6003546100e990600160a060020a031681565b6002546100e990600160a060020a031681565b6004546100e990600160a060020a031681565b61016860055481565b600a546101ce9060ff1681565b60405190151581526020016100fd565b6040805161012081018252600080825260208201819052918101829052606081018290526080810182905260a0810182905260c0810182905260e08101829052610100810191909152600554600480546002546040517fdd62ed3e000000000000000000000000000000000000000000000000000000008152600160a060020a0391821693810193909352306024840152169063dd62ed3e90604401602060405180830381865afa158015610297573d6000803e3d6000fd5b505050506040513d601f19601f820116820180604052508101906102bb91906106ee565b1015610328576040517f08c379a000000000000000000000000000000000000000000000000000000000815260206004820152601960248201527f546f6b656e203120616c6c6f77616e636520746f6f206c6f770000000000000060448201526064015b60405180910390fd5b6009546008546006546040517fdd62ed3e000000000000000000000000000000000000000000000000000000008152600160a060020a03918216600482015230602482015291169063dd62ed3e90604401602060405180830381865afa158015610396573d6000803e3d6000fd5b505050506040513d601f19601f820116820180604052508101906103ba91906106ee565b1015610422576040517f08c379a000000000000000000000000000000000000000000000000000000000815260206004820152601960248201527f546f6b656e203220616c6c6f77616e636520746f6f206c6f7700000000000000604482015260640161031f565b60045460025460065460055461044893600160a060020a03908116938116921690610505565b60085460065460025460095461046e93600160a060020a03908116938116921690610505565b506006805473ffffffffffffffffffffffffffffffffffffffff1916600160a060020a03928316908117909155600a805460ff1916600190811790915560408051610120810182528254815230602082015260025485169181019190915260035484166060820152600554608082015260a081019290925260075490921660c082015260095460e082015261010081019190915290565b6040517f23b872dd000000000000000000000000000000000000000000000000000000008152600160a060020a038481166004830152838116602483015260448201839052600091908616906323b872dd906064016020604051808303816000875af1158015610579573d6000803e3d6000fd5b505050506040513d601f19601f8201168201806040525081019061059d9190610707565b905080610606576040517f08c379a000000000000000000000000000000000000000000000000000000000815260206004820152601560248201527f546f6b656e207472616e73666572206661696c65640000000000000000000000604482015260640161031f565b5050505050565b60006020828403121561061f57600080fd5b8135600160a060020a038116811461063657600080fd5b9392505050565b600061012082019050825182526020830151600160a060020a038082166020850152806040860151166040850152505060608301516106876060840182600160a060020a03169052565b506080830151608083015260a08301516106ac60a0840182600160a060020a03169052565b5060c08301516106c760c0840182600160a060020a03169052565b5060e083015160e0830152610100808401516106e68285018215159052565b505092915050565b60006020828403121561070057600080fd5b5051919050565b60006020828403121561071957600080fd5b8151801515811461063657600080fdfea2646970667358221220d6b876ce93eea6db2df760cc15f2d4b2b96a7f2648afc507c225884e3341a51664736f6c63430008110033a264697066735822122058acf1c6f6ea343bf5eabe476a3b5e62b5f6bd6b472d00bb77c66d7031b2042b64736f6c6343000811003360806040523480156200001157600080fd5b50604051620015ca380380620015ca833981016040819052620000349162000164565b60068054600160a060020a0319163317905560046200005484826200027f565b5060056200006383826200027f565b506000908155600155505060078054600160a060020a0319163317905562000351565b7f4e487b7100000000000000000000000000000000000000000000000000000000600052604160045260246000fd5b600082601f830112620000c757600080fd5b81516001604060020a0380821115620000e457620000e462000086565b604051601f8301601f19908116603f011681019082821181831017156200010f576200010f62000086565b816040528381526020925086838588010111156200012c57600080fd5b600091505b8382101562000150578582018301518183018401529082019062000131565b600093810190920192909252949350505050565b6000806000606084860312156200017a57600080fd5b83516001604060020a03808211156200019257600080fd5b620001a087838801620000b5565b94506020860151915080821115620001b757600080fd5b50620001c686828701620000b5565b925050604084015190509250925092565b600281046001821680620001ec57607f821691505b60208210810362000226577f4e487b7100000000000000000000000000000000000000000000000000000000600052602260045260246000fd5b50919050565b601f8211156200027a576000818152602081206020601f86010481016020861015620002555750805b6020601f860104820191505b81811015620002765782815560010162000261565b5050505b505050565b81516001604060020a038111156200029b576200029b62000086565b620002b381620002ac8454620001d7565b846200022c565b602080601f831160018114620002ef5760008415620002d25750858301515b60028086026008870290910a600019041982161786555062000276565b600085815260208120601f198616915b828110156200032057888601518255948401946001909101908401620002ff565b50858210156200034157878501516008601f88160260020a60001904191681555b5050505050600202600101905550565b61126980620003616000396000f3fe608060405234801561001057600080fd5b50600436106100d35760003560e060020a9004806340c10f191161009057806395d89b411161006a57806395d89b41146101a75780639ea3c820146101af578063a9059cbb146101cf578063dd62ed3e146101e257600080fd5b806340c10f191461015f57806342966c681461017457806370a082311461018757600080fd5b806306fdde03146100d8578063095ea7b3146100f657806318160ddd1461011957806319d1997a1461013057806321e382591461013957806323b872dd1461014c575b600080fd5b6100e061020d565b6040516100ed9190610daa565b60405180910390f35b610109610104366004610e10565b61029b565b60405190151581526020016100ed565b61012260015481565b6040519081526020016100ed565b61012260005481565b610109610147366004610e3c565b610359565b61010961015a366004610e84565b610552565b61017261016d366004610e10565b610702565b005b610172610182366004610ec5565b610862565b610122610195366004610ede565b60026020526000908152604090205481565b6100e06108fa565b6101c26101bd366004610ede565b610907565b6040516100ed9190610f02565b6101096101dd366004610e10565b610cc4565b6101226101f0366004610fb3565b600360209081526000928352604080842090915290825290205481565b6004805461021a90610fec565b80601f016020809104026020016040519081016040528092919081815260200182805461024690610fec565b80156102935780601f1061026857610100808354040283529160200191610293565b820191906000526020600020905b81548152906001019060200180831161027657829003601f168201915b505050505081565b336000908152600260205260408120548211156102d65760405160e560020a62461bcd0281526004016102cd9061103f565b60405180910390fd5b336000908152600360209081526040808320600160a060020a0387168452909152812080548492906103099084906110a5565b9091555050604051828152600160a060020a0384169033907f8c5be1e5ebec7d5bd14f71427d1e84f3dd0314c0f7b2291e5b200ac8c7c3b925906020015b60405180910390a35060015b92915050565b3360009081526002602052604081205484111561038b5760405160e560020a62461bcd0281526004016102cd9061103f565b600160a060020a03851630146103e65760405160e560020a62461bcd02815260206004820152601560248201527f746f6b656e206d75737420626520746f6b656e2031000000000000000000000060448201526064016102cd565b6007546040517fdc7dbf3e000000000000000000000000000000000000000000000000000000008152336004820152600160a060020a03878116602483015260448201879052858116606483015260848201859052600092169063dc7dbf3e9060a401610120604051808303816000875af1158015610469573d6000803e3d6000fd5b505050506040513d601f19601f8201168201806040525081019061048d9190611129565b602080820151336000908152600383526040808220600160a060020a0384168352909352918220805493945090928892906104c99084906110a5565b9091555050604051868152600160a060020a0382169033907f8c5be1e5ebec7d5bd14f71427d1e84f3dd0314c0f7b2291e5b200ac8c7c3b9259060200160405180910390a37fd1fe3704bd3aa4f4974d5168e39528bbb86b19e98e5f798beea49af58df301398260405161053d9190610f02565b60405180910390a15060019695505050505050565b600160a060020a03831660009081526003602090815260408083203384529091528120548211156105ee5760405160e560020a62461bcd02815260206004820152602f60248201527f696e73756666696369656e7420616c6c6f77616e636520746f2072656369706960448201527f656e742066726f6d2073656e646572000000000000000000000000000000000060648201526084016102cd565b600160a060020a0384166000908152600260205260409020548211156106295760405160e560020a62461bcd0281526004016102cd9061103f565b600160a060020a03841660009081526003602090815260408083203384529091528120805484929061065c9084906111ca565b9091555050600160a060020a038416600090815260026020526040812080548492906106899084906111ca565b9091555050600160a060020a038316600090815260026020526040812080548492906106b69084906110a5565b9250508190555082600160a060020a031684600160a060020a0316600080516020611214833981519152846040516106f091815260200190565b60405180910390a35060019392505050565b600654600160a060020a0316331461075f5760405160e560020a62461bcd02815260206004820152600e60248201527f4e6f7420617574686f72697a656400000000000000000000000000000000000060448201526064016102cd565b6000548160015461077091906110a5565b11156107e9576040805160e560020a62461bcd0281526020600482015260248101919091527f63616e6e6f74206d696e74207468652072657175657374656420616d6f756e7460448201527f206f6620746f6b656e732c20737570706c79206c696d697420746f6f206c6f7760648201526084016102cd565b600160a060020a038216600090815260026020526040812080548392906108119084906110a5565b92505081905550806001600082825461082a91906110a5565b9091555050604051818152600160a060020a038316906000906000805160206112148339815191529060200160405180910390a35050565b336000908152600260205260409020548111156108945760405160e560020a62461bcd0281526004016102cd9061103f565b33600090815260026020526040812080548392906108b39084906111ca565b9250508190555080600160008282546108cc91906111ca565b909155505060405181815260009033906000805160206112148339815191529060200160405180910390a350565b6005805461021a90610fec565b6040805161012081018252600080825260208201819052918101829052606081018290526080810182905260a0810182905260c0810182905260e08101829052610100810191909152600082905030600160a060020a031681600160a060020a03166325be124e6040518163ffffffff1660e060020a028152600401602060405180830381865afa1580156109a0573d6000803e3d6000fd5b505050506040513d601f19601f820116820180604052508101906109c491906111dd565b600160a060020a031614610a1d5760405160e560020a62461bcd02815260206004820181905260248201527f6c697374696e672077616e7473206120646966666572656e7420746f6b656e3260448201526064016102cd565b80600160a060020a031663c4e5edcd6040518163ffffffff1660e060020a028152600401602060405180830381865afa158015610a5e573d6000803e3d6000fd5b505050506040513d601f19601f82011682018060405250810190610a8291906111fa565b336000908152600260205260409020541015610ab35760405160e560020a62461bcd0281526004016102cd9061103f565b80600160a060020a031663c4e5edcd6040518163ffffffff1660e060020a028152600401602060405180830381865afa158015610af4573d6000803e3d6000fd5b505050506040513d601f19601f82011682018060405250810190610b1891906111fa565b336000908152600360209081526040808320600160a060020a038816845290915281208054909190610b4b9084906110a5565b9250508190555082600160a060020a031633600160a060020a03167f8c5be1e5ebec7d5bd14f71427d1e84f3dd0314c0f7b2291e5b200ac8c7c3b92583600160a060020a031663c4e5edcd6040518163ffffffff1660e060020a028152600401602060405180830381865afa158015610bc8573d6000803e3d6000fd5b505050506040513d601f19601f82011682018060405250810190610bec91906111fa565b60405190815260200160405180910390a36040517f6f6ff405000000000000000000000000000000000000000000000000000000008152336004820152600090600160a060020a03831690636f6ff40590602401610120604051808303816000875af1158015610c60573d6000803e3d6000fd5b505050506040513d601f19601f82011682018060405250810190610c849190611129565b90507f4758bcd8e425945eea731ed13074c209c3176197b970b6a78b278ad015ae907881604051610cb59190610f02565b60405180910390a19392505050565b33600090815260026020526040812054821115610cf65760405160e560020a62461bcd0281526004016102cd9061103f565b3360009081526002602052604081208054849290610d159084906111ca565b9091555050600160a060020a03831660009081526002602052604081208054849290610d429084906110a5565b9091555050336000908152600360209081526040808320600160a060020a038716845290915281208054849290610d7a9084906111ca565b9091555050604051828152600160a060020a03841690339060008051602061121483398151915290602001610347565b600060208083528351808285015260005b81811015610dd757858101830151858201604001528201610dbb565b506000604082860101526040601f19601f8301168501019250505092915050565b600160a060020a0381168114610e0d57600080fd5b50565b60008060408385031215610e2357600080fd5b8235610e2e81610df8565b946020939093013593505050565b60008060008060808587031215610e5257600080fd5b8435610e5d81610df8565b9350602085013592506040850135610e7481610df8565b9396929550929360600135925050565b600080600060608486031215610e9957600080fd5b8335610ea481610df8565b92506020840135610eb481610df8565b929592945050506040919091013590565b600060208284031215610ed757600080fd5b5035919050565b600060208284031215610ef057600080fd5b8135610efb81610df8565b9392505050565b600061012082019050825182526020830151600160a060020a03808216602085015280604086015116604085015250506060830151610f4c6060840182600160a060020a03169052565b506080830151608083015260a0830151610f7160a0840182600160a060020a03169052565b5060c0830151610f8c60c0840182600160a060020a03169052565b5060e083015160e083015261010080840151610fab8285018215159052565b505092915050565b60008060408385031215610fc657600080fd5b8235610fd181610df8565b91506020830135610fe181610df8565b809150509250929050565b60028104600182168061100057607f821691505b602082108103611039577f4e487b7100000000000000000000000000000000000000000000000000000000600052602260045260246000fd5b50919050565b6020808252601e908201527f696e73756666696369656e742062616c616e636520696e2073656e6465720000604082015260600190565b7f4e487b7100000000000000000000000000000000000000000000000000000000600052601160045260246000fd5b8082018082111561035357610353611076565b604051610120810167ffffffffffffffff81118282101715611103577f4e487b7100000000000000000000000000000000000000000000000000000000600052604160045260246000fd5b60405290565b805161111481610df8565b919050565b8051801515811461111457600080fd5b6000610120828403121561113c57600080fd5b6111446110b8565b8251815261115460208401611109565b602082015261116560408401611109565b604082015261117660608401611109565b60608201526080830151608082015261119160a08401611109565b60a08201526111a260c08401611109565b60c082015260e083015160e08201526101006111bf818501611119565b908201529392505050565b8181038181111561035357610353611076565b6000602082840312156111ef57600080fd5b8151610efb81610df8565b60006020828403121561120c57600080fd5b505191905056feddf252ad1be2c89b69c2b068fc378daa952ba7f163c4a11628f55a4df523b3efa2646970667358221220a1aff72c1f2b81c6540dc4dc77b1a1f4f8ba77a9576023ea01aedf3ab497e49464736f6c63430008110033",
  "immutableReferences": {},
  "source": "// SPDX-License-Identifier: MIT\npragma solidity >=0.4.22 <0.9.0;\n\nimport \"./ListingContract.sol\";\nimport \"./Models.sol\";\nimport \"./HwangMarket.sol\";\nimport \"./IterableMapping.sol\";\nimport \"./GameERC20Token.sol\";\nimport \"@chainlink/contracts/src/v0.8/interfaces/AggregatorV3Interface.sol\";\nimport \"@openzeppelin/contracts/token/ERC20/IERC20.sol\";\n\ncontract GameContract {\n  using IterableMapping for IterableMapping.ListingsMap;\n\n  enum GameStatus {\n    OPEN,\n    CLOSED\n  }\n\n  enum hasWithdrawn {\n    YES,\n    NO\n  }\n\n  enum gameSide {\n    UNKNOWN,\n    YES,\n    NO\n  }\n\n  address public creator; \n  GameStatus public status;\n  gameSide public gameOutcome;\n  uint256 public gameResolveTime;\n  int256 public threshold;\n\n  mapping(gameSide => uint256) public amtPlacedOnSide; // remember how much amount is placed on each side in terms of HMTKN\n  AggregatorV3Interface internal priceFeed;\n\n\n  // Trx types constant\n  string constant BetActivityType = \"BET\";\n  string constant WithdrawActivityType = \"WITHDRAW\";\n  string constant SellActivityType = \"SELL\";\n\n  // conversion rate from 1 HMTKN to 1 Game Token\n  uint constant mainTkn2GameTknConversionRate = 1;\n  uint constant supplyLimit = 1000;\n\n  // for every record, we track a list of transactions\n  struct Trx {\n    // Common fields\n    uint256 trxId;\n    string activityType;  // \"BET\", \"SELL\"\n    uint256 trxAmt;\n    uint256 trxTime; // when the trx was initiated\n    uint8 gameSide;\n\n    // if BET, from = game contract addr, to = player addr\n    // if SELL, from = seller addr, to = buyer addr\n    address from;\n    address to;\n  }\n  Trx[] trxs;\n  uint256 internal trxId;\n\n  HwangMarket public mainContract;\n\n  address public gameNoTokenContractAddress;\n  GameERC20Token public gameNoTokenContract;\n  address public gameYesTokenContractAddress;\n  GameERC20Token public gameYesTokenContract;\n\n  IterableMapping.ListingsMap private listingContracts;\n  uint256 public listingsCount;\n\n  // constructor takes in a resolve time, a oracleAddr (oracle address), and a threshold, \n  // where a gameSide of NO indicates < threshold, and a gameSide of YES indicates >= threshold\n  constructor(address _creator, uint256 resolveTime, address oracleAddr, int256 thres) {\n    creator = _creator;\n    mainContract = HwangMarket(_creator);\n    status = GameStatus.OPEN;\n    gameResolveTime = resolveTime; // set when the game is allowed to conclude\n    gameOutcome = gameSide.UNKNOWN; // explicitly set gameOutcome to undecided\n    \n    priceFeed = AggregatorV3Interface(oracleAddr);\n    threshold = thres;\n\n    // every game contract deploys 2 IERC20 token contracts\n    // yes and no tokens\n    gameNoTokenContract = new GameERC20Token(\"GameNoToken\", \"GNT\", supplyLimit);\n    gameNoTokenContractAddress = address(gameNoTokenContract);\n    gameYesTokenContract = new GameERC20Token(\"GameYesToken\", \"GYT\", supplyLimit);\n    gameYesTokenContractAddress = address(gameYesTokenContract);\n  }\n\n  // creates a new listing\n  function newListing(address _player, address token1, uint256 token1Amt, address token2, uint256 token2Amt) public returns(Models.ListingInfo memory) {\n    uint256 newListingId = listingsCount;\n    ListingContract newListingContract = new ListingContract(newListingId, _player, token1, token1Amt, token2, token2Amt);\n    Models.ListingInfo memory listingInfo = Models.ListingInfo({\n      listingId: newListingId,\n      listingAddr: address(newListingContract),\n      player1: _player,\n      token1: token1,\n      token1Amt: token1Amt,\n      player2: address(0),\n      token2: token2,\n      token2Amt: token2Amt,\n      fulfilled: false\n    });\n    listingContracts.set(newListingId, listingInfo);\n\n    listingsCount++;\n    return listingInfo;\n  }\n\n  function getListingContractAddressById(uint listingId) external view returns(address) {\n    return listingContracts.get(listingId).listingAddr;\n  }\n\n  function getAllListings() external view returns (Models.ListingInfo[] memory) {\n    return listingContracts.getlistingValues();\n  }\n\n  // player joins an existing listing already posted by another player\n  // this player joining now is regarded as player2 under the listing contract\n  function partakeInListing(address _player, uint listingId) public {\n    require(listingContracts.contains(listingId), \"listing contract does not exist\");\n    address listingAddr = listingContracts.get(listingId).listingAddr;\n    ListingContract token2Contract = ListingContract(listingAddr);\n    token2Contract.trigger(_player);\n  }\n\n  /**\n    * Returns the latest price\n    */\n  function getLatestPrice() public view returns (int) {\n      (\n          /*uint80 roundID*/,\n          int price,\n          /*uint startedAt*/,\n          /*uint timeStamp*/,\n          /*uint80 answeredInRound*/\n      ) = priceFeed.latestRoundData();\n      return price;\n  }\n\n  // to check if message sent is by creator\n  modifier isCreator(bool isEqual) {\n    if (isEqual) {\n      require(\n        creator == msg.sender,\n        \"You are not the creator of this game!\"\n      );\n    }\n    _;\n  }\n\n  // to get game information\n  function getGameInfo() \n    public \n    view \n    returns (\n      address,  // creator\n      GameStatus, // status\n      gameSide,\n      uint256,\n      int256\n  ) {\n    return (creator, status, gameOutcome, gameResolveTime, threshold);\n  }\n\n  // payable keyword should allow depositing of ethereum into smart contract\n  // allow msg.sender address to register as a player\n  function addPlayer(address _player, uint256 hwangMktTokenAmt, uint8 betSide)\n    public\n    isCreator(false) {\n      require(_player == msg.sender, \"Invalid Transaction\");\n      require(status == GameStatus.OPEN, \"Game is closed, no further bets accepted\");\n      require(betSide == 1 || betSide == 2, \"bet side is not recognised\");\n      require(block.timestamp <= gameResolveTime, \"cannot put bets after resolve time\");\n      require(mainContract.mainToken().allowance(_player, address(this)) >= hwangMktTokenAmt, \"player's hwang market token allowance too low\");\n      require(mainContract.mainToken().balanceOf(_player) >= hwangMktTokenAmt, \"player's hwang market token balance too low\");\n      gameSide side = gameSide.NO; // 1 - YES, 2 - NO\n      if (betSide == 1) {\n        side = gameSide.YES;\n      }\n      GameERC20Token gameTokenContract = gameNoTokenContract;\n      if (betSide == 1) {\n        gameTokenContract = gameYesTokenContract;\n      }\n      uint256 requestedMintAmt = hwangMktTokenAmt * mainTkn2GameTknConversionRate;\n      require(gameTokenContract.totalSupply() + requestedMintAmt <= gameTokenContract.supplyLimit(), \"game token cannot mint requested amount\");\n\n      // mint the respective 1-1 game token to the player\n      gameTokenContract.mint(_player, requestedMintAmt);\n      // collect the player's main token, deposit under the game address\n      _safeTransferFrom(mainContract.mainToken(), _player, address(this), hwangMktTokenAmt);\n\n      // book keeping\n      amtPlacedOnSide[side] += hwangMktTokenAmt;\n      uint256 timestamp = block.timestamp;\n      trxs.push(Trx({\n        trxId: trxId,\n        activityType: BetActivityType,\n        gameSide: betSide,\n        trxAmt: hwangMktTokenAmt,\n        trxTime: timestamp,\n        from: address(this),\n        to: _player\n      }));\n      trxId++;\n\n      mainContract.playerJoinedSide(_player, betSide, hwangMktTokenAmt, timestamp);\n    }\n\n  // for now, we return all, can consider performing pagination here\n  function getTrxs() external view returns(Trx[] memory) {\n    return trxs;\n  }\n\n  // disable any backdoor by creator\n  // // allow creator to cancel the game created.\n  // function cancelGame() public isCreator(true) {\n  //   status = GameStatus.CLOSED;\n  // }\n\n  function getSideAmt(uint8 s) public view returns (uint256) {\n    require((s == 1 || s == 2), \"side must be one of 1 or 2\");\n    gameSide side = gameSide.NO;\n    if (s == 1) {\n      side = gameSide.YES;\n    }\n\n    return amtPlacedOnSide[side];\n  }\n\n  // impt: anyone can call the contract to perform upkeep but it has a guard to protect against early resolves\n  // and it checks against a \"trusted\" oracle chainlink to fetch the result\n  function performUpkeep() public {\n    require(block.timestamp >= gameResolveTime, \"game is not ready to be resolved\");\n    require(status != GameStatus.CLOSED, \"game is already closed\");\n\n    status = GameStatus.CLOSED;\n    gameSide side = gameSide.NO;\n    uint8 rawSide = 2;\n    if (getLatestPrice() >= threshold) {\n      side = gameSide.YES;\n      rawSide = 1;\n    }\n    gameOutcome = side;\n\n    mainContract.concludeGame(rawSide);\n  }\n\n  // allow winners to withdraw their winnings in term of HMTKN\n  function withdrawWinnings(address _player, uint withdrawAmt) public {\n    require(msg.sender == _player, \"cannot withdraw on someone behalf\"); //restrict only winner can withdraw his/her own winnings\n    require(status == GameStatus.CLOSED, \"game is not yet closed\"); // game must be closed\n    require(gameOutcome != gameSide.UNKNOWN, \"game outcome cannot be unknown\"); // game outcome cannot be unknown\n    IERC20 gameTokenContract = gameNoTokenContract;\n    if (gameOutcome == gameSide.YES) {\n      gameTokenContract = gameYesTokenContract;\n    }\n    require(gameTokenContract.allowance(_player, address(this)) >= withdrawAmt, \"player must approve withdraw amount\");\n    require(gameTokenContract.balanceOf(_player) >= withdrawAmt, \"player must have game token amount to withdraw\");\n\n    // where to calculate amount of winnings\n    // calculated winnings = (player's bet amount / total bet amount on winning side) * total bet amount on losing side\n    gameSide oppSide = gameSide.NO;\n    if (gameOutcome == gameSide.NO) {\n      oppSide = gameSide.YES;\n    }\n    uint256 hwangMarketTokenAmt = (1 / mainTkn2GameTknConversionRate) * withdrawAmt;\n    uint256 winnings = ((hwangMarketTokenAmt / amtPlacedOnSide[gameOutcome]) * amtPlacedOnSide[oppSide]) + hwangMarketTokenAmt;\n    \n    // game now approves hwangmarket token winnings transfer to player\n    mainContract.mainToken().approve(_player, winnings);\n\n    // initiate transfer of hwang market tokens from game to player\n    _safeTransferFrom(mainContract.mainToken(), address(this), _player, winnings);\n    // initiate transfer of game token from player back to game\n    _safeTransferFrom(gameTokenContract, _player, address(this), withdrawAmt);\n\n    uint8 betSide = 2;\n    if (gameOutcome == gameSide.YES) {\n      betSide = 1;\n    }\n    uint256 timestamp = block.timestamp;\n    trxs.push(Trx({\n      trxId: trxId,\n      activityType: WithdrawActivityType,\n      gameSide: betSide,\n      trxAmt: winnings,\n      trxTime: timestamp,\n      from: address(this),\n      to: _player\n    }));\n    trxId++;\n    mainContract.playerWithdrawWinnings(_player, betSide, winnings, timestamp);\n  }\n\n  // function playerAddListing(address _player, )\n\n  // to get smart contract's balance\n  function getBalance() public view returns (uint256) {\n    return address(this).balance;\n  }\n\n  function _safeTransferFrom(\n    IERC20 token,\n    address sender,\n    address recipient,\n    uint amount\n    ) private {\n      bool sent = token.transferFrom(sender, recipient, amount);\n      require(sent, \"Token transfer failed\");\n    }\n}\n",
  "sourcePath": "/Users/gerald/Desktop/HwangMarket/contracts/GameContract.sol",
  "compiler": {
    "name": "solc",
    "version": "0.8.17+commit.8df45f5f.Emscripten.clang"
  },
  "schemaVersion": "3.4.10",
  "updatedAt": "2022-10-24T17:02:23.580Z",
  "devdoc": {
    "kind": "dev",
    "methods": {},
    "version": 1
  },
  "userdoc": {
    "kind": "user",
    "methods": {
      "getLatestPrice()": {
        "notice": "Returns the latest price"
      }
    },
    "version": 1
  }
}