{
  "contractName": "GameContract",
  "abi": [
    {
      "inputs": [
        {
          "internalType": "address payable",
          "name": "_creator",
          "type": "address"
        },
        {
          "internalType": "uint256",
          "name": "resolveTime",
          "type": "uint256"
        },
        {
          "internalType": "address",
          "name": "oracleAddr",
          "type": "address"
        },
        {
          "internalType": "int256",
          "name": "thres",
          "type": "int256"
        }
      ],
      "stateMutability": "nonpayable",
      "type": "constructor"
    },
    {
      "inputs": [
        {
          "internalType": "enum GameContract.gameSide",
          "name": "",
          "type": "uint8"
        }
      ],
      "name": "amtPlacedOnSide",
      "outputs": [
        {
          "internalType": "uint256",
          "name": "",
          "type": "uint256"
        }
      ],
      "stateMutability": "view",
      "type": "function"
    },
    {
      "inputs": [],
      "name": "creator",
      "outputs": [
        {
          "internalType": "address",
          "name": "",
          "type": "address"
        }
      ],
      "stateMutability": "view",
      "type": "function"
    },
    {
      "inputs": [],
      "name": "gameNoTokenContract",
      "outputs": [
        {
          "internalType": "contract GameERC20Token",
          "name": "",
          "type": "address"
        }
      ],
      "stateMutability": "view",
      "type": "function"
    },
    {
      "inputs": [],
      "name": "gameNoTokenContractAddress",
      "outputs": [
        {
          "internalType": "address",
          "name": "",
          "type": "address"
        }
      ],
      "stateMutability": "view",
      "type": "function"
    },
    {
      "inputs": [],
      "name": "gameOutcome",
      "outputs": [
        {
          "internalType": "enum GameContract.gameSide",
          "name": "",
          "type": "uint8"
        }
      ],
      "stateMutability": "view",
      "type": "function"
    },
    {
      "inputs": [],
      "name": "gameResolveTime",
      "outputs": [
        {
          "internalType": "uint256",
          "name": "",
          "type": "uint256"
        }
      ],
      "stateMutability": "view",
      "type": "function"
    },
    {
      "inputs": [],
      "name": "gameYesTokenContract",
      "outputs": [
        {
          "internalType": "contract GameERC20Token",
          "name": "",
          "type": "address"
        }
      ],
      "stateMutability": "view",
      "type": "function"
    },
    {
      "inputs": [],
      "name": "gameYesTokenContractAddress",
      "outputs": [
        {
          "internalType": "address",
          "name": "",
          "type": "address"
        }
      ],
      "stateMutability": "view",
      "type": "function"
    },
    {
      "inputs": [],
      "name": "listingContractsCount",
      "outputs": [
        {
          "internalType": "uint256",
          "name": "",
          "type": "uint256"
        }
      ],
      "stateMutability": "view",
      "type": "function"
    },
    {
      "inputs": [],
      "name": "mainContract",
      "outputs": [
        {
          "internalType": "contract HwangMarket",
          "name": "",
          "type": "address"
        }
      ],
      "stateMutability": "view",
      "type": "function"
    },
    {
      "inputs": [],
      "name": "status",
      "outputs": [
        {
          "internalType": "enum GameContract.GameStatus",
          "name": "",
          "type": "uint8"
        }
      ],
      "stateMutability": "view",
      "type": "function"
    },
    {
      "inputs": [],
      "name": "threshold",
      "outputs": [
        {
          "internalType": "int256",
          "name": "",
          "type": "int256"
        }
      ],
      "stateMutability": "view",
      "type": "function"
    },
    {
      "stateMutability": "payable",
      "type": "receive"
    },
    {
      "inputs": [],
      "name": "getLatestPrice",
      "outputs": [
        {
          "internalType": "int256",
          "name": "",
          "type": "int256"
        }
      ],
      "stateMutability": "view",
      "type": "function"
    },
    {
      "inputs": [],
      "name": "getGameInfo",
      "outputs": [
        {
          "internalType": "address",
          "name": "",
          "type": "address"
        },
        {
          "internalType": "enum GameContract.GameStatus",
          "name": "",
          "type": "uint8"
        },
        {
          "internalType": "enum GameContract.gameSide",
          "name": "",
          "type": "uint8"
        },
        {
          "internalType": "uint256",
          "name": "",
          "type": "uint256"
        },
        {
          "internalType": "int256",
          "name": "",
          "type": "int256"
        }
      ],
      "stateMutability": "view",
      "type": "function"
    },
    {
      "inputs": [
        {
          "internalType": "address",
          "name": "_player",
          "type": "address"
        },
        {
          "internalType": "uint256",
          "name": "hwangMktTokenAmt",
          "type": "uint256"
        },
        {
          "internalType": "uint8",
          "name": "betSide",
          "type": "uint8"
        }
      ],
      "name": "addPlayer",
      "outputs": [],
      "stateMutability": "nonpayable",
      "type": "function"
    },
    {
      "inputs": [],
      "name": "getTrxs",
      "outputs": [
        {
          "components": [
            {
              "internalType": "uint256",
              "name": "trxId",
              "type": "uint256"
            },
            {
              "internalType": "string",
              "name": "activityType",
              "type": "string"
            },
            {
              "internalType": "uint256",
              "name": "trxAmt",
              "type": "uint256"
            },
            {
              "internalType": "uint256",
              "name": "trxTime",
              "type": "uint256"
            },
            {
              "internalType": "uint8",
              "name": "gameSide",
              "type": "uint8"
            },
            {
              "internalType": "address",
              "name": "from",
              "type": "address"
            },
            {
              "internalType": "address",
              "name": "to",
              "type": "address"
            }
          ],
          "internalType": "struct GameContract.Trx[]",
          "name": "",
          "type": "tuple[]"
        }
      ],
      "stateMutability": "view",
      "type": "function"
    },
    {
      "inputs": [
        {
          "internalType": "uint8",
          "name": "s",
          "type": "uint8"
        }
      ],
      "name": "getSideAmt",
      "outputs": [
        {
          "internalType": "uint256",
          "name": "",
          "type": "uint256"
        }
      ],
      "stateMutability": "view",
      "type": "function"
    },
    {
      "inputs": [],
      "name": "performUpkeep",
      "outputs": [],
      "stateMutability": "nonpayable",
      "type": "function"
    },
    {
      "inputs": [
        {
          "internalType": "address",
          "name": "_player",
          "type": "address"
        },
        {
          "internalType": "uint256",
          "name": "withdrawAmt",
          "type": "uint256"
        }
      ],
      "name": "withdrawWinnings",
      "outputs": [],
      "stateMutability": "nonpayable",
      "type": "function"
    },
    {
      "inputs": [],
      "name": "getBalance",
      "outputs": [
        {
          "internalType": "uint256",
          "name": "",
          "type": "uint256"
        }
      ],
      "stateMutability": "view",
      "type": "function"
    }
  ],
  "bytecode": "0x60806040523480156200001157600080fd5b5060405162002ff538038062002ff583398101604081905262000034916200024b565b6000805460078054600160a060020a03888116600160a060020a031992831681179093556001889055600160b060020a03199093169091179092556004805490921690841617905560028190556040516103e890620000939062000224565b6060808252600b908201527f47616d654e6f546f6b656e000000000000000000000000000000000000000000608082015260a0602082018190526003908201527f474e54000000000000000000000000000000000000000000000000000000000060c0820152604081019190915260e001604051809103906000f08015801562000121573d6000803e3d6000fd5b5060098054600160a060020a0392909216600160a060020a03199283168117909155600880549092161790556040516103e8906200015f9062000224565b6060808252600c908201527f47616d65596573546f6b656e0000000000000000000000000000000000000000608082015260a0602082018190526003908201527f475954000000000000000000000000000000000000000000000000000000000060c0820152604081019190915260e001604051809103906000f080158015620001ed573d6000803e3d6000fd5b50600b8054600160a060020a0392909216600160a060020a03199283168117909155600a8054909216179055506200029992505050565b610d1d80620022d883390190565b600160a060020a03811681146200024857600080fd5b50565b600080600080608085870312156200026257600080fd5b84516200026f8162000232565b602086015160408701519195509350620002898162000232565b6060959095015193969295505050565b61202f80620002a96000396000f3fe6080604052600436106101275760003560e060020a900480637256eba4116100a4578063d270e7ab11610068578063d270e7ab14610355578063d6875f9514610375578063e2cb747d14610395578063f91c2cbc146103b5578063f92a9e09146103d757600080fd5b80637256eba4146102ca57806381b82104146102ea578063846c6f4f146103005780638e15f473146103205780638f09cc8b1461033557600080fd5b80631746bd1b116100eb5780631746bd1b1461020b578063200d2ed21461025157806341ef10c81461027f57806342cde4e81461029f5780636e4d243a146102b557600080fd5b806302d05d3f14610133578063053a2cfb146101705780630b66c6781461019e57806312065fe0146101c05780631486d611146101de57600080fd5b3661012e57005b600080fd5b34801561013f57600080fd5b5060005461015390600160a060020a031681565b604051600160a060020a0390911681526020015b60405180910390f35b34801561017c57600080fd5b506000546101919060a860020a900460ff1681565b6040516101679190611a9e565b3480156101aa57600080fd5b506101be6101b9366004611aca565b6103ed565b005b3480156101cc57600080fd5b5030315b604051908152602001610167565b3480156101ea57600080fd5b506101d06101f9366004611af6565b60036020526000908152604090205481565b34801561021757600080fd5b5060005460015460025460405161016793600160a060020a0381169360ff60a060020a830481169460a860020a9093041692909190611b2e565b34801561025d57600080fd5b506000546102729060a060020a900460ff1681565b6040516101679190611b6b565b34801561028b57600080fd5b5060085461015390600160a060020a031681565b3480156102ab57600080fd5b506101d060025481565b3480156102c157600080fd5b506101be610ba9565b3480156102d657600080fd5b506101be6102e5366004611b8f565b610d65565b3480156102f657600080fd5b506101d0600c5481565b34801561030c57600080fd5b50600a5461015390600160a060020a031681565b34801561032c57600080fd5b506101d06116f5565b34801561034157600080fd5b5060095461015390600160a060020a031681565b34801561036157600080fd5b5060075461015390600160a060020a031681565b34801561038157600080fd5b50600b5461015390600160a060020a031681565b3480156103a157600080fd5b506101d06103b0366004611bcd565b611786565b3480156103c157600080fd5b506103ca61183b565b6040516101679190611be8565b3480156103e357600080fd5b506101d060015481565b33600160a060020a038316146104735760405160e560020a62461bcd02815260206004820152602160248201527f63616e6e6f74207769746864726177206f6e20736f6d656f6e6520626568616c60448201527f660000000000000000000000000000000000000000000000000000000000000060648201526084015b60405180910390fd5b600160005460a060020a900460ff16600181111561049357610493611a71565b146104e35760405160e560020a62461bcd02815260206004820152601660248201527f67616d65206973206e6f742079657420636c6f73656400000000000000000000604482015260640161046a565b6000805460a860020a900460ff16600281111561050257610502611a71565b036105525760405160e560020a62461bcd02815260206004820152601e60248201527f67616d65206f7574636f6d652063616e6e6f7420626520756e6b6e6f776e0000604482015260640161046a565b600954600160a060020a0316600160005460a860020a900460ff16600281111561057e5761057e611a71565b036105915750600b54600160a060020a03165b6040517f70a08231000000000000000000000000000000000000000000000000000000008152600160a060020a0384811660048301528391908316906370a0823190602401602060405180830381865afa1580156105f3573d6000803e3d6000fd5b505050506040513d601f19601f820116820180604052508101906106179190611cf2565b10156106385760405160e560020a62461bcd02815260040161046a90611d0b565b6040517fdd62ed3e000000000000000000000000000000000000000000000000000000008152600160a060020a03848116600483015230602483015283919083169063dd62ed3e90604401602060405180830381865afa1580156106a0573d6000803e3d6000fd5b505050506040513d601f19601f820116820180604052508101906106c49190611cf2565b10156106e55760405160e560020a62461bcd02815260040161046a90611d0b565b60028060005460a860020a900460ff16600281111561070657610706611a71565b0361070f575060015b60008361071d600180611d81565b6107279190611da6565b90506000816003600085600281111561074257610742611a71565b600281111561075357610753611a71565b815260200190815260200160002054600360008060159054906101000a900460ff16600281111561078657610786611a71565b600281111561079757610797611a71565b815260200190815260200160002054846107b19190611d81565b6107bb9190611da6565b6107c59190611dbd565b9050600760009054906101000a9004600160a060020a0316600160a060020a0316633fc15f156040518163ffffffff1660e060020a028152600401602060405180830381865afa15801561081d573d6000803e3d6000fd5b505050506040513d601f19601f820116820180604052508101906108419190611dd0565b6040517f095ea7b3000000000000000000000000000000000000000000000000000000008152600160a060020a03888116600483015260248201849052919091169063095ea7b3906044016020604051808303816000875af11580156108ab573d6000803e3d6000fd5b505050506040513d601f19601f820116820180604052508101906108cf9190611ded565b50600754604080517f3fc15f15000000000000000000000000000000000000000000000000000000008152905161096092600160a060020a031691633fc15f159160048083019260209291908290030181865afa158015610934573d6000803e3d6000fd5b505050506040513d601f19601f820116820180604052508101906109589190611dd0565b308884611980565b61096c84873088611980565b6002600160005460a860020a900460ff16600281111561098e5761098e611a71565b03610997575060015b6040805160e08101825260068054825282518084018452600881527f57495448445241570000000000000000000000000000000000000000000000006020828101919091528301908152928201859052426060830181905260ff851660808401523060a0840152600160a060020a038b1660c084015260058054600181018255600091909152835192027f036b6384b5eca791c62761152d0c79bb0604c104a5fb6f4eb0703f3154bb3db08101928355935190937f036b6384b5eca791c62761152d0c79bb0604c104a5fb6f4eb0703f3154bb3db10190610a789082611eb0565b506040820151600282015560608201516003820155608082015160048201805460a085015160ff90931674ffffffffffffffffffffffffffffffffffffffffff1990911617610100600160a060020a039384160217905560c0909201516005909101805473ffffffffffffffffffffffffffffffffffffffff19169190921617905560068054906000610b0a83611f76565b90915550506007546040517f79769488000000000000000000000000000000000000000000000000000000008152600160a060020a038a8116600483015260ff851660248301526044820186905260648201849052909116906379769488906084015b600060405180830381600087803b158015610b8757600080fd5b505af1158015610b9b573d6000803e3d6000fd5b505050505050505050505050565b600154421015610bfe5760405160e560020a62461bcd02815260206004820181905260248201527f67616d65206973206e6f7420726561647920746f206265207265736f6c766564604482015260640161046a565b600160005460a060020a900460ff166001811115610c1e57610c1e611a71565b03610c6e5760405160e560020a62461bcd02815260206004820152601660248201527f67616d6520697320616c726561647920636c6f73656400000000000000000000604482015260640161046a565b6000805474ff0000000000000000000000000000000000000000191660a060020a179055600280548190610ca06116f5565b12610cac575060019050805b6000805483919075ff000000000000000000000000000000000000000000191660a860020a836002811115610ce357610ce3611a71565b02179055506007546040517fe362937d00000000000000000000000000000000000000000000000000000000815260ff83166004820152600160a060020a039091169063e362937d90602401600060405180830381600087803b158015610d4957600080fd5b505af1158015610d5d573d6000803e3d6000fd5b505050505050565b6000600160a060020a0384163314610dc25760405160e560020a62461bcd02815260206004820152601360248201527f496e76616c6964205472616e73616374696f6e00000000000000000000000000604482015260640161046a565b6000805460a060020a900460ff166001811115610de157610de1611a71565b14610e575760405160e560020a62461bcd02815260206004820152602860248201527f47616d6520697320636c6f7365642c206e6f206675727468657220626574732060448201527f6163636570746564000000000000000000000000000000000000000000000000606482015260840161046a565b8160ff1660011480610e6c57508160ff166002145b610ebb5760405160e560020a62461bcd02815260206004820152601a60248201527f6265742073696465206973206e6f74207265636f676e69736564000000000000604482015260640161046a565b600154421115610f365760405160e560020a62461bcd02815260206004820152602260248201527f63616e6e6f74207075742062657473206166746572207265736f6c766520746960448201527f6d65000000000000000000000000000000000000000000000000000000000000606482015260840161046a565b600754604080517f3fc15f1500000000000000000000000000000000000000000000000000000000815290518592600160a060020a031691633fc15f159160048083019260209291908290030181865afa158015610f98573d6000803e3d6000fd5b505050506040513d601f19601f82011682018060405250810190610fbc9190611dd0565b6040517fdd62ed3e000000000000000000000000000000000000000000000000000000008152600160a060020a038781166004830152306024830152919091169063dd62ed3e90604401602060405180830381865afa158015611023573d6000803e3d6000fd5b505050506040513d601f19601f820116820180604052508101906110479190611cf2565b10156110be5760405160e560020a62461bcd02815260206004820152602d60248201527f706c617965722773206877616e67206d61726b657420746f6b656e20616c6c6f60448201527f77616e636520746f6f206c6f7700000000000000000000000000000000000000606482015260840161046a565b600754604080517f3fc15f1500000000000000000000000000000000000000000000000000000000815290518592600160a060020a031691633fc15f159160048083019260209291908290030181865afa158015611120573d6000803e3d6000fd5b505050506040513d601f19601f820116820180604052508101906111449190611dd0565b6040517f70a08231000000000000000000000000000000000000000000000000000000008152600160a060020a03878116600483015291909116906370a0823190602401602060405180830381865afa1580156111a5573d6000803e3d6000fd5b505050506040513d601f19601f820116820180604052508101906111c99190611cf2565b10156112405760405160e560020a62461bcd02815260206004820152602b60248201527f706c617965722773206877616e67206d61726b657420746f6b656e2062616c6160448201527f6e636520746f6f206c6f77000000000000000000000000000000000000000000606482015260840161046a565b600260ff8316600103611251575060015b600954600160a060020a031660ff84166001036112765750600b54600160a060020a03165b6000611283600187611da6565b905081600160a060020a03166319d1997a6040518163ffffffff1660e060020a028152600401602060405180830381865afa1580156112c6573d6000803e3d6000fd5b505050506040513d601f19601f820116820180604052508101906112ea9190611cf2565b8183600160a060020a03166318160ddd6040518163ffffffff1660e060020a028152600401602060405180830381865afa15801561132c573d6000803e3d6000fd5b505050506040513d601f19601f820116820180604052508101906113509190611cf2565b61135a9190611dbd565b11156113d15760405160e560020a62461bcd02815260206004820152602760248201527f67616d6520746f6b656e2063616e6e6f74206d696e742072657175657374656460448201527f20616d6f756e7400000000000000000000000000000000000000000000000000606482015260840161046a565b6040517f40c10f19000000000000000000000000000000000000000000000000000000008152600160a060020a038881166004830152602482018390528316906340c10f1990604401600060405180830381600087803b15801561143457600080fd5b505af1158015611448573d6000803e3d6000fd5b505050506114d1600760009054906101000a9004600160a060020a0316600160a060020a0316633fc15f156040518163ffffffff1660e060020a028152600401602060405180830381865afa1580156114a5573d6000803e3d6000fd5b505050506040513d601f19601f820116820180604052508101906114c99190611dd0565b883089611980565b85600360008560028111156114e8576114e8611a71565b60028111156114f9576114f9611a71565b815260200190815260200160002060008282546115169190611dbd565b90915550506040805160e08101825260068054825282518084018452600381527f42455400000000000000000000000000000000000000000000000000000000006020828101919091528301908152928201899052426060830181905260ff891660808401523060a0840152600160a060020a038b1660c084015260058054600181018255600091909152835192027f036b6384b5eca791c62761152d0c79bb0604c104a5fb6f4eb0703f3154bb3db08101928355935190937f036b6384b5eca791c62761152d0c79bb0604c104a5fb6f4eb0703f3154bb3db101906115fc9082611eb0565b506040820151600282015560608201516003820155608082015160048201805460a085015160ff90931674ffffffffffffffffffffffffffffffffffffffffff1990911617610100600160a060020a039384160217905560c0909201516005909101805473ffffffffffffffffffffffffffffffffffffffff1916919092161790556006805490600061168e83611f76565b90915550506007546040517f5039eb97000000000000000000000000000000000000000000000000000000008152600160a060020a038a8116600483015260ff89166024830152604482018a90526064820184905290911690635039eb9790608401610b6d565b60048054604080517ffeaf968c00000000000000000000000000000000000000000000000000000000815290516000938493600160a060020a03169263feaf968c928183019260a0928290030181865afa158015611757573d6000803e3d6000fd5b505050506040513d601f19601f8201168201806040525081019061177b9190611fa9565b509195945050505050565b60008160ff166001148061179d57508160ff166002145b6117ec5760405160e560020a62461bcd02815260206004820152601a60248201527f73696465206d757374206265206f6e65206f662031206f722032000000000000604482015260640161046a565b600260ff83166001036117fd575060015b6003600082600281111561181357611813611a71565b600281111561182457611824611a71565b815260200190815260200160002054915050919050565b60606005805480602002602001604051908101604052809291908181526020016000905b8282101561197757838290600052602060002090600602016040518060e00160405290816000820154815260200160018201805461189c90611e28565b80601f01602080910402602001604051908101604052809291908181526020018280546118c890611e28565b80156119155780601f106118ea57610100808354040283529160200191611915565b820191906000526020600020905b8154815290600101906020018083116118f857829003601f168201915b5050509183525050600282015460208083019190915260038301546040830152600483015460ff81166060840152600160a060020a036101009091048116608084015260059093015490921660a090910152908252600192909201910161185f565b50505050905090565b6040517f23b872dd000000000000000000000000000000000000000000000000000000008152600160a060020a038481166004830152838116602483015260448201839052600091908616906323b872dd906064016020604051808303816000875af11580156119f4573d6000803e3d6000fd5b505050506040513d601f19601f82011682018060405250810190611a189190611ded565b905080611a6a5760405160e560020a62461bcd02815260206004820152601560248201527f546f6b656e207472616e73666572206661696c65640000000000000000000000604482015260640161046a565b5050505050565b60e060020a634e487b7102600052602160045260246000fd5b60038110611a9a57611a9a611a71565b9052565b60208101611aac8284611a8a565b92915050565b600160a060020a0381168114611ac757600080fd5b50565b60008060408385031215611add57600080fd5b8235611ae881611ab2565b946020939093013593505050565b600060208284031215611b0857600080fd5b813560038110611b1757600080fd5b9392505050565b60028110611a9a57611a9a611a71565b600160a060020a038616815260a08101611b4b6020830187611b1e565b611b586040830186611a8a565b6060820193909352608001529392505050565b60208101611aac8284611b1e565b803560ff81168114611b8a57600080fd5b919050565b600080600060608486031215611ba457600080fd5b8335611baf81611ab2565b925060208401359150611bc460408501611b79565b90509250925092565b600060208284031215611bdf57600080fd5b611b1782611b79565b6020808252825182820181905260009190604090818501908084028601830187850186805b84811015611ce357603f198a8503018652825160e08151865289820151818b880152805180838901528592505b80831015611c59578183018c01518884016101000152918b0191611c3a565b61010092508583828a0101528a8401518b8901526060915081840151828901526080915081840151611c8f838a018260ff169052565b5060a0915081840151611cac838a0182600160a060020a03169052565b5060c093840151600160a060020a03811689860152939150988b0198601f01601f1916969096010194505091870191600101611c0d565b50919998505050505050505050565b600060208284031215611d0457600080fd5b5051919050565b60208082526023908201527f706c61796572206d75737420617070726f766520776974686472617720616d6f60408201527f756e740000000000000000000000000000000000000000000000000000000000606082015260800190565b60e060020a634e487b7102600052601160045260246000fd5b600082611da15760e060020a634e487b7102600052601260045260246000fd5b500490565b8082028115828204841417611aac57611aac611d68565b80820180821115611aac57611aac611d68565b600060208284031215611de257600080fd5b8151611b1781611ab2565b600060208284031215611dff57600080fd5b81518015158114611b1757600080fd5b60e060020a634e487b7102600052604160045260246000fd5b600281046001821680611e3c57607f821691505b602082108103611e5f5760e060020a634e487b7102600052602260045260246000fd5b50919050565b601f821115611eab576000818152602081206020601f86010481016020861015611e8c5750805b6020601f860104820191505b81811015610d5d57828155600101611e98565b505050565b815167ffffffffffffffff811115611eca57611eca611e0f565b611ede81611ed88454611e28565b84611e65565b602080601f831160018114611f175760008415611efb5750858301515b60028086026008870290910a6000190419821617865550610d5d565b600085815260208120601f198616915b82811015611f4657888601518255948401946001909101908401611f27565b5085821015611f6657878501516008601f88160260020a60001904191681555b5050505050600202600101905550565b600060018201611f8857611f88611d68565b5060010190565b805169ffffffffffffffffffff81168114611b8a57600080fd5b600080600080600060a08688031215611fc157600080fd5b611fca86611f8f565b9450602086015193506040860151925060608601519150611fed60808701611f8f565b9050929550929590935056fea2646970667358221220a4e21ef57f985c9090d85b34a65092e0d839f46db0f96a90f2ade6e4ddf0140264736f6c6343000811003360806040523480156200001157600080fd5b5060405162000d1d38038062000d1d833981016040819052620000349162000153565b60068054600160a060020a0319163317905560046200005484826200026e565b5060056200006383826200026e565b50600090815560015550620003409050565b7f4e487b7100000000000000000000000000000000000000000000000000000000600052604160045260246000fd5b600082601f830112620000b657600080fd5b81516001604060020a0380821115620000d357620000d362000075565b604051601f8301601f19908116603f01168101908282118183101715620000fe57620000fe62000075565b816040528381526020925086838588010111156200011b57600080fd5b600091505b838210156200013f578582018301518183018401529082019062000120565b600093810190920192909252949350505050565b6000806000606084860312156200016957600080fd5b83516001604060020a03808211156200018157600080fd5b6200018f87838801620000a4565b94506020860151915080821115620001a657600080fd5b50620001b586828701620000a4565b925050604084015190509250925092565b600281046001821680620001db57607f821691505b60208210810362000215577f4e487b7100000000000000000000000000000000000000000000000000000000600052602260045260246000fd5b50919050565b601f82111562000269576000818152602081206020601f86010481016020861015620002445750805b6020601f860104820191505b81811015620002655782815560010162000250565b5050505b505050565b81516001604060020a038111156200028a576200028a62000075565b620002a2816200029b8454620001c6565b846200021b565b602080601f831160018114620002de5760008415620002c15750858301515b60028086026008870290910a600019041982161786555062000265565b600085815260208120601f198616915b828110156200030f57888601518255948401946001909101908401620002ee565b50858210156200033057878501516008601f88160260020a60001904191681555b5050505050600202600101905550565b6109cd80620003506000396000f3fe608060405234801561001057600080fd5b50600436106100c6576000357c01000000000000000000000000000000000000000000000000000000009004806340c10f191161008e57806340c10f191461013f57806342966c681461015457806370a082311461016757806395d89b4114610187578063a9059cbb1461018f578063dd62ed3e146101a257600080fd5b806306fdde03146100cb578063095ea7b3146100e957806318160ddd1461010c57806319d1997a1461012357806323b872dd1461012c575b600080fd5b6100d36101cd565b6040516100e0919061075a565b60405180910390f35b6100fc6100f73660046107c4565b61025b565b60405190151581526020016100e0565b61011560015481565b6040519081526020016100e0565b61011560005481565b6100fc61013a3660046107ee565b6102fc565b61015261014d3660046107c4565b6104a7565b005b61015261016236600461082a565b610607565b610115610175366004610843565b60026020526000908152604090205481565b6100d361069f565b6100fc61019d3660046107c4565b6106ac565b6101156101b0366004610865565b600360209081526000928352604080842090915290825290205481565b600480546101da90610898565b80601f016020809104026020016040519081016040528092919081815260200182805461020690610898565b80156102535780601f1061022857610100808354040283529160200191610253565b820191906000526020600020905b81548152906001019060200180831161023657829003601f168201915b505050505081565b336000908152600260205260408120548211156102965760405160e560020a62461bcd02815260040161028d906108eb565b60405180910390fd5b336000818152600360209081526040808320600160a060020a03881680855290835292819020869055518581529192917f8c5be1e5ebec7d5bd14f71427d1e84f3dd0314c0f7b2291e5b200ac8c7c3b92591015b60405180910390a35060015b92915050565b336000908152600360209081526040808320600160a060020a03861684529091528120548211156103985760405160e560020a62461bcd02815260206004820152602f60248201527f696e73756666696369656e7420616c6c6f77616e636520746f2072656369706960448201527f656e742066726f6d2073656e6465720000000000000000000000000000000000606482015260840161028d565b336000908152600260205260409020548211156103ca5760405160e560020a62461bcd02815260040161028d906108eb565b600160a060020a03808516600090815260036020908152604080832093871683529290529081208054849290610401908490610951565b9091555050600160a060020a0384166000908152600260205260408120805484929061042e908490610951565b9091555050600160a060020a0383166000908152600260205260408120805484929061045b908490610964565b9250508190555082600160a060020a031684600160a060020a03166000805160206109788339815191528460405161049591815260200190565b60405180910390a35060019392505050565b600654600160a060020a031633146105045760405160e560020a62461bcd02815260206004820152600e60248201527f4e6f7420617574686f72697a6564000000000000000000000000000000000000604482015260640161028d565b600054816001546105159190610964565b111561058e576040805160e560020a62461bcd0281526020600482015260248101919091527f63616e6e6f74206d696e74207468652072657175657374656420616d6f756e7460448201527f206f6620746f6b656e732c20737570706c79206c696d697420746f6f206c6f77606482015260840161028d565b600160a060020a038216600090815260026020526040812080548392906105b6908490610964565b9250508190555080600160008282546105cf9190610964565b9091555050604051818152600160a060020a038316906000906000805160206109788339815191529060200160405180910390a35050565b336000908152600260205260409020548111156106395760405160e560020a62461bcd02815260040161028d906108eb565b3360009081526002602052604081208054839290610658908490610951565b9250508190555080600160008282546106719190610951565b909155505060405181815260009033906000805160206109788339815191529060200160405180910390a350565b600580546101da90610898565b336000908152600260205260408120548211156106de5760405160e560020a62461bcd02815260040161028d906108eb565b33600090815260026020526040812080548492906106fd908490610951565b9091555050600160a060020a0383166000908152600260205260408120805484929061072a908490610964565b9091555050604051828152600160a060020a038416903390600080516020610978833981519152906020016102ea565b600060208083528351808285015260005b818110156107875785810183015185820160400152820161076b565b506000604082860101526040601f19601f8301168501019250505092915050565b8035600160a060020a03811681146107bf57600080fd5b919050565b600080604083850312156107d757600080fd5b6107e0836107a8565b946020939093013593505050565b60008060006060848603121561080357600080fd5b61080c846107a8565b925061081a602085016107a8565b9150604084013590509250925092565b60006020828403121561083c57600080fd5b5035919050565b60006020828403121561085557600080fd5b61085e826107a8565b9392505050565b6000806040838503121561087857600080fd5b610881836107a8565b915061088f602084016107a8565b90509250929050565b6002810460018216806108ac57607f821691505b6020821081036108e5577f4e487b7100000000000000000000000000000000000000000000000000000000600052602260045260246000fd5b50919050565b6020808252601e908201527f696e73756666696369656e742062616c616e636520696e2073656e6465720000604082015260600190565b7f4e487b7100000000000000000000000000000000000000000000000000000000600052601160045260246000fd5b818103818111156102f6576102f6610922565b808201808211156102f6576102f661092256feddf252ad1be2c89b69c2b068fc378daa952ba7f163c4a11628f55a4df523b3efa26469706673582212208aa60a6eab198406734246fd9ce934a26a5e04aa92be9328c1565992d2e05e5464736f6c63430008110033",
  "immutableReferences": {},
  "source": "// SPDX-License-Identifier: MIT\npragma solidity >=0.4.22 <0.9.0;\n\nimport \"./HwangMarket.sol\";\nimport \"./IterableMapping.sol\";\nimport \"./GameERC20Token.sol\";\nimport \"@chainlink/contracts/src/v0.8/interfaces/AggregatorV3Interface.sol\";\nimport \"@openzeppelin/contracts/token/ERC20/IERC20.sol\";\n\ncontract GameContract {\n  using IterableMapping for IterableMapping.Map;\n\n  enum GameStatus {\n    OPEN,\n    CLOSED\n  }\n\n  enum hasWithdrawn {\n    YES,\n    NO\n  }\n\n  enum gameSide {\n    UNKNOWN,\n    YES,\n    NO\n  }\n\n  address public creator; \n  GameStatus public status;\n  gameSide public gameOutcome;\n  uint256 public gameResolveTime;\n  int256 public threshold;\n\n  mapping(gameSide => uint256) public amtPlacedOnSide; // remember how much amount is placed on each side in terms of HMTKN\n  AggregatorV3Interface internal priceFeed;\n\n\n  // Trx types constant\n  string constant BetActivityType = \"BET\";\n  string constant WithdrawActivityType = \"WITHDRAW\";\n  string constant SellActivityType = \"SELL\";\n\n  // conversion rate from 1 HMTKN to 1 Game Token\n  uint constant mainTkn2GameTknConversionRate = 1;\n  uint constant supplyLimit = 1000;\n\n  // for every record, we track a list of transactions\n  struct Trx {\n    // Common fields\n    uint256 trxId;\n    string activityType;  // \"BET\", \"SELL\"\n    uint256 trxAmt;\n    uint256 trxTime; // when the trx was initiated\n    uint8 gameSide;\n\n    // if BET, from = game contract addr, to = player addr\n    // if SELL, from = seller addr, to = buyer addr\n    address from;\n    address to;\n  }\n  Trx[] trxs;\n  uint256 internal trxId;\n\n  HwangMarket public mainContract;\n\n  address public gameNoTokenContractAddress;\n  GameERC20Token public gameNoTokenContract;\n  address public gameYesTokenContractAddress;\n  GameERC20Token public gameYesTokenContract;\n\n  uint256 public listingContractsCount;\n  IterableMapping.Map private listingContracts;\n\n  // constructor takes in a resolve time, a oracleAddr (oracle address), and a threshold, \n  // where a gameSide of NO indicates < threshold, and a gameSide of YES indicates >= threshold\n  constructor(address payable _creator, uint256 resolveTime, address oracleAddr, int256 thres) {\n    creator = _creator;\n    mainContract = HwangMarket(_creator);\n    status = GameStatus.OPEN;\n    gameResolveTime = resolveTime; // set when the game is allowed to conclude\n    gameOutcome = gameSide.UNKNOWN; // explicitly set gameOutcome to undecided\n    \n    priceFeed = AggregatorV3Interface(oracleAddr);\n    threshold = thres;\n\n    // every game contract deploys 2 IERC20 token contracts\n    // yes and no tokens\n    gameNoTokenContract = new GameERC20Token(\"GameNoToken\", \"GNT\", supplyLimit);\n    gameNoTokenContractAddress = address(gameNoTokenContract);\n    gameYesTokenContract = new GameERC20Token(\"GameYesToken\", \"GYT\", supplyLimit);\n    gameYesTokenContractAddress = address(gameYesTokenContract);\n  }\n\n  /**\n    * Returns the latest price\n    */\n  function getLatestPrice() public view returns (int) {\n      (\n          /*uint80 roundID*/,\n          int price,\n          /*uint startedAt*/,\n          /*uint timeStamp*/,\n          /*uint80 answeredInRound*/\n      ) = priceFeed.latestRoundData();\n      return price;\n  }\n\n  // to check if message sent is by creator\n  modifier isCreator(bool isEqual) {\n    if (isEqual) {\n      require(\n        creator == msg.sender,\n        \"You are not the creator of this game!\"\n      );\n    }\n    _;\n  }\n\n  // to get game information\n  function getGameInfo() \n    public \n    view \n    returns (\n      address,  // creator\n      GameStatus, // status\n      gameSide,\n      uint256,\n      int256\n  ) {\n    return (creator, status, gameOutcome, gameResolveTime, threshold);\n  }\n\n  // payable keyword should allow depositing of ethereum into smart contract\n  // allow msg.sender address to register as a player\n  function addPlayer(address _player, uint256 hwangMktTokenAmt, uint8 betSide)\n    public\n    isCreator(false) {\n      require(_player == msg.sender, \"Invalid Transaction\");\n      require(status == GameStatus.OPEN, \"Game is closed, no further bets accepted\");\n      require(betSide == 1 || betSide == 2, \"bet side is not recognised\");\n      require(block.timestamp <= gameResolveTime, \"cannot put bets after resolve time\");\n      require(mainContract.mainToken().allowance(_player, address(this)) >= hwangMktTokenAmt, \"player's hwang market token allowance too low\");\n      require(mainContract.mainToken().balanceOf(_player) >= hwangMktTokenAmt, \"player's hwang market token balance too low\");\n      gameSide side = gameSide.NO; // 1 - YES, 2 - NO\n      if (betSide == 1) {\n        side = gameSide.YES;\n      }\n      GameERC20Token gameTokenContract = gameNoTokenContract;\n      if (betSide == 1) {\n        gameTokenContract = gameYesTokenContract;\n      }\n      uint256 requestedMintAmt = hwangMktTokenAmt * mainTkn2GameTknConversionRate;\n      require(gameTokenContract.totalSupply() + requestedMintAmt <= gameTokenContract.supplyLimit(), \"game token cannot mint requested amount\");\n\n      // mint the respective 1-1 game token to the player\n      gameTokenContract.mint(_player, requestedMintAmt);\n      // collect the player's main token, deposit under the game address\n      _safeTransferFrom(mainContract.mainToken(), _player, address(this), hwangMktTokenAmt);\n\n      // book keeping\n      amtPlacedOnSide[side] += hwangMktTokenAmt;\n      uint256 timestamp = block.timestamp;\n      trxs.push(Trx({\n        trxId: trxId,\n        activityType: BetActivityType,\n        gameSide: betSide,\n        trxAmt: hwangMktTokenAmt,\n        trxTime: timestamp,\n        from: address(this),\n        to: _player\n      }));\n      trxId++;\n\n      mainContract.playerJoinedSide(_player, betSide, hwangMktTokenAmt, timestamp);\n    }\n\n  // for now, we return all, can consider performing pagination here\n  function getTrxs() external view returns(Trx[] memory) {\n    return trxs;\n  }\n\n  // disable any backdoor by creator\n  // // allow creator to cancel the game created.\n  // function cancelGame() public isCreator(true) {\n  //   status = GameStatus.CLOSED;\n  // }\n\n  function getSideAmt(uint8 s) public view returns (uint256) {\n    require((s == 1 || s == 2), \"side must be one of 1 or 2\");\n    gameSide side = gameSide.NO;\n    if (s == 1) {\n      side = gameSide.YES;\n    }\n\n    return amtPlacedOnSide[side];\n  }\n\n  // impt: anyone can call the contract to perform upkeep but it has a guard to protect against early resolves\n  // and it checks against a \"trusted\" oracle chainlink to fetch the result\n  function performUpkeep() public {\n    require(block.timestamp >= gameResolveTime, \"game is not ready to be resolved\");\n    require(status != GameStatus.CLOSED, \"game is already closed\");\n\n    status = GameStatus.CLOSED;\n    gameSide side = gameSide.NO;\n    uint8 rawSide = 2;\n    if (getLatestPrice() >= threshold) {\n      side = gameSide.YES;\n      rawSide = 1;\n    }\n    gameOutcome = side;\n\n    mainContract.concludeGame(rawSide);\n  }\n\n  // allow winners to withdraw their winnings in term of HMTKN\n  function withdrawWinnings(address _player, uint withdrawAmt) public {\n    require(msg.sender == _player, \"cannot withdraw on someone behalf\"); //restrict only winner can withdraw his/her own winnings\n    require(status == GameStatus.CLOSED, \"game is not yet closed\"); // game must be closed\n    require(gameOutcome != gameSide.UNKNOWN, \"game outcome cannot be unknown\"); // game outcome cannot be unknown\n    IERC20 gameTokenContract = gameNoTokenContract;\n    if (gameOutcome == gameSide.YES) {\n      gameTokenContract = gameYesTokenContract;\n    }\n    require(gameTokenContract.balanceOf(_player) >= withdrawAmt, \"player must approve withdraw amount\");\n    require(gameTokenContract.allowance(_player, address(this)) >= withdrawAmt, \"player must approve withdraw amount\");\n\n    // where to calculate amount of winnings\n    // calculated winnings = (player's bet amount / total bet amount on winning side) * total bet amount on losing side\n    gameSide oppSide = gameSide.NO;\n    if (gameOutcome == gameSide.NO) {\n      oppSide = gameSide.YES;\n    }\n    uint256 hwangMarketTokenAmt = (1 / mainTkn2GameTknConversionRate) * withdrawAmt;\n    uint256 winnings = ((hwangMarketTokenAmt / amtPlacedOnSide[gameOutcome]) * amtPlacedOnSide[oppSide]) + hwangMarketTokenAmt;\n    \n    // game now approves hwangmarket token winnings transfer to player\n    mainContract.mainToken().approve(_player, winnings);\n\n    // initiate transfer of hwang market tokens from game to player\n    _safeTransferFrom(mainContract.mainToken(), address(this), _player, winnings);\n    // initiate transfer of game token from player back to game\n    _safeTransferFrom(gameTokenContract, _player, address(this), withdrawAmt);\n\n    uint8 betSide = 2;\n    if (gameOutcome == gameSide.YES) {\n      betSide = 1;\n    }\n    uint256 timestamp = block.timestamp;\n    trxs.push(Trx({\n      trxId: trxId,\n      activityType: WithdrawActivityType,\n      gameSide: betSide,\n      trxAmt: winnings,\n      trxTime: timestamp,\n      from: address(this),\n      to: _player\n    }));\n    trxId++;\n    mainContract.playerWithdrawWinnings(_player, betSide, winnings, timestamp);\n  }\n\n  // function playerAddListing(address _player, )\n\n  // to get smart contract's balance\n  function getBalance() public view returns (uint256) {\n    return address(this).balance;\n  }\n\n  // @notice Will receive any eth sent to the contract\n  receive() external payable {\n  }\n\n  function _safeTransferFrom(\n    IERC20 token,\n    address sender,\n    address recipient,\n    uint amount\n    ) private {\n      bool sent = token.transferFrom(sender, recipient, amount);\n      require(sent, \"Token transfer failed\");\n    }\n}\n",
  "sourcePath": "/Users/gerald/Desktop/HwangMarket/contracts/GameContract.sol",
  "compiler": {
    "name": "solc",
    "version": "0.8.17+commit.8df45f5f.Emscripten.clang"
  },
  "schemaVersion": "3.4.10",
  "updatedAt": "2022-10-23T11:00:35.297Z",
  "devdoc": {
    "kind": "dev",
    "methods": {},
    "version": 1
  },
  "userdoc": {
    "kind": "user",
    "methods": {
      "getLatestPrice()": {
        "notice": "Returns the latest price"
      }
    },
    "version": 1
  }
}