{
  "contractName": "GameContract",
  "abi": [
    {
      "inputs": [
        {
          "internalType": "address",
          "name": "_creator",
          "type": "address"
        }
      ],
      "stateMutability": "nonpayable",
      "type": "constructor"
    },
    {
      "inputs": [],
      "name": "creator",
      "outputs": [
        {
          "internalType": "address",
          "name": "",
          "type": "address"
        }
      ],
      "stateMutability": "view",
      "type": "function"
    },
    {
      "inputs": [],
      "name": "status",
      "outputs": [
        {
          "internalType": "enum GameContract.GameStatus",
          "name": "",
          "type": "uint8"
        }
      ],
      "stateMutability": "view",
      "type": "function"
    },
    {
      "inputs": [],
      "name": "getGameInfo",
      "outputs": [
        {
          "internalType": "address",
          "name": "",
          "type": "address"
        },
        {
          "internalType": "enum GameContract.GameStatus",
          "name": "",
          "type": "uint8"
        }
      ],
      "stateMutability": "view",
      "type": "function"
    },
    {
      "inputs": [
        {
          "internalType": "address",
          "name": "_player",
          "type": "address"
        },
        {
          "internalType": "uint256",
          "name": "_ethAmount",
          "type": "uint256"
        }
      ],
      "name": "addPlayer",
      "outputs": [],
      "stateMutability": "payable",
      "type": "function"
    },
    {
      "inputs": [],
      "name": "cancelGame",
      "outputs": [],
      "stateMutability": "nonpayable",
      "type": "function"
    },
    {
      "inputs": [
        {
          "internalType": "address payable",
          "name": "_player",
          "type": "address"
        }
      ],
      "name": "withdrawWinnings",
      "outputs": [],
      "stateMutability": "nonpayable",
      "type": "function"
    },
    {
      "inputs": [],
      "name": "getBalance",
      "outputs": [
        {
          "internalType": "uint256",
          "name": "",
          "type": "uint256"
        }
      ],
      "stateMutability": "view",
      "type": "function"
    }
  ],
  "bytecode": "0x608060405234801561001057600080fd5b50604051610c16380380610c16833981810160405281019061003291906100db565b806000806101000a81548173ffffffffffffffffffffffffffffffffffffffff021916908373ffffffffffffffffffffffffffffffffffffffff16021790555050610108565b600080fd5b600073ffffffffffffffffffffffffffffffffffffffff82169050919050565b60006100a88261007d565b9050919050565b6100b88161009d565b81146100c357600080fd5b50565b6000815190506100d5816100af565b92915050565b6000602082840312156100f1576100f0610078565b5b60006100ff848285016100c6565b91505092915050565b610aff806101176000396000f3fe6080604052600436106100705760003560e01c8063200d2ed21161004e578063200d2ed2146100f75780636fd075fc146101225780639260b33f1461013e578063d84c1ac91461016757610070565b806302d05d3f1461007557806312065fe0146100a05780631746bd1b146100cb575b600080fd5b34801561008157600080fd5b5061008a61017e565b60405161009791906106aa565b60405180910390f35b3480156100ac57600080fd5b506100b56101a2565b6040516100c291906106de565b60405180910390f35b3480156100d757600080fd5b506100e06101aa565b6040516100ee929190610770565b60405180910390f35b34801561010357600080fd5b5061010c6101e6565b6040516101199190610799565b60405180910390f35b61013c60048036038101906101379190610811565b6101f9565b005b34801561014a57600080fd5b506101656004803603810190610160919061088f565b610440565b005b34801561017357600080fd5b5061017c610511565b005b60008054906101000a900473ffffffffffffffffffffffffffffffffffffffff1681565b600047905090565b60008060008054906101000a900473ffffffffffffffffffffffffffffffffffffffff16600060149054906101000a900460ff16915091509091565b600060149054906101000a900460ff1681565b60008015610294573373ffffffffffffffffffffffffffffffffffffffff1660008054906101000a900473ffffffffffffffffffffffffffffffffffffffff1673ffffffffffffffffffffffffffffffffffffffff161461028f576040517f08c379a00000000000000000000000000000000000000000000000000000000081526004016102869061093f565b60405180910390fd5b610323565b3373ffffffffffffffffffffffffffffffffffffffff1660008054906101000a900473ffffffffffffffffffffffffffffffffffffffff1673ffffffffffffffffffffffffffffffffffffffff1603610322576040517f08c379a0000000000000000000000000000000000000000000000000000000008152600401610319906109d1565b60405180910390fd5b5b8273ffffffffffffffffffffffffffffffffffffffff163134111561037d576040517f08c379a000000000000000000000000000000000000000000000000000000000815260040161037490610a3d565b60405180910390fd5b3373ffffffffffffffffffffffffffffffffffffffff168373ffffffffffffffffffffffffffffffffffffffff16146103eb576040517f08c379a00000000000000000000000000000000000000000000000000000000081526004016103e290610aa9565b60405180910390fd5b8134146103f757600080fd5b34600160003373ffffffffffffffffffffffffffffffffffffffff1673ffffffffffffffffffffffffffffffffffffffff16815260200190815260200160002081905550505050565b8073ffffffffffffffffffffffffffffffffffffffff163373ffffffffffffffffffffffffffffffffffffffff161461047857600080fd5b6000600160003373ffffffffffffffffffffffffffffffffffffffff1673ffffffffffffffffffffffffffffffffffffffff16815260200190815260200160002054146104c457600080fd5b60008173ffffffffffffffffffffffffffffffffffffffff166108fc829081150290604051600060405180830381858888f1935050505015801561050c573d6000803e3d6000fd5b505050565b600180156105ac573373ffffffffffffffffffffffffffffffffffffffff1660008054906101000a900473ffffffffffffffffffffffffffffffffffffffff1673ffffffffffffffffffffffffffffffffffffffff16146105a7576040517f08c379a000000000000000000000000000000000000000000000000000000000815260040161059e9061093f565b60405180910390fd5b61063b565b3373ffffffffffffffffffffffffffffffffffffffff1660008054906101000a900473ffffffffffffffffffffffffffffffffffffffff1673ffffffffffffffffffffffffffffffffffffffff160361063a576040517f08c379a0000000000000000000000000000000000000000000000000000000008152600401610631906109d1565b60405180910390fd5b5b6001600060146101000a81548160ff02191690836001811115610661576106606106f9565b5b021790555050565b600073ffffffffffffffffffffffffffffffffffffffff82169050919050565b600061069482610669565b9050919050565b6106a481610689565b82525050565b60006020820190506106bf600083018461069b565b92915050565b6000819050919050565b6106d8816106c5565b82525050565b60006020820190506106f360008301846106cf565b92915050565b7f4e487b7100000000000000000000000000000000000000000000000000000000600052602160045260246000fd5b60028110610739576107386106f9565b5b50565b600081905061074a82610728565b919050565b600061075a8261073c565b9050919050565b61076a8161074f565b82525050565b6000604082019050610785600083018561069b565b6107926020830184610761565b9392505050565b60006020820190506107ae6000830184610761565b92915050565b600080fd5b6107c281610689565b81146107cd57600080fd5b50565b6000813590506107df816107b9565b92915050565b6107ee816106c5565b81146107f957600080fd5b50565b60008135905061080b816107e5565b92915050565b60008060408385031215610828576108276107b4565b5b6000610836858286016107d0565b9250506020610847858286016107fc565b9150509250929050565b600061085c82610669565b9050919050565b61086c81610851565b811461087757600080fd5b50565b60008135905061088981610863565b92915050565b6000602082840312156108a5576108a46107b4565b5b60006108b38482850161087a565b91505092915050565b600082825260208201905092915050565b7f596f7520617265206e6f74207468652063726561746f72206f6620746869732060008201527f67616d6521000000000000000000000000000000000000000000000000000000602082015250565b60006109296025836108bc565b9150610934826108cd565b604082019050919050565b600060208201905081810360008301526109588161091c565b9050919050565b7f596f7520617265207468652063726561746f72206f6620746869732067616d6560008201527f2e00000000000000000000000000000000000000000000000000000000000000602082015250565b60006109bb6021836108bc565b91506109c68261095f565b604082019050919050565b600060208201905081810360008301526109ea816109ae565b9050919050565b7f596f7520646f206e6f74206861766520656e6f7567682062616c616e63650000600082015250565b6000610a27601e836108bc565b9150610a32826109f1565b602082019050919050565b60006020820190508181036000830152610a5681610a1a565b9050919050565b7f496e76616c6964205472616e73616374696f6e00000000000000000000000000600082015250565b6000610a936013836108bc565b9150610a9e82610a5d565b602082019050919050565b60006020820190508181036000830152610ac281610a86565b905091905056fea264697066735822122098d4c8cbbdfb57d2ce266195c7860fb33aa9bafa1b3bb01918067cbc5a9801df64736f6c63430008110033",
  "immutableReferences": {},
  "source": "// SPDX-License-Identifier: MIT\r\npragma solidity >=0.4.22 <0.9.0;\r\n\r\ncontract GameContract {\r\n\r\n  enum GameStatus {\r\n    OPEN,\r\n    CLOSED\r\n  }\r\n\r\n  enum hasWithdrawn {\r\n    YES,\r\n    NO\r\n  }\r\n\r\n  address public creator; \r\n  GameStatus public status;\r\n  mapping(address => uint256) betRecords;\r\n  mapping(address => hasWithdrawn) winningWithdrawals;\r\n  \r\n  constructor(address _creator) public {\r\n    creator = _creator;\r\n  }\r\n\r\n  // to check if message sent is by creator\r\n  modifier isCreator(bool isEqual) {\r\n    if (isEqual) {\r\n      require(\r\n        creator == msg.sender,\r\n        \"You are not the creator of this game!\"\r\n      );\r\n    } else {\r\n      require(creator != msg.sender, \"You are the creator of this game.\");\r\n    }\r\n    _;\r\n  }\r\n\r\n  // to get game information\r\n  function getGameInfo() \r\n    public \r\n    view \r\n    returns (\r\n      address,  // creator\r\n      GameStatus // status\r\n  ) {\r\n    return (creator, status);\r\n  }\r\n\r\n  // payable keyword should allow depositing of ethereum into smart contract\r\n  // allow msg.sender address to register as a player\r\n  function addPlayer(address _player, uint256 _ethAmount) \r\n    payable\r\n    public\r\n    isCreator(false) {\r\n      require(msg.value <= _player.balance, \"You do not have enough balance\"); \r\n      require(_player == msg.sender, \"Invalid Transaction\");\r\n      require(msg.value == _ethAmount); \r\n      betRecords[msg.sender] = msg.value; // add players and corresponding amount deposited into mapping\r\n    }\r\n\r\n  // allow creator to cancel the game created.\r\n  function cancelGame() public isCreator(true) {\r\n    status = GameStatus.CLOSED;\r\n  }\r\n\r\n  // allow winners to withdraw their winnings\r\n  function withdrawWinnings(address payable _player) public {\r\n    require(msg.sender == _player);\r\n    require(betRecords[msg.sender] == 0);\r\n    // where to calculate amount of winnings\r\n    uint256 amount = 0;\r\n    _player.transfer(amount);\r\n  }\r\n\r\n  // to get smart contract's balance\r\n  function getBalance() public view returns (uint256) {\r\n    return address(this).balance;\r\n  }\r\n\r\n}\r\n",
  "sourcePath": "C:\\Users\\tammi\\Documents\\GitHub\\HwangMarket\\contracts\\GameContract.sol",
  "compiler": {
    "name": "solc",
    "version": "0.8.17+commit.8df45f5f.Emscripten.clang"
  },
  "schemaVersion": "3.4.10",
  "updatedAt": "2022-10-14T09:14:46.838Z",
  "devdoc": {
    "kind": "dev",
    "methods": {},
    "version": 1
  },
  "userdoc": {
    "kind": "user",
    "methods": {},
    "version": 1
  }
}