{
  "contractName": "GameContract",
  "abi": [
    {
      "inputs": [
        {
          "internalType": "address",
          "name": "hmAddr",
          "type": "address"
        },
        {
          "internalType": "uint256",
          "name": "_resolveTime",
          "type": "uint256"
        },
        {
          "internalType": "address",
          "name": "_oracleAddr",
          "type": "address"
        },
        {
          "internalType": "int256",
          "name": "thres",
          "type": "int256"
        },
        {
          "internalType": "string",
          "name": "_tag",
          "type": "string"
        },
        {
          "internalType": "string",
          "name": "_title",
          "type": "string"
        },
        {
          "internalType": "uint256",
          "name": "_id",
          "type": "uint256"
        }
      ],
      "stateMutability": "nonpayable",
      "type": "constructor"
    },
    {
      "anonymous": false,
      "inputs": [
        {
          "components": [
            {
              "internalType": "uint256",
              "name": "listingId",
              "type": "uint256"
            },
            {
              "internalType": "address",
              "name": "listingAddr",
              "type": "address"
            },
            {
              "internalType": "address",
              "name": "player1",
              "type": "address"
            },
            {
              "internalType": "address",
              "name": "token1",
              "type": "address"
            },
            {
              "internalType": "uint256",
              "name": "token1Amt",
              "type": "uint256"
            },
            {
              "internalType": "address",
              "name": "player2",
              "type": "address"
            },
            {
              "internalType": "address",
              "name": "token2",
              "type": "address"
            },
            {
              "internalType": "uint256",
              "name": "token2Amt",
              "type": "uint256"
            },
            {
              "internalType": "bool",
              "name": "fulfilled",
              "type": "bool"
            }
          ],
          "indexed": false,
          "internalType": "struct Models.ListingInfo",
          "name": "listingInfo",
          "type": "tuple"
        }
      ],
      "name": "ListingFulfilled",
      "type": "event"
    },
    {
      "anonymous": false,
      "inputs": [
        {
          "components": [
            {
              "internalType": "uint256",
              "name": "listingId",
              "type": "uint256"
            },
            {
              "internalType": "address",
              "name": "listingAddr",
              "type": "address"
            },
            {
              "internalType": "address",
              "name": "player1",
              "type": "address"
            },
            {
              "internalType": "address",
              "name": "token1",
              "type": "address"
            },
            {
              "internalType": "uint256",
              "name": "token1Amt",
              "type": "uint256"
            },
            {
              "internalType": "address",
              "name": "player2",
              "type": "address"
            },
            {
              "internalType": "address",
              "name": "token2",
              "type": "address"
            },
            {
              "internalType": "uint256",
              "name": "token2Amt",
              "type": "uint256"
            },
            {
              "internalType": "bool",
              "name": "fulfilled",
              "type": "bool"
            }
          ],
          "indexed": false,
          "internalType": "struct Models.ListingInfo",
          "name": "listingInfo",
          "type": "tuple"
        }
      ],
      "name": "NewListing",
      "type": "event"
    },
    {
      "inputs": [],
      "name": "gameInfo",
      "outputs": [
        {
          "internalType": "uint256",
          "name": "id",
          "type": "uint256"
        },
        {
          "internalType": "uint256",
          "name": "createdTime",
          "type": "uint256"
        },
        {
          "internalType": "address",
          "name": "addr",
          "type": "address"
        },
        {
          "internalType": "string",
          "name": "tag",
          "type": "string"
        },
        {
          "internalType": "string",
          "name": "title",
          "type": "string"
        },
        {
          "internalType": "address",
          "name": "oracleAddr",
          "type": "address"
        },
        {
          "internalType": "uint256",
          "name": "resolveTime",
          "type": "uint256"
        },
        {
          "internalType": "int256",
          "name": "threshold",
          "type": "int256"
        },
        {
          "internalType": "uint256",
          "name": "totalAmount",
          "type": "uint256"
        },
        {
          "internalType": "uint256",
          "name": "betYesAmount",
          "type": "uint256"
        },
        {
          "internalType": "uint256",
          "name": "betNoAmount",
          "type": "uint256"
        },
        {
          "internalType": "uint8",
          "name": "gameOutcome",
          "type": "uint8"
        }
      ],
      "stateMutability": "view",
      "type": "function"
    },
    {
      "inputs": [],
      "name": "gameNoTokenContractAddress",
      "outputs": [
        {
          "internalType": "address",
          "name": "",
          "type": "address"
        }
      ],
      "stateMutability": "view",
      "type": "function"
    },
    {
      "inputs": [],
      "name": "gameYesTokenContractAddress",
      "outputs": [
        {
          "internalType": "address",
          "name": "",
          "type": "address"
        }
      ],
      "stateMutability": "view",
      "type": "function"
    },
    {
      "inputs": [],
      "name": "hwangMarketAddr",
      "outputs": [
        {
          "internalType": "address",
          "name": "",
          "type": "address"
        }
      ],
      "stateMutability": "view",
      "type": "function"
    },
    {
      "inputs": [],
      "name": "listingsCount",
      "outputs": [
        {
          "internalType": "uint256",
          "name": "",
          "type": "uint256"
        }
      ],
      "stateMutability": "view",
      "type": "function"
    },
    {
      "inputs": [
        {
          "internalType": "address",
          "name": "_player",
          "type": "address"
        },
        {
          "internalType": "uint256",
          "name": "token1Amt",
          "type": "uint256"
        },
        {
          "internalType": "address",
          "name": "token2",
          "type": "address"
        },
        {
          "internalType": "uint256",
          "name": "token2Amt",
          "type": "uint256"
        }
      ],
      "name": "newListing",
      "outputs": [
        {
          "components": [
            {
              "internalType": "uint256",
              "name": "listingId",
              "type": "uint256"
            },
            {
              "internalType": "address",
              "name": "listingAddr",
              "type": "address"
            },
            {
              "internalType": "address",
              "name": "player1",
              "type": "address"
            },
            {
              "internalType": "address",
              "name": "token1",
              "type": "address"
            },
            {
              "internalType": "uint256",
              "name": "token1Amt",
              "type": "uint256"
            },
            {
              "internalType": "address",
              "name": "player2",
              "type": "address"
            },
            {
              "internalType": "address",
              "name": "token2",
              "type": "address"
            },
            {
              "internalType": "uint256",
              "name": "token2Amt",
              "type": "uint256"
            },
            {
              "internalType": "bool",
              "name": "fulfilled",
              "type": "bool"
            }
          ],
          "internalType": "struct Models.ListingInfo",
          "name": "",
          "type": "tuple"
        }
      ],
      "stateMutability": "nonpayable",
      "type": "function"
    },
    {
      "inputs": [
        {
          "internalType": "uint256",
          "name": "listingId",
          "type": "uint256"
        }
      ],
      "name": "getListingContractAddressById",
      "outputs": [
        {
          "internalType": "address",
          "name": "",
          "type": "address"
        }
      ],
      "stateMutability": "view",
      "type": "function"
    },
    {
      "inputs": [],
      "name": "getGameInfo",
      "outputs": [
        {
          "components": [
            {
              "internalType": "uint256",
              "name": "id",
              "type": "uint256"
            },
            {
              "internalType": "uint256",
              "name": "createdTime",
              "type": "uint256"
            },
            {
              "internalType": "address",
              "name": "addr",
              "type": "address"
            },
            {
              "internalType": "string",
              "name": "tag",
              "type": "string"
            },
            {
              "internalType": "string",
              "name": "title",
              "type": "string"
            },
            {
              "internalType": "address",
              "name": "oracleAddr",
              "type": "address"
            },
            {
              "internalType": "uint256",
              "name": "resolveTime",
              "type": "uint256"
            },
            {
              "internalType": "int256",
              "name": "threshold",
              "type": "int256"
            },
            {
              "internalType": "uint256",
              "name": "totalAmount",
              "type": "uint256"
            },
            {
              "internalType": "uint256",
              "name": "betYesAmount",
              "type": "uint256"
            },
            {
              "internalType": "uint256",
              "name": "betNoAmount",
              "type": "uint256"
            },
            {
              "internalType": "uint8",
              "name": "gameOutcome",
              "type": "uint8"
            }
          ],
          "internalType": "struct Models.GameMetadata",
          "name": "",
          "type": "tuple"
        }
      ],
      "stateMutability": "view",
      "type": "function"
    },
    {
      "inputs": [],
      "name": "getAllListings",
      "outputs": [
        {
          "components": [
            {
              "internalType": "uint256",
              "name": "listingId",
              "type": "uint256"
            },
            {
              "internalType": "address",
              "name": "listingAddr",
              "type": "address"
            },
            {
              "internalType": "address",
              "name": "player1",
              "type": "address"
            },
            {
              "internalType": "address",
              "name": "token1",
              "type": "address"
            },
            {
              "internalType": "uint256",
              "name": "token1Amt",
              "type": "uint256"
            },
            {
              "internalType": "address",
              "name": "player2",
              "type": "address"
            },
            {
              "internalType": "address",
              "name": "token2",
              "type": "address"
            },
            {
              "internalType": "uint256",
              "name": "token2Amt",
              "type": "uint256"
            },
            {
              "internalType": "bool",
              "name": "fulfilled",
              "type": "bool"
            }
          ],
          "internalType": "struct Models.ListingInfo[]",
          "name": "",
          "type": "tuple[]"
        }
      ],
      "stateMutability": "view",
      "type": "function"
    },
    {
      "inputs": [
        {
          "components": [
            {
              "internalType": "uint256",
              "name": "listingId",
              "type": "uint256"
            },
            {
              "internalType": "address",
              "name": "listingAddr",
              "type": "address"
            },
            {
              "internalType": "address",
              "name": "player1",
              "type": "address"
            },
            {
              "internalType": "address",
              "name": "token1",
              "type": "address"
            },
            {
              "internalType": "uint256",
              "name": "token1Amt",
              "type": "uint256"
            },
            {
              "internalType": "address",
              "name": "player2",
              "type": "address"
            },
            {
              "internalType": "address",
              "name": "token2",
              "type": "address"
            },
            {
              "internalType": "uint256",
              "name": "token2Amt",
              "type": "uint256"
            },
            {
              "internalType": "bool",
              "name": "fulfilled",
              "type": "bool"
            }
          ],
          "internalType": "struct Models.ListingInfo",
          "name": "listingInfo",
          "type": "tuple"
        }
      ],
      "name": "updateListing",
      "outputs": [],
      "stateMutability": "nonpayable",
      "type": "function"
    },
    {
      "inputs": [],
      "name": "getLatestPrice",
      "outputs": [
        {
          "internalType": "int256",
          "name": "",
          "type": "int256"
        }
      ],
      "stateMutability": "view",
      "type": "function"
    },
    {
      "inputs": [
        {
          "internalType": "address",
          "name": "_player",
          "type": "address"
        },
        {
          "internalType": "uint256",
          "name": "hwangMktTokenAmt",
          "type": "uint256"
        },
        {
          "internalType": "uint8",
          "name": "betSide",
          "type": "uint8"
        }
      ],
      "name": "addPlayer",
      "outputs": [],
      "stateMutability": "nonpayable",
      "type": "function"
    },
    {
      "inputs": [],
      "name": "performUpkeep",
      "outputs": [],
      "stateMutability": "nonpayable",
      "type": "function"
    },
    {
      "inputs": [
        {
          "internalType": "uint256",
          "name": "withdrawAmt",
          "type": "uint256"
        }
      ],
      "name": "withdrawWinnings",
      "outputs": [],
      "stateMutability": "nonpayable",
      "type": "function"
    }
  ],
  "bytecode": "0x60806040523480156200001157600080fd5b5060405162004c2038038062004c20833981016040819052620000349162000415565b60008054600160a060020a03808a16600160a060020a0319928316178355600d8054918916918316821790556040805161018081018252858152426020820181905230928201839052606082018990526080820188905260a082019390935260c081018b905260e08101899052610100810185905261012081018590526101408101859052610160810194909452600185815560029290925560038054909316179091556004620000e6868262000569565b5060808201516004820190620000fd908262000569565b5060a0820151600582018054600160a060020a031916600160a060020a0390921691909117905560c0820151600682015560e0820151600782015561010082015160088201556101208201516009820155610140820151600a82015561016090910151600b909101805460ff191660ff9092169190911790556040516000906103e8906200018b906200030c565b6060808252600b908201527f47616d654e6f546f6b656e000000000000000000000000000000000000000000608082015260a0602082018190526003908201527f474e54000000000000000000000000000000000000000000000000000000000060c0820152604081019190915260e001604051809103906000f08015801562000219573d6000803e3d6000fd5b5060108054600160a060020a031916600160a060020a0383161790556040519091506000906103e8906200024d906200030c565b6060808252600c908201527f47616d65596573546f6b656e0000000000000000000000000000000000000000608082015260a0602082018190526003908201527f475954000000000000000000000000000000000000000000000000000000000060c0820152604081019190915260e001604051809103906000f080158015620002db573d6000803e3d6000fd5b5060118054600160a060020a031916600160a060020a0392909216919091179055506200063b975050505050505050565b61177b80620034a583390190565b8051600160a060020a03811681146200033257600080fd5b919050565b7f4e487b7100000000000000000000000000000000000000000000000000000000600052604160045260246000fd5b600082601f8301126200037857600080fd5b81516001604060020a038082111562000395576200039562000337565b604051601f8301601f19908116603f01168101908282118183101715620003c057620003c062000337565b81604052838152602092508683858801011115620003dd57600080fd5b600091505b83821015620004015785820183015181830184015290820190620003e2565b600093810190920192909252949350505050565b600080600080600080600060e0888a0312156200043157600080fd5b6200043c886200031a565b96506020880151955062000453604089016200031a565b94506060880151935060808801516001604060020a03808211156200047757600080fd5b620004858b838c0162000366565b945060a08a01519150808211156200049c57600080fd5b50620004ab8a828b0162000366565b92505060c0880151905092959891949750929550565b600281046001821680620004d657607f821691505b60208210810362000510577f4e487b7100000000000000000000000000000000000000000000000000000000600052602260045260246000fd5b50919050565b601f82111562000564576000818152602081206020601f860104810160208610156200053f5750805b6020601f860104820191505b8181101562000560578281556001016200054b565b5050505b505050565b81516001604060020a0381111562000585576200058562000337565b6200059d81620005968454620004c1565b8462000516565b602080601f831160018114620005d95760008415620005bc5750858301515b60028086026008870290910a600019041982161786555062000560565b600085815260208120601f198616915b828110156200060a57888601518255948401946001909101908401620005e9565b50858210156200062b57878501516008601f88160260020a60001904191681555b5050505050600202600101905550565b612e5a806200064b6000396000f3fe60806040523480156200001157600080fd5b50600436106200011a576000357c0100000000000000000000000000000000000000000000000000000000900480637256eba411620000b4578063ae73ccec116200008b578063ae73ccec1462000219578063db73bfce1462000232578063dc8046f01462000256578063e07056af146200026d57600080fd5b80637256eba414620001e4578063846c6f4f14620001fb5780638e15f473146200020f57600080fd5b806341ef10c811620000f557806341ef10c81462000180578063434ad5c814620001ad57806346b1df0414620001c15780636e4d243a14620001da57600080fd5b806314794702146200011f5780631746bd1b14620001385780632cd1adfe146200015a575b600080fd5b620001366200013036600462001908565b62000284565b005b6200014262000905565b6040516200015191906200196a565b60405180910390f35b620001716200016b36600462001a7a565b62000b3d565b60405162000151919062001b61565b6010546200019490600160a060020a031681565b604051600160a060020a03909116815260200162000151565b6000546200019490600160a060020a031681565b620001cb60175481565b60405190815260200162000151565b6200013662000de0565b62000136620001f536600462001b78565b62000ea4565b6011546200019490600160a060020a031681565b620001cb620013c8565b620002236200146c565b60405162000151919062001bc4565b6200023c62001508565b604051620001519c9b9a9998979695949392919062001c17565b620001366200026736600462001d4c565b6200168a565b620001946200027e36600462001908565b6200174f565b600c5460ff16600003620002f9576040517f08c379a000000000000000000000000000000000000000000000000000000000815260206004820152601e60248201527f67616d65206f7574636f6d652063616e6e6f7420626520756e6b6e6f776e000060448201526064015b60405180910390fd5b601054600c54600160a060020a039091169060ff16600103620003245750601154600160a060020a03165b6040517fdd62ed3e0000000000000000000000000000000000000000000000000000000081523360048201523060248201528290600160a060020a0383169063dd62ed3e90604401602060405180830381865afa1580156200038a573d6000803e3d6000fd5b505050506040513d601f19601f82011682018060405250810190620003b0919062001dfc565b101562000440576040517f08c379a000000000000000000000000000000000000000000000000000000000815260206004820152602360248201527f706c61796572206d75737420617070726f766520776974686472617720616d6f60448201527f756e7400000000000000000000000000000000000000000000000000000000006064820152608401620002f0565b6040517f70a082310000000000000000000000000000000000000000000000000000000081523360048201528290600160a060020a038316906370a0823190602401602060405180830381865afa158015620004a0573d6000803e3d6000fd5b505050506040513d601f19601f82011682018060405250810190620004c6919062001dfc565b101562000556576040517f08c379a000000000000000000000000000000000000000000000000000000000815260206004820152602e60248201527f706c61796572206d75737420686176652067616d6520746f6b656e20616d6f7560448201527f6e7420746f2077697468647261770000000000000000000000000000000000006064820152608401620002f0565b600b54600a54600c5460ff1660010362000573575050600a54600b545b6000846200058360018062001e45565b6200058f919062001e81565b905060008183620005a1868362001e45565b620005ad919062001e81565b620005b9919062001e9b565b905060008054906101000a9004600160a060020a0316600160a060020a031663ce1f335c6040518163ffffffff167c0100000000000000000000000000000000000000000000000000000000028152600401602060405180830381865afa15801562000629573d6000803e3d6000fd5b505050506040513d601f19601f820116820180604052508101906200064f919062001ebe565b6040517fa9059cbb00000000000000000000000000000000000000000000000000000000815233600482015260248101839052600160a060020a03919091169063a9059cbb906044016020604051808303816000875af1158015620006b8573d6000803e3d6000fd5b505050506040513d601f19601f82011682018060405250810190620006de919062001ef2565b50620006ed85333089620017f4565b6040805160e081018252600f54815281518083018352600881527f574954484452415700000000000000000000000000000000000000000000000060208281019190915282019081529181018390524260608201819052600c5460ff1660808301523060a08301523360c0830152600e8054600181018255600091909152825160069091027fbb7b4a454dc3493923482f07822329ed19e8244eff582cc204f8554c3620c3fd81019182559351919390917fbb7b4a454dc3493923482f07822329ed19e8244eff582cc204f8554c3620c3fe90910190620007cf908262001fba565b506040820151600282015560608201516003820155608082015160048201805460a085015160ff90931674ffffffffffffffffffffffffffffffffffffffffff1990911617610100600160a060020a039384160217905560c0909201516005909101805473ffffffffffffffffffffffffffffffffffffffff191691909216179055600f805490600062000863836200208d565b9091555050600054600c546040517f7976948800000000000000000000000000000000000000000000000000000000815233600482015260ff90911660248201526044810184905260648101839052600160a060020a03909116906379769488906084015b600060405180830381600087803b158015620008e357600080fd5b505af1158015620008f8573d6000803e3d6000fd5b5050505050505050505050565b6200097f60405180610180016040528060008152602001600081526020016000600160a060020a0316815260200160608152602001606081526020016000600160a060020a031681526020016000815260200160008152602001600081526020016000815260200160008152602001600060ff1681525090565b60408051610180810182526001805482526002546020830152600354600160a060020a03169282019290925260048054919291606084019190620009c39062001f12565b80601f0160208091040260200160405190810160405280929190818152602001828054620009f19062001f12565b801562000a425780601f1062000a165761010080835404028352916020019162000a42565b820191906000526020600020905b81548152906001019060200180831162000a2457829003601f168201915b5050505050815260200160048201805462000a5d9062001f12565b80601f016020809104026020016040519081016040528092919081815260200182805462000a8b9062001f12565b801562000adc5780601f1062000ab05761010080835404028352916020019162000adc565b820191906000526020600020905b81548152906001019060200180831162000abe57829003601f168201915b50505091835250506005820154600160a060020a03166020820152600682015460408201526007820154606082015260088201546080820152600982015460a0820152600a82015460c0820152600b9091015460ff1660e090910152919050565b6040805161012081018252600080825260208201819052918101829052606081018290526080810182905260a0810182905260c0810182905260e08101829052610100810191909152601054600160a060020a031633148062000baa5750601154600160a060020a031633145b62000c38576040517f08c379a000000000000000000000000000000000000000000000000000000000815260206004820152602760248201527f6f6e6c792067616d6520746f6b656e2063616e20637265617465206e6577206c60448201527f697374696e6773000000000000000000000000000000000000000000000000006064820152608401620002f0565b60006017549050600081873388888860405162000c5590620018fa565b958652600160a060020a03948516602087015292841660408601526060850191909152909116608083015260a082015260c001604051809103906000f08015801562000ca5573d6000803e3d6000fd5b506040805161012081018252848152600160a060020a0380841660208301528a811682840152336060830152608082018a9052600060a0830181905290891660c083015260e0820188905261010082015290517f070b5eb40000000000000000000000000000000000000000000000000000000081529192509073__IterableMapping_______________________9063070b5eb49062000d509060129087908690600401620020a9565b60006040518083038186803b15801562000d6957600080fd5b505af415801562000d7e573d6000803e3d6000fd5b50506017805492509050600062000d95836200208d565b91905055507fd1fe3704bd3aa4f4974d5168e39528bbb86b19e98e5f798beea49af58df301398160405162000dcb919062001b61565b60405180910390a1925050505b949350505050565b60075442108062000df55750600c5460ff1615155b1562000dfd57565b60085460029062000e0d620013c8565b1262000e17575060015b600c805460ff191660ff83169081179091556000546040517fe362937d0000000000000000000000000000000000000000000000000000000081526004810192909252600160a060020a03169063e362937d90602401600060405180830381600087803b15801562000e8857600080fd5b505af115801562000e9d573d6000803e3d6000fd5b5050505050565b600c5460ff161562000f39576040517f08c379a000000000000000000000000000000000000000000000000000000000815260206004820152602860248201527f47616d6520697320636c6f7365642c206e6f206675727468657220626574732060448201527f61636365707465640000000000000000000000000000000000000000000000006064820152608401620002f0565b8060ff166001148062000f4f57508060ff166002145b62000fb7576040517f08c379a000000000000000000000000000000000000000000000000000000000815260206004820152601a60248201527f6265742073696465206973206e6f74207265636f676e697365640000000000006044820152606401620002f0565b6007544211156200104b576040517f08c379a000000000000000000000000000000000000000000000000000000000815260206004820152602260248201527f63616e6e6f74207075742062657473206166746572207265736f6c766520746960448201527f6d650000000000000000000000000000000000000000000000000000000000006064820152608401620002f0565b601054600160a060020a031660ff8216600103620010715750601154600160a060020a03165b60006200108060018562001e81565b6040517f40c10f19000000000000000000000000000000000000000000000000000000008152600160a060020a03878116600483015260248201839052919250908316906340c10f1990604401600060405180830381600087803b158015620010e857600080fd5b505af1158015620010fd573d6000803e3d6000fd5b5050600054604080517fce1f335c0000000000000000000000000000000000000000000000000000000081529051600160a060020a0390921693506200119b9250839163ce1f335c916004808201926020929091908290030181865afa1580156200116c573d6000803e3d6000fd5b505050506040513d601f19601f8201168201806040525081019062001192919062001ebe565b873088620017f4565b8360ff16600103620011ca578460016009016000828254620011be919062001e9b565b90915550620011e79050565b846001600a016000828254620011e1919062001e9b565b90915550505b6040805160e081018252600f54815281518083018352600381527f42455400000000000000000000000000000000000000000000000000000000006020828101919091528201908152918101879052426060820181905260ff871660808301523060a0830152600160a060020a03891660c0830152600e8054600181018255600091909152825160069091027fbb7b4a454dc3493923482f07822329ed19e8244eff582cc204f8554c3620c3fd81019182559351919390917fbb7b4a454dc3493923482f07822329ed19e8244eff582cc204f8554c3620c3fe90910190620012d0908262001fba565b506040820151600282015560608201516003820155608082015160048201805460a085015160ff90931674ffffffffffffffffffffffffffffffffffffffffff1990911617610100600160a060020a039384160217905560c0909201516005909101805473ffffffffffffffffffffffffffffffffffffffff191691909216179055600f805490600062001364836200208d565b90915550506040517f5039eb97000000000000000000000000000000000000000000000000000000008152600160a060020a03888116600483015260ff871660248301526044820188905260648201839052831690635039eb9790608401620008c8565b600080600d60009054906101000a9004600160a060020a0316600160a060020a031663feaf968c6040518163ffffffff167c010000000000000000000000000000000000000000000000000000000002815260040160a060405180830381865afa1580156200143b573d6000803e3d6000fd5b505050506040513d601f19601f82011682018060405250810190620014619190620020e2565b509195945050505050565b6040517f75a02c200000000000000000000000000000000000000000000000000000000081526012600482015260609073__IterableMapping_______________________906375a02c2090602401600060405180830381865af4158015620014d9573d6000803e3d6000fd5b505050506040513d6000823e601f3d908101601f19168201604052620015039190810190620021e8565b905090565b600180546002546003546004805493949293600160a060020a039092169291620015329062001f12565b80601f0160208091040260200160405190810160405280929190818152602001828054620015609062001f12565b8015620015b15780601f106200158557610100808354040283529160200191620015b1565b820191906000526020600020905b8154815290600101906020018083116200159357829003601f168201915b505050505090806004018054620015c89062001f12565b80601f0160208091040260200160405190810160405280929190818152602001828054620015f69062001f12565b8015620016475780601f106200161b5761010080835404028352916020019162001647565b820191906000526020600020905b8154815290600101906020018083116200162957829003601f168201915b5050505060058301546006840154600785015460088601546009870154600a880154600b909801549697600160a060020a03909516969395509193909260ff168c565b80516040517f070b5eb400000000000000000000000000000000000000000000000000000000815273__IterableMapping_______________________9163070b5eb491620016e1916012918690600401620020a9565b60006040518083038186803b158015620016fa57600080fd5b505af41580156200170f573d6000803e3d6000fd5b505050507f4758bcd8e425945eea731ed13074c209c3176197b970b6a78b278ad015ae90788160405162001744919062001b61565b60405180910390a150565b6040517fd31c830c000000000000000000000000000000000000000000000000000000008152601260048201526024810182905260009073__IterableMapping_______________________9063d31c830c9060440161012060405180830381865af4158015620017c4573d6000803e3d6000fd5b505050506040513d601f19601f82011682018060405250810190620017ea9190620022a5565b6020015192915050565b6040517f23b872dd000000000000000000000000000000000000000000000000000000008152600160a060020a038481166004830152838116602483015260448201839052600091908616906323b872dd906064016020604051808303816000875af115801562001869573d6000803e3d6000fd5b505050506040513d601f19601f820116820180604052508101906200188f919062001ef2565b90508062000e9d576040517f08c379a000000000000000000000000000000000000000000000000000000000815260206004820152601560248201527f546f6b656e207472616e73666572206661696c656400000000000000000000006044820152606401620002f0565b610b5f80620022c683390190565b6000602082840312156200191b57600080fd5b5035919050565b6000815180845260005b818110156200194a576020818501810151868301820152016200192c565b506000602082860101526020601f19601f83011685010191505092915050565b602081528151602082015260208201516040820152600060408301516200199c6060840182600160a060020a03169052565b506060830151610180806080850152620019bb6101a085018362001922565b91506080850151601f198584030160a0860152620019da838262001922565b92505060a0850151620019f860c0860182600160a060020a03169052565b5060c085015160e085810191909152850151610100808601919091528501516101208086019190915285015161014080860191909152850151610160808601919091529094015160ff169390920192909252919050565b600160a060020a038116811462001a6557600080fd5b50565b803562001a758162001a4f565b919050565b6000806000806080858703121562001a9157600080fd5b843562001a9e8162001a4f565b935060208501359250604085013562001ab78162001a4f565b9396929550929360600135925050565b805182526020810151600160a060020a03808216602085015280604084015116604085015280606084015116606085015250506080810151608083015260a081015162001b1f60a0840182600160a060020a03169052565b5060c081015162001b3b60c0840182600160a060020a03169052565b5060e081015160e08301526101008082015162001b5b8285018215159052565b50505050565b610120810162001b72828462001ac7565b92915050565b60008060006060848603121562001b8e57600080fd5b833562001b9b8162001a4f565b925060208401359150604084013560ff8116811462001bb957600080fd5b809150509250925092565b6020808252825182820181905260009190848201906040850190845b8181101562001c0b5762001bf683855162001ac7565b92840192610120929092019160010162001be0565b50909695505050505050565b60006101808e83528d6020840152600160a060020a03808e16604085015281606085015262001c498285018e62001922565b9150838203608085015262001c5f828d62001922565b9a1660a0840152505060c081019690965260e086019490945261010085019290925261012084015261014083015260ff166101609091015295945050505050565b7f4e487b7100000000000000000000000000000000000000000000000000000000600052604160045260246000fd5b604051610120810167ffffffffffffffff8111828210171562001cf65762001cf662001ca0565b60405290565b604051601f8201601f1916810167ffffffffffffffff8111828210171562001d285762001d2862001ca0565b604052919050565b801515811462001a6557600080fd5b803562001a758162001d30565b6000610120828403121562001d6057600080fd5b62001d6a62001ccf565b8235815262001d7c6020840162001a68565b602082015262001d8f6040840162001a68565b604082015262001da26060840162001a68565b60608201526080830135608082015262001dbf60a0840162001a68565b60a082015262001dd260c0840162001a68565b60c082015260e083013560e082015261010062001df181850162001d3f565b908201529392505050565b60006020828403121562001e0f57600080fd5b5051919050565b7f4e487b7100000000000000000000000000000000000000000000000000000000600052601160045260246000fd5b60008262001e7c577f4e487b7100000000000000000000000000000000000000000000000000000000600052601260045260246000fd5b500490565b808202811582820484141762001b725762001b7262001e16565b8082018082111562001b725762001b7262001e16565b805162001a758162001a4f565b60006020828403121562001ed157600080fd5b815162001ede8162001a4f565b9392505050565b805162001a758162001d30565b60006020828403121562001f0557600080fd5b815162001ede8162001d30565b60028104600182168062001f2757607f821691505b60208210810362001f61577f4e487b7100000000000000000000000000000000000000000000000000000000600052602260045260246000fd5b50919050565b601f82111562001fb5576000818152602081206020601f8601048101602086101562001f905750805b6020601f860104820191505b8181101562001fb15782815560010162001f9c565b5050505b505050565b815167ffffffffffffffff81111562001fd75762001fd762001ca0565b62001fef8162001fe8845462001f12565b8462001f67565b602080601f8311600181146200202b57600084156200200e5750858301515b60028086026008870290910a600019041982161786555062001fb1565b600085815260208120601f198616915b828110156200205c578886015182559484019460019091019084016200203b565b50858210156200207d57878501516008601f88160260020a60001904191681555b5050505050600202600101905550565b600060018201620020a257620020a262001e16565b5060010190565b83815260208101839052610160810162000dd8604083018462001ac7565b805169ffffffffffffffffffff8116811462001a7557600080fd5b600080600080600060a08688031215620020fb57600080fd5b6200210686620020c7565b94506020860151935060408601519250606086015191506200212b60808701620020c7565b90509295509295909350565b600061012082840312156200214b57600080fd5b6200215562001ccf565b905081518152620021696020830162001eb1565b60208201526200217c6040830162001eb1565b60408201526200218f6060830162001eb1565b606082015260808201516080820152620021ac60a0830162001eb1565b60a0820152620021bf60c0830162001eb1565b60c082015260e082015160e0820152610100620021de81840162001ee5565b9082015292915050565b60006020808385031215620021fc57600080fd5b825167ffffffffffffffff808211156200221557600080fd5b818501915085601f8301126200222a57600080fd5b8151818111156200223f576200223f62001ca0565b6200224e848583020162001cfc565b81815284810192506101209182028401850191888311156200226f57600080fd5b938501935b82851015620022995762002289898662002137565b8452938401939285019262002274565b50979650505050505050565b60006101208284031215620022b957600080fd5b62001ede83836200213756fe608060405234801561001057600080fd5b50604051610b5f380380610b5f83398101604081905261002f916101ef565b6000805433600160a060020a0319918216179091556001879055600280548216600160a060020a03888116918217909255600380548416888416908117909155600587905560078054851693871693909317909255600984905560048054909316821783556040517f70a082310000000000000000000000000000000000000000000000000000000081529283015284916370a0823190602401602060405180830381865afa1580156100e6573d6000803e3d6000fd5b505050506040513d601f19601f8201168201806040525081019061010a919061024e565b101561019e57604080517f08c379a00000000000000000000000000000000000000000000000000000000081526020600482015260248101919091527f706c6179657220312068617320696e73756666696369656e742062616c616e6360448201527f65206f6620746f6b656e203120746f206372656174652061206c697374696e67606482015260840160405180910390fd5b5060088054600160a060020a031916600160a060020a03929092169190911790555050600a805460ff19169055506102679050565b8051600160a060020a03811681146101ea57600080fd5b919050565b60008060008060008060c0878903121561020857600080fd5b86519550610218602088016101d3565b9450610226604088016101d3565b93506060870151925061023b608088016101d3565b915060a087015190509295509295509295565b60006020828403121561026057600080fd5b5051919050565b6108e9806102766000396000f3fe608060405234801561001057600080fd5b50600436106100f1576000357c010000000000000000000000000000000000000000000000000000000090048063c4e5edcd1161009e578063d548804811610078578063d548804814610220578063d70c670314610240578063e2d46f981461024957600080fd5b8063c4e5edcd146101d7578063d21220a7146101e0578063d30895e41461020057600080fd5b806359a5f12d116100cf57806359a5f12d146101805780636f6ff405146101a05780639405dfdd146101c057600080fd5b806302d05d3f146100f657806325be124e1461014057806358aaf0be14610160575b600080fd5b6000546101169073ffffffffffffffffffffffffffffffffffffffff1681565b60405173ffffffffffffffffffffffffffffffffffffffff90911681526020015b60405180910390f35b6007546101169073ffffffffffffffffffffffffffffffffffffffff1681565b6008546101169073ffffffffffffffffffffffffffffffffffffffff1681565b6006546101169073ffffffffffffffffffffffffffffffffffffffff1681565b6101b36101ae366004610756565b610266565b6040516101379190610793565b6101c960015481565b604051908152602001610137565b6101c960095481565b6003546101169073ffffffffffffffffffffffffffffffffffffffff1681565b6002546101169073ffffffffffffffffffffffffffffffffffffffff1681565b6004546101169073ffffffffffffffffffffffffffffffffffffffff1681565b6101c960055481565b600a546102569060ff1681565b6040519015158152602001610137565b6040805161012081018252600080825260208201819052918101829052606081018290526080810182905260a0810182905260c0810182905260e08101829052610100810191909152600554600480546002546040517fdd62ed3e00000000000000000000000000000000000000000000000000000000815273ffffffffffffffffffffffffffffffffffffffff91821693810193909352306024840152169063dd62ed3e90604401602060405180830381865afa15801561032c573d6000803e3d6000fd5b505050506040513d601f19601f820116820180604052508101906103509190610878565b10156103bd576040517f08c379a000000000000000000000000000000000000000000000000000000000815260206004820152601960248201527f546f6b656e203120616c6c6f77616e636520746f6f206c6f770000000000000060448201526064015b60405180910390fd5b6009546008546040517fdd62ed3e00000000000000000000000000000000000000000000000000000000815273ffffffffffffffffffffffffffffffffffffffff85811660048301523060248301529091169063dd62ed3e90604401602060405180830381865afa158015610436573d6000803e3d6000fd5b505050506040513d601f19601f8201168201806040525081019061045a9190610878565b10156104c2576040517f08c379a000000000000000000000000000000000000000000000000000000000815260206004820152601960248201527f546f6b656e203220616c6c6f77616e636520746f6f206c6f770000000000000060448201526064016103b4565b6004546002546005546104f19273ffffffffffffffffffffffffffffffffffffffff9081169216908590610641565b6008546002546009546105219273ffffffffffffffffffffffffffffffffffffffff908116928692911690610641565b600680547fffffffffffffffffffffffff00000000000000000000000000000000000000001673ffffffffffffffffffffffffffffffffffffffff848116918217909255600a805460ff1916600190811790915560408051610120810182528254815230602082015260025485168183015260035485166060820152600554608082015260a0810193909352600754841660c084015260095460e084015261010083019190915260005490517fdc8046f00000000000000000000000000000000000000000000000000000000081529192169063dc8046f090610608908490600401610793565b600060405180830381600087803b15801561062257600080fd5b505af1158015610636573d6000803e3d6000fd5b509295945050505050565b6040517f23b872dd00000000000000000000000000000000000000000000000000000000815273ffffffffffffffffffffffffffffffffffffffff8481166004830152838116602483015260448201839052600091908616906323b872dd906064016020604051808303816000875af11580156106c2573d6000803e3d6000fd5b505050506040513d601f19601f820116820180604052508101906106e69190610891565b90508061074f576040517f08c379a000000000000000000000000000000000000000000000000000000000815260206004820152601560248201527f546f6b656e207472616e73666572206661696c6564000000000000000000000060448201526064016103b4565b5050505050565b60006020828403121561076857600080fd5b813573ffffffffffffffffffffffffffffffffffffffff8116811461078c57600080fd5b9392505050565b60006101208201905082518252602083015173ffffffffffffffffffffffffffffffffffffffff8082166020850152806040860151166040850152505060608301516107f7606084018273ffffffffffffffffffffffffffffffffffffffff169052565b506080830151608083015260a083015161082960a084018273ffffffffffffffffffffffffffffffffffffffff169052565b5060c083015161085160c084018273ffffffffffffffffffffffffffffffffffffffff169052565b5060e083015160e0830152610100808401516108708285018215159052565b505092915050565b60006020828403121561088a57600080fd5b5051919050565b6000602082840312156108a357600080fd5b8151801515811461078c57600080fdfea2646970667358221220d6edd0e9556064eb4f1f8e79321bc4fc7bf800c481eef563086f3011097a3f7b64736f6c63430008110033a2646970667358221220827416cd383ae1b24f31147c2818e51b1c53decedb121f4f22b2f6f819f8729c64736f6c6343000811003360806040523480156200001157600080fd5b506040516200177b3803806200177b833981016040819052620000349162000164565b60068054600160a060020a0319163317905560046200005484826200027f565b5060056200006383826200027f565b506000908155600155505060078054600160a060020a0319163317905562000351565b7f4e487b7100000000000000000000000000000000000000000000000000000000600052604160045260246000fd5b600082601f830112620000c757600080fd5b81516001604060020a0380821115620000e457620000e462000086565b604051601f8301601f19908116603f011681019082821181831017156200010f576200010f62000086565b816040528381526020925086838588010111156200012c57600080fd5b600091505b8382101562000150578582018301518183018401529082019062000131565b600093810190920192909252949350505050565b6000806000606084860312156200017a57600080fd5b83516001604060020a03808211156200019257600080fd5b620001a087838801620000b5565b94506020860151915080821115620001b757600080fd5b50620001c686828701620000b5565b925050604084015190509250925092565b600281046001821680620001ec57607f821691505b60208210810362000226577f4e487b7100000000000000000000000000000000000000000000000000000000600052602260045260246000fd5b50919050565b601f8211156200027a576000818152602081206020601f86010481016020861015620002555750805b6020601f860104820191505b81811015620002765782815560010162000261565b5050505b505050565b81516001604060020a038111156200029b576200029b62000086565b620002b381620002ac8454620001d7565b846200022c565b602080601f831160018114620002ef5760008415620002d25750858301515b60028086026008870290910a600019041982161786555062000276565b600085815260208120601f198616915b828110156200032057888601518255948401946001909101908401620002ff565b50858210156200034157878501516008601f88160260020a60001904191681555b5050505050600202600101905550565b61141a80620003616000396000f3fe608060405234801561001057600080fd5b50600436106100fc576000357c01000000000000000000000000000000000000000000000000000000009004806342966c68116100a95780639ea3c820116100835780639ea3c820146101c5578063a9059cbb146101e5578063dd62ed3e146101f8578063de6a8dc51461022357600080fd5b806342966c681461018a57806370a082311461019d57806395d89b41146101bd57600080fd5b806319d1997a116100da57806319d1997a1461015957806323b872dd1461016257806340c10f191461017557600080fd5b806306fdde0314610101578063095ea7b31461011f57806318160ddd14610142575b600080fd5b610109610236565b6040516101169190610fd3565b60405180910390f35b61013261012d366004611039565b6102c4565b6040519015158152602001610116565b61014b60015481565b604051908152602001610116565b61014b60005481565b610132610170366004611065565b6103a8565b610188610183366004611039565b6105c8565b005b6101886101983660046110a6565b610768565b61014b6101ab3660046110bf565b60026020526000908152604090205481565b610109610859565b6101d86101d33660046110bf565b610866565b60405161011691906110e3565b6101326101f3366004611039565b610cad565b61014b610206366004611194565b600360209081526000928352604080842090915290825290205481565b6101d86102313660046111cd565b610dec565b60048054610243906111f4565b80601f016020809104026020016040519081016040528092919081815260200182805461026f906111f4565b80156102bc5780601f10610291576101008083540402835291602001916102bc565b820191906000526020600020905b81548152906001019060200180831161029f57829003601f168201915b505050505081565b33600090815260026020526040812054821115610342576040517f08c379a000000000000000000000000000000000000000000000000000000000815260206004820152601e60248201527f696e73756666696369656e742062616c616e636520696e2073656e646572000060448201526064015b60405180910390fd5b336000818152600360209081526040808320600160a060020a03881680855290835292819020869055518581529192917f8c5be1e5ebec7d5bd14f71427d1e84f3dd0314c0f7b2291e5b200ac8c7c3b92591015b60405180910390a35060015b92915050565b600160a060020a038316600090815260036020908152604080832033845290915281205482111561045b576040517f08c379a000000000000000000000000000000000000000000000000000000000815260206004820152602f60248201527f696e73756666696369656e7420616c6c6f77616e636520746f2072656369706960448201527f656e742066726f6d2073656e64657200000000000000000000000000000000006064820152608401610339565b600160a060020a0384166000908152600260205260409020548211156104dd576040517f08c379a000000000000000000000000000000000000000000000000000000000815260206004820152601e60248201527f696e73756666696369656e742062616c616e636520696e2073656e64657200006044820152606401610339565b600160a060020a038416600090815260036020908152604080832033845290915281208054849290610510908490611276565b9091555050600160a060020a0384166000908152600260205260408120805484929061053d908490611276565b9091555050600160a060020a0383166000908152600260205260408120805484929061056a908490611289565b9250508190555082600160a060020a031684600160a060020a03167fddf252ad1be2c89b69c2b068fc378daa952ba7f163c4a11628f55a4df523b3ef846040516105b691815260200190565b60405180910390a35060019392505050565b600654600160a060020a0316331461063c576040517f08c379a000000000000000000000000000000000000000000000000000000000815260206004820152600e60248201527f4e6f7420617574686f72697a65640000000000000000000000000000000000006044820152606401610339565b6000548160015461064d9190611289565b11156106dd57604080517f08c379a00000000000000000000000000000000000000000000000000000000081526020600482015260248101919091527f63616e6e6f74206d696e74207468652072657175657374656420616d6f756e7460448201527f206f6620746f6b656e732c20737570706c79206c696d697420746f6f206c6f776064820152608401610339565b600160a060020a03821660009081526002602052604081208054839290610705908490611289565b92505081905550806001600082825461071e9190611289565b9091555050604051818152600160a060020a038316906000907fddf252ad1be2c89b69c2b068fc378daa952ba7f163c4a11628f55a4df523b3ef9060200160405180910390a35050565b336000908152600260205260409020548111156107e1576040517f08c379a000000000000000000000000000000000000000000000000000000000815260206004820152601e60248201527f696e73756666696369656e742062616c616e636520696e2073656e64657200006044820152606401610339565b3360009081526002602052604081208054839290610800908490611276565b9250508190555080600160008282546108199190611276565b909155505060405181815260009033907fddf252ad1be2c89b69c2b068fc378daa952ba7f163c4a11628f55a4df523b3ef9060200160405180910390a350565b60058054610243906111f4565b6040805161012081018252600080825260208201819052918101829052606081018290526080810182905260a0810182905260c0810182905260e08101829052610100810191909152600082905030600160a060020a031681600160a060020a03166325be124e6040518163ffffffff167c0100000000000000000000000000000000000000000000000000000000028152600401602060405180830381865afa158015610918573d6000803e3d6000fd5b505050506040513d601f19601f8201168201806040525081019061093c91906112ac565b600160a060020a0316146109ac576040517f08c379a000000000000000000000000000000000000000000000000000000000815260206004820181905260248201527f6c697374696e672077616e7473206120646966666572656e7420746f6b656e326044820152606401610339565b80600160a060020a031663c4e5edcd6040518163ffffffff167c0100000000000000000000000000000000000000000000000000000000028152600401602060405180830381865afa158015610a06573d6000803e3d6000fd5b505050506040513d601f19601f82011682018060405250810190610a2a91906112c9565b336000908152600260205260409020541015610aa2576040517f08c379a000000000000000000000000000000000000000000000000000000000815260206004820152601e60248201527f696e73756666696369656e742062616c616e636520696e2073656e64657200006044820152606401610339565b80600160a060020a031663c4e5edcd6040518163ffffffff167c0100000000000000000000000000000000000000000000000000000000028152600401602060405180830381865afa158015610afc573d6000803e3d6000fd5b505050506040513d601f19601f82011682018060405250810190610b2091906112c9565b336000908152600360209081526040808320600160a060020a038816845290915281208054909190610b53908490611289565b9250508190555082600160a060020a031633600160a060020a03167f8c5be1e5ebec7d5bd14f71427d1e84f3dd0314c0f7b2291e5b200ac8c7c3b92583600160a060020a031663c4e5edcd6040518163ffffffff167c0100000000000000000000000000000000000000000000000000000000028152600401602060405180830381865afa158015610be9573d6000803e3d6000fd5b505050506040513d601f19601f82011682018060405250810190610c0d91906112c9565b60405190815260200160405180910390a36040517f6f6ff405000000000000000000000000000000000000000000000000000000008152336004820152600090600160a060020a03831690636f6ff40590602401610120604051808303816000875af1158015610c81573d6000803e3d6000fd5b505050506040513d601f19601f82011682018060405250810190610ca59190611343565b949350505050565b33600090815260026020526040812054821115610d26576040517f08c379a000000000000000000000000000000000000000000000000000000000815260206004820152601e60248201527f696e73756666696369656e742062616c616e636520696e2073656e64657200006044820152606401610339565b3360009081526002602052604081208054849290610d45908490611276565b9091555050600160a060020a03831660009081526002602052604081208054849290610d72908490611289565b9091555050336000908152600360209081526040808320600160a060020a038716845290915281208054849290610daa908490611276565b9091555050604051828152600160a060020a0384169033907fddf252ad1be2c89b69c2b068fc378daa952ba7f163c4a11628f55a4df523b3ef90602001610396565b604080516101208101825260008082526020808301829052828401829052606083018290526080830182905260a0830182905260c0830182905260e083018290526101008301829052338252600290529190912054841115610eaa576040517f08c379a000000000000000000000000000000000000000000000000000000000815260206004820152601e60248201527f696e73756666696369656e742062616c616e636520696e2073656e64657200006044820152606401610339565b6007546040517f2cd1adfe00000000000000000000000000000000000000000000000000000000815233600482015260248101869052600160a060020a038581166044830152606482018590526000921690632cd1adfe90608401610120604051808303816000875af1158015610f25573d6000803e3d6000fd5b505050506040513d601f19601f82011682018060405250810190610f499190611343565b602080820151336000908152600383526040808220600160a060020a038416835290935291822080549394509092889290610f85908490611289565b9091555050604051868152600160a060020a0382169033907f8c5be1e5ebec7d5bd14f71427d1e84f3dd0314c0f7b2291e5b200ac8c7c3b9259060200160405180910390a350949350505050565b600060208083528351808285015260005b8181101561100057858101830151858201604001528201610fe4565b506000604082860101526040601f19601f8301168501019250505092915050565b600160a060020a038116811461103657600080fd5b50565b6000806040838503121561104c57600080fd5b823561105781611021565b946020939093013593505050565b60008060006060848603121561107a57600080fd5b833561108581611021565b9250602084013561109581611021565b929592945050506040919091013590565b6000602082840312156110b857600080fd5b5035919050565b6000602082840312156110d157600080fd5b81356110dc81611021565b9392505050565b600061012082019050825182526020830151600160a060020a0380821660208501528060408601511660408501525050606083015161112d6060840182600160a060020a03169052565b506080830151608083015260a083015161115260a0840182600160a060020a03169052565b5060c083015161116d60c0840182600160a060020a03169052565b5060e083015160e08301526101008084015161118c8285018215159052565b505092915050565b600080604083850312156111a757600080fd5b82356111b281611021565b915060208301356111c281611021565b809150509250929050565b6000806000606084860312156111e257600080fd5b83359250602084013561109581611021565b60028104600182168061120857607f821691505b602082108103611241577f4e487b7100000000000000000000000000000000000000000000000000000000600052602260045260246000fd5b50919050565b7f4e487b7100000000000000000000000000000000000000000000000000000000600052601160045260246000fd5b818103818111156103a2576103a2611247565b808201808211156103a2576103a2611247565b80516112a781611021565b919050565b6000602082840312156112be57600080fd5b81516110dc81611021565b6000602082840312156112db57600080fd5b5051919050565b604051610120810167ffffffffffffffff8111828210171561132d577f4e487b7100000000000000000000000000000000000000000000000000000000600052604160045260246000fd5b60405290565b805180151581146112a757600080fd5b6000610120828403121561135657600080fd5b61135e6112e2565b8251815261136e6020840161129c565b602082015261137f6040840161129c565b60408201526113906060840161129c565b6060820152608083015160808201526113ab60a0840161129c565b60a08201526113bc60c0840161129c565b60c082015260e083015160e08201526101006113d9818501611333565b90820152939250505056fea26469706673582212201594b6a75af70c005331c92bcfc54e71ef11e6646d2da26fec5e7b0dd75614c264736f6c63430008110033",
  "immutableReferences": {},
  "source": "// SPDX-License-Identifier: MIT\npragma solidity >=0.4.22 <0.9.0;\n\nimport \"./ListingContract.sol\";\nimport \"./IListingOwner.sol\";\nimport \"./Models.sol\";\nimport \"./HwangMarket.sol\";\nimport \"./IterableMapping.sol\";\nimport \"./GameERC20Token.sol\";\nimport \"@chainlink/contracts/src/v0.8/interfaces/AggregatorV3Interface.sol\";\nimport \"@openzeppelin/contracts/token/ERC20/IERC20.sol\";\nimport \"@openzeppelin/contracts/utils/math/SafeMath.sol\";\n\ncontract GameContract is IListingOwner {\n  using SafeMath for uint256;\n  using IterableMapping for IterableMapping.ListingsMap;\n\n  address public hwangMarketAddr; \n  Models.GameMetadata public gameInfo;\n\n  AggregatorV3Interface internal priceFeed;\n\n  // Trx types constant\n  string constant BetActivityType = \"BET\";\n  string constant WithdrawActivityType = \"WITHDRAW\";\n\n  // conversion rate from 1 HMTKN to 1 Game Token\n  uint constant mainTkn2GameTknConversionRate = 1;\n  uint constant supplyLimit = 1000;\n\n  Models.Trx[] trxs;\n  uint256 internal trxId;\n\n  address public gameNoTokenContractAddress;\n  address public gameYesTokenContractAddress;\n\n  IterableMapping.ListingsMap private listingContracts;\n  uint256 public listingsCount;\n\n  event NewListing(Models.ListingInfo listingInfo);\n  event ListingFulfilled(Models.ListingInfo listingInfo);\n\n  // constructor takes in a resolve time, a oracleAddr (oracle address), and a threshold, \n  // where a gameSide of NO indicates < threshold, and a gameSide of YES indicates >= threshold\n  constructor(address hmAddr , uint256 _resolveTime, address _oracleAddr, int256 thres, string memory _tag, string memory _title, uint256 _id) {\n    hwangMarketAddr = hmAddr;\n    priceFeed = AggregatorV3Interface(_oracleAddr);\n    gameInfo = Models.GameMetadata({\n      id: _id,\n      createdTime: block.timestamp,\n      addr: address(this),\n      tag: _tag,\n      title: _title,\n      oracleAddr: _oracleAddr,\n      resolveTime: _resolveTime,\n      threshold: thres,\n      totalAmount: 0,\n      betYesAmount: 0,\n      betNoAmount: 0,\n      gameOutcome: 0\n    });\n\n    // every game contract deploys 2 IERC20 token contracts\n    // yes and no tokens\n    GameERC20Token gameNoTokenContract = new GameERC20Token(\"GameNoToken\", \"GNT\", supplyLimit);\n    gameNoTokenContractAddress = address(gameNoTokenContract);\n    GameERC20Token gameYesTokenContract = new GameERC20Token(\"GameYesToken\", \"GYT\", supplyLimit);\n    gameYesTokenContractAddress = address(gameYesTokenContract);\n  }\n\n  // creates a new listing\n  function newListing(address _player, uint256 token1Amt, address token2, uint256 token2Amt) public returns(Models.ListingInfo memory) {\n    require(msg.sender == gameNoTokenContractAddress || msg.sender == gameYesTokenContractAddress, \"only game token can create new listings\");\n    uint256 newListingId = listingsCount;\n    ListingContract newListingContract = new ListingContract(newListingId, _player, msg.sender, token1Amt, token2, token2Amt);\n    Models.ListingInfo memory listingInfo = Models.ListingInfo({\n      listingId: newListingId,\n      listingAddr: address(newListingContract),\n      player1: _player,\n      token1: msg.sender,\n      token1Amt: token1Amt,\n      player2: address(0),\n      token2: token2,\n      token2Amt: token2Amt,\n      fulfilled: false\n    });\n    listingContracts.set(newListingId, listingInfo);\n\n    listingsCount++;\n\n    emit NewListing(listingInfo);\n    return listingInfo;\n  }\n\n  function getListingContractAddressById(uint listingId) external view returns(address) {\n    return listingContracts.get(listingId).listingAddr;\n  }\n\n  function getGameInfo() external view returns (Models.GameMetadata memory) {\n    return gameInfo;\n  }\n\n  function getAllListings() external view returns (Models.ListingInfo[] memory) {\n    return listingContracts.getlistingValues();\n  }\n\n  function updateListing(Models.ListingInfo memory listingInfo) public {\n    listingContracts.set(listingInfo.listingId, listingInfo);\n\n    emit ListingFulfilled(listingInfo);\n  }\n\n  /**\n    * Returns the latest price\n    */\n  function getLatestPrice() public view returns (int) {\n      (\n          /*uint80 roundID*/,\n          int price,\n          /*uint startedAt*/,\n          /*uint timeStamp*/,\n          /*uint80 answeredInRound*/\n      ) = priceFeed.latestRoundData();\n      return price;\n  }\n\n  // payable keyword should allow depositing of ethereum into smart contract\n  // allow msg.sender address to register as a player\n  function addPlayer(address _player, uint256 hwangMktTokenAmt, uint8 betSide) public {\n      require(gameInfo.gameOutcome == 0, \"Game is closed, no further bets accepted\");\n      require(betSide == 1 || betSide == 2, \"bet side is not recognised\");\n      require(block.timestamp <= gameInfo.resolveTime, \"cannot put bets after resolve time\");\n\n      GameERC20Token gameTokenContract = GameERC20Token(gameNoTokenContractAddress);\n      if (betSide == 1) {\n        gameTokenContract = GameERC20Token(gameYesTokenContractAddress);\n      }\n      uint256 requestedMintAmt = hwangMktTokenAmt * mainTkn2GameTknConversionRate;\n      // mint the respective 1-1 game token to the player\n      gameTokenContract.mint(_player, requestedMintAmt);\n      // collect the player's main token, deposit under the game address\n      HwangMarket hm = HwangMarket(hwangMarketAddr);\n      _safeTransferFrom(IERC20(hm.mainTokenAddress()), _player, address(this), hwangMktTokenAmt);\n\n      // book keeping\n      if (betSide == 1) {\n        gameInfo.betYesAmount += hwangMktTokenAmt;\n      } else {\n        gameInfo.betNoAmount += hwangMktTokenAmt;\n      }\n      uint256 timestamp = block.timestamp;\n      trxs.push(Models.Trx({\n        trxId: trxId,\n        activityType: BetActivityType,\n        gameSide: betSide,\n        trxAmt: hwangMktTokenAmt,\n        trxTime: timestamp,\n        from: address(this),\n        to: _player\n      }));\n      trxId++;\n\n      hm.playerJoinedSide(_player, betSide, hwangMktTokenAmt, timestamp);\n    }\n\n  // impt: anyone can call the contract to perform upkeep but it has a guard to protect against early resolves\n  // and it checks against a \"trusted\" oracle chainlink to fetch the result\n  function performUpkeep() public {\n    if (block.timestamp < gameInfo.resolveTime || gameInfo.gameOutcome != 0) {\n      return;\n    }\n\n    uint8 rawSide = 2;\n    if (getLatestPrice() >= gameInfo.threshold) {\n      rawSide = 1;\n    }\n    gameInfo.gameOutcome = rawSide;\n\n    HwangMarket(hwangMarketAddr).concludeGame(rawSide);\n  }\n\n  // allow winners to withdraw their winnings in term of HMTKN\n  function withdrawWinnings(uint withdrawAmt) public {\n    require(gameInfo.gameOutcome != 0, \"game outcome cannot be unknown\"); // game outcome cannot be unknown\n    IERC20 gameTokenContract = IERC20(gameNoTokenContractAddress);\n    if (gameInfo.gameOutcome == 1) {\n      gameTokenContract = IERC20(gameYesTokenContractAddress);\n    }\n    require(gameTokenContract.allowance(msg.sender, address(this)) >= withdrawAmt, \"player must approve withdraw amount\");\n    require(gameTokenContract.balanceOf(msg.sender) >= withdrawAmt, \"player must have game token amount to withdraw\");\n\n    // where to calculate amount of winnings\n    // calculated winnings = (player's bet amount / total bet amount on winning side) * total bet amount on losing side\n    uint256 amtOnWinning = gameInfo.betNoAmount;\n    uint256 amtOnLosing = gameInfo.betYesAmount;\n    if (gameInfo.gameOutcome == 1) {\n      amtOnWinning = gameInfo.betYesAmount;\n      amtOnLosing = gameInfo.betNoAmount;\n    }\n    uint256 deposit = (1 / mainTkn2GameTknConversionRate) * withdrawAmt;\n    uint256 winnings = ((deposit / amtOnWinning) * amtOnLosing) + deposit;\n\n    // initiate transfer of hwang market tokens from game to player\n    IERC20(HwangMarket(hwangMarketAddr).mainTokenAddress()).transfer(msg.sender, winnings);\n    // initiate transfer of game token from player back to game\n    _safeTransferFrom(gameTokenContract, msg.sender, address(this), withdrawAmt);\n\n    uint256 timestamp = block.timestamp;\n    trxs.push(Models.Trx({\n      trxId: trxId,\n      activityType: WithdrawActivityType,\n      gameSide: gameInfo.gameOutcome,\n      trxAmt: winnings,\n      trxTime: timestamp,\n      from: address(this),\n      to: msg.sender\n    }));\n    trxId++;\n    HwangMarket(hwangMarketAddr).playerWithdrawWinnings(msg.sender, gameInfo.gameOutcome, winnings, timestamp);\n  }\n\n  function _safeTransferFrom(\n    IERC20 token,\n    address sender,\n    address recipient,\n    uint amount\n    ) private {\n      bool sent = token.transferFrom(sender, recipient, amount);\n      require(sent, \"Token transfer failed\");\n    }\n}\n",
  "sourcePath": "/Users/gerald/Desktop/HwangMarket/contracts/GameContract.sol",
  "compiler": {
    "name": "solc",
    "version": "0.8.17+commit.8df45f5f.Emscripten.clang"
  },
  "schemaVersion": "3.4.10",
  "updatedAt": "2022-11-03T16:20:29.485Z",
  "devdoc": {
    "kind": "dev",
    "methods": {},
    "version": 1
  },
  "userdoc": {
    "kind": "user",
    "methods": {
      "getLatestPrice()": {
        "notice": "Returns the latest price"
      }
    },
    "version": 1
  }
}