{
  "contractName": "GameContract",
  "abi": [
    {
      "inputs": [
        {
          "internalType": "address",
          "name": "hmAddr",
          "type": "address"
        },
        {
          "internalType": "uint256",
          "name": "resolveTime",
          "type": "uint256"
        },
        {
          "internalType": "address",
          "name": "_oracleAddr",
          "type": "address"
        },
        {
          "internalType": "int256",
          "name": "thres",
          "type": "int256"
        },
        {
          "internalType": "string",
          "name": "_tag",
          "type": "string"
        },
        {
          "internalType": "string",
          "name": "_title",
          "type": "string"
        },
        {
          "internalType": "uint256",
          "name": "_id",
          "type": "uint256"
        }
      ],
      "stateMutability": "nonpayable",
      "type": "constructor"
    },
    {
      "anonymous": false,
      "inputs": [
        {
          "components": [
            {
              "internalType": "uint256",
              "name": "listingId",
              "type": "uint256"
            },
            {
              "internalType": "address",
              "name": "listingAddr",
              "type": "address"
            },
            {
              "internalType": "address",
              "name": "player1",
              "type": "address"
            },
            {
              "internalType": "address",
              "name": "token1",
              "type": "address"
            },
            {
              "internalType": "uint256",
              "name": "token1Amt",
              "type": "uint256"
            },
            {
              "internalType": "address",
              "name": "player2",
              "type": "address"
            },
            {
              "internalType": "address",
              "name": "token2",
              "type": "address"
            },
            {
              "internalType": "uint256",
              "name": "token2Amt",
              "type": "uint256"
            },
            {
              "internalType": "bool",
              "name": "fulfilled",
              "type": "bool"
            }
          ],
          "indexed": false,
          "internalType": "struct Models.ListingInfo",
          "name": "listingInfo",
          "type": "tuple"
        }
      ],
      "name": "ListingFulfilled",
      "type": "event"
    },
    {
      "anonymous": false,
      "inputs": [
        {
          "components": [
            {
              "internalType": "uint256",
              "name": "listingId",
              "type": "uint256"
            },
            {
              "internalType": "address",
              "name": "listingAddr",
              "type": "address"
            },
            {
              "internalType": "address",
              "name": "player1",
              "type": "address"
            },
            {
              "internalType": "address",
              "name": "token1",
              "type": "address"
            },
            {
              "internalType": "uint256",
              "name": "token1Amt",
              "type": "uint256"
            },
            {
              "internalType": "address",
              "name": "player2",
              "type": "address"
            },
            {
              "internalType": "address",
              "name": "token2",
              "type": "address"
            },
            {
              "internalType": "uint256",
              "name": "token2Amt",
              "type": "uint256"
            },
            {
              "internalType": "bool",
              "name": "fulfilled",
              "type": "bool"
            }
          ],
          "indexed": false,
          "internalType": "struct Models.ListingInfo",
          "name": "listingInfo",
          "type": "tuple"
        }
      ],
      "name": "NewListing",
      "type": "event"
    },
    {
      "inputs": [
        {
          "internalType": "enum GameContract.gameSide",
          "name": "",
          "type": "uint8"
        }
      ],
      "name": "amtPlacedOnSide",
      "outputs": [
        {
          "internalType": "uint256",
          "name": "",
          "type": "uint256"
        }
      ],
      "stateMutability": "view",
      "type": "function"
    },
    {
      "inputs": [],
      "name": "createdTime",
      "outputs": [
        {
          "internalType": "uint256",
          "name": "",
          "type": "uint256"
        }
      ],
      "stateMutability": "view",
      "type": "function"
    },
    {
      "inputs": [],
      "name": "gameNoTokenContract",
      "outputs": [
        {
          "internalType": "contract GameERC20Token",
          "name": "",
          "type": "address"
        }
      ],
      "stateMutability": "view",
      "type": "function"
    },
    {
      "inputs": [],
      "name": "gameNoTokenContractAddress",
      "outputs": [
        {
          "internalType": "address",
          "name": "",
          "type": "address"
        }
      ],
      "stateMutability": "view",
      "type": "function"
    },
    {
      "inputs": [],
      "name": "gameOutcome",
      "outputs": [
        {
          "internalType": "enum GameContract.gameSide",
          "name": "",
          "type": "uint8"
        }
      ],
      "stateMutability": "view",
      "type": "function"
    },
    {
      "inputs": [],
      "name": "gameResolveTime",
      "outputs": [
        {
          "internalType": "uint256",
          "name": "",
          "type": "uint256"
        }
      ],
      "stateMutability": "view",
      "type": "function"
    },
    {
      "inputs": [],
      "name": "gameYesTokenContract",
      "outputs": [
        {
          "internalType": "contract GameERC20Token",
          "name": "",
          "type": "address"
        }
      ],
      "stateMutability": "view",
      "type": "function"
    },
    {
      "inputs": [],
      "name": "gameYesTokenContractAddress",
      "outputs": [
        {
          "internalType": "address",
          "name": "",
          "type": "address"
        }
      ],
      "stateMutability": "view",
      "type": "function"
    },
    {
      "inputs": [],
      "name": "hwangMarketAddr",
      "outputs": [
        {
          "internalType": "address",
          "name": "",
          "type": "address"
        }
      ],
      "stateMutability": "view",
      "type": "function"
    },
    {
      "inputs": [],
      "name": "id",
      "outputs": [
        {
          "internalType": "uint256",
          "name": "",
          "type": "uint256"
        }
      ],
      "stateMutability": "view",
      "type": "function"
    },
    {
      "inputs": [],
      "name": "listingsCount",
      "outputs": [
        {
          "internalType": "uint256",
          "name": "",
          "type": "uint256"
        }
      ],
      "stateMutability": "view",
      "type": "function"
    },
    {
      "inputs": [],
      "name": "oracleAddr",
      "outputs": [
        {
          "internalType": "address",
          "name": "",
          "type": "address"
        }
      ],
      "stateMutability": "view",
      "type": "function"
    },
    {
      "inputs": [],
      "name": "status",
      "outputs": [
        {
          "internalType": "enum GameContract.GameStatus",
          "name": "",
          "type": "uint8"
        }
      ],
      "stateMutability": "view",
      "type": "function"
    },
    {
      "inputs": [],
      "name": "tag",
      "outputs": [
        {
          "internalType": "string",
          "name": "",
          "type": "string"
        }
      ],
      "stateMutability": "view",
      "type": "function"
    },
    {
      "inputs": [],
      "name": "threshold",
      "outputs": [
        {
          "internalType": "int256",
          "name": "",
          "type": "int256"
        }
      ],
      "stateMutability": "view",
      "type": "function"
    },
    {
      "inputs": [],
      "name": "title",
      "outputs": [
        {
          "internalType": "string",
          "name": "",
          "type": "string"
        }
      ],
      "stateMutability": "view",
      "type": "function"
    },
    {
      "inputs": [
        {
          "internalType": "address",
          "name": "_player",
          "type": "address"
        },
        {
          "internalType": "uint256",
          "name": "token1Amt",
          "type": "uint256"
        },
        {
          "internalType": "address",
          "name": "token2",
          "type": "address"
        },
        {
          "internalType": "uint256",
          "name": "token2Amt",
          "type": "uint256"
        }
      ],
      "name": "newListing",
      "outputs": [
        {
          "components": [
            {
              "internalType": "uint256",
              "name": "listingId",
              "type": "uint256"
            },
            {
              "internalType": "address",
              "name": "listingAddr",
              "type": "address"
            },
            {
              "internalType": "address",
              "name": "player1",
              "type": "address"
            },
            {
              "internalType": "address",
              "name": "token1",
              "type": "address"
            },
            {
              "internalType": "uint256",
              "name": "token1Amt",
              "type": "uint256"
            },
            {
              "internalType": "address",
              "name": "player2",
              "type": "address"
            },
            {
              "internalType": "address",
              "name": "token2",
              "type": "address"
            },
            {
              "internalType": "uint256",
              "name": "token2Amt",
              "type": "uint256"
            },
            {
              "internalType": "bool",
              "name": "fulfilled",
              "type": "bool"
            }
          ],
          "internalType": "struct Models.ListingInfo",
          "name": "",
          "type": "tuple"
        }
      ],
      "stateMutability": "nonpayable",
      "type": "function"
    },
    {
      "inputs": [
        {
          "internalType": "uint256",
          "name": "listingId",
          "type": "uint256"
        }
      ],
      "name": "getListingContractAddressById",
      "outputs": [
        {
          "internalType": "address",
          "name": "",
          "type": "address"
        }
      ],
      "stateMutability": "view",
      "type": "function"
    },
    {
      "inputs": [],
      "name": "getAllListings",
      "outputs": [
        {
          "components": [
            {
              "internalType": "uint256",
              "name": "listingId",
              "type": "uint256"
            },
            {
              "internalType": "address",
              "name": "listingAddr",
              "type": "address"
            },
            {
              "internalType": "address",
              "name": "player1",
              "type": "address"
            },
            {
              "internalType": "address",
              "name": "token1",
              "type": "address"
            },
            {
              "internalType": "uint256",
              "name": "token1Amt",
              "type": "uint256"
            },
            {
              "internalType": "address",
              "name": "player2",
              "type": "address"
            },
            {
              "internalType": "address",
              "name": "token2",
              "type": "address"
            },
            {
              "internalType": "uint256",
              "name": "token2Amt",
              "type": "uint256"
            },
            {
              "internalType": "bool",
              "name": "fulfilled",
              "type": "bool"
            }
          ],
          "internalType": "struct Models.ListingInfo[]",
          "name": "",
          "type": "tuple[]"
        }
      ],
      "stateMutability": "view",
      "type": "function"
    },
    {
      "inputs": [
        {
          "components": [
            {
              "internalType": "uint256",
              "name": "listingId",
              "type": "uint256"
            },
            {
              "internalType": "address",
              "name": "listingAddr",
              "type": "address"
            },
            {
              "internalType": "address",
              "name": "player1",
              "type": "address"
            },
            {
              "internalType": "address",
              "name": "token1",
              "type": "address"
            },
            {
              "internalType": "uint256",
              "name": "token1Amt",
              "type": "uint256"
            },
            {
              "internalType": "address",
              "name": "player2",
              "type": "address"
            },
            {
              "internalType": "address",
              "name": "token2",
              "type": "address"
            },
            {
              "internalType": "uint256",
              "name": "token2Amt",
              "type": "uint256"
            },
            {
              "internalType": "bool",
              "name": "fulfilled",
              "type": "bool"
            }
          ],
          "internalType": "struct Models.ListingInfo",
          "name": "listingInfo",
          "type": "tuple"
        }
      ],
      "name": "updateListing",
      "outputs": [],
      "stateMutability": "nonpayable",
      "type": "function"
    },
    {
      "inputs": [],
      "name": "getLatestPrice",
      "outputs": [
        {
          "internalType": "int256",
          "name": "",
          "type": "int256"
        }
      ],
      "stateMutability": "view",
      "type": "function"
    },
    {
      "inputs": [],
      "name": "getGameInfo",
      "outputs": [
        {
          "components": [
            {
              "internalType": "uint256",
              "name": "id",
              "type": "uint256"
            },
            {
              "internalType": "uint256",
              "name": "createdTime",
              "type": "uint256"
            },
            {
              "internalType": "address",
              "name": "addr",
              "type": "address"
            },
            {
              "internalType": "string",
              "name": "tag",
              "type": "string"
            },
            {
              "internalType": "string",
              "name": "title",
              "type": "string"
            },
            {
              "internalType": "address",
              "name": "oracleAddr",
              "type": "address"
            },
            {
              "internalType": "uint256",
              "name": "resolveTime",
              "type": "uint256"
            },
            {
              "internalType": "int256",
              "name": "threshold",
              "type": "int256"
            },
            {
              "internalType": "uint256",
              "name": "totalAmount",
              "type": "uint256"
            },
            {
              "internalType": "uint256",
              "name": "betYesAmount",
              "type": "uint256"
            },
            {
              "internalType": "uint256",
              "name": "betNoAmount",
              "type": "uint256"
            },
            {
              "internalType": "bool",
              "name": "ongoing",
              "type": "bool"
            },
            {
              "internalType": "uint8",
              "name": "gameOutcome",
              "type": "uint8"
            }
          ],
          "internalType": "struct Models.GameMetadata",
          "name": "",
          "type": "tuple"
        }
      ],
      "stateMutability": "view",
      "type": "function"
    },
    {
      "inputs": [
        {
          "internalType": "address",
          "name": "_player",
          "type": "address"
        },
        {
          "internalType": "uint256",
          "name": "hwangMktTokenAmt",
          "type": "uint256"
        },
        {
          "internalType": "uint8",
          "name": "betSide",
          "type": "uint8"
        }
      ],
      "name": "addPlayer",
      "outputs": [],
      "stateMutability": "nonpayable",
      "type": "function"
    },
    {
      "inputs": [],
      "name": "getTrxs",
      "outputs": [
        {
          "components": [
            {
              "internalType": "uint256",
              "name": "trxId",
              "type": "uint256"
            },
            {
              "internalType": "string",
              "name": "activityType",
              "type": "string"
            },
            {
              "internalType": "uint256",
              "name": "trxAmt",
              "type": "uint256"
            },
            {
              "internalType": "uint256",
              "name": "trxTime",
              "type": "uint256"
            },
            {
              "internalType": "uint8",
              "name": "gameSide",
              "type": "uint8"
            },
            {
              "internalType": "address",
              "name": "from",
              "type": "address"
            },
            {
              "internalType": "address",
              "name": "to",
              "type": "address"
            }
          ],
          "internalType": "struct GameContract.Trx[]",
          "name": "",
          "type": "tuple[]"
        }
      ],
      "stateMutability": "view",
      "type": "function"
    },
    {
      "inputs": [
        {
          "internalType": "uint8",
          "name": "s",
          "type": "uint8"
        }
      ],
      "name": "getSideAmt",
      "outputs": [
        {
          "internalType": "uint256",
          "name": "",
          "type": "uint256"
        }
      ],
      "stateMutability": "view",
      "type": "function"
    },
    {
      "inputs": [],
      "name": "performUpkeep",
      "outputs": [],
      "stateMutability": "nonpayable",
      "type": "function"
    },
    {
      "inputs": [
        {
          "internalType": "uint256",
          "name": "withdrawAmt",
          "type": "uint256"
        }
      ],
      "name": "withdrawWinnings",
      "outputs": [],
      "stateMutability": "nonpayable",
      "type": "function"
    }
  ],
  "bytecode": "0x60806040523480156200001157600080fd5b506040516200543438038062005434833981016040819052620000349162000369565b600080546001889055600160a060020a03898116600160b060020a03199092169190911790915560075460098054600160a060020a0319169190921617905560028490556003620000868482620004bd565b506004620000958382620004bd565b5060058190554260065560078054600160a060020a031916600160a060020a0387161790556040516103e890620000cc9062000260565b6060808252600b908201527f47616d654e6f546f6b656e000000000000000000000000000000000000000000608082015260a0602082018190526003908201527f474e54000000000000000000000000000000000000000000000000000000000060c0820152604081019190915260e001604051809103906000f0801580156200015a573d6000803e3d6000fd5b50600d8054600160a060020a0392909216600160a060020a03199283168117909155600c80549092161790556040516103e890620001989062000260565b6060808252600c908201527f47616d65596573546f6b656e0000000000000000000000000000000000000000608082015260a0602082018190526003908201527f475954000000000000000000000000000000000000000000000000000000000060c0820152604081019190915260e001604051809103906000f08015801562000226573d6000803e3d6000fd5b50600f8054600160a060020a0392909216600160a060020a03199283168117909155600e8054909216179055506200058f95505050505050565b61177b8062003cb983390190565b8051600160a060020a03811681146200028657600080fd5b919050565b7f4e487b7100000000000000000000000000000000000000000000000000000000600052604160045260246000fd5b600082601f830112620002cc57600080fd5b81516001604060020a0380821115620002e957620002e96200028b565b604051601f8301601f19908116603f011681019082821181831017156200031457620003146200028b565b816040528381526020925086838588010111156200033157600080fd5b600091505b8382101562000355578582018301518183018401529082019062000336565b600093810190920192909252949350505050565b600080600080600080600060e0888a0312156200038557600080fd5b62000390886200026e565b965060208801519550620003a7604089016200026e565b94506060880151935060808801516001604060020a0380821115620003cb57600080fd5b620003d98b838c01620002ba565b945060a08a0151915080821115620003f057600080fd5b50620003ff8a828b01620002ba565b92505060c0880151905092959891949750929550565b6002810460018216806200042a57607f821691505b60208210810362000464577f4e487b7100000000000000000000000000000000000000000000000000000000600052602260045260246000fd5b50919050565b601f821115620004b8576000818152602081206020601f86010481016020861015620004935750805b6020601f860104820191505b81811015620004b4578281556001016200049f565b5050505b505050565b81516001604060020a03811115620004d957620004d96200028b565b620004f181620004ea845462000415565b846200046a565b602080601f8311600181146200052d5760008415620005105750858301515b60028086026008870290910a6000190419821617865550620004b4565b600085815260208120601f198616915b828110156200055e578886015182559484019460019091019084016200053d565b50858210156200057f57878501516008601f88160260020a60001904191681555b5050505050600202600101905550565b61371a806200059f6000396000f3fe60806040523480156200001157600080fd5b5060043610620001fa576000357c0100000000000000000000000000000000000000000000000000000000900480637256eba4116200012a578063b2f4bdb011620000c0578063e07056af1162000097578063e07056af1462000434578063e2cb747d146200044b578063f91c2cbc1462000462578063f92a9e09146200047b57600080fd5b8063b2f4bdb014620003ff578063d6875f951462000409578063dc8046f0146200041d57600080fd5b80638e15f47311620001015780638e15f47314620003be5780638f09cc8b14620003c8578063ae73ccec14620003dc578063af640d0f14620003f557600080fd5b80637256eba4146200037f5780637e4e61d71462000396578063846c6f4f14620003aa57600080fd5b806341ef10c811620001a057806346b1df04116200017757806346b1df0414620003485780634a79d50c146200035257806351f91066146200036b5780636e4d243a146200037557600080fd5b806341ef10c814620002fd57806342cde4e8146200032a578063434ad5c8146200033457600080fd5b80631746bd1b11620001d55780631746bd1b1462000289578063200d2ed214620002a25780632cd1adfe14620002d757600080fd5b8063053a2cfb14620001ff57806314794702146200023e5780631486d6111462000257575b600080fd5b60005462000226907501000000000000000000000000000000000000000000900460ff1681565b604051620002359190620020f3565b60405180910390f35b620002556200024f36600462002110565b62000485565b005b6200027a620002683660046200212a565b60086020526000908152604090205481565b60405190815260200162000235565b6200029362000cdc565b6040516200023591906200219c565b600054620002c89074010000000000000000000000000000000000000000900460ff1681565b60405162000235919062002294565b620002ee620002e8366004620022d6565b62001072565b604051620002359190620023bd565b600c546200031190600160a060020a031681565b604051600160a060020a03909116815260200162000235565b6200027a60025481565b6000546200031190600160a060020a031681565b6200027a60155481565b6200035c62001315565b604051620002359190620023d4565b6200035c620013ab565b62000255620013ba565b6200025562000390366004620023fb565b62001539565b6007546200031190600160a060020a031681565b600e546200031190600160a060020a031681565b6200027a62001ada565b600d546200031190600160a060020a031681565b620003e662001b7e565b6040516200023591906200243e565b6200027a60055481565b6200027a60065481565b600f546200031190600160a060020a031681565b620002556200042e3660046200253d565b62001c1a565b620003116200044536600462002110565b62001cdf565b6200027a6200045c366004620025ed565b62001d84565b6200046c62001e5a565b6040516200023591906200260b565b6200027a60015481565b600160005474010000000000000000000000000000000000000000900460ff166001811115620004b957620004b9620020c4565b1462000526576040517f08c379a000000000000000000000000000000000000000000000000000000000815260206004820152601660248201527f67616d65206973206e6f742079657420636c6f7365640000000000000000000060448201526064015b60405180910390fd5b600080547501000000000000000000000000000000000000000000900460ff1660028111156200055a576200055a620020c4565b03620005c3576040517f08c379a000000000000000000000000000000000000000000000000000000000815260206004820152601e60248201527f67616d65206f7574636f6d652063616e6e6f7420626520756e6b6e6f776e000060448201526064016200051d565b600d54600160a060020a031660016000547501000000000000000000000000000000000000000000900460ff166002811115620006045762000604620020c4565b03620006185750600f54600160a060020a03165b6040517fdd62ed3e0000000000000000000000000000000000000000000000000000000081523360048201523060248201528290600160a060020a0383169063dd62ed3e90604401602060405180830381865afa1580156200067e573d6000803e3d6000fd5b505050506040513d601f19601f82011682018060405250810190620006a49190620026c7565b101562000734576040517f08c379a000000000000000000000000000000000000000000000000000000000815260206004820152602360248201527f706c61796572206d75737420617070726f766520776974686472617720616d6f60448201527f756e74000000000000000000000000000000000000000000000000000000000060648201526084016200051d565b6040517f70a082310000000000000000000000000000000000000000000000000000000081523360048201528290600160a060020a038316906370a0823190602401602060405180830381865afa15801562000794573d6000803e3d6000fd5b505050506040513d601f19601f82011682018060405250810190620007ba9190620026c7565b10156200084a576040517f08c379a000000000000000000000000000000000000000000000000000000000815260206004820152602e60248201527f706c61796572206d75737420686176652067616d6520746f6b656e20616d6f7560448201527f6e7420746f20776974686472617700000000000000000000000000000000000060648201526084016200051d565b6002806000547501000000000000000000000000000000000000000000900460ff166002811115620008805762000880620020c4565b036200088a575060015b6000836200089a60018062002710565b620008a691906200274c565b905060008160086000856002811115620008c457620008c4620020c4565b6002811115620008d857620008d8620020c4565b815260200190815260200160002054600860008060159054906101000a900460ff1660028111156200090e576200090e620020c4565b6002811115620009225762000922620020c4565b815260200190815260200160002054846200093e919062002710565b6200094a91906200274c565b62000956919062002766565b905060008054906101000a9004600160a060020a0316600160a060020a031663ce1f335c6040518163ffffffff167c0100000000000000000000000000000000000000000000000000000000028152600401602060405180830381865afa158015620009c6573d6000803e3d6000fd5b505050506040513d601f19601f82011682018060405250810190620009ec919062002789565b6040517fa9059cbb00000000000000000000000000000000000000000000000000000000815233600482015260248101839052600160a060020a03919091169063a9059cbb906044016020604051808303816000875af115801562000a55573d6000803e3d6000fd5b505050506040513d601f19601f8201168201806040525081019062000a7b9190620027b6565b5062000a8a8433308862001fa9565b600260016000547501000000000000000000000000000000000000000000900460ff16600281111562000ac15762000ac1620020c4565b0362000acb575060015b6040805160e081018252600b54815281518083018352600881527f57495448445241570000000000000000000000000000000000000000000000006020828101919091528201908152918101849052426060820181905260ff841660808301523060a08301523360c0830152600a8054600181018255600091909152825160069091027fc65a7bb8d6351c1cf70c95a316cc6a92839c986682d98bc35f958f4883f9d2a881019182559351919390917fc65a7bb8d6351c1cf70c95a316cc6a92839c986682d98bc35f958f4883f9d2a99091019062000bab90826200287a565b506040820151600282015560608201516003820155608082015160048201805460a085015160ff90931674ffffffffffffffffffffffffffffffffffffffffff1990911617610100600160a060020a039384160217905560c0909201516005909101805473ffffffffffffffffffffffffffffffffffffffff191691909216179055600b805490600062000c3f836200294d565b90915550506000546040517f7976948800000000000000000000000000000000000000000000000000000000815233600482015260ff841660248201526044810185905260648101839052600160a060020a0390911690637976948890608401600060405180830381600087803b15801562000cba57600080fd5b505af115801562000ccf573d6000803e3d6000fd5b5050505050505050505050565b62000d5f604051806101a0016040528060008152602001600081526020016000600160a060020a0316815260200160608152602001606081526020016000600160a060020a031681526020016000815260200160008152602001600081526020016000815260200160008152602001600015158152602001600060ff1681525090565b600060016000547501000000000000000000000000000000000000000000900460ff16600281111562000d965762000d96620020c4565b0362000da55750600162000de4565b60026000547501000000000000000000000000000000000000000000900460ff16600281111562000dda5762000dda620020c4565b0362000de4575060025b604051806101a001604052806005548152602001600654815260200130600160a060020a031681526020016003805462000e1e90620027d6565b80601f016020809104026020016040519081016040528092919081815260200182805462000e4c90620027d6565b801562000e9d5780601f1062000e715761010080835404028352916020019162000e9d565b820191906000526020600020905b81548152906001019060200180831162000e7f57829003601f168201915b505050505081526020016004805462000eb690620027d6565b80601f016020809104026020016040519081016040528092919081815260200182805462000ee490620027d6565b801562000f355780601f1062000f095761010080835404028352916020019162000f35565b820191906000526020600020905b81548152906001019060200180831162000f1757829003601f168201915b5050509183525050600754600160a060020a0316602080830191909152600180546040840152600254606084015260089091527f6add646517a5b0f6793cd5891b7937d28a5b2981a5d88ebc7cd776088fea9041546000919091527fad67d757c34507f157cacfa2e3153e9f260a2244f30428821be7be64587ac55f5460809092019162000fc4919062002766565b81527fad67d757c34507f157cacfa2e3153e9f260a2244f30428821be7be64587ac55f546020808301919091526002600090815260089091527f6add646517a5b0f6793cd5891b7937d28a5b2981a5d88ebc7cd776088fea90415460408301526060909101906000547501000000000000000000000000000000000000000000900460ff1660028111156200105d576200105d620020c4565b14151581526020018260ff1681525091505090565b6040805161012081018252600080825260208201819052918101829052606081018290526080810182905260a0810182905260c0810182905260e08101829052610100810191909152600c54600160a060020a0316331480620010df5750600e54600160a060020a031633145b6200116d576040517f08c379a000000000000000000000000000000000000000000000000000000000815260206004820152602760248201527f6f6e6c792067616d6520746f6b656e2063616e20637265617465206e6577206c60448201527f697374696e67730000000000000000000000000000000000000000000000000060648201526084016200051d565b6000601554905060008187338888886040516200118a90620020b6565b958652600160a060020a03948516602087015292841660408601526060850191909152909116608083015260a082015260c001604051809103906000f080158015620011da573d6000803e3d6000fd5b506040805161012081018252848152600160a060020a0380841660208301528a811682840152336060830152608082018a9052600060a0830181905290891660c083015260e0820188905261010082015290517f070b5eb40000000000000000000000000000000000000000000000000000000081529192509073__IterableMapping_______________________9063070b5eb49062001285906010908790869060040162002969565b60006040518083038186803b1580156200129e57600080fd5b505af4158015620012b3573d6000803e3d6000fd5b505060158054925090506000620012ca836200294d565b91905055507fd1fe3704bd3aa4f4974d5168e39528bbb86b19e98e5f798beea49af58df3013981604051620013009190620023bd565b60405180910390a1925050505b949350505050565b600480546200132490620027d6565b80601f01602080910402602001604051908101604052809291908181526020018280546200135290620027d6565b8015620013a35780601f106200137757610100808354040283529160200191620013a3565b820191906000526020600020905b8154815290600101906020018083116200138557829003601f168201915b505050505081565b600380546200132490620027d6565b600154421080620013fc5750600160005474010000000000000000000000000000000000000000900460ff166001811115620013fa57620013fa620020c4565b145b156200140457565b600080547fffffffffffffffffffffff00ffffffffffffffffffffffffffffffffffffffff16740100000000000000000000000000000000000000001790556002805481906200145362001ada565b1262001460575060019050805b600080548391907fffffffffffffffffffff00ffffffffffffffffffffffffffffffffffffffffff167501000000000000000000000000000000000000000000836002811115620014b557620014b5620020c4565b02179055506000546040517fe362937d00000000000000000000000000000000000000000000000000000000815260ff83166004820152600160a060020a039091169063e362937d90602401600060405180830381600087803b1580156200151c57600080fd5b505af115801562001531573d6000803e3d6000fd5b505050505050565b6000805474010000000000000000000000000000000000000000900460ff1660018111156200156c576200156c620020c4565b14620015fb576040517f08c379a000000000000000000000000000000000000000000000000000000000815260206004820152602860248201527f47616d6520697320636c6f7365642c206e6f206675727468657220626574732060448201527f616363657074656400000000000000000000000000000000000000000000000060648201526084016200051d565b8060ff16600114806200161157508060ff166002145b62001679576040517f08c379a000000000000000000000000000000000000000000000000000000000815260206004820152601a60248201527f6265742073696465206973206e6f74207265636f676e6973656400000000000060448201526064016200051d565b6001544211156200170d576040517f08c379a000000000000000000000000000000000000000000000000000000000815260206004820152602260248201527f63616e6e6f74207075742062657473206166746572207265736f6c766520746960448201527f6d6500000000000000000000000000000000000000000000000000000000000060648201526084016200051d565b600260ff82166001036200171f575060015b600d54600160a060020a031660ff8316600103620017455750600f54600160a060020a03165b6000620017546001866200274c565b6040517f40c10f19000000000000000000000000000000000000000000000000000000008152600160a060020a03888116600483015260248201839052919250908316906340c10f1990604401600060405180830381600087803b158015620017bc57600080fd5b505af1158015620017d1573d6000803e3d6000fd5b5050600054604080517fce1f335c0000000000000000000000000000000000000000000000000000000081529051600160a060020a0390921693506200186f9250839163ce1f335c916004808201926020929091908290030181865afa15801562001840573d6000803e3d6000fd5b505050506040513d601f19601f8201168201806040525081019062001866919062002789565b88308962001fa9565b8560086000866002811115620018895762001889620020c4565b60028111156200189d576200189d620020c4565b81526020019081526020016000206000828254620018bc919062002766565b90915550506040805160e081018252600b54815281518083018352600381527f42455400000000000000000000000000000000000000000000000000000000006020828101919091528201908152918101889052426060820181905260ff881660808301523060a0830152600160a060020a038a1660c0830152600a8054600181018255600091909152825160069091027fc65a7bb8d6351c1cf70c95a316cc6a92839c986682d98bc35f958f4883f9d2a881019182559351919390917fc65a7bb8d6351c1cf70c95a316cc6a92839c986682d98bc35f958f4883f9d2a990910190620019aa90826200287a565b506040820151600282015560608201516003820155608082015160048201805460a085015160ff90931674ffffffffffffffffffffffffffffffffffffffffff1990911617610100600160a060020a039384160217905560c0909201516005909101805473ffffffffffffffffffffffffffffffffffffffff191691909216179055600b805490600062001a3e836200294d565b90915550506040517f5039eb97000000000000000000000000000000000000000000000000000000008152600160a060020a03898116600483015260ff881660248301526044820189905260648201839052831690635039eb9790608401600060405180830381600087803b15801562001ab757600080fd5b505af115801562001acc573d6000803e3d6000fd5b505050505050505050505050565b600080600960009054906101000a9004600160a060020a0316600160a060020a031663feaf968c6040518163ffffffff167c010000000000000000000000000000000000000000000000000000000002815260040160a060405180830381865afa15801562001b4d573d6000803e3d6000fd5b505050506040513d601f19601f8201168201806040525081019062001b739190620029a2565b509195945050505050565b6040517f75a02c200000000000000000000000000000000000000000000000000000000081526010600482015260609073__IterableMapping_______________________906375a02c2090602401600060405180830381865af415801562001beb573d6000803e3d6000fd5b505050506040513d6000823e601f3d908101601f1916820160405262001c15919081019062002aa8565b905090565b80516040517f070b5eb400000000000000000000000000000000000000000000000000000000815273__IterableMapping_______________________9163070b5eb49162001c7191601091869060040162002969565b60006040518083038186803b15801562001c8a57600080fd5b505af415801562001c9f573d6000803e3d6000fd5b505050507f4758bcd8e425945eea731ed13074c209c3176197b970b6a78b278ad015ae90788160405162001cd49190620023bd565b60405180910390a150565b6040517fd31c830c000000000000000000000000000000000000000000000000000000008152601060048201526024810182905260009073__IterableMapping_______________________9063d31c830c9060440161012060405180830381865af415801562001d54573d6000803e3d6000fd5b505050506040513d601f19601f8201168201806040525081019062001d7a919062002b65565b6020015192915050565b60008160ff166001148062001d9c57508160ff166002145b62001e04576040517f08c379a000000000000000000000000000000000000000000000000000000000815260206004820152601a60248201527f73696465206d757374206265206f6e65206f662031206f72203200000000000060448201526064016200051d565b600260ff831660010362001e16575060015b6008600082600281111562001e2f5762001e2f620020c4565b600281111562001e435762001e43620020c4565b815260200190815260200160002054915050919050565b6060600a805480602002602001604051908101604052809291908181526020016000905b8282101562001fa057838290600052602060002090600602016040518060e00160405290816000820154815260200160018201805462001ebe90620027d6565b80601f016020809104026020016040519081016040528092919081815260200182805462001eec90620027d6565b801562001f3d5780601f1062001f115761010080835404028352916020019162001f3d565b820191906000526020600020905b81548152906001019060200180831162001f1f57829003601f168201915b5050509183525050600282015460208083019190915260038301546040830152600483015460ff81166060840152600160a060020a036101009091048116608084015260059093015490921660a090910152908252600192909201910162001e7e565b50505050905090565b6040517f23b872dd000000000000000000000000000000000000000000000000000000008152600160a060020a038481166004830152838116602483015260448201839052600091908616906323b872dd906064016020604051808303816000875af11580156200201e573d6000803e3d6000fd5b505050506040513d601f19601f82011682018060405250810190620020449190620027b6565b905080620020af576040517f08c379a000000000000000000000000000000000000000000000000000000000815260206004820152601560248201527f546f6b656e207472616e73666572206661696c6564000000000000000000000060448201526064016200051d565b5050505050565b610b5f8062002b8683390190565b7f4e487b7100000000000000000000000000000000000000000000000000000000600052602160045260246000fd5b60208101600383106200210a576200210a620020c4565b91905290565b6000602082840312156200212357600080fd5b5035919050565b6000602082840312156200213d57600080fd5b8135600381106200214d57600080fd5b9392505050565b6000815180845260005b818110156200217c576020818501810151868301820152016200215e565b506000602082860101526020601f19601f83011685010191505092915050565b60208152815160208201526020820151604082015260006040830151620021ce6060840182600160a060020a03169052565b5060608301516101a0806080850152620021ed6101c085018362002154565b91506080850151601f198584030160a08601526200220c838262002154565b92505060a08501516200222a60c0860182600160a060020a03169052565b5060c085015160e08581019190915285015161010080860191909152850151610120808601919091528501516101408086019190915285015161016080860191909152850151610180620022818187018315159052565b9095015160ff1693019290925250919050565b60208101600283106200210a576200210a620020c4565b600160a060020a0381168114620022c157600080fd5b50565b8035620022d181620022ab565b919050565b60008060008060808587031215620022ed57600080fd5b8435620022fa81620022ab565b93506020850135925060408501356200231381620022ab565b9396929550929360600135925050565b805182526020810151600160a060020a03808216602085015280604084015116604085015280606084015116606085015250506080810151608083015260a08101516200237b60a0840182600160a060020a03169052565b5060c08101516200239760c0840182600160a060020a03169052565b5060e081015160e083015261010080820151620023b78285018215159052565b50505050565b6101208101620023ce828462002323565b92915050565b6020815260006200214d602083018462002154565b803560ff81168114620022d157600080fd5b6000806000606084860312156200241157600080fd5b83356200241e81620022ab565b9250602084013591506200243560408501620023e9565b90509250925092565b6020808252825182820181905260009190848201906040850190845b8181101562002485576200247083855162002323565b9284019261012092909201916001016200245a565b50909695505050505050565b7f4e487b7100000000000000000000000000000000000000000000000000000000600052604160045260246000fd5b604051610120810167ffffffffffffffff81118282101715620024e757620024e762002491565b60405290565b604051601f8201601f1916810167ffffffffffffffff8111828210171562002519576200251962002491565b604052919050565b8015158114620022c157600080fd5b8035620022d18162002521565b600061012082840312156200255157600080fd5b6200255b620024c0565b823581526200256d60208401620022c4565b60208201526200258060408401620022c4565b60408201526200259360608401620022c4565b606082015260808301356080820152620025b060a08401620022c4565b60a0820152620025c360c08401620022c4565b60c082015260e083013560e0820152610100620025e281850162002530565b908201529392505050565b6000602082840312156200260057600080fd5b6200214d82620023e9565b60208082528251828201819052600091906040908185019080840286018301878501865b83811015620026b957603f19898403018552815160e08151855288820151818a870152620026608287018262002154565b838a0151878b01526060808501519088015260808085015160ff169088015260a080850151600160a060020a039081169189019190915260c094850151169390960192909252505093860193908601906001016200262f565b509098975050505050505050565b600060208284031215620026da57600080fd5b5051919050565b7f4e487b7100000000000000000000000000000000000000000000000000000000600052601160045260246000fd5b60008262002747577f4e487b7100000000000000000000000000000000000000000000000000000000600052601260045260246000fd5b500490565b8082028115828204841417620023ce57620023ce620026e1565b80820180821115620023ce57620023ce620026e1565b8051620022d181620022ab565b6000602082840312156200279c57600080fd5b81516200214d81620022ab565b8051620022d18162002521565b600060208284031215620027c957600080fd5b81516200214d8162002521565b600281046001821680620027eb57607f821691505b60208210810362002825577f4e487b7100000000000000000000000000000000000000000000000000000000600052602260045260246000fd5b50919050565b601f82111562002875576000818152602081206020601f86010481016020861015620028545750805b6020601f860104820191505b81811015620015315782815560010162002860565b505050565b815167ffffffffffffffff81111562002897576200289762002491565b620028af81620028a88454620027d6565b846200282b565b602080601f831160018114620028eb5760008415620028ce5750858301515b60028086026008870290910a600019041982161786555062001531565b600085815260208120601f198616915b828110156200291c57888601518255948401946001909101908401620028fb565b50858210156200293d57878501516008601f88160260020a60001904191681555b5050505050600202600101905550565b600060018201620029625762002962620026e1565b5060010190565b8381526020810183905261016081016200130d604083018462002323565b805169ffffffffffffffffffff81168114620022d157600080fd5b600080600080600060a08688031215620029bb57600080fd5b620029c68662002987565b9450602086015193506040860151925060608601519150620029eb6080870162002987565b90509295509295909350565b6000610120828403121562002a0b57600080fd5b62002a15620024c0565b90508151815262002a29602083016200277c565b602082015262002a3c604083016200277c565b604082015262002a4f606083016200277c565b60608201526080820151608082015262002a6c60a083016200277c565b60a082015262002a7f60c083016200277c565b60c082015260e082015160e082015261010062002a9e818401620027a9565b9082015292915050565b6000602080838503121562002abc57600080fd5b825167ffffffffffffffff8082111562002ad557600080fd5b818501915085601f83011262002aea57600080fd5b81518181111562002aff5762002aff62002491565b62002b0e8485830201620024ed565b818152848101925061012091820284018501918883111562002b2f57600080fd5b938501935b8285101562002b595762002b498986620029f7565b8452938401939285019262002b34565b50979650505050505050565b6000610120828403121562002b7957600080fd5b6200214d8383620029f756fe608060405234801561001057600080fd5b50604051610b5f380380610b5f83398101604081905261002f916101ef565b6000805433600160a060020a0319918216179091556001879055600280548216600160a060020a03888116918217909255600380548416888416908117909155600587905560078054851693871693909317909255600984905560048054909316821783556040517f70a082310000000000000000000000000000000000000000000000000000000081529283015284916370a0823190602401602060405180830381865afa1580156100e6573d6000803e3d6000fd5b505050506040513d601f19601f8201168201806040525081019061010a919061024e565b101561019e57604080517f08c379a00000000000000000000000000000000000000000000000000000000081526020600482015260248101919091527f706c6179657220312068617320696e73756666696369656e742062616c616e6360448201527f65206f6620746f6b656e203120746f206372656174652061206c697374696e67606482015260840160405180910390fd5b5060088054600160a060020a031916600160a060020a03929092169190911790555050600a805460ff19169055506102679050565b8051600160a060020a03811681146101ea57600080fd5b919050565b60008060008060008060c0878903121561020857600080fd5b86519550610218602088016101d3565b9450610226604088016101d3565b93506060870151925061023b608088016101d3565b915060a087015190509295509295509295565b60006020828403121561026057600080fd5b5051919050565b6108e9806102766000396000f3fe608060405234801561001057600080fd5b50600436106100f1576000357c010000000000000000000000000000000000000000000000000000000090048063c4e5edcd1161009e578063d548804811610078578063d548804814610220578063d70c670314610240578063e2d46f981461024957600080fd5b8063c4e5edcd146101d7578063d21220a7146101e0578063d30895e41461020057600080fd5b806359a5f12d116100cf57806359a5f12d146101805780636f6ff405146101a05780639405dfdd146101c057600080fd5b806302d05d3f146100f657806325be124e1461014057806358aaf0be14610160575b600080fd5b6000546101169073ffffffffffffffffffffffffffffffffffffffff1681565b60405173ffffffffffffffffffffffffffffffffffffffff90911681526020015b60405180910390f35b6007546101169073ffffffffffffffffffffffffffffffffffffffff1681565b6008546101169073ffffffffffffffffffffffffffffffffffffffff1681565b6006546101169073ffffffffffffffffffffffffffffffffffffffff1681565b6101b36101ae366004610756565b610266565b6040516101379190610793565b6101c960015481565b604051908152602001610137565b6101c960095481565b6003546101169073ffffffffffffffffffffffffffffffffffffffff1681565b6002546101169073ffffffffffffffffffffffffffffffffffffffff1681565b6004546101169073ffffffffffffffffffffffffffffffffffffffff1681565b6101c960055481565b600a546102569060ff1681565b6040519015158152602001610137565b6040805161012081018252600080825260208201819052918101829052606081018290526080810182905260a0810182905260c0810182905260e08101829052610100810191909152600554600480546002546040517fdd62ed3e00000000000000000000000000000000000000000000000000000000815273ffffffffffffffffffffffffffffffffffffffff91821693810193909352306024840152169063dd62ed3e90604401602060405180830381865afa15801561032c573d6000803e3d6000fd5b505050506040513d601f19601f820116820180604052508101906103509190610878565b10156103bd576040517f08c379a000000000000000000000000000000000000000000000000000000000815260206004820152601960248201527f546f6b656e203120616c6c6f77616e636520746f6f206c6f770000000000000060448201526064015b60405180910390fd5b6009546008546040517fdd62ed3e00000000000000000000000000000000000000000000000000000000815273ffffffffffffffffffffffffffffffffffffffff85811660048301523060248301529091169063dd62ed3e90604401602060405180830381865afa158015610436573d6000803e3d6000fd5b505050506040513d601f19601f8201168201806040525081019061045a9190610878565b10156104c2576040517f08c379a000000000000000000000000000000000000000000000000000000000815260206004820152601960248201527f546f6b656e203220616c6c6f77616e636520746f6f206c6f770000000000000060448201526064016103b4565b6004546002546005546104f19273ffffffffffffffffffffffffffffffffffffffff9081169216908590610641565b6008546002546009546105219273ffffffffffffffffffffffffffffffffffffffff908116928692911690610641565b600680547fffffffffffffffffffffffff00000000000000000000000000000000000000001673ffffffffffffffffffffffffffffffffffffffff848116918217909255600a805460ff1916600190811790915560408051610120810182528254815230602082015260025485168183015260035485166060820152600554608082015260a0810193909352600754841660c084015260095460e084015261010083019190915260005490517fdc8046f00000000000000000000000000000000000000000000000000000000081529192169063dc8046f090610608908490600401610793565b600060405180830381600087803b15801561062257600080fd5b505af1158015610636573d6000803e3d6000fd5b509295945050505050565b6040517f23b872dd00000000000000000000000000000000000000000000000000000000815273ffffffffffffffffffffffffffffffffffffffff8481166004830152838116602483015260448201839052600091908616906323b872dd906064016020604051808303816000875af11580156106c2573d6000803e3d6000fd5b505050506040513d601f19601f820116820180604052508101906106e69190610891565b90508061074f576040517f08c379a000000000000000000000000000000000000000000000000000000000815260206004820152601560248201527f546f6b656e207472616e73666572206661696c6564000000000000000000000060448201526064016103b4565b5050505050565b60006020828403121561076857600080fd5b813573ffffffffffffffffffffffffffffffffffffffff8116811461078c57600080fd5b9392505050565b60006101208201905082518252602083015173ffffffffffffffffffffffffffffffffffffffff8082166020850152806040860151166040850152505060608301516107f7606084018273ffffffffffffffffffffffffffffffffffffffff169052565b506080830151608083015260a083015161082960a084018273ffffffffffffffffffffffffffffffffffffffff169052565b5060c083015161085160c084018273ffffffffffffffffffffffffffffffffffffffff169052565b5060e083015160e0830152610100808401516108708285018215159052565b505092915050565b60006020828403121561088a57600080fd5b5051919050565b6000602082840312156108a357600080fd5b8151801515811461078c57600080fdfea2646970667358221220d70f25714d3a56109c83c07f7a7e7ed5e7c939101fe5fde4e529752da273a7d364736f6c63430008110033a2646970667358221220575d02dc95205c9ac4d450910ed759a24af90552dbc8919fab797fe096c5c08d64736f6c6343000811003360806040523480156200001157600080fd5b506040516200177b3803806200177b833981016040819052620000349162000164565b60068054600160a060020a0319163317905560046200005484826200027f565b5060056200006383826200027f565b506000908155600155505060078054600160a060020a0319163317905562000351565b7f4e487b7100000000000000000000000000000000000000000000000000000000600052604160045260246000fd5b600082601f830112620000c757600080fd5b81516001604060020a0380821115620000e457620000e462000086565b604051601f8301601f19908116603f011681019082821181831017156200010f576200010f62000086565b816040528381526020925086838588010111156200012c57600080fd5b600091505b8382101562000150578582018301518183018401529082019062000131565b600093810190920192909252949350505050565b6000806000606084860312156200017a57600080fd5b83516001604060020a03808211156200019257600080fd5b620001a087838801620000b5565b94506020860151915080821115620001b757600080fd5b50620001c686828701620000b5565b925050604084015190509250925092565b600281046001821680620001ec57607f821691505b60208210810362000226577f4e487b7100000000000000000000000000000000000000000000000000000000600052602260045260246000fd5b50919050565b601f8211156200027a576000818152602081206020601f86010481016020861015620002555750805b6020601f860104820191505b81811015620002765782815560010162000261565b5050505b505050565b81516001604060020a038111156200029b576200029b62000086565b620002b381620002ac8454620001d7565b846200022c565b602080601f831160018114620002ef5760008415620002d25750858301515b60028086026008870290910a600019041982161786555062000276565b600085815260208120601f198616915b828110156200032057888601518255948401946001909101908401620002ff565b50858210156200034157878501516008601f88160260020a60001904191681555b5050505050600202600101905550565b61141a80620003616000396000f3fe608060405234801561001057600080fd5b50600436106100fc576000357c01000000000000000000000000000000000000000000000000000000009004806342966c68116100a95780639ea3c820116100835780639ea3c820146101c5578063a9059cbb146101e5578063dd62ed3e146101f8578063de6a8dc51461022357600080fd5b806342966c681461018a57806370a082311461019d57806395d89b41146101bd57600080fd5b806319d1997a116100da57806319d1997a1461015957806323b872dd1461016257806340c10f191461017557600080fd5b806306fdde0314610101578063095ea7b31461011f57806318160ddd14610142575b600080fd5b610109610236565b6040516101169190610fd3565b60405180910390f35b61013261012d366004611039565b6102c4565b6040519015158152602001610116565b61014b60015481565b604051908152602001610116565b61014b60005481565b610132610170366004611065565b6103a8565b610188610183366004611039565b6105c8565b005b6101886101983660046110a6565b610768565b61014b6101ab3660046110bf565b60026020526000908152604090205481565b610109610859565b6101d86101d33660046110bf565b610866565b60405161011691906110e3565b6101326101f3366004611039565b610cad565b61014b610206366004611194565b600360209081526000928352604080842090915290825290205481565b6101d86102313660046111cd565b610dec565b60048054610243906111f4565b80601f016020809104026020016040519081016040528092919081815260200182805461026f906111f4565b80156102bc5780601f10610291576101008083540402835291602001916102bc565b820191906000526020600020905b81548152906001019060200180831161029f57829003601f168201915b505050505081565b33600090815260026020526040812054821115610342576040517f08c379a000000000000000000000000000000000000000000000000000000000815260206004820152601e60248201527f696e73756666696369656e742062616c616e636520696e2073656e646572000060448201526064015b60405180910390fd5b336000818152600360209081526040808320600160a060020a03881680855290835292819020869055518581529192917f8c5be1e5ebec7d5bd14f71427d1e84f3dd0314c0f7b2291e5b200ac8c7c3b92591015b60405180910390a35060015b92915050565b600160a060020a038316600090815260036020908152604080832033845290915281205482111561045b576040517f08c379a000000000000000000000000000000000000000000000000000000000815260206004820152602f60248201527f696e73756666696369656e7420616c6c6f77616e636520746f2072656369706960448201527f656e742066726f6d2073656e64657200000000000000000000000000000000006064820152608401610339565b600160a060020a0384166000908152600260205260409020548211156104dd576040517f08c379a000000000000000000000000000000000000000000000000000000000815260206004820152601e60248201527f696e73756666696369656e742062616c616e636520696e2073656e64657200006044820152606401610339565b600160a060020a038416600090815260036020908152604080832033845290915281208054849290610510908490611276565b9091555050600160a060020a0384166000908152600260205260408120805484929061053d908490611276565b9091555050600160a060020a0383166000908152600260205260408120805484929061056a908490611289565b9250508190555082600160a060020a031684600160a060020a03167fddf252ad1be2c89b69c2b068fc378daa952ba7f163c4a11628f55a4df523b3ef846040516105b691815260200190565b60405180910390a35060019392505050565b600654600160a060020a0316331461063c576040517f08c379a000000000000000000000000000000000000000000000000000000000815260206004820152600e60248201527f4e6f7420617574686f72697a65640000000000000000000000000000000000006044820152606401610339565b6000548160015461064d9190611289565b11156106dd57604080517f08c379a00000000000000000000000000000000000000000000000000000000081526020600482015260248101919091527f63616e6e6f74206d696e74207468652072657175657374656420616d6f756e7460448201527f206f6620746f6b656e732c20737570706c79206c696d697420746f6f206c6f776064820152608401610339565b600160a060020a03821660009081526002602052604081208054839290610705908490611289565b92505081905550806001600082825461071e9190611289565b9091555050604051818152600160a060020a038316906000907fddf252ad1be2c89b69c2b068fc378daa952ba7f163c4a11628f55a4df523b3ef9060200160405180910390a35050565b336000908152600260205260409020548111156107e1576040517f08c379a000000000000000000000000000000000000000000000000000000000815260206004820152601e60248201527f696e73756666696369656e742062616c616e636520696e2073656e64657200006044820152606401610339565b3360009081526002602052604081208054839290610800908490611276565b9250508190555080600160008282546108199190611276565b909155505060405181815260009033907fddf252ad1be2c89b69c2b068fc378daa952ba7f163c4a11628f55a4df523b3ef9060200160405180910390a350565b60058054610243906111f4565b6040805161012081018252600080825260208201819052918101829052606081018290526080810182905260a0810182905260c0810182905260e08101829052610100810191909152600082905030600160a060020a031681600160a060020a03166325be124e6040518163ffffffff167c0100000000000000000000000000000000000000000000000000000000028152600401602060405180830381865afa158015610918573d6000803e3d6000fd5b505050506040513d601f19601f8201168201806040525081019061093c91906112ac565b600160a060020a0316146109ac576040517f08c379a000000000000000000000000000000000000000000000000000000000815260206004820181905260248201527f6c697374696e672077616e7473206120646966666572656e7420746f6b656e326044820152606401610339565b80600160a060020a031663c4e5edcd6040518163ffffffff167c0100000000000000000000000000000000000000000000000000000000028152600401602060405180830381865afa158015610a06573d6000803e3d6000fd5b505050506040513d601f19601f82011682018060405250810190610a2a91906112c9565b336000908152600260205260409020541015610aa2576040517f08c379a000000000000000000000000000000000000000000000000000000000815260206004820152601e60248201527f696e73756666696369656e742062616c616e636520696e2073656e64657200006044820152606401610339565b80600160a060020a031663c4e5edcd6040518163ffffffff167c0100000000000000000000000000000000000000000000000000000000028152600401602060405180830381865afa158015610afc573d6000803e3d6000fd5b505050506040513d601f19601f82011682018060405250810190610b2091906112c9565b336000908152600360209081526040808320600160a060020a038816845290915281208054909190610b53908490611289565b9250508190555082600160a060020a031633600160a060020a03167f8c5be1e5ebec7d5bd14f71427d1e84f3dd0314c0f7b2291e5b200ac8c7c3b92583600160a060020a031663c4e5edcd6040518163ffffffff167c0100000000000000000000000000000000000000000000000000000000028152600401602060405180830381865afa158015610be9573d6000803e3d6000fd5b505050506040513d601f19601f82011682018060405250810190610c0d91906112c9565b60405190815260200160405180910390a36040517f6f6ff405000000000000000000000000000000000000000000000000000000008152336004820152600090600160a060020a03831690636f6ff40590602401610120604051808303816000875af1158015610c81573d6000803e3d6000fd5b505050506040513d601f19601f82011682018060405250810190610ca59190611343565b949350505050565b33600090815260026020526040812054821115610d26576040517f08c379a000000000000000000000000000000000000000000000000000000000815260206004820152601e60248201527f696e73756666696369656e742062616c616e636520696e2073656e64657200006044820152606401610339565b3360009081526002602052604081208054849290610d45908490611276565b9091555050600160a060020a03831660009081526002602052604081208054849290610d72908490611289565b9091555050336000908152600360209081526040808320600160a060020a038716845290915281208054849290610daa908490611276565b9091555050604051828152600160a060020a0384169033907fddf252ad1be2c89b69c2b068fc378daa952ba7f163c4a11628f55a4df523b3ef90602001610396565b604080516101208101825260008082526020808301829052828401829052606083018290526080830182905260a0830182905260c0830182905260e083018290526101008301829052338252600290529190912054841115610eaa576040517f08c379a000000000000000000000000000000000000000000000000000000000815260206004820152601e60248201527f696e73756666696369656e742062616c616e636520696e2073656e64657200006044820152606401610339565b6007546040517f2cd1adfe00000000000000000000000000000000000000000000000000000000815233600482015260248101869052600160a060020a038581166044830152606482018590526000921690632cd1adfe90608401610120604051808303816000875af1158015610f25573d6000803e3d6000fd5b505050506040513d601f19601f82011682018060405250810190610f499190611343565b602080820151336000908152600383526040808220600160a060020a038416835290935291822080549394509092889290610f85908490611289565b9091555050604051868152600160a060020a0382169033907f8c5be1e5ebec7d5bd14f71427d1e84f3dd0314c0f7b2291e5b200ac8c7c3b9259060200160405180910390a350949350505050565b600060208083528351808285015260005b8181101561100057858101830151858201604001528201610fe4565b506000604082860101526040601f19601f8301168501019250505092915050565b600160a060020a038116811461103657600080fd5b50565b6000806040838503121561104c57600080fd5b823561105781611021565b946020939093013593505050565b60008060006060848603121561107a57600080fd5b833561108581611021565b9250602084013561109581611021565b929592945050506040919091013590565b6000602082840312156110b857600080fd5b5035919050565b6000602082840312156110d157600080fd5b81356110dc81611021565b9392505050565b600061012082019050825182526020830151600160a060020a0380821660208501528060408601511660408501525050606083015161112d6060840182600160a060020a03169052565b506080830151608083015260a083015161115260a0840182600160a060020a03169052565b5060c083015161116d60c0840182600160a060020a03169052565b5060e083015160e08301526101008084015161118c8285018215159052565b505092915050565b600080604083850312156111a757600080fd5b82356111b281611021565b915060208301356111c281611021565b809150509250929050565b6000806000606084860312156111e257600080fd5b83359250602084013561109581611021565b60028104600182168061120857607f821691505b602082108103611241577f4e487b7100000000000000000000000000000000000000000000000000000000600052602260045260246000fd5b50919050565b7f4e487b7100000000000000000000000000000000000000000000000000000000600052601160045260246000fd5b818103818111156103a2576103a2611247565b808201808211156103a2576103a2611247565b80516112a781611021565b919050565b6000602082840312156112be57600080fd5b81516110dc81611021565b6000602082840312156112db57600080fd5b5051919050565b604051610120810167ffffffffffffffff8111828210171561132d577f4e487b7100000000000000000000000000000000000000000000000000000000600052604160045260246000fd5b60405290565b805180151581146112a757600080fd5b6000610120828403121561135657600080fd5b61135e6112e2565b8251815261136e6020840161129c565b602082015261137f6040840161129c565b60408201526113906060840161129c565b6060820152608083015160808201526113ab60a0840161129c565b60a08201526113bc60c0840161129c565b60c082015260e083015160e08201526101006113d9818501611333565b90820152939250505056fea2646970667358221220c66c748e2c5d1338a257c9392ba5ed7406e2c87db560da933e3fdc4748815a4e64736f6c63430008110033",
  "immutableReferences": {},
  "source": "// SPDX-License-Identifier: MIT\npragma solidity >=0.4.22 <0.9.0;\n\nimport \"./ListingContract.sol\";\nimport \"./IListingOwner.sol\";\nimport \"./Models.sol\";\nimport \"./HwangMarket.sol\";\nimport \"./IterableMapping.sol\";\nimport \"./GameERC20Token.sol\";\nimport \"@chainlink/contracts/src/v0.8/interfaces/AggregatorV3Interface.sol\";\nimport \"@openzeppelin/contracts/token/ERC20/IERC20.sol\";\nimport \"@openzeppelin/contracts/utils/math/SafeMath.sol\";\n\ncontract GameContract is IListingOwner {\n  using SafeMath for uint256;\n  using IterableMapping for IterableMapping.ListingsMap;\n\n  enum GameStatus {\n    OPEN,\n    CLOSED\n  }\n\n  enum gameSide {\n    UNKNOWN,\n    YES,\n    NO\n  }\n\n  address public hwangMarketAddr; \n  GameStatus public status;\n  gameSide public gameOutcome;\n  uint256 public gameResolveTime;\n  int256 public threshold;\n  string public tag;\n  string public title;\n  uint256 public id;\n  uint256 public createdTime;\n  address public oracleAddr;\n\n  mapping(gameSide => uint256) public amtPlacedOnSide; // remember how much amount is placed on each side in terms of HMTKN\n  AggregatorV3Interface internal priceFeed;\n\n\n  // Trx types constant\n  string constant BetActivityType = \"BET\";\n  string constant WithdrawActivityType = \"WITHDRAW\";\n\n  // conversion rate from 1 HMTKN to 1 Game Token\n  uint constant mainTkn2GameTknConversionRate = 1;\n  uint constant supplyLimit = 1000;\n\n  // for every record, we track a list of transactions\n  struct Trx {\n    // Common fields\n    uint256 trxId;\n    string activityType;  // \"BET\", \"SELL\"\n    uint256 trxAmt;\n    uint256 trxTime; // when the trx was initiated\n    uint8 gameSide;\n\n    // if BET, from = game contract addr, to = player addr\n    // if SELL, from = seller addr, to = buyer addr\n    address from;\n    address to;\n  }\n  Trx[] trxs;\n  uint256 internal trxId;\n\n  address public gameNoTokenContractAddress;\n  GameERC20Token public gameNoTokenContract;\n  address public gameYesTokenContractAddress;\n  GameERC20Token public gameYesTokenContract;\n\n  IterableMapping.ListingsMap private listingContracts;\n  uint256 public listingsCount;\n\n  event NewListing(Models.ListingInfo listingInfo);\n  event ListingFulfilled(Models.ListingInfo listingInfo);\n\n  // constructor takes in a resolve time, a oracleAddr (oracle address), and a threshold, \n  // where a gameSide of NO indicates < threshold, and a gameSide of YES indicates >= threshold\n  constructor(address hmAddr , uint256 resolveTime, address _oracleAddr, int256 thres, string memory _tag, string memory _title, uint256 _id) {\n    hwangMarketAddr = hmAddr;\n    status = GameStatus.OPEN;\n    gameResolveTime = resolveTime; // set when the game is allowed to conclude\n    gameOutcome = gameSide.UNKNOWN; // explicitly set gameOutcome to undecided\n    priceFeed = AggregatorV3Interface(oracleAddr);\n    threshold = thres;\n    tag = _tag;\n    title = _title;\n    id = _id;\n    createdTime = block.timestamp;\n    oracleAddr = _oracleAddr;\n\n    // every game contract deploys 2 IERC20 token contracts\n    // yes and no tokens\n    gameNoTokenContract = new GameERC20Token(\"GameNoToken\", \"GNT\", supplyLimit);\n    gameNoTokenContractAddress = address(gameNoTokenContract);\n    gameYesTokenContract = new GameERC20Token(\"GameYesToken\", \"GYT\", supplyLimit);\n    gameYesTokenContractAddress = address(gameYesTokenContract);\n  }\n\n  // creates a new listing\n  function newListing(address _player, uint256 token1Amt, address token2, uint256 token2Amt) public returns(Models.ListingInfo memory) {\n    require(msg.sender == gameNoTokenContractAddress || msg.sender == gameYesTokenContractAddress, \"only game token can create new listings\");\n    uint256 newListingId = listingsCount;\n    ListingContract newListingContract = new ListingContract(newListingId, _player, msg.sender, token1Amt, token2, token2Amt);\n    Models.ListingInfo memory listingInfo = Models.ListingInfo({\n      listingId: newListingId,\n      listingAddr: address(newListingContract),\n      player1: _player,\n      token1: msg.sender,\n      token1Amt: token1Amt,\n      player2: address(0),\n      token2: token2,\n      token2Amt: token2Amt,\n      fulfilled: false\n    });\n    listingContracts.set(newListingId, listingInfo);\n\n    listingsCount++;\n\n    emit NewListing(listingInfo);\n    return listingInfo;\n  }\n\n  function getListingContractAddressById(uint listingId) external view returns(address) {\n    return listingContracts.get(listingId).listingAddr;\n  }\n\n  function getAllListings() external view returns (Models.ListingInfo[] memory) {\n    return listingContracts.getlistingValues();\n  }\n\n  function updateListing(Models.ListingInfo memory listingInfo) public {\n    listingContracts.set(listingInfo.listingId, listingInfo);\n\n    emit ListingFulfilled(listingInfo);\n  }\n\n  /**\n    * Returns the latest price\n    */\n  function getLatestPrice() public view returns (int) {\n      (\n          /*uint80 roundID*/,\n          int price,\n          /*uint startedAt*/,\n          /*uint timeStamp*/,\n          /*uint80 answeredInRound*/\n      ) = priceFeed.latestRoundData();\n      return price;\n  }\n\n  // to get game information\n  function getGameInfo() \n    external \n    view \n    returns (Models.GameMetadata memory) {\n    uint8 side = 0;\n    if (gameOutcome == gameSide.YES) {\n      side = 1;\n    } else if (gameOutcome == gameSide.NO) {\n      side = 2;\n    }\n    \n    return Models.GameMetadata({\n      id: id,\n      createdTime: createdTime,\n      addr: address(this),\n      tag: tag,\n      title: title,\n      oracleAddr: oracleAddr,\n      resolveTime: gameResolveTime,\n      threshold: threshold,\n      totalAmount: amtPlacedOnSide[gameSide.YES] + amtPlacedOnSide[gameSide.NO],\n      betYesAmount: amtPlacedOnSide[gameSide.YES],\n      betNoAmount: amtPlacedOnSide[gameSide.NO],\n      ongoing: gameOutcome == gameSide.UNKNOWN,\n      gameOutcome: side\n    });\n  }\n\n  // payable keyword should allow depositing of ethereum into smart contract\n  // allow msg.sender address to register as a player\n  function addPlayer(address _player, uint256 hwangMktTokenAmt, uint8 betSide) public {\n      require(status == GameStatus.OPEN, \"Game is closed, no further bets accepted\");\n      require(betSide == 1 || betSide == 2, \"bet side is not recognised\");\n      require(block.timestamp <= gameResolveTime, \"cannot put bets after resolve time\");\n      gameSide side = gameSide.NO; // 1 - YES, 2 - NO\n      if (betSide == 1) {\n        side = gameSide.YES;\n      }\n      GameERC20Token gameTokenContract = gameNoTokenContract;\n      if (betSide == 1) {\n        gameTokenContract = gameYesTokenContract;\n      }\n      uint256 requestedMintAmt = hwangMktTokenAmt * mainTkn2GameTknConversionRate;\n      // mint the respective 1-1 game token to the player\n      gameTokenContract.mint(_player, requestedMintAmt);\n      // collect the player's main token, deposit under the game address\n      HwangMarket hm = HwangMarket(hwangMarketAddr);\n      _safeTransferFrom(IERC20(hm.mainTokenAddress()), _player, address(this), hwangMktTokenAmt);\n\n      // book keeping\n      amtPlacedOnSide[side] += hwangMktTokenAmt;\n      uint256 timestamp = block.timestamp;\n      trxs.push(Trx({\n        trxId: trxId,\n        activityType: BetActivityType,\n        gameSide: betSide,\n        trxAmt: hwangMktTokenAmt,\n        trxTime: timestamp,\n        from: address(this),\n        to: _player\n      }));\n      trxId++;\n\n      hm.playerJoinedSide(_player, betSide, hwangMktTokenAmt, timestamp);\n    }\n\n  // for now, we return all, can consider performing pagination here\n  function getTrxs() external view returns(Trx[] memory) {\n    return trxs;\n  }\n\n  function getSideAmt(uint8 s) public view returns (uint256) {\n    require((s == 1 || s == 2), \"side must be one of 1 or 2\");\n    gameSide side = gameSide.NO;\n    if (s == 1) {\n      side = gameSide.YES;\n    }\n\n    return amtPlacedOnSide[side];\n  }\n\n  // impt: anyone can call the contract to perform upkeep but it has a guard to protect against early resolves\n  // and it checks against a \"trusted\" oracle chainlink to fetch the result\n  function performUpkeep() public {\n    if (block.timestamp < gameResolveTime || status == GameStatus.CLOSED) {\n      return;\n    }\n\n    status = GameStatus.CLOSED;\n    gameSide side = gameSide.NO;\n    uint8 rawSide = 2;\n    if (getLatestPrice() >= threshold) {\n      side = gameSide.YES;\n      rawSide = 1;\n    }\n    gameOutcome = side;\n\n    HwangMarket(hwangMarketAddr).concludeGame(rawSide);\n  }\n\n  // allow winners to withdraw their winnings in term of HMTKN\n  function withdrawWinnings(uint withdrawAmt) public {\n    require(status == GameStatus.CLOSED, \"game is not yet closed\"); // game must be closed\n    require(gameOutcome != gameSide.UNKNOWN, \"game outcome cannot be unknown\"); // game outcome cannot be unknown\n    IERC20 gameTokenContract = gameNoTokenContract;\n    if (gameOutcome == gameSide.YES) {\n      gameTokenContract = gameYesTokenContract;\n    }\n    require(gameTokenContract.allowance(msg.sender, address(this)) >= withdrawAmt, \"player must approve withdraw amount\");\n    require(gameTokenContract.balanceOf(msg.sender) >= withdrawAmt, \"player must have game token amount to withdraw\");\n\n    // where to calculate amount of winnings\n    // calculated winnings = (player's bet amount / total bet amount on winning side) * total bet amount on losing side\n    gameSide oppSide = gameSide.NO;\n    if (gameOutcome == gameSide.NO) {\n      oppSide = gameSide.YES;\n    }\n    uint256 hwangMarketTokenAmt = (1 / mainTkn2GameTknConversionRate) * withdrawAmt;\n    uint256 winnings = ((hwangMarketTokenAmt / amtPlacedOnSide[gameOutcome]) * amtPlacedOnSide[oppSide]) + hwangMarketTokenAmt;\n\n    // initiate transfer of hwang market tokens from game to player\n    IERC20(HwangMarket(hwangMarketAddr).mainTokenAddress()).transfer(msg.sender, winnings);\n    // initiate transfer of game token from player back to game\n    _safeTransferFrom(gameTokenContract, msg.sender, address(this), withdrawAmt);\n\n    uint8 betSide = 2;\n    if (gameOutcome == gameSide.YES) {\n      betSide = 1;\n    }\n    uint256 timestamp = block.timestamp;\n    trxs.push(Trx({\n      trxId: trxId,\n      activityType: WithdrawActivityType,\n      gameSide: betSide,\n      trxAmt: winnings,\n      trxTime: timestamp,\n      from: address(this),\n      to: msg.sender\n    }));\n    trxId++;\n    HwangMarket(hwangMarketAddr).playerWithdrawWinnings(msg.sender, betSide, winnings, timestamp);\n  }\n\n  function _safeTransferFrom(\n    IERC20 token,\n    address sender,\n    address recipient,\n    uint amount\n    ) private {\n      bool sent = token.transferFrom(sender, recipient, amount);\n      require(sent, \"Token transfer failed\");\n    }\n}\n",
  "sourcePath": "/Users/gerald/Desktop/HwangMarket/contracts/GameContract.sol",
  "compiler": {
    "name": "solc",
    "version": "0.8.17+commit.8df45f5f.Emscripten.clang"
  },
  "schemaVersion": "3.4.10",
  "updatedAt": "2022-11-03T13:05:22.274Z",
  "devdoc": {
    "kind": "dev",
    "methods": {},
    "version": 1
  },
  "userdoc": {
    "kind": "user",
    "methods": {
      "getLatestPrice()": {
        "notice": "Returns the latest price"
      }
    },
    "version": 1
  }
}