{
  "contractName": "HwangMarket",
  "abi": [
    {
      "inputs": [],
      "stateMutability": "nonpayable",
      "type": "constructor"
    },
    {
      "anonymous": false,
      "inputs": [
        {
          "indexed": false,
          "internalType": "uint256",
          "name": "gameId",
          "type": "uint256"
        },
        {
          "indexed": false,
          "internalType": "address",
          "name": "gameAddr",
          "type": "address"
        },
        {
          "indexed": false,
          "internalType": "uint8",
          "name": "gameOutcome",
          "type": "uint8"
        }
      ],
      "name": "GameConcluded",
      "type": "event"
    },
    {
      "anonymous": false,
      "inputs": [
        {
          "components": [
            {
              "internalType": "uint256",
              "name": "id",
              "type": "uint256"
            },
            {
              "internalType": "address",
              "name": "addr",
              "type": "address"
            },
            {
              "internalType": "string",
              "name": "tag",
              "type": "string"
            },
            {
              "internalType": "string",
              "name": "title",
              "type": "string"
            },
            {
              "internalType": "address",
              "name": "oracleAddr",
              "type": "address"
            },
            {
              "internalType": "uint256",
              "name": "resolveTime",
              "type": "uint256"
            },
            {
              "internalType": "int256",
              "name": "threshold",
              "type": "int256"
            },
            {
              "internalType": "uint256",
              "name": "totalAmount",
              "type": "uint256"
            },
            {
              "internalType": "uint256",
              "name": "betYesAmount",
              "type": "uint256"
            },
            {
              "internalType": "uint256",
              "name": "betNoAmount",
              "type": "uint256"
            },
            {
              "internalType": "bool",
              "name": "ongoing",
              "type": "bool"
            },
            {
              "internalType": "uint8",
              "name": "gameOutcome",
              "type": "uint8"
            }
          ],
          "indexed": false,
          "internalType": "struct HwangMarket.GameMetadata",
          "name": "gameMetadata",
          "type": "tuple"
        }
      ],
      "name": "GameCreated",
      "type": "event"
    },
    {
      "anonymous": false,
      "inputs": [
        {
          "indexed": false,
          "internalType": "address",
          "name": "player",
          "type": "address"
        },
        {
          "indexed": false,
          "internalType": "uint256",
          "name": "gameId",
          "type": "uint256"
        },
        {
          "indexed": false,
          "internalType": "address",
          "name": "gameAddr",
          "type": "address"
        },
        {
          "indexed": false,
          "internalType": "uint8",
          "name": "betSide",
          "type": "uint8"
        },
        {
          "indexed": false,
          "internalType": "uint256",
          "name": "amount",
          "type": "uint256"
        }
      ],
      "name": "PlayerJoinedGameEvent",
      "type": "event"
    },
    {
      "anonymous": false,
      "inputs": [
        {
          "indexed": false,
          "internalType": "address",
          "name": "player",
          "type": "address"
        },
        {
          "indexed": false,
          "internalType": "uint256",
          "name": "gameId",
          "type": "uint256"
        },
        {
          "indexed": false,
          "internalType": "address",
          "name": "gameAddr",
          "type": "address"
        },
        {
          "indexed": false,
          "internalType": "uint8",
          "name": "betSide",
          "type": "uint8"
        },
        {
          "indexed": false,
          "internalType": "uint256",
          "name": "withdrawedAmt",
          "type": "uint256"
        }
      ],
      "name": "PlayerWithdrawedWinnings",
      "type": "event"
    },
    {
      "inputs": [
        {
          "internalType": "uint256",
          "name": "",
          "type": "uint256"
        }
      ],
      "name": "closedGames",
      "outputs": [
        {
          "internalType": "uint256",
          "name": "id",
          "type": "uint256"
        },
        {
          "internalType": "address",
          "name": "addr",
          "type": "address"
        },
        {
          "internalType": "string",
          "name": "tag",
          "type": "string"
        },
        {
          "internalType": "string",
          "name": "title",
          "type": "string"
        },
        {
          "internalType": "address",
          "name": "oracleAddr",
          "type": "address"
        },
        {
          "internalType": "uint256",
          "name": "resolveTime",
          "type": "uint256"
        },
        {
          "internalType": "int256",
          "name": "threshold",
          "type": "int256"
        },
        {
          "internalType": "uint256",
          "name": "totalAmount",
          "type": "uint256"
        },
        {
          "internalType": "uint256",
          "name": "betYesAmount",
          "type": "uint256"
        },
        {
          "internalType": "uint256",
          "name": "betNoAmount",
          "type": "uint256"
        },
        {
          "internalType": "bool",
          "name": "ongoing",
          "type": "bool"
        },
        {
          "internalType": "uint8",
          "name": "gameOutcome",
          "type": "uint8"
        }
      ],
      "stateMutability": "view",
      "type": "function",
      "constant": true
    },
    {
      "inputs": [
        {
          "internalType": "address",
          "name": "",
          "type": "address"
        }
      ],
      "name": "gameAddr2Id",
      "outputs": [
        {
          "internalType": "uint256",
          "name": "",
          "type": "uint256"
        }
      ],
      "stateMutability": "view",
      "type": "function",
      "constant": true
    },
    {
      "inputs": [
        {
          "internalType": "uint256",
          "name": "",
          "type": "uint256"
        }
      ],
      "name": "gameContractRegistry",
      "outputs": [
        {
          "internalType": "uint256",
          "name": "id",
          "type": "uint256"
        },
        {
          "internalType": "address",
          "name": "addr",
          "type": "address"
        },
        {
          "internalType": "string",
          "name": "tag",
          "type": "string"
        },
        {
          "internalType": "string",
          "name": "title",
          "type": "string"
        },
        {
          "internalType": "address",
          "name": "oracleAddr",
          "type": "address"
        },
        {
          "internalType": "uint256",
          "name": "resolveTime",
          "type": "uint256"
        },
        {
          "internalType": "int256",
          "name": "threshold",
          "type": "int256"
        },
        {
          "internalType": "uint256",
          "name": "totalAmount",
          "type": "uint256"
        },
        {
          "internalType": "uint256",
          "name": "betYesAmount",
          "type": "uint256"
        },
        {
          "internalType": "uint256",
          "name": "betNoAmount",
          "type": "uint256"
        },
        {
          "internalType": "bool",
          "name": "ongoing",
          "type": "bool"
        },
        {
          "internalType": "uint8",
          "name": "gameOutcome",
          "type": "uint8"
        }
      ],
      "stateMutability": "view",
      "type": "function",
      "constant": true
    },
    {
      "inputs": [],
      "name": "mainToken",
      "outputs": [
        {
          "internalType": "contract MainToken",
          "name": "",
          "type": "address"
        }
      ],
      "stateMutability": "view",
      "type": "function",
      "constant": true
    },
    {
      "inputs": [],
      "name": "mainTokenAddress",
      "outputs": [
        {
          "internalType": "address",
          "name": "",
          "type": "address"
        }
      ],
      "stateMutability": "view",
      "type": "function",
      "constant": true
    },
    {
      "inputs": [
        {
          "internalType": "uint256",
          "name": "",
          "type": "uint256"
        }
      ],
      "name": "ongoingGames",
      "outputs": [
        {
          "internalType": "uint256",
          "name": "id",
          "type": "uint256"
        },
        {
          "internalType": "address",
          "name": "addr",
          "type": "address"
        },
        {
          "internalType": "string",
          "name": "tag",
          "type": "string"
        },
        {
          "internalType": "string",
          "name": "title",
          "type": "string"
        },
        {
          "internalType": "address",
          "name": "oracleAddr",
          "type": "address"
        },
        {
          "internalType": "uint256",
          "name": "resolveTime",
          "type": "uint256"
        },
        {
          "internalType": "int256",
          "name": "threshold",
          "type": "int256"
        },
        {
          "internalType": "uint256",
          "name": "totalAmount",
          "type": "uint256"
        },
        {
          "internalType": "uint256",
          "name": "betYesAmount",
          "type": "uint256"
        },
        {
          "internalType": "uint256",
          "name": "betNoAmount",
          "type": "uint256"
        },
        {
          "internalType": "bool",
          "name": "ongoing",
          "type": "bool"
        },
        {
          "internalType": "uint8",
          "name": "gameOutcome",
          "type": "uint8"
        }
      ],
      "stateMutability": "view",
      "type": "function",
      "constant": true
    },
    {
      "inputs": [
        {
          "internalType": "address",
          "name": "",
          "type": "address"
        },
        {
          "internalType": "uint256",
          "name": "",
          "type": "uint256"
        }
      ],
      "name": "playersRecords",
      "outputs": [
        {
          "internalType": "uint256",
          "name": "trxId",
          "type": "uint256"
        },
        {
          "internalType": "string",
          "name": "activityType",
          "type": "string"
        },
        {
          "internalType": "uint256",
          "name": "gameId",
          "type": "uint256"
        },
        {
          "internalType": "uint256",
          "name": "trxAmt",
          "type": "uint256"
        },
        {
          "internalType": "uint256",
          "name": "trxTime",
          "type": "uint256"
        },
        {
          "internalType": "uint8",
          "name": "gameSide",
          "type": "uint8"
        },
        {
          "internalType": "address",
          "name": "from",
          "type": "address"
        },
        {
          "internalType": "address",
          "name": "to",
          "type": "address"
        }
      ],
      "stateMutability": "view",
      "type": "function",
      "constant": true
    },
    {
      "stateMutability": "payable",
      "type": "receive",
      "payable": true
    },
    {
      "inputs": [
        {
          "internalType": "uint256",
          "name": "resolveTime",
          "type": "uint256"
        },
        {
          "internalType": "address",
          "name": "oracleAddr",
          "type": "address"
        },
        {
          "internalType": "int256",
          "name": "threshold",
          "type": "int256"
        },
        {
          "internalType": "string",
          "name": "tag",
          "type": "string"
        },
        {
          "internalType": "string",
          "name": "title",
          "type": "string"
        }
      ],
      "name": "createGame",
      "outputs": [
        {
          "internalType": "address",
          "name": "",
          "type": "address"
        }
      ],
      "stateMutability": "nonpayable",
      "type": "function"
    },
    {
      "inputs": [],
      "name": "getGameCount",
      "outputs": [
        {
          "internalType": "uint256",
          "name": "",
          "type": "uint256"
        }
      ],
      "stateMutability": "view",
      "type": "function",
      "constant": true
    },
    {
      "inputs": [
        {
          "internalType": "uint256",
          "name": "X",
          "type": "uint256"
        },
        {
          "internalType": "uint256",
          "name": "Y",
          "type": "uint256"
        }
      ],
      "name": "getXtoYGame",
      "outputs": [
        {
          "components": [
            {
              "internalType": "uint256",
              "name": "id",
              "type": "uint256"
            },
            {
              "internalType": "address",
              "name": "addr",
              "type": "address"
            },
            {
              "internalType": "string",
              "name": "tag",
              "type": "string"
            },
            {
              "internalType": "string",
              "name": "title",
              "type": "string"
            },
            {
              "internalType": "address",
              "name": "oracleAddr",
              "type": "address"
            },
            {
              "internalType": "uint256",
              "name": "resolveTime",
              "type": "uint256"
            },
            {
              "internalType": "int256",
              "name": "threshold",
              "type": "int256"
            },
            {
              "internalType": "uint256",
              "name": "totalAmount",
              "type": "uint256"
            },
            {
              "internalType": "uint256",
              "name": "betYesAmount",
              "type": "uint256"
            },
            {
              "internalType": "uint256",
              "name": "betNoAmount",
              "type": "uint256"
            },
            {
              "internalType": "bool",
              "name": "ongoing",
              "type": "bool"
            },
            {
              "internalType": "uint8",
              "name": "gameOutcome",
              "type": "uint8"
            }
          ],
          "internalType": "struct HwangMarket.GameMetadata[]",
          "name": "",
          "type": "tuple[]"
        }
      ],
      "stateMutability": "view",
      "type": "function",
      "constant": true
    },
    {
      "inputs": [],
      "name": "getAllGames",
      "outputs": [
        {
          "components": [
            {
              "internalType": "uint256",
              "name": "id",
              "type": "uint256"
            },
            {
              "internalType": "address",
              "name": "addr",
              "type": "address"
            },
            {
              "internalType": "string",
              "name": "tag",
              "type": "string"
            },
            {
              "internalType": "string",
              "name": "title",
              "type": "string"
            },
            {
              "internalType": "address",
              "name": "oracleAddr",
              "type": "address"
            },
            {
              "internalType": "uint256",
              "name": "resolveTime",
              "type": "uint256"
            },
            {
              "internalType": "int256",
              "name": "threshold",
              "type": "int256"
            },
            {
              "internalType": "uint256",
              "name": "totalAmount",
              "type": "uint256"
            },
            {
              "internalType": "uint256",
              "name": "betYesAmount",
              "type": "uint256"
            },
            {
              "internalType": "uint256",
              "name": "betNoAmount",
              "type": "uint256"
            },
            {
              "internalType": "bool",
              "name": "ongoing",
              "type": "bool"
            },
            {
              "internalType": "uint8",
              "name": "gameOutcome",
              "type": "uint8"
            }
          ],
          "internalType": "struct HwangMarket.GameMetadata[]",
          "name": "",
          "type": "tuple[]"
        }
      ],
      "stateMutability": "view",
      "type": "function",
      "constant": true
    },
    {
      "inputs": [],
      "name": "getAllOngoingGames",
      "outputs": [
        {
          "components": [
            {
              "internalType": "uint256",
              "name": "id",
              "type": "uint256"
            },
            {
              "internalType": "address",
              "name": "addr",
              "type": "address"
            },
            {
              "internalType": "string",
              "name": "tag",
              "type": "string"
            },
            {
              "internalType": "string",
              "name": "title",
              "type": "string"
            },
            {
              "internalType": "address",
              "name": "oracleAddr",
              "type": "address"
            },
            {
              "internalType": "uint256",
              "name": "resolveTime",
              "type": "uint256"
            },
            {
              "internalType": "int256",
              "name": "threshold",
              "type": "int256"
            },
            {
              "internalType": "uint256",
              "name": "totalAmount",
              "type": "uint256"
            },
            {
              "internalType": "uint256",
              "name": "betYesAmount",
              "type": "uint256"
            },
            {
              "internalType": "uint256",
              "name": "betNoAmount",
              "type": "uint256"
            },
            {
              "internalType": "bool",
              "name": "ongoing",
              "type": "bool"
            },
            {
              "internalType": "uint8",
              "name": "gameOutcome",
              "type": "uint8"
            }
          ],
          "internalType": "struct HwangMarket.GameMetadata[]",
          "name": "",
          "type": "tuple[]"
        }
      ],
      "stateMutability": "view",
      "type": "function",
      "constant": true
    },
    {
      "inputs": [
        {
          "internalType": "address",
          "name": "player",
          "type": "address"
        },
        {
          "internalType": "uint8",
          "name": "betSide",
          "type": "uint8"
        },
        {
          "internalType": "uint256",
          "name": "amount",
          "type": "uint256"
        },
        {
          "internalType": "uint256",
          "name": "timestamp",
          "type": "uint256"
        }
      ],
      "name": "playerJoinedSide",
      "outputs": [],
      "stateMutability": "nonpayable",
      "type": "function"
    },
    {
      "inputs": [
        {
          "internalType": "address",
          "name": "_player",
          "type": "address"
        },
        {
          "internalType": "uint8",
          "name": "betSide",
          "type": "uint8"
        },
        {
          "internalType": "uint256",
          "name": "withdrawAmt",
          "type": "uint256"
        },
        {
          "internalType": "uint256",
          "name": "timestamp",
          "type": "uint256"
        }
      ],
      "name": "playerWithdrawWinnings",
      "outputs": [],
      "stateMutability": "nonpayable",
      "type": "function"
    },
    {
      "inputs": [
        {
          "internalType": "uint8",
          "name": "gameOutcome",
          "type": "uint8"
        }
      ],
      "name": "concludeGame",
      "outputs": [],
      "stateMutability": "nonpayable",
      "type": "function"
    },
    {
      "inputs": [],
      "name": "playersSwapSide",
      "outputs": [],
      "stateMutability": "nonpayable",
      "type": "function"
    },
    {
      "inputs": [],
      "name": "getBalance",
      "outputs": [
        {
          "internalType": "uint256",
          "name": "",
          "type": "uint256"
        }
      ],
      "stateMutability": "view",
      "type": "function",
      "constant": true
    }
  ],
  "bytecode": "0x60806040523480156200001157600080fd5b506001600355604051620000259062000074565b604051809103906000f08015801562000042573d6000803e3d6000fd5b5060018054600160a060020a0392909216600160a060020a031992831681179091556000805490921617905562000082565b61114c8062005af483390190565b615a6280620000926000396000f3fe60806040526004361062000134576000357c0100000000000000000000000000000000000000000000000000000000900480636435e81711620000be578063d3eb618c1162000089578063d3eb618c1462000331578063db1c45f9146200036c578063e005533b1462000384578063e362937d14620003a9578063e87c0ee614620003ce57600080fd5b80636435e81714620002945780637976948814620002b9578063829a32ef14620002de578063ce1f335c146200030f57600080fd5b80632980a3cb11620000ff5780632980a3cb14620001ea5780633f863f1914620002285780633fc15f15146200024d5780635039eb97146200026f57600080fd5b806304ad465f14620001415780630561d0b2146200018957806312065fe014620001a35780632696d1de14620001c357600080fd5b366200013c57005b600080fd5b3480156200014e57600080fd5b50620001666200016036600462002129565b620003e6565b604051620001809c9b9a999897969594939291906200218b565b60405180910390f35b3480156200019657600080fd5b50620001a162000590565b005b348015620001b057600080fd5b5030315b60405190815260200162000180565b348015620001d057600080fd5b50620001db620005d2565b60405162000180919062002217565b348015620001f757600080fd5b506200020f62000209366004620023f7565b620007ee565b604051600160a060020a03909116815260200162000180565b3480156200023557600080fd5b50620001666200024736600462002129565b62000bb4565b3480156200025a57600080fd5b506001546200020f90600160a060020a031681565b3480156200027c57600080fd5b50620001a16200028e3660046200249a565b62000be8565b348015620002a157600080fd5b5062000166620002b336600462002129565b62001019565b348015620002c657600080fd5b50620001a1620002d83660046200249a565b6200102a565b348015620002eb57600080fd5b50620001b4620002fd366004620024e1565b60056020526000908152604090205481565b3480156200031c57600080fd5b506000546200020f90600160a060020a031681565b3480156200033e57600080fd5b506200035662000350366004620024ff565b62001228565b604051620001809897969594939291906200252c565b3480156200037957600080fd5b50620001db62001330565b3480156200039157600080fd5b50620001db620003a33660046200258a565b620015d4565b348015620003b657600080fd5b50620001a1620003c8366004620025ad565b620018c6565b348015620003db57600080fd5b50620001b462002068565b60098181548110620003f757600080fd5b60009182526020909120600b9091020180546001820154600283018054929450600160a060020a0390911692916200042f90620025cb565b80601f01602080910402602001604051908101604052809291908181526020018280546200045d90620025cb565b8015620004ae5780601f106200048257610100808354040283529160200191620004ae565b820191906000526020600020905b8154815290600101906020018083116200049057829003601f168201915b505050505090806003018054620004c590620025cb565b80601f0160208091040260200160405190810160405280929190818152602001828054620004f390620025cb565b8015620005445780601f10620005185761010080835404028352916020019162000544565b820191906000526020600020905b8154815290600101906020018083116200052657829003601f168201915b50505050600483015460058401546006850154600786015460088701546009880154600a909801549697600160a060020a03909516969395509193909260ff808216916101009004168c565b6001336000908152600560205260408120549003620005cf5760405160e560020a62461bcd028152600401620005c69062002604565b60405180910390fd5b50565b60606007805480602002602001604051908101604052809291908181526020016000905b82821015620007e55760008481526020908190206040805161018081018252600b8602909201805483526001810154600160a060020a031693830193909352600283018054929392918401916200064d90620025cb565b80601f01602080910402602001604051908101604052809291908181526020018280546200067b90620025cb565b8015620006cc5780601f10620006a057610100808354040283529160200191620006cc565b820191906000526020600020905b815481529060010190602001808311620006ae57829003601f168201915b50505050508152602001600382018054620006e790620025cb565b80601f01602080910402602001604051908101604052809291908181526020018280546200071590620025cb565b8015620007665780601f106200073a5761010080835404028352916020019162000766565b820191906000526020600020905b8154815290600101906020018083116200074857829003601f168201915b50505091835250506004820154600160a060020a0316602080830191909152600583015460408301526006830154606083015260078301546080830152600883015460a0830152600983015460c0830152600a9092015460ff808216151560e084015261010091829004169101529082526001929092019101620005f6565b50505050905090565b600080308787876040516200080390620020a3565b600160a060020a0394851681526020810193909352921660408201526060810191909152608001604051809103906000f08015801562000847573d6000803e3d6000fd5b506040805161018081018252600354808252600160a060020a0384811660208085019182528486018b8152606086018b90528d8416608087015260a086018f905260c086018d9052600060e087018190526101008701819052610120870181905260016101408801819052610160880182905295815260049092529590208451815590519281018054600160a060020a03191693909216929092179055915192935083929091906002820190620008ff90826200268e565b50606082015160038201906200091690826200268e565b50608082015160048083018054600160a060020a03938416600160a060020a03199182161790915560a085015160058086019190915560c086015160068087019190915560e0870151600780880191909155610100808901516008808a01919091556101208a015160098a01556101408a0151600a9099018054610160909b015160ff1690920261ff00199915159990991661ffff19909a16999099179790971790965560038054898716600090815260209485526040808220839055935491815298845282892055548752929052908420835460018181018655949095528054600b9095027fa66cc928b5edb82af9bd49922954155ab7b0942694bea4ce44661d9a8736c6888101958655938101547fa66cc928b5edb82af9bd49922954155ab7b0942694bea4ce44661d9a8736c68985018054909316931692909217905591907fa66cc928b5edb82af9bd49922954155ab7b0942694bea4ce44661d9a8736c68a0162000a89600284018262002761565b5060038181019062000a9e9084018262002761565b506004828101549082018054600160a060020a031916600160a060020a039092169190911790556005808301549082015560068083015481830155600780840154908301556008808401549083015560098084015490830155600a928301805493909201805460ff948516151560ff1982168117835593546101009081900490951690940261ff001990931661ffff1990941693909317919091179091555462000b4a90600162002080565b60065560035462000b5d90600162002080565b60038190556000908152600460205260409081902090517f8cad400db0798c448aa0bfb2d4261c2b0fc665ba535995f2403c6fc716d794e39162000ba191620028d5565b60405180910390a1979650505050505050565b6004602052600090815260409020805460018201546002830180549293600160a060020a03909216926200042f90620025cb565b600133600090815260056020526040812054900362000c1e5760405160e560020a62461bcd028152600401620005c69062002604565b3360008181526005602090815260408083205480845260048352818420825161018081018452815481526001820154600160a060020a0316948101949094526002810180549295949391929184019162000c7890620025cb565b80601f016020809104026020016040519081016040528092919081815260200182805462000ca690620025cb565b801562000cf75780601f1062000ccb5761010080835404028352916020019162000cf7565b820191906000526020600020905b81548152906001019060200180831162000cd957829003601f168201915b5050505050815260200160038201805462000d1290620025cb565b80601f016020809104026020016040519081016040528092919081815260200182805462000d4090620025cb565b801562000d915780601f1062000d655761010080835404028352916020019162000d91565b820191906000526020600020905b81548152906001019060200180831162000d7357829003601f168201915b50505091835250506004820154600160a060020a03166020820152600582015460408201526006820154606082015260078201546080820152600882015460a0820152600982015460c0820152600a9091015460ff808216151560e08085019190915261010092839004909116919092015281018051919250879162000e19908390620029d6565b90525060ff871660020362000e465785816101200181815162000e3d9190620029d6565b90525062000e5f565b85816101000181815162000e5b9190620029d6565b9052505b600160a060020a038089166000818152600a60209081526040808320815161010081018352600254815282518084018452600381527f424554000000000000000000000000000000000000000000000000000000000081860152818501908152928101899052606081018d9052608081018c905260ff8e1660a082015260c081019590955294881660e08501528454600181810187559584529190922083516007909202019081559051919290919082019062000f1d90826200268e565b506040820151600282810191909155606083015160038301556080830151600483015560a083015160058301805460c086015160ff90931674ffffffffffffffffffffffffffffffffffffffffff1990911617610100600160a060020a039384160217905560e09093015160069092018054600160a060020a03191692909316919091179091555462000fb290600162002080565b60025560408051600160a060020a038a811682526020820185905285168183015260ff891660608201526080810188905290517f60f0179549292c7191bafdb03407a3080ad6bbb9354055fb0dba51a90dcead179181900360a00190a15050505050505050565b60078181548110620003f757600080fd5b6001336000908152600560205260408120549003620010605760405160e560020a62461bcd028152600401620005c69062002604565b33600081815260056020908152604080832054600160a060020a038a16808552600a8452828520835161010081018552600254815284518086018652600881527f574954484452415700000000000000000000000000000000000000000000000081880152818701908152948101849052606081018b9052608081018a905260ff8c1660a082015260c0810188905260e0810192909252805460018181018355918752949095208151600790950201938455915190939192918201906200112890826200268e565b506040820151600282810191909155606083015160038301556080830151600483015560a083015160058301805460c086015160ff90931674ffffffffffffffffffffffffffffffffffffffffff1990911617610100600160a060020a039384160217905560e09093015160069092018054600160a060020a031916929093169190911790915554620011bd90600162002080565b60025560408051600160a060020a03808a1682526020820184905284169181019190915260ff87166060820152608081018690527f763849cb5b59f290f2394239aed08a4f73bef1c65b4debb49ed6324897c23a979060a0015b60405180910390a150505050505050565b600a60205281600052604060002081815481106200124557600080fd5b9060005260206000209060070201600091509150508060000154908060010180546200127190620025cb565b80601f01602080910402602001604051908101604052809291908181526020018280546200129f90620025cb565b8015620012f05780601f10620012c457610100808354040283529160200191620012f0565b820191906000526020600020905b815481529060010190602001808311620012d257829003601f168201915b505050600284015460038501546004860154600587015460069097015495969295919450925060ff821691600160a060020a036101009091048116911688565b606060006001600354620013459190620029ec565b67ffffffffffffffff81111562001360576200136062002349565b6040519080825280602002602001820160405280156200139d57816020015b62001389620020b1565b8152602001906001900390816200137f5790505b50905060015b6003548111620015ce5760046000620013be600184620029ec565b81526020808201929092526040908101600020815161018081018352815481526001820154600160a060020a03169381019390935260028101805491928401916200140990620025cb565b80601f01602080910402602001604051908101604052809291908181526020018280546200143790620025cb565b8015620014885780601f106200145c5761010080835404028352916020019162001488565b820191906000526020600020905b8154815290600101906020018083116200146a57829003601f168201915b50505050508152602001600382018054620014a390620025cb565b80601f0160208091040260200160405190810160405280929190818152602001828054620014d190620025cb565b8015620015225780601f10620014f65761010080835404028352916020019162001522565b820191906000526020600020905b8154815290600101906020018083116200150457829003601f168201915b50505091835250506004820154600160a060020a03166020820152600582015460408201526006820154606082015260078201546080820152600882015460a0820152600982015460c0820152600a9091015460ff808216151560e08401526101009182900416910152826200159a600184620029ec565b81518110620015ad57620015ad62002a02565b60200260200101819052508080620015c59062002a1b565b915050620013a3565b50919050565b6060818311156200162b5760405160e560020a62461bcd02815260206004820152601a60248201527f582063616e6e6f742062652067726561746572207468616e20590000000000006044820152606401620005c6565b6000620016398484620029ec565b62001646906001620029d6565b67ffffffffffffffff81111562001661576200166162002349565b6040519080825280602002602001820160405280156200169e57816020015b6200168a620020b1565b815260200190600190039081620016805790505b509050835b838111620018bc57600081815260046020908152604091829020825161018081018452815481526001820154600160a060020a0316928101929092526002810180549293919291840191620016f890620025cb565b80601f01602080910402602001604051908101604052809291908181526020018280546200172690620025cb565b8015620017775780601f106200174b5761010080835404028352916020019162001777565b820191906000526020600020905b8154815290600101906020018083116200175957829003601f168201915b505050505081526020016003820180546200179290620025cb565b80601f0160208091040260200160405190810160405280929190818152602001828054620017c090620025cb565b8015620018115780601f10620017e55761010080835404028352916020019162001811565b820191906000526020600020905b815481529060010190602001808311620017f357829003601f168201915b50505091835250506004820154600160a060020a03166020820152600582015460408201526006820154606082015260078201546080820152600882015460a0820152600982015460c0820152600a9091015460ff808216151560e0840152610100918290041691015282620018888784620029ec565b815181106200189b576200189b62002a02565b60200260200101819052508080620018b39062002a1b565b915050620016a3565b5090505b92915050565b6001336000908152600560205260408120549003620018fc5760405160e560020a62461bcd028152600401620005c69062002604565b33600081815260056020908152604080832054808452600890925282205460078054929391928390811062001935576200193562002a02565b90600052602060002090600b020160405180610180016040529081600082015481526020016001820160009054906101000a9004600160a060020a0316600160a060020a0316600160a060020a031681526020016002820180546200199a90620025cb565b80601f0160208091040260200160405190810160405280929190818152602001828054620019c890620025cb565b801562001a195780601f10620019ed5761010080835404028352916020019162001a19565b820191906000526020600020905b815481529060010190602001808311620019fb57829003601f168201915b5050505050815260200160038201805462001a3490620025cb565b80601f016020809104026020016040519081016040528092919081815260200182805462001a6290620025cb565b801562001ab35780601f1062001a875761010080835404028352916020019162001ab3565b820191906000526020600020905b81548152906001019060200180831162001a9557829003601f168201915b50505091835250506004820154600160a060020a031660208201526005820154604082015260068083015460608301526007808401546080840152600884015460a0840152600984015460c0840152600a9093015460ff808216151560e085015261010091829004169201919091525491925060009162001b3690600162002095565b8154811062001b495762001b4962002a02565b90600052602060002090600b020160405180610180016040529081600082015481526020016001820160009054906101000a9004600160a060020a0316600160a060020a0316600160a060020a0316815260200160028201805462001bae90620025cb565b80601f016020809104026020016040519081016040528092919081815260200182805462001bdc90620025cb565b801562001c2d5780601f1062001c015761010080835404028352916020019162001c2d565b820191906000526020600020905b81548152906001019060200180831162001c0f57829003601f168201915b5050505050815260200160038201805462001c4890620025cb565b80601f016020809104026020016040519081016040528092919081815260200182805462001c7690620025cb565b801562001cc75780601f1062001c9b5761010080835404028352916020019162001cc7565b820191906000526020600020905b81548152906001019060200180831162001ca957829003601f168201915b50505091835250506004820154600160a060020a0316602080830191909152600583015460408084019190915260068401546060840152600780850154608085015260088086015460a0860152600986015460c0860152600a9095015460ff808216151560e087015261010091829004169401939093528451600090815293909152808320879055878352822091909155805491925082918590811062001d725762001d7262002a02565b60009182526020918290208351600b929092020190815590820151600182018054600160a060020a031916600160a060020a039092169190911790556040820151600282019062001dc490826200268e565b506060820151600382019062001ddb90826200268e565b506080820151600482018054600160a060020a031916600160a060020a0390921691909117905560a0820151600582015560c082015160068083019190915560e083015160078301556101008084015160088401556101208401516009840155610140840151600a90930180546101609095015161ffff1990951693151561ff0019169390931760ff909416029290921790555462001e7c90600162002095565b6006556000610140830181905260ff8816610160840181905283518252600460209081526040808420600a908101805460ff191690558651855281852001805461ff0019166101009094029390931790925560098054600181018255935284517f6e1540171b6c0c960b71a7020d9f60077f6af931a8bbf590da0223dacf75c7af600b909402938401908155908501517f6e1540171b6c0c960b71a7020d9f60077f6af931a8bbf590da0223dacf75c7b084018054600160a060020a031916600160a060020a039092169190911790559084015184927f6e1540171b6c0c960b71a7020d9f60077f6af931a8bbf590da0223dacf75c7b1019062001f8190826200268e565b506060820151600382019062001f9890826200268e565b506080820151600482018054600160a060020a031916600160a060020a0392831617905560a0830151600583015560c0830151600683015560e083015160078301556101008084015160088401556101208401516009840155610140840151600a90930180546101609095015161ffff1990951693151561ff0019169390931760ff94851690910217909155604080518781529188166020830152918916918101919091527f6997c325fd49bb5c188e78d03aee9a56052bffb3dcecb7d89cad3946cfc9b1909060600162001217565b600060016003546200207b9190620029ec565b905090565b60006200208e8284620029d6565b9392505050565b60006200208e8284620029ec565b612ff58062002a3883390190565b604051806101800160405280600081526020016000600160a060020a0316815260200160608152602001606081526020016000600160a060020a031681526020016000815260200160008152602001600081526020016000815260200160008152602001600015158152602001600060ff1681525090565b6000602082840312156200213c57600080fd5b5035919050565b6000815180845260005b818110156200216b576020818501810151868301820152016200214d565b506000602082860101526020601f19601f83011685010191505092915050565b60006101808e8352600160a060020a03808f166020850152816040850152620021b78285018f62002143565b91508382036060850152620021cd828e62002143565b9b166080840152505060a081019790975260c087019590955260e0860193909352610100850191909152610120840152151561014083015260ff1661016090910152949350505050565b60208082528251828201819052600091906040908185019080840286018301878501865b838110156200231e57603f1989840301855281518051845287810151600160a060020a0316888501528681015161018088860181905290620022808287018262002143565b915050606080830151868303828801526200229c838262002143565b92505050608080830151620022bb82880182600160a060020a03169052565b505060a0828101519086015260c0808301519086015260e0808301519086015261010080830151908601526101208083015190860152610140808301511515908601526101609182015160ff16919094015293860193908601906001016200223b565b509098975050505050505050565b8035600160a060020a03811681146200234457600080fd5b919050565b60e060020a634e487b7102600052604160045260246000fd5b600082601f8301126200237457600080fd5b813567ffffffffffffffff8082111562002392576200239262002349565b604051601f8301601f19908116603f01168101908282118183101715620023bd57620023bd62002349565b81604052838152866020858801011115620023d757600080fd5b836020870160208301376000602085830101528094505050505092915050565b600080600080600060a086880312156200241057600080fd5b8535945062002422602087016200232c565b935060408601359250606086013567ffffffffffffffff808211156200244757600080fd5b6200245589838a0162002362565b935060808801359150808211156200246c57600080fd5b506200247b8882890162002362565b9150509295509295909350565b803560ff811681146200234457600080fd5b60008060008060808587031215620024b157600080fd5b620024bc856200232c565b9350620024cc6020860162002488565b93969395505050506040820135916060013590565b600060208284031215620024f457600080fd5b6200208e826200232c565b600080604083850312156200251357600080fd5b6200251e836200232c565b946020939093013593505050565b60006101008a8352806020840152620025488184018b62002143565b604084019990995250506060810195909552608085019390935260ff9190911660a0840152600160a060020a0390811660c08401521660e09091015292915050565b600080604083850312156200259e57600080fd5b50508035926020909101359150565b600060208284031215620025c057600080fd5b6200208e8262002488565b600281046001821680620025e057607f821691505b602082108103620015ce5760e060020a634e487b7102600052602260045260246000fd5b60208082526015908201527f6e6f742061207265636f676e697365642067616d650000000000000000000000604082015260600190565b601f82111562002689576000818152602081206020601f86010481016020861015620026645750805b6020601f860104820191505b81811015620026855782815560010162002670565b5050505b505050565b815167ffffffffffffffff811115620026ab57620026ab62002349565b620026c381620026bc8454620025cb565b846200263b565b602080601f831160018114620026ff5760008415620026e25750858301515b60028086026008870290910a600019041982161786555062002685565b600085815260208120601f198616915b8281101562002730578886015182559484019460019091019084016200270f565b50858210156200275157878501516008601f88160260020a60001904191681555b5050505050600202600101905550565b8181036200276d575050565b620027798254620025cb565b67ffffffffffffffff81111562002794576200279462002349565b620027a581620026bc8454620025cb565b6000601f821160018114620027e05760008315620027c35750848201545b60028085026008860290910a60001904198216178555506200284a565b600085815260209020601f19841690600086815260209020845b838110156200281c5782860154825560019586019590910190602001620027fa565b50858310156200283d57818501546008601f88160260020a60001904191681555b5050506001600284020184555b5050505050565b600081546200286081620025cb565b8085526020600183811680156200288057600181146200289a57620028ca565b60ff198516888401528315158302880183019550620028ca565b866000528260002060005b85811015620028c25781548a8201860152908301908401620028a5565b890184019650505b505050505092915050565b60208152815460208201526000620028f76001840154600160a060020a031690565b600160a060020a0316604083015261018060608301819052620029226101a084016002860162002851565b838103601f190160808501526200293d816003870162002851565b9050620029546004860154600160a060020a031690565b600160a060020a031660a0850152600585015460c0850152600685015460e085015260078501546101008086019190915260088601546101208601526009860154610140860152600a86015460ff811615156101608701529060ff910416919093015250919050565b60e060020a634e487b7102600052601160045260246000fd5b80820180821115620018c057620018c0620029bd565b81810381811115620018c057620018c0620029bd565b60e060020a634e487b7102600052603260045260246000fd5b60006001820162002a305762002a30620029bd565b506001019056fe60806040523480156200001157600080fd5b5060405162002ff538038062002ff583398101604081905262000034916200024b565b6000805460078054600160a060020a03888116600160a060020a031992831681179093556001889055600160b060020a03199093169091179092556004805490921690841617905560028190556040516103e890620000939062000224565b6060808252600b908201527f47616d654e6f546f6b656e000000000000000000000000000000000000000000608082015260a0602082018190526003908201527f474e54000000000000000000000000000000000000000000000000000000000060c0820152604081019190915260e001604051809103906000f08015801562000121573d6000803e3d6000fd5b5060098054600160a060020a0392909216600160a060020a03199283168117909155600880549092161790556040516103e8906200015f9062000224565b6060808252600c908201527f47616d65596573546f6b656e0000000000000000000000000000000000000000608082015260a0602082018190526003908201527f475954000000000000000000000000000000000000000000000000000000000060c0820152604081019190915260e001604051809103906000f080158015620001ed573d6000803e3d6000fd5b50600b8054600160a060020a0392909216600160a060020a03199283168117909155600a8054909216179055506200029992505050565b610d1d80620022d883390190565b600160a060020a03811681146200024857600080fd5b50565b600080600080608085870312156200026257600080fd5b84516200026f8162000232565b602086015160408701519195509350620002898162000232565b6060959095015193969295505050565b61202f80620002a96000396000f3fe6080604052600436106101275760003560e060020a900480637256eba4116100a4578063d270e7ab11610068578063d270e7ab14610355578063d6875f9514610375578063e2cb747d14610395578063f91c2cbc146103b5578063f92a9e09146103d757600080fd5b80637256eba4146102ca57806381b82104146102ea578063846c6f4f146103005780638e15f473146103205780638f09cc8b1461033557600080fd5b80631746bd1b116100eb5780631746bd1b1461020b578063200d2ed21461025157806341ef10c81461027f57806342cde4e81461029f5780636e4d243a146102b557600080fd5b806302d05d3f14610133578063053a2cfb146101705780630b66c6781461019e57806312065fe0146101c05780631486d611146101de57600080fd5b3661012e57005b600080fd5b34801561013f57600080fd5b5060005461015390600160a060020a031681565b604051600160a060020a0390911681526020015b60405180910390f35b34801561017c57600080fd5b506000546101919060a860020a900460ff1681565b6040516101679190611a9e565b3480156101aa57600080fd5b506101be6101b9366004611aca565b6103ed565b005b3480156101cc57600080fd5b5030315b604051908152602001610167565b3480156101ea57600080fd5b506101d06101f9366004611af6565b60036020526000908152604090205481565b34801561021757600080fd5b5060005460015460025460405161016793600160a060020a0381169360ff60a060020a830481169460a860020a9093041692909190611b2e565b34801561025d57600080fd5b506000546102729060a060020a900460ff1681565b6040516101679190611b6b565b34801561028b57600080fd5b5060085461015390600160a060020a031681565b3480156102ab57600080fd5b506101d060025481565b3480156102c157600080fd5b506101be610ba9565b3480156102d657600080fd5b506101be6102e5366004611b8f565b610d65565b3480156102f657600080fd5b506101d0600c5481565b34801561030c57600080fd5b50600a5461015390600160a060020a031681565b34801561032c57600080fd5b506101d06116f5565b34801561034157600080fd5b5060095461015390600160a060020a031681565b34801561036157600080fd5b5060075461015390600160a060020a031681565b34801561038157600080fd5b50600b5461015390600160a060020a031681565b3480156103a157600080fd5b506101d06103b0366004611bcd565b611786565b3480156103c157600080fd5b506103ca61183b565b6040516101679190611be8565b3480156103e357600080fd5b506101d060015481565b33600160a060020a038316146104735760405160e560020a62461bcd02815260206004820152602160248201527f63616e6e6f74207769746864726177206f6e20736f6d656f6e6520626568616c60448201527f660000000000000000000000000000000000000000000000000000000000000060648201526084015b60405180910390fd5b600160005460a060020a900460ff16600181111561049357610493611a71565b146104e35760405160e560020a62461bcd02815260206004820152601660248201527f67616d65206973206e6f742079657420636c6f73656400000000000000000000604482015260640161046a565b6000805460a860020a900460ff16600281111561050257610502611a71565b036105525760405160e560020a62461bcd02815260206004820152601e60248201527f67616d65206f7574636f6d652063616e6e6f7420626520756e6b6e6f776e0000604482015260640161046a565b600954600160a060020a0316600160005460a860020a900460ff16600281111561057e5761057e611a71565b036105915750600b54600160a060020a03165b6040517f70a08231000000000000000000000000000000000000000000000000000000008152600160a060020a0384811660048301528391908316906370a0823190602401602060405180830381865afa1580156105f3573d6000803e3d6000fd5b505050506040513d601f19601f820116820180604052508101906106179190611cf2565b10156106385760405160e560020a62461bcd02815260040161046a90611d0b565b6040517fdd62ed3e000000000000000000000000000000000000000000000000000000008152600160a060020a03848116600483015230602483015283919083169063dd62ed3e90604401602060405180830381865afa1580156106a0573d6000803e3d6000fd5b505050506040513d601f19601f820116820180604052508101906106c49190611cf2565b10156106e55760405160e560020a62461bcd02815260040161046a90611d0b565b60028060005460a860020a900460ff16600281111561070657610706611a71565b0361070f575060015b60008361071d600180611d81565b6107279190611da6565b90506000816003600085600281111561074257610742611a71565b600281111561075357610753611a71565b815260200190815260200160002054600360008060159054906101000a900460ff16600281111561078657610786611a71565b600281111561079757610797611a71565b815260200190815260200160002054846107b19190611d81565b6107bb9190611da6565b6107c59190611dbd565b9050600760009054906101000a9004600160a060020a0316600160a060020a0316633fc15f156040518163ffffffff1660e060020a028152600401602060405180830381865afa15801561081d573d6000803e3d6000fd5b505050506040513d601f19601f820116820180604052508101906108419190611dd0565b6040517f095ea7b3000000000000000000000000000000000000000000000000000000008152600160a060020a03888116600483015260248201849052919091169063095ea7b3906044016020604051808303816000875af11580156108ab573d6000803e3d6000fd5b505050506040513d601f19601f820116820180604052508101906108cf9190611ded565b50600754604080517f3fc15f15000000000000000000000000000000000000000000000000000000008152905161096092600160a060020a031691633fc15f159160048083019260209291908290030181865afa158015610934573d6000803e3d6000fd5b505050506040513d601f19601f820116820180604052508101906109589190611dd0565b308884611980565b61096c84873088611980565b6002600160005460a860020a900460ff16600281111561098e5761098e611a71565b03610997575060015b6040805160e08101825260068054825282518084018452600881527f57495448445241570000000000000000000000000000000000000000000000006020828101919091528301908152928201859052426060830181905260ff851660808401523060a0840152600160a060020a038b1660c084015260058054600181018255600091909152835192027f036b6384b5eca791c62761152d0c79bb0604c104a5fb6f4eb0703f3154bb3db08101928355935190937f036b6384b5eca791c62761152d0c79bb0604c104a5fb6f4eb0703f3154bb3db10190610a789082611eb0565b506040820151600282015560608201516003820155608082015160048201805460a085015160ff90931674ffffffffffffffffffffffffffffffffffffffffff1990911617610100600160a060020a039384160217905560c0909201516005909101805473ffffffffffffffffffffffffffffffffffffffff19169190921617905560068054906000610b0a83611f76565b90915550506007546040517f79769488000000000000000000000000000000000000000000000000000000008152600160a060020a038a8116600483015260ff851660248301526044820186905260648201849052909116906379769488906084015b600060405180830381600087803b158015610b8757600080fd5b505af1158015610b9b573d6000803e3d6000fd5b505050505050505050505050565b600154421015610bfe5760405160e560020a62461bcd02815260206004820181905260248201527f67616d65206973206e6f7420726561647920746f206265207265736f6c766564604482015260640161046a565b600160005460a060020a900460ff166001811115610c1e57610c1e611a71565b03610c6e5760405160e560020a62461bcd02815260206004820152601660248201527f67616d6520697320616c726561647920636c6f73656400000000000000000000604482015260640161046a565b6000805474ff0000000000000000000000000000000000000000191660a060020a179055600280548190610ca06116f5565b12610cac575060019050805b6000805483919075ff000000000000000000000000000000000000000000191660a860020a836002811115610ce357610ce3611a71565b02179055506007546040517fe362937d00000000000000000000000000000000000000000000000000000000815260ff83166004820152600160a060020a039091169063e362937d90602401600060405180830381600087803b158015610d4957600080fd5b505af1158015610d5d573d6000803e3d6000fd5b505050505050565b6000600160a060020a0384163314610dc25760405160e560020a62461bcd02815260206004820152601360248201527f496e76616c6964205472616e73616374696f6e00000000000000000000000000604482015260640161046a565b6000805460a060020a900460ff166001811115610de157610de1611a71565b14610e575760405160e560020a62461bcd02815260206004820152602860248201527f47616d6520697320636c6f7365642c206e6f206675727468657220626574732060448201527f6163636570746564000000000000000000000000000000000000000000000000606482015260840161046a565b8160ff1660011480610e6c57508160ff166002145b610ebb5760405160e560020a62461bcd02815260206004820152601a60248201527f6265742073696465206973206e6f74207265636f676e69736564000000000000604482015260640161046a565b600154421115610f365760405160e560020a62461bcd02815260206004820152602260248201527f63616e6e6f74207075742062657473206166746572207265736f6c766520746960448201527f6d65000000000000000000000000000000000000000000000000000000000000606482015260840161046a565b600754604080517f3fc15f1500000000000000000000000000000000000000000000000000000000815290518592600160a060020a031691633fc15f159160048083019260209291908290030181865afa158015610f98573d6000803e3d6000fd5b505050506040513d601f19601f82011682018060405250810190610fbc9190611dd0565b6040517fdd62ed3e000000000000000000000000000000000000000000000000000000008152600160a060020a038781166004830152306024830152919091169063dd62ed3e90604401602060405180830381865afa158015611023573d6000803e3d6000fd5b505050506040513d601f19601f820116820180604052508101906110479190611cf2565b10156110be5760405160e560020a62461bcd02815260206004820152602d60248201527f706c617965722773206877616e67206d61726b657420746f6b656e20616c6c6f60448201527f77616e636520746f6f206c6f7700000000000000000000000000000000000000606482015260840161046a565b600754604080517f3fc15f1500000000000000000000000000000000000000000000000000000000815290518592600160a060020a031691633fc15f159160048083019260209291908290030181865afa158015611120573d6000803e3d6000fd5b505050506040513d601f19601f820116820180604052508101906111449190611dd0565b6040517f70a08231000000000000000000000000000000000000000000000000000000008152600160a060020a03878116600483015291909116906370a0823190602401602060405180830381865afa1580156111a5573d6000803e3d6000fd5b505050506040513d601f19601f820116820180604052508101906111c99190611cf2565b10156112405760405160e560020a62461bcd02815260206004820152602b60248201527f706c617965722773206877616e67206d61726b657420746f6b656e2062616c6160448201527f6e636520746f6f206c6f77000000000000000000000000000000000000000000606482015260840161046a565b600260ff8316600103611251575060015b600954600160a060020a031660ff84166001036112765750600b54600160a060020a03165b6000611283600187611da6565b905081600160a060020a03166319d1997a6040518163ffffffff1660e060020a028152600401602060405180830381865afa1580156112c6573d6000803e3d6000fd5b505050506040513d601f19601f820116820180604052508101906112ea9190611cf2565b8183600160a060020a03166318160ddd6040518163ffffffff1660e060020a028152600401602060405180830381865afa15801561132c573d6000803e3d6000fd5b505050506040513d601f19601f820116820180604052508101906113509190611cf2565b61135a9190611dbd565b11156113d15760405160e560020a62461bcd02815260206004820152602760248201527f67616d6520746f6b656e2063616e6e6f74206d696e742072657175657374656460448201527f20616d6f756e7400000000000000000000000000000000000000000000000000606482015260840161046a565b6040517f40c10f19000000000000000000000000000000000000000000000000000000008152600160a060020a038881166004830152602482018390528316906340c10f1990604401600060405180830381600087803b15801561143457600080fd5b505af1158015611448573d6000803e3d6000fd5b505050506114d1600760009054906101000a9004600160a060020a0316600160a060020a0316633fc15f156040518163ffffffff1660e060020a028152600401602060405180830381865afa1580156114a5573d6000803e3d6000fd5b505050506040513d601f19601f820116820180604052508101906114c99190611dd0565b883089611980565b85600360008560028111156114e8576114e8611a71565b60028111156114f9576114f9611a71565b815260200190815260200160002060008282546115169190611dbd565b90915550506040805160e08101825260068054825282518084018452600381527f42455400000000000000000000000000000000000000000000000000000000006020828101919091528301908152928201899052426060830181905260ff891660808401523060a0840152600160a060020a038b1660c084015260058054600181018255600091909152835192027f036b6384b5eca791c62761152d0c79bb0604c104a5fb6f4eb0703f3154bb3db08101928355935190937f036b6384b5eca791c62761152d0c79bb0604c104a5fb6f4eb0703f3154bb3db101906115fc9082611eb0565b506040820151600282015560608201516003820155608082015160048201805460a085015160ff90931674ffffffffffffffffffffffffffffffffffffffffff1990911617610100600160a060020a039384160217905560c0909201516005909101805473ffffffffffffffffffffffffffffffffffffffff1916919092161790556006805490600061168e83611f76565b90915550506007546040517f5039eb97000000000000000000000000000000000000000000000000000000008152600160a060020a038a8116600483015260ff89166024830152604482018a90526064820184905290911690635039eb9790608401610b6d565b60048054604080517ffeaf968c00000000000000000000000000000000000000000000000000000000815290516000938493600160a060020a03169263feaf968c928183019260a0928290030181865afa158015611757573d6000803e3d6000fd5b505050506040513d601f19601f8201168201806040525081019061177b9190611fa9565b509195945050505050565b60008160ff166001148061179d57508160ff166002145b6117ec5760405160e560020a62461bcd02815260206004820152601a60248201527f73696465206d757374206265206f6e65206f662031206f722032000000000000604482015260640161046a565b600260ff83166001036117fd575060015b6003600082600281111561181357611813611a71565b600281111561182457611824611a71565b815260200190815260200160002054915050919050565b60606005805480602002602001604051908101604052809291908181526020016000905b8282101561197757838290600052602060002090600602016040518060e00160405290816000820154815260200160018201805461189c90611e28565b80601f01602080910402602001604051908101604052809291908181526020018280546118c890611e28565b80156119155780601f106118ea57610100808354040283529160200191611915565b820191906000526020600020905b8154815290600101906020018083116118f857829003601f168201915b5050509183525050600282015460208083019190915260038301546040830152600483015460ff81166060840152600160a060020a036101009091048116608084015260059093015490921660a090910152908252600192909201910161185f565b50505050905090565b6040517f23b872dd000000000000000000000000000000000000000000000000000000008152600160a060020a038481166004830152838116602483015260448201839052600091908616906323b872dd906064016020604051808303816000875af11580156119f4573d6000803e3d6000fd5b505050506040513d601f19601f82011682018060405250810190611a189190611ded565b905080611a6a5760405160e560020a62461bcd02815260206004820152601560248201527f546f6b656e207472616e73666572206661696c65640000000000000000000000604482015260640161046a565b5050505050565b60e060020a634e487b7102600052602160045260246000fd5b60038110611a9a57611a9a611a71565b9052565b60208101611aac8284611a8a565b92915050565b600160a060020a0381168114611ac757600080fd5b50565b60008060408385031215611add57600080fd5b8235611ae881611ab2565b946020939093013593505050565b600060208284031215611b0857600080fd5b813560038110611b1757600080fd5b9392505050565b60028110611a9a57611a9a611a71565b600160a060020a038616815260a08101611b4b6020830187611b1e565b611b586040830186611a8a565b6060820193909352608001529392505050565b60208101611aac8284611b1e565b803560ff81168114611b8a57600080fd5b919050565b600080600060608486031215611ba457600080fd5b8335611baf81611ab2565b925060208401359150611bc460408501611b79565b90509250925092565b600060208284031215611bdf57600080fd5b611b1782611b79565b6020808252825182820181905260009190604090818501908084028601830187850186805b84811015611ce357603f198a8503018652825160e08151865289820151818b880152805180838901528592505b80831015611c59578183018c01518884016101000152918b0191611c3a565b61010092508583828a0101528a8401518b8901526060915081840151828901526080915081840151611c8f838a018260ff169052565b5060a0915081840151611cac838a0182600160a060020a03169052565b5060c093840151600160a060020a03811689860152939150988b0198601f01601f1916969096010194505091870191600101611c0d565b50919998505050505050505050565b600060208284031215611d0457600080fd5b5051919050565b60208082526023908201527f706c61796572206d75737420617070726f766520776974686472617720616d6f60408201527f756e740000000000000000000000000000000000000000000000000000000000606082015260800190565b60e060020a634e487b7102600052601160045260246000fd5b600082611da15760e060020a634e487b7102600052601260045260246000fd5b500490565b8082028115828204841417611aac57611aac611d68565b80820180821115611aac57611aac611d68565b600060208284031215611de257600080fd5b8151611b1781611ab2565b600060208284031215611dff57600080fd5b81518015158114611b1757600080fd5b60e060020a634e487b7102600052604160045260246000fd5b600281046001821680611e3c57607f821691505b602082108103611e5f5760e060020a634e487b7102600052602260045260246000fd5b50919050565b601f821115611eab576000818152602081206020601f86010481016020861015611e8c5750805b6020601f860104820191505b81811015610d5d57828155600101611e98565b505050565b815167ffffffffffffffff811115611eca57611eca611e0f565b611ede81611ed88454611e28565b84611e65565b602080601f831160018114611f175760008415611efb5750858301515b60028086026008870290910a6000190419821617865550610d5d565b600085815260208120601f198616915b82811015611f4657888601518255948401946001909101908401611f27565b5085821015611f6657878501516008601f88160260020a60001904191681555b5050505050600202600101905550565b600060018201611f8857611f88611d68565b5060010190565b805169ffffffffffffffffffff81168114611b8a57600080fd5b600080600080600060a08688031215611fc157600080fd5b611fca86611f8f565b9450602086015193506040860151925060608601519150611fed60808701611f8f565b9050929550929590935056fea2646970667358221220a4e21ef57f985c9090d85b34a65092e0d839f46db0f96a90f2ade6e4ddf0140264736f6c6343000811003360806040523480156200001157600080fd5b5060405162000d1d38038062000d1d833981016040819052620000349162000153565b60068054600160a060020a0319163317905560046200005484826200026e565b5060056200006383826200026e565b50600090815560015550620003409050565b7f4e487b7100000000000000000000000000000000000000000000000000000000600052604160045260246000fd5b600082601f830112620000b657600080fd5b81516001604060020a0380821115620000d357620000d362000075565b604051601f8301601f19908116603f01168101908282118183101715620000fe57620000fe62000075565b816040528381526020925086838588010111156200011b57600080fd5b600091505b838210156200013f578582018301518183018401529082019062000120565b600093810190920192909252949350505050565b6000806000606084860312156200016957600080fd5b83516001604060020a03808211156200018157600080fd5b6200018f87838801620000a4565b94506020860151915080821115620001a657600080fd5b50620001b586828701620000a4565b925050604084015190509250925092565b600281046001821680620001db57607f821691505b60208210810362000215577f4e487b7100000000000000000000000000000000000000000000000000000000600052602260045260246000fd5b50919050565b601f82111562000269576000818152602081206020601f86010481016020861015620002445750805b6020601f860104820191505b81811015620002655782815560010162000250565b5050505b505050565b81516001604060020a038111156200028a576200028a62000075565b620002a2816200029b8454620001c6565b846200021b565b602080601f831160018114620002de5760008415620002c15750858301515b60028086026008870290910a600019041982161786555062000265565b600085815260208120601f198616915b828110156200030f57888601518255948401946001909101908401620002ee565b50858210156200033057878501516008601f88160260020a60001904191681555b5050505050600202600101905550565b6109cd80620003506000396000f3fe608060405234801561001057600080fd5b50600436106100c6576000357c01000000000000000000000000000000000000000000000000000000009004806340c10f191161008e57806340c10f191461013f57806342966c681461015457806370a082311461016757806395d89b4114610187578063a9059cbb1461018f578063dd62ed3e146101a257600080fd5b806306fdde03146100cb578063095ea7b3146100e957806318160ddd1461010c57806319d1997a1461012357806323b872dd1461012c575b600080fd5b6100d36101cd565b6040516100e0919061075a565b60405180910390f35b6100fc6100f73660046107c4565b61025b565b60405190151581526020016100e0565b61011560015481565b6040519081526020016100e0565b61011560005481565b6100fc61013a3660046107ee565b6102fc565b61015261014d3660046107c4565b6104a7565b005b61015261016236600461082a565b610607565b610115610175366004610843565b60026020526000908152604090205481565b6100d361069f565b6100fc61019d3660046107c4565b6106ac565b6101156101b0366004610865565b600360209081526000928352604080842090915290825290205481565b600480546101da90610898565b80601f016020809104026020016040519081016040528092919081815260200182805461020690610898565b80156102535780601f1061022857610100808354040283529160200191610253565b820191906000526020600020905b81548152906001019060200180831161023657829003601f168201915b505050505081565b336000908152600260205260408120548211156102965760405160e560020a62461bcd02815260040161028d906108eb565b60405180910390fd5b336000818152600360209081526040808320600160a060020a03881680855290835292819020869055518581529192917f8c5be1e5ebec7d5bd14f71427d1e84f3dd0314c0f7b2291e5b200ac8c7c3b92591015b60405180910390a35060015b92915050565b336000908152600360209081526040808320600160a060020a03861684529091528120548211156103985760405160e560020a62461bcd02815260206004820152602f60248201527f696e73756666696369656e7420616c6c6f77616e636520746f2072656369706960448201527f656e742066726f6d2073656e6465720000000000000000000000000000000000606482015260840161028d565b336000908152600260205260409020548211156103ca5760405160e560020a62461bcd02815260040161028d906108eb565b600160a060020a03808516600090815260036020908152604080832093871683529290529081208054849290610401908490610951565b9091555050600160a060020a0384166000908152600260205260408120805484929061042e908490610951565b9091555050600160a060020a0383166000908152600260205260408120805484929061045b908490610964565b9250508190555082600160a060020a031684600160a060020a03166000805160206109788339815191528460405161049591815260200190565b60405180910390a35060019392505050565b600654600160a060020a031633146105045760405160e560020a62461bcd02815260206004820152600e60248201527f4e6f7420617574686f72697a6564000000000000000000000000000000000000604482015260640161028d565b600054816001546105159190610964565b111561058e576040805160e560020a62461bcd0281526020600482015260248101919091527f63616e6e6f74206d696e74207468652072657175657374656420616d6f756e7460448201527f206f6620746f6b656e732c20737570706c79206c696d697420746f6f206c6f77606482015260840161028d565b600160a060020a038216600090815260026020526040812080548392906105b6908490610964565b9250508190555080600160008282546105cf9190610964565b9091555050604051818152600160a060020a038316906000906000805160206109788339815191529060200160405180910390a35050565b336000908152600260205260409020548111156106395760405160e560020a62461bcd02815260040161028d906108eb565b3360009081526002602052604081208054839290610658908490610951565b9250508190555080600160008282546106719190610951565b909155505060405181815260009033906000805160206109788339815191529060200160405180910390a350565b600580546101da90610898565b336000908152600260205260408120548211156106de5760405160e560020a62461bcd02815260040161028d906108eb565b33600090815260026020526040812080548492906106fd908490610951565b9091555050600160a060020a0383166000908152600260205260408120805484929061072a908490610964565b9091555050604051828152600160a060020a038416903390600080516020610978833981519152906020016102ea565b600060208083528351808285015260005b818110156107875785810183015185820160400152820161076b565b506000604082860101526040601f19601f8301168501019250505092915050565b8035600160a060020a03811681146107bf57600080fd5b919050565b600080604083850312156107d757600080fd5b6107e0836107a8565b946020939093013593505050565b60008060006060848603121561080357600080fd5b61080c846107a8565b925061081a602085016107a8565b9150604084013590509250925092565b60006020828403121561083c57600080fd5b5035919050565b60006020828403121561085557600080fd5b61085e826107a8565b9392505050565b6000806040838503121561087857600080fd5b610881836107a8565b915061088f602084016107a8565b90509250929050565b6002810460018216806108ac57607f821691505b6020821081036108e5577f4e487b7100000000000000000000000000000000000000000000000000000000600052602260045260246000fd5b50919050565b6020808252601e908201527f696e73756666696369656e742062616c616e636520696e2073656e6465720000604082015260600190565b7f4e487b7100000000000000000000000000000000000000000000000000000000600052601160045260246000fd5b818103818111156102f6576102f6610922565b808201808211156102f6576102f661092256feddf252ad1be2c89b69c2b068fc378daa952ba7f163c4a11628f55a4df523b3efa26469706673582212208aa60a6eab198406734246fd9ce934a26a5e04aa92be9328c1565992d2e05e5464736f6c63430008110033a26469706673582212202c20eaeb8ea5fb62162eb1454d730c93a84783197089380801aae938d09fdd4564736f6c6343000811003360c0604052600b60809081527f4877616e674d61726b657400000000000000000000000000000000000000000060a0526003906200003e908262000192565b5060408051808201909152600581527f484d544b4e000000000000000000000000000000000000000000000000000000602082015260049062000082908262000192565b506005805460ff191660121790556000600655348015620000a257600080fd5b5060078054600160a060020a0319163317905562000265565b7f4e487b7100000000000000000000000000000000000000000000000000000000600052604160045260246000fd5b600281046001821680620000ff57607f821691505b60208210810362000139577f4e487b7100000000000000000000000000000000000000000000000000000000600052602260045260246000fd5b50919050565b601f8211156200018d576000818152602081206020601f86010481016020861015620001685750805b6020601f860104820191505b81811015620001895782815560010162000174565b5050505b505050565b815167ffffffffffffffff811115620001af57620001af620000bb565b620001c781620001c08454620000ea565b846200013f565b602080601f831160018114620002035760008415620001e65750858301515b60028086026008870290910a600019041982161786555062000189565b600085815260208120601f198616915b82811015620002345788860151825594840194600190910190840162000213565b50858210156200025557878501516008601f88160260020a60001904191681555b5050505050600202600101905550565b610ed780620002756000396000f3fe6080604052600436106100fe576000357c01000000000000000000000000000000000000000000000000000000009004806342966c681161009c578063a9059cbb11610076578063a9059cbb1461025c578063ac5388c81461027c578063b7b172b314610292578063dd62ed3e146102b257600080fd5b806342966c68146101fa57806370a082311461021a57806395d89b411461024757600080fd5b8063156e29f6116100d8578063156e29f61461018357806318160ddd1461019857806323b872dd146101ae578063313ce567146101ce57600080fd5b806306fdde031461010a578063095ea7b31461013557806312065fe01461016557600080fd5b3661010557005b600080fd5b34801561011657600080fd5b5061011f6102ea565b60405161012c9190610bd2565b60405180910390f35b34801561014157600080fd5b50610155610150366004610c38565b610378565b604051901515815260200161012c565b34801561017157600080fd5b5030315b60405190815260200161012c565b610196610191366004610c64565b610419565b005b3480156101a457600080fd5b5061017560005481565b3480156101ba57600080fd5b506101556101c9366004610c99565b610628565b3480156101da57600080fd5b506005546101e89060ff1681565b60405160ff909116815260200161012c565b34801561020657600080fd5b50610196610215366004610cda565b6107e0565b34801561022657600080fd5b50610175610235366004610cf3565b60016020526000908152604090205481565b34801561025357600080fd5b5061011f610877565b34801561026857600080fd5b50610155610277366004610c38565b610884565b34801561028857600080fd5b5061017560065481565b34801561029e57600080fd5b506101966102ad366004610c38565b6109ce565b3480156102be57600080fd5b506101756102cd366004610d17565b600260209081526000928352604080842090915290825290205481565b600380546102f790610d50565b80601f016020809104026020016040519081016040528092919081815260200182805461032390610d50565b80156103705780601f1061034557610100808354040283529160200191610370565b820191906000526020600020905b81548152906001019060200180831161035357829003601f168201915b505050505081565b336000908152600160205260408120548211156103b35760405160e560020a62461bcd0281526004016103aa90610da3565b60405180910390fd5b336000818152600260209081526040808320600160a060020a03881680855290835292819020869055518581529192917f8c5be1e5ebec7d5bd14f71427d1e84f3dd0314c0f7b2291e5b200ac8c7c3b92591015b60405180910390a35060015b92915050565b82600160a060020a0316313411156104765760405160e560020a62461bcd02815260206004820152601e60248201527f596f7520646f206e6f74206861766520656e6f7567682062616c616e6365000060448201526064016103aa565b8034146104ee5760405160e560020a62461bcd02815260206004820152602b60248201527f65746820616d6f756e7420737065636966696564206e6f7420657175616c207460448201527f6f206d73672076616c756500000000000000000000000000000000000000000060648201526084016103aa565b6104f9600182610e09565b82146105965760405160e560020a62461bcd02815260206004820152604160248201527f65746820616d6f756e74206f66666572656420646f6573206e6f74206d61746360448201527f6820616d6f756e74206f6620484d544b4e20746f6b656e20726571756573746560648201527f6400000000000000000000000000000000000000000000000000000000000000608482015260a4016103aa565b600160a060020a038316600090815260016020526040812080548492906105be908490610e20565b92505081905550816000808282546105d69190610e20565b9250508190555081600660008282546105ef9190610e20565b9091555050604051828152600160a060020a03841690600090600080516020610e828339815191529060200160405180910390a3505050565b600160a060020a0380841660009081526002602090815260408083209386168352929052908120548211156106c85760405160e560020a62461bcd02815260206004820152602f60248201527f696e73756666696369656e7420616c6c6f77616e636520746f2072656369706960448201527f656e742066726f6d2073656e646572000000000000000000000000000000000060648201526084016103aa565b600160a060020a0384166000908152600160205260409020548211156107035760405160e560020a62461bcd0281526004016103aa90610da3565b600160a060020a0380851660009081526002602090815260408083209387168352929052908120805484929061073a908490610e33565b9091555050600160a060020a03841660009081526001602052604081208054849290610767908490610e33565b9091555050600160a060020a03831660009081526001602052604081208054849290610794908490610e20565b9250508190555082600160a060020a031684600160a060020a0316600080516020610e82833981519152846040516107ce91815260200190565b60405180910390a35060019392505050565b336000908152600160205260409020548111156108125760405160e560020a62461bcd0281526004016103aa90610da3565b3360009081526001602052604081208054839290610831908490610e33565b92505081905550806000808282546108499190610e33565b90915550506040518181526000903390600080516020610e828339815191529060200160405180910390a350565b600480546102f790610d50565b336000908152600260209081526040808320600160a060020a03861684529091528120548211156109205760405160e560020a62461bcd02815260206004820152602f60248201527f696e73756666696369656e7420616c6c6f77616e63652066726f6d2073656e6460448201527f657220746f20726563697069656e74000000000000000000000000000000000060648201526084016103aa565b336000908152600160205260409020548211156109525760405160e560020a62461bcd0281526004016103aa90610da3565b3360009081526001602052604081208054849290610971908490610e33565b9091555050600160a060020a0383166000908152600160205260408120805484929061099e908490610e20565b9091555050604051828152600160a060020a038416903390600080516020610e8283398151915290602001610407565b600160a060020a0382163314610a295760405160e560020a62461bcd02815260206004820152601360248201527f496e76616c6964205472616e73616374696f6e0000000000000000000000000060448201526064016103aa565b336000908152600260209081526040808320308452909152902054811115610abc5760405160e560020a62461bcd02815260206004820152602c60248201527f696e73756666696369656e7420616c6c6f77616e636520696e20706c6179657260448201527f20746f20636f6e7472616374000000000000000000000000000000000000000060648201526084016103aa565b33600090815260016020526040902054811115610b1e5760405160e560020a62461bcd02815260206004820152601e60248201527f696e73756666696369656e742062616c616e636520696e20706c61796572000060448201526064016103aa565b6000610b2b600180610e46565b610b359083610e09565b604051909150600160a060020a0384169082156108fc029083906000818181858888f19350505050158015610b6e573d6000803e3d6000fd5b50600160a060020a03831660009081526001602052604081208054849290610b97908490610e33565b9250508190555081600080828254610baf9190610e33565b925050819055508060066000828254610bc89190610e33565b9091555050505050565b600060208083528351808285015260005b81811015610bff57858101830151858201604001528201610be3565b506000604082860101526040601f19601f8301168501019250505092915050565b600160a060020a0381168114610c3557600080fd5b50565b60008060408385031215610c4b57600080fd5b8235610c5681610c20565b946020939093013593505050565b600080600060608486031215610c7957600080fd5b8335610c8481610c20565b95602085013595506040909401359392505050565b600080600060608486031215610cae57600080fd5b8335610cb981610c20565b92506020840135610cc981610c20565b929592945050506040919091013590565b600060208284031215610cec57600080fd5b5035919050565b600060208284031215610d0557600080fd5b8135610d1081610c20565b9392505050565b60008060408385031215610d2a57600080fd5b8235610d3581610c20565b91506020830135610d4581610c20565b809150509250929050565b600281046001821680610d6457607f821691505b602082108103610d9d577f4e487b7100000000000000000000000000000000000000000000000000000000600052602260045260246000fd5b50919050565b6020808252601e908201527f696e73756666696369656e742062616c616e636520696e2073656e6465720000604082015260600190565b7f4e487b7100000000000000000000000000000000000000000000000000000000600052601160045260246000fd5b808202811582820484141761041357610413610dda565b8082018082111561041357610413610dda565b8181038181111561041357610413610dda565b600082610e7c577f4e487b7100000000000000000000000000000000000000000000000000000000600052601260045260246000fd5b50049056feddf252ad1be2c89b69c2b068fc378daa952ba7f163c4a11628f55a4df523b3efa26469706673582212204a60489c839a76ab7f1668657d3a11a3927971c366696b43c455fe3b5a7cea4964736f6c63430008110033",
  "immutableReferences": {},
  "source": "// SPDX-License-Identifier: MIT\npragma solidity >=0.4.22 <0.9.0;\n\nimport \"./MainToken.sol\";\nimport \"./GameContract.sol\";\nimport \"@openzeppelin/contracts/utils/math/SafeMath.sol\";\nimport \"@openzeppelin/contracts/token/ERC20/IERC20.sol\";\n\ncontract HwangMarket {\n  using SafeMath for uint256;\n  address public mainTokenAddress;\n  MainToken public mainToken;\n\n  struct GameMetadata {\n    uint256 id;\n    address addr;\n    string tag;\n    string title;\n    address oracleAddr;\n    uint256 resolveTime;\n    int256 threshold;\n\n    uint256 totalAmount;\n    uint256 betYesAmount;\n    uint256 betNoAmount;\n    bool ongoing;\n    uint8 gameOutcome;\n  }\n\n  // for all activity\n  uint256 private trxId;\n\n  // for all games created\n  uint256 private gameCount;\n  mapping(uint256 => GameMetadata) public gameContractRegistry;\n  mapping(address => uint256) public gameAddr2Id;\n  \n  // for all ongoing games\n  uint256 private ongoingGamesCnt; // record end of ongoing games array\n  GameMetadata[] public ongoingGames;\n  mapping(uint256 => uint256) ongoingGamesId2Idx;\n\n  // for all closed games\n  GameMetadata[] public closedGames;\n\n  // Activity types constant\n  string constant BetActivityType = \"BET\";\n  string constant SellActivityType = \"SELL\";\n  string constant WithdrawActivityType = \"WITHDRAW\";\n\n  // keep track of players' address bet on what game and their bet amount, and side\n  // we keep such a mapping instead of delegating it to the game contract\n  // to support more efficient lookup + since reads are more common than writes\n  // we will stand to gain from gas free view calls to read this mapping from outside the chain\n  // than to call a view function from main contract to game contract which costs gas\n  // Also, note: players are able to play on both sides if they wish, and are allowed to bet more if they wish\n  // but are not allowed to \"cancel\" bets unless they \"sell\" to other players\n  // {player_address -> game_id -> betSide -> amount}\n  // mapping(address => mapping(uint256 => mapping(uint8 => uint256))) public playerExistingPositions;\n\n  // Also, it might prove to be useful to be able to support efficient queries \n  // for player's ongoing bets, pending wins to claim and historical bets\n  // The following data structure are meant to faciliatate such queries.\n  struct BetInfo {\n    uint256 trxId;\n    uint256 gameId;\n    uint8 betSide; // 1 - YES, 2 - NO\n    uint256 amt;\n\n    uint8 betOutcome; // 0 - UNKNOWN, 1 - YES, 2 - NO\n  }\n  // record all ongoing bets for a player\n  // mapping(address => BetInfo[]) public ongoingBets;\n  // // pointer to mark end of BetInfo[] to support efficient deletion of items in array\n  // // For example, we can simply replace the last item in betInfo to replace the item to delete\n  // // and simply shrink this pointer, of course, readjusting the last item's index to now be the deleted index\n  // mapping(address => uint256) public ongoingBetsSize; \n  // mapping(uint256 => uint256) public ongoingBetsTrxId2Idx; // map game_id -> idx\n\n  // record all pendingWin bets for a player, same idea as above\n  // mapping(address => BetInfo[]) public pendingWins;\n  // mapping(address => uint256) public pendingWinsSize;\n  // mapping(uint256 => uint256) public pendingWinsTrxId2Idx;\n\n  // record all historical bets for a player, same idea as above\n  // mapping(address => BetInfo[]) public historicalBets;\n  // mapping(address => uint256) public historicalBetsSize;\n  // mapping(uint256 => uint256) public historicalBetsTrxId2Idx;\n\n  // Additionally, we want to keep a record of all player's movements on chain.\n  // That is, we want to record everytime a player bets (buys a position), or sells his position (and to who), or withdraws his winnings\n  struct Activity {\n    // Common fields\n    uint256 trxId;\n    string activityType;  // \"BET\", \"SELL\", \"WITHDRAW\"\n    uint256 gameId;\n    uint256 trxAmt;\n    uint256 trxTime; // when the trx was initiated\n    uint8 gameSide; // 1 - YES, 2 - NO\n    address from;\n    address to;\n  }\n  mapping(address => Activity[]) public playersRecords;\n  \n\n  constructor() {\n    // we start counting from game 1, game id 0 is nonsense since its also default value\n    gameCount = 1;\n\n    mainToken = new MainToken();\n    mainTokenAddress = address(mainToken);\n  }\n\n  event GameCreated(GameMetadata gameMetadata);\n  event PlayerJoinedGameEvent(address player, uint256 gameId, address gameAddr, uint8 betSide, uint256 amount);\n  event PlayerWithdrawedWinnings(address player, uint256 gameId, address gameAddr, uint8 betSide, uint256 withdrawedAmt);\n  event GameConcluded(uint256 gameId, address gameAddr, uint8 gameOutcome);\n\n  // create game contract instance\n  function createGame(uint256 resolveTime, address oracleAddr, int256 threshold, string memory tag, string memory title) public returns (address) {\n    GameContract newGame = new GameContract(payable(address(this)), resolveTime, oracleAddr, threshold); \n    address newGameAddress = address(newGame);\n    gameContractRegistry[gameCount] = GameMetadata({\n      id: gameCount,\n      addr: newGameAddress,\n      tag: tag,\n      title: title,\n      oracleAddr: oracleAddr,\n      resolveTime: resolveTime,\n      threshold: threshold,\n      totalAmount: 0,\n      betYesAmount: 0,\n      betNoAmount: 0,\n      ongoing: true,\n      gameOutcome: 0\n    });\n\n    gameAddr2Id[newGameAddress] = gameCount;\n\n    ongoingGamesId2Idx[gameCount] = ongoingGamesCnt;\n    ongoingGames.push(gameContractRegistry[gameCount]);\n\n    ongoingGamesCnt = SafeMath.add(ongoingGamesCnt, 1);\n    gameCount = SafeMath.add(gameCount, 1);\n\n    emit GameCreated(gameContractRegistry[gameCount]);\n\n    return newGameAddress;\n  }\n\n  function getGameCount() public view returns (uint256) {\n    return gameCount-1; // [1, gameCount)\n  }\n\n  // Fetches all games with id from X to Y, (bounds inclusve)\n  // note: even if the game doesn't exist, a game object would still be returned with default values filled\n  function getXtoYGame(uint256 X, uint256 Y) public view returns (GameMetadata[] memory) {\n    require(X <= Y, \"X cannot be greater than Y\");\n\n    GameMetadata[] memory res = new GameMetadata[](Y-X+1);\n    for (uint256 j=X; j<=Y; j++) {\n      res[j-X] = gameContractRegistry[j];\n    }\n\n    return res;\n  }\n\n  // fetches all games\n  function getAllGames() public view returns (GameMetadata[] memory) {\n    GameMetadata[] memory res = new GameMetadata[](gameCount-1);\n    for (uint256 j=1; j<=gameCount; j++) {\n      res[j-1] = gameContractRegistry[j-1];\n    }\n\n    return res;\n  }\n\n  // fetches all ongoing games\n  function getAllOngoingGames() external view returns (GameMetadata[] memory) {\n    return ongoingGames;\n  }\n\n  modifier isExistingGame(bool mustBeGame) {\n    if (mustBeGame) {\n      require(\n        gameAddr2Id[msg.sender] != 0,\n        \"not a recognised game\"\n      );\n    }\n    _;\n  }\n\n  // callable only by the game itself\n  // A player joined the game on a particular side\n  function playerJoinedSide(address player, uint8 betSide, uint256 amount, uint256 timestamp) external isExistingGame(true) {\n    address gameAddr = msg.sender;\n    uint256 gameId = gameAddr2Id[gameAddr];\n    GameMetadata memory gameMetadata = gameContractRegistry[gameId];\n    gameMetadata.totalAmount += amount;\n    if (betSide == 2) {\n      gameMetadata.betNoAmount += amount;\n    } else {\n      gameMetadata.betYesAmount += amount;\n    }\n    \n    // playerExistingPositions[player][gameId][betSide] += amount;\n    // // for simplicity, we do not merge the bets, even if they are for the same game and on the same side\n    // // they exist as 2 separate trx with their own unique ids\n    // ongoingBetsTrxId2Idx[trxId] = ongoingBetsSize[player];\n    // ongoingBets[player].push(BetInfo({trxId: trxId, gameId: gameId, betSide: betSide, amt: amount, betOutcome: 0}));\n    // ongoingBetsSize[player] = SafeMath.add(ongoingBetsSize[player], 1);\n\n    // record this activity as well\n    playersRecords[player].push(Activity({\n      trxId: trxId,\n      activityType: BetActivityType,\n      gameId: gameId,\n      trxAmt: amount,\n      trxTime: timestamp,\n      gameSide: betSide,\n      from: player,\n      to: gameAddr\n    }));\n\n    trxId = SafeMath.add(trxId, 1);\n\n    emit PlayerJoinedGameEvent(player, gameId, gameAddr, betSide, amount);\n  }\n\n  // callable only by contract\n  // note: withdraw winnings means recording player's owned game tokens -> hwang market tokens\n  function playerWithdrawWinnings(address _player, uint8 betSide, uint256 withdrawAmt, uint256 timestamp) external isExistingGame(true) {\n    address gameAddr = msg.sender;\n    uint256 gameId = gameAddr2Id[gameAddr];\n    playersRecords[_player].push(Activity({\n      trxId: trxId,\n      activityType: WithdrawActivityType,\n      gameId: gameId,\n      trxAmt: withdrawAmt,\n      trxTime: timestamp,\n      gameSide: betSide,\n      from: gameAddr,\n      to: _player\n    }));\n\n    trxId = SafeMath.add(trxId, 1);\n\n    emit PlayerWithdrawedWinnings(_player, gameId, gameAddr, betSide, withdrawAmt);\n  }\n\n  function concludeGame(uint8 gameOutcome) external isExistingGame(true) {\n    address gameAddr = msg.sender;\n    uint256 gameId = gameAddr2Id[gameAddr];\n\n    // move game out of existing ongoing games\n    uint256 existingGameIdx = ongoingGamesId2Idx[gameId];\n    GameMetadata memory finisedGame = ongoingGames[existingGameIdx];\n    GameMetadata memory lastOngoingGame = ongoingGames[SafeMath.sub(ongoingGamesCnt, 1)];\n    ongoingGamesId2Idx[lastOngoingGame.id] = existingGameIdx;\n    delete ongoingGamesId2Idx[gameId];\n    ongoingGames[existingGameIdx] = lastOngoingGame;\n    ongoingGamesCnt = SafeMath.sub(ongoingGamesCnt, 1);\n\n    // // update metadata for the game\n    finisedGame.ongoing = false;\n    finisedGame.gameOutcome = gameOutcome;\n\n    gameContractRegistry[finisedGame.id].ongoing = false;\n    gameContractRegistry[finisedGame.id].gameOutcome = gameOutcome;\n\n    // add this game to array of closedGames\n    closedGames.push(finisedGame);\n\n    emit GameConcluded(gameId, gameAddr, gameOutcome);\n  }\n\n  // struct PlayerTrx {\n  //   // ongoing bets\n  //   BetInfo[] ongoingBets;\n\n  //   // pending win claims, games that have closed and player should withdraw his/her winnings\n  //   BetInfo[] winningsPending;\n\n  //   // concluded bets, wins and loses\n  //   BetInfo[] historicalBets;\n  // }\n\n  // // given an address, identify all the existing bets opened\n  // function queryAPlayerTrxs(address player) external view returns (PlayerTrx memory) {\n  //   return PlayerTrx({\n  //     ongoingBets: ongoingBets[player],\n  //     winningsPending: pendingWins[player],\n  //     historicalBets: historicalBets[player]\n  //   });\n  // }\n\n  // callable only by the game itself\n  // A player gave his side to someone else\n  function playersSwapSide() external isExistingGame(true) {\n    // TODO: update the mappings to the latest game state\n    // address gameAddr = msg.sender;\n\n  }\n\n  // to get smart contract's balance\n  function getBalance() public view returns (uint256) {\n    return address(this).balance;\n  }\n\n  // @notice Will receive any eth sent to the contract\n  receive() external payable {\n  }\n}\n",
  "sourcePath": "/Users/gerald/Desktop/HwangMarket/contracts/HwangMarket.sol",
  "compiler": {
    "name": "solc",
    "version": "0.8.17+commit.8df45f5f.Emscripten.clang"
  },
  "schemaVersion": "3.4.10",
  "updatedAt": "2022-10-23T11:00:55.155Z",
  "networkType": "ethereum",
  "devdoc": {
    "kind": "dev",
    "methods": {},
    "version": 1
  },
  "userdoc": {
    "kind": "user",
    "methods": {},
    "version": 1
  }
}