{
  "contractName": "HwangMarket",
  "abi": [
    {
      "inputs": [],
      "stateMutability": "nonpayable",
      "type": "constructor"
    },
    {
      "anonymous": false,
      "inputs": [
        {
          "indexed": false,
          "internalType": "uint256",
          "name": "gameId",
          "type": "uint256"
        },
        {
          "indexed": false,
          "internalType": "address",
          "name": "gameAddr",
          "type": "address"
        },
        {
          "indexed": false,
          "internalType": "uint8",
          "name": "gameOutcome",
          "type": "uint8"
        }
      ],
      "name": "GameConcluded",
      "type": "event"
    },
    {
      "anonymous": false,
      "inputs": [
        {
          "components": [
            {
              "internalType": "uint256",
              "name": "id",
              "type": "uint256"
            },
            {
              "internalType": "address",
              "name": "addr",
              "type": "address"
            },
            {
              "internalType": "string",
              "name": "tag",
              "type": "string"
            },
            {
              "internalType": "string",
              "name": "title",
              "type": "string"
            },
            {
              "internalType": "address",
              "name": "oracleAddr",
              "type": "address"
            },
            {
              "internalType": "uint256",
              "name": "resolveTime",
              "type": "uint256"
            },
            {
              "internalType": "int256",
              "name": "threshold",
              "type": "int256"
            },
            {
              "internalType": "uint256",
              "name": "totalAmount",
              "type": "uint256"
            },
            {
              "internalType": "uint256",
              "name": "betYesAmount",
              "type": "uint256"
            },
            {
              "internalType": "uint256",
              "name": "betNoAmount",
              "type": "uint256"
            },
            {
              "internalType": "bool",
              "name": "ongoing",
              "type": "bool"
            },
            {
              "internalType": "uint8",
              "name": "gameOutcome",
              "type": "uint8"
            }
          ],
          "indexed": false,
          "internalType": "struct Models.GameMetadata",
          "name": "gameMetadata",
          "type": "tuple"
        }
      ],
      "name": "GameCreated",
      "type": "event"
    },
    {
      "anonymous": false,
      "inputs": [
        {
          "indexed": false,
          "internalType": "address",
          "name": "player",
          "type": "address"
        },
        {
          "indexed": false,
          "internalType": "uint256",
          "name": "gameId",
          "type": "uint256"
        },
        {
          "indexed": false,
          "internalType": "address",
          "name": "gameAddr",
          "type": "address"
        },
        {
          "indexed": false,
          "internalType": "uint8",
          "name": "betSide",
          "type": "uint8"
        },
        {
          "indexed": false,
          "internalType": "uint256",
          "name": "amount",
          "type": "uint256"
        }
      ],
      "name": "PlayerJoinedGameEvent",
      "type": "event"
    },
    {
      "anonymous": false,
      "inputs": [
        {
          "indexed": false,
          "internalType": "address",
          "name": "player",
          "type": "address"
        },
        {
          "indexed": false,
          "internalType": "uint256",
          "name": "gameId",
          "type": "uint256"
        },
        {
          "indexed": false,
          "internalType": "address",
          "name": "gameAddr",
          "type": "address"
        },
        {
          "indexed": false,
          "internalType": "uint8",
          "name": "betSide",
          "type": "uint8"
        },
        {
          "indexed": false,
          "internalType": "uint256",
          "name": "withdrawedAmt",
          "type": "uint256"
        }
      ],
      "name": "PlayerWithdrawedWinnings",
      "type": "event"
    },
    {
      "inputs": [
        {
          "internalType": "uint256",
          "name": "",
          "type": "uint256"
        }
      ],
      "name": "closedGames",
      "outputs": [
        {
          "internalType": "uint256",
          "name": "id",
          "type": "uint256"
        },
        {
          "internalType": "address",
          "name": "addr",
          "type": "address"
        },
        {
          "internalType": "string",
          "name": "tag",
          "type": "string"
        },
        {
          "internalType": "string",
          "name": "title",
          "type": "string"
        },
        {
          "internalType": "address",
          "name": "oracleAddr",
          "type": "address"
        },
        {
          "internalType": "uint256",
          "name": "resolveTime",
          "type": "uint256"
        },
        {
          "internalType": "int256",
          "name": "threshold",
          "type": "int256"
        },
        {
          "internalType": "uint256",
          "name": "totalAmount",
          "type": "uint256"
        },
        {
          "internalType": "uint256",
          "name": "betYesAmount",
          "type": "uint256"
        },
        {
          "internalType": "uint256",
          "name": "betNoAmount",
          "type": "uint256"
        },
        {
          "internalType": "bool",
          "name": "ongoing",
          "type": "bool"
        },
        {
          "internalType": "uint8",
          "name": "gameOutcome",
          "type": "uint8"
        }
      ],
      "stateMutability": "view",
      "type": "function",
      "constant": true
    },
    {
      "inputs": [
        {
          "internalType": "address",
          "name": "",
          "type": "address"
        }
      ],
      "name": "gameAddr2Id",
      "outputs": [
        {
          "internalType": "uint256",
          "name": "",
          "type": "uint256"
        }
      ],
      "stateMutability": "view",
      "type": "function",
      "constant": true
    },
    {
      "inputs": [
        {
          "internalType": "uint256",
          "name": "",
          "type": "uint256"
        }
      ],
      "name": "gameContractRegistry",
      "outputs": [
        {
          "internalType": "uint256",
          "name": "id",
          "type": "uint256"
        },
        {
          "internalType": "address",
          "name": "addr",
          "type": "address"
        },
        {
          "internalType": "string",
          "name": "tag",
          "type": "string"
        },
        {
          "internalType": "string",
          "name": "title",
          "type": "string"
        },
        {
          "internalType": "address",
          "name": "oracleAddr",
          "type": "address"
        },
        {
          "internalType": "uint256",
          "name": "resolveTime",
          "type": "uint256"
        },
        {
          "internalType": "int256",
          "name": "threshold",
          "type": "int256"
        },
        {
          "internalType": "uint256",
          "name": "totalAmount",
          "type": "uint256"
        },
        {
          "internalType": "uint256",
          "name": "betYesAmount",
          "type": "uint256"
        },
        {
          "internalType": "uint256",
          "name": "betNoAmount",
          "type": "uint256"
        },
        {
          "internalType": "bool",
          "name": "ongoing",
          "type": "bool"
        },
        {
          "internalType": "uint8",
          "name": "gameOutcome",
          "type": "uint8"
        }
      ],
      "stateMutability": "view",
      "type": "function",
      "constant": true
    },
    {
      "inputs": [],
      "name": "listingsCount",
      "outputs": [
        {
          "internalType": "uint256",
          "name": "",
          "type": "uint256"
        }
      ],
      "stateMutability": "view",
      "type": "function",
      "constant": true
    },
    {
      "inputs": [],
      "name": "mainToken",
      "outputs": [
        {
          "internalType": "contract MainToken",
          "name": "",
          "type": "address"
        }
      ],
      "stateMutability": "view",
      "type": "function",
      "constant": true
    },
    {
      "inputs": [],
      "name": "mainTokenAddress",
      "outputs": [
        {
          "internalType": "address",
          "name": "",
          "type": "address"
        }
      ],
      "stateMutability": "view",
      "type": "function",
      "constant": true
    },
    {
      "inputs": [
        {
          "internalType": "uint256",
          "name": "",
          "type": "uint256"
        }
      ],
      "name": "ongoingGames",
      "outputs": [
        {
          "internalType": "uint256",
          "name": "id",
          "type": "uint256"
        },
        {
          "internalType": "address",
          "name": "addr",
          "type": "address"
        },
        {
          "internalType": "string",
          "name": "tag",
          "type": "string"
        },
        {
          "internalType": "string",
          "name": "title",
          "type": "string"
        },
        {
          "internalType": "address",
          "name": "oracleAddr",
          "type": "address"
        },
        {
          "internalType": "uint256",
          "name": "resolveTime",
          "type": "uint256"
        },
        {
          "internalType": "int256",
          "name": "threshold",
          "type": "int256"
        },
        {
          "internalType": "uint256",
          "name": "totalAmount",
          "type": "uint256"
        },
        {
          "internalType": "uint256",
          "name": "betYesAmount",
          "type": "uint256"
        },
        {
          "internalType": "uint256",
          "name": "betNoAmount",
          "type": "uint256"
        },
        {
          "internalType": "bool",
          "name": "ongoing",
          "type": "bool"
        },
        {
          "internalType": "uint8",
          "name": "gameOutcome",
          "type": "uint8"
        }
      ],
      "stateMutability": "view",
      "type": "function",
      "constant": true
    },
    {
      "inputs": [
        {
          "internalType": "address",
          "name": "",
          "type": "address"
        },
        {
          "internalType": "uint256",
          "name": "",
          "type": "uint256"
        }
      ],
      "name": "playersRecords",
      "outputs": [
        {
          "internalType": "uint256",
          "name": "trxId",
          "type": "uint256"
        },
        {
          "internalType": "string",
          "name": "activityType",
          "type": "string"
        },
        {
          "internalType": "uint256",
          "name": "gameId",
          "type": "uint256"
        },
        {
          "internalType": "uint256",
          "name": "trxAmt",
          "type": "uint256"
        },
        {
          "internalType": "uint256",
          "name": "trxTime",
          "type": "uint256"
        },
        {
          "internalType": "uint8",
          "name": "gameSide",
          "type": "uint8"
        },
        {
          "internalType": "address",
          "name": "from",
          "type": "address"
        },
        {
          "internalType": "address",
          "name": "to",
          "type": "address"
        }
      ],
      "stateMutability": "view",
      "type": "function",
      "constant": true
    },
    {
      "inputs": [
        {
          "internalType": "uint256",
          "name": "resolveTime",
          "type": "uint256"
        },
        {
          "internalType": "address",
          "name": "oracleAddr",
          "type": "address"
        },
        {
          "internalType": "int256",
          "name": "threshold",
          "type": "int256"
        },
        {
          "internalType": "string",
          "name": "tag",
          "type": "string"
        },
        {
          "internalType": "string",
          "name": "title",
          "type": "string"
        }
      ],
      "name": "createGame",
      "outputs": [
        {
          "internalType": "address",
          "name": "",
          "type": "address"
        }
      ],
      "stateMutability": "nonpayable",
      "type": "function"
    },
    {
      "inputs": [],
      "name": "getGameCount",
      "outputs": [
        {
          "internalType": "uint256",
          "name": "",
          "type": "uint256"
        }
      ],
      "stateMutability": "view",
      "type": "function",
      "constant": true
    },
    {
      "inputs": [],
      "name": "getAllGames",
      "outputs": [
        {
          "components": [
            {
              "components": [
                {
                  "internalType": "uint256",
                  "name": "id",
                  "type": "uint256"
                },
                {
                  "internalType": "address",
                  "name": "addr",
                  "type": "address"
                },
                {
                  "internalType": "string",
                  "name": "tag",
                  "type": "string"
                },
                {
                  "internalType": "string",
                  "name": "title",
                  "type": "string"
                },
                {
                  "internalType": "address",
                  "name": "oracleAddr",
                  "type": "address"
                },
                {
                  "internalType": "uint256",
                  "name": "resolveTime",
                  "type": "uint256"
                },
                {
                  "internalType": "int256",
                  "name": "threshold",
                  "type": "int256"
                },
                {
                  "internalType": "uint256",
                  "name": "totalAmount",
                  "type": "uint256"
                },
                {
                  "internalType": "uint256",
                  "name": "betYesAmount",
                  "type": "uint256"
                },
                {
                  "internalType": "uint256",
                  "name": "betNoAmount",
                  "type": "uint256"
                },
                {
                  "internalType": "bool",
                  "name": "ongoing",
                  "type": "bool"
                },
                {
                  "internalType": "uint8",
                  "name": "gameOutcome",
                  "type": "uint8"
                }
              ],
              "internalType": "struct Models.GameMetadata[]",
              "name": "ongoingGames",
              "type": "tuple[]"
            },
            {
              "components": [
                {
                  "internalType": "uint256",
                  "name": "id",
                  "type": "uint256"
                },
                {
                  "internalType": "address",
                  "name": "addr",
                  "type": "address"
                },
                {
                  "internalType": "string",
                  "name": "tag",
                  "type": "string"
                },
                {
                  "internalType": "string",
                  "name": "title",
                  "type": "string"
                },
                {
                  "internalType": "address",
                  "name": "oracleAddr",
                  "type": "address"
                },
                {
                  "internalType": "uint256",
                  "name": "resolveTime",
                  "type": "uint256"
                },
                {
                  "internalType": "int256",
                  "name": "threshold",
                  "type": "int256"
                },
                {
                  "internalType": "uint256",
                  "name": "totalAmount",
                  "type": "uint256"
                },
                {
                  "internalType": "uint256",
                  "name": "betYesAmount",
                  "type": "uint256"
                },
                {
                  "internalType": "uint256",
                  "name": "betNoAmount",
                  "type": "uint256"
                },
                {
                  "internalType": "bool",
                  "name": "ongoing",
                  "type": "bool"
                },
                {
                  "internalType": "uint8",
                  "name": "gameOutcome",
                  "type": "uint8"
                }
              ],
              "internalType": "struct Models.GameMetadata[]",
              "name": "closedGames",
              "type": "tuple[]"
            }
          ],
          "internalType": "struct Models.AllGames",
          "name": "",
          "type": "tuple"
        }
      ],
      "stateMutability": "view",
      "type": "function",
      "constant": true
    },
    {
      "inputs": [
        {
          "internalType": "address",
          "name": "_player",
          "type": "address"
        },
        {
          "internalType": "address",
          "name": "token1",
          "type": "address"
        },
        {
          "internalType": "uint256",
          "name": "token1Amt",
          "type": "uint256"
        },
        {
          "internalType": "address",
          "name": "token2",
          "type": "address"
        },
        {
          "internalType": "uint256",
          "name": "token2Amt",
          "type": "uint256"
        }
      ],
      "name": "newListing",
      "outputs": [
        {
          "components": [
            {
              "internalType": "uint256",
              "name": "listingId",
              "type": "uint256"
            },
            {
              "internalType": "address",
              "name": "listingAddr",
              "type": "address"
            },
            {
              "internalType": "address",
              "name": "player1",
              "type": "address"
            },
            {
              "internalType": "address",
              "name": "token1",
              "type": "address"
            },
            {
              "internalType": "uint256",
              "name": "token1Amt",
              "type": "uint256"
            },
            {
              "internalType": "address",
              "name": "player2",
              "type": "address"
            },
            {
              "internalType": "address",
              "name": "token2",
              "type": "address"
            },
            {
              "internalType": "uint256",
              "name": "token2Amt",
              "type": "uint256"
            },
            {
              "internalType": "bool",
              "name": "fulfilled",
              "type": "bool"
            }
          ],
          "internalType": "struct Models.ListingInfo",
          "name": "",
          "type": "tuple"
        }
      ],
      "stateMutability": "nonpayable",
      "type": "function"
    },
    {
      "inputs": [],
      "name": "getAllListings",
      "outputs": [
        {
          "components": [
            {
              "internalType": "uint256",
              "name": "listingId",
              "type": "uint256"
            },
            {
              "internalType": "address",
              "name": "listingAddr",
              "type": "address"
            },
            {
              "internalType": "address",
              "name": "player1",
              "type": "address"
            },
            {
              "internalType": "address",
              "name": "token1",
              "type": "address"
            },
            {
              "internalType": "uint256",
              "name": "token1Amt",
              "type": "uint256"
            },
            {
              "internalType": "address",
              "name": "player2",
              "type": "address"
            },
            {
              "internalType": "address",
              "name": "token2",
              "type": "address"
            },
            {
              "internalType": "uint256",
              "name": "token2Amt",
              "type": "uint256"
            },
            {
              "internalType": "bool",
              "name": "fulfilled",
              "type": "bool"
            }
          ],
          "internalType": "struct Models.ListingInfo[]",
          "name": "",
          "type": "tuple[]"
        }
      ],
      "stateMutability": "view",
      "type": "function",
      "constant": true
    },
    {
      "inputs": [
        {
          "internalType": "address",
          "name": "_player",
          "type": "address"
        },
        {
          "internalType": "uint256",
          "name": "listingId",
          "type": "uint256"
        }
      ],
      "name": "partakeInListing",
      "outputs": [],
      "stateMutability": "nonpayable",
      "type": "function"
    },
    {
      "inputs": [
        {
          "internalType": "address",
          "name": "player",
          "type": "address"
        },
        {
          "internalType": "uint8",
          "name": "betSide",
          "type": "uint8"
        },
        {
          "internalType": "uint256",
          "name": "amount",
          "type": "uint256"
        },
        {
          "internalType": "uint256",
          "name": "timestamp",
          "type": "uint256"
        }
      ],
      "name": "playerJoinedSide",
      "outputs": [],
      "stateMutability": "nonpayable",
      "type": "function"
    },
    {
      "inputs": [
        {
          "internalType": "address",
          "name": "_player",
          "type": "address"
        },
        {
          "internalType": "uint8",
          "name": "betSide",
          "type": "uint8"
        },
        {
          "internalType": "uint256",
          "name": "withdrawAmt",
          "type": "uint256"
        },
        {
          "internalType": "uint256",
          "name": "timestamp",
          "type": "uint256"
        }
      ],
      "name": "playerWithdrawWinnings",
      "outputs": [],
      "stateMutability": "nonpayable",
      "type": "function"
    },
    {
      "inputs": [
        {
          "internalType": "uint8",
          "name": "gameOutcome",
          "type": "uint8"
        }
      ],
      "name": "concludeGame",
      "outputs": [],
      "stateMutability": "nonpayable",
      "type": "function"
    },
    {
      "inputs": [],
      "name": "getBalance",
      "outputs": [
        {
          "internalType": "uint256",
          "name": "",
          "type": "uint256"
        }
      ],
      "stateMutability": "view",
      "type": "function",
      "constant": true
    }
  ],
  "bytecode": "0x60806040523480156200001157600080fd5b5060016004556040516200002590620000c0565b604051809103906000f08015801562000042573d6000803e3d6000fd5b5060018054600160a060020a0392909216600160a060020a03199283168117909155600080549092161790556040516200007c90620000ce565b604051809103906000f08015801562000099573d6000803e3d6000fd5b5060028054600160a060020a031916600160a060020a0392909216919091179055620000dc565b6119c780620038b283390190565b614e46806200527983390190565b6137c680620000ec6000396000f3fe60806040523480156200001157600080fd5b506004361062000149576000357c0100000000000000000000000000000000000000000000000000000000900480637976948811620000cc578063d3eb618c1162000097578063d3eb618c14620002ad578063db1c45f914620002da578063dc7dbf3e14620002f3578063e362937d1462000319578063e87c0ee6146200033057600080fd5b8063797694881462000246578063829a32ef146200025d578063ae73ccec1462000280578063ce1f335c146200029957600080fd5b80633f863f1911620001195780633f863f1914620001e35780633fc15f1514620001fa57806346b1df04146200020e5780635039eb9714620002185780636435e817146200022f57600080fd5b8062ef52de146200014e57806304ad465f146200016757806312065fe014620001a15780632980a3cb14620001b3575b600080fd5b620001656200015f366004620020fe565b6200033a565b005b6200017e620001783660046200212d565b62000570565b604051620001989c9b9a999897969594939291906200218f565b60405180910390f35b30315b60405190815260200162000198565b620001ca620001c43660046200230c565b6200071a565b604051600160a060020a03909116815260200162000198565b6200017e620001f43660046200212d565b62000b2a565b600154620001ca90600160a060020a031681565b620001a460115481565b6200016562000229366004620023b6565b62000b5e565b6200017e620002403660046200212d565b62000f74565b6200016562000257366004620023b6565b62000f85565b620001a46200026e366004620023ff565b60066020526000908152604090205481565b6200028a62001168565b604051620001989190620024c0565b600054620001ca90600160a060020a031681565b620002c4620002be366004620020fe565b62001204565b6040516200019898979695949392919062002513565b620002e46200130c565b60405162000198919062002681565b6200030a62000304366004620026c7565b6200175b565b60405162000198919062002729565b620001656200032a3660046200273a565b62001915565b620001a46200209f565b6040517f7e3bf307000000000000000000000000000000000000000000000000000000008152600c60048201526024810182905273__IterableMapping_______________________90637e3bf30790604401602060405180830381865af4158015620003ab573d6000803e3d6000fd5b505050506040513d601f19601f82011682018060405250810190620003d1919062002769565b6200043c576040517f08c379a000000000000000000000000000000000000000000000000000000000815260206004820152601260248201527f636f6e7472616374206e6f742065786973740000000000000000000000000000604482015260640160405180910390fd5b6040517fd31c830c000000000000000000000000000000000000000000000000000000008152600c60048201526024810182905260009073__IterableMapping_______________________9063d31c830c9060440161012060405180830381865af4158015620004b1573d6000803e3d6000fd5b505050506040513d601f19601f82011682018060405250810190620004d7919062002845565b602001516040517f6f6ff405000000000000000000000000000000000000000000000000000000008152600160a060020a0385811660048301529192508291821690636f6ff40590602401610120604051808303816000875af115801562000543573d6000803e3d6000fd5b505050506040513d601f19601f8201168201806040525081019062000569919062002845565b5050505050565b600a81815481106200058157600080fd5b60009182526020909120600b9091020180546001820154600283018054929450600160a060020a039091169291620005b99062002865565b80601f0160208091040260200160405190810160405280929190818152602001828054620005e79062002865565b8015620006385780601f106200060c5761010080835404028352916020019162000638565b820191906000526020600020905b8154815290600101906020018083116200061a57829003601f168201915b5050505050908060030180546200064f9062002865565b80601f01602080910402602001604051908101604052809291908181526020018280546200067d9062002865565b8015620006ce5780601f10620006a257610100808354040283529160200191620006ce565b820191906000526020600020905b815481529060010190602001808311620006b057829003601f168201915b50505050600483015460058401546006850154600786015460088701546009880154600a909801549697600160a060020a03909516969395509193909260ff808216916101009004168c565b6002546040517f956a2a1000000000000000000000000000000000000000000000000000000000815230600482015260248101879052600160a060020a03868116604483015260648201869052600092839291169063956a2a10906084016020604051808303816000875af115801562000798573d6000803e3d6000fd5b505050506040513d601f19601f82011682018060405250810190620007be9190620028a4565b6040805161018081018252600454808252600160a060020a0384811660208085019182528486018b8152606086018b90528d8416608087015260a086018f905260c086018d9052600060e087018190526101008701819052610120870181905260016101408801819052610160880182905295815260059092529590208451815590519281018054600160a060020a0319169390921692909217905591519293508392909190600282019062000875908262002917565b50606082015160038201906200088c908262002917565b50608082015160048083018054600160a060020a03938416600160a060020a03199182161790915560a085015160058086019190915560c086015160068087019190915560e0870151600780880191909155610100808901516008808a01919091556101208a01516009808b01919091556101408b0151600a909a018054610160909c015160ff1690930261ff00199a15159a909a1661ffff19909b169a909a1798909817905584548987166000908152602093845260408082208390559254918152988352818920559354875252908420835460018181018655949095528054600b9095027ff3f7a9fe364faab93b216da50a3214154f22a0a2b415b23a84c8169e8b636ee38101958655938101547ff3f7a9fe364faab93b216da50a3214154f22a0a2b415b23a84c8169e8b636ee485018054909316931692909217905591907ff3f7a9fe364faab93b216da50a3214154f22a0a2b415b23a84c8169e8b636ee501620009ff6002840182620029ea565b5060038181019062000a1490840182620029ea565b506004828101549082018054600160a060020a031916600160a060020a039092169190911790556005808301549082015560068083015490820155600780830154818301556008808401549083015560098084015490830155600a928301805493909201805460ff948516151560ff1982168117835593546101009081900490951690940261ff001990931661ffff1990941693909317919091179091555462000ac0906001620020b2565b60075560045462000ad3906001620020b2565b60048190556000908152600560205260409081902090517f8cad400db0798c448aa0bfb2d4261c2b0fc665ba535995f2403c6fc716d794e39162000b179162002b59565b60405180910390a1979650505050505050565b6005602052600090815260409020805460018201546002830180549293600160a060020a0390921692620005b99062002865565b33600090815260066020526040812054900362000b7a57600080fd5b3360008181526006602090815260408083205480845260058352818420825161018081018452815481526001820154600160a060020a0316948101949094526002810180549295949391929184019162000bd49062002865565b80601f016020809104026020016040519081016040528092919081815260200182805462000c029062002865565b801562000c535780601f1062000c275761010080835404028352916020019162000c53565b820191906000526020600020905b81548152906001019060200180831162000c3557829003601f168201915b5050505050815260200160038201805462000c6e9062002865565b80601f016020809104026020016040519081016040528092919081815260200182805462000c9c9062002865565b801562000ced5780601f1062000cc15761010080835404028352916020019162000ced565b820191906000526020600020905b81548152906001019060200180831162000ccf57829003601f168201915b50505091835250506004820154600160a060020a03166020820152600582015460408201526006820154606082015260078201546080820152600882015460a0820152600982015460c0820152600a9091015460ff808216151560e08085019190915261010092839004909116919092015281018051919250869162000d7590839062002c5a565b90525060ff861660020362000da25784816101200181815162000d99919062002c5a565b90525062000dbb565b84816101000181815162000db7919062002c5a565b9052505b600160a060020a038088166000818152600b60209081526040808320815161010081018352600380548252835180850185529081527f424554000000000000000000000000000000000000000000000000000000000081860152818501908152928101899052606081018c9052608081018b905260ff8d1660a082015260c081019590955294881660e08501528454600181810187559584529190922083516007909202019081559051919290919082019062000e79908262002917565b506040820151600282015560608201516003808301919091556080830151600483015560a083015160058301805460c086015160ff90931674ffffffffffffffffffffffffffffffffffffffffff1990911617610100600160a060020a039384160217905560e09093015160069092018054600160a060020a03191692909316919091179091555462000f0e906001620020b2565b60035560408051600160a060020a0389811682526020820185905285168183015260ff881660608201526080810187905290517f60f0179549292c7191bafdb03407a3080ad6bbb9354055fb0dba51a90dcead179181900360a00190a150505050505050565b600881815481106200058157600080fd5b33600090815260066020526040812054900362000fa157600080fd5b33600081815260066020908152604080832054600160a060020a038916808552600b8452828520835161010081018552600354815284518086018652600881527f574954484452415700000000000000000000000000000000000000000000000081880152818701908152948101849052606081018a90526080810189905260ff8b1660a082015260c0810188905260e08101929092528054600181810183559187529490952081516007909502019384559151909391929182019062001069908262002917565b506040820151600282015560608201516003808301919091556080830151600483015560a083015160058301805460c086015160ff90931674ffffffffffffffffffffffffffffffffffffffffff1990911617610100600160a060020a039384160217905560e09093015160069092018054600160a060020a031916929093169190911790915554620010fe906001620020b2565b60035560408051600160a060020a0380891682526020820184905284169181019190915260ff86166060820152608081018590527f763849cb5b59f290f2394239aed08a4f73bef1c65b4debb49ed6324897c23a979060a0015b60405180910390a1505050505050565b6040517f75a02c20000000000000000000000000000000000000000000000000000000008152600c600482015260609073__IterableMapping_______________________906375a02c2090602401600060405180830381865af4158015620011d5573d6000803e3d6000fd5b505050506040513d6000823e601f3d908101601f19168201604052620011ff919081019062002c70565b905090565b600b60205281600052604060002081815481106200122157600080fd5b9060005260206000209060070201600091509150508060000154908060010180546200124d9062002865565b80601f01602080910402602001604051908101604052809291908181526020018280546200127b9062002865565b8015620012cc5780601f10620012a057610100808354040283529160200191620012cc565b820191906000526020600020905b815481529060010190602001808311620012ae57829003601f168201915b505050600284015460038501546004860154600587015460069097015495969295919450925060ff821691600160a060020a036101009091048116911688565b604080518082019091526060808252602082015260408051600880546060602082028401810185529383018181529293849392919060009085015b82821015620015365760008481526020908190206040805161018081018252600b8602909201805483526001810154600160a060020a031693830193909352600283018054929392918401916200139e9062002865565b80601f0160208091040260200160405190810160405280929190818152602001828054620013cc9062002865565b80156200141d5780601f10620013f1576101008083540402835291602001916200141d565b820191906000526020600020905b815481529060010190602001808311620013ff57829003601f168201915b50505050508152602001600382018054620014389062002865565b80601f0160208091040260200160405190810160405280929190818152602001828054620014669062002865565b8015620014b75780601f106200148b57610100808354040283529160200191620014b7565b820191906000526020600020905b8154815290600101906020018083116200149957829003601f168201915b50505091835250506004820154600160a060020a0316602080830191909152600583015460408301526006830154606083015260078301546080830152600883015460a0830152600983015460c0830152600a9092015460ff808216151560e08401526101009182900416910152908252600192909201910162001347565b505050508152602001600a805480602002602001604051908101604052809291908181526020016000905b82821015620017505760008481526020908190206040805161018081018252600b8602909201805483526001810154600160a060020a03169383019390935260028301805492939291840191620015b89062002865565b80601f0160208091040260200160405190810160405280929190818152602001828054620015e69062002865565b8015620016375780601f106200160b5761010080835404028352916020019162001637565b820191906000526020600020905b8154815290600101906020018083116200161957829003601f168201915b50505050508152602001600382018054620016529062002865565b80601f0160208091040260200160405190810160405280929190818152602001828054620016809062002865565b8015620016d15780601f10620016a557610100808354040283529160200191620016d1565b820191906000526020600020905b815481529060010190602001808311620016b357829003601f168201915b50505091835250506004820154600160a060020a0316602080830191909152600583015460408301526006830154606083015260078301546080830152600883015460a0830152600983015460c0830152600a9092015460ff808216151560e08401526101009182900416910152908252600192909201910162001561565b505050915250919050565b6040805161012081018252600080825260208201819052918101829052606081018290526080810182905260a0810182905260c0810182905260e08101829052610100810191909152600060115490506000818888888888604051620017c190620020d7565b958652600160a060020a03948516602087015292841660408601526060850191909152909116608083015260a082015260c001604051809103906000f08015801562001811573d6000803e3d6000fd5b506040805161012081018252848152600160a060020a0380841660208301528b8116828401528a81166060830152608082018a9052600060a0830181905290891660c083015260e0820188905261010082015290517f070b5eb40000000000000000000000000000000000000000000000000000000081529192509073__IterableMapping_______________________9063070b5eb490620018be90600c908790869060040162002d2d565b60006040518083038186803b158015620018d757600080fd5b505af4158015620018ec573d6000803e3d6000fd5b505060118054925090506000620019038362002d53565b90915550909998505050505050505050565b3360009081526006602052604081205490036200193157600080fd5b3360008181526006602090815260408083205480845260099092528220546008805492939192839081106200196a576200196a62002d6f565b90600052602060002090600b020160405180610180016040529081600082015481526020016001820160009054906101000a9004600160a060020a0316600160a060020a0316600160a060020a03168152602001600282018054620019cf9062002865565b80601f0160208091040260200160405190810160405280929190818152602001828054620019fd9062002865565b801562001a4e5780601f1062001a225761010080835404028352916020019162001a4e565b820191906000526020600020905b81548152906001019060200180831162001a3057829003601f168201915b5050505050815260200160038201805462001a699062002865565b80601f016020809104026020016040519081016040528092919081815260200182805462001a979062002865565b801562001ae85780601f1062001abc5761010080835404028352916020019162001ae8565b820191906000526020600020905b81548152906001019060200180831162001aca57829003601f168201915b50505091835250506004820154600160a060020a031660208201526005820154604082015260068201546060820152600780830154608083015260088084015460a0840152600984015460c0840152600a9093015460ff808216151560e085015261010091829004169201919091525491925060009162001b6b906001620020c9565b8154811062001b7e5762001b7e62002d6f565b90600052602060002090600b020160405180610180016040529081600082015481526020016001820160009054906101000a9004600160a060020a0316600160a060020a0316600160a060020a0316815260200160028201805462001be39062002865565b80601f016020809104026020016040519081016040528092919081815260200182805462001c119062002865565b801562001c625780601f1062001c365761010080835404028352916020019162001c62565b820191906000526020600020905b81548152906001019060200180831162001c4457829003601f168201915b5050505050815260200160038201805462001c7d9062002865565b80601f016020809104026020016040519081016040528092919081815260200182805462001cab9062002865565b801562001cfc5780601f1062001cd05761010080835404028352916020019162001cfc565b820191906000526020600020905b81548152906001019060200180831162001cde57829003601f168201915b50505091835250506004820154600160a060020a03166020808301919091526005830154604080840191909152600684015460608401526007840154608084015260088085015460a085015260098086015460c0860152600a9095015460ff808216151560e087015261010091829004169401939093528451600090815293909152808320879055878352822091909155805491925082918590811062001da75762001da762002d6f565b60009182526020918290208351600b929092020190815590820151600182018054600160a060020a031916600160a060020a039092169190911790556040820151600282019062001df9908262002917565b506060820151600382019062001e10908262002917565b506080820151600482018054600160a060020a031916600160a060020a0390921691909117905560a0820151600582015560c0820151600682015560e08201516007808301919091556101008084015160088401556101208401516009840155610140840151600a90930180546101609095015161ffff1990951693151561ff0019169390931760ff909416029290921790555462001eb1906001620020c9565b6007556000610140830181905260ff8716610160840181905283518252600560209081526040808420600a908101805460ff19169055865185528185208101805461ff0019166101009095029490941790935582546001810184559290935284517fc65a7bb8d6351c1cf70c95a316cc6a92839c986682d98bc35f958f4883f9d2a8600b909302928301908155908501517fc65a7bb8d6351c1cf70c95a316cc6a92839c986682d98bc35f958f4883f9d2a983018054600160a060020a031916600160a060020a03909216919091179055918401518492917fc65a7bb8d6351c1cf70c95a316cc6a92839c986682d98bc35f958f4883f9d2aa019062001fb8908262002917565b506060820151600382019062001fcf908262002917565b506080820151600482018054600160a060020a031916600160a060020a0392831617905560a0830151600583015560c0830151600683015560e083015160078301556101008084015160088401556101208401516009840155610140840151600a90930180546101609095015161ffff1990951693151561ff0019169390931760ff94851690910217909155604080518781529188166020830152918816918101919091527f6997c325fd49bb5c188e78d03aee9a56052bffb3dcecb7d89cad3946cfc9b1909060600162001158565b60006001600454620011ff919062002d88565b6000620020c0828462002c5a565b90505b92915050565b6000620020c0828462002d88565b6109f28062002d9f83390190565b600160a060020a0381168114620020fb57600080fd5b50565b600080604083850312156200211257600080fd5b82356200211f81620020e5565b946020939093013593505050565b6000602082840312156200214057600080fd5b5035919050565b6000815180845260005b818110156200216f5760208185018101518683018201520162002151565b506000602082860101526020601f19601f83011685010191505092915050565b60006101808e8352600160a060020a03808f166020850152816040850152620021bb8285018f62002147565b91508382036060850152620021d1828e62002147565b9b166080840152505060a081019790975260c087019590955260e0860193909352610100850191909152610120840152151561014083015260ff1661016090910152949350505050565b60e060020a634e487b7102600052604160045260246000fd5b604051610120810167ffffffffffffffff811182821017156200225b576200225b6200221b565b60405290565b604051601f8201601f1916810167ffffffffffffffff811182821017156200228d576200228d6200221b565b604052919050565b600082601f830112620022a757600080fd5b813567ffffffffffffffff811115620022c457620022c46200221b565b620022d9601f8201601f191660200162002261565b818152846020838601011115620022ef57600080fd5b816020850160208301376000918101602001919091529392505050565b600080600080600060a086880312156200232557600080fd5b8535945060208601356200233981620020e5565b935060408601359250606086013567ffffffffffffffff808211156200235e57600080fd5b6200236c89838a0162002295565b935060808801359150808211156200238357600080fd5b50620023928882890162002295565b9150509295509295909350565b803560ff81168114620023b157600080fd5b919050565b60008060008060808587031215620023cd57600080fd5b8435620023da81620020e5565b9350620023ea602086016200239f565b93969395505050506040820135916060013590565b6000602082840312156200241257600080fd5b81356200241f81620020e5565b9392505050565b805182526020810151600160a060020a03808216602085015280604084015116604085015280606084015116606085015250506080810151608083015260a08101516200247e60a0840182600160a060020a03169052565b5060c08101516200249a60c0840182600160a060020a03169052565b5060e081015160e083015261010080820151620024ba8285018215159052565b50505050565b6020808252825182820181905260009190848201906040850190845b818110156200250757620024f283855162002426565b928401926101209290920191600101620024dc565b50909695505050505050565b60006101008a83528060208401526200252f8184018b62002147565b604084019990995250506060810195909552608085019390935260ff9190911660a0840152600160a060020a0390811660c08401521660e09091015292915050565b600081518084526020808501945084818302860182860160005b858110156200267457838303895281516101808151855286820151620025bb88870182600160a060020a03169052565b506040808301518282880152620025d58388018262002147565b9250505060608083015186830382880152620025f2838262002147565b925050506080808301516200261182880182600160a060020a03169052565b505060a0828101519086015260c0808301519086015260e0808301519086015261010080830151908601526101208083015190860152610140808301511515908601526101609182015160ff16919094015297840197908401906001016200258b565b5090979650505050505050565b6020815260008251604060208401526200269f606084018262002571565b90506020840151601f19848303016040850152620026be828262002571565b95945050505050565b600080600080600060a08688031215620026e057600080fd5b8535620026ed81620020e5565b94506020860135620026ff81620020e5565b93506040860135925060608601356200271881620020e5565b949793965091946080013592915050565b6101208101620020c3828462002426565b6000602082840312156200274d57600080fd5b620020c0826200239f565b80518015158114620023b157600080fd5b6000602082840312156200277c57600080fd5b620020c08262002758565b8051620023b181620020e5565b60006101208284031215620027a857600080fd5b620027b262002234565b905081518152620027c66020830162002787565b6020820152620027d96040830162002787565b6040820152620027ec6060830162002787565b6060820152608082015160808201526200280960a0830162002787565b60a08201526200281c60c0830162002787565b60c082015260e082015160e08201526101006200283b81840162002758565b9082015292915050565b600061012082840312156200285957600080fd5b620020c0838362002794565b6002810460018216806200287a57607f821691505b6020821081036200289e5760e060020a634e487b7102600052602260045260246000fd5b50919050565b600060208284031215620028b757600080fd5b81516200241f81620020e5565b601f82111562002912576000818152602081206020601f86010481016020861015620028ed5750805b6020601f860104820191505b818110156200290e57828155600101620028f9565b5050505b505050565b815167ffffffffffffffff8111156200293457620029346200221b565b6200294c8162002945845462002865565b84620028c4565b602080601f8311600181146200298857600084156200296b5750858301515b60028086026008870290910a60001904198216178655506200290e565b600085815260208120601f198616915b82811015620029b95788860151825594840194600190910190840162002998565b5085821015620029da57878501516008601f88160260020a60001904191681555b5050505050600202600101905550565b818103620029f6575050565b62002a02825462002865565b67ffffffffffffffff81111562002a1d5762002a1d6200221b565b62002a2e8162002945845462002865565b6000601f82116001811462002a69576000831562002a4c5750848201545b60028085026008860290910a600019041982161785555062000569565b600085815260209020601f19841690600086815260209020845b8381101562002aa5578286015482556001958601959091019060200162002a83565b5085831015620029da57818501546008601f88160260020a60001904191681555050505050600202600101905550565b6000815462002ae48162002865565b80855260206001838116801562002b04576001811462002b1e5762002b4e565b60ff19851688840152831515830288018301955062002b4e565b866000528260002060005b8581101562002b465781548a820186015290830190840162002b29565b890184019650505b505050505092915050565b6020815281546020820152600062002b7b6001840154600160a060020a031690565b600160a060020a031660408301526101806060830181905262002ba66101a084016002860162002ad5565b838103601f1901608085015262002bc1816003870162002ad5565b905062002bd86004860154600160a060020a031690565b600160a060020a031660a0850152600585015460c0850152600685015460e085015260078501546101008086019190915260088601546101208601526009860154610140860152600a86015460ff811615156101608701529060ff910416919093015250919050565b60e060020a634e487b7102600052601160045260246000fd5b80820180821115620020c357620020c362002c41565b6000602080838503121562002c8457600080fd5b825167ffffffffffffffff8082111562002c9d57600080fd5b818501915085601f83011262002cb257600080fd5b81518181111562002cc75762002cc76200221b565b62002cd6848583020162002261565b818152848101925061012091820284018501918883111562002cf757600080fd5b938501935b8285101562002d215762002d11898662002794565b8452938401939285019262002cfc565b50979650505050505050565b83815260208101839052610160810162002d4b604083018462002426565b949350505050565b60006001820162002d685762002d6862002c41565b5060010190565b60e060020a634e487b7102600052603260045260246000fd5b81810381811115620020c357620020c362002c4156fe608060405234801561001057600080fd5b506040516109f23803806109f283398101604081905261002f9161020c565b6000805433600160a060020a03199182168117909255600a805461010060a860020a031916610100909302929092179091556001879055600280548216600160a060020a03888116918217909255600380548416888416908117909155600587905560078054851693871693909317909255600984905560048054909316821783556040517f70a082310000000000000000000000000000000000000000000000000000000081529283015284916370a0823190602401602060405180830381865afa158015610103573d6000803e3d6000fd5b505050506040513d601f19601f82011682018060405250810190610127919061026b565b10156101bb57604080517f08c379a00000000000000000000000000000000000000000000000000000000081526020600482015260248101919091527f706c6179657220312068617320696e73756666696369656e742062616c616e6360448201527f65206f6620746f6b656e203120746f206372656174652061206c697374696e67606482015260840160405180910390fd5b5060088054600160a060020a031916600160a060020a03929092169190911790555050600a805460ff19169055506102849050565b8051600160a060020a038116811461020757600080fd5b919050565b60008060008060008060c0878903121561022557600080fd5b86519550610235602088016101f0565b9450610243604088016101f0565b935060608701519250610258608088016101f0565b915060a087015190509295509295509295565b60006020828403121561027d57600080fd5b5051919050565b61075f806102936000396000f3fe608060405234801561001057600080fd5b50600436106100d1576000357c010000000000000000000000000000000000000000000000000000000090048063c4e5edcd1161008e578063c4e5edcd14610176578063d21220a71461017f578063d30895e414610192578063d5488048146101a5578063d70c6703146101b8578063e2d46f98146101c157600080fd5b806302d05d3f146100d657806325be124e1461010657806358aaf0be1461011957806359a5f12d1461012c5780636f6ff4051461013f5780639405dfdd1461015f575b600080fd5b6000546100e990600160a060020a031681565b604051600160a060020a0390911681526020015b60405180910390f35b6007546100e990600160a060020a031681565b6008546100e990600160a060020a031681565b6006546100e990600160a060020a031681565b61015261014d36600461060d565b6101de565b6040516100fd919061063d565b61016860015481565b6040519081526020016100fd565b61016860095481565b6003546100e990600160a060020a031681565b6002546100e990600160a060020a031681565b6004546100e990600160a060020a031681565b61016860055481565b600a546101ce9060ff1681565b60405190151581526020016100fd565b6040805161012081018252600080825260208201819052918101829052606081018290526080810182905260a0810182905260c0810182905260e08101829052610100810191909152600554600480546002546040517fdd62ed3e000000000000000000000000000000000000000000000000000000008152600160a060020a0391821693810193909352306024840152169063dd62ed3e90604401602060405180830381865afa158015610297573d6000803e3d6000fd5b505050506040513d601f19601f820116820180604052508101906102bb91906106ee565b1015610328576040517f08c379a000000000000000000000000000000000000000000000000000000000815260206004820152601960248201527f546f6b656e203120616c6c6f77616e636520746f6f206c6f770000000000000060448201526064015b60405180910390fd5b6009546008546006546040517fdd62ed3e000000000000000000000000000000000000000000000000000000008152600160a060020a03918216600482015230602482015291169063dd62ed3e90604401602060405180830381865afa158015610396573d6000803e3d6000fd5b505050506040513d601f19601f820116820180604052508101906103ba91906106ee565b1015610422576040517f08c379a000000000000000000000000000000000000000000000000000000000815260206004820152601960248201527f546f6b656e203220616c6c6f77616e636520746f6f206c6f7700000000000000604482015260640161031f565b60045460025460065460055461044893600160a060020a03908116938116921690610505565b60085460065460025460095461046e93600160a060020a03908116938116921690610505565b506006805473ffffffffffffffffffffffffffffffffffffffff1916600160a060020a03928316908117909155600a805460ff1916600190811790915560408051610120810182528254815230602082015260025485169181019190915260035484166060820152600554608082015260a081019290925260075490921660c082015260095460e082015261010081019190915290565b6040517f23b872dd000000000000000000000000000000000000000000000000000000008152600160a060020a038481166004830152838116602483015260448201839052600091908616906323b872dd906064016020604051808303816000875af1158015610579573d6000803e3d6000fd5b505050506040513d601f19601f8201168201806040525081019061059d9190610707565b905080610606576040517f08c379a000000000000000000000000000000000000000000000000000000000815260206004820152601560248201527f546f6b656e207472616e73666572206661696c65640000000000000000000000604482015260640161031f565b5050505050565b60006020828403121561061f57600080fd5b8135600160a060020a038116811461063657600080fd5b9392505050565b600061012082019050825182526020830151600160a060020a038082166020850152806040860151166040850152505060608301516106876060840182600160a060020a03169052565b506080830151608083015260a08301516106ac60a0840182600160a060020a03169052565b5060c08301516106c760c0840182600160a060020a03169052565b5060e083015160e0830152610100808401516106e68285018215159052565b505092915050565b60006020828403121561070057600080fd5b5051919050565b60006020828403121561071957600080fd5b8151801515811461063657600080fdfea2646970667358221220d6b876ce93eea6db2df760cc15f2d4b2b96a7f2648afc507c225884e3341a51664736f6c63430008110033a264697066735822122033ce358ddb31ce7128fe49f4c2a18071a01bd26ee32bf87dfb5630836f6d02a864736f6c6343000811003360c0604052600b60809081527f4877616e674d61726b657400000000000000000000000000000000000000000060a0526003906200003e9082620001a2565b5060408051808201909152600581527f484d544b4e0000000000000000000000000000000000000000000000000000006020820152600490620000829082620001a2565b506005805460ff191660121790556000600655348015620000a257600080fd5b506007805433600160a060020a0319918216811790925560088054909116909117905562000275565b7f4e487b7100000000000000000000000000000000000000000000000000000000600052604160045260246000fd5b6002810460018216806200010f57607f821691505b60208210810362000149577f4e487b7100000000000000000000000000000000000000000000000000000000600052602260045260246000fd5b50919050565b601f8211156200019d576000818152602081206020601f86010481016020861015620001785750805b6020601f860104820191505b81811015620001995782815560010162000184565b5050505b505050565b815167ffffffffffffffff811115620001bf57620001bf620000cb565b620001d781620001d08454620000fa565b846200014f565b602080601f831160018114620002135760008415620001f65750858301515b60028086026008870290910a600019041982161786555062000199565b600085815260208120601f198616915b82811015620002445788860151825594840194600190910190840162000223565b50858210156200026557878501516008601f88160260020a60001904191681555b5050505050600202600101905550565b61174280620002856000396000f3fe60806040526004361061011c5760003560e060020a9004806342966c68116100a4578063ac5388c811610068578063ac5388c81461031b578063b7b172b314610331578063d270e7ab14610351578063dd62ed3e14610371578063f16e4300146103a957600080fd5b806342966c681461026c57806370a082311461028c57806395d89b41146102b95780639ea3c820146102ce578063a9059cbb146102fb57600080fd5b8063156e29f6116100eb578063156e29f6146101d557806318160ddd146101ea57806321e382591461020057806323b872dd14610220578063313ce5671461024057600080fd5b806302d05d3f1461012857806306fdde0314610165578063095ea7b31461018757806312065fe0146101b757600080fd5b3661012357005b600080fd5b34801561013457600080fd5b5060075461014890600160a060020a031681565b604051600160a060020a0390911681526020015b60405180910390f35b34801561017157600080fd5b5061017a6103be565b60405161015c9190611254565b34801561019357600080fd5b506101a76101a23660046112ba565b61044c565b604051901515815260200161015c565b3480156101c357600080fd5b5030315b60405190815260200161015c565b6101e86101e33660046112e6565b6104ed565b005b3480156101f657600080fd5b506101c760005481565b34801561020c57600080fd5b506101a761021b36600461131b565b6106fc565b34801561022c57600080fd5b506101a761023b366004611363565b6108f5565b34801561024c57600080fd5b5060055461025a9060ff1681565b60405160ff909116815260200161015c565b34801561027857600080fd5b506101e86102873660046113a4565b610aa5565b34801561029857600080fd5b506101c76102a73660046113bd565b60016020526000908152604090205481565b3480156102c557600080fd5b5061017a610b3c565b3480156102da57600080fd5b506102ee6102e93660046113bd565b610b49565b60405161015c91906113e1565b34801561030757600080fd5b506101a76103163660046112ba565b610f06565b34801561032757600080fd5b506101c760065481565b34801561033d57600080fd5b506101e861034c3660046112ba565b611050565b34801561035d57600080fd5b5060085461014890600160a060020a031681565b34801561037d57600080fd5b506101c761038c366004611492565b600260209081526000928352604080842090915290825290205481565b3480156103b557600080fd5b506101c7600181565b600380546103cb906114cb565b80601f01602080910402602001604051908101604052809291908181526020018280546103f7906114cb565b80156104445780601f1061041957610100808354040283529160200191610444565b820191906000526020600020905b81548152906001019060200180831161042757829003601f168201915b505050505081565b336000908152600160205260408120548211156104875760405160e560020a62461bcd02815260040161047e90611508565b60405180910390fd5b336000818152600260209081526040808320600160a060020a03881680855290835292819020869055518581529192917f8c5be1e5ebec7d5bd14f71427d1e84f3dd0314c0f7b2291e5b200ac8c7c3b92591015b60405180910390a35060015b92915050565b82600160a060020a03163134111561054a5760405160e560020a62461bcd02815260206004820152601e60248201527f596f7520646f206e6f74206861766520656e6f7567682062616c616e63650000604482015260640161047e565b8034146105c25760405160e560020a62461bcd02815260206004820152602b60248201527f65746820616d6f756e7420737065636966696564206e6f7420657175616c207460448201527f6f206d73672076616c7565000000000000000000000000000000000000000000606482015260840161047e565b6105cd600182611558565b821461066a5760405160e560020a62461bcd02815260206004820152604160248201527f65746820616d6f756e74206f66666572656420646f6573206e6f74206d61746360448201527f6820616d6f756e74206f6620484d544b4e20746f6b656e20726571756573746560648201527f6400000000000000000000000000000000000000000000000000000000000000608482015260a40161047e565b600160a060020a0383166000908152600160205260408120805484929061069290849061156f565b92505081905550816000808282546106aa919061156f565b9250508190555081600660008282546106c3919061156f565b9091555050604051828152600160a060020a038416906000906000805160206116ed8339815191529060200160405180910390a3505050565b3360009081526001602052604081205484111561072e5760405160e560020a62461bcd02815260040161047e90611508565b600160a060020a03851630146107895760405160e560020a62461bcd02815260206004820152601560248201527f746f6b656e206d75737420626520746f6b656e20310000000000000000000000604482015260640161047e565b6008546040517fdc7dbf3e000000000000000000000000000000000000000000000000000000008152336004820152600160a060020a03878116602483015260448201879052858116606483015260848201859052600092169063dc7dbf3e9060a401610120604051808303816000875af115801561080c573d6000803e3d6000fd5b505050506040513d601f19601f8201168201806040525081019061083091906115dd565b602080820151336000908152600283526040808220600160a060020a03841683529093529182208054939450909288929061086c90849061156f565b9091555050604051868152600160a060020a0382169033907f8c5be1e5ebec7d5bd14f71427d1e84f3dd0314c0f7b2291e5b200ac8c7c3b9259060200160405180910390a37fd1fe3704bd3aa4f4974d5168e39528bbb86b19e98e5f798beea49af58df30139826040516108e091906113e1565b60405180910390a15060019695505050505050565b336000908152600260209081526040808320600160a060020a03861684529091528120548211156109915760405160e560020a62461bcd02815260206004820152602f60248201527f696e73756666696369656e7420616c6c6f77616e636520746f2072656369706960448201527f656e742066726f6d2073656e6465720000000000000000000000000000000000606482015260840161047e565b600160a060020a0384166000908152600160205260409020548211156109cc5760405160e560020a62461bcd02815260040161047e90611508565b600160a060020a0384166000908152600260209081526040808320338452909152812080548492906109ff90849061167e565b9091555050600160a060020a03841660009081526001602052604081208054849290610a2c90849061167e565b9091555050600160a060020a03831660009081526001602052604081208054849290610a5990849061156f565b9250508190555082600160a060020a031684600160a060020a03166000805160206116ed83398151915284604051610a9391815260200190565b60405180910390a35060019392505050565b33600090815260016020526040902054811115610ad75760405160e560020a62461bcd02815260040161047e90611508565b3360009081526001602052604081208054839290610af690849061167e565b9250508190555080600080828254610b0e919061167e565b909155505060405181815260009033906000805160206116ed8339815191529060200160405180910390a350565b600480546103cb906114cb565b6040805161012081018252600080825260208201819052918101829052606081018290526080810182905260a0810182905260c0810182905260e08101829052610100810191909152600082905030600160a060020a031681600160a060020a03166325be124e6040518163ffffffff1660e060020a028152600401602060405180830381865afa158015610be2573d6000803e3d6000fd5b505050506040513d601f19601f82011682018060405250810190610c069190611691565b600160a060020a031614610c5f5760405160e560020a62461bcd02815260206004820181905260248201527f6c697374696e672077616e7473206120646966666572656e7420746f6b656e32604482015260640161047e565b80600160a060020a031663c4e5edcd6040518163ffffffff1660e060020a028152600401602060405180830381865afa158015610ca0573d6000803e3d6000fd5b505050506040513d601f19601f82011682018060405250810190610cc491906116ae565b336000908152600160205260409020541015610cf55760405160e560020a62461bcd02815260040161047e90611508565b80600160a060020a031663c4e5edcd6040518163ffffffff1660e060020a028152600401602060405180830381865afa158015610d36573d6000803e3d6000fd5b505050506040513d601f19601f82011682018060405250810190610d5a91906116ae565b336000908152600260209081526040808320600160a060020a038816845290915281208054909190610d8d90849061156f565b9250508190555082600160a060020a031633600160a060020a03167f8c5be1e5ebec7d5bd14f71427d1e84f3dd0314c0f7b2291e5b200ac8c7c3b92583600160a060020a031663c4e5edcd6040518163ffffffff1660e060020a028152600401602060405180830381865afa158015610e0a573d6000803e3d6000fd5b505050506040513d601f19601f82011682018060405250810190610e2e91906116ae565b60405190815260200160405180910390a36040517f6f6ff405000000000000000000000000000000000000000000000000000000008152336004820152600090600160a060020a03831690636f6ff40590602401610120604051808303816000875af1158015610ea2573d6000803e3d6000fd5b505050506040513d601f19601f82011682018060405250810190610ec691906115dd565b90507f4758bcd8e425945eea731ed13074c209c3176197b970b6a78b278ad015ae907881604051610ef791906113e1565b60405180910390a19392505050565b336000908152600260209081526040808320600160a060020a0386168452909152812054821115610fa25760405160e560020a62461bcd02815260206004820152602f60248201527f696e73756666696369656e7420616c6c6f77616e63652066726f6d2073656e6460448201527f657220746f20726563697069656e740000000000000000000000000000000000606482015260840161047e565b33600090815260016020526040902054821115610fd45760405160e560020a62461bcd02815260040161047e90611508565b3360009081526001602052604081208054849290610ff390849061167e565b9091555050600160a060020a0383166000908152600160205260408120805484929061102090849061156f565b9091555050604051828152600160a060020a0384169033906000805160206116ed833981519152906020016104db565b600160a060020a03821633146110ab5760405160e560020a62461bcd02815260206004820152601360248201527f496e76616c6964205472616e73616374696f6e00000000000000000000000000604482015260640161047e565b33600090815260026020908152604080832030845290915290205481111561113e5760405160e560020a62461bcd02815260206004820152602c60248201527f696e73756666696369656e7420616c6c6f77616e636520696e20706c6179657260448201527f20746f20636f6e74726163740000000000000000000000000000000000000000606482015260840161047e565b336000908152600160205260409020548111156111a05760405160e560020a62461bcd02815260206004820152601e60248201527f696e73756666696369656e742062616c616e636520696e20706c617965720000604482015260640161047e565b60006111ad6001806116c7565b6111b79083611558565b604051909150600160a060020a0384169082156108fc029083906000818181858888f193505050501580156111f0573d6000803e3d6000fd5b50600160a060020a0383166000908152600160205260408120805484929061121990849061167e565b9250508190555081600080828254611231919061167e565b92505081905550806006600082825461124a919061167e565b9091555050505050565b600060208083528351808285015260005b8181101561128157858101830151858201604001528201611265565b506000604082860101526040601f19601f8301168501019250505092915050565b600160a060020a03811681146112b757600080fd5b50565b600080604083850312156112cd57600080fd5b82356112d8816112a2565b946020939093013593505050565b6000806000606084860312156112fb57600080fd5b8335611306816112a2565b95602085013595506040909401359392505050565b6000806000806080858703121561133157600080fd5b843561133c816112a2565b9350602085013592506040850135611353816112a2565b9396929550929360600135925050565b60008060006060848603121561137857600080fd5b8335611383816112a2565b92506020840135611393816112a2565b929592945050506040919091013590565b6000602082840312156113b657600080fd5b5035919050565b6000602082840312156113cf57600080fd5b81356113da816112a2565b9392505050565b600061012082019050825182526020830151600160a060020a0380821660208501528060408601511660408501525050606083015161142b6060840182600160a060020a03169052565b506080830151608083015260a083015161145060a0840182600160a060020a03169052565b5060c083015161146b60c0840182600160a060020a03169052565b5060e083015160e08301526101008084015161148a8285018215159052565b505092915050565b600080604083850312156114a557600080fd5b82356114b0816112a2565b915060208301356114c0816112a2565b809150509250929050565b6002810460018216806114df57607f821691505b6020821081036115025760e060020a634e487b7102600052602260045260246000fd5b50919050565b6020808252601e908201527f696e73756666696369656e742062616c616e636520696e2073656e6465720000604082015260600190565b60e060020a634e487b7102600052601160045260246000fd5b80820281158282048414176104e7576104e761153f565b808201808211156104e7576104e761153f565b604051610120810167ffffffffffffffff811182821017156115b75760e060020a634e487b7102600052604160045260246000fd5b60405290565b80516115c8816112a2565b919050565b805180151581146115c857600080fd5b600061012082840312156115f057600080fd5b6115f8611582565b82518152611608602084016115bd565b6020820152611619604084016115bd565b604082015261162a606084016115bd565b60608201526080830151608082015261164560a084016115bd565b60a082015261165660c084016115bd565b60c082015260e083015160e08201526101006116738185016115cd565b908201529392505050565b818103818111156104e7576104e761153f565b6000602082840312156116a357600080fd5b81516113da816112a2565b6000602082840312156116c057600080fd5b5051919050565b6000826116e75760e060020a634e487b7102600052601260045260246000fd5b50049056feddf252ad1be2c89b69c2b068fc378daa952ba7f163c4a11628f55a4df523b3efa2646970667358221220a2cd84d96732228f3f679a55b4d69358a888ae0777aaea18107e4b530308c53964736f6c63430008110033608060405234801561001057600080fd5b50614e26806100206000396000f3fe608060405234801561001057600080fd5b5060043610610047577c01000000000000000000000000000000000000000000000000000000006000350463956a2a10811461004c575b600080fd5b61005f61005a36600461012a565b610088565b60405173ffffffffffffffffffffffffffffffffffffffff909116815260200160405180910390f35b60008484848460405161009a906100f4565b73ffffffffffffffffffffffffffffffffffffffff94851681526020810193909352921660408201526060810191909152608001604051809103906000f0801580156100ea573d6000803e3d6000fd5b5095945050505050565b614c828061016f83390190565b803573ffffffffffffffffffffffffffffffffffffffff8116811461012557600080fd5b919050565b6000806000806080858703121561014057600080fd5b61014985610101565b93506020850135925061015e60408601610101565b939692955092936060013592505056fe60806040523480156200001157600080fd5b5060405162004c8238038062004c8283398101604081905262000034916200024f565b6000805460078054600160a060020a03888116600160a060020a031992831681179093556001889055600160b060020a03199093169091179092556004805490921690841617905560028190556040516103e890620000939062000224565b6060808252600b908201527f47616d654e6f546f6b656e000000000000000000000000000000000000000000608082015260a0602082018190526003908201527f474e54000000000000000000000000000000000000000000000000000000000060c0820152604081019190915260e001604051809103906000f08015801562000121573d6000803e3d6000fd5b5060098054600160a060020a0392909216600160a060020a03199283168117909155600880549092161790556040516103e8906200015f9062000224565b6060808252600c908201527f47616d65596573546f6b656e0000000000000000000000000000000000000000608082015260a0602082018190526003908201527f475954000000000000000000000000000000000000000000000000000000000060c0820152604081019190915260e001604051809103906000f080158015620001ed573d6000803e3d6000fd5b50600b8054600160a060020a0392909216600160a060020a03199283168117909155600a8054909216179055506200029892505050565b6115ca80620036b883390190565b8051600160a060020a03811681146200024a57600080fd5b919050565b600080600080608085870312156200026657600080fd5b620002718562000232565b935060208501519250620002886040860162000232565b6060959095015193969295505050565b61341080620002a86000396000f3fe60806040523480156200001157600080fd5b5060043610620001785760003560e060020a900480637256eba411620000d7578063d6875f95116200008a578063d6875f95146200033e578063dc7dbf3e1462000352578063e07056af1462000378578063e2cb747d146200038f578063f91c2cbc14620003a6578063f92a9e0914620003bf57600080fd5b80637256eba414620002c8578063846c6f4f14620002df5780638e15f47314620002f35780638f09cc8b14620002fd578063ae73ccec1462000311578063d270e7ab146200032a57600080fd5b80631746bd1b11620001305780631746bd1b1462000237578063200d2ed2146200027257806341ef10c8146200029657806342cde4e814620002aa57806346b1df0414620002b45780636e4d243a14620002be57600080fd5b8062ef52de146200017d57806302d05d3f1462000196578063053a2cfb14620001c75780630b66c67814620001eb57806312065fe014620002025780631486d6111462000214575b600080fd5b620001946200018e366004620020e3565b620003c9565b005b600054620001aa90600160a060020a031681565b604051600160a060020a0390911681526020015b60405180910390f35b600054620001dc9060a860020a900460ff1681565b604051620001be919062002142565b62000194620001fc366004620020e3565b620005e9565b30315b604051908152602001620001be565b620002056200022536600462002158565b60036020526000908152604090205481565b600054600154600254604051620001be93600160a060020a0381169360ff60a060020a830481169460a860020a909304169290919062002195565b600054620002879060a060020a900460ff1681565b604051620001be9190620021d6565b600854620001aa90600160a060020a031681565b6200020560025481565b6200020560115481565b6200019462000e97565b62000194620002d9366004620021fd565b62001062565b600a54620001aa90600160a060020a031681565b6200020562001a30565b600954620001aa90600160a060020a031681565b6200031b62001ac4565b604051620001be9190620022da565b600754620001aa90600160a060020a031681565b600b54620001aa90600160a060020a031681565b62000369620003633660046200232d565b62001b60565b604051620001be91906200238f565b620001aa62000389366004620023a0565b62001d1a565b62000205620003a0366004620023ba565b62001dbf565b620003b062001e7e565b604051620001be9190620023d8565b6200020560015481565b6040517f7e3bf307000000000000000000000000000000000000000000000000000000008152600c60048201526024810182905273__IterableMapping_______________________90637e3bf30790604401602060405180830381865af41580156200043a573d6000803e3d6000fd5b505050506040513d601f19601f82011682018060405250810190620004609190620024f9565b620004b55760405160e560020a62461bcd02815260206004820152601f60248201527f6c697374696e6720636f6e747261637420646f6573206e6f742065786973740060448201526064015b60405180910390fd5b6040517fd31c830c000000000000000000000000000000000000000000000000000000008152600c60048201526024810182905260009073__IterableMapping_______________________9063d31c830c9060440161012060405180830381865af41580156200052a573d6000803e3d6000fd5b505050506040513d601f19601f820116820180604052508101906200055091906200264f565b602001516040517f6f6ff405000000000000000000000000000000000000000000000000000000008152600160a060020a0385811660048301529192508291821690636f6ff40590602401610120604051808303816000875af1158015620005bc573d6000803e3d6000fd5b505050506040513d601f19601f82011682018060405250810190620005e291906200264f565b5050505050565b33600160a060020a038316146200066c5760405160e560020a62461bcd02815260206004820152602160248201527f63616e6e6f74207769746864726177206f6e20736f6d656f6e6520626568616c60448201527f66000000000000000000000000000000000000000000000000000000000000006064820152608401620004ac565b600160005460a060020a900460ff1660018111156200068f576200068f62002112565b14620006e15760405160e560020a62461bcd02815260206004820152601660248201527f67616d65206973206e6f742079657420636c6f736564000000000000000000006044820152606401620004ac565b6000805460a860020a900460ff16600281111562000703576200070362002112565b03620007555760405160e560020a62461bcd02815260206004820152601e60248201527f67616d65206f7574636f6d652063616e6e6f7420626520756e6b6e6f776e00006044820152606401620004ac565b600954600160a060020a0316600160005460a860020a900460ff16600281111562000784576200078462002112565b03620007985750600b54600160a060020a03165b6040517fdd62ed3e000000000000000000000000000000000000000000000000000000008152600160a060020a03848116600483015230602483015283919083169063dd62ed3e90604401602060405180830381865afa15801562000801573d6000803e3d6000fd5b505050506040513d601f19601f820116820180604052508101906200082791906200266f565b1015620008a05760405160e560020a62461bcd02815260206004820152602360248201527f706c61796572206d75737420617070726f766520776974686472617720616d6f60448201527f756e7400000000000000000000000000000000000000000000000000000000006064820152608401620004ac565b6040517f70a08231000000000000000000000000000000000000000000000000000000008152600160a060020a0384811660048301528391908316906370a0823190602401602060405180830381865afa15801562000903573d6000803e3d6000fd5b505050506040513d601f19601f820116820180604052508101906200092991906200266f565b1015620009a25760405160e560020a62461bcd02815260206004820152602e60248201527f706c61796572206d75737420686176652067616d6520746f6b656e20616d6f7560448201527f6e7420746f2077697468647261770000000000000000000000000000000000006064820152608401620004ac565b60028060005460a860020a900460ff166002811115620009c657620009c662002112565b03620009d0575060015b600083620009e0600180620026a2565b620009ec9190620026c8565b90506000816003600085600281111562000a0a5762000a0a62002112565b600281111562000a1e5762000a1e62002112565b815260200190815260200160002054600360008060159054906101000a900460ff16600281111562000a545762000a5462002112565b600281111562000a685762000a6862002112565b8152602001908152602001600020548462000a849190620026a2565b62000a909190620026c8565b62000a9c9190620026e2565b9050600760009054906101000a9004600160a060020a0316600160a060020a0316633fc15f156040518163ffffffff1660e060020a028152600401602060405180830381865afa15801562000af5573d6000803e3d6000fd5b505050506040513d601f19601f8201168201806040525081019062000b1b9190620026f8565b6040517f095ea7b3000000000000000000000000000000000000000000000000000000008152600160a060020a03888116600483015260248201849052919091169063095ea7b3906044016020604051808303816000875af115801562000b86573d6000803e3d6000fd5b505050506040513d601f19601f8201168201806040525081019062000bac9190620024f9565b50600754604080517f3fc15f15000000000000000000000000000000000000000000000000000000008152905162000c4292600160a060020a031691633fc15f159160048083019260209291908290030181865afa15801562000c13573d6000803e3d6000fd5b505050506040513d601f19601f8201168201806040525081019062000c399190620026f8565b30888462001fcd565b62000c508487308862001fcd565b6002600160005460a860020a900460ff16600281111562000c755762000c7562002112565b0362000c7f575060015b6040805160e08101825260068054825282518084018452600881527f57495448445241570000000000000000000000000000000000000000000000006020828101919091528301908152928201859052426060830181905260ff851660808401523060a0840152600160a060020a038b1660c084015260058054600181018255600091909152835192027f036b6384b5eca791c62761152d0c79bb0604c104a5fb6f4eb0703f3154bb3db08101928355935190937f036b6384b5eca791c62761152d0c79bb0604c104a5fb6f4eb0703f3154bb3db1019062000d629082620027a6565b506040820151600282015560608201516003820155608082015160048201805460a085015160ff90931674ffffffffffffffffffffffffffffffffffffffffff1990911617610100600160a060020a039384160217905560c0909201516005909101805473ffffffffffffffffffffffffffffffffffffffff1916919092161790556006805490600062000df68362002879565b90915550506007546040517f79769488000000000000000000000000000000000000000000000000000000008152600160a060020a038a8116600483015260ff851660248301526044820186905260648201849052909116906379769488906084015b600060405180830381600087803b15801562000e7457600080fd5b505af115801562000e89573d6000803e3d6000fd5b505050505050505050505050565b60015442101562000eee5760405160e560020a62461bcd02815260206004820181905260248201527f67616d65206973206e6f7420726561647920746f206265207265736f6c7665646044820152606401620004ac565b600160005460a060020a900460ff16600181111562000f115762000f1162002112565b0362000f635760405160e560020a62461bcd02815260206004820152601660248201527f67616d6520697320616c726561647920636c6f736564000000000000000000006044820152606401620004ac565b6000805474ff0000000000000000000000000000000000000000191660a060020a17905560028054819062000f9762001a30565b1262000fa4575060019050805b6000805483919075ff000000000000000000000000000000000000000000191660a860020a83600281111562000fde5762000fde62002112565b02179055506007546040517fe362937d00000000000000000000000000000000000000000000000000000000815260ff83166004820152600160a060020a039091169063e362937d90602401600060405180830381600087803b1580156200104557600080fd5b505af11580156200105a573d6000803e3d6000fd5b505050505050565b6000600160a060020a0384163314620010c15760405160e560020a62461bcd02815260206004820152601360248201527f496e76616c6964205472616e73616374696f6e000000000000000000000000006044820152606401620004ac565b6000805460a060020a900460ff166001811115620010e357620010e362002112565b146200115b5760405160e560020a62461bcd02815260206004820152602860248201527f47616d6520697320636c6f7365642c206e6f206675727468657220626574732060448201527f61636365707465640000000000000000000000000000000000000000000000006064820152608401620004ac565b8160ff16600114806200117157508160ff166002145b620011c25760405160e560020a62461bcd02815260206004820152601a60248201527f6265742073696465206973206e6f74207265636f676e697365640000000000006044820152606401620004ac565b6001544211156200123f5760405160e560020a62461bcd02815260206004820152602260248201527f63616e6e6f74207075742062657473206166746572207265736f6c766520746960448201527f6d650000000000000000000000000000000000000000000000000000000000006064820152608401620004ac565b600754604080517f3fc15f1500000000000000000000000000000000000000000000000000000000815290518592600160a060020a031691633fc15f159160048083019260209291908290030181865afa158015620012a2573d6000803e3d6000fd5b505050506040513d601f19601f82011682018060405250810190620012c89190620026f8565b6040517fdd62ed3e000000000000000000000000000000000000000000000000000000008152600160a060020a038781166004830152306024830152919091169063dd62ed3e90604401602060405180830381865afa15801562001330573d6000803e3d6000fd5b505050506040513d601f19601f820116820180604052508101906200135691906200266f565b1015620013cf5760405160e560020a62461bcd02815260206004820152602d60248201527f706c617965722773206877616e67206d61726b657420746f6b656e20616c6c6f60448201527f77616e636520746f6f206c6f77000000000000000000000000000000000000006064820152608401620004ac565b600754604080517f3fc15f1500000000000000000000000000000000000000000000000000000000815290518592600160a060020a031691633fc15f159160048083019260209291908290030181865afa15801562001432573d6000803e3d6000fd5b505050506040513d601f19601f82011682018060405250810190620014589190620026f8565b6040517f70a08231000000000000000000000000000000000000000000000000000000008152600160a060020a03878116600483015291909116906370a0823190602401602060405180830381865afa158015620014ba573d6000803e3d6000fd5b505050506040513d601f19601f82011682018060405250810190620014e091906200266f565b1015620015595760405160e560020a62461bcd02815260206004820152602b60248201527f706c617965722773206877616e67206d61726b657420746f6b656e2062616c6160448201527f6e636520746f6f206c6f770000000000000000000000000000000000000000006064820152608401620004ac565b600260ff83166001036200156b575060015b600954600160a060020a031660ff8416600103620015915750600b54600160a060020a03165b6000620015a0600187620026c8565b905081600160a060020a03166319d1997a6040518163ffffffff1660e060020a028152600401602060405180830381865afa158015620015e4573d6000803e3d6000fd5b505050506040513d601f19601f820116820180604052508101906200160a91906200266f565b8183600160a060020a03166318160ddd6040518163ffffffff1660e060020a028152600401602060405180830381865afa1580156200164d573d6000803e3d6000fd5b505050506040513d601f19601f820116820180604052508101906200167391906200266f565b6200167f9190620026e2565b1115620016f85760405160e560020a62461bcd02815260206004820152602760248201527f67616d6520746f6b656e2063616e6e6f74206d696e742072657175657374656460448201527f20616d6f756e74000000000000000000000000000000000000000000000000006064820152608401620004ac565b6040517f40c10f19000000000000000000000000000000000000000000000000000000008152600160a060020a038881166004830152602482018390528316906340c10f1990604401600060405180830381600087803b1580156200175c57600080fd5b505af115801562001771573d6000803e3d6000fd5b50505050620017ff600760009054906101000a9004600160a060020a0316600160a060020a0316633fc15f156040518163ffffffff1660e060020a028152600401602060405180830381865afa158015620017d0573d6000803e3d6000fd5b505050506040513d601f19601f82011682018060405250810190620017f69190620026f8565b88308962001fcd565b856003600085600281111562001819576200181962002112565b60028111156200182d576200182d62002112565b815260200190815260200160002060008282546200184c9190620026e2565b90915550506040805160e08101825260068054825282518084018452600381527f42455400000000000000000000000000000000000000000000000000000000006020828101919091528301908152928201899052426060830181905260ff891660808401523060a0840152600160a060020a038b1660c084015260058054600181018255600091909152835192027f036b6384b5eca791c62761152d0c79bb0604c104a5fb6f4eb0703f3154bb3db08101928355935190937f036b6384b5eca791c62761152d0c79bb0604c104a5fb6f4eb0703f3154bb3db10190620019349082620027a6565b506040820151600282015560608201516003820155608082015160048201805460a085015160ff90931674ffffffffffffffffffffffffffffffffffffffffff1990911617610100600160a060020a039384160217905560c0909201516005909101805473ffffffffffffffffffffffffffffffffffffffff19169190921617905560068054906000620019c88362002879565b90915550506007546040517f5039eb97000000000000000000000000000000000000000000000000000000008152600160a060020a038a8116600483015260ff89166024830152604482018a90526064820184905290911690635039eb979060840162000e59565b60048054604080517ffeaf968c00000000000000000000000000000000000000000000000000000000815290516000938493600160a060020a03169263feaf968c928183019260a0928290030181865afa15801562001a93573d6000803e3d6000fd5b505050506040513d601f19601f8201168201806040525081019062001ab99190620028b0565b509195945050505050565b6040517f75a02c20000000000000000000000000000000000000000000000000000000008152600c600482015260609073__IterableMapping_______________________906375a02c2090602401600060405180830381865af415801562001b31573d6000803e3d6000fd5b505050506040513d6000823e601f3d908101601f1916820160405262001b5b919081019062002905565b905090565b6040805161012081018252600080825260208201819052918101829052606081018290526080810182905260a0810182905260c0810182905260e0810182905261010081019190915260006011549050600081888888888860405162001bc690620020bc565b958652600160a060020a03948516602087015292841660408601526060850191909152909116608083015260a082015260c001604051809103906000f08015801562001c16573d6000803e3d6000fd5b506040805161012081018252848152600160a060020a0380841660208301528b8116828401528a81166060830152608082018a9052600060a0830181905290891660c083015260e0820188905261010082015290517f070b5eb40000000000000000000000000000000000000000000000000000000081529192509073__IterableMapping_______________________9063070b5eb49062001cc390600c9087908690600401620029c2565b60006040518083038186803b15801562001cdc57600080fd5b505af415801562001cf1573d6000803e3d6000fd5b50506011805492509050600062001d088362002879565b90915550909998505050505050505050565b6040517fd31c830c000000000000000000000000000000000000000000000000000000008152600c60048201526024810182905260009073__IterableMapping_______________________9063d31c830c9060440161012060405180830381865af415801562001d8f573d6000803e3d6000fd5b505050506040513d601f19601f8201168201806040525081019062001db591906200264f565b6020015192915050565b60008160ff166001148062001dd757508160ff166002145b62001e285760405160e560020a62461bcd02815260206004820152601a60248201527f73696465206d757374206265206f6e65206f662031206f7220320000000000006044820152606401620004ac565b600260ff831660010362001e3a575060015b6003600082600281111562001e535762001e5362002112565b600281111562001e675762001e6762002112565b815260200190815260200160002054915050919050565b60606005805480602002602001604051908101604052809291908181526020016000905b8282101562001fc457838290600052602060002090600602016040518060e00160405290816000820154815260200160018201805462001ee29062002718565b80601f016020809104026020016040519081016040528092919081815260200182805462001f109062002718565b801562001f615780601f1062001f355761010080835404028352916020019162001f61565b820191906000526020600020905b81548152906001019060200180831162001f4357829003601f168201915b5050509183525050600282015460208083019190915260038301546040830152600483015460ff81166060840152600160a060020a036101009091048116608084015260059093015490921660a090910152908252600192909201910162001ea2565b50505050905090565b6040517f23b872dd000000000000000000000000000000000000000000000000000000008152600160a060020a038481166004830152838116602483015260448201839052600091908616906323b872dd906064016020604051808303816000875af115801562002042573d6000803e3d6000fd5b505050506040513d601f19601f82011682018060405250810190620020689190620024f9565b905080620005e25760405160e560020a62461bcd02815260206004820152601560248201527f546f6b656e207472616e73666572206661696c656400000000000000000000006044820152606401620004ac565b6109f280620029e983390190565b600160a060020a0381168114620020e057600080fd5b50565b60008060408385031215620020f757600080fd5b82356200210481620020ca565b946020939093013593505050565b60e060020a634e487b7102600052602160045260246000fd5b600381106200213e576200213e62002112565b9052565b602081016200215282846200212b565b92915050565b6000602082840312156200216b57600080fd5b8135600381106200217b57600080fd5b9392505050565b600281106200213e576200213e62002112565b600160a060020a038616815260a08101620021b4602083018762002182565b620021c360408301866200212b565b6060820193909352608001529392505050565b6020810162002152828462002182565b803560ff81168114620021f857600080fd5b919050565b6000806000606084860312156200221357600080fd5b83356200222081620020ca565b9250602084013591506200223760408501620021e6565b90509250925092565b805182526020810151600160a060020a03808216602085015280604084015116604085015280606084015116606085015250506080810151608083015260a08101516200229860a0840182600160a060020a03169052565b5060c0810151620022b460c0840182600160a060020a03169052565b5060e081015160e083015261010080820151620022d48285018215159052565b50505050565b6020808252825182820181905260009190848201906040850190845b8181101562002321576200230c83855162002240565b928401926101209290920191600101620022f6565b50909695505050505050565b600080600080600060a086880312156200234657600080fd5b85356200235381620020ca565b945060208601356200236581620020ca565b93506040860135925060608601356200237e81620020ca565b949793965091946080013592915050565b610120810162002152828462002240565b600060208284031215620023b357600080fd5b5035919050565b600060208284031215620023cd57600080fd5b6200217b82620021e6565b6020808252825182820181905260009190604090818501908084028601830187850186805b84811015620024d957603f198a8503018652825160e08151865289820151818b880152805180838901528592505b808310156200244c578183018c01518884016101000152918b01916200242b565b61010092508583828a0101528a8401518b890152606091508184015182890152608091508184015162002483838a018260ff169052565b5060a0915081840151620024a1838a0182600160a060020a03169052565b5060c093840151600160a060020a03811689860152939150988b0198601f01601f1916969096010194505091870191600101620023fd565b50919998505050505050505050565b80518015158114620021f857600080fd5b6000602082840312156200250c57600080fd5b6200217b82620024e8565b60e060020a634e487b7102600052604160045260246000fd5b604051610120810167ffffffffffffffff8111828210171562002557576200255762002517565b60405290565b604051601f8201601f1916810167ffffffffffffffff8111828210171562002589576200258962002517565b604052919050565b8051620021f881620020ca565b60006101208284031215620025b257600080fd5b620025bc62002530565b905081518152620025d06020830162002591565b6020820152620025e36040830162002591565b6040820152620025f66060830162002591565b6060820152608082015160808201526200261360a0830162002591565b60a08201526200262660c0830162002591565b60c082015260e082015160e082015261010062002645818401620024e8565b9082015292915050565b600061012082840312156200266357600080fd5b6200217b83836200259e565b6000602082840312156200268257600080fd5b5051919050565b60e060020a634e487b7102600052601160045260246000fd5b600082620026c35760e060020a634e487b7102600052601260045260246000fd5b500490565b808202811582820484141762002152576200215262002689565b8082018082111562002152576200215262002689565b6000602082840312156200270b57600080fd5b81516200217b81620020ca565b6002810460018216806200272d57607f821691505b602082108103620027515760e060020a634e487b7102600052602260045260246000fd5b50919050565b601f821115620027a1576000818152602081206020601f86010481016020861015620027805750805b6020601f860104820191505b818110156200105a578281556001016200278c565b505050565b815167ffffffffffffffff811115620027c357620027c362002517565b620027db81620027d4845462002718565b8462002757565b602080601f831160018114620028175760008415620027fa5750858301515b60028086026008870290910a60001904198216178655506200105a565b600085815260208120601f198616915b82811015620028485788860151825594840194600190910190840162002827565b50858210156200286957878501516008601f88160260020a60001904191681555b5050505050600202600101905550565b6000600182016200288e576200288e62002689565b5060010190565b805169ffffffffffffffffffff81168114620021f857600080fd5b600080600080600060a08688031215620028c957600080fd5b620028d48662002895565b9450602086015193506040860151925060608601519150620028f96080870162002895565b90509295509295909350565b600060208083850312156200291957600080fd5b825167ffffffffffffffff808211156200293257600080fd5b818501915085601f8301126200294757600080fd5b8151818111156200295c576200295c62002517565b6200296b84858302016200255d565b81815284810192506101209182028401850191888311156200298c57600080fd5b938501935b82851015620029b657620029a689866200259e565b8452938401939285019262002991565b50979650505050505050565b838152602081018390526101608101620029e0604083018462002240565b94935050505056fe608060405234801561001057600080fd5b506040516109f23803806109f283398101604081905261002f9161020c565b6000805433600160a060020a03199182168117909255600a805461010060a860020a031916610100909302929092179091556001879055600280548216600160a060020a03888116918217909255600380548416888416908117909155600587905560078054851693871693909317909255600984905560048054909316821783556040517f70a082310000000000000000000000000000000000000000000000000000000081529283015284916370a0823190602401602060405180830381865afa158015610103573d6000803e3d6000fd5b505050506040513d601f19601f82011682018060405250810190610127919061026b565b10156101bb57604080517f08c379a00000000000000000000000000000000000000000000000000000000081526020600482015260248101919091527f706c6179657220312068617320696e73756666696369656e742062616c616e6360448201527f65206f6620746f6b656e203120746f206372656174652061206c697374696e67606482015260840160405180910390fd5b5060088054600160a060020a031916600160a060020a03929092169190911790555050600a805460ff19169055506102849050565b8051600160a060020a038116811461020757600080fd5b919050565b60008060008060008060c0878903121561022557600080fd5b86519550610235602088016101f0565b9450610243604088016101f0565b935060608701519250610258608088016101f0565b915060a087015190509295509295509295565b60006020828403121561027d57600080fd5b5051919050565b61075f806102936000396000f3fe608060405234801561001057600080fd5b50600436106100d1576000357c010000000000000000000000000000000000000000000000000000000090048063c4e5edcd1161008e578063c4e5edcd14610176578063d21220a71461017f578063d30895e414610192578063d5488048146101a5578063d70c6703146101b8578063e2d46f98146101c157600080fd5b806302d05d3f146100d657806325be124e1461010657806358aaf0be1461011957806359a5f12d1461012c5780636f6ff4051461013f5780639405dfdd1461015f575b600080fd5b6000546100e990600160a060020a031681565b604051600160a060020a0390911681526020015b60405180910390f35b6007546100e990600160a060020a031681565b6008546100e990600160a060020a031681565b6006546100e990600160a060020a031681565b61015261014d36600461060d565b6101de565b6040516100fd919061063d565b61016860015481565b6040519081526020016100fd565b61016860095481565b6003546100e990600160a060020a031681565b6002546100e990600160a060020a031681565b6004546100e990600160a060020a031681565b61016860055481565b600a546101ce9060ff1681565b60405190151581526020016100fd565b6040805161012081018252600080825260208201819052918101829052606081018290526080810182905260a0810182905260c0810182905260e08101829052610100810191909152600554600480546002546040517fdd62ed3e000000000000000000000000000000000000000000000000000000008152600160a060020a0391821693810193909352306024840152169063dd62ed3e90604401602060405180830381865afa158015610297573d6000803e3d6000fd5b505050506040513d601f19601f820116820180604052508101906102bb91906106ee565b1015610328576040517f08c379a000000000000000000000000000000000000000000000000000000000815260206004820152601960248201527f546f6b656e203120616c6c6f77616e636520746f6f206c6f770000000000000060448201526064015b60405180910390fd5b6009546008546006546040517fdd62ed3e000000000000000000000000000000000000000000000000000000008152600160a060020a03918216600482015230602482015291169063dd62ed3e90604401602060405180830381865afa158015610396573d6000803e3d6000fd5b505050506040513d601f19601f820116820180604052508101906103ba91906106ee565b1015610422576040517f08c379a000000000000000000000000000000000000000000000000000000000815260206004820152601960248201527f546f6b656e203220616c6c6f77616e636520746f6f206c6f7700000000000000604482015260640161031f565b60045460025460065460055461044893600160a060020a03908116938116921690610505565b60085460065460025460095461046e93600160a060020a03908116938116921690610505565b506006805473ffffffffffffffffffffffffffffffffffffffff1916600160a060020a03928316908117909155600a805460ff1916600190811790915560408051610120810182528254815230602082015260025485169181019190915260035484166060820152600554608082015260a081019290925260075490921660c082015260095460e082015261010081019190915290565b6040517f23b872dd000000000000000000000000000000000000000000000000000000008152600160a060020a038481166004830152838116602483015260448201839052600091908616906323b872dd906064016020604051808303816000875af1158015610579573d6000803e3d6000fd5b505050506040513d601f19601f8201168201806040525081019061059d9190610707565b905080610606576040517f08c379a000000000000000000000000000000000000000000000000000000000815260206004820152601560248201527f546f6b656e207472616e73666572206661696c65640000000000000000000000604482015260640161031f565b5050505050565b60006020828403121561061f57600080fd5b8135600160a060020a038116811461063657600080fd5b9392505050565b600061012082019050825182526020830151600160a060020a038082166020850152806040860151166040850152505060608301516106876060840182600160a060020a03169052565b506080830151608083015260a08301516106ac60a0840182600160a060020a03169052565b5060c08301516106c760c0840182600160a060020a03169052565b5060e083015160e0830152610100808401516106e68285018215159052565b505092915050565b60006020828403121561070057600080fd5b5051919050565b60006020828403121561071957600080fd5b8151801515811461063657600080fdfea2646970667358221220d6b876ce93eea6db2df760cc15f2d4b2b96a7f2648afc507c225884e3341a51664736f6c63430008110033a264697066735822122058acf1c6f6ea343bf5eabe476a3b5e62b5f6bd6b472d00bb77c66d7031b2042b64736f6c6343000811003360806040523480156200001157600080fd5b50604051620015ca380380620015ca833981016040819052620000349162000164565b60068054600160a060020a0319163317905560046200005484826200027f565b5060056200006383826200027f565b506000908155600155505060078054600160a060020a0319163317905562000351565b7f4e487b7100000000000000000000000000000000000000000000000000000000600052604160045260246000fd5b600082601f830112620000c757600080fd5b81516001604060020a0380821115620000e457620000e462000086565b604051601f8301601f19908116603f011681019082821181831017156200010f576200010f62000086565b816040528381526020925086838588010111156200012c57600080fd5b600091505b8382101562000150578582018301518183018401529082019062000131565b600093810190920192909252949350505050565b6000806000606084860312156200017a57600080fd5b83516001604060020a03808211156200019257600080fd5b620001a087838801620000b5565b94506020860151915080821115620001b757600080fd5b50620001c686828701620000b5565b925050604084015190509250925092565b600281046001821680620001ec57607f821691505b60208210810362000226577f4e487b7100000000000000000000000000000000000000000000000000000000600052602260045260246000fd5b50919050565b601f8211156200027a576000818152602081206020601f86010481016020861015620002555750805b6020601f860104820191505b81811015620002765782815560010162000261565b5050505b505050565b81516001604060020a038111156200029b576200029b62000086565b620002b381620002ac8454620001d7565b846200022c565b602080601f831160018114620002ef5760008415620002d25750858301515b60028086026008870290910a600019041982161786555062000276565b600085815260208120601f198616915b828110156200032057888601518255948401946001909101908401620002ff565b50858210156200034157878501516008601f88160260020a60001904191681555b5050505050600202600101905550565b61126980620003616000396000f3fe608060405234801561001057600080fd5b50600436106100d35760003560e060020a9004806340c10f191161009057806395d89b411161006a57806395d89b41146101a75780639ea3c820146101af578063a9059cbb146101cf578063dd62ed3e146101e257600080fd5b806340c10f191461015f57806342966c681461017457806370a082311461018757600080fd5b806306fdde03146100d8578063095ea7b3146100f657806318160ddd1461011957806319d1997a1461013057806321e382591461013957806323b872dd1461014c575b600080fd5b6100e061020d565b6040516100ed9190610daa565b60405180910390f35b610109610104366004610e10565b61029b565b60405190151581526020016100ed565b61012260015481565b6040519081526020016100ed565b61012260005481565b610109610147366004610e3c565b610359565b61010961015a366004610e84565b610552565b61017261016d366004610e10565b610702565b005b610172610182366004610ec5565b610862565b610122610195366004610ede565b60026020526000908152604090205481565b6100e06108fa565b6101c26101bd366004610ede565b610907565b6040516100ed9190610f02565b6101096101dd366004610e10565b610cc4565b6101226101f0366004610fb3565b600360209081526000928352604080842090915290825290205481565b6004805461021a90610fec565b80601f016020809104026020016040519081016040528092919081815260200182805461024690610fec565b80156102935780601f1061026857610100808354040283529160200191610293565b820191906000526020600020905b81548152906001019060200180831161027657829003601f168201915b505050505081565b336000908152600260205260408120548211156102d65760405160e560020a62461bcd0281526004016102cd9061103f565b60405180910390fd5b336000908152600360209081526040808320600160a060020a0387168452909152812080548492906103099084906110a5565b9091555050604051828152600160a060020a0384169033907f8c5be1e5ebec7d5bd14f71427d1e84f3dd0314c0f7b2291e5b200ac8c7c3b925906020015b60405180910390a35060015b92915050565b3360009081526002602052604081205484111561038b5760405160e560020a62461bcd0281526004016102cd9061103f565b600160a060020a03851630146103e65760405160e560020a62461bcd02815260206004820152601560248201527f746f6b656e206d75737420626520746f6b656e2031000000000000000000000060448201526064016102cd565b6007546040517fdc7dbf3e000000000000000000000000000000000000000000000000000000008152336004820152600160a060020a03878116602483015260448201879052858116606483015260848201859052600092169063dc7dbf3e9060a401610120604051808303816000875af1158015610469573d6000803e3d6000fd5b505050506040513d601f19601f8201168201806040525081019061048d9190611129565b602080820151336000908152600383526040808220600160a060020a0384168352909352918220805493945090928892906104c99084906110a5565b9091555050604051868152600160a060020a0382169033907f8c5be1e5ebec7d5bd14f71427d1e84f3dd0314c0f7b2291e5b200ac8c7c3b9259060200160405180910390a37fd1fe3704bd3aa4f4974d5168e39528bbb86b19e98e5f798beea49af58df301398260405161053d9190610f02565b60405180910390a15060019695505050505050565b600160a060020a03831660009081526003602090815260408083203384529091528120548211156105ee5760405160e560020a62461bcd02815260206004820152602f60248201527f696e73756666696369656e7420616c6c6f77616e636520746f2072656369706960448201527f656e742066726f6d2073656e646572000000000000000000000000000000000060648201526084016102cd565b600160a060020a0384166000908152600260205260409020548211156106295760405160e560020a62461bcd0281526004016102cd9061103f565b600160a060020a03841660009081526003602090815260408083203384529091528120805484929061065c9084906111ca565b9091555050600160a060020a038416600090815260026020526040812080548492906106899084906111ca565b9091555050600160a060020a038316600090815260026020526040812080548492906106b69084906110a5565b9250508190555082600160a060020a031684600160a060020a0316600080516020611214833981519152846040516106f091815260200190565b60405180910390a35060019392505050565b600654600160a060020a0316331461075f5760405160e560020a62461bcd02815260206004820152600e60248201527f4e6f7420617574686f72697a656400000000000000000000000000000000000060448201526064016102cd565b6000548160015461077091906110a5565b11156107e9576040805160e560020a62461bcd0281526020600482015260248101919091527f63616e6e6f74206d696e74207468652072657175657374656420616d6f756e7460448201527f206f6620746f6b656e732c20737570706c79206c696d697420746f6f206c6f7760648201526084016102cd565b600160a060020a038216600090815260026020526040812080548392906108119084906110a5565b92505081905550806001600082825461082a91906110a5565b9091555050604051818152600160a060020a038316906000906000805160206112148339815191529060200160405180910390a35050565b336000908152600260205260409020548111156108945760405160e560020a62461bcd0281526004016102cd9061103f565b33600090815260026020526040812080548392906108b39084906111ca565b9250508190555080600160008282546108cc91906111ca565b909155505060405181815260009033906000805160206112148339815191529060200160405180910390a350565b6005805461021a90610fec565b6040805161012081018252600080825260208201819052918101829052606081018290526080810182905260a0810182905260c0810182905260e08101829052610100810191909152600082905030600160a060020a031681600160a060020a03166325be124e6040518163ffffffff1660e060020a028152600401602060405180830381865afa1580156109a0573d6000803e3d6000fd5b505050506040513d601f19601f820116820180604052508101906109c491906111dd565b600160a060020a031614610a1d5760405160e560020a62461bcd02815260206004820181905260248201527f6c697374696e672077616e7473206120646966666572656e7420746f6b656e3260448201526064016102cd565b80600160a060020a031663c4e5edcd6040518163ffffffff1660e060020a028152600401602060405180830381865afa158015610a5e573d6000803e3d6000fd5b505050506040513d601f19601f82011682018060405250810190610a8291906111fa565b336000908152600260205260409020541015610ab35760405160e560020a62461bcd0281526004016102cd9061103f565b80600160a060020a031663c4e5edcd6040518163ffffffff1660e060020a028152600401602060405180830381865afa158015610af4573d6000803e3d6000fd5b505050506040513d601f19601f82011682018060405250810190610b1891906111fa565b336000908152600360209081526040808320600160a060020a038816845290915281208054909190610b4b9084906110a5565b9250508190555082600160a060020a031633600160a060020a03167f8c5be1e5ebec7d5bd14f71427d1e84f3dd0314c0f7b2291e5b200ac8c7c3b92583600160a060020a031663c4e5edcd6040518163ffffffff1660e060020a028152600401602060405180830381865afa158015610bc8573d6000803e3d6000fd5b505050506040513d601f19601f82011682018060405250810190610bec91906111fa565b60405190815260200160405180910390a36040517f6f6ff405000000000000000000000000000000000000000000000000000000008152336004820152600090600160a060020a03831690636f6ff40590602401610120604051808303816000875af1158015610c60573d6000803e3d6000fd5b505050506040513d601f19601f82011682018060405250810190610c849190611129565b90507f4758bcd8e425945eea731ed13074c209c3176197b970b6a78b278ad015ae907881604051610cb59190610f02565b60405180910390a19392505050565b33600090815260026020526040812054821115610cf65760405160e560020a62461bcd0281526004016102cd9061103f565b3360009081526002602052604081208054849290610d159084906111ca565b9091555050600160a060020a03831660009081526002602052604081208054849290610d429084906110a5565b9091555050336000908152600360209081526040808320600160a060020a038716845290915281208054849290610d7a9084906111ca565b9091555050604051828152600160a060020a03841690339060008051602061121483398151915290602001610347565b600060208083528351808285015260005b81811015610dd757858101830151858201604001528201610dbb565b506000604082860101526040601f19601f8301168501019250505092915050565b600160a060020a0381168114610e0d57600080fd5b50565b60008060408385031215610e2357600080fd5b8235610e2e81610df8565b946020939093013593505050565b60008060008060808587031215610e5257600080fd5b8435610e5d81610df8565b9350602085013592506040850135610e7481610df8565b9396929550929360600135925050565b600080600060608486031215610e9957600080fd5b8335610ea481610df8565b92506020840135610eb481610df8565b929592945050506040919091013590565b600060208284031215610ed757600080fd5b5035919050565b600060208284031215610ef057600080fd5b8135610efb81610df8565b9392505050565b600061012082019050825182526020830151600160a060020a03808216602085015280604086015116604085015250506060830151610f4c6060840182600160a060020a03169052565b506080830151608083015260a0830151610f7160a0840182600160a060020a03169052565b5060c0830151610f8c60c0840182600160a060020a03169052565b5060e083015160e083015261010080840151610fab8285018215159052565b505092915050565b60008060408385031215610fc657600080fd5b8235610fd181610df8565b91506020830135610fe181610df8565b809150509250929050565b60028104600182168061100057607f821691505b602082108103611039577f4e487b7100000000000000000000000000000000000000000000000000000000600052602260045260246000fd5b50919050565b6020808252601e908201527f696e73756666696369656e742062616c616e636520696e2073656e6465720000604082015260600190565b7f4e487b7100000000000000000000000000000000000000000000000000000000600052601160045260246000fd5b8082018082111561035357610353611076565b604051610120810167ffffffffffffffff81118282101715611103577f4e487b7100000000000000000000000000000000000000000000000000000000600052604160045260246000fd5b60405290565b805161111481610df8565b919050565b8051801515811461111457600080fd5b6000610120828403121561113c57600080fd5b6111446110b8565b8251815261115460208401611109565b602082015261116560408401611109565b604082015261117660608401611109565b60608201526080830151608082015261119160a08401611109565b60a08201526111a260c08401611109565b60c082015260e083015160e08201526101006111bf818501611119565b908201529392505050565b8181038181111561035357610353611076565b6000602082840312156111ef57600080fd5b8151610efb81610df8565b60006020828403121561120c57600080fd5b505191905056feddf252ad1be2c89b69c2b068fc378daa952ba7f163c4a11628f55a4df523b3efa2646970667358221220a1aff72c1f2b81c6540dc4dc77b1a1f4f8ba77a9576023ea01aedf3ab497e49464736f6c63430008110033a26469706673582212200bef0096c0a7f7868d3dc3a95cc114623c4d214043a728a5b9476c67e612bf5264736f6c63430008110033",
  "immutableReferences": {},
  "source": "// SPDX-License-Identifier: MIT\npragma solidity >=0.4.22 <0.9.0;\n\nimport \"./MainToken.sol\";\nimport \"./GameContract.sol\";\nimport \"./GameContractFactory.sol\";\nimport \"./IterableMapping.sol\";\nimport \"./Models.sol\";\nimport \"@openzeppelin/contracts/utils/math/SafeMath.sol\";\nimport \"@openzeppelin/contracts/token/ERC20/IERC20.sol\";\n\ncontract HwangMarket {\n  using IterableMapping for IterableMapping.ListingsMap;\n  using SafeMath for uint256;\n  address public mainTokenAddress;\n  MainToken public mainToken;\n\n  // game contract factory is used to reduce contract build size :(\n  GameContractFactory gameFactory;\n\n  // for all activity\n  uint256 private trxId;\n\n  // for all games created\n  uint256 private gameCount;\n  mapping(uint256 => Models.GameMetadata) public gameContractRegistry;\n  mapping(address => uint256) public gameAddr2Id;\n  \n  // for all ongoing games\n  uint256 private ongoingGamesCnt; // record end of ongoing games array\n  Models.GameMetadata[] public ongoingGames;\n  mapping(uint256 => uint256) ongoingGamesId2Idx;\n\n  // for all closed games\n  Models.GameMetadata[] public closedGames;\n\n  // Activity types constant\n  string constant BetActivityType = \"BET\";\n  string constant SellActivityType = \"SELL\";\n  string constant WithdrawActivityType = \"WITHDRAW\";\n\n  mapping(address => Models.Activity[]) public playersRecords;\n\n  IterableMapping.ListingsMap private listingContracts;\n  uint256 public listingsCount;\n  \n\n  constructor() {\n    // we start counting from game 1, game id 0 is nonsense since its also default value\n    gameCount = 1;\n\n    mainToken = new MainToken();\n    mainTokenAddress = address(mainToken);\n    gameFactory = new GameContractFactory();\n  }\n\n  event GameCreated(Models.GameMetadata gameMetadata);\n  event PlayerJoinedGameEvent(address player, uint256 gameId, address gameAddr, uint8 betSide, uint256 amount);\n  event PlayerWithdrawedWinnings(address player, uint256 gameId, address gameAddr, uint8 betSide, uint256 withdrawedAmt);\n  event GameConcluded(uint256 gameId, address gameAddr, uint8 gameOutcome);\n\n  // create game contract instance\n  function createGame(uint256 resolveTime, address oracleAddr, int256 threshold, string memory tag, string memory title) public returns (address) {\n    GameContract newGame = gameFactory.createGame(address(this), resolveTime, oracleAddr, threshold); \n    address newGameAddress = address(newGame);\n    gameContractRegistry[gameCount] = Models.GameMetadata({\n      id: gameCount,\n      addr: newGameAddress,\n      tag: tag,\n      title: title,\n      oracleAddr: oracleAddr,\n      resolveTime: resolveTime,\n      threshold: threshold,\n      totalAmount: 0,\n      betYesAmount: 0,\n      betNoAmount: 0,\n      ongoing: true,\n      gameOutcome: 0\n    });\n\n    gameAddr2Id[newGameAddress] = gameCount;\n\n    ongoingGamesId2Idx[gameCount] = ongoingGamesCnt;\n    ongoingGames.push(gameContractRegistry[gameCount]);\n\n    ongoingGamesCnt = SafeMath.add(ongoingGamesCnt, 1);\n    gameCount = SafeMath.add(gameCount, 1);\n\n    emit GameCreated(gameContractRegistry[gameCount]);\n\n    return newGameAddress;\n  }\n\n  function getGameCount() public view returns (uint256) {\n    return gameCount-1; // [1, gameCount)\n  }\n\n  \n  // fetches all games\n  function getAllGames() public view returns (Models.AllGames memory) {\n    return Models.AllGames({ongoingGames: ongoingGames, closedGames: closedGames});\n  }\n\n  // creates a new listing\n  function newListing(address _player, address token1, uint256 token1Amt, address token2, uint256 token2Amt) public returns(Models.ListingInfo memory) {\n    uint256 newListingId = listingsCount;\n    ListingContract newListingContract = new ListingContract(newListingId, _player, token1, token1Amt, token2, token2Amt);\n    Models.ListingInfo memory listingInfo = Models.ListingInfo({\n      listingId: newListingId,\n      listingAddr: address(newListingContract),\n      player1: _player,\n      token1: token1,\n      token1Amt: token1Amt,\n      player2: address(0),\n      token2: token2,\n      token2Amt: token2Amt,\n      fulfilled: false\n    });\n    listingContracts.set(newListingId, listingInfo);\n\n    listingsCount++;\n    return listingInfo;\n  }\n\n  function getAllListings() external view returns (Models.ListingInfo[] memory) {\n    return listingContracts.getlistingValues();\n  }\n\n  // player joins an existing listing already posted by another player\n  // this player joining now is regarded as player2 under the listing contract\n  function partakeInListing(address _player, uint listingId) public {\n    require(listingContracts.contains(listingId), \"contract not exist\");\n    address listingAddr = listingContracts.get(listingId).listingAddr;\n    ListingContract token2Contract = ListingContract(listingAddr);\n    token2Contract.trigger(_player);\n  }\n\n  // callable only by the game itself\n  // A player joined the game on a particular side\n  function playerJoinedSide(address player, uint8 betSide, uint256 amount, uint256 timestamp) external {\n    require(gameAddr2Id[msg.sender] != 0);\n    address gameAddr = msg.sender;\n    uint256 gameId = gameAddr2Id[gameAddr];\n    Models.GameMetadata memory gameMetadata = gameContractRegistry[gameId];\n    gameMetadata.totalAmount += amount;\n    if (betSide == 2) {\n      gameMetadata.betNoAmount += amount;\n    } else {\n      gameMetadata.betYesAmount += amount;\n    }\n\n    // record this activity as well\n    playersRecords[player].push(Models.Activity({\n      trxId: trxId,\n      activityType: BetActivityType,\n      gameId: gameId,\n      trxAmt: amount,\n      trxTime: timestamp,\n      gameSide: betSide,\n      from: player,\n      to: gameAddr\n    }));\n\n    trxId = SafeMath.add(trxId, 1);\n\n    emit PlayerJoinedGameEvent(player, gameId, gameAddr, betSide, amount);\n  }\n\n  // callable only by contract\n  // note: withdraw winnings means recording player's owned game tokens -> hwang market tokens\n  function playerWithdrawWinnings(address _player, uint8 betSide, uint256 withdrawAmt, uint256 timestamp) external {\n    require(gameAddr2Id[msg.sender] != 0);\n    address gameAddr = msg.sender;\n    uint256 gameId = gameAddr2Id[gameAddr];\n    playersRecords[_player].push(Models.Activity({\n      trxId: trxId,\n      activityType: WithdrawActivityType,\n      gameId: gameId,\n      trxAmt: withdrawAmt,\n      trxTime: timestamp,\n      gameSide: betSide,\n      from: gameAddr,\n      to: _player\n    }));\n\n    trxId = SafeMath.add(trxId, 1);\n\n    emit PlayerWithdrawedWinnings(_player, gameId, gameAddr, betSide, withdrawAmt);\n  }\n\n  function concludeGame(uint8 gameOutcome) external {\n    require(gameAddr2Id[msg.sender] != 0);\n    address gameAddr = msg.sender;\n    uint256 gameId = gameAddr2Id[gameAddr];\n\n    // move game out of existing ongoing games\n    uint256 existingGameIdx = ongoingGamesId2Idx[gameId];\n    Models.GameMetadata memory finisedGame = ongoingGames[existingGameIdx];\n    Models.GameMetadata memory lastOngoingGame = ongoingGames[SafeMath.sub(ongoingGamesCnt, 1)];\n    ongoingGamesId2Idx[lastOngoingGame.id] = existingGameIdx;\n    delete ongoingGamesId2Idx[gameId];\n    ongoingGames[existingGameIdx] = lastOngoingGame;\n    ongoingGamesCnt = SafeMath.sub(ongoingGamesCnt, 1);\n\n    // // update metadata for the game\n    finisedGame.ongoing = false;\n    finisedGame.gameOutcome = gameOutcome;\n\n    gameContractRegistry[finisedGame.id].ongoing = false;\n    gameContractRegistry[finisedGame.id].gameOutcome = gameOutcome;\n\n    // add this game to array of closedGames\n    closedGames.push(finisedGame);\n\n    emit GameConcluded(gameId, gameAddr, gameOutcome);\n  }\n\n  // to get smart contract's balance\n  function getBalance() public view returns (uint256) {\n    return address(this).balance;\n  }\n}\n",
  "sourcePath": "/Users/gerald/Desktop/HwangMarket/contracts/HwangMarket.sol",
  "compiler": {
    "name": "solc",
    "version": "0.8.17+commit.8df45f5f.Emscripten.clang"
  },
  "schemaVersion": "3.4.10",
  "updatedAt": "2022-10-24T17:02:26.590Z",
  "networkType": "ethereum",
  "devdoc": {
    "kind": "dev",
    "methods": {},
    "version": 1
  },
  "userdoc": {
    "kind": "user",
    "methods": {},
    "version": 1
  }
}