{
  "contractName": "HwangMarket",
  "abi": [
    {
      "inputs": [],
      "stateMutability": "nonpayable",
      "type": "constructor"
    },
    {
      "anonymous": false,
      "inputs": [
        {
          "indexed": false,
          "internalType": "uint256",
          "name": "gameId",
          "type": "uint256"
        },
        {
          "indexed": false,
          "internalType": "address",
          "name": "gameAddr",
          "type": "address"
        },
        {
          "indexed": false,
          "internalType": "uint8",
          "name": "gameOutcome",
          "type": "uint8"
        }
      ],
      "name": "GameConcluded",
      "type": "event"
    },
    {
      "anonymous": false,
      "inputs": [
        {
          "indexed": false,
          "internalType": "address",
          "name": "gameAddr",
          "type": "address"
        }
      ],
      "name": "GameCreated",
      "type": "event"
    },
    {
      "anonymous": false,
      "inputs": [
        {
          "indexed": false,
          "internalType": "address",
          "name": "player",
          "type": "address"
        },
        {
          "indexed": false,
          "internalType": "uint256",
          "name": "gameId",
          "type": "uint256"
        },
        {
          "indexed": false,
          "internalType": "address",
          "name": "gameAddr",
          "type": "address"
        },
        {
          "indexed": false,
          "internalType": "uint8",
          "name": "betSide",
          "type": "uint8"
        },
        {
          "indexed": false,
          "internalType": "uint256",
          "name": "amount",
          "type": "uint256"
        }
      ],
      "name": "PlayerJoinedGameEvent",
      "type": "event"
    },
    {
      "inputs": [
        {
          "internalType": "uint256",
          "name": "",
          "type": "uint256"
        }
      ],
      "name": "closedGames",
      "outputs": [
        {
          "internalType": "uint256",
          "name": "id",
          "type": "uint256"
        },
        {
          "internalType": "address",
          "name": "addr",
          "type": "address"
        },
        {
          "internalType": "string",
          "name": "tag",
          "type": "string"
        },
        {
          "internalType": "string",
          "name": "title",
          "type": "string"
        },
        {
          "internalType": "address",
          "name": "oracleAddr",
          "type": "address"
        },
        {
          "internalType": "uint256",
          "name": "resolveTime",
          "type": "uint256"
        },
        {
          "internalType": "int256",
          "name": "threshold",
          "type": "int256"
        },
        {
          "internalType": "uint256",
          "name": "totalAmount",
          "type": "uint256"
        },
        {
          "internalType": "uint256",
          "name": "betYesAmount",
          "type": "uint256"
        },
        {
          "internalType": "uint256",
          "name": "betNoAmount",
          "type": "uint256"
        },
        {
          "internalType": "bool",
          "name": "ongoing",
          "type": "bool"
        },
        {
          "internalType": "uint8",
          "name": "gameOutcome",
          "type": "uint8"
        }
      ],
      "stateMutability": "view",
      "type": "function",
      "constant": true
    },
    {
      "inputs": [
        {
          "internalType": "address",
          "name": "",
          "type": "address"
        }
      ],
      "name": "gameAddr2Id",
      "outputs": [
        {
          "internalType": "uint256",
          "name": "",
          "type": "uint256"
        }
      ],
      "stateMutability": "view",
      "type": "function",
      "constant": true
    },
    {
      "inputs": [
        {
          "internalType": "uint256",
          "name": "",
          "type": "uint256"
        }
      ],
      "name": "gameContractRegistry",
      "outputs": [
        {
          "internalType": "uint256",
          "name": "id",
          "type": "uint256"
        },
        {
          "internalType": "address",
          "name": "addr",
          "type": "address"
        },
        {
          "internalType": "string",
          "name": "tag",
          "type": "string"
        },
        {
          "internalType": "string",
          "name": "title",
          "type": "string"
        },
        {
          "internalType": "address",
          "name": "oracleAddr",
          "type": "address"
        },
        {
          "internalType": "uint256",
          "name": "resolveTime",
          "type": "uint256"
        },
        {
          "internalType": "int256",
          "name": "threshold",
          "type": "int256"
        },
        {
          "internalType": "uint256",
          "name": "totalAmount",
          "type": "uint256"
        },
        {
          "internalType": "uint256",
          "name": "betYesAmount",
          "type": "uint256"
        },
        {
          "internalType": "uint256",
          "name": "betNoAmount",
          "type": "uint256"
        },
        {
          "internalType": "bool",
          "name": "ongoing",
          "type": "bool"
        },
        {
          "internalType": "uint8",
          "name": "gameOutcome",
          "type": "uint8"
        }
      ],
      "stateMutability": "view",
      "type": "function",
      "constant": true
    },
    {
      "inputs": [
        {
          "internalType": "address",
          "name": "",
          "type": "address"
        },
        {
          "internalType": "uint256",
          "name": "",
          "type": "uint256"
        }
      ],
      "name": "historicalBets",
      "outputs": [
        {
          "internalType": "uint256",
          "name": "trxId",
          "type": "uint256"
        },
        {
          "internalType": "uint256",
          "name": "gameId",
          "type": "uint256"
        },
        {
          "internalType": "uint8",
          "name": "betSide",
          "type": "uint8"
        },
        {
          "internalType": "uint256",
          "name": "amt",
          "type": "uint256"
        },
        {
          "internalType": "uint8",
          "name": "betOutcome",
          "type": "uint8"
        }
      ],
      "stateMutability": "view",
      "type": "function",
      "constant": true
    },
    {
      "inputs": [
        {
          "internalType": "address",
          "name": "",
          "type": "address"
        }
      ],
      "name": "historicalBetsSize",
      "outputs": [
        {
          "internalType": "uint256",
          "name": "",
          "type": "uint256"
        }
      ],
      "stateMutability": "view",
      "type": "function",
      "constant": true
    },
    {
      "inputs": [
        {
          "internalType": "uint256",
          "name": "",
          "type": "uint256"
        }
      ],
      "name": "historicalBetsTrxId2Idx",
      "outputs": [
        {
          "internalType": "uint256",
          "name": "",
          "type": "uint256"
        }
      ],
      "stateMutability": "view",
      "type": "function",
      "constant": true
    },
    {
      "inputs": [
        {
          "internalType": "address",
          "name": "",
          "type": "address"
        },
        {
          "internalType": "uint256",
          "name": "",
          "type": "uint256"
        }
      ],
      "name": "ongoingBets",
      "outputs": [
        {
          "internalType": "uint256",
          "name": "trxId",
          "type": "uint256"
        },
        {
          "internalType": "uint256",
          "name": "gameId",
          "type": "uint256"
        },
        {
          "internalType": "uint8",
          "name": "betSide",
          "type": "uint8"
        },
        {
          "internalType": "uint256",
          "name": "amt",
          "type": "uint256"
        },
        {
          "internalType": "uint8",
          "name": "betOutcome",
          "type": "uint8"
        }
      ],
      "stateMutability": "view",
      "type": "function",
      "constant": true
    },
    {
      "inputs": [
        {
          "internalType": "address",
          "name": "",
          "type": "address"
        }
      ],
      "name": "ongoingBetsSize",
      "outputs": [
        {
          "internalType": "uint256",
          "name": "",
          "type": "uint256"
        }
      ],
      "stateMutability": "view",
      "type": "function",
      "constant": true
    },
    {
      "inputs": [
        {
          "internalType": "uint256",
          "name": "",
          "type": "uint256"
        }
      ],
      "name": "ongoingBetsTrxId2Idx",
      "outputs": [
        {
          "internalType": "uint256",
          "name": "",
          "type": "uint256"
        }
      ],
      "stateMutability": "view",
      "type": "function",
      "constant": true
    },
    {
      "inputs": [
        {
          "internalType": "uint256",
          "name": "",
          "type": "uint256"
        }
      ],
      "name": "ongoingGames",
      "outputs": [
        {
          "internalType": "uint256",
          "name": "id",
          "type": "uint256"
        },
        {
          "internalType": "address",
          "name": "addr",
          "type": "address"
        },
        {
          "internalType": "string",
          "name": "tag",
          "type": "string"
        },
        {
          "internalType": "string",
          "name": "title",
          "type": "string"
        },
        {
          "internalType": "address",
          "name": "oracleAddr",
          "type": "address"
        },
        {
          "internalType": "uint256",
          "name": "resolveTime",
          "type": "uint256"
        },
        {
          "internalType": "int256",
          "name": "threshold",
          "type": "int256"
        },
        {
          "internalType": "uint256",
          "name": "totalAmount",
          "type": "uint256"
        },
        {
          "internalType": "uint256",
          "name": "betYesAmount",
          "type": "uint256"
        },
        {
          "internalType": "uint256",
          "name": "betNoAmount",
          "type": "uint256"
        },
        {
          "internalType": "bool",
          "name": "ongoing",
          "type": "bool"
        },
        {
          "internalType": "uint8",
          "name": "gameOutcome",
          "type": "uint8"
        }
      ],
      "stateMutability": "view",
      "type": "function",
      "constant": true
    },
    {
      "inputs": [
        {
          "internalType": "address",
          "name": "",
          "type": "address"
        },
        {
          "internalType": "uint256",
          "name": "",
          "type": "uint256"
        }
      ],
      "name": "pendingWins",
      "outputs": [
        {
          "internalType": "uint256",
          "name": "trxId",
          "type": "uint256"
        },
        {
          "internalType": "uint256",
          "name": "gameId",
          "type": "uint256"
        },
        {
          "internalType": "uint8",
          "name": "betSide",
          "type": "uint8"
        },
        {
          "internalType": "uint256",
          "name": "amt",
          "type": "uint256"
        },
        {
          "internalType": "uint8",
          "name": "betOutcome",
          "type": "uint8"
        }
      ],
      "stateMutability": "view",
      "type": "function",
      "constant": true
    },
    {
      "inputs": [
        {
          "internalType": "address",
          "name": "",
          "type": "address"
        }
      ],
      "name": "pendingWinsSize",
      "outputs": [
        {
          "internalType": "uint256",
          "name": "",
          "type": "uint256"
        }
      ],
      "stateMutability": "view",
      "type": "function",
      "constant": true
    },
    {
      "inputs": [
        {
          "internalType": "uint256",
          "name": "",
          "type": "uint256"
        }
      ],
      "name": "pendingWinsTrxId2Idx",
      "outputs": [
        {
          "internalType": "uint256",
          "name": "",
          "type": "uint256"
        }
      ],
      "stateMutability": "view",
      "type": "function",
      "constant": true
    },
    {
      "inputs": [
        {
          "internalType": "address",
          "name": "",
          "type": "address"
        },
        {
          "internalType": "uint256",
          "name": "",
          "type": "uint256"
        },
        {
          "internalType": "uint8",
          "name": "",
          "type": "uint8"
        }
      ],
      "name": "playerExistingPositions",
      "outputs": [
        {
          "internalType": "uint256",
          "name": "",
          "type": "uint256"
        }
      ],
      "stateMutability": "view",
      "type": "function",
      "constant": true
    },
    {
      "inputs": [
        {
          "internalType": "address",
          "name": "",
          "type": "address"
        },
        {
          "internalType": "uint256",
          "name": "",
          "type": "uint256"
        }
      ],
      "name": "playersRecords",
      "outputs": [
        {
          "internalType": "uint256",
          "name": "trxId",
          "type": "uint256"
        },
        {
          "internalType": "string",
          "name": "activityType",
          "type": "string"
        },
        {
          "internalType": "uint256",
          "name": "gameId",
          "type": "uint256"
        },
        {
          "internalType": "uint256",
          "name": "trxAmt",
          "type": "uint256"
        },
        {
          "internalType": "uint256",
          "name": "trxTime",
          "type": "uint256"
        },
        {
          "internalType": "uint8",
          "name": "gameSide",
          "type": "uint8"
        },
        {
          "internalType": "address",
          "name": "from",
          "type": "address"
        },
        {
          "internalType": "address",
          "name": "to",
          "type": "address"
        }
      ],
      "stateMutability": "view",
      "type": "function",
      "constant": true
    },
    {
      "stateMutability": "payable",
      "type": "receive",
      "payable": true
    },
    {
      "inputs": [
        {
          "internalType": "uint256",
          "name": "resolveTime",
          "type": "uint256"
        },
        {
          "internalType": "address",
          "name": "oracleAddr",
          "type": "address"
        },
        {
          "internalType": "int256",
          "name": "threshold",
          "type": "int256"
        },
        {
          "internalType": "string",
          "name": "tag",
          "type": "string"
        },
        {
          "internalType": "string",
          "name": "title",
          "type": "string"
        }
      ],
      "name": "createGame",
      "outputs": [
        {
          "internalType": "address",
          "name": "",
          "type": "address"
        }
      ],
      "stateMutability": "nonpayable",
      "type": "function"
    },
    {
      "inputs": [],
      "name": "getGameCount",
      "outputs": [
        {
          "internalType": "uint256",
          "name": "",
          "type": "uint256"
        }
      ],
      "stateMutability": "view",
      "type": "function",
      "constant": true
    },
    {
      "inputs": [
        {
          "internalType": "uint256",
          "name": "X",
          "type": "uint256"
        },
        {
          "internalType": "uint256",
          "name": "Y",
          "type": "uint256"
        }
      ],
      "name": "getXtoYGame",
      "outputs": [
        {
          "components": [
            {
              "internalType": "uint256",
              "name": "id",
              "type": "uint256"
            },
            {
              "internalType": "address",
              "name": "addr",
              "type": "address"
            },
            {
              "internalType": "string",
              "name": "tag",
              "type": "string"
            },
            {
              "internalType": "string",
              "name": "title",
              "type": "string"
            },
            {
              "internalType": "address",
              "name": "oracleAddr",
              "type": "address"
            },
            {
              "internalType": "uint256",
              "name": "resolveTime",
              "type": "uint256"
            },
            {
              "internalType": "int256",
              "name": "threshold",
              "type": "int256"
            },
            {
              "internalType": "uint256",
              "name": "totalAmount",
              "type": "uint256"
            },
            {
              "internalType": "uint256",
              "name": "betYesAmount",
              "type": "uint256"
            },
            {
              "internalType": "uint256",
              "name": "betNoAmount",
              "type": "uint256"
            },
            {
              "internalType": "bool",
              "name": "ongoing",
              "type": "bool"
            },
            {
              "internalType": "uint8",
              "name": "gameOutcome",
              "type": "uint8"
            }
          ],
          "internalType": "struct HwangMarket.GameMetadata[]",
          "name": "",
          "type": "tuple[]"
        }
      ],
      "stateMutability": "view",
      "type": "function",
      "constant": true
    },
    {
      "inputs": [],
      "name": "getAllGames",
      "outputs": [
        {
          "components": [
            {
              "internalType": "uint256",
              "name": "id",
              "type": "uint256"
            },
            {
              "internalType": "address",
              "name": "addr",
              "type": "address"
            },
            {
              "internalType": "string",
              "name": "tag",
              "type": "string"
            },
            {
              "internalType": "string",
              "name": "title",
              "type": "string"
            },
            {
              "internalType": "address",
              "name": "oracleAddr",
              "type": "address"
            },
            {
              "internalType": "uint256",
              "name": "resolveTime",
              "type": "uint256"
            },
            {
              "internalType": "int256",
              "name": "threshold",
              "type": "int256"
            },
            {
              "internalType": "uint256",
              "name": "totalAmount",
              "type": "uint256"
            },
            {
              "internalType": "uint256",
              "name": "betYesAmount",
              "type": "uint256"
            },
            {
              "internalType": "uint256",
              "name": "betNoAmount",
              "type": "uint256"
            },
            {
              "internalType": "bool",
              "name": "ongoing",
              "type": "bool"
            },
            {
              "internalType": "uint8",
              "name": "gameOutcome",
              "type": "uint8"
            }
          ],
          "internalType": "struct HwangMarket.GameMetadata[]",
          "name": "",
          "type": "tuple[]"
        }
      ],
      "stateMutability": "view",
      "type": "function",
      "constant": true
    },
    {
      "inputs": [
        {
          "internalType": "address",
          "name": "player",
          "type": "address"
        },
        {
          "internalType": "uint8",
          "name": "betSide",
          "type": "uint8"
        },
        {
          "internalType": "uint256",
          "name": "amount",
          "type": "uint256"
        },
        {
          "internalType": "uint256",
          "name": "timestamp",
          "type": "uint256"
        }
      ],
      "name": "playerJoinedSide",
      "outputs": [],
      "stateMutability": "nonpayable",
      "type": "function"
    },
    {
      "inputs": [
        {
          "internalType": "uint8",
          "name": "gameOutcome",
          "type": "uint8"
        }
      ],
      "name": "concludeGame",
      "outputs": [],
      "stateMutability": "nonpayable",
      "type": "function"
    },
    {
      "inputs": [
        {
          "internalType": "address",
          "name": "player",
          "type": "address"
        },
        {
          "internalType": "bool",
          "name": "onlyOpen",
          "type": "bool"
        }
      ],
      "name": "queryAllPlayersTrx",
      "outputs": [
        {
          "components": [
            {
              "components": [
                {
                  "internalType": "uint256",
                  "name": "trxId",
                  "type": "uint256"
                },
                {
                  "internalType": "uint256",
                  "name": "gameId",
                  "type": "uint256"
                },
                {
                  "internalType": "uint8",
                  "name": "betSide",
                  "type": "uint8"
                },
                {
                  "internalType": "uint256",
                  "name": "amt",
                  "type": "uint256"
                },
                {
                  "internalType": "uint8",
                  "name": "betOutcome",
                  "type": "uint8"
                }
              ],
              "internalType": "struct HwangMarket.BetInfo[]",
              "name": "ongoingBets",
              "type": "tuple[]"
            },
            {
              "components": [
                {
                  "internalType": "uint256",
                  "name": "trxId",
                  "type": "uint256"
                },
                {
                  "internalType": "uint256",
                  "name": "gameId",
                  "type": "uint256"
                },
                {
                  "internalType": "uint8",
                  "name": "betSide",
                  "type": "uint8"
                },
                {
                  "internalType": "uint256",
                  "name": "amt",
                  "type": "uint256"
                },
                {
                  "internalType": "uint8",
                  "name": "betOutcome",
                  "type": "uint8"
                }
              ],
              "internalType": "struct HwangMarket.BetInfo[]",
              "name": "winningsPending",
              "type": "tuple[]"
            },
            {
              "components": [
                {
                  "internalType": "uint256",
                  "name": "trxId",
                  "type": "uint256"
                },
                {
                  "internalType": "uint256",
                  "name": "gameId",
                  "type": "uint256"
                },
                {
                  "internalType": "uint8",
                  "name": "betSide",
                  "type": "uint8"
                },
                {
                  "internalType": "uint256",
                  "name": "amt",
                  "type": "uint256"
                },
                {
                  "internalType": "uint8",
                  "name": "betOutcome",
                  "type": "uint8"
                }
              ],
              "internalType": "struct HwangMarket.BetInfo[]",
              "name": "historicalBets",
              "type": "tuple[]"
            }
          ],
          "internalType": "struct HwangMarket.PlayerTrx",
          "name": "",
          "type": "tuple"
        }
      ],
      "stateMutability": "view",
      "type": "function",
      "constant": true
    },
    {
      "inputs": [],
      "name": "playersSwapSide",
      "outputs": [],
      "stateMutability": "nonpayable",
      "type": "function"
    }
  ],
  "bytecode": "0x608060405234801561001057600080fd5b5060018055614240806100246000396000f3fe6080604052600436106200012f5760e060020a600035046304ad465f81146200013c5780630561d0b214620001845780631083cb68146200019e57806315ea4b0014620001de578063287c240914620002325780632980a3cb14620002635780632b0f9d3c14620002975780633f863f1914620002c85780635039eb9714620002ed5780635666236814620003125780636435e81714620003465780638057235c146200036b578063829a32ef146200039c578063980673b114620003cd578063b1a167b0146200040f578063b5c2bd1c1462000434578063cf9b02141462000465578063d1f113c5146200048a578063d3eb618c14620004bb578063db1c45f914620004f6578063e005533b146200051d578063e362937d1462000542578063e87c0ee6146200056757600080fd5b366200013757005b600080fd5b3480156200014957600080fd5b50620001616200015b366004620022d2565b6200057e565b6040516200017b9c9b9a9998979695949392919062002341565b60405180910390f35b3480156200019157600080fd5b506200019c62000728565b005b348015620001ab57600080fd5b50620001cf620001bd366004620023ec565b60106020526000908152604090205481565b6040519081526020016200017b565b348015620001eb57600080fd5b5062000203620001fd3660046200240a565b6200076a565b60408051958652602086019490945260ff92831693850193909352606084015216608082015260a0016200017b565b3480156200023f57600080fd5b50620001cf62000251366004620022d2565b600e6020526000908152604090205481565b3480156200027057600080fd5b506200028862000282366004620024e5565b620007bf565b6040516200017b919062002575565b348015620002a457600080fd5b50620001cf620002b6366004620023ec565b600d6020526000908152604090205481565b348015620002d557600080fd5b5062000161620002e7366004620022d2565b62000b98565b348015620002fa57600080fd5b506200019c6200030c3660046200259b565b62000bcd565b3480156200031f57600080fd5b506200033762000331366004620025e2565b62001170565b6040516200017b919062002692565b3480156200035357600080fd5b506200016162000365366004620022d2565b6200139d565b3480156200037857600080fd5b50620001cf6200038a366004620022d2565b60116020526000908152604090205481565b348015620003a957600080fd5b50620001cf620003bb366004620023ec565b60036020526000908152604090205481565b348015620003da57600080fd5b50620001cf620003ec366004620026f9565b600860209081526000938452604080852082529284528284209052825290205481565b3480156200041c57600080fd5b50620002036200042e3660046200240a565b620013ae565b3480156200044157600080fd5b50620001cf62000453366004620022d2565b600b6020526000908152604090205481565b3480156200047257600080fd5b5062000203620004843660046200240a565b620013cb565b3480156200049757600080fd5b50620001cf620004a9366004620023ec565b600a6020526000908152604090205481565b348015620004c857600080fd5b50620004e0620004da3660046200240a565b620013e8565b6040516200017b9897969594939291906200273a565b3480156200050357600080fd5b506200050e620014f0565b6040516200017b919062002798565b3480156200052a57600080fd5b506200050e6200053c366004620028a6565b62001792565b3480156200054f57600080fd5b506200019c62000561366004620028c9565b62001a7d565b3480156200057457600080fd5b50600154620001cf565b600781815481106200058f57600080fd5b60009182526020909120600b9091020180546001820154600283018054929450600160a060020a039091169291620005c790620028e7565b80601f0160208091040260200160405190810160405280929190818152602001828054620005f590620028e7565b8015620006465780601f106200061a5761010080835404028352916020019162000646565b820191906000526020600020905b8154815290600101906020018083116200062857829003601f168201915b5050505050908060030180546200065d90620028e7565b80601f01602080910402602001604051908101604052809291908181526020018280546200068b90620028e7565b8015620006dc5780601f10620006b057610100808354040283529160200191620006dc565b820191906000526020600020905b815481529060010190602001808311620006be57829003601f168201915b50505050600483015460058401546006850154600786015460088701546009880154600a909801549697600160a060020a03909516969395509193909260ff808216916101009004168c565b6001336000908152600360205260408120549003620007675760405160e560020a62461bcd0281526004016200075e9062002921565b60405180910390fd5b50565b600f60205281600052604060002081815481106200078757600080fd5b60009182526020909120600590910201805460018201546002830154600384015460049094015492955090935060ff90811692911685565b60008030878787604051620007d4906200224c565b600160a060020a0394851681526020810193909352921660408201526060810191909152608001604051809103906000f08015801562000818573d6000803e3d6000fd5b5090506000819050604051806101800160405280600154815260200182600160a060020a0316815260200186815260200185815260200188600160a060020a03168152602001898152602001878152602001600081526020016000815260200160008152602001600115158152602001600060ff168152506002600060015481526020019081526020016000206000820151816000015560208201518160010160006101000a815481600160a060020a030219169083600160a060020a031602179055506040820151816002019081620008f39190620029bd565b50606082015160038201906200090a9082620029bd565b50608082015160048281018054600160a060020a0319908116600160a060020a039485161790915560a085015160058086019190915560c086015160068087019190915560e087015160078701556101008088015160088801556101208801516009880155610140880151600a90970180546101609099015161ffff1990991697151561ff0019169790971760ff909816029690961790945560018054878516600090815260036020908152604080832084905595549282529788528481209190915581548152600296879052928320855480830187559590935282547f036b6384b5eca791c62761152d0c79bb0604c104a5fb6f4eb0703f3154bb3db0600b909602958601908155908301547f036b6384b5eca791c62761152d0c79bb0604c104a5fb6f4eb0703f3154bb3db186018054919095169216919091179092559290917f036b6384b5eca791c62761152d0c79bb0604c104a5fb6f4eb0703f3154bb3db2019062000a7d9084018262002a87565b5060038181019062000a929084018262002a87565b506004828101548282018054600160a060020a031916600160a060020a039092169190911790556005808401549083015560068084015490830155600780840154908301556008808401549083015560098084015490830155600a928301805493909201805460ff948516151560ff1982168117835593546101009081900490951690940261ff001990931661ffff1990941693909317919091179091555462000b3e90600162002229565b6004556001805462000b509162002229565b6001556040517f4f0d1d413a983b9df8ab6ab954635b186a1e9a09ee6dc1b43263ddbf484122679062000b8590839062002575565b60405180910390a1979650505050505050565b60026020819052600091825260409091208054600182015492820180549193600160a060020a03169291620005c790620028e7565b600133600090815260036020526040812054900362000c035760405160e560020a62461bcd0281526004016200075e9062002921565b336000818152600360209081526040808320548084526002808452828520835161018081018552815481526001820154600160a060020a03169581019590955290810180549295949391929184019162000c5d90620028e7565b80601f016020809104026020016040519081016040528092919081815260200182805462000c8b90620028e7565b801562000cdc5780601f1062000cb05761010080835404028352916020019162000cdc565b820191906000526020600020905b81548152906001019060200180831162000cbe57829003601f168201915b5050505050815260200160038201805462000cf790620028e7565b80601f016020809104026020016040519081016040528092919081815260200182805462000d2590620028e7565b801562000d765780601f1062000d4a5761010080835404028352916020019162000d76565b820191906000526020600020905b81548152906001019060200180831162000d5857829003601f168201915b50505091835250506004820154600160a060020a03166020820152600582015460408201526006820154606082015260078201546080820152600882015460a0820152600982015460c0820152600a9091015460ff808216151560e08085019190915261010092839004909116919092015281018051919250879162000dfe90839062002b88565b90525060ff871660020362000e2b5785816101200181815162000e22919062002b88565b90525062000e44565b85816101000181815162000e40919062002b88565b9052505b600160a060020a0388166000908152600860209081526040808320858452825280832060ff8b1684529091528120805488929062000e8490849062002b88565b92505081905550600a600089600160a060020a0316600160a060020a0316815260200190815260200160002054600b600080548152602001908152602001600020819055506009600089600160a060020a0316600160a060020a031681526020019081526020016000206040518060a0016040528060005481526020018481526020018960ff168152602001888152602001600060ff168152509080600181540180825580915050600190039060005260206000209060050201600090919091909150600082015181600001556020820151816001015560408201518160020160006101000a81548160ff021916908360ff1602179055506060820151816003015560808201518160040160006101000a81548160ff021916908360ff160217905550505062000fdb600a60008a600160a060020a0316600160a060020a0316815260200190815260200160002054600162002229565b600160a060020a0389166000818152600a60209081526040808320949094556012815283822084516101008101865283548152855180870187526003815260ea60020a621091550281850152818401908152958101889052606081018c9052608081018b905260ff8d1660a08201523060c082015260e0810194909452805460018181018355918452919092208351600790920201908155925191929190820190620010889082620029bd565b5060408201516002820155606082015160038201556080820151600482015560a082015160058201805460c085015160ff909316600160a860020a031990911617610100600160a060020a039384160217905560e09092015160069091018054600160a060020a031916919092161790556000546200110990600162002229565b60005560408051600160a060020a038a811682526020820185905285168183015260ff891660608201526080810188905290517f60f0179549292c7191bafdb03407a3080ad6bbb9354055fb0dba51a90dcead179181900360a00190a15050505050505050565b6200119560405180606001604052806060815260200160608152602001606081525090565b60408051600160a060020a0385166000908152600960209081528382208054608092810285018301909552606084018581529394859493919290919085015b828210156200123e5760008481526020908190206040805160a081018252600586029092018054835260018082015484860152600282015460ff908116938501939093526003820154606085015260049091015490911660808301529083529092019101620011d4565b50505090825250600160a060020a0385166000908152600c602090815260408083208054825181850281018501909352808352948301949193909284015b82821015620012e65760008481526020908190206040805160a081018252600586029092018054835260018082015484860152600282015460ff9081169385019390935260038201546060850152600490910154909116608083015290835290920191016200127c565b50505090825250600160a060020a0385166000908152600f602090815260408083208054825181850281018501909352808352948301949193909284015b828210156200138e5760008481526020908190206040805160a081018252600586029092018054835260018082015484860152600282015460ff90811693850193909352600382015460608501526004909101549091166080830152908352909201910162001324565b50505091525090505b92915050565b600581815481106200058f57600080fd5b600c60205281600052604060002081815481106200078757600080fd5b600960205281600052604060002081815481106200078757600080fd5b601260205281600052604060002081815481106200140557600080fd5b9060005260206000209060070201600091509150508060000154908060010180546200143190620028e7565b80601f01602080910402602001604051908101604052809291908181526020018280546200145f90620028e7565b8015620014b05780601f106200148457610100808354040283529160200191620014b0565b820191906000526020600020905b8154815290600101906020018083116200149257829003601f168201915b505050600284015460038501546004860154600587015460069097015495969295919450925060ff821691600160a060020a036101009091048116911688565b606060006001805462001504919062002b9e565b6001604060020a038111156200151e576200151e62002437565b6040519080825280602002602001820160405280156200155b57816020015b620015476200225a565b8152602001906001900390816200153d5790505b50905060015b60015481116200178c57600260006200157c60018462002b9e565b81526020808201929092526040908101600020815161018081018352815481526001820154600160a060020a0316938101939093526002810180549192840191620015c790620028e7565b80601f0160208091040260200160405190810160405280929190818152602001828054620015f590620028e7565b8015620016465780601f106200161a5761010080835404028352916020019162001646565b820191906000526020600020905b8154815290600101906020018083116200162857829003601f168201915b505050505081526020016003820180546200166190620028e7565b80601f01602080910402602001604051908101604052809291908181526020018280546200168f90620028e7565b8015620016e05780601f10620016b457610100808354040283529160200191620016e0565b820191906000526020600020905b815481529060010190602001808311620016c257829003601f168201915b50505091835250506004820154600160a060020a03166020820152600582015460408201526006820154606082015260078201546080820152600882015460a0820152600982015460c0820152600a9091015460ff808216151560e08401526101009182900416910152826200175860018462002b9e565b815181106200176b576200176b62002bb4565b60200260200101819052508080620017839062002bce565b91505062001561565b50919050565b606081831115620017e95760405160e560020a62461bcd02815260206004820152601a60248201527f582063616e6e6f742062652067726561746572207468616e205900000000000060448201526064016200075e565b6000620017f7848462002b9e565b6200180490600162002b88565b6001604060020a038111156200181e576200181e62002437565b6040519080825280602002602001820160405280156200185b57816020015b620018476200225a565b8152602001906001900390816200183d5790505b509050835b83811162001a7557600081815260026020818152604092839020835161018081018552815481526001820154600160a060020a03169281019290925291820180549193840191620018b190620028e7565b80601f0160208091040260200160405190810160405280929190818152602001828054620018df90620028e7565b8015620019305780601f10620019045761010080835404028352916020019162001930565b820191906000526020600020905b8154815290600101906020018083116200191257829003601f168201915b505050505081526020016003820180546200194b90620028e7565b80601f01602080910402602001604051908101604052809291908181526020018280546200197990620028e7565b8015620019ca5780601f106200199e57610100808354040283529160200191620019ca565b820191906000526020600020905b815481529060010190602001808311620019ac57829003601f168201915b50505091835250506004820154600160a060020a03166020820152600582015460408201526006820154606082015260078201546080820152600882015460a0820152600982015460c0820152600a9091015460ff808216151560e084015261010091829004169101528262001a41878462002b9e565b8151811062001a545762001a5462002bb4565b6020026020010181905250808062001a6c9062002bce565b91505062001860565b509392505050565b600133600090815260036020526040812054900362001ab35760405160e560020a62461bcd0281526004016200075e9062002921565b33600081815260036020908152604080832054808452600690925282205460058054929391928390811062001aec5762001aec62002bb4565b90600052602060002090600b020160405180610180016040529081600082015481526020016001820160009054906101000a9004600160a060020a0316600160a060020a0316600160a060020a0316815260200160028201805462001b5190620028e7565b80601f016020809104026020016040519081016040528092919081815260200182805462001b7f90620028e7565b801562001bd05780601f1062001ba45761010080835404028352916020019162001bd0565b820191906000526020600020905b81548152906001019060200180831162001bb257829003601f168201915b5050505050815260200160038201805462001beb90620028e7565b80601f016020809104026020016040519081016040528092919081815260200182805462001c1990620028e7565b801562001c6a5780601f1062001c3e5761010080835404028352916020019162001c6a565b820191906000526020600020905b81548152906001019060200180831162001c4c57829003601f168201915b5050509183525050600482810154600160a060020a0316602083015260058084015460408401526006840154606084015260078401546080840152600884015460a0840152600984015460c0840152600a9093015460ff808216151560e085015261010091829004169201919091525491925060009162001ced9060016200223e565b8154811062001d005762001d0062002bb4565b90600052602060002090600b020160405180610180016040529081600082015481526020016001820160009054906101000a9004600160a060020a0316600160a060020a0316600160a060020a0316815260200160028201805462001d6590620028e7565b80601f016020809104026020016040519081016040528092919081815260200182805462001d9390620028e7565b801562001de45780601f1062001db85761010080835404028352916020019162001de4565b820191906000526020600020905b81548152906001019060200180831162001dc657829003601f168201915b5050505050815260200160038201805462001dff90620028e7565b80601f016020809104026020016040519081016040528092919081815260200182805462001e2d90620028e7565b801562001e7e5780601f1062001e525761010080835404028352916020019162001e7e565b820191906000526020600020905b81548152906001019060200180831162001e6057829003601f168201915b50505091835250506004820154600160a060020a0316602080830191909152600580840154604080850191909152600680860154606086015260078601546080860152600886015460a0860152600986015460c0860152600a9095015460ff808216151560e08701526101009182900416940193909352845160009081529390915281832087905587835290822091909155805491925082918590811062001f2a5762001f2a62002bb4565b60009182526020918290208351600b929092020190815590820151600182018054600160a060020a031916600160a060020a039092169190911790556040820151600282019062001f7c9082620029bd565b506060820151600382019062001f939082620029bd565b50608082015160048281018054600160a060020a031916600160a060020a039093169290921790915560a0830151600583015560c0830151600683015560e083015160078301556101008084015160088401556101208401516009840155610140840151600a90930180546101609095015161ffff1990951693151561ff0019169390931760ff9094160292909217905554620020329060016200223e565b6004556000610140830181905260ff8816610160840181905283518252600260209081526040808420600a908101805460ff191690558651855281852001805461ff0019166101009094029390931790925560078054600181018255935284517fa66cc928b5edb82af9bd49922954155ab7b0942694bea4ce44661d9a8736c688600b909402938401908155908501517fa66cc928b5edb82af9bd49922954155ab7b0942694bea4ce44661d9a8736c68984018054600160a060020a031916600160a060020a039092169190911790559084015184927fa66cc928b5edb82af9bd49922954155ab7b0942694bea4ce44661d9a8736c68a0190620021379082620029bd565b50606082015160038201906200214e9082620029bd565b506080820151600482018054600160a060020a031916600160a060020a0392831617905560a0830151600583015560c0830151600683015560e083015160078301556101008084015160088401556101208401516009840155610140840151600a90930180546101609095015161ffff1990951693151561ff0019169390931760ff94851690910217909155604080518781529188166020830152918916918101919091527f6997c325fd49bb5c188e78d03aee9a56052bffb3dcecb7d89cad3946cfc9b1909060600160405180910390a150505050505050565b600062002237828462002b88565b9392505050565b600062002237828462002b9e565b6116208062002beb83390190565b604051806101800160405280600081526020016000600160a060020a0316815260200160608152602001606081526020016000600160a060020a031681526020016000815260200160008152602001600081526020016000815260200160008152602001600015158152602001600060ff1681525090565b600060208284031215620022e557600080fd5b5035919050565b600160a060020a03169052565b6000815180845260005b81811015620023215760208185018101518683018201520162002303565b506000602082860101526020601f19601f83011685010191505092915050565b8c8152600160a060020a038c81166020830152610180604083018190526000916200236f8483018f620022f9565b9150838203606085015262002385828e620022f9565b9b166080840152505060a081019790975260c087019590955260e0860193909352610100850191909152610120840152151561014083015260ff1661016090910152949350505050565b8035600160a060020a0381168114620023e757600080fd5b919050565b600060208284031215620023ff57600080fd5b6200223782620023cf565b600080604083850312156200241e57600080fd5b6200242983620023cf565b946020939093013593505050565b60e060020a634e487b710260009081526041600452602490fd5b600082601f8301126200246357600080fd5b81356001604060020a038082111562002480576200248062002437565b604051601f8301601f19908116603f01168101908282118183101715620024ab57620024ab62002437565b81604052838152866020858801011115620024c557600080fd5b836020870160208301376000602085830101528094505050505092915050565b600080600080600060a08688031215620024fe57600080fd5b853594506200251060208701620023cf565b93506040860135925060608601356001604060020a03808211156200253457600080fd5b6200254289838a0162002451565b935060808801359150808211156200255957600080fd5b50620025688882890162002451565b9150509295509295909350565b600160a060020a0391909116815260200190565b803560ff81168114620023e757600080fd5b60008060008060808587031215620025b257600080fd5b620025bd85620023cf565b9350620025cd6020860162002589565b93969395505050506040820135916060013590565b60008060408385031215620025f657600080fd5b6200260183620023cf565b9150602083013580151581146200261757600080fd5b809150509250929050565b600081518084526020808501945080840160005b838110156200268757815180518852838101518489015260408082015160ff908116918a0191909152606080830151908a0152608091820151169088015260a0909601959082019060010162002636565b509495945050505050565b602081526000825160606020840152620026b0608084018262002622565b90506020840151601f1980858403016040860152620026d0838362002622565b9250604086015191508085840301606086015250620026f0828262002622565b95945050505050565b6000806000606084860312156200270f57600080fd5b6200271a84620023cf565b925060208401359150620027316040850162002589565b90509250925092565b60006101008a8352806020840152620027568184018b620022f9565b604084019990995250506060810195909552608085019390935260ff9190911660a0840152600160a060020a0390811660c08401521660e09091015292915050565b60208082528251828201819052600091906040908185019080840286018301878501865b838110156200289857603f1989840301855281516101808151855288820151620027e98a870182620022ec565b508782015181898701526200280182870182620022f9565b915050606080830151868303828801526200281d8382620022f9565b925050506080808301516200283582880182620022ec565b505060a0828101519086015260c0808301519086015260e0808301519086015261010080830151908601526101208083015190860152610140808301511515908601526101609182015160ff1691909401529386019390860190600101620027bc565b509098975050505050505050565b60008060408385031215620028ba57600080fd5b50508035926020909101359150565b600060208284031215620028dc57600080fd5b620022378262002589565b600281046001821680620028fc57607f821691505b6020821081036200178c5760e060020a634e487b710260009081526022600452602490fd5b6020808252601590820152605860020a746e6f742061207265636f676e697365642067616d6502604082015260600190565b601f821115620029a1576000818152602081206020601f860104810160208610156200297c5750805b6020601f860104820191505b818110156200299d5782815560010162002988565b5050505b505050565b6002808302600893909302900a6000190419161790565b81516001604060020a03811115620029d957620029d962002437565b620029f181620029ea8454620028e7565b8462002953565b602080601f83116001811462002a25576000841562002a105750858301515b62002a1c8582620029a6565b8655506200299d565b600085815260208120601f198616915b8281101562002a565788860151825594840194600190910190840162002a35565b508582101562002a7757878501516008601f88160260020a60001904191681555b5050505050600202600101905550565b81810362002a93575050565b62002a9f8254620028e7565b6001604060020a0381111562002ab95762002ab962002437565b62002aca81620029ea8454620028e7565b6000601f82116001811462002afd576000831562002ae85750848201545b62002af48482620029a6565b85555062002b67565b600085815260209020601f19841690600086815260209020845b8381101562002b39578286015482556001958601959091019060200162002b17565b508583101562002b5a57818501546008601f88160260020a60001904191681555b5050506001600284020184555b5050505050565b60e060020a634e487b710260009081526011600452602490fd5b8082018082111562001397576200139762002b6e565b8181038181111562001397576200139762002b6e565b60e060020a634e487b710260009081526032600452602490fd5b60006001820162002be35762002be362002b6e565b506001019056fe608060405234801561001057600080fd5b5060405161162038038061162083398101604081905261002f91610096565b60008054600a8054600160a060020a03978816600160a060020a03199182168117909255600196909655600160b060020a031990911617905560078054909316919093161790556002556100df565b600160a060020a038116811461009357600080fd5b50565b600080600080608085870312156100ac57600080fd5b84516100b78161007e565b6020860151604087015191955093506100cf8161007e565b6060959095015193969295505050565b611532806100ee6000396000f3fe6080604052600436106100e05760e060020a600035046302d05d3f81146100ec578063053a2cfb1461012957806312065fe0146101575780631486d611146101755780631746bd1b146101a2578063200d2ed2146101e85780633618d3431461021657806342cde4e8146102465780636e4d243a1461025c5780637256eba4146102735780637a576ab3146102865780638e15f473146102b35780639260b33f146102c85780639b2900ed146102e8578063d270e7ab14610318578063e2cb747d14610338578063f91c2cbc14610358578063f92a9e091461037a57600080fd5b366100e757005b600080fd5b3480156100f857600080fd5b5060005461010c90600160a060020a031681565b604051600160a060020a0390911681526020015b60405180910390f35b34801561013557600080fd5b5060005461014a9060a860020a900460ff1681565b6040516101209190611068565b34801561016357600080fd5b5030315b604051908152602001610120565b34801561018157600080fd5b5061016761019036600461107c565b60066020526000908152604090205481565b3480156101ae57600080fd5b5060005460015460025460405161012093600160a060020a0381169360ff60a060020a830481169460a860020a90930416929091906110b7565b3480156101f457600080fd5b506000546102099060a060020a900460ff1681565b60405161012091906110f6565b34801561022257600080fd5b5061014a61023136600461111e565b60036020526000908152604090205460ff1681565b34801561025257600080fd5b5061016760025481565b34801561026857600080fd5b50610271610390565b005b610271610281366004611151565b61051a565b34801561029257600080fd5b506101676102a136600461111e565b60046020526000908152604090205481565b3480156102bf57600080fd5b506101676109f9565b3480156102d457600080fd5b506102716102e336600461111e565b610a81565b3480156102f457600080fd5b5061020961030336600461111e565b60056020526000908152604090205460ff1681565b34801561032457600080fd5b50600a5461010c90600160a060020a031681565b34801561034457600080fd5b5061016761035336600461118f565b610e97565b34801561036457600080fd5b5061036d610ee8565b60405161012091906111aa565b34801561038657600080fd5b5061016760015481565b6001544210156103ea5760405160e560020a62461bcd02815260206004820181905260248201527f67616d65206973206e6f7420726561647920746f206265207265736f6c76656460448201526064015b60405180910390fd5b600160005460a060020a900460ff16600181111561040a5761040a61103a565b036104565760405160e560020a62461bcd0281526020600482015260166024820152605260020a7519d85b59481a5cc8185b1c9958591e4818db1bdcd9590260448201526064016103e1565b6000805460a060020a60ff02191660a060020a17905560028054819061047a6109f9565b12610486575060019050805b6000805483919060a860020a60ff02191660a860020a8360028111156104ae576104ae61103a565b0217905550600a5460405160e060020a63e362937d02815260ff83166004820152600160a060020a039091169063e362937d90602401600060405180830381600087803b1580156104fe57600080fd5b505af1158015610512573d6000803e3d6000fd5b505050505050565b600083600160a060020a0316313411156105795760405160e560020a62461bcd02815260206004820152601e60248201527f596f7520646f206e6f74206861766520656e6f7567682062616c616e6365000060448201526064016103e1565b600160a060020a03841633146105cd5760405160e560020a62461bcd0281526020600482015260136024820152606960020a7224b73b30b634b2102a3930b739b0b1ba34b7b70260448201526064016103e1565b8234146106365760405160e560020a62461bcd02815260206004820152602b60248201527f4d73672076616c7565206e6f7420657175616c20746f2065746820616d6f756e604482015260aa60020a6a1d081cdc1958da599a59590260648201526084016103e1565b6000805460a060020a900460ff1660018111156106555761065561103a565b146106b95760405160e560020a62461bcd02815260206004820152602860248201527f47616d6520697320636c6f7365642c206e6f2066757274686572206265747320604482015260c260020a671858d8d95c1d19590260648201526084016103e1565b8160ff16600114806106ce57508160ff166002145b61071d5760405160e560020a62461bcd02815260206004820152601a60248201527f6265742073696465206973206e6f74207265636f676e6973656400000000000060448201526064016103e1565b6001544211156107805760405160e560020a62461bcd02815260206004820152602260248201527f63616e6e6f74207075742062657473206166746572207265736f6c7665207469604482015260f060020a616d650260648201526084016103e1565b600160a060020a0384166000908152600460205260409020349055600260ff83166001036107ac575060015b600160a060020a0385166000908152600360205260409020805482919060ff191660018360028111156107e1576107e161103a565b021790555083600660008360028111156107fd576107fd61103a565b600281111561080e5761080e61103a565b8152602001908152602001600020600082825461082b91906112c4565b90915550506040805160e0810182526009548152815180830183526003815260ea60020a6210915502602082810191909152820190815291810186905242606082015260ff851660808201523060a0820152600160a060020a03871660c082015260088054600181018255600091909152815160069091027ff3f7a9fe364faab93b216da50a3214154f22a0a2b415b23a84c8169e8b636ee381019182559251919290917ff3f7a9fe364faab93b216da50a3214154f22a0a2b415b23a84c8169e8b636ee4909101906108fe908261137a565b506040820151600282015560608201516003820155608082015160048201805460a085015160ff909316600160a860020a031990911617610100600160a060020a039384160217905560c09092015160059091018054600160a060020a03191691909216179055600980549060006109758361143f565b9091555050600a5460405160e060020a635039eb97028152600160a060020a03878116600483015260ff861660248301526044820187905242606483015290911690635039eb9790608401600060405180830381600087803b1580156109da57600080fd5b505af11580156109ee573d6000803e3d6000fd5b505050505050505050565b600080600760009054906101000a9004600160a060020a0316600160a060020a031663feaf968c6040518163ffffffff1660e060020a02815260040160a060405180830381865afa158015610a52573d6000803e3d6000fd5b505050506040513d601f19601f82011682018060405250810190610a76919061146f565b509195945050505050565b33600160a060020a03821614610ae95760405160e560020a62461bcd02815260206004820152602160248201527f63616e6e6f74207769746864726177206f6e20736f6d656f6e6520626568616c604482015260f960020a60330260648201526084016103e1565b33600090815260046020526040902054610b485760405160e560020a62461bcd02815260206004820152601e60248201527f706c61796572206d75737420686176652062657420736f6d657468696e67000060448201526064016103e1565b600160005460a060020a900460ff166001811115610b6857610b6861103a565b14610bb45760405160e560020a62461bcd0281526020600482015260166024820152605260020a7519d85b59481a5cc81b9bdd081e595d0818db1bdcd9590260448201526064016103e1565b600160a060020a03811660009081526003602052604090205460ff166002811115610be157610be161103a565b60005460a860020a900460ff166002811115610bff57610bff61103a565b14610c4f5760405160e560020a62461bcd02815260206004820152601e60248201527f706c61796572206d757374206265206f6e2077696e6e696e672073696465000060448201526064016103e1565b6000805460a860020a900460ff166002811115610c6e57610c6e61103a565b03610cbe5760405160e560020a62461bcd02815260206004820152601e60248201527f67616d65206f7574636f6d652063616e6e6f7420626520756e6b6e6f776e000060448201526064016103e1565b600160a060020a03811660009081526005602052604081205460ff166001811115610ceb57610ceb61103a565b03610d4c5760405160e560020a62461bcd02815260206004820152602560248201527f706c617965722068617320616c72656164792077697468647261776e2077696e604482015260d860020a646e696e67730260648201526084016103e1565b60028060005460a860020a900460ff166002811115610d6d57610d6d61103a565b03610d76575060015b600060066000836002811115610d8e57610d8e61103a565b6002811115610d9f57610d9f61103a565b815260200190815260200160002054600660008060159054906101000a900460ff166002811115610dd257610dd261103a565b6002811115610de357610de361103a565b81526020808201929092526040908101600090812054600160a060020a038816825260049093522054610e1691906114bf565b610e2091906114e5565b600160a060020a038416600081815260046020526040902054919250906108fc90610e4b90846112c4565b6040518115909202916000818181858888f19350505050158015610e73573d6000803e3d6000fd5b505050600160a060020a03166000908152600560205260409020805460ff19169055565b6000600260ff8316600103610eaa575060015b60066000826002811115610ec057610ec061103a565b6002811115610ed157610ed161103a565b815260200190815260200160002054915050919050565b60606008805480602002602001604051908101604052809291908181526020016000905b8282101561102457838290600052602060002090600602016040518060e001604052908160008201548152602001600182018054610f49906112f1565b80601f0160208091040260200160405190810160405280929190818152602001828054610f75906112f1565b8015610fc25780601f10610f9757610100808354040283529160200191610fc2565b820191906000526020600020905b815481529060010190602001808311610fa557829003601f168201915b5050509183525050600282015460208083019190915260038301546040830152600483015460ff81166060840152600160a060020a036101009091048116608084015260059093015490921660a0909101529082526001929092019101610f0c565b50505050905090565b600160a060020a03169052565b60e060020a634e487b710260009081526021600452602490fd5b600381106110645761106461103a565b9052565b602081016110768284611054565b92915050565b60006020828403121561108e57600080fd5b81356003811061109d57600080fd5b9392505050565b600281106110b4576110b461103a565b50565b600160a060020a038616815260a081016110d0866110a4565b8560208301526110e36040830186611054565b6060820193909352608001529392505050565b60208101611103836110a4565b91905290565b600160a060020a03811681146110b457600080fd5b60006020828403121561113057600080fd5b813561109d81611109565b803560ff8116811461114c57600080fd5b919050565b60008060006060848603121561116657600080fd5b833561117181611109565b9250602084013591506111866040850161113b565b90509250925092565b6000602082840312156111a157600080fd5b61109d8261113b565b6020808252825182820181905260009190604090818501908084028601830187850186805b8481101561129b57603f198a8503018652825160e08151865289820151818b880152805180838901528592505b8083101561121b578183018c01518884016101000152918b01916111fc565b61010092508583828a0101528a8401518b8901526060915081840151828901526080915081840151611251838a018260ff169052565b5060a0915081840151611266838a018261102d565b5060c09384015193915061127c8883018561102d565b988b0198601f01601f19169690960101945050918701916001016111cf565b50919998505050505050505050565b60e060020a634e487b710260009081526011600452602490fd5b80820180821115611076576110766112aa565b60e060020a634e487b710260009081526041600452602490fd5b60028104600182168061130557607f821691505b6020821081036113295760e060020a634e487b710260009081526022600452602490fd5b50919050565b601f821115611375576000818152602081206020601f860104810160208610156113565750805b6020601f860104820191505b8181101561051257828155600101611362565b505050565b81516001604060020a03811115611393576113936112d7565b6113a7816113a184546112f1565b8461132f565b602080601f8311600181146113e057600084156113c45750858301515b60028086026008870290910a6000190419821617865550610512565b600085815260208120601f198616915b8281101561140f578886015182559484019460019091019084016113f0565b508582101561142f57878501516008601f88160260020a60001904191681555b5050505050600202600101905550565b600060018201611451576114516112aa565b5060010190565b80516001605060020a038116811461114c57600080fd5b600080600080600060a0868803121561148757600080fd5b61149086611458565b94506020860151935060408601519250606086015191506114b360808701611458565b90509295509295909350565b6000826114e05760e060020a634e487b710260009081526012600452602490fd5b500490565b8082028115828204841417611076576110766112aa56fea264697066735822122014a2cb24b892bfb9d8f9c112d28b22d0d87fc329207c71680bcfdca825a004f064736f6c63430008110033a2646970667358221220e34b55f87f9ac6491d8d2a01e994fbbaa9d0f12123740a159c9481194005f18a64736f6c63430008110033",
  "immutableReferences": {},
  "source": "// SPDX-License-Identifier: MIT\npragma solidity >=0.4.22 <0.9.0;\n\nimport \"./GameContract.sol\";\nimport \"@openzeppelin/contracts/utils/math/SafeMath.sol\";\n\ncontract HwangMarket {\n  using SafeMath for uint256;\n\n  struct GameMetadata {\n    uint256 id;\n    address addr;\n    string tag;\n    string title;\n    address oracleAddr;\n    uint256 resolveTime;\n    int256 threshold;\n\n    uint256 totalAmount;\n    uint256 betYesAmount;\n    uint256 betNoAmount;\n    bool ongoing;\n    uint8 gameOutcome;\n  }\n\n  // for all activity\n  uint256 private trxId;\n\n  // for all games created\n  uint256 private gameCount;\n  mapping(uint256 => GameMetadata) public gameContractRegistry;\n  mapping(address => uint256) public gameAddr2Id;\n  \n  // for all ongoing games\n  uint256 private ongoingGamesCnt; // record end of ongoing games array\n  GameMetadata[] public ongoingGames;\n  mapping(uint256 => uint256) ongoingGamesId2Idx;\n\n  // for all closed games\n  GameMetadata[] public closedGames;\n\n  struct GameSideAndAmount {\n    uint8 side;\n    uint256 amt;\n  }\n\n  // Activity types constant\n  string constant BetActivityType = \"BET\";\n  string constant SellActivityType = \"SELL\";\n  string constant WithdrawActivityType = \"WITHDRAW\";\n\n  // keep track of players' address bet on what game and their bet amount, and side\n  // we keep such a mapping instead of delegating it to the game contract\n  // to support more efficient lookup + since reads are more common than writes\n  // we will stand to gain from gas free view calls to read this mapping from outside the chain\n  // than to call a view function from main contract to game contract which costs gas\n  // Also, note: players are able to play on both sides if they wish, and are allowed to bet more if they wish\n  // but are not allowed to \"cancel\" bets unless they \"sell\" to other players\n  // {player_address -> game_id -> betSide -> amount}\n  mapping(address => mapping(uint256 => mapping(uint8 => uint256))) public playerExistingPositions;\n\n  // Also, it might prove to be useful to be able to support efficient queries \n  // for player's ongoing bets, pending wins to claim and historical bets\n  // The following data structure are meant to faciliatate such queries.\n  struct BetInfo {\n    uint256 trxId;\n    uint256 gameId;\n    uint8 betSide; // 1 - YES, 2 - NO\n    uint256 amt;\n\n    uint8 betOutcome; // 0 - UNKNOWN, 1 - YES, 2 - NO\n  }\n  // record all ongoing bets for a player\n  mapping(address => BetInfo[]) public ongoingBets;\n  // pointer to mark end of BetInfo[] to support efficient deletion of items in array\n  // For example, we can simply replace the last item in betInfo to replace the item to delete\n  // and simply shrink this pointer, of course, readjusting the last item's index to now be the deleted index\n  mapping(address => uint256) public ongoingBetsSize; \n  mapping(uint256 => uint256) public ongoingBetsTrxId2Idx; // map game_id -> idx\n\n  // record all pendingWin bets for a player, same idea as above\n  mapping(address => BetInfo[]) public pendingWins;\n  mapping(address => uint256) public pendingWinsSize;\n  mapping(uint256 => uint256) public pendingWinsTrxId2Idx;\n\n  // record all historical bets for a player, same idea as above\n  mapping(address => BetInfo[]) public historicalBets;\n  mapping(address => uint256) public historicalBetsSize;\n  mapping(uint256 => uint256) public historicalBetsTrxId2Idx;\n\n  // Additionally, we want to keep a record of all player's movements on chain.\n  // That is, we want to record everytime a player bets (buys a position), or sells his position (and to who), or withdraws his winnings\n  struct Activity {\n    // Common fields\n    uint256 trxId;\n    string activityType;  // \"BET\", \"SELL\", \"WITHDRAW\"\n    uint256 gameId;\n    uint256 trxAmt;\n    uint256 trxTime; // when the trx was initiated\n    uint8 gameSide; // 1 - YES, 2 - NO\n    address from;\n    address to;\n  }\n  mapping(address => Activity[]) public playersRecords;\n  \n\n  constructor() {\n    // we start counting from game 1, game id 0 is nonsense since its also default value\n    gameCount = 1;\n  }\n\n  event GameCreated(address gameAddr);\n  event PlayerJoinedGameEvent(address player, uint256 gameId, address gameAddr, uint8 betSide, uint256 amount);\n  event GameConcluded(uint256 gameId, address gameAddr, uint8 gameOutcome);\n\n  // create game contract instance\n  function createGame(uint256 resolveTime, address oracleAddr, int256 threshold, string memory tag, string memory title) public returns (address) {\n    GameContract newGame = new GameContract(payable(address(this)), resolveTime, oracleAddr, threshold); \n    address newGameAddress = address(newGame);\n    gameContractRegistry[gameCount] = GameMetadata({\n      id: gameCount,\n      addr: newGameAddress,\n      tag: tag,\n      title: title,\n      oracleAddr: oracleAddr,\n      resolveTime: resolveTime,\n      threshold: threshold,\n      totalAmount: 0,\n      betYesAmount: 0,\n      betNoAmount: 0,\n      ongoing: true,\n      gameOutcome: 0\n    });\n\n    gameAddr2Id[newGameAddress] = gameCount;\n\n    ongoingGamesId2Idx[gameCount] = ongoingGamesCnt;\n    ongoingGames.push(gameContractRegistry[gameCount]);\n\n    ongoingGamesCnt = SafeMath.add(ongoingGamesCnt, 1);\n    gameCount = SafeMath.add(gameCount, 1);\n\n    emit GameCreated(newGameAddress);\n\n    return newGameAddress;\n  }\n\n  function getGameCount() public view returns (uint256) {\n    return gameCount;\n  }\n\n  // Fetches all games with id from X to Y, (bounds inclusve)\n  // note: even if the game doesn't exist, a game object would still be returned with default values filled\n  function getXtoYGame(uint256 X, uint256 Y) public view returns (GameMetadata[] memory) {\n    require(X <= Y, \"X cannot be greater than Y\");\n\n    GameMetadata[] memory res = new GameMetadata[](Y-X+1);\n    for (uint256 j=X; j<=Y; j++) {\n      res[j-X] = gameContractRegistry[j];\n    }\n\n    return res;\n  }\n\n  // fetches all games\n  function getAllGames() public view returns (GameMetadata[] memory) {\n    GameMetadata[] memory res = new GameMetadata[](gameCount-1);\n    for (uint256 j=1; j<=gameCount; j++) {\n      res[j-1] = gameContractRegistry[j-1];\n    }\n\n    return res;\n  }\n\n  modifier isExistingGame(bool mustBeGame) {\n    if (mustBeGame) {\n      require(\n        gameAddr2Id[msg.sender] != 0,\n        \"not a recognised game\"\n      );\n    }\n    _;\n  }\n\n  // callable only by the game itself\n  // A player joined the game on a particular side\n  function playerJoinedSide(address player, uint8 betSide, uint256 amount, uint256 timestamp) external isExistingGame(true) {\n    address gameAddr = msg.sender;\n    uint256 gameId = gameAddr2Id[gameAddr];\n    GameMetadata memory gameMetadata = gameContractRegistry[gameId];\n    gameMetadata.totalAmount += amount;\n    if (betSide == 2) {\n      gameMetadata.betNoAmount += amount;\n    } else {\n      gameMetadata.betYesAmount += amount;\n    }\n    \n    playerExistingPositions[player][gameId][betSide] += amount;\n    // for simplicity, we do not merge the bets, even if they are for the same game and on the same side\n    // they exist as 2 separate trx with their own unique ids\n    ongoingBetsTrxId2Idx[trxId] = ongoingBetsSize[player];\n    ongoingBets[player].push(BetInfo({trxId: trxId, gameId: gameId, betSide: betSide, amt: amount, betOutcome: 0}));\n    ongoingBetsSize[player] = SafeMath.add(ongoingBetsSize[player], 1);\n\n    // record this activity as well\n    playersRecords[player].push(Activity({\n      trxId: trxId,\n      activityType: BetActivityType,\n      gameId: gameId,\n      trxAmt: amount,\n      trxTime: timestamp,\n      gameSide: betSide,\n      from: address(this),\n      to: player\n    }));\n\n    trxId = SafeMath.add(trxId, 1);\n\n    emit PlayerJoinedGameEvent(player, gameId, gameAddr, betSide, amount);\n  }\n\n  function concludeGame(uint8 gameOutcome) external isExistingGame(true) {\n    address gameAddr = msg.sender;\n    uint256 gameId = gameAddr2Id[gameAddr];\n\n    // move game out of existing ongoing games\n    uint256 existingGameIdx = ongoingGamesId2Idx[gameId];\n    GameMetadata memory finisedGame = ongoingGames[existingGameIdx];\n    GameMetadata memory lastOngoingGame = ongoingGames[SafeMath.sub(ongoingGamesCnt, 1)];\n    ongoingGamesId2Idx[lastOngoingGame.id] = existingGameIdx;\n    delete ongoingGamesId2Idx[gameId];\n    ongoingGames[existingGameIdx] = lastOngoingGame;\n    ongoingGamesCnt = SafeMath.sub(ongoingGamesCnt, 1);\n\n    // update metadata for the game\n    finisedGame.ongoing = false;\n    finisedGame.gameOutcome = gameOutcome;\n\n    gameContractRegistry[finisedGame.id].ongoing = false;\n    gameContractRegistry[finisedGame.id].gameOutcome = gameOutcome;\n\n    // add this game to array of closedGames\n    closedGames.push(finisedGame);\n\n    emit GameConcluded(gameId, gameAddr, gameOutcome);\n  }\n\n  struct PlayerTrx {\n    // ongoing bets\n    BetInfo[] ongoingBets;\n\n    // pending win claims, games that have closed and player should withdraw his/her winnings\n    BetInfo[] winningsPending;\n\n    // concluded bets, wins and loses\n    BetInfo[] historicalBets;\n  }\n\n  // given an address, identify all the existing bets opened\n  function queryAllPlayersTrx(address player, bool onlyOpen) external view returns (PlayerTrx memory) {\n    return PlayerTrx({\n      ongoingBets: ongoingBets[player],\n      winningsPending: pendingWins[player],\n      historicalBets: historicalBets[player]\n    });\n  }\n\n  // callable only by the game itself\n  // A player gave his side to someone else\n  function playersSwapSide() external isExistingGame(true) {\n    // TODO: update the mappings to the latest game state\n    // address gameAddr = msg.sender;\n\n  }\n\n  // @notice Will receive any eth sent to the contract\n  receive() external payable {\n  }\n}\n",
  "sourcePath": "/Users/gerald/Desktop/HwangMarket/contracts/HwangMarket.sol",
  "compiler": {
    "name": "solc",
    "version": "0.8.17+commit.8df45f5f.Emscripten.clang"
  },
  "schemaVersion": "3.4.10",
  "updatedAt": "2022-10-20T15:17:51.757Z",
  "networkType": "ethereum",
  "devdoc": {
    "kind": "dev",
    "methods": {},
    "version": 1
  },
  "userdoc": {
    "kind": "user",
    "methods": {},
    "version": 1
  }
}