{
  "contractName": "HwangMarket",
  "abi": [
    {
      "inputs": [],
      "stateMutability": "nonpayable",
      "type": "constructor"
    },
    {
      "anonymous": false,
      "inputs": [
        {
          "indexed": false,
          "internalType": "uint256",
          "name": "gameId",
          "type": "uint256"
        },
        {
          "indexed": false,
          "internalType": "address",
          "name": "gameAddr",
          "type": "address"
        },
        {
          "indexed": false,
          "internalType": "uint8",
          "name": "gameOutcome",
          "type": "uint8"
        }
      ],
      "name": "GameConcluded",
      "type": "event"
    },
    {
      "anonymous": false,
      "inputs": [
        {
          "components": [
            {
              "internalType": "uint256",
              "name": "id",
              "type": "uint256"
            },
            {
              "internalType": "uint256",
              "name": "createdTime",
              "type": "uint256"
            },
            {
              "internalType": "address",
              "name": "addr",
              "type": "address"
            },
            {
              "internalType": "string",
              "name": "tag",
              "type": "string"
            },
            {
              "internalType": "string",
              "name": "title",
              "type": "string"
            },
            {
              "internalType": "address",
              "name": "oracleAddr",
              "type": "address"
            },
            {
              "internalType": "uint256",
              "name": "resolveTime",
              "type": "uint256"
            },
            {
              "internalType": "int256",
              "name": "threshold",
              "type": "int256"
            },
            {
              "internalType": "uint256",
              "name": "totalAmount",
              "type": "uint256"
            },
            {
              "internalType": "uint256",
              "name": "betYesAmount",
              "type": "uint256"
            },
            {
              "internalType": "uint256",
              "name": "betNoAmount",
              "type": "uint256"
            },
            {
              "internalType": "bool",
              "name": "ongoing",
              "type": "bool"
            },
            {
              "internalType": "uint8",
              "name": "gameOutcome",
              "type": "uint8"
            }
          ],
          "indexed": false,
          "internalType": "struct Models.GameMetadata",
          "name": "gameMetadata",
          "type": "tuple"
        }
      ],
      "name": "GameCreated",
      "type": "event"
    },
    {
      "anonymous": false,
      "inputs": [
        {
          "components": [
            {
              "internalType": "uint256",
              "name": "listingId",
              "type": "uint256"
            },
            {
              "internalType": "address",
              "name": "listingAddr",
              "type": "address"
            },
            {
              "internalType": "address",
              "name": "player1",
              "type": "address"
            },
            {
              "internalType": "address",
              "name": "token1",
              "type": "address"
            },
            {
              "internalType": "uint256",
              "name": "token1Amt",
              "type": "uint256"
            },
            {
              "internalType": "address",
              "name": "player2",
              "type": "address"
            },
            {
              "internalType": "address",
              "name": "token2",
              "type": "address"
            },
            {
              "internalType": "uint256",
              "name": "token2Amt",
              "type": "uint256"
            },
            {
              "internalType": "bool",
              "name": "fulfilled",
              "type": "bool"
            }
          ],
          "indexed": false,
          "internalType": "struct Models.ListingInfo",
          "name": "listingInfo",
          "type": "tuple"
        }
      ],
      "name": "ListingFulfilled",
      "type": "event"
    },
    {
      "anonymous": false,
      "inputs": [
        {
          "components": [
            {
              "internalType": "uint256",
              "name": "listingId",
              "type": "uint256"
            },
            {
              "internalType": "address",
              "name": "listingAddr",
              "type": "address"
            },
            {
              "internalType": "address",
              "name": "player1",
              "type": "address"
            },
            {
              "internalType": "address",
              "name": "token1",
              "type": "address"
            },
            {
              "internalType": "uint256",
              "name": "token1Amt",
              "type": "uint256"
            },
            {
              "internalType": "address",
              "name": "player2",
              "type": "address"
            },
            {
              "internalType": "address",
              "name": "token2",
              "type": "address"
            },
            {
              "internalType": "uint256",
              "name": "token2Amt",
              "type": "uint256"
            },
            {
              "internalType": "bool",
              "name": "fulfilled",
              "type": "bool"
            }
          ],
          "indexed": false,
          "internalType": "struct Models.ListingInfo",
          "name": "listingInfo",
          "type": "tuple"
        }
      ],
      "name": "NewListing",
      "type": "event"
    },
    {
      "anonymous": false,
      "inputs": [
        {
          "indexed": false,
          "internalType": "address",
          "name": "player",
          "type": "address"
        },
        {
          "indexed": false,
          "internalType": "uint256",
          "name": "gameId",
          "type": "uint256"
        },
        {
          "indexed": false,
          "internalType": "address",
          "name": "gameAddr",
          "type": "address"
        },
        {
          "indexed": false,
          "internalType": "uint8",
          "name": "betSide",
          "type": "uint8"
        },
        {
          "indexed": false,
          "internalType": "uint256",
          "name": "amount",
          "type": "uint256"
        }
      ],
      "name": "PlayerJoinedGameEvent",
      "type": "event"
    },
    {
      "anonymous": false,
      "inputs": [
        {
          "indexed": false,
          "internalType": "address",
          "name": "player",
          "type": "address"
        },
        {
          "indexed": false,
          "internalType": "uint256",
          "name": "gameId",
          "type": "uint256"
        },
        {
          "indexed": false,
          "internalType": "address",
          "name": "gameAddr",
          "type": "address"
        },
        {
          "indexed": false,
          "internalType": "uint8",
          "name": "betSide",
          "type": "uint8"
        },
        {
          "indexed": false,
          "internalType": "uint256",
          "name": "withdrawedAmt",
          "type": "uint256"
        }
      ],
      "name": "PlayerWithdrawedWinnings",
      "type": "event"
    },
    {
      "inputs": [
        {
          "internalType": "uint256",
          "name": "",
          "type": "uint256"
        }
      ],
      "name": "closedGames",
      "outputs": [
        {
          "internalType": "address",
          "name": "",
          "type": "address"
        }
      ],
      "stateMutability": "view",
      "type": "function"
    },
    {
      "inputs": [
        {
          "internalType": "address",
          "name": "",
          "type": "address"
        }
      ],
      "name": "gameAddr2Id",
      "outputs": [
        {
          "internalType": "uint256",
          "name": "",
          "type": "uint256"
        }
      ],
      "stateMutability": "view",
      "type": "function"
    },
    {
      "inputs": [
        {
          "internalType": "uint256",
          "name": "",
          "type": "uint256"
        }
      ],
      "name": "gameId2Addr",
      "outputs": [
        {
          "internalType": "address",
          "name": "",
          "type": "address"
        }
      ],
      "stateMutability": "view",
      "type": "function"
    },
    {
      "inputs": [],
      "name": "mainToken",
      "outputs": [
        {
          "internalType": "contract MainToken",
          "name": "",
          "type": "address"
        }
      ],
      "stateMutability": "view",
      "type": "function"
    },
    {
      "inputs": [],
      "name": "mainTokenAddress",
      "outputs": [
        {
          "internalType": "address",
          "name": "",
          "type": "address"
        }
      ],
      "stateMutability": "view",
      "type": "function"
    },
    {
      "inputs": [
        {
          "internalType": "uint256",
          "name": "",
          "type": "uint256"
        }
      ],
      "name": "ongoingGames",
      "outputs": [
        {
          "internalType": "address",
          "name": "",
          "type": "address"
        }
      ],
      "stateMutability": "view",
      "type": "function"
    },
    {
      "inputs": [
        {
          "internalType": "address",
          "name": "",
          "type": "address"
        },
        {
          "internalType": "uint256",
          "name": "",
          "type": "uint256"
        }
      ],
      "name": "playersRecords",
      "outputs": [
        {
          "internalType": "uint256",
          "name": "trxId",
          "type": "uint256"
        },
        {
          "internalType": "string",
          "name": "activityType",
          "type": "string"
        },
        {
          "internalType": "uint256",
          "name": "gameId",
          "type": "uint256"
        },
        {
          "internalType": "uint256",
          "name": "trxAmt",
          "type": "uint256"
        },
        {
          "internalType": "uint256",
          "name": "trxTime",
          "type": "uint256"
        },
        {
          "internalType": "uint8",
          "name": "gameSide",
          "type": "uint8"
        },
        {
          "internalType": "address",
          "name": "from",
          "type": "address"
        },
        {
          "internalType": "address",
          "name": "to",
          "type": "address"
        }
      ],
      "stateMutability": "view",
      "type": "function"
    },
    {
      "inputs": [
        {
          "internalType": "uint256",
          "name": "resolveTime",
          "type": "uint256"
        },
        {
          "internalType": "address",
          "name": "oracleAddr",
          "type": "address"
        },
        {
          "internalType": "int256",
          "name": "threshold",
          "type": "int256"
        },
        {
          "internalType": "string",
          "name": "tag",
          "type": "string"
        },
        {
          "internalType": "string",
          "name": "title",
          "type": "string"
        }
      ],
      "name": "createGame",
      "outputs": [
        {
          "internalType": "address",
          "name": "",
          "type": "address"
        }
      ],
      "stateMutability": "nonpayable",
      "type": "function"
    },
    {
      "inputs": [],
      "name": "getAllGames",
      "outputs": [
        {
          "components": [
            {
              "internalType": "address[]",
              "name": "ongoingGames",
              "type": "address[]"
            },
            {
              "internalType": "address[]",
              "name": "closedGames",
              "type": "address[]"
            }
          ],
          "internalType": "struct Models.AllGames",
          "name": "",
          "type": "tuple"
        }
      ],
      "stateMutability": "view",
      "type": "function"
    },
    {
      "inputs": [
        {
          "internalType": "address",
          "name": "player",
          "type": "address"
        },
        {
          "internalType": "uint8",
          "name": "betSide",
          "type": "uint8"
        },
        {
          "internalType": "uint256",
          "name": "amount",
          "type": "uint256"
        },
        {
          "internalType": "uint256",
          "name": "timestamp",
          "type": "uint256"
        }
      ],
      "name": "playerJoinedSide",
      "outputs": [],
      "stateMutability": "nonpayable",
      "type": "function"
    },
    {
      "inputs": [
        {
          "internalType": "address",
          "name": "_player",
          "type": "address"
        },
        {
          "internalType": "uint8",
          "name": "betSide",
          "type": "uint8"
        },
        {
          "internalType": "uint256",
          "name": "withdrawAmt",
          "type": "uint256"
        },
        {
          "internalType": "uint256",
          "name": "timestamp",
          "type": "uint256"
        }
      ],
      "name": "playerWithdrawWinnings",
      "outputs": [],
      "stateMutability": "nonpayable",
      "type": "function"
    },
    {
      "inputs": [
        {
          "internalType": "uint8",
          "name": "gameOutcome",
          "type": "uint8"
        }
      ],
      "name": "concludeGame",
      "outputs": [],
      "stateMutability": "nonpayable",
      "type": "function"
    },
    {
      "inputs": [],
      "name": "getBalance",
      "outputs": [
        {
          "internalType": "uint256",
          "name": "",
          "type": "uint256"
        }
      ],
      "stateMutability": "view",
      "type": "function"
    },
    {
      "inputs": [
        {
          "internalType": "address",
          "name": "player",
          "type": "address"
        }
      ],
      "name": "getPlayersTrxRecords",
      "outputs": [
        {
          "components": [
            {
              "internalType": "uint256",
              "name": "trxId",
              "type": "uint256"
            },
            {
              "internalType": "string",
              "name": "activityType",
              "type": "string"
            },
            {
              "internalType": "uint256",
              "name": "gameId",
              "type": "uint256"
            },
            {
              "internalType": "uint256",
              "name": "trxAmt",
              "type": "uint256"
            },
            {
              "internalType": "uint256",
              "name": "trxTime",
              "type": "uint256"
            },
            {
              "internalType": "uint8",
              "name": "gameSide",
              "type": "uint8"
            },
            {
              "internalType": "address",
              "name": "from",
              "type": "address"
            },
            {
              "internalType": "address",
              "name": "to",
              "type": "address"
            }
          ],
          "internalType": "struct Models.Activity[]",
          "name": "",
          "type": "tuple[]"
        }
      ],
      "stateMutability": "view",
      "type": "function"
    },
    {
      "inputs": [],
      "name": "checkAllOngoingGamesUpkeep",
      "outputs": [],
      "stateMutability": "nonpayable",
      "type": "function"
    }
  ],
  "bytecode": "0x608060405234801561001057600080fd5b506001600455604051610022906100b8565b604051809103906000f08015801561003e573d6000803e3d6000fd5b5060018054600160a060020a0392909216600160a060020a0319928316811790915560008054909216179055604051610076906100c6565b604051809103906000f080158015610092573d6000803e3d6000fd5b5060028054600160a060020a031916600160a060020a03929092169190911790556100d4565b61158d80620016b383390190565b614ae48062002c4083390190565b6115cf80620000e46000396000f3fe608060405234801561001057600080fd5b50600436106100f2576000357c01000000000000000000000000000000000000000000000000000000009004806379769488116100a457806379769488146101a6578063829a32ef146101b9578063aa8f7760146101d9578063ce1f335c146101e1578063d3eb618c146101f4578063db1c45f91461021b578063e362937d14610230578063f0bfbfca1461024357600080fd5b806304ad465f146100f757806312065fe0146101275780632980a3cb146101385780633751b8771461014b5780633fc15f151461016b5780635039eb971461017e5780636435e81714610193575b600080fd5b61010a610105366004610e5d565b61026c565b604051600160a060020a0390911681526020015b60405180910390f35b30315b60405190815260200161011e565b61010a610146366004610f31565b610296565b61015e610159366004610fbb565b61049a565b60405161011e9190611025565b60015461010a90600160a060020a031681565b61019161018c36600461110c565b610600565b005b61010a6101a1366004610e5d565b6107e9565b6101916101b436600461110c565b6107f9565b61012a6101c7366004610fbb565b60066020526000908152604090205481565b6101916109a8565b60005461010a90600160a060020a031681565b610207610202366004611150565b610a57565b60405161011e98979695949392919061117c565b610223610b56565b60405161011e919061121c565b61019161023e36600461125e565b610c31565b61010a610251366004610e5d565b600560205260009081526040902054600160a060020a031681565b600a818154811061027c57600080fd5b600091825260209091200154600160a060020a0316905081565b6002546040517f956a2a1000000000000000000000000000000000000000000000000000000000815230600482015260248101879052600160a060020a03868116604483015260648201869052600092839291169063956a2a10906084016020604051808303816000875af1158015610313573d6000803e3d6000fd5b505050506040513d601f19601f820116820180604052508101906103379190611279565b6004805460009081526005602090815260408083208054600160a060020a038716600160a060020a03199182168117909255945481855260068452828520819055600780549186526009909452918420919091556008805460018181018355919094527ff3f7a9fe364faab93b216da50a3214154f22a0a2b415b23a84c8169e8b636ee3909301805490941617909255905491925082916103d791610e3c565b600755604080516101a0810182526004548152426020820152600160a060020a03808416828401526060820188905260808201879052891660a082015260c081018a905260e081018890526000610100820181905261012082018190526101408201819052600161016083015261018082015290517f149022832779c6ebc9c5b5594a2aacdf1e5937175d1408086b385724ef265e579161047791611296565b60405180910390a161048c6004546001610e3c565b600455979650505050505050565b600160a060020a0381166000908152600b60209081526040808320805482518185028101850190935280835260609492939192909184015b828210156105f55783829060005260206000209060070201604051806101000160405290816000820154815260200160018201805461051090611387565b80601f016020809104026020016040519081016040528092919081815260200182805461053c90611387565b80156105895780601f1061055e57610100808354040283529160200191610589565b820191906000526020600020905b81548152906001019060200180831161056c57829003601f168201915b505050918352505060028201546020808301919091526003830154604083015260048301546060830152600583015460ff81166080840152600160a060020a03610100909104811660a084015260069093015490921660c09091015290825260019290920191016104d2565b505050509050919050565b336000908152600660205260409020541580159061063c5750336000908152600660209081526040808320548352600990915290205460001914155b61064557600080fd5b33600081815260066020908152604080832054600160a060020a038916808552600b8452828520835161010081018552600380548252855180870187529081527f424554000000000000000000000000000000000000000000000000000000000081880152818701908152948101849052606081018a90526080810189905260ff8b1660a082015260c081019290925260e082018790528054600181810183559187529490952081516007909502019384559151909391929182019061070b9082611413565b506040820151600282015560608201516003808301919091556080830151600483015560a083015160058301805460c086015160ff90931674ffffffffffffffffffffffffffffffffffffffffff1990911617610100600160a060020a039384160217905560e09093015160069092018054600160a060020a03191692909316919091179091555461079e906001610e3c565b6003556040517f60f0179549292c7191bafdb03407a3080ad6bbb9354055fb0dba51a90dcead17906107d9908890849086908a908a906114d9565b60405180910390a1505050505050565b6008818154811061027c57600080fd5b33600090815260066020526040812054900361081457600080fd5b33600081815260066020908152604080832054600160a060020a038916808552600b8452828520835161010081018552600354815284518086018652600881527f574954484452415700000000000000000000000000000000000000000000000081880152818701908152948101849052606081018a90526080810189905260ff8b1660a082015260c0810188905260e0810192909252805460018181018355918752949095208151600790950201938455915190939192918201906108da9082611413565b506040820151600282015560608201516003808301919091556080830151600483015560a083015160058301805460c086015160ff90931674ffffffffffffffffffffffffffffffffffffffffff1990911617610100600160a060020a039384160217905560e09093015160069092018054600160a060020a03191692909316919091179091555461096d906001610e3c565b6003556040517f763849cb5b59f290f2394239aed08a4f73bef1c65b4debb49ed6324897c23a97906107d9908890849086908a908a906114d9565b60005b600754811015610a5457600881815481106109c8576109c861150f565b6000918252602082200154604080517f6e4d243a0000000000000000000000000000000000000000000000000000000081529051600160a060020a0390921692636e4d243a9260048084019382900301818387803b158015610a2957600080fd5b505af1158015610a3d573d6000803e3d6000fd5b505050508080610a4c90611541565b9150506109ab565b50565b600b6020528160005260406000208181548110610a7357600080fd5b906000526020600020906007020160009150915050806000015490806001018054610a9d90611387565b80601f0160208091040260200160405190810160405280929190818152602001828054610ac990611387565b8015610b165780601f10610aeb57610100808354040283529160200191610b16565b820191906000526020600020905b815481529060010190602001808311610af957829003601f168201915b505050600284015460038501546004860154600587015460069097015495969295919450925060ff821691600160a060020a036101009091048116911688565b6040805180820190915260608082526020820152604080516008805460606020820284018101855293830181815292938493929190840182828015610bc457602002820191906000526020600020905b8154600160a060020a03168152600190910190602001808311610ba6575b50505050508152602001600a805480602002602001604051908101604052809291908181526020018280548015610c2457602002820191906000526020600020905b8154600160a060020a03168152600190910190602001808311610c06575b5050505050815250905090565b336000908152600660205260408120549003610c4c57600080fd5b336000818152600660209081526040808320548084526009909252909120548019610c775750505050565b6000819050600060088281548110610c9157610c9161150f565b6000918252602082200154600754600160a060020a039091169250600890610cba906001610e51565b81548110610cca57610cca61150f565b6000918252602080832090910154600160a060020a031680835260068252604080842054845260099092528183208690558783529120600019905560088054919250829185908110610d1e57610d1e61150f565b9060005260206000200160006101000a815481600160a060020a030219169083600160a060020a03160217905550610d596007546001610e51565b600755600a80546001810182556000919091527fc65a7bb8d6351c1cf70c95a316cc6a92839c986682d98bc35f958f4883f9d2a8018054600160a060020a031916600160a060020a0384161790556008805480610db857610db861155a565b60008281526020902081016000199081018054600160a060020a03191690550190556040517f6997c325fd49bb5c188e78d03aee9a56052bffb3dcecb7d89cad3946cfc9b19090610e2b90879089908b90928352600160a060020a0391909116602083015260ff16604082015260600190565b60405180910390a150505050505050565b6000610e488284611573565b90505b92915050565b6000610e488284611586565b600060208284031215610e6f57600080fd5b5035919050565b600160a060020a0381168114610a5457600080fd5b60e060020a634e487b7102600052604160045260246000fd5b600082601f830112610eb557600080fd5b813567ffffffffffffffff80821115610ed057610ed0610e8b565b604051601f8301601f19908116603f01168101908282118183101715610ef857610ef8610e8b565b81604052838152866020858801011115610f1157600080fd5b836020870160208301376000602085830101528094505050505092915050565b600080600080600060a08688031215610f4957600080fd5b853594506020860135610f5b81610e76565b935060408601359250606086013567ffffffffffffffff80821115610f7f57600080fd5b610f8b89838a01610ea4565b93506080880135915080821115610fa157600080fd5b50610fae88828901610ea4565b9150509295509295909350565b600060208284031215610fcd57600080fd5b8135610fd881610e76565b9392505050565b6000815180845260005b8181101561100557602081850181015186830182015201610fe9565b506000602082860101526020601f19601f83011685010191505092915050565b60208082528251828201819052600091906040908185019080840286018301878501865b838110156110e857603f1989840301855281516101008151855288820151818a87015261107882870182610fdf565b838a0151878b0152606080850151908801526080808501519088015260a08085015160ff169088015260c080850151600160a060020a03169088015260e0938401519390925090506110d481870184600160a060020a03169052565b509588019593505090860190600101611049565b509098975050505050505050565b803560ff8116811461110757600080fd5b919050565b6000806000806080858703121561112257600080fd5b843561112d81610e76565b935061113b602086016110f6565b93969395505050506040820135916060013590565b6000806040838503121561116357600080fd5b823561116e81610e76565b946020939093013593505050565b60006101008a83528060208401526111968184018b610fdf565b604084019990995250506060810195909552608085019390935260ff9190911660a0840152600160a060020a0390811660c08401521660e09091015292915050565b600081518084526020808501945080840160005b83811015611211578151600160a060020a0316875295820195908201906001016111ec565b509495945050505050565b60208152600082516040602084015261123860608401826111d8565b90506020840151601f1984830301604085015261125582826111d8565b95945050505050565b60006020828403121561127057600080fd5b610e48826110f6565b60006020828403121561128b57600080fd5b8151610fd881610e76565b602081528151602082015260208201516040820152600060408301516112c76060840182600160a060020a03169052565b5060608301516101a08060808501526112e46101c0850183610fdf565b91506080850151601f198584030160a08601526113018382610fdf565b92505060a085015161131e60c0860182600160a060020a03169052565b5060c085015160e085810191909152850151610100808601919091528501516101208086019190915285015161014080860191909152850151610160808601919091528501516101806113748187018315159052565b9095015160ff1693019290925250919050565b60028104600182168061139b57607f821691505b6020821081036113be5760e060020a634e487b7102600052602260045260246000fd5b50919050565b601f82111561140e576000818152602081206020601f860104810160208610156113eb5750805b6020601f860104820191505b8181101561140a578281556001016113f7565b5050505b505050565b815167ffffffffffffffff81111561142d5761142d610e8b565b6114418161143b8454611387565b846113c4565b602080601f83116001811461147a576000841561145e5750858301515b60028086026008870290910a600019041982161786555061140a565b600085815260208120601f198616915b828110156114a95788860151825594840194600190910190840161148a565b50858210156114c957878501516008601f88160260020a60001904191681555b5050505050600202600101905550565b600160a060020a039586168152602081019490945291909316604083015260ff9092166060820152608081019190915260a00190565b60e060020a634e487b7102600052603260045260246000fd5b60e060020a634e487b7102600052601160045260246000fd5b60006001820161155357611553611528565b5060010190565b60e060020a634e487b7102600052603160045260246000fd5b80820180821115610e4b57610e4b611528565b81810381811115610e4b57610e4b61152856fea264697066735822122026b719bc1c0057b5e3157e9fd88c6c957f82b3a67bd29aaeb18f73cb44dffab864736f6c6343000811003360c0604052600b60809081527f4877616e674d61726b657400000000000000000000000000000000000000000060a0526003906200003e9082620001a2565b5060408051808201909152600581527f484d544b4e0000000000000000000000000000000000000000000000000000006020820152600490620000829082620001a2565b506005805460ff191660121790556000600655348015620000a257600080fd5b506007805433600160a060020a0319918216811790925560088054909116909117905562000275565b7f4e487b7100000000000000000000000000000000000000000000000000000000600052604160045260246000fd5b6002810460018216806200010f57607f821691505b60208210810362000149577f4e487b7100000000000000000000000000000000000000000000000000000000600052602260045260246000fd5b50919050565b601f8211156200019d576000818152602081206020601f86010481016020861015620001785750805b6020601f860104820191505b81811015620001995782815560010162000184565b5050505b505050565b815167ffffffffffffffff811115620001bf57620001bf620000cb565b620001d781620001d08454620000fa565b846200014f565b602080601f831160018114620002135760008415620001f65750858301515b60028086026008870290910a600019041982161786555062000199565b600085815260208120601f198616915b82811015620002445788860151825594840194600190910190840162000223565b50858210156200026557878501516008601f88160260020a60001904191681555b5050505050600202600101905550565b61130880620002856000396000f3fe6080604052600436106100f15760003560e060020a9004806370a082311161008957806370a082311461024157806395d89b411461026e5780639ea3c82014610283578063a9059cbb146102b0578063a9e732bb146102d0578063ac5388c8146102f0578063d270e7ab14610306578063dd62ed3e14610326578063f16e43001461035e57600080fd5b806302d05d3f146100fd57806306fdde031461013a578063095ea7b31461015c57806312065fe01461018c57806318160ddd146101aa57806323b872dd146101c0578063313ce567146101e057806340c10f191461020c57806342966c681461022157600080fd5b366100f857005b600080fd5b34801561010957600080fd5b5060075461011d90600160a060020a031681565b604051600160a060020a0390911681526020015b60405180910390f35b34801561014657600080fd5b5061014f610373565b6040516101319190610e97565b34801561016857600080fd5b5061017c610177366004610efd565b610401565b6040519015158152602001610131565b34801561019857600080fd5b5030315b604051908152602001610131565b3480156101b657600080fd5b5061019c60005481565b3480156101cc57600080fd5b5061017c6101db366004610f29565b6104a2565b3480156101ec57600080fd5b506005546101fa9060ff1681565b60405160ff9091168152602001610131565b61021f61021a366004610efd565b610652565b005b34801561022d57600080fd5b5061021f61023c366004610f6a565b6107c9565b34801561024d57600080fd5b5061019c61025c366004610f83565b60016020526000908152604090205481565b34801561027a57600080fd5b5061014f610860565b34801561028f57600080fd5b506102a361029e366004610f83565b61086d565b6040516101319190610fa7565b3480156102bc57600080fd5b5061017c6102cb366004610efd565b610cc3565b3480156102dc57600080fd5b5061021f6102eb366004610f6a565b610d71565b3480156102fc57600080fd5b5061019c60065481565b34801561031257600080fd5b5060085461011d90600160a060020a031681565b34801561033257600080fd5b5061019c610341366004611058565b600260209081526000928352604080842090915290825290205481565b34801561036a57600080fd5b5061019c600181565b6003805461038090611091565b80601f01602080910402602001604051908101604052809291908181526020018280546103ac90611091565b80156103f95780601f106103ce576101008083540402835291602001916103f9565b820191906000526020600020905b8154815290600101906020018083116103dc57829003601f168201915b505050505081565b3360009081526001602052604081205482111561043c5760405160e560020a62461bcd028152600401610433906110ce565b60405180910390fd5b336000818152600260209081526040808320600160a060020a03881680855290835292819020869055518581529192917f8c5be1e5ebec7d5bd14f71427d1e84f3dd0314c0f7b2291e5b200ac8c7c3b92591015b60405180910390a35060015b92915050565b600160a060020a038316600090815260026020908152604080832033845290915281205482111561053e5760405160e560020a62461bcd02815260206004820152603360248201527f696e73756666696369656e7420616c6c6f77616e636520746f2072656369706960448201527f656e742066726f6d206d73672073656e646572000000000000000000000000006064820152608401610433565b600160a060020a0384166000908152600160205260409020548211156105795760405160e560020a62461bcd028152600401610433906110ce565b600160a060020a0384166000908152600260209081526040808320338452909152812080548492906105ac90849061111e565b9091555050600160a060020a038416600090815260016020526040812080548492906105d990849061111e565b9091555050600160a060020a03831660009081526001602052604081208054849290610606908490611131565b9250508190555082600160a060020a031684600160a060020a03166000805160206112b38339815191528460405161064091815260200190565b60405180910390a35060019392505050565b600061065f600180611144565b6106699083611169565b9050803410156106e45760405160e560020a62461bcd02815260206004820152602a60248201527f496e73756666696369656e74206d73672076616c756520746f20636f7665722060448201527f65746820616d6f756e74000000000000000000000000000000000000000000006064820152608401610433565b33318111156107385760405160e560020a62461bcd02815260206004820152601e60248201527f596f7520646f206e6f74206861766520656e6f7567682062616c616e636500006044820152606401610433565b600160a060020a03831660009081526001602052604081208054849290610760908490611131565b92505081905550816000808282546107789190611131565b9250508190555034600660008282546107919190611131565b9091555050604051828152600160a060020a0384169030906000805160206112b38339815191529060200160405180910390a3505050565b336000908152600160205260409020548111156107fb5760405160e560020a62461bcd028152600401610433906110ce565b336000908152600160205260408120805483929061081a90849061111e565b9250508190555080600080828254610832919061111e565b909155505060405181815260009033906000805160206112b38339815191529060200160405180910390a350565b6004805461038090611091565b6040805161012081018252600080825260208201819052918101829052606081018290526080810182905260a0810182905260c0810182905260e08101829052610100810191909152600082905030600160a060020a031681600160a060020a03166325be124e6040518163ffffffff1660e060020a028152600401602060405180830381865afa158015610906573d6000803e3d6000fd5b505050506040513d601f19601f8201168201806040525081019061092a9190611190565b600160a060020a0316146109835760405160e560020a62461bcd02815260206004820181905260248201527f6c697374696e672077616e7473206120646966666572656e7420746f6b656e326044820152606401610433565b80600160a060020a031663c4e5edcd6040518163ffffffff1660e060020a028152600401602060405180830381865afa1580156109c4573d6000803e3d6000fd5b505050506040513d601f19601f820116820180604052508101906109e891906111ad565b336000908152600160205260409020541015610a195760405160e560020a62461bcd028152600401610433906110ce565b80600160a060020a031663c4e5edcd6040518163ffffffff1660e060020a028152600401602060405180830381865afa158015610a5a573d6000803e3d6000fd5b505050506040513d601f19601f82011682018060405250810190610a7e91906111ad565b336000818152600260209081526040808320600160a060020a03898116808652918452938290209590955580517fc4e5edcd00000000000000000000000000000000000000000000000000000000815290517f8c5be1e5ebec7d5bd14f71427d1e84f3dd0314c0f7b2291e5b200ac8c7c3b9259387169263c4e5edcd92600480820193918290030181865afa158015610b1b573d6000803e3d6000fd5b505050506040513d601f19601f82011682018060405250810190610b3f91906111ad565b60405190815260200160405180910390a36040517f6f6ff405000000000000000000000000000000000000000000000000000000008152336004820152600090600160a060020a03831690636f6ff40590602401610120604051808303816000875af1158015610bb3573d6000803e3d6000fd5b505050506040513d601f19601f82011682018060405250810190610bd79190611211565b9050600082600160a060020a03166302d05d3f6040518163ffffffff1660e060020a028152600401602060405180830381865afa158015610c1c573d6000803e3d6000fd5b505050506040513d601f19601f82011682018060405250810190610c409190611190565b6040517fdc8046f0000000000000000000000000000000000000000000000000000000008152909150600160a060020a0382169063dc8046f090610c88908590600401610fa7565b600060405180830381600087803b158015610ca257600080fd5b505af1158015610cb6573d6000803e3d6000fd5b5093979650505050505050565b33600090815260016020526040812054821115610cf55760405160e560020a62461bcd028152600401610433906110ce565b3360009081526001602052604081208054849290610d1490849061111e565b9091555050600160a060020a03831660009081526001602052604081208054849290610d41908490611131565b9091555050604051828152600160a060020a0384169033906000805160206112b383398151915290602001610490565b33600090815260016020526040902054811115610dd35760405160e560020a62461bcd02815260206004820152601e60248201527f696e73756666696369656e742062616c616e636520696e20706c6179657200006044820152606401610433565b6000610de0600180611144565b610dea9083611169565b604051909150339082156108fc029083906000818181858888f19350505050158015610e1a573d6000803e3d6000fd5b503360009081526001602052604081208054849290610e3a90849061111e565b9091555050604051828152309033906000805160206112b38339815191529060200160405180910390a381600080828254610e75919061111e565b925050819055508060066000828254610e8e919061111e565b90915550505050565b600060208083528351808285015260005b81811015610ec457858101830151858201604001528201610ea8565b506000604082860101526040601f19601f8301168501019250505092915050565b600160a060020a0381168114610efa57600080fd5b50565b60008060408385031215610f1057600080fd5b8235610f1b81610ee5565b946020939093013593505050565b600080600060608486031215610f3e57600080fd5b8335610f4981610ee5565b92506020840135610f5981610ee5565b929592945050506040919091013590565b600060208284031215610f7c57600080fd5b5035919050565b600060208284031215610f9557600080fd5b8135610fa081610ee5565b9392505050565b600061012082019050825182526020830151600160a060020a03808216602085015280604086015116604085015250506060830151610ff16060840182600160a060020a03169052565b506080830151608083015260a083015161101660a0840182600160a060020a03169052565b5060c083015161103160c0840182600160a060020a03169052565b5060e083015160e0830152610100808401516110508285018215159052565b505092915050565b6000806040838503121561106b57600080fd5b823561107681610ee5565b9150602083013561108681610ee5565b809150509250929050565b6002810460018216806110a557607f821691505b6020821081036110c85760e060020a634e487b7102600052602260045260246000fd5b50919050565b6020808252601e908201527f696e73756666696369656e742062616c616e636520696e2073656e6465720000604082015260600190565b60e060020a634e487b7102600052601160045260246000fd5b8181038181111561049c5761049c611105565b8082018082111561049c5761049c611105565b6000826111645760e060020a634e487b7102600052601260045260246000fd5b500490565b808202811582820484141761049c5761049c611105565b805161118b81610ee5565b919050565b6000602082840312156111a257600080fd5b8151610fa081610ee5565b6000602082840312156111bf57600080fd5b5051919050565b604051610120810167ffffffffffffffff811182821017156111fb5760e060020a634e487b7102600052604160045260246000fd5b60405290565b8051801515811461118b57600080fd5b6000610120828403121561122457600080fd5b61122c6111c6565b8251815261123c60208401611180565b602082015261124d60408401611180565b604082015261125e60608401611180565b60608201526080830151608082015261127960a08401611180565b60a082015261128a60c08401611180565b60c082015260e083015160e08201526101006112a7818501611201565b90820152939250505056feddf252ad1be2c89b69c2b068fc378daa952ba7f163c4a11628f55a4df523b3efa26469706673582212201f7983cf46cc1851c26f124aac87a3c2587d41c8c694b2fde91a6050ee99aff664736f6c63430008110033608060405234801561001057600080fd5b50614ac4806100206000396000f3fe608060405234801561001057600080fd5b5060043610610047577c01000000000000000000000000000000000000000000000000000000006000350463956a2a10811461004c575b600080fd5b61005f61005a36600461012a565b610088565b60405173ffffffffffffffffffffffffffffffffffffffff909116815260200160405180910390f35b60008484848460405161009a906100f4565b73ffffffffffffffffffffffffffffffffffffffff94851681526020810193909352921660408201526060810191909152608001604051809103906000f0801580156100ea573d6000803e3d6000fd5b5095945050505050565b6149208061016f83390190565b803573ffffffffffffffffffffffffffffffffffffffff8116811461012557600080fd5b919050565b6000806000806080858703121561014057600080fd5b61014985610101565b93506020850135925061015e60408601610101565b939692955092936060013592505056fe60806040523480156200001157600080fd5b50604051620049203803806200492083398101604081905262000034916200024f565b6000805460078054600160a060020a03888116600160a060020a031992831681179093556001889055600160b060020a03199093169091179092556004805490921690841617905560028190556040516103e890620000939062000224565b6060808252600b908201527f47616d654e6f546f6b656e000000000000000000000000000000000000000000608082015260a0602082018190526003908201527f474e54000000000000000000000000000000000000000000000000000000000060c0820152604081019190915260e001604051809103906000f08015801562000121573d6000803e3d6000fd5b5060098054600160a060020a0392909216600160a060020a03199283168117909155600880549092161790556040516103e8906200015f9062000224565b6060808252600c908201527f47616d65596573546f6b656e0000000000000000000000000000000000000000608082015260a0602082018190526003908201527f475954000000000000000000000000000000000000000000000000000000000060c0820152604081019190915260e001604051809103906000f080158015620001ed573d6000803e3d6000fd5b50600b8054600160a060020a0392909216600160a060020a03199283168117909155600a8054909216179055506200029892505050565b61154580620033db83390190565b8051600160a060020a03811681146200024a57600080fd5b919050565b600080600080608085870312156200026657600080fd5b620002718562000232565b935060208501519250620002886040860162000232565b6060959095015193969295505050565b61313380620002a86000396000f3fe60806040523480156200001157600080fd5b5060043610620001795760003560e060020a900480637256eba411620000d7578063d6875f95116200008a578063d6875f951462000349578063dc8046f0146200035d578063e07056af1462000374578063e2cb747d146200038b578063f91c2cbc14620003a2578063f92a9e0914620003bb57600080fd5b80637256eba414620002d3578063846c6f4f14620002ea5780638e15f47314620002fe5780638f09cc8b1462000308578063ae73ccec146200031c578063d270e7ab146200033557600080fd5b8063200d2ed21162000130578063200d2ed214620002575780632cd1adfe146200027b57806341ef10c814620002a157806342cde4e814620002b557806346b1df0414620002bf5780636e4d243a14620002c957600080fd5b806302d05d3f146200017e578063053a2cfb14620001aa57806312065fe014620001ce5780631479470214620001e05780631486d61114620001f95780631746bd1b146200021c575b600080fd5b6000546200019290600160a060020a031681565b604051620001a1919062001dbc565b60405180910390f35b600054620001bf9060a860020a900460ff1681565b604051620001a1919062001e00565b30315b604051908152602001620001a1565b620001f7620001f136600462001e16565b620003c5565b005b620001d16200020a36600462001e30565b60036020526000908152604090205481565b600054600154600254604051620001a193600160a060020a0381169360ff60a060020a830481169460a860020a909304169290919062001e6d565b6000546200026c9060a060020a900460ff1681565b604051620001a1919062001eae565b620002926200028c36600462001ee9565b62000b31565b604051620001a1919062001fd0565b6008546200019290600160a060020a031681565b620001d160025481565b620001d160115481565b620001f762000da7565b620001f7620002e436600462001ff3565b62000edf565b600a546200019290600160a060020a031681565b620001d162001826565b6009546200019290600160a060020a031681565b62000326620018ba565b604051620001a1919062002036565b6007546200019290600160a060020a031681565b600b546200019290600160a060020a031681565b620001f76200036e3660046200211f565b62001956565b620001926200038536600462001e16565b62001a05565b620001d16200039c366004620021cf565b62001aaa565b620003ac62001b69565b604051620001a19190620021ed565b620001d160015481565b600160005460a060020a900460ff166001811115620003e857620003e862001dd0565b146200043e5760405160e560020a62461bcd02815260206004820152601660248201527f67616d65206973206e6f742079657420636c6f7365640000000000000000000060448201526064015b60405180910390fd5b6000805460a860020a900460ff16600281111562000460576200046062001dd0565b03620004b25760405160e560020a62461bcd02815260206004820152601e60248201527f67616d65206f7574636f6d652063616e6e6f7420626520756e6b6e6f776e0000604482015260640162000435565b600954600160a060020a0316600160005460a860020a900460ff166002811115620004e157620004e162001dd0565b03620004f55750600b54600160a060020a03165b60405160e160020a636eb1769f0281523360048201523060248201528290600160a060020a0383169063dd62ed3e90604401602060405180830381865afa15801562000545573d6000803e3d6000fd5b505050506040513d601f19601f820116820180604052508101906200056b9190620022fd565b1015620005e45760405160e560020a62461bcd02815260206004820152602360248201527f706c61796572206d75737420617070726f766520776974686472617720616d6f60448201527f756e740000000000000000000000000000000000000000000000000000000000606482015260840162000435565b6040517f70a082310000000000000000000000000000000000000000000000000000000081528290600160a060020a038316906370a08231906200062d90339060040162001dbc565b602060405180830381865afa1580156200064b573d6000803e3d6000fd5b505050506040513d601f19601f82011682018060405250810190620006719190620022fd565b1015620006ea5760405160e560020a62461bcd02815260206004820152602e60248201527f706c61796572206d75737420686176652067616d6520746f6b656e20616d6f7560448201527f6e7420746f207769746864726177000000000000000000000000000000000000606482015260840162000435565b60028060005460a860020a900460ff1660028111156200070e576200070e62001dd0565b0362000718575060015b6000836200072860018062002330565b62000734919062002356565b90506000816003600085600281111562000752576200075262001dd0565b600281111562000766576200076662001dd0565b815260200190815260200160002054600360008060159054906101000a900460ff1660028111156200079c576200079c62001dd0565b6002811115620007b057620007b062001dd0565b81526020019081526020016000205484620007cc919062002330565b620007d8919062002356565b620007e4919062002370565b9050600760009054906101000a9004600160a060020a0316600160a060020a0316633fc15f156040518163ffffffff1660e060020a028152600401602060405180830381865afa1580156200083d573d6000803e3d6000fd5b505050506040513d601f19601f8201168201806040525081019062000863919062002386565b6040517fa9059cbb00000000000000000000000000000000000000000000000000000000815233600482015260248101839052600160a060020a03919091169063a9059cbb906044016020604051808303816000875af1158015620008cc573d6000803e3d6000fd5b505050506040513d601f19601f82011682018060405250810190620008f29190620023b3565b50620009018433308862001cb8565b6002600160005460a860020a900460ff16600281111562000926576200092662001dd0565b0362000930575060015b6040805160e08101825260068054825282518084018452600881527f57495448445241570000000000000000000000000000000000000000000000006020828101919091528301908152928201859052426060830181905260ff851660808401523060a08401523360c084015260058054600181018255600091909152835192027f036b6384b5eca791c62761152d0c79bb0604c104a5fb6f4eb0703f3154bb3db08101928355935190937f036b6384b5eca791c62761152d0c79bb0604c104a5fb6f4eb0703f3154bb3db1019062000a0a908262002461565b506040820151600282015560608201516003820155608082015160048201805460a085015160ff90931674ffffffffffffffffffffffffffffffffffffffffff1990911617610100600160a060020a039384160217905560c0909201516005909101805473ffffffffffffffffffffffffffffffffffffffff1916919092161790556006805490600062000a9e8362002534565b90915550506007546040517f79769488000000000000000000000000000000000000000000000000000000008152600160a060020a039091169063797694889062000af490339086908890879060040162002550565b600060405180830381600087803b15801562000b0f57600080fd5b505af115801562000b24573d6000803e3d6000fd5b5050505050505050505050565b6040805161012081018252600080825260208201819052918101829052606081018290526080810182905260a0810182905260c0810182905260e08101829052610100810191909152600854600160a060020a031633148062000b9e5750600a54600160a060020a031633145b62000c155760405160e560020a62461bcd02815260206004820152602760248201527f6f6e6c792067616d6520746f6b656e2063616e20637265617465206e6577206c60448201527f697374696e677300000000000000000000000000000000000000000000000000606482015260840162000435565b60006011549050600081873388888860405162000c329062001dae565b958652600160a060020a03948516602087015292841660408601526060850191909152909116608083015260a082015260c001604051809103906000f08015801562000c82573d6000803e3d6000fd5b506040805161012081018252848152600160a060020a0380841660208301528a811682840152336060830152608082018a9052600060a0830181905290891660c083015260e08201889052610100820152905160e260020a6301c2d7ad0281529192509073__IterableMapping_______________________9063070b5eb49062000d1790600c908790869060040162002579565b60006040518083038186803b15801562000d3057600080fd5b505af415801562000d45573d6000803e3d6000fd5b50506011805492509050600062000d5c8362002534565b91905055507fd1fe3704bd3aa4f4974d5168e39528bbb86b19e98e5f798beea49af58df301398160405162000d92919062001fd0565b60405180910390a1925050505b949350505050565b60015442108062000dd85750600160005460a060020a900460ff16600181111562000dd65762000dd662001dd0565b145b1562000de057565b6000805474ff0000000000000000000000000000000000000000191660a060020a17905560028054819062000e1462001826565b1262000e21575060019050805b6000805483919075ff000000000000000000000000000000000000000000191660a860020a83600281111562000e5b5762000e5b62001dd0565b02179055506007546040517fe362937d00000000000000000000000000000000000000000000000000000000815260ff83166004820152600160a060020a039091169063e362937d90602401600060405180830381600087803b15801562000ec257600080fd5b505af115801562000ed7573d6000803e3d6000fd5b505050505050565b60008060005460a060020a900460ff16600181111562000f035762000f0362001dd0565b1462000f7b5760405160e560020a62461bcd02815260206004820152602860248201527f47616d6520697320636c6f7365642c206e6f206675727468657220626574732060448201527f6163636570746564000000000000000000000000000000000000000000000000606482015260840162000435565b8160ff166001148062000f9157508160ff166002145b62000fe25760405160e560020a62461bcd02815260206004820152601a60248201527f6265742073696465206973206e6f74207265636f676e69736564000000000000604482015260640162000435565b6001544211156200105f5760405160e560020a62461bcd02815260206004820152602260248201527f63616e6e6f74207075742062657473206166746572207265736f6c766520746960448201527f6d65000000000000000000000000000000000000000000000000000000000000606482015260840162000435565b6007546040805160e060020a633fc15f1502815290518592600160a060020a031691633fc15f159160048083019260209291908290030181865afa158015620010ac573d6000803e3d6000fd5b505050506040513d601f19601f82011682018060405250810190620010d2919062002386565b60405160e160020a636eb1769f028152600160a060020a038781166004830152306024830152919091169063dd62ed3e90604401602060405180830381865afa15801562001124573d6000803e3d6000fd5b505050506040513d601f19601f820116820180604052508101906200114a9190620022fd565b1015620011c35760405160e560020a62461bcd02815260206004820152602d60248201527f706c617965722773206877616e67206d61726b657420746f6b656e20616c6c6f60448201527f77616e636520746f6f206c6f7700000000000000000000000000000000000000606482015260840162000435565b6007546040805160e060020a633fc15f1502815290518592600160a060020a031691633fc15f159160048083019260209291908290030181865afa15801562001210573d6000803e3d6000fd5b505050506040513d601f19601f8201168201806040525081019062001236919062002386565b600160a060020a03166370a08231866040518263ffffffff1660e060020a02815260040162001266919062001dbc565b602060405180830381865afa15801562001284573d6000803e3d6000fd5b505050506040513d601f19601f82011682018060405250810190620012aa9190620022fd565b1015620013235760405160e560020a62461bcd02815260206004820152602b60248201527f706c617965722773206877616e67206d61726b657420746f6b656e2062616c6160448201527f6e636520746f6f206c6f77000000000000000000000000000000000000000000606482015260840162000435565b600260ff831660010362001335575060015b600954600160a060020a031660ff84166001036200135b5750600b54600160a060020a03165b60006200136a60018762002356565b905081600160a060020a03166319d1997a6040518163ffffffff1660e060020a028152600401602060405180830381865afa158015620013ae573d6000803e3d6000fd5b505050506040513d601f19601f82011682018060405250810190620013d49190620022fd565b8183600160a060020a03166318160ddd6040518163ffffffff1660e060020a028152600401602060405180830381865afa15801562001417573d6000803e3d6000fd5b505050506040513d601f19601f820116820180604052508101906200143d9190620022fd565b62001449919062002370565b1115620014c25760405160e560020a62461bcd02815260206004820152602760248201527f67616d6520746f6b656e2063616e6e6f74206d696e742072657175657374656460448201527f20616d6f756e7400000000000000000000000000000000000000000000000000606482015260840162000435565b6040517f40c10f19000000000000000000000000000000000000000000000000000000008152600160a060020a038881166004830152602482018390528316906340c10f1990604401600060405180830381600087803b1580156200152657600080fd5b505af11580156200153b573d6000803e3d6000fd5b50505050620015c9600760009054906101000a9004600160a060020a0316600160a060020a0316633fc15f156040518163ffffffff1660e060020a028152600401602060405180830381865afa1580156200159a573d6000803e3d6000fd5b505050506040513d601f19601f82011682018060405250810190620015c0919062002386565b88308962001cb8565b8560036000856002811115620015e357620015e362001dd0565b6002811115620015f757620015f762001dd0565b8152602001908152602001600020600082825462001616919062002370565b90915550506040805160e08101825260068054825282518084018452600381527f42455400000000000000000000000000000000000000000000000000000000006020828101919091528301908152928201899052426060830181905260ff891660808401523060a0840152600160a060020a038b1660c084015260058054600181018255600091909152835192027f036b6384b5eca791c62761152d0c79bb0604c104a5fb6f4eb0703f3154bb3db08101928355935190937f036b6384b5eca791c62761152d0c79bb0604c104a5fb6f4eb0703f3154bb3db10190620016fe908262002461565b506040820151600282015560608201516003820155608082015160048201805460a085015160ff90931674ffffffffffffffffffffffffffffffffffffffffff1990911617610100600160a060020a039384160217905560c0909201516005909101805473ffffffffffffffffffffffffffffffffffffffff19169190921617905560068054906000620017928362002534565b90915550506007546040517f5039eb97000000000000000000000000000000000000000000000000000000008152600160a060020a0390911690635039eb9790620017e8908b908a908c90879060040162002550565b600060405180830381600087803b1580156200180357600080fd5b505af115801562001818573d6000803e3d6000fd5b505050505050505050505050565b60048054604080517ffeaf968c00000000000000000000000000000000000000000000000000000000815290516000938493600160a060020a03169263feaf968c928183019260a0928290030181865afa15801562001889573d6000803e3d6000fd5b505050506040513d601f19601f82011682018060405250810190620018af9190620025b2565b509195945050505050565b6040517f75a02c20000000000000000000000000000000000000000000000000000000008152600c600482015260609073__IterableMapping_______________________906375a02c2090602401600060405180830381865af415801562001927573d6000803e3d6000fd5b505050506040513d6000823e601f3d908101601f19168201604052620019519190810190620026c5565b905090565b805160405160e260020a6301c2d7ad02815273__IterableMapping_______________________9163070b5eb4916200199791600c91869060040162002579565b60006040518083038186803b158015620019b057600080fd5b505af4158015620019c5573d6000803e3d6000fd5b505050507f4758bcd8e425945eea731ed13074c209c3176197b970b6a78b278ad015ae907881604051620019fa919062001fd0565b60405180910390a150565b6040517fd31c830c000000000000000000000000000000000000000000000000000000008152600c60048201526024810182905260009073__IterableMapping_______________________9063d31c830c9060440161012060405180830381865af415801562001a7a573d6000803e3d6000fd5b505050506040513d601f19601f8201168201806040525081019062001aa0919062002782565b6020015192915050565b60008160ff166001148062001ac257508160ff166002145b62001b135760405160e560020a62461bcd02815260206004820152601a60248201527f73696465206d757374206265206f6e65206f662031206f722032000000000000604482015260640162000435565b600260ff831660010362001b25575060015b6003600082600281111562001b3e5762001b3e62001dd0565b600281111562001b525762001b5262001dd0565b815260200190815260200160002054915050919050565b60606005805480602002602001604051908101604052809291908181526020016000905b8282101562001caf57838290600052602060002090600602016040518060e00160405290816000820154815260200160018201805462001bcd90620023d3565b80601f016020809104026020016040519081016040528092919081815260200182805462001bfb90620023d3565b801562001c4c5780601f1062001c205761010080835404028352916020019162001c4c565b820191906000526020600020905b81548152906001019060200180831162001c2e57829003601f168201915b5050509183525050600282015460208083019190915260038301546040830152600483015460ff81166060840152600160a060020a036101009091048116608084015260059093015490921660a090910152908252600192909201910162001b8d565b50505050905090565b6040517f23b872dd000000000000000000000000000000000000000000000000000000008152600160a060020a038481166004830152838116602483015260448201839052600091908616906323b872dd906064016020604051808303816000875af115801562001d2d573d6000803e3d6000fd5b505050506040513d601f19601f8201168201806040525081019062001d539190620023b3565b90508062001da75760405160e560020a62461bcd02815260206004820152601560248201527f546f6b656e207472616e73666572206661696c65640000000000000000000000604482015260640162000435565b5050505050565b61095b80620027a383390190565b600160a060020a0391909116815260200190565b60e060020a634e487b7102600052602160045260246000fd5b6003811062001dfc5762001dfc62001dd0565b9052565b6020810162001e10828462001de9565b92915050565b60006020828403121562001e2957600080fd5b5035919050565b60006020828403121562001e4357600080fd5b81356003811062001e5357600080fd5b9392505050565b6002811062001dfc5762001dfc62001dd0565b600160a060020a038616815260a0810162001e8c602083018762001e5a565b62001e9b604083018662001de9565b6060820193909352608001529392505050565b6020810162001e10828462001e5a565b600160a060020a038116811462001ed457600080fd5b50565b803562001ee48162001ebe565b919050565b6000806000806080858703121562001f0057600080fd5b843562001f0d8162001ebe565b935060208501359250604085013562001f268162001ebe565b9396929550929360600135925050565b805182526020810151600160a060020a03808216602085015280604084015116604085015280606084015116606085015250506080810151608083015260a081015162001f8e60a0840182600160a060020a03169052565b5060c081015162001faa60c0840182600160a060020a03169052565b5060e081015160e08301526101008082015162001fca8285018215159052565b50505050565b610120810162001e10828462001f36565b803560ff8116811462001ee457600080fd5b6000806000606084860312156200200957600080fd5b8335620020168162001ebe565b9250602084013591506200202d6040850162001fe1565b90509250925092565b6020808252825182820181905260009190848201906040850190845b818110156200207d576200206883855162001f36565b92840192610120929092019160010162002052565b50909695505050505050565b60e060020a634e487b7102600052604160045260246000fd5b604051610120810167ffffffffffffffff81118282101715620020c957620020c962002089565b60405290565b604051601f8201601f1916810167ffffffffffffffff81118282101715620020fb57620020fb62002089565b604052919050565b801515811462001ed457600080fd5b803562001ee48162002103565b600061012082840312156200213357600080fd5b6200213d620020a2565b823581526200214f6020840162001ed7565b6020820152620021626040840162001ed7565b6040820152620021756060840162001ed7565b6060820152608083013560808201526200219260a0840162001ed7565b60a0820152620021a560c0840162001ed7565b60c082015260e083013560e0820152610100620021c481850162002112565b908201529392505050565b600060208284031215620021e257600080fd5b62001e538262001fe1565b6020808252825182820181905260009190604090818501908084028601830187850186805b84811015620022ee57603f198a8503018652825160e08151865289820151818b880152805180838901528592505b8083101562002261578183018c01518884016101000152918b019162002240565b61010092508583828a0101528a8401518b890152606091508184015182890152608091508184015162002298838a018260ff169052565b5060a0915081840151620022b6838a0182600160a060020a03169052565b5060c093840151600160a060020a03811689860152939150988b0198601f01601f191696909601019450509187019160010162002212565b50919998505050505050505050565b6000602082840312156200231057600080fd5b5051919050565b60e060020a634e487b7102600052601160045260246000fd5b600082620023515760e060020a634e487b7102600052601260045260246000fd5b500490565b808202811582820484141762001e105762001e1062002317565b8082018082111562001e105762001e1062002317565b6000602082840312156200239957600080fd5b815162001e538162001ebe565b805162001ee48162002103565b600060208284031215620023c657600080fd5b815162001e538162002103565b600281046001821680620023e857607f821691505b6020821081036200240c5760e060020a634e487b7102600052602260045260246000fd5b50919050565b601f8211156200245c576000818152602081206020601f860104810160208610156200243b5750805b6020601f860104820191505b8181101562000ed75782815560010162002447565b505050565b815167ffffffffffffffff8111156200247e576200247e62002089565b62002496816200248f8454620023d3565b8462002412565b602080601f831160018114620024d25760008415620024b55750858301515b60028086026008870290910a600019041982161786555062000ed7565b600085815260208120601f198616915b828110156200250357888601518255948401946001909101908401620024e2565b50858210156200252457878501516008601f88160260020a60001904191681555b5050505050600202600101905550565b60006001820162002549576200254962002317565b5060010190565b600160a060020a0394909416845260ff9290921660208401526040830152606082015260800190565b83815260208101839052610160810162000d9f604083018462001f36565b805169ffffffffffffffffffff8116811462001ee457600080fd5b600080600080600060a08688031215620025cb57600080fd5b620025d68662002597565b9450602086015193506040860151925060608601519150620025fb6080870162002597565b90509295509295909350565b805162001ee48162001ebe565b600061012082840312156200262857600080fd5b62002632620020a2565b905081518152620026466020830162002607565b6020820152620026596040830162002607565b60408201526200266c6060830162002607565b6060820152608082015160808201526200268960a0830162002607565b60a08201526200269c60c0830162002607565b60c082015260e082015160e0820152610100620026bb818401620023a6565b9082015292915050565b60006020808385031215620026d957600080fd5b825167ffffffffffffffff80821115620026f257600080fd5b818501915085601f8301126200270757600080fd5b8151818111156200271c576200271c62002089565b6200272b8485830201620020cf565b81815284810192506101209182028401850191888311156200274c57600080fd5b938501935b82851015620027765762002766898662002614565b8452938401939285019262002751565b50979650505050505050565b600061012082840312156200279657600080fd5b62001e5383836200261456fe608060405234801561001057600080fd5b5060405161095b38038061095b83398101604081905261002f916101ef565b6000805433600160a060020a0319918216179091556001879055600280548216600160a060020a03888116918217909255600380548416888416908117909155600587905560078054851693871693909317909255600984905560048054909316821783556040517f70a082310000000000000000000000000000000000000000000000000000000081529283015284916370a0823190602401602060405180830381865afa1580156100e6573d6000803e3d6000fd5b505050506040513d601f19601f8201168201806040525081019061010a919061024e565b101561019e57604080517f08c379a00000000000000000000000000000000000000000000000000000000081526020600482015260248101919091527f706c6179657220312068617320696e73756666696369656e742062616c616e6360448201527f65206f6620746f6b656e203120746f206372656174652061206c697374696e67606482015260840160405180910390fd5b5060088054600160a060020a031916600160a060020a03929092169190911790555050600a805460ff19169055506102679050565b8051600160a060020a03811681146101ea57600080fd5b919050565b60008060008060008060c0878903121561020857600080fd5b86519550610218602088016101d3565b9450610226604088016101d3565b93506060870151925061023b608088016101d3565b915060a087015190509295509295509295565b60006020828403121561026057600080fd5b5051919050565b6106e5806102766000396000f3fe608060405234801561001057600080fd5b50600436106100d1576000357c010000000000000000000000000000000000000000000000000000000090048063c4e5edcd1161008e578063c4e5edcd14610176578063d21220a71461017f578063d30895e414610192578063d5488048146101a5578063d70c6703146101b8578063e2d46f98146101c157600080fd5b806302d05d3f146100d657806325be124e1461010657806358aaf0be1461011957806359a5f12d1461012c5780636f6ff4051461013f5780639405dfdd1461015f575b600080fd5b6000546100e990600160a060020a031681565b604051600160a060020a0390911681526020015b60405180910390f35b6007546100e990600160a060020a031681565b6008546100e990600160a060020a031681565b6006546100e990600160a060020a031681565b61015261014d366004610593565b6101de565b6040516100fd91906105c3565b61016860015481565b6040519081526020016100fd565b61016860095481565b6003546100e990600160a060020a031681565b6002546100e990600160a060020a031681565b6004546100e990600160a060020a031681565b61016860055481565b600a546101ce9060ff1681565b60405190151581526020016100fd565b6040805161012081018252600080825260208201819052918101829052606081018290526080810182905260a0810182905260c0810182905260e081018290526101008101919091526005546004805460025460405160e160020a636eb1769f028152600160a060020a0391821693810193909352306024840152169063dd62ed3e90604401602060405180830381865afa158015610281573d6000803e3d6000fd5b505050506040513d601f19601f820116820180604052508101906102a59190610674565b10156102fb5760405160e560020a62461bcd02815260206004820152601960248201527f546f6b656e203120616c6c6f77616e636520746f6f206c6f770000000000000060448201526064015b60405180910390fd5b60095460085460405160e160020a636eb1769f028152600160a060020a0385811660048301523060248301529091169063dd62ed3e90604401602060405180830381865afa158015610351573d6000803e3d6000fd5b505050506040513d601f19601f820116820180604052508101906103759190610674565b10156103c65760405160e560020a62461bcd02815260206004820152601960248201527f546f6b656e203220616c6c6f77616e636520746f6f206c6f770000000000000060448201526064016102f2565b6004546002546005546103e892600160a060020a0390811692169085906104a2565b60085460025460095461040b92600160a060020a039081169286929116906104a2565b506006805473ffffffffffffffffffffffffffffffffffffffff1916600160a060020a03928316908117909155600a805460ff1916600190811790915560408051610120810182528254815230602082015260025485169181019190915260035484166060820152600554608082015260a081019290925260075490921660c082015260095460e082015261010081019190915290565b6040517f23b872dd000000000000000000000000000000000000000000000000000000008152600160a060020a038481166004830152838116602483015260448201839052600091908616906323b872dd906064016020604051808303816000875af1158015610516573d6000803e3d6000fd5b505050506040513d601f19601f8201168201806040525081019061053a919061068d565b90508061058c5760405160e560020a62461bcd02815260206004820152601560248201527f546f6b656e207472616e73666572206661696c6564000000000000000000000060448201526064016102f2565b5050505050565b6000602082840312156105a557600080fd5b8135600160a060020a03811681146105bc57600080fd5b9392505050565b600061012082019050825182526020830151600160a060020a0380821660208501528060408601511660408501525050606083015161060d6060840182600160a060020a03169052565b506080830151608083015260a083015161063260a0840182600160a060020a03169052565b5060c083015161064d60c0840182600160a060020a03169052565b5060e083015160e08301526101008084015161066c8285018215159052565b505092915050565b60006020828403121561068657600080fd5b5051919050565b60006020828403121561069f57600080fd5b815180151581146105bc57600080fdfea2646970667358221220e1939a75a7a2c9d68bbe195f79c3d4a859a111ea3dee0bd7ddd8e8ba3c5f332264736f6c63430008110033a26469706673582212206dc255640e49389330d66860952ba03ab9bea4e0d60d1c23150925aea8d5f95264736f6c6343000811003360806040523480156200001157600080fd5b506040516200154538038062001545833981016040819052620000349162000164565b60068054600160a060020a0319163317905560046200005484826200027f565b5060056200006383826200027f565b506000908155600155505060078054600160a060020a0319163317905562000351565b7f4e487b7100000000000000000000000000000000000000000000000000000000600052604160045260246000fd5b600082601f830112620000c757600080fd5b81516001604060020a0380821115620000e457620000e462000086565b604051601f8301601f19908116603f011681019082821181831017156200010f576200010f62000086565b816040528381526020925086838588010111156200012c57600080fd5b600091505b8382101562000150578582018301518183018401529082019062000131565b600093810190920192909252949350505050565b6000806000606084860312156200017a57600080fd5b83516001604060020a03808211156200019257600080fd5b620001a087838801620000b5565b94506020860151915080821115620001b757600080fd5b50620001c686828701620000b5565b925050604084015190509250925092565b600281046001821680620001ec57607f821691505b60208210810362000226577f4e487b7100000000000000000000000000000000000000000000000000000000600052602260045260246000fd5b50919050565b601f8211156200027a576000818152602081206020601f86010481016020861015620002555750805b6020601f860104820191505b81811015620002765782815560010162000261565b5050505b505050565b81516001604060020a038111156200029b576200029b62000086565b620002b381620002ac8454620001d7565b846200022c565b602080601f831160018114620002ef5760008415620002d25750858301515b60028086026008870290910a600019041982161786555062000276565b600085815260208120601f198616915b828110156200032057888601518255948401946001909101908401620002ff565b50858210156200034157878501516008601f88160260020a60001904191681555b5050505050600202600101905550565b6111e480620003616000396000f3fe608060405234801561001057600080fd5b50600436106100c35760003560e060020a9004806342966c681161008057806342966c681461015157806370a082311461016457806395d89b41146101845780639ea3c8201461018c578063a9059cbb146101ac578063dd62ed3e146101bf578063de6a8dc5146101ea57600080fd5b806306fdde03146100c8578063095ea7b3146100e657806318160ddd1461010957806319d1997a1461012057806323b872dd1461012957806340c10f191461013c575b600080fd5b6100d06101fd565b6040516100dd9190610d68565b60405180910390f35b6100f96100f4366004610dce565b61028b565b60405190151581526020016100dd565b61011260015481565b6040519081526020016100dd565b61011260005481565b6100f9610137366004610dfa565b61031a565b61014f61014a366004610dce565b6104ca565b005b61014f61015f366004610e3b565b61062a565b610112610172366004610e54565b60026020526000908152604090205481565b6100d06106c2565b61019f61019a366004610e54565b6106cf565b6040516100dd9190610e78565b6100f96101ba366004610dce565b610ae5565b6101126101cd366004610f29565b600360209081526000928352604080842090915290825290205481565b61019f6101f8366004610f62565b610bcb565b6004805461020a90610f89565b80601f016020809104026020016040519081016040528092919081815260200182805461023690610f89565b80156102835780601f1061025857610100808354040283529160200191610283565b820191906000526020600020905b81548152906001019060200180831161026657829003601f168201915b505050505081565b336000908152600260205260408120548211156102c65760405160e560020a62461bcd0281526004016102bd90610fc6565b60405180910390fd5b336000818152600360209081526040808320600160a060020a038816808552908352928190208690555185815291929160008051602061118f83398151915291015b60405180910390a35060015b92915050565b600160a060020a03831660009081526003602090815260408083203384529091528120548211156103b65760405160e560020a62461bcd02815260206004820152602f60248201527f696e73756666696369656e7420616c6c6f77616e636520746f2072656369706960448201527f656e742066726f6d2073656e646572000000000000000000000000000000000060648201526084016102bd565b600160a060020a0384166000908152600260205260409020548211156103f15760405160e560020a62461bcd0281526004016102bd90610fc6565b600160a060020a038416600090815260036020908152604080832033845290915281208054849290610424908490611016565b9091555050600160a060020a03841660009081526002602052604081208054849290610451908490611016565b9091555050600160a060020a0383166000908152600260205260408120805484929061047e908490611029565b9250508190555082600160a060020a031684600160a060020a031660008051602061116f833981519152846040516104b891815260200190565b60405180910390a35060019392505050565b600654600160a060020a031633146105275760405160e560020a62461bcd02815260206004820152600e60248201527f4e6f7420617574686f72697a656400000000000000000000000000000000000060448201526064016102bd565b600054816001546105389190611029565b11156105b1576040805160e560020a62461bcd0281526020600482015260248101919091527f63616e6e6f74206d696e74207468652072657175657374656420616d6f756e7460448201527f206f6620746f6b656e732c20737570706c79206c696d697420746f6f206c6f7760648201526084016102bd565b600160a060020a038216600090815260026020526040812080548392906105d9908490611029565b9250508190555080600160008282546105f29190611029565b9091555050604051818152600160a060020a0383169060009060008051602061116f8339815191529060200160405180910390a35050565b3360009081526002602052604090205481111561065c5760405160e560020a62461bcd0281526004016102bd90610fc6565b336000908152600260205260408120805483929061067b908490611016565b9250508190555080600160008282546106949190611016565b9091555050604051818152600090339060008051602061116f8339815191529060200160405180910390a350565b6005805461020a90610f89565b6106d7610d1c565b600082905030600160a060020a031681600160a060020a03166325be124e6040518163ffffffff1660e060020a028152600401602060405180830381865afa158015610727573d6000803e3d6000fd5b505050506040513d601f19601f8201168201806040525081019061074b919061104c565b600160a060020a0316146107a45760405160e560020a62461bcd02815260206004820181905260248201527f6c697374696e672077616e7473206120646966666572656e7420746f6b656e3260448201526064016102bd565b80600160a060020a031663c4e5edcd6040518163ffffffff1660e060020a028152600401602060405180830381865afa1580156107e5573d6000803e3d6000fd5b505050506040513d601f19601f820116820180604052508101906108099190611069565b33600090815260026020526040902054101561083a5760405160e560020a62461bcd0281526004016102bd90610fc6565b80600160a060020a031663c4e5edcd6040518163ffffffff1660e060020a028152600401602060405180830381865afa15801561087b573d6000803e3d6000fd5b505050506040513d601f19601f8201168201806040525081019061089f9190611069565b336000908152600360209081526040808320600160a060020a0388168452909152812080549091906108d2908490611029565b9250508190555082600160a060020a031633600160a060020a031660008051602061118f83398151915283600160a060020a031663c4e5edcd6040518163ffffffff1660e060020a028152600401602060405180830381865afa15801561093d573d6000803e3d6000fd5b505050506040513d601f19601f820116820180604052508101906109619190611069565b60405190815260200160405180910390a36040517f6f6ff405000000000000000000000000000000000000000000000000000000008152336004820152600090600160a060020a03831690636f6ff40590602401610120604051808303816000875af11580156109d5573d6000803e3d6000fd5b505050506040513d601f19601f820116820180604052508101906109f991906110cd565b9050600082600160a060020a03166302d05d3f6040518163ffffffff1660e060020a028152600401602060405180830381865afa158015610a3e573d6000803e3d6000fd5b505050506040513d601f19601f82011682018060405250810190610a62919061104c565b6040517fdc8046f0000000000000000000000000000000000000000000000000000000008152909150600160a060020a0382169063dc8046f090610aaa908590600401610e78565b600060405180830381600087803b158015610ac457600080fd5b505af1158015610ad8573d6000803e3d6000fd5b5093979650505050505050565b33600090815260026020526040812054821115610b175760405160e560020a62461bcd0281526004016102bd90610fc6565b3360009081526002602052604081208054849290610b36908490611016565b9091555050600160a060020a03831660009081526002602052604081208054849290610b63908490611029565b9091555050336000908152600360209081526040808320600160a060020a038716845290915281208054849290610b9b908490611016565b9091555050604051828152600160a060020a03841690339060008051602061116f83398151915290602001610308565b610bd3610d1c565b33600090815260026020526040902054841115610c055760405160e560020a62461bcd0281526004016102bd90610fc6565b6007546040517f2cd1adfe00000000000000000000000000000000000000000000000000000000815233600482015260248101869052600160a060020a038581166044830152606482018590526000921690632cd1adfe90608401610120604051808303816000875af1158015610c80573d6000803e3d6000fd5b505050506040513d601f19601f82011682018060405250810190610ca491906110cd565b602080820151336000908152600383526040808220600160a060020a038416835290935291822080549394509092889290610ce0908490611029565b9091555050604051868152600160a060020a03821690339060008051602061118f8339815191529060200160405180910390a350949350505050565b6040805161012081018252600080825260208201819052918101829052606081018290526080810182905260a0810182905260c0810182905260e0810182905261010081019190915290565b600060208083528351808285015260005b81811015610d9557858101830151858201604001528201610d79565b506000604082860101526040601f19601f8301168501019250505092915050565b600160a060020a0381168114610dcb57600080fd5b50565b60008060408385031215610de157600080fd5b8235610dec81610db6565b946020939093013593505050565b600080600060608486031215610e0f57600080fd5b8335610e1a81610db6565b92506020840135610e2a81610db6565b929592945050506040919091013590565b600060208284031215610e4d57600080fd5b5035919050565b600060208284031215610e6657600080fd5b8135610e7181610db6565b9392505050565b600061012082019050825182526020830151600160a060020a03808216602085015280604086015116604085015250506060830151610ec26060840182600160a060020a03169052565b506080830151608083015260a0830151610ee760a0840182600160a060020a03169052565b5060c0830151610f0260c0840182600160a060020a03169052565b5060e083015160e083015261010080840151610f218285018215159052565b505092915050565b60008060408385031215610f3c57600080fd5b8235610f4781610db6565b91506020830135610f5781610db6565b809150509250929050565b600080600060608486031215610f7757600080fd5b833592506020840135610e2a81610db6565b600281046001821680610f9d57607f821691505b602082108103610fc05760e060020a634e487b7102600052602260045260246000fd5b50919050565b6020808252601e908201527f696e73756666696369656e742062616c616e636520696e2073656e6465720000604082015260600190565b60e060020a634e487b7102600052601160045260246000fd5b8181038181111561031457610314610ffd565b8082018082111561031457610314610ffd565b805161104781610db6565b919050565b60006020828403121561105e57600080fd5b8151610e7181610db6565b60006020828403121561107b57600080fd5b5051919050565b604051610120810167ffffffffffffffff811182821017156110b75760e060020a634e487b7102600052604160045260246000fd5b60405290565b8051801515811461104757600080fd5b600061012082840312156110e057600080fd5b6110e8611082565b825181526110f86020840161103c565b60208201526111096040840161103c565b604082015261111a6060840161103c565b60608201526080830151608082015261113560a0840161103c565b60a082015261114660c0840161103c565b60c082015260e083015160e08201526101006111638185016110bd565b90820152939250505056feddf252ad1be2c89b69c2b068fc378daa952ba7f163c4a11628f55a4df523b3ef8c5be1e5ebec7d5bd14f71427d1e84f3dd0314c0f7b2291e5b200ac8c7c3b925a2646970667358221220a3e06f258f56231d0a6a444ee00d3560466597041ef486396eb77b1165f98e6964736f6c63430008110033a264697066735822122057b43e7c59e30f9d5f9e3015325ae04e11a5cce8029af3c7ff59d4f82dc7d8a764736f6c63430008110033",
  "immutableReferences": {},
  "source": "// SPDX-License-Identifier: MIT\npragma solidity >=0.4.22 <0.9.0;\n\nimport \"./MainToken.sol\";\nimport \"./GameContract.sol\";\nimport \"./GameContractFactory.sol\";\nimport \"./Models.sol\";\nimport \"@openzeppelin/contracts/utils/math/SafeMath.sol\";\nimport \"@openzeppelin/contracts/token/ERC20/IERC20.sol\";\n\ncontract HwangMarket {\n  using SafeMath for uint256;\n  address public mainTokenAddress;\n  MainToken public mainToken;\n\n  // // game contract factory is used to reduce contract build size :(\n  GameContractFactory gameFactory;\n\n  // // for all activity\n  uint256 private trxId;\n\n  // // for all games created\n  uint256 private gameCount;\n  mapping(uint256 => address) public gameId2Addr;\n  mapping(address => uint256) public gameAddr2Id;\n  \n  // for all ongoing games\n  uint256 private ongoingGamesCnt; // record end of ongoing games array\n  address[] public ongoingGames;\n  mapping(uint256 => int256) ongoingGamesId2Idx;\n\n  // for all closed games\n  address[] public closedGames;\n\n  // Activity types constant\n  string constant BetActivityType = \"BET\";\n  string constant WithdrawActivityType = \"WITHDRAW\";\n\n  mapping(address => Models.Activity[]) public playersRecords;\n\n  constructor() {\n    // we start counting from game 1, game id 0 is nonsense since its also default value\n    gameCount = 1;\n    mainToken = new MainToken();\n    mainTokenAddress = address(mainToken);\n    gameFactory = new GameContractFactory();\n  }\n\n  event GameCreated(Models.GameMetadata gameMetadata);\n  event PlayerJoinedGameEvent(address player, uint256 gameId, address gameAddr, uint8 betSide, uint256 amount);\n  event PlayerWithdrawedWinnings(address player, uint256 gameId, address gameAddr, uint8 betSide, uint256 withdrawedAmt);\n  event GameConcluded(uint256 gameId, address gameAddr, uint8 gameOutcome);\n  event NewListing(Models.ListingInfo listingInfo);\n  event ListingFulfilled(Models.ListingInfo listingInfo);\n\n  // create game contract instance\n  function createGame(uint256 resolveTime, address oracleAddr, int256 threshold, string memory tag, string memory title) public returns (address) {\n    GameContract newGame = gameFactory.createGame(address(this), resolveTime, oracleAddr, threshold); \n    address newGameAddress = address(newGame);\n    gameId2Addr[gameCount] = newGameAddress;\n\n    gameAddr2Id[newGameAddress] = gameCount;\n\n    ongoingGamesId2Idx[gameCount] = int256(ongoingGamesCnt);\n    ongoingGames.push(newGameAddress);\n\n    ongoingGamesCnt = SafeMath.add(ongoingGamesCnt, 1);\n\n    emit GameCreated(Models.GameMetadata({\n      id: gameCount,\n      createdTime: block.timestamp,\n      addr: newGameAddress,\n      tag: tag,\n      title: title,\n      oracleAddr: oracleAddr,\n      resolveTime: resolveTime,\n      threshold: threshold,\n      totalAmount: 0,\n      betYesAmount: 0,\n      betNoAmount: 0,\n      ongoing: true,\n      gameOutcome: 0\n    }));\n\n    gameCount = SafeMath.add(gameCount, 1);\n    return newGameAddress;\n  }\n  \n  // fetches all games\n  function getAllGames() public view returns (Models.AllGames memory) {\n    return Models.AllGames({ongoingGames: ongoingGames, closedGames: closedGames});\n  }\n\n  // callable only by the game itself\n  // A player joined the game on a particular side\n  function playerJoinedSide(address player, uint8 betSide, uint256 amount, uint256 timestamp) external {\n    require(gameAddr2Id[msg.sender] != 0 && ongoingGamesId2Idx[gameAddr2Id[msg.sender]] != -1);\n    address gameAddr = msg.sender;\n    uint256 gameId = gameAddr2Id[gameAddr];\n\n    // record this activity as well\n    playersRecords[player].push(Models.Activity({\n      trxId: trxId,\n      activityType: BetActivityType,\n      gameId: gameId,\n      trxAmt: amount,\n      trxTime: timestamp,\n      gameSide: betSide,\n      from: player,\n      to: gameAddr\n    }));\n\n    trxId = SafeMath.add(trxId, 1);\n\n    emit PlayerJoinedGameEvent(player, gameId, gameAddr, betSide, amount);\n  }\n\n  // callable only by contract\n  // note: withdraw winnings means recording player's owned game tokens -> hwang market tokens\n  function playerWithdrawWinnings(address _player, uint8 betSide, uint256 withdrawAmt, uint256 timestamp) external {\n    require(gameAddr2Id[msg.sender] != 0);\n    address gameAddr = msg.sender;\n    uint256 gameId = gameAddr2Id[gameAddr];\n    playersRecords[_player].push(Models.Activity({\n      trxId: trxId,\n      activityType: WithdrawActivityType,\n      gameId: gameId,\n      trxAmt: withdrawAmt,\n      trxTime: timestamp,\n      gameSide: betSide,\n      from: gameAddr,\n      to: _player\n    }));\n\n    trxId = SafeMath.add(trxId, 1);\n\n    emit PlayerWithdrawedWinnings(_player, gameId, gameAddr, betSide, withdrawAmt);\n  }\n\n  function concludeGame(uint8 gameOutcome) external {\n    require(gameAddr2Id[msg.sender] != 0);\n    address gameAddr = msg.sender;\n    uint256 gameId = gameAddr2Id[gameAddr];\n\n    // move game out of existing ongoing games\n    int256 temp = ongoingGamesId2Idx[gameId];\n    if (temp == -1) { // already concluded\n      return;\n    }\n    uint256 existingGameIdx = uint256(temp);\n    address finishedGameAddress = ongoingGames[existingGameIdx];\n    address lastOngoingGameAddress = ongoingGames[SafeMath.sub(ongoingGamesCnt, 1)];\n    ongoingGamesId2Idx[gameAddr2Id[lastOngoingGameAddress]] = int256(existingGameIdx);\n    ongoingGamesId2Idx[gameId] = -1;\n    ongoingGames[existingGameIdx] = lastOngoingGameAddress;\n    ongoingGamesCnt = SafeMath.sub(ongoingGamesCnt, 1);\n\n    // add this game to array of closedGames\n    closedGames.push(finishedGameAddress);\n    ongoingGames.pop();\n\n    emit GameConcluded(gameId, gameAddr, gameOutcome);\n  }\n\n  // to get smart contract's balance\n  function getBalance() public view returns (uint256) {\n    return address(this).balance;\n  }\n\n  function getPlayersTrxRecords(address player) public view returns (Models.Activity[] memory) {\n    return playersRecords[player];\n  }\n\n  function checkAllOngoingGamesUpkeep() external {\n    for (uint256 i=0; i<ongoingGamesCnt; i++) {\n      GameContract(ongoingGames[i]).performUpkeep();\n    }\n  }\n}\n",
  "sourcePath": "/Users/gerald/Desktop/HwangMarket/contracts/HwangMarket.sol",
  "compiler": {
    "name": "solc",
    "version": "0.8.17+commit.8df45f5f.Emscripten.clang"
  },
  "schemaVersion": "3.4.10",
  "updatedAt": "2022-11-02T19:07:39.097Z",
  "devdoc": {
    "kind": "dev",
    "methods": {},
    "version": 1
  },
  "userdoc": {
    "kind": "user",
    "methods": {},
    "version": 1
  }
}