{
  "contractName": "HwangMarket",
  "abi": [
    {
      "inputs": [],
      "stateMutability": "nonpayable",
      "type": "constructor"
    },
    {
      "anonymous": false,
      "inputs": [
        {
          "indexed": false,
          "internalType": "uint256",
          "name": "gameId",
          "type": "uint256"
        },
        {
          "indexed": false,
          "internalType": "address",
          "name": "gameAddr",
          "type": "address"
        },
        {
          "indexed": false,
          "internalType": "uint8",
          "name": "gameOutcome",
          "type": "uint8"
        }
      ],
      "name": "GameConcluded",
      "type": "event"
    },
    {
      "anonymous": false,
      "inputs": [
        {
          "components": [
            {
              "internalType": "uint256",
              "name": "id",
              "type": "uint256"
            },
            {
              "internalType": "address",
              "name": "addr",
              "type": "address"
            },
            {
              "internalType": "string",
              "name": "tag",
              "type": "string"
            },
            {
              "internalType": "string",
              "name": "title",
              "type": "string"
            },
            {
              "internalType": "address",
              "name": "oracleAddr",
              "type": "address"
            },
            {
              "internalType": "uint256",
              "name": "resolveTime",
              "type": "uint256"
            },
            {
              "internalType": "int256",
              "name": "threshold",
              "type": "int256"
            },
            {
              "internalType": "uint256",
              "name": "totalAmount",
              "type": "uint256"
            },
            {
              "internalType": "uint256",
              "name": "betYesAmount",
              "type": "uint256"
            },
            {
              "internalType": "uint256",
              "name": "betNoAmount",
              "type": "uint256"
            },
            {
              "internalType": "bool",
              "name": "ongoing",
              "type": "bool"
            },
            {
              "internalType": "uint8",
              "name": "gameOutcome",
              "type": "uint8"
            }
          ],
          "indexed": false,
          "internalType": "struct Models.GameMetadata",
          "name": "gameMetadata",
          "type": "tuple"
        }
      ],
      "name": "GameCreated",
      "type": "event"
    },
    {
      "anonymous": false,
      "inputs": [
        {
          "indexed": false,
          "internalType": "address",
          "name": "player",
          "type": "address"
        },
        {
          "indexed": false,
          "internalType": "uint256",
          "name": "gameId",
          "type": "uint256"
        },
        {
          "indexed": false,
          "internalType": "address",
          "name": "gameAddr",
          "type": "address"
        },
        {
          "indexed": false,
          "internalType": "uint8",
          "name": "betSide",
          "type": "uint8"
        },
        {
          "indexed": false,
          "internalType": "uint256",
          "name": "amount",
          "type": "uint256"
        }
      ],
      "name": "PlayerJoinedGameEvent",
      "type": "event"
    },
    {
      "anonymous": false,
      "inputs": [
        {
          "indexed": false,
          "internalType": "address",
          "name": "player",
          "type": "address"
        },
        {
          "indexed": false,
          "internalType": "uint256",
          "name": "gameId",
          "type": "uint256"
        },
        {
          "indexed": false,
          "internalType": "address",
          "name": "gameAddr",
          "type": "address"
        },
        {
          "indexed": false,
          "internalType": "uint8",
          "name": "betSide",
          "type": "uint8"
        },
        {
          "indexed": false,
          "internalType": "uint256",
          "name": "withdrawedAmt",
          "type": "uint256"
        }
      ],
      "name": "PlayerWithdrawedWinnings",
      "type": "event"
    },
    {
      "inputs": [
        {
          "internalType": "uint256",
          "name": "",
          "type": "uint256"
        }
      ],
      "name": "closedGames",
      "outputs": [
        {
          "internalType": "uint256",
          "name": "id",
          "type": "uint256"
        },
        {
          "internalType": "address",
          "name": "addr",
          "type": "address"
        },
        {
          "internalType": "string",
          "name": "tag",
          "type": "string"
        },
        {
          "internalType": "string",
          "name": "title",
          "type": "string"
        },
        {
          "internalType": "address",
          "name": "oracleAddr",
          "type": "address"
        },
        {
          "internalType": "uint256",
          "name": "resolveTime",
          "type": "uint256"
        },
        {
          "internalType": "int256",
          "name": "threshold",
          "type": "int256"
        },
        {
          "internalType": "uint256",
          "name": "totalAmount",
          "type": "uint256"
        },
        {
          "internalType": "uint256",
          "name": "betYesAmount",
          "type": "uint256"
        },
        {
          "internalType": "uint256",
          "name": "betNoAmount",
          "type": "uint256"
        },
        {
          "internalType": "bool",
          "name": "ongoing",
          "type": "bool"
        },
        {
          "internalType": "uint8",
          "name": "gameOutcome",
          "type": "uint8"
        }
      ],
      "stateMutability": "view",
      "type": "function",
      "constant": true
    },
    {
      "inputs": [
        {
          "internalType": "address",
          "name": "",
          "type": "address"
        }
      ],
      "name": "gameAddr2Id",
      "outputs": [
        {
          "internalType": "uint256",
          "name": "",
          "type": "uint256"
        }
      ],
      "stateMutability": "view",
      "type": "function",
      "constant": true
    },
    {
      "inputs": [
        {
          "internalType": "uint256",
          "name": "",
          "type": "uint256"
        }
      ],
      "name": "gameContractRegistry",
      "outputs": [
        {
          "internalType": "uint256",
          "name": "id",
          "type": "uint256"
        },
        {
          "internalType": "address",
          "name": "addr",
          "type": "address"
        },
        {
          "internalType": "string",
          "name": "tag",
          "type": "string"
        },
        {
          "internalType": "string",
          "name": "title",
          "type": "string"
        },
        {
          "internalType": "address",
          "name": "oracleAddr",
          "type": "address"
        },
        {
          "internalType": "uint256",
          "name": "resolveTime",
          "type": "uint256"
        },
        {
          "internalType": "int256",
          "name": "threshold",
          "type": "int256"
        },
        {
          "internalType": "uint256",
          "name": "totalAmount",
          "type": "uint256"
        },
        {
          "internalType": "uint256",
          "name": "betYesAmount",
          "type": "uint256"
        },
        {
          "internalType": "uint256",
          "name": "betNoAmount",
          "type": "uint256"
        },
        {
          "internalType": "bool",
          "name": "ongoing",
          "type": "bool"
        },
        {
          "internalType": "uint8",
          "name": "gameOutcome",
          "type": "uint8"
        }
      ],
      "stateMutability": "view",
      "type": "function",
      "constant": true
    },
    {
      "inputs": [
        {
          "internalType": "address",
          "name": "",
          "type": "address"
        }
      ],
      "name": "gameTokensRegistry",
      "outputs": [
        {
          "internalType": "address",
          "name": "tokenAddr",
          "type": "address"
        },
        {
          "internalType": "uint8",
          "name": "betSide",
          "type": "uint8"
        },
        {
          "internalType": "uint256",
          "name": "gameId",
          "type": "uint256"
        },
        {
          "internalType": "address",
          "name": "gameAddr",
          "type": "address"
        },
        {
          "internalType": "string",
          "name": "gameTag",
          "type": "string"
        },
        {
          "internalType": "string",
          "name": "gameTitle",
          "type": "string"
        },
        {
          "internalType": "address",
          "name": "gameOracleAddr",
          "type": "address"
        },
        {
          "internalType": "uint256",
          "name": "gameResolveTime",
          "type": "uint256"
        },
        {
          "internalType": "int256",
          "name": "gameThreshold",
          "type": "int256"
        }
      ],
      "stateMutability": "view",
      "type": "function",
      "constant": true
    },
    {
      "inputs": [],
      "name": "listingsCount",
      "outputs": [
        {
          "internalType": "uint256",
          "name": "",
          "type": "uint256"
        }
      ],
      "stateMutability": "view",
      "type": "function",
      "constant": true
    },
    {
      "inputs": [],
      "name": "mainToken",
      "outputs": [
        {
          "internalType": "contract MainToken",
          "name": "",
          "type": "address"
        }
      ],
      "stateMutability": "view",
      "type": "function",
      "constant": true
    },
    {
      "inputs": [],
      "name": "mainTokenAddress",
      "outputs": [
        {
          "internalType": "address",
          "name": "",
          "type": "address"
        }
      ],
      "stateMutability": "view",
      "type": "function",
      "constant": true
    },
    {
      "inputs": [
        {
          "internalType": "uint256",
          "name": "",
          "type": "uint256"
        }
      ],
      "name": "ongoingGames",
      "outputs": [
        {
          "internalType": "uint256",
          "name": "id",
          "type": "uint256"
        },
        {
          "internalType": "address",
          "name": "addr",
          "type": "address"
        },
        {
          "internalType": "string",
          "name": "tag",
          "type": "string"
        },
        {
          "internalType": "string",
          "name": "title",
          "type": "string"
        },
        {
          "internalType": "address",
          "name": "oracleAddr",
          "type": "address"
        },
        {
          "internalType": "uint256",
          "name": "resolveTime",
          "type": "uint256"
        },
        {
          "internalType": "int256",
          "name": "threshold",
          "type": "int256"
        },
        {
          "internalType": "uint256",
          "name": "totalAmount",
          "type": "uint256"
        },
        {
          "internalType": "uint256",
          "name": "betYesAmount",
          "type": "uint256"
        },
        {
          "internalType": "uint256",
          "name": "betNoAmount",
          "type": "uint256"
        },
        {
          "internalType": "bool",
          "name": "ongoing",
          "type": "bool"
        },
        {
          "internalType": "uint8",
          "name": "gameOutcome",
          "type": "uint8"
        }
      ],
      "stateMutability": "view",
      "type": "function",
      "constant": true
    },
    {
      "inputs": [
        {
          "internalType": "address",
          "name": "",
          "type": "address"
        },
        {
          "internalType": "uint256",
          "name": "",
          "type": "uint256"
        }
      ],
      "name": "playersRecords",
      "outputs": [
        {
          "internalType": "uint256",
          "name": "trxId",
          "type": "uint256"
        },
        {
          "internalType": "string",
          "name": "activityType",
          "type": "string"
        },
        {
          "internalType": "uint256",
          "name": "gameId",
          "type": "uint256"
        },
        {
          "internalType": "uint256",
          "name": "trxAmt",
          "type": "uint256"
        },
        {
          "internalType": "uint256",
          "name": "trxTime",
          "type": "uint256"
        },
        {
          "internalType": "uint8",
          "name": "gameSide",
          "type": "uint8"
        },
        {
          "internalType": "address",
          "name": "from",
          "type": "address"
        },
        {
          "internalType": "address",
          "name": "to",
          "type": "address"
        }
      ],
      "stateMutability": "view",
      "type": "function",
      "constant": true
    },
    {
      "inputs": [
        {
          "internalType": "uint256",
          "name": "resolveTime",
          "type": "uint256"
        },
        {
          "internalType": "address",
          "name": "oracleAddr",
          "type": "address"
        },
        {
          "internalType": "int256",
          "name": "threshold",
          "type": "int256"
        },
        {
          "internalType": "string",
          "name": "tag",
          "type": "string"
        },
        {
          "internalType": "string",
          "name": "title",
          "type": "string"
        }
      ],
      "name": "createGame",
      "outputs": [
        {
          "internalType": "address",
          "name": "",
          "type": "address"
        }
      ],
      "stateMutability": "nonpayable",
      "type": "function"
    },
    {
      "inputs": [],
      "name": "getGameCount",
      "outputs": [
        {
          "internalType": "uint256",
          "name": "",
          "type": "uint256"
        }
      ],
      "stateMutability": "view",
      "type": "function",
      "constant": true
    },
    {
      "inputs": [],
      "name": "getAllGames",
      "outputs": [
        {
          "components": [
            {
              "components": [
                {
                  "internalType": "uint256",
                  "name": "id",
                  "type": "uint256"
                },
                {
                  "internalType": "address",
                  "name": "addr",
                  "type": "address"
                },
                {
                  "internalType": "string",
                  "name": "tag",
                  "type": "string"
                },
                {
                  "internalType": "string",
                  "name": "title",
                  "type": "string"
                },
                {
                  "internalType": "address",
                  "name": "oracleAddr",
                  "type": "address"
                },
                {
                  "internalType": "uint256",
                  "name": "resolveTime",
                  "type": "uint256"
                },
                {
                  "internalType": "int256",
                  "name": "threshold",
                  "type": "int256"
                },
                {
                  "internalType": "uint256",
                  "name": "totalAmount",
                  "type": "uint256"
                },
                {
                  "internalType": "uint256",
                  "name": "betYesAmount",
                  "type": "uint256"
                },
                {
                  "internalType": "uint256",
                  "name": "betNoAmount",
                  "type": "uint256"
                },
                {
                  "internalType": "bool",
                  "name": "ongoing",
                  "type": "bool"
                },
                {
                  "internalType": "uint8",
                  "name": "gameOutcome",
                  "type": "uint8"
                }
              ],
              "internalType": "struct Models.GameMetadata[]",
              "name": "ongoingGames",
              "type": "tuple[]"
            },
            {
              "components": [
                {
                  "internalType": "uint256",
                  "name": "id",
                  "type": "uint256"
                },
                {
                  "internalType": "address",
                  "name": "addr",
                  "type": "address"
                },
                {
                  "internalType": "string",
                  "name": "tag",
                  "type": "string"
                },
                {
                  "internalType": "string",
                  "name": "title",
                  "type": "string"
                },
                {
                  "internalType": "address",
                  "name": "oracleAddr",
                  "type": "address"
                },
                {
                  "internalType": "uint256",
                  "name": "resolveTime",
                  "type": "uint256"
                },
                {
                  "internalType": "int256",
                  "name": "threshold",
                  "type": "int256"
                },
                {
                  "internalType": "uint256",
                  "name": "totalAmount",
                  "type": "uint256"
                },
                {
                  "internalType": "uint256",
                  "name": "betYesAmount",
                  "type": "uint256"
                },
                {
                  "internalType": "uint256",
                  "name": "betNoAmount",
                  "type": "uint256"
                },
                {
                  "internalType": "bool",
                  "name": "ongoing",
                  "type": "bool"
                },
                {
                  "internalType": "uint8",
                  "name": "gameOutcome",
                  "type": "uint8"
                }
              ],
              "internalType": "struct Models.GameMetadata[]",
              "name": "closedGames",
              "type": "tuple[]"
            }
          ],
          "internalType": "struct Models.AllGames",
          "name": "",
          "type": "tuple"
        }
      ],
      "stateMutability": "view",
      "type": "function",
      "constant": true
    },
    {
      "inputs": [
        {
          "internalType": "address",
          "name": "player",
          "type": "address"
        },
        {
          "internalType": "uint256",
          "name": "token1Amt",
          "type": "uint256"
        },
        {
          "internalType": "address",
          "name": "token2",
          "type": "address"
        },
        {
          "internalType": "uint256",
          "name": "token2Amt",
          "type": "uint256"
        }
      ],
      "name": "newListing",
      "outputs": [
        {
          "components": [
            {
              "internalType": "uint256",
              "name": "listingId",
              "type": "uint256"
            },
            {
              "internalType": "address",
              "name": "listingAddr",
              "type": "address"
            },
            {
              "internalType": "address",
              "name": "player1",
              "type": "address"
            },
            {
              "internalType": "address",
              "name": "token1",
              "type": "address"
            },
            {
              "internalType": "uint256",
              "name": "token1Amt",
              "type": "uint256"
            },
            {
              "internalType": "address",
              "name": "player2",
              "type": "address"
            },
            {
              "internalType": "address",
              "name": "token2",
              "type": "address"
            },
            {
              "internalType": "uint256",
              "name": "token2Amt",
              "type": "uint256"
            },
            {
              "internalType": "bool",
              "name": "fulfilled",
              "type": "bool"
            }
          ],
          "internalType": "struct Models.ListingInfo",
          "name": "",
          "type": "tuple"
        }
      ],
      "stateMutability": "nonpayable",
      "type": "function"
    },
    {
      "inputs": [],
      "name": "getAllListings",
      "outputs": [
        {
          "components": [
            {
              "internalType": "uint256",
              "name": "listingId",
              "type": "uint256"
            },
            {
              "internalType": "address",
              "name": "listingAddr",
              "type": "address"
            },
            {
              "internalType": "address",
              "name": "player1",
              "type": "address"
            },
            {
              "internalType": "address",
              "name": "token1",
              "type": "address"
            },
            {
              "internalType": "uint256",
              "name": "token1Amt",
              "type": "uint256"
            },
            {
              "internalType": "address",
              "name": "player2",
              "type": "address"
            },
            {
              "internalType": "address",
              "name": "token2",
              "type": "address"
            },
            {
              "internalType": "uint256",
              "name": "token2Amt",
              "type": "uint256"
            },
            {
              "internalType": "bool",
              "name": "fulfilled",
              "type": "bool"
            }
          ],
          "internalType": "struct Models.ListingInfo[]",
          "name": "",
          "type": "tuple[]"
        }
      ],
      "stateMutability": "view",
      "type": "function",
      "constant": true
    },
    {
      "inputs": [
        {
          "components": [
            {
              "internalType": "uint256",
              "name": "listingId",
              "type": "uint256"
            },
            {
              "internalType": "address",
              "name": "listingAddr",
              "type": "address"
            },
            {
              "internalType": "address",
              "name": "player1",
              "type": "address"
            },
            {
              "internalType": "address",
              "name": "token1",
              "type": "address"
            },
            {
              "internalType": "uint256",
              "name": "token1Amt",
              "type": "uint256"
            },
            {
              "internalType": "address",
              "name": "player2",
              "type": "address"
            },
            {
              "internalType": "address",
              "name": "token2",
              "type": "address"
            },
            {
              "internalType": "uint256",
              "name": "token2Amt",
              "type": "uint256"
            },
            {
              "internalType": "bool",
              "name": "fulfilled",
              "type": "bool"
            }
          ],
          "internalType": "struct Models.ListingInfo",
          "name": "listingInfo",
          "type": "tuple"
        }
      ],
      "name": "updateListing",
      "outputs": [],
      "stateMutability": "nonpayable",
      "type": "function"
    },
    {
      "inputs": [
        {
          "internalType": "address",
          "name": "_player",
          "type": "address"
        },
        {
          "internalType": "address",
          "name": "listingAddr",
          "type": "address"
        }
      ],
      "name": "partakeInListing",
      "outputs": [
        {
          "components": [
            {
              "internalType": "uint256",
              "name": "listingId",
              "type": "uint256"
            },
            {
              "internalType": "address",
              "name": "listingAddr",
              "type": "address"
            },
            {
              "internalType": "address",
              "name": "player1",
              "type": "address"
            },
            {
              "internalType": "address",
              "name": "token1",
              "type": "address"
            },
            {
              "internalType": "uint256",
              "name": "token1Amt",
              "type": "uint256"
            },
            {
              "internalType": "address",
              "name": "player2",
              "type": "address"
            },
            {
              "internalType": "address",
              "name": "token2",
              "type": "address"
            },
            {
              "internalType": "uint256",
              "name": "token2Amt",
              "type": "uint256"
            },
            {
              "internalType": "bool",
              "name": "fulfilled",
              "type": "bool"
            }
          ],
          "internalType": "struct Models.ListingInfo",
          "name": "",
          "type": "tuple"
        }
      ],
      "stateMutability": "nonpayable",
      "type": "function"
    },
    {
      "inputs": [
        {
          "internalType": "address",
          "name": "player",
          "type": "address"
        },
        {
          "internalType": "uint8",
          "name": "betSide",
          "type": "uint8"
        },
        {
          "internalType": "uint256",
          "name": "amount",
          "type": "uint256"
        },
        {
          "internalType": "uint256",
          "name": "timestamp",
          "type": "uint256"
        }
      ],
      "name": "playerJoinedSide",
      "outputs": [],
      "stateMutability": "nonpayable",
      "type": "function"
    },
    {
      "inputs": [
        {
          "internalType": "address",
          "name": "_player",
          "type": "address"
        },
        {
          "internalType": "uint8",
          "name": "betSide",
          "type": "uint8"
        },
        {
          "internalType": "uint256",
          "name": "withdrawAmt",
          "type": "uint256"
        },
        {
          "internalType": "uint256",
          "name": "timestamp",
          "type": "uint256"
        }
      ],
      "name": "playerWithdrawWinnings",
      "outputs": [],
      "stateMutability": "nonpayable",
      "type": "function"
    },
    {
      "inputs": [
        {
          "internalType": "uint8",
          "name": "gameOutcome",
          "type": "uint8"
        }
      ],
      "name": "concludeGame",
      "outputs": [],
      "stateMutability": "nonpayable",
      "type": "function"
    },
    {
      "inputs": [],
      "name": "getBalance",
      "outputs": [
        {
          "internalType": "uint256",
          "name": "",
          "type": "uint256"
        }
      ],
      "stateMutability": "view",
      "type": "function",
      "constant": true
    },
    {
      "inputs": [
        {
          "internalType": "address",
          "name": "player",
          "type": "address"
        }
      ],
      "name": "getPlayersTrxRecords",
      "outputs": [
        {
          "components": [
            {
              "internalType": "uint256",
              "name": "trxId",
              "type": "uint256"
            },
            {
              "internalType": "string",
              "name": "activityType",
              "type": "string"
            },
            {
              "internalType": "uint256",
              "name": "gameId",
              "type": "uint256"
            },
            {
              "internalType": "uint256",
              "name": "trxAmt",
              "type": "uint256"
            },
            {
              "internalType": "uint256",
              "name": "trxTime",
              "type": "uint256"
            },
            {
              "internalType": "uint8",
              "name": "gameSide",
              "type": "uint8"
            },
            {
              "internalType": "address",
              "name": "from",
              "type": "address"
            },
            {
              "internalType": "address",
              "name": "to",
              "type": "address"
            }
          ],
          "internalType": "struct Models.Activity[]",
          "name": "",
          "type": "tuple[]"
        }
      ],
      "stateMutability": "view",
      "type": "function",
      "constant": true
    }
  ],
  "bytecode": "0x60806040523480156200001157600080fd5b5060016004556040516200002590620000c0565b604051809103906000f08015801562000042573d6000803e3d6000fd5b5060018054600160a060020a0392909216600160a060020a03199283168117909155600080549092161790556040516200007c90620000ce565b604051809103906000f08015801562000099573d6000803e3d6000fd5b5060028054600160a060020a031916600160a060020a0392909216919091179055620000dc565b611793806200443f83390190565b614f4d8062005bd283390190565b61435380620000ec6000396000f3fe60806040523480156200001157600080fd5b5060043610620001555760003560e060020a900480636435e81711620000cb578063ce1f335c116200008a578063ce1f335c146200031f578063d3eb618c1462000333578063db1c45f91462000360578063dc8046f01462000379578063e362937d1462000390578063e87c0ee614620003a757600080fd5b80636435e817146200028757806379769488146200029e578063829a32ef14620002b55780638c055c0f14620002d8578063ae73ccec146200030657600080fd5b80633751b87711620001185780633751b87714620002135780633f863f1914620002395780633fc15f15146200025057806346b1df0414620002645780635039eb97146200026e57600080fd5b806304ad465f146200015a5780630726325f146200019457806312065fe014620001ba5780632980a3cb14620001cc5780632cd1adfe14620001fc575b600080fd5b620001716200016b36600462002a46565b620003b1565b6040516200018b9c9b9a9998979695949392919062002aa8565b60405180910390f35b620001ab620001a536600462002b5c565b6200055b565b6040516200018b919062002c34565b30315b6040519081526020016200018b565b620001e3620001dd36600462002d36565b620006e9565b604051600160a060020a0390911681526020016200018b565b620001ab6200020d36600462002dc9565b62000f68565b6200022a6200022436600462002e16565b6200115b565b6040516200018b919062002e36565b620001716200024a36600462002a46565b620012cb565b600154620001e390600160a060020a031681565b620001bd60115481565b620002856200027f36600462002f1e565b620012ff565b005b620001716200029836600462002a46565b62001715565b62000285620002af36600462002f1e565b62001726565b620001bd620002c636600462002e16565b60066020526000908152604090205481565b620002ef620002e936600462002e16565b62001909565b6040516200018b9998979695949392919062002f67565b6200031062001a9f565b6040516200018b919062002fdc565b600054620001e390600160a060020a031681565b6200034a620003443660046200302f565b62001b3b565b6040516200018b9897969594939291906200305e565b6200036a62001c43565b6040516200018b9190620031cf565b620002856200038a36600462003231565b62002092565b62000285620003a1366004620032e1565b6200211e565b620001bd62002959565b600a8181548110620003c257600080fd5b60009182526020909120600b9091020180546001820154600283018054929450600160a060020a039091169291620003fa90620032ff565b80601f01602080910402602001604051908101604052809291908181526020018280546200042890620032ff565b8015620004795780601f106200044d5761010080835404028352916020019162000479565b820191906000526020600020905b8154815290600101906020018083116200045b57829003601f168201915b5050505050908060030180546200049090620032ff565b80601f0160208091040260200160405190810160405280929190818152602001828054620004be90620032ff565b80156200050f5780601f10620004e3576101008083540402835291602001916200050f565b820191906000526020600020905b815481529060010190602001808311620004f157829003601f168201915b50505050600483015460058401546006850154600786015460088701546009880154600a909801549697600160a060020a03909516969395509193909260ff808216916101009004168c565b620005656200298f565b6040517f6f6ff405000000000000000000000000000000000000000000000000000000008152600160a060020a0384811660048301528391600091831690636f6ff40590602401610120604051808303816000875af1158015620005cd573d6000803e3d6000fd5b505050506040513d601f19601f82011682018060405250810190620005f3919062003409565b9050600082600160a060020a03166302d05d3f6040518163ffffffff1660e060020a028152600401602060405180830381865afa15801562000639573d6000803e3d6000fd5b505050506040513d601f19601f820116820180604052508101906200065f919062003429565b6040517fdc8046f0000000000000000000000000000000000000000000000000000000008152909150600160a060020a0382169063dc8046f090620006a990859060040162002c34565b600060405180830381600087803b158015620006c457600080fd5b505af1158015620006d9573d6000803e3d6000fd5b5093955050505050505b92915050565b6002546040517f956a2a1000000000000000000000000000000000000000000000000000000000815230600482015260248101879052600160a060020a03868116604483015260648201869052600092839291169063956a2a10906084016020604051808303816000875af115801562000767573d6000803e3d6000fd5b505050506040513d601f19601f820116820180604052508101906200078d919062003429565b6040805161018081018252600454808252600160a060020a0384811660208085019182528486018b8152606086018b90528d8416608087015260a086018f905260c086018d9052600060e087018190526101008701819052610120870181905260016101408801819052610160880182905295815260059092529590208451815590519281018054600160a060020a031916939092169290921790559151929350839290919060028201906200084490826200349c565b50606082015160038201906200085b90826200349c565b506080820151600482018054600160a060020a031916600160a060020a0392831617905560a0830151600583015560c0830151600683015560e08301516007830155610100808401516008840155610120808501516009850155610140850151600a90940180546101609096015161ffff1990961694151561ff0019169490941760ff90951690910293909317909155604080519283018082527f846c6f4f00000000000000000000000000000000000000000000000000000000905251829185169063846c6f4f90610124808501916020918187030181865afa15801562000948573d6000803e3d6000fd5b505050506040513d601f19601f820116820180604052508101906200096e919062003429565b600160a060020a03168152602001600160ff168152602001600454815260200182600160a060020a0316815260200186815260200185815260200188600160a060020a03168152602001898152602001878152506012600084600160a060020a031663846c6f4f6040518163ffffffff1660e060020a028152600401602060405180830381865afa15801562000a08573d6000803e3d6000fd5b505050506040513d601f19601f8201168201806040525081019062000a2e919062003429565b600160a060020a0390811682526020808301939093526040918201600020845181549486015160ff16740100000000000000000000000000000000000000000274ffffffffffffffffffffffffffffffffffffffffff1990951690831617939093178355908301516001830155606083015160028301805491909216600160a060020a0319919091161790556080820151600382019062000ad090826200349c565b5060a0820151600482019062000ae790826200349c565b5060c0820151600582018054600160a060020a031916600160a060020a0392831617905560e08301516006830155610100909201516007909101556040805161012081018083527f41ef10c8000000000000000000000000000000000000000000000000000000009052905190918291908516906341ef10c890610124808501916020918187030181865afa15801562000b85573d6000803e3d6000fd5b505050506040513d601f19601f8201168201806040525081019062000bab919062003429565b600160a060020a03168152602001600060ff168152602001600454815260200182600160a060020a0316815260200186815260200185815260200188600160a060020a03168152602001898152602001878152506012600084600160a060020a03166341ef10c86040518163ffffffff1660e060020a028152600401602060405180830381865afa15801562000c45573d6000803e3d6000fd5b505050506040513d601f19601f8201168201806040525081019062000c6b919062003429565b600160a060020a0390811682526020808301939093526040918201600020845181549486015160ff16740100000000000000000000000000000000000000000274ffffffffffffffffffffffffffffffffffffffffff1990951690831617939093178355908301516001830155606083015160028301805491909216600160a060020a0319919091161790556080820151600382019062000d0d90826200349c565b5060a0820151600482019062000d2490826200349c565b5060c082015160058083018054600160a060020a03938416600160a060020a03199182161790915560e085015160068086019190915561010090950151600794850155600480548785166000908152602097885260408082208390559654918152600988528681209190915590548152919094529182206008805460018181018355919094528154600b9094027ff3f7a9fe364faab93b216da50a3214154f22a0a2b415b23a84c8169e8b636ee38101948555908201547ff3f7a9fe364faab93b216da50a3214154f22a0a2b415b23a84c8169e8b636ee4820180549096169316929092179093557ff3f7a9fe364faab93b216da50a3214154f22a0a2b415b23a84c8169e8b636ee50162000e3d60028401826200356f565b5060038181019062000e52908401826200356f565b506004828101549082018054600160a060020a031916600160a060020a039092169190911790556005808301549082015560068083015490820155600780830154818301556008808401549083015560098084015490830155600a928301805493909201805460ff948516151560ff1982168117835593546101009081900490951690940261ff001990931661ffff1990941693909317919091179091555462000efe9060016200296c565b60075560045462000f119060016200296c565b60048190556000908152600560205260409081902090517f8cad400db0798c448aa0bfb2d4261c2b0fc665ba535995f2403c6fc716d794e39162000f5591620036de565b60405180910390a1979650505050505050565b62000f726200298f565b600054600160a060020a0316331462000feb576040517f08c379a000000000000000000000000000000000000000000000000000000000815260206004820152601860248201527f6f6e6c79206d61696e20746f6b656e2063616e2063616c6c0000000000000000604482015260640160405180910390fd5b6000601154905060008187338888886040516200100890620029db565b958652600160a060020a03948516602087015292841660408601526060850191909152909116608083015260a082015260c001604051809103906000f08015801562001058573d6000803e3d6000fd5b506040805161012081018252848152600160a060020a0380841660208301528a811682840152336060830152608082018a9052600060a0830181905290891660c083015260e0820188905261010082015290517f070b5eb40000000000000000000000000000000000000000000000000000000081529192509073__IterableMapping_______________________9063070b5eb4906200110390600c9087908690600401620037c6565b60006040518083038186803b1580156200111c57600080fd5b505af415801562001131573d6000803e3d6000fd5b5050601180549250905060006200114883620037fd565b909155509093505050505b949350505050565b600160a060020a0381166000908152600b60209081526040808320805482518185028101850190935280835260609492939192909184015b82821015620012c057838290600052602060002090600702016040518061010001604052908160008201548152602001600182018054620011d490620032ff565b80601f01602080910402602001604051908101604052809291908181526020018280546200120290620032ff565b8015620012535780601f10620012275761010080835404028352916020019162001253565b820191906000526020600020905b8154815290600101906020018083116200123557829003601f168201915b505050918352505060028201546020808301919091526003830154604083015260048301546060830152600583015460ff81166080840152600160a060020a03610100909104811660a084015260069093015490921660c090910152908252600192909201910162001193565b505050509050919050565b6005602052600090815260409020805460018201546002830180549293600160a060020a0390921692620003fa90620032ff565b3360009081526006602052604081205490036200131b57600080fd5b3360008181526006602090815260408083205480845260058352818420825161018081018452815481526001820154600160a060020a031694810194909452600281018054929594939192918401916200137590620032ff565b80601f0160208091040260200160405190810160405280929190818152602001828054620013a390620032ff565b8015620013f45780601f10620013c857610100808354040283529160200191620013f4565b820191906000526020600020905b815481529060010190602001808311620013d657829003601f168201915b505050505081526020016003820180546200140f90620032ff565b80601f01602080910402602001604051908101604052809291908181526020018280546200143d90620032ff565b80156200148e5780601f1062001462576101008083540402835291602001916200148e565b820191906000526020600020905b8154815290600101906020018083116200147057829003601f168201915b50505091835250506004820154600160a060020a03166020820152600582015460408201526006820154606082015260078201546080820152600882015460a0820152600982015460c0820152600a9091015460ff808216151560e0808501919091526101009283900490911691909201528101805191925086916200151690839062003819565b90525060ff861660020362001543578481610120018181516200153a919062003819565b9052506200155c565b84816101000181815162001558919062003819565b9052505b600160a060020a038088166000818152600b60209081526040808320815161010081018352600380548252835180850185529081527f424554000000000000000000000000000000000000000000000000000000000081860152818501908152928101899052606081018c9052608081018b905260ff8d1660a082015260c081019590955294881660e0850152845460018181018755958452919092208351600790920201908155905191929091908201906200161a90826200349c565b506040820151600282015560608201516003808301919091556080830151600483015560a083015160058301805460c086015160ff90931674ffffffffffffffffffffffffffffffffffffffffff1990911617610100600160a060020a039384160217905560e09093015160069092018054600160a060020a031916929093169190911790915554620016af9060016200296c565b60035560408051600160a060020a0389811682526020820185905285168183015260ff881660608201526080810187905290517f60f0179549292c7191bafdb03407a3080ad6bbb9354055fb0dba51a90dcead179181900360a00190a150505050505050565b60088181548110620003c257600080fd5b3360009081526006602052604081205490036200174257600080fd5b33600081815260066020908152604080832054600160a060020a038916808552600b8452828520835161010081018552600354815284518086018652600881527f574954484452415700000000000000000000000000000000000000000000000081880152818701908152948101849052606081018a90526080810189905260ff8b1660a082015260c0810188905260e0810192909252805460018181018355918752949095208151600790950201938455915190939192918201906200180a90826200349c565b506040820151600282015560608201516003808301919091556080830151600483015560a083015160058301805460c086015160ff90931674ffffffffffffffffffffffffffffffffffffffffff1990911617610100600160a060020a039384160217905560e09093015160069092018054600160a060020a0319169290931691909117909155546200189f9060016200296c565b60035560408051600160a060020a0380891682526020820184905284169181019190915260ff86166060820152608081018590527f763849cb5b59f290f2394239aed08a4f73bef1c65b4debb49ed6324897c23a979060a0015b60405180910390a1505050505050565b6012602052600090815260409020805460018201546002830154600384018054600160a060020a03808616967401000000000000000000000000000000000000000090960460ff169593169291906200196290620032ff565b80601f01602080910402602001604051908101604052809291908181526020018280546200199090620032ff565b8015620019e15780601f10620019b557610100808354040283529160200191620019e1565b820191906000526020600020905b815481529060010190602001808311620019c357829003601f168201915b505050505090806004018054620019f890620032ff565b80601f016020809104026020016040519081016040528092919081815260200182805462001a2690620032ff565b801562001a775780601f1062001a4b5761010080835404028352916020019162001a77565b820191906000526020600020905b81548152906001019060200180831162001a5957829003601f168201915b50505050600583015460068401546007909401549293600160a060020a039091169290915089565b6040517f75a02c20000000000000000000000000000000000000000000000000000000008152600c600482015260609073__IterableMapping_______________________906375a02c2090602401600060405180830381865af415801562001b0c573d6000803e3d6000fd5b505050506040513d6000823e601f3d908101601f1916820160405262001b3691908101906200382f565b905090565b600b602052816000526040600020818154811062001b5857600080fd5b90600052602060002090600702016000915091505080600001549080600101805462001b8490620032ff565b80601f016020809104026020016040519081016040528092919081815260200182805462001bb290620032ff565b801562001c035780601f1062001bd75761010080835404028352916020019162001c03565b820191906000526020600020905b81548152906001019060200180831162001be557829003601f168201915b505050600284015460038501546004860154600587015460069097015495969295919450925060ff821691600160a060020a036101009091048116911688565b604080518082019091526060808252602082015260408051600880546060602082028401810185529383018181529293849392919060009085015b8282101562001e6d5760008481526020908190206040805161018081018252600b8602909201805483526001810154600160a060020a0316938301939093526002830180549293929184019162001cd590620032ff565b80601f016020809104026020016040519081016040528092919081815260200182805462001d0390620032ff565b801562001d545780601f1062001d285761010080835404028352916020019162001d54565b820191906000526020600020905b81548152906001019060200180831162001d3657829003601f168201915b5050505050815260200160038201805462001d6f90620032ff565b80601f016020809104026020016040519081016040528092919081815260200182805462001d9d90620032ff565b801562001dee5780601f1062001dc25761010080835404028352916020019162001dee565b820191906000526020600020905b81548152906001019060200180831162001dd057829003601f168201915b50505091835250506004820154600160a060020a0316602080830191909152600583015460408301526006830154606083015260078301546080830152600883015460a0830152600983015460c0830152600a9092015460ff808216151560e08401526101009182900416910152908252600192909201910162001c7e565b505050508152602001600a805480602002602001604051908101604052809291908181526020016000905b82821015620020875760008481526020908190206040805161018081018252600b8602909201805483526001810154600160a060020a0316938301939093526002830180549293929184019162001eef90620032ff565b80601f016020809104026020016040519081016040528092919081815260200182805462001f1d90620032ff565b801562001f6e5780601f1062001f425761010080835404028352916020019162001f6e565b820191906000526020600020905b81548152906001019060200180831162001f5057829003601f168201915b5050505050815260200160038201805462001f8990620032ff565b80601f016020809104026020016040519081016040528092919081815260200182805462001fb790620032ff565b8015620020085780601f1062001fdc5761010080835404028352916020019162002008565b820191906000526020600020905b81548152906001019060200180831162001fea57829003601f168201915b50505091835250506004820154600160a060020a0316602080830191909152600583015460408301526006830154606083015260078301546080830152600883015460a0830152600983015460c0830152600a9092015460ff808216151560e08401526101009182900416910152908252600192909201910162001e98565b505050915250919050565b80516040517f070b5eb400000000000000000000000000000000000000000000000000000000815273__IterableMapping_______________________9163070b5eb491620020e991600c918690600401620037c6565b60006040518083038186803b1580156200210257600080fd5b505af415801562002117573d6000803e3d6000fd5b5050505050565b3360009081526006602052604081205490036200213a57600080fd5b336000818152600660209081526040808320548084526009909252822054600880549293919283908110620021735762002173620038ec565b90600052602060002090600b020160405180610180016040529081600082015481526020016001820160009054906101000a9004600160a060020a0316600160a060020a0316600160a060020a03168152602001600282018054620021d890620032ff565b80601f01602080910402602001604051908101604052809291908181526020018280546200220690620032ff565b8015620022575780601f106200222b5761010080835404028352916020019162002257565b820191906000526020600020905b8154815290600101906020018083116200223957829003601f168201915b505050505081526020016003820180546200227290620032ff565b80601f0160208091040260200160405190810160405280929190818152602001828054620022a090620032ff565b8015620022f15780601f10620022c557610100808354040283529160200191620022f1565b820191906000526020600020905b815481529060010190602001808311620022d357829003601f168201915b50505091835250506004820154600160a060020a031660208201526005820154604082015260068201546060820152600780830154608083015260088084015460a0840152600984015460c0840152600a9093015460ff808216151560e08501526101009182900416920191909152549192506000916200237490600162002981565b81548110620023875762002387620038ec565b90600052602060002090600b020160405180610180016040529081600082015481526020016001820160009054906101000a9004600160a060020a0316600160a060020a0316600160a060020a03168152602001600282018054620023ec90620032ff565b80601f01602080910402602001604051908101604052809291908181526020018280546200241a90620032ff565b80156200246b5780601f106200243f576101008083540402835291602001916200246b565b820191906000526020600020905b8154815290600101906020018083116200244d57829003601f168201915b505050505081526020016003820180546200248690620032ff565b80601f0160208091040260200160405190810160405280929190818152602001828054620024b490620032ff565b8015620025055780601f10620024d95761010080835404028352916020019162002505565b820191906000526020600020905b815481529060010190602001808311620024e757829003601f168201915b50505091835250506004820154600160a060020a03166020808301919091526005830154604080840191909152600684015460608401526007840154608084015260088085015460a085015260098086015460c0860152600a9095015460ff808216151560e0870152610100918290041694019390935284516000908152939091528083208790558783528220919091558054919250829185908110620025b057620025b0620038ec565b60009182526020918290208351600b929092020190815590820151600182018054600160a060020a031916600160a060020a03909216919091179055604082015160028201906200260290826200349c565b50606082015160038201906200261990826200349c565b506080820151600482018054600160a060020a031916600160a060020a0390921691909117905560a0820151600582015560c0820151600682015560e08201516007808301919091556101008084015160088401556101208401516009840155610140840151600a90930180546101609095015161ffff1990951693151561ff0019169390931760ff9094160292909217905554620026ba90600162002981565b6007556000610140830181905260ff8716610160840181905283518252600560209081526040808420600a908101805460ff19169055865185528185208101805461ff0019166101009095029490941790935582546001810184559290935284517fc65a7bb8d6351c1cf70c95a316cc6a92839c986682d98bc35f958f4883f9d2a8600b909302928301908155908501517fc65a7bb8d6351c1cf70c95a316cc6a92839c986682d98bc35f958f4883f9d2a983018054600160a060020a031916600160a060020a03909216919091179055918401518492917fc65a7bb8d6351c1cf70c95a316cc6a92839c986682d98bc35f958f4883f9d2aa0190620027c190826200349c565b5060608201516003820190620027d890826200349c565b506080820151600482018054600160a060020a031916600160a060020a0390921691909117905560a0820151600582015560c0820151600682015560e08201516007820155610100808301516008808401919091556101208401516009840155610140840151600a90930180546101609095015161ffff1990951693151561ff0019169390931760ff9094169091029290921790558054806200287f576200287f62003905565b600082815260208120600b60001990930192830201818155600181018054600160a060020a031916905590620028b96002830182620029e9565b620028c9600383016000620029e9565b50600481018054600160a060020a03191690556000600582018190556006820181905560078201819055600882018190556009820155600a01805461ffff19169055905560408051858152600160a060020a038716602082015260ff8816918101919091527f6997c325fd49bb5c188e78d03aee9a56052bffb3dcecb7d89cad3946cfc9b19090606001620018f9565b6000600160045462001b3691906200391e565b60006200297a828462003819565b9392505050565b60006200297a82846200391e565b6040805161012081018252600080825260208201819052918101829052606081018290526080810182905260a0810182905260c0810182905260e0810182905261010081019190915290565b6109e9806200393583390190565b508054620029f790620032ff565b6000825580601f1062002a08575050565b601f01602090049060005260206000209081019062002a28919062002a2b565b50565b5b8082111562002a42576000815560010162002a2c565b5090565b60006020828403121562002a5957600080fd5b5035919050565b6000815180845260005b8181101562002a885760208185018101518683018201520162002a6a565b506000602082860101526020601f19601f83011685010191505092915050565b60006101808e8352600160a060020a03808f16602085015281604085015262002ad48285018f62002a60565b9150838203606085015262002aea828e62002a60565b9b166080840152505060a081019790975260c087019590955260e0860193909352610100850191909152610120840152151561014083015260ff1661016090910152949350505050565b600160a060020a038116811462002a2857600080fd5b803562002b578162002b34565b919050565b6000806040838503121562002b7057600080fd5b823562002b7d8162002b34565b9150602083013562002b8f8162002b34565b809150509250929050565b805182526020810151600160a060020a03808216602085015280604084015116604085015280606084015116606085015250506080810151608083015260a081015162002bf260a0840182600160a060020a03169052565b5060c081015162002c0e60c0840182600160a060020a03169052565b5060e081015160e08301526101008082015162002c2e8285018215159052565b50505050565b6101208101620006e3828462002b9a565b60e060020a634e487b7102600052604160045260246000fd5b604051610120810167ffffffffffffffff8111828210171562002c855762002c8562002c45565b60405290565b604051601f8201601f1916810167ffffffffffffffff8111828210171562002cb75762002cb762002c45565b604052919050565b600082601f83011262002cd157600080fd5b813567ffffffffffffffff81111562002cee5762002cee62002c45565b62002d03601f8201601f191660200162002c8b565b81815284602083860101111562002d1957600080fd5b816020850160208301376000918101602001919091529392505050565b600080600080600060a0868803121562002d4f57600080fd5b85359450602086013562002d638162002b34565b935060408601359250606086013567ffffffffffffffff8082111562002d8857600080fd5b62002d9689838a0162002cbf565b9350608088013591508082111562002dad57600080fd5b5062002dbc8882890162002cbf565b9150509295509295909350565b6000806000806080858703121562002de057600080fd5b843562002ded8162002b34565b935060208501359250604085013562002e068162002b34565b9396929550929360600135925050565b60006020828403121562002e2957600080fd5b81356200297a8162002b34565b60208082528251828201819052600091906040908185019080840286018301878501865b8381101562002efe57603f1989840301855281516101008151855288820151818a87015262002e8c8287018262002a60565b838a0151878b0152606080850151908801526080808501519088015260a08085015160ff169088015260c080850151600160a060020a03169088015260e09384015193909250905062002ee981870184600160a060020a03169052565b50958801959350509086019060010162002e5a565b509098975050505050505050565b803560ff8116811462002b5757600080fd5b6000806000806080858703121562002f3557600080fd5b843562002f428162002b34565b935062002f526020860162002f0c565b93969395505050506040820135916060013590565b6000610120600160a060020a03808d16845260ff8c1660208501528a6040850152808a16606085015281608085015262002fa48285018a62002a60565b915083820360a085015262002fba828962002a60565b961660c0840152505060e0810192909252610100909101529695505050505050565b6020808252825182820181905260009190848201906040850190845b8181101562003023576200300e83855162002b9a565b92840192610120929092019160010162002ff8565b50909695505050505050565b600080604083850312156200304357600080fd5b8235620030508162002b34565b946020939093013593505050565b60006101008a83528060208401526200307a8184018b62002a60565b604084019990995250506060810195909552608085019390935260ff9190911660a0840152600160a060020a0390811660c08401521660e09091015292915050565b600081518084526020808501808196508284028101915082860160005b85811015620031c2578284038952815161018081518652868201516200310988880182600160a060020a03169052565b506040808301518282890152620031238389018262002a60565b925050506060808301518783038289015262003140838262002a60565b925050506080808301516200315f82890182600160a060020a03169052565b505060a0828101519087015260c0808301519087015260e0808301519087015261010080830151908701526101208083015190870152610140808301511515908701526101609182015160ff1691909501529784019790840190600101620030d9565b5091979650505050505050565b602081526000825160406020840152620031ed6060840182620030bc565b90506020840151601f198483030160408501526200320c8282620030bc565b95945050505050565b801515811462002a2857600080fd5b803562002b578162003215565b600061012082840312156200324557600080fd5b6200324f62002c5e565b82358152620032616020840162002b4a565b6020820152620032746040840162002b4a565b6040820152620032876060840162002b4a565b606082015260808301356080820152620032a460a0840162002b4a565b60a0820152620032b760c0840162002b4a565b60c082015260e083013560e0820152610100620032d681850162003224565b908201529392505050565b600060208284031215620032f457600080fd5b6200297a8262002f0c565b6002810460018216806200331457607f821691505b602082108103620033385760e060020a634e487b7102600052602260045260246000fd5b50919050565b805162002b578162002b34565b805162002b578162003215565b600061012082840312156200336c57600080fd5b6200337662002c5e565b9050815181526200338a602083016200333e565b60208201526200339d604083016200333e565b6040820152620033b0606083016200333e565b606082015260808201516080820152620033cd60a083016200333e565b60a0820152620033e060c083016200333e565b60c082015260e082015160e0820152610100620033ff8184016200334b565b9082015292915050565b600061012082840312156200341d57600080fd5b6200297a838362003358565b6000602082840312156200343c57600080fd5b81516200297a8162002b34565b601f82111562003497576000818152602081206020601f86010481016020861015620034725750805b6020601f860104820191505b8181101562003493578281556001016200347e565b5050505b505050565b815167ffffffffffffffff811115620034b957620034b962002c45565b620034d181620034ca8454620032ff565b8462003449565b602080601f8311600181146200350d5760008415620034f05750858301515b60028086026008870290910a600019041982161786555062003493565b600085815260208120601f198616915b828110156200353e578886015182559484019460019091019084016200351d565b50858210156200355f57878501516008601f88160260020a60001904191681555b5050505050600202600101905550565b8181036200357b575050565b620035878254620032ff565b67ffffffffffffffff811115620035a257620035a262002c45565b620035b381620034ca8454620032ff565b6000601f821160018114620035ee5760008315620035d15750848201545b60028085026008860290910a600019041982161785555062002117565b600085815260209020601f19841690600086815260209020845b838110156200362a578286015482556001958601959091019060200162003608565b50858310156200355f57818501546008601f88160260020a60001904191681555050505050600202600101905550565b600081546200366981620032ff565b808552602060018381168015620036895760018114620036a357620036d3565b60ff198516888401528315158302880183019550620036d3565b866000528260002060005b85811015620036cb5781548a8201860152908301908401620036ae565b890184019650505b505050505092915050565b60208152815460208201526000620037006001840154600160a060020a031690565b600160a060020a03166040830152610180606083018190526200372b6101a08401600286016200365a565b838103601f190160808501526200374681600387016200365a565b90506200375d6004860154600160a060020a031690565b600160a060020a031660a0850152600585015460c0850152600685015460e085015260078501546101008086019190915260088601546101208601526009860154610140860152600a86015460ff811615156101608701529060ff910416919093015250919050565b83815260208101839052610160810162001153604083018462002b9a565b60e060020a634e487b7102600052601160045260246000fd5b600060018201620038125762003812620037e4565b5060010190565b80820180821115620006e357620006e3620037e4565b600060208083850312156200384357600080fd5b825167ffffffffffffffff808211156200385c57600080fd5b818501915085601f8301126200387157600080fd5b81518181111562003886576200388662002c45565b62003895848583020162002c8b565b8181528481019250610120918202840185019188831115620038b657600080fd5b938501935b82851015620038e057620038d0898662003358565b84529384019392850192620038bb565b50979650505050505050565b60e060020a634e487b7102600052603260045260246000fd5b60e060020a634e487b7102600052603160045260246000fd5b81810381811115620006e357620006e3620037e456fe608060405234801561001057600080fd5b506040516109e93803806109e983398101604081905261002f9161020c565b6000805433600160a060020a03199182168117909255600a805461010060a860020a031916610100909302929092179091556001879055600280548216600160a060020a03888116918217909255600380548416888416908117909155600587905560078054851693871693909317909255600984905560048054909316821783556040517f70a082310000000000000000000000000000000000000000000000000000000081529283015284916370a0823190602401602060405180830381865afa158015610103573d6000803e3d6000fd5b505050506040513d601f19601f82011682018060405250810190610127919061026b565b10156101bb57604080517f08c379a00000000000000000000000000000000000000000000000000000000081526020600482015260248101919091527f706c6179657220312068617320696e73756666696369656e742062616c616e6360448201527f65206f6620746f6b656e203120746f206372656174652061206c697374696e67606482015260840160405180910390fd5b5060088054600160a060020a031916600160a060020a03929092169190911790555050600a805460ff19169055506102849050565b8051600160a060020a038116811461020757600080fd5b919050565b60008060008060008060c0878903121561022557600080fd5b86519550610235602088016101f0565b9450610243604088016101f0565b935060608701519250610258608088016101f0565b915060a087015190509295509295509295565b60006020828403121561027d57600080fd5b5051919050565b610756806102936000396000f3fe608060405234801561001057600080fd5b50600436106100d1576000357c010000000000000000000000000000000000000000000000000000000090048063c4e5edcd1161008e578063c4e5edcd14610176578063d21220a71461017f578063d30895e414610192578063d5488048146101a5578063d70c6703146101b8578063e2d46f98146101c157600080fd5b806302d05d3f146100d657806325be124e1461010657806358aaf0be1461011957806359a5f12d1461012c5780636f6ff4051461013f5780639405dfdd1461015f575b600080fd5b6000546100e990600160a060020a031681565b604051600160a060020a0390911681526020015b60405180910390f35b6007546100e990600160a060020a031681565b6008546100e990600160a060020a031681565b6006546100e990600160a060020a031681565b61015261014d366004610604565b6101de565b6040516100fd9190610634565b61016860015481565b6040519081526020016100fd565b61016860095481565b6003546100e990600160a060020a031681565b6002546100e990600160a060020a031681565b6004546100e990600160a060020a031681565b61016860055481565b600a546101ce9060ff1681565b60405190151581526020016100fd565b6040805161012081018252600080825260208201819052918101829052606081018290526080810182905260a0810182905260c0810182905260e08101829052610100810191909152600554600480546002546040517fdd62ed3e000000000000000000000000000000000000000000000000000000008152600160a060020a0391821693810193909352306024840152169063dd62ed3e90604401602060405180830381865afa158015610297573d6000803e3d6000fd5b505050506040513d601f19601f820116820180604052508101906102bb91906106e5565b1015610328576040517f08c379a000000000000000000000000000000000000000000000000000000000815260206004820152601960248201527f546f6b656e203120616c6c6f77616e636520746f6f206c6f770000000000000060448201526064015b60405180910390fd5b6009546008546040517fdd62ed3e000000000000000000000000000000000000000000000000000000008152600160a060020a0385811660048301523060248301529091169063dd62ed3e90604401602060405180830381865afa158015610394573d6000803e3d6000fd5b505050506040513d601f19601f820116820180604052508101906103b891906106e5565b1015610420576040517f08c379a000000000000000000000000000000000000000000000000000000000815260206004820152601960248201527f546f6b656e203220616c6c6f77616e636520746f6f206c6f7700000000000000604482015260640161031f565b60045460025460055461044292600160a060020a0390811692169085906104fc565b60085460025460095461046592600160a060020a039081169286929116906104fc565b506006805473ffffffffffffffffffffffffffffffffffffffff1916600160a060020a03928316908117909155600a805460ff1916600190811790915560408051610120810182528254815230602082015260025485169181019190915260035484166060820152600554608082015260a081019290925260075490921660c082015260095460e082015261010081019190915290565b6040517f23b872dd000000000000000000000000000000000000000000000000000000008152600160a060020a038481166004830152838116602483015260448201839052600091908616906323b872dd906064016020604051808303816000875af1158015610570573d6000803e3d6000fd5b505050506040513d601f19601f8201168201806040525081019061059491906106fe565b9050806105fd576040517f08c379a000000000000000000000000000000000000000000000000000000000815260206004820152601560248201527f546f6b656e207472616e73666572206661696c65640000000000000000000000604482015260640161031f565b5050505050565b60006020828403121561061657600080fd5b8135600160a060020a038116811461062d57600080fd5b9392505050565b600061012082019050825182526020830151600160a060020a0380821660208501528060408601511660408501525050606083015161067e6060840182600160a060020a03169052565b506080830151608083015260a08301516106a360a0840182600160a060020a03169052565b5060c08301516106be60c0840182600160a060020a03169052565b5060e083015160e0830152610100808401516106dd8285018215159052565b505092915050565b6000602082840312156106f757600080fd5b5051919050565b60006020828403121561071057600080fd5b8151801515811461062d57600080fdfea2646970667358221220632a1edddbe1b3964f3806c92cdcc4d525c409aae8eb4f671dcd2093f83196dc64736f6c63430008110033a2646970667358221220174b6ab53f466d7764ad881918dba5466edd8c15b07156b10444261cd929f10a64736f6c6343000811003360c0604052600b60809081527f4877616e674d61726b657400000000000000000000000000000000000000000060a0526003906200003e9082620001a2565b5060408051808201909152600581527f484d544b4e0000000000000000000000000000000000000000000000000000006020820152600490620000829082620001a2565b506005805460ff191660121790556000600655348015620000a257600080fd5b506007805433600160a060020a0319918216811790925560088054909116909117905562000275565b7f4e487b7100000000000000000000000000000000000000000000000000000000600052604160045260246000fd5b6002810460018216806200010f57607f821691505b60208210810362000149577f4e487b7100000000000000000000000000000000000000000000000000000000600052602260045260246000fd5b50919050565b601f8211156200019d576000818152602081206020601f86010481016020861015620001785750805b6020601f860104820191505b81811015620001995782815560010162000184565b5050505b505050565b815167ffffffffffffffff811115620001bf57620001bf620000cb565b620001d781620001d08454620000fa565b846200014f565b602080601f831160018114620002135760008415620001f65750858301515b60028086026008870290910a600019041982161786555062000199565b600085815260208120601f198616915b82811015620002445788860151825594840194600190910190840162000223565b50858210156200026557878501516008601f88160260020a60001904191681555b5050505050600202600101905550565b61150e80620002856000396000f3fe60806040526004361061011c5760003560e060020a9004806370a08231116100a4578063ac5388c811610068578063ac5388c81461031b578063d270e7ab14610331578063dd62ed3e14610351578063de6a8dc514610389578063f16e4300146103a957600080fd5b806370a082311461026c57806395d89b41146102995780639ea3c820146102ae578063a9059cbb146102db578063a9e732bb146102fb57600080fd5b8063156e29f6116100eb578063156e29f6146101d557806318160ddd146101ea57806323b872dd14610200578063313ce5671461022057806342966c681461024c57600080fd5b806302d05d3f1461012857806306fdde0314610165578063095ea7b31461018757806312065fe0146101b757600080fd5b3661012357005b600080fd5b34801561013457600080fd5b5060075461014890600160a060020a031681565b604051600160a060020a0390911681526020015b60405180910390f35b34801561017157600080fd5b5061017a6103be565b60405161015c9190611041565b34801561019357600080fd5b506101a76101a23660046110a7565b61044c565b604051901515815260200161015c565b3480156101c357600080fd5b5030315b60405190815260200161015c565b6101e86101e33660046110d3565b6104ed565b005b3480156101f657600080fd5b506101c760005481565b34801561020c57600080fd5b506101a761021b366004611108565b6106fc565b34801561022c57600080fd5b5060055461023a9060ff1681565b60405160ff909116815260200161015c565b34801561025857600080fd5b506101e8610267366004611149565b6108ac565b34801561027857600080fd5b506101c7610287366004611162565b60016020526000908152604090205481565b3480156102a557600080fd5b5061017a610943565b3480156102ba57600080fd5b506102ce6102c9366004611162565b610950565b60405161015c9190611186565b3480156102e757600080fd5b506101a76102f63660046110a7565b610cc3565b34801561030757600080fd5b506101e8610316366004611149565b610d71565b34801561032757600080fd5b506101c760065481565b34801561033d57600080fd5b5060085461014890600160a060020a031681565b34801561035d57600080fd5b506101c761036c366004611237565b600260209081526000928352604080842090915290825290205481565b34801561039557600080fd5b506102ce6103a4366004611270565b610e74565b3480156103b557600080fd5b506101c7600181565b600380546103cb90611297565b80601f01602080910402602001604051908101604052809291908181526020018280546103f790611297565b80156104445780601f1061041957610100808354040283529160200191610444565b820191906000526020600020905b81548152906001019060200180831161042757829003601f168201915b505050505081565b336000908152600160205260408120548211156104875760405160e560020a62461bcd02815260040161047e906112d4565b60405180910390fd5b336000818152600260209081526040808320600160a060020a03881680855290835292819020869055518581529192917f8c5be1e5ebec7d5bd14f71427d1e84f3dd0314c0f7b2291e5b200ac8c7c3b92591015b60405180910390a35060015b92915050565b82600160a060020a03163134111561054a5760405160e560020a62461bcd02815260206004820152601e60248201527f596f7520646f206e6f74206861766520656e6f7567682062616c616e63650000604482015260640161047e565b8034146105c25760405160e560020a62461bcd02815260206004820152602b60248201527f65746820616d6f756e7420737065636966696564206e6f7420657175616c207460448201527f6f206d73672076616c7565000000000000000000000000000000000000000000606482015260840161047e565b6105cd600182611324565b821461066a5760405160e560020a62461bcd02815260206004820152604160248201527f65746820616d6f756e74206f66666572656420646f6573206e6f74206d61746360448201527f6820616d6f756e74206f6620484d544b4e20746f6b656e20726571756573746560648201527f6400000000000000000000000000000000000000000000000000000000000000608482015260a40161047e565b600160a060020a0383166000908152600160205260408120805484929061069290849061133b565b92505081905550816000808282546106aa919061133b565b9250508190555081600660008282546106c3919061133b565b9091555050604051828152600160a060020a038416906000906000805160206114b98339815191529060200160405180910390a3505050565b600160a060020a03831660009081526002602090815260408083203384529091528120548211156107985760405160e560020a62461bcd02815260206004820152603360248201527f696e73756666696369656e7420616c6c6f77616e636520746f2072656369706960448201527f656e742066726f6d206d73672073656e64657200000000000000000000000000606482015260840161047e565b600160a060020a0384166000908152600160205260409020548211156107d35760405160e560020a62461bcd02815260040161047e906112d4565b600160a060020a03841660009081526002602090815260408083203384529091528120805484929061080690849061134e565b9091555050600160a060020a0384166000908152600160205260408120805484929061083390849061134e565b9091555050600160a060020a0383166000908152600160205260408120805484929061086090849061133b565b9250508190555082600160a060020a031684600160a060020a03166000805160206114b98339815191528460405161089a91815260200190565b60405180910390a35060019392505050565b336000908152600160205260409020548111156108de5760405160e560020a62461bcd02815260040161047e906112d4565b33600090815260016020526040812080548392906108fd90849061134e565b9250508190555080600080828254610915919061134e565b909155505060405181815260009033906000805160206114b98339815191529060200160405180910390a350565b600480546103cb90611297565b610958610ff5565b600082905030600160a060020a031681600160a060020a03166325be124e6040518163ffffffff1660e060020a028152600401602060405180830381865afa1580156109a8573d6000803e3d6000fd5b505050506040513d601f19601f820116820180604052508101906109cc9190611371565b600160a060020a031614610a255760405160e560020a62461bcd02815260206004820181905260248201527f6c697374696e672077616e7473206120646966666572656e7420746f6b656e32604482015260640161047e565b80600160a060020a031663c4e5edcd6040518163ffffffff1660e060020a028152600401602060405180830381865afa158015610a66573d6000803e3d6000fd5b505050506040513d601f19601f82011682018060405250810190610a8a919061138e565b336000908152600160205260409020541015610abb5760405160e560020a62461bcd02815260040161047e906112d4565b80600160a060020a031663c4e5edcd6040518163ffffffff1660e060020a028152600401602060405180830381865afa158015610afc573d6000803e3d6000fd5b505050506040513d601f19601f82011682018060405250810190610b20919061138e565b336000818152600260209081526040808320600160a060020a03898116808652918452938290209590955580517fc4e5edcd00000000000000000000000000000000000000000000000000000000815290517f8c5be1e5ebec7d5bd14f71427d1e84f3dd0314c0f7b2291e5b200ac8c7c3b9259387169263c4e5edcd92600480820193918290030181865afa158015610bbd573d6000803e3d6000fd5b505050506040513d601f19601f82011682018060405250810190610be1919061138e565b60405190815260200160405180910390a36008546040517f0726325f000000000000000000000000000000000000000000000000000000008152336004820152600160a060020a0385811660248301526000921690630726325f90604401610120604051808303816000875af1158015610c5f573d6000803e3d6000fd5b505050506040513d601f19601f82011682018060405250810190610c8391906113f2565b90507f4758bcd8e425945eea731ed13074c209c3176197b970b6a78b278ad015ae907881604051610cb49190611186565b60405180910390a19392505050565b33600090815260016020526040812054821115610cf55760405160e560020a62461bcd02815260040161047e906112d4565b3360009081526001602052604081208054849290610d1490849061134e565b9091555050600160a060020a03831660009081526001602052604081208054849290610d4190849061133b565b9091555050604051828152600160a060020a0384169033906000805160206114b9833981519152906020016104db565b33600090815260016020526040902054811115610dd35760405160e560020a62461bcd02815260206004820152601e60248201527f696e73756666696369656e742062616c616e636520696e20706c617965720000604482015260640161047e565b6000610de0600180611493565b610dea9083611324565b604051909150339082156108fc029083906000818181858888f19350505050158015610e1a573d6000803e3d6000fd5b503360009081526001602052604081208054849290610e3a90849061134e565b9250508190555081600080828254610e52919061134e565b925050819055508060066000828254610e6b919061134e565b90915550505050565b610e7c610ff5565b33600090815260016020526040902054841115610eae5760405160e560020a62461bcd02815260040161047e906112d4565b6008546040517f2cd1adfe00000000000000000000000000000000000000000000000000000000815233600482015260248101869052600160a060020a038581166044830152606482018590526000921690632cd1adfe90608401610120604051808303816000875af1158015610f29573d6000803e3d6000fd5b505050506040513d601f19601f82011682018060405250810190610f4d91906113f2565b602080820151336000818152600284526040808220600160a060020a0385168084529552908190208a90555193945090927f8c5be1e5ebec7d5bd14f71427d1e84f3dd0314c0f7b2291e5b200ac8c7c3b92590610fad908a815260200190565b60405180910390a37fd1fe3704bd3aa4f4974d5168e39528bbb86b19e98e5f798beea49af58df3013982604051610fe49190611186565b60405180910390a150949350505050565b6040805161012081018252600080825260208201819052918101829052606081018290526080810182905260a0810182905260c0810182905260e0810182905261010081019190915290565b600060208083528351808285015260005b8181101561106e57858101830151858201604001528201611052565b506000604082860101526040601f19601f8301168501019250505092915050565b600160a060020a03811681146110a457600080fd5b50565b600080604083850312156110ba57600080fd5b82356110c58161108f565b946020939093013593505050565b6000806000606084860312156110e857600080fd5b83356110f38161108f565b95602085013595506040909401359392505050565b60008060006060848603121561111d57600080fd5b83356111288161108f565b925060208401356111388161108f565b929592945050506040919091013590565b60006020828403121561115b57600080fd5b5035919050565b60006020828403121561117457600080fd5b813561117f8161108f565b9392505050565b600061012082019050825182526020830151600160a060020a038082166020850152806040860151166040850152505060608301516111d06060840182600160a060020a03169052565b506080830151608083015260a08301516111f560a0840182600160a060020a03169052565b5060c083015161121060c0840182600160a060020a03169052565b5060e083015160e08301526101008084015161122f8285018215159052565b505092915050565b6000806040838503121561124a57600080fd5b82356112558161108f565b915060208301356112658161108f565b809150509250929050565b60008060006060848603121561128557600080fd5b8335925060208401356111388161108f565b6002810460018216806112ab57607f821691505b6020821081036112ce5760e060020a634e487b7102600052602260045260246000fd5b50919050565b6020808252601e908201527f696e73756666696369656e742062616c616e636520696e2073656e6465720000604082015260600190565b60e060020a634e487b7102600052601160045260246000fd5b80820281158282048414176104e7576104e761130b565b808201808211156104e7576104e761130b565b818103818111156104e7576104e761130b565b805161136c8161108f565b919050565b60006020828403121561138357600080fd5b815161117f8161108f565b6000602082840312156113a057600080fd5b5051919050565b604051610120810167ffffffffffffffff811182821017156113dc5760e060020a634e487b7102600052604160045260246000fd5b60405290565b8051801515811461136c57600080fd5b6000610120828403121561140557600080fd5b61140d6113a7565b8251815261141d60208401611361565b602082015261142e60408401611361565b604082015261143f60608401611361565b60608201526080830151608082015261145a60a08401611361565b60a082015261146b60c08401611361565b60c082015260e083015160e08201526101006114888185016113e2565b908201529392505050565b6000826114b35760e060020a634e487b7102600052601260045260246000fd5b50049056feddf252ad1be2c89b69c2b068fc378daa952ba7f163c4a11628f55a4df523b3efa2646970667358221220e52abfa23006ce49667b16a1993c9bbc1c9a35f5322d3325f5e103f68a6b24f064736f6c63430008110033608060405234801561001057600080fd5b50614f2d806100206000396000f3fe608060405234801561001057600080fd5b5060043610610047577c01000000000000000000000000000000000000000000000000000000006000350463956a2a10811461004c575b600080fd5b61005f61005a36600461012a565b610088565b60405173ffffffffffffffffffffffffffffffffffffffff909116815260200160405180910390f35b60008484848460405161009a906100f4565b73ffffffffffffffffffffffffffffffffffffffff94851681526020810193909352921660408201526060810191909152608001604051809103906000f0801580156100ea573d6000803e3d6000fd5b5095945050505050565b614d898061016f83390190565b803573ffffffffffffffffffffffffffffffffffffffff8116811461012557600080fd5b919050565b6000806000806080858703121561014057600080fd5b61014985610101565b93506020850135925061015e60408601610101565b939692955092936060013592505056fe60806040523480156200001157600080fd5b5060405162004d8938038062004d8983398101604081905262000034916200024f565b6000805460078054600160a060020a03888116600160a060020a031992831681179093556001889055600160b060020a03199093169091179092556004805490921690841617905560028190556040516103e890620000939062000224565b6060808252600b908201527f47616d654e6f546f6b656e000000000000000000000000000000000000000000608082015260a0602082018190526003908201527f474e54000000000000000000000000000000000000000000000000000000000060c0820152604081019190915260e001604051809103906000f08015801562000121573d6000803e3d6000fd5b5060098054600160a060020a0392909216600160a060020a03199283168117909155600880549092161790556040516103e8906200015f9062000224565b6060808252600c908201527f47616d65596573546f6b656e0000000000000000000000000000000000000000608082015260a0602082018190526003908201527f475954000000000000000000000000000000000000000000000000000000000060c0820152604081019190915260e001604051809103906000f080158015620001ed573d6000803e3d6000fd5b50600b8054600160a060020a0392909216600160a060020a03199283168117909155600a8054909216179055506200029892505050565b61155f806200382a83390190565b8051600160a060020a03811681146200024a57600080fd5b919050565b600080600080608085870312156200026657600080fd5b620002718562000232565b935060208501519250620002886040860162000232565b6060959095015193969295505050565b61358280620002a86000396000f3fe60806040523480156200001157600080fd5b5060043610620001b35760003560e060020a900480636e4d243a11620000f4578063d270e7ab11620000a7578063e07056af116200007e578063e07056af14620003e1578063e2cb747d14620003f8578063f91c2cbc146200040f578063f92a9e09146200042857600080fd5b8063d270e7ab14620003a2578063d6875f9514620003b6578063dc8046f014620003ca57600080fd5b80636e4d243a14620003365780637256eba41462000340578063846c6f4f14620003575780638e15f473146200036b5780638f09cc8b1462000375578063ae73ccec146200038957600080fd5b80631486d611116200016a5780632cd1adfe11620001415780632cd1adfe14620002f757806341ef10c8146200030e57806342cde4e8146200032257806346b1df04146200032c57600080fd5b80631486d61114620002755780631746bd1b1462000298578063200d2ed214620002d357600080fd5b806302d05d3f14620001b8578063053a2cfb14620001e95780630726325f146200020d578063097cd6c9146200023357806312065fe0146200024c57806314794702146200025e575b600080fd5b600054620001cc90600160a060020a031681565b604051600160a060020a0390911681526020015b60405180910390f35b600054620001fe9060a860020a900460ff1681565b604051620001e09190620021b2565b620002246200021e366004620021ed565b62000432565b604051620001e09190620022c5565b6200024a62000244366004620022d6565b620005c0565b005b30315b604051908152602001620001e0565b6200024a6200026f366004620022d6565b620006bc565b6200024f62000286366004620022f0565b60036020526000908152604090205481565b600054600154600254604051620001e093600160a060020a0381169360ff60a060020a830481169460a860020a90930416929091906200232d565b600054620002e89060a060020a900460ff1681565b604051620001e091906200236e565b62000224620003083660046200237e565b62000e41565b600854620001cc90600160a060020a031681565b6200024f60025481565b6200024f60115481565b6200024a62001056565b6200024a62000351366004620023dd565b62001221565b600a54620001cc90600160a060020a031681565b6200024f62001bca565b600954620001cc90600160a060020a031681565b6200039362001c5e565b604051620001e0919062002420565b600754620001cc90600160a060020a031681565b600b54620001cc90600160a060020a031681565b6200024a620003db36600462002509565b62001cfa565b620001cc620003f2366004620022d6565b62001d86565b6200024f62000409366004620025b9565b62001e2b565b6200041962001eea565b604051620001e09190620025d7565b6200024f60015481565b6200043c62002128565b6040517f6f6ff405000000000000000000000000000000000000000000000000000000008152600160a060020a0384811660048301528391600091831690636f6ff40590602401610120604051808303816000875af1158015620004a4573d6000803e3d6000fd5b505050506040513d601f19601f82011682018060405250810190620004ca9190620027b2565b9050600082600160a060020a03166302d05d3f6040518163ffffffff1660e060020a028152600401602060405180830381865afa15801562000510573d6000803e3d6000fd5b505050506040513d601f19601f82011682018060405250810190620005369190620027d2565b6040517fdc8046f0000000000000000000000000000000000000000000000000000000008152909150600160a060020a0382169063dc8046f09062000580908590600401620022c5565b600060405180830381600087803b1580156200059b57600080fd5b505af1158015620005b0573d6000803e3d6000fd5b5093955050505050505b92915050565b6000805474ff0000000000000000000000000000000000000000191660a060020a1790556002805481908312620005f8575060019050805b6000805483919075ff000000000000000000000000000000000000000000191660a860020a83600281111562000632576200063262002182565b021790555060006001556007546040517fe362937d00000000000000000000000000000000000000000000000000000000815260ff83166004820152600160a060020a039091169063e362937d90602401600060405180830381600087803b1580156200069e57600080fd5b505af1158015620006b3573d6000803e3d6000fd5b50505050505050565b600160005460a060020a900460ff166001811115620006df57620006df62002182565b14620007355760405160e560020a62461bcd02815260206004820152601660248201527f67616d65206973206e6f742079657420636c6f7365640000000000000000000060448201526064015b60405180910390fd5b6000805460a860020a900460ff16600281111562000757576200075762002182565b03620007a95760405160e560020a62461bcd02815260206004820152601e60248201527f67616d65206f7574636f6d652063616e6e6f7420626520756e6b6e6f776e000060448201526064016200072c565b600954600160a060020a0316600160005460a860020a900460ff166002811115620007d857620007d862002182565b03620007ec5750600b54600160a060020a03165b6040517fdd62ed3e0000000000000000000000000000000000000000000000000000000081523360048201523060248201528290600160a060020a0383169063dd62ed3e90604401602060405180830381865afa15801562000852573d6000803e3d6000fd5b505050506040513d601f19601f82011682018060405250810190620008789190620027f2565b1015620008f15760405160e560020a62461bcd02815260206004820152602360248201527f706c61796572206d75737420617070726f766520776974686472617720616d6f60448201527f756e74000000000000000000000000000000000000000000000000000000000060648201526084016200072c565b6040517f70a082310000000000000000000000000000000000000000000000000000000081523360048201528290600160a060020a038316906370a0823190602401602060405180830381865afa15801562000951573d6000803e3d6000fd5b505050506040513d601f19601f82011682018060405250810190620009779190620027f2565b1015620009f05760405160e560020a62461bcd02815260206004820152602e60248201527f706c61796572206d75737420686176652067616d6520746f6b656e20616d6f7560448201527f6e7420746f20776974686472617700000000000000000000000000000000000060648201526084016200072c565b60028060005460a860020a900460ff16600281111562000a145762000a1462002182565b0362000a1e575060015b60008362000a2e60018062002825565b62000a3a91906200284b565b90506000816003600085600281111562000a585762000a5862002182565b600281111562000a6c5762000a6c62002182565b815260200190815260200160002054600360008060159054906101000a900460ff16600281111562000aa25762000aa262002182565b600281111562000ab65762000ab662002182565b8152602001908152602001600020548462000ad2919062002825565b62000ade91906200284b565b62000aea919062002865565b9050600760009054906101000a9004600160a060020a0316600160a060020a0316633fc15f156040518163ffffffff1660e060020a028152600401602060405180830381865afa15801562000b43573d6000803e3d6000fd5b505050506040513d601f19601f8201168201806040525081019062000b699190620027d2565b6040517fa9059cbb00000000000000000000000000000000000000000000000000000000815233600482015260248101839052600160a060020a03919091169063a9059cbb906044016020604051808303816000875af115801562000bd2573d6000803e3d6000fd5b505050506040513d601f19601f8201168201806040525081019062000bf891906200287b565b5062000c078433308862002039565b6002600160005460a860020a900460ff16600281111562000c2c5762000c2c62002182565b0362000c36575060015b6040805160e08101825260068054825282518084018452600881527f57495448445241570000000000000000000000000000000000000000000000006020828101919091528301908152928201859052426060830181905260ff851660808401523060a08401523360c084015260058054600181018255600091909152835192027f036b6384b5eca791c62761152d0c79bb0604c104a5fb6f4eb0703f3154bb3db08101928355935190937f036b6384b5eca791c62761152d0c79bb0604c104a5fb6f4eb0703f3154bb3db1019062000d10908262002929565b506040820151600282015560608201516003820155608082015160048201805460a085015160ff90931674ffffffffffffffffffffffffffffffffffffffffff1990911617610100600160a060020a039384160217905560c0909201516005909101805473ffffffffffffffffffffffffffffffffffffffff1916919092161790556006805490600062000da483620029fc565b90915550506007546040517f7976948800000000000000000000000000000000000000000000000000000000815233600482015260ff841660248201526044810185905260648101839052600160a060020a0390911690637976948890608401600060405180830381600087803b15801562000e1f57600080fd5b505af115801562000e34573d6000803e3d6000fd5b5050505050505050505050565b62000e4b62002128565b600854600160a060020a031633148062000e6f5750600a54600160a060020a031633145b62000ee65760405160e560020a62461bcd02815260206004820152602760248201527f6f6e6c792067616d6520746f6b656e2063616e20637265617465206e6577206c60448201527f697374696e67730000000000000000000000000000000000000000000000000060648201526084016200072c565b60006011549050600081873388888860405162000f039062002174565b958652600160a060020a03948516602087015292841660408601526060850191909152909116608083015260a082015260c001604051809103906000f08015801562000f53573d6000803e3d6000fd5b506040805161012081018252848152600160a060020a0380841660208301528a811682840152336060830152608082018a9052600060a0830181905290891660c083015260e0820188905261010082015290517f070b5eb40000000000000000000000000000000000000000000000000000000081529192509073__IterableMapping_______________________9063070b5eb49062000ffe90600c908790869060040162002a18565b60006040518083038186803b1580156200101757600080fd5b505af41580156200102c573d6000803e3d6000fd5b5050601180549250905060006200104383620029fc565b909155509093505050505b949350505050565b600154421015620010ad5760405160e560020a62461bcd02815260206004820181905260248201527f67616d65206973206e6f7420726561647920746f206265207265736f6c76656460448201526064016200072c565b600160005460a060020a900460ff166001811115620010d057620010d062002182565b03620011225760405160e560020a62461bcd02815260206004820152601660248201527f67616d6520697320616c726561647920636c6f7365640000000000000000000060448201526064016200072c565b6000805474ff0000000000000000000000000000000000000000191660a060020a1790556002805481906200115662001bca565b1262001163575060019050805b6000805483919075ff000000000000000000000000000000000000000000191660a860020a8360028111156200119d576200119d62002182565b02179055506007546040517fe362937d00000000000000000000000000000000000000000000000000000000815260ff83166004820152600160a060020a039091169063e362937d90602401600060405180830381600087803b1580156200120457600080fd5b505af115801562001219573d6000803e3d6000fd5b505050505050565b60008060005460a060020a900460ff16600181111562001245576200124562002182565b14620012bd5760405160e560020a62461bcd02815260206004820152602860248201527f47616d6520697320636c6f7365642c206e6f206675727468657220626574732060448201527f616363657074656400000000000000000000000000000000000000000000000060648201526084016200072c565b8160ff1660011480620012d357508160ff166002145b620013245760405160e560020a62461bcd02815260206004820152601a60248201527f6265742073696465206973206e6f74207265636f676e6973656400000000000060448201526064016200072c565b600154421115620013a15760405160e560020a62461bcd02815260206004820152602260248201527f63616e6e6f74207075742062657473206166746572207265736f6c766520746960448201527f6d6500000000000000000000000000000000000000000000000000000000000060648201526084016200072c565b600754604080517f3fc15f1500000000000000000000000000000000000000000000000000000000815290518592600160a060020a031691633fc15f159160048083019260209291908290030181865afa15801562001404573d6000803e3d6000fd5b505050506040513d601f19601f820116820180604052508101906200142a9190620027d2565b6040517fdd62ed3e000000000000000000000000000000000000000000000000000000008152600160a060020a038781166004830152306024830152919091169063dd62ed3e90604401602060405180830381865afa15801562001492573d6000803e3d6000fd5b505050506040513d601f19601f82011682018060405250810190620014b89190620027f2565b1015620015315760405160e560020a62461bcd02815260206004820152602d60248201527f706c617965722773206877616e67206d61726b657420746f6b656e20616c6c6f60448201527f77616e636520746f6f206c6f770000000000000000000000000000000000000060648201526084016200072c565b600754604080517f3fc15f1500000000000000000000000000000000000000000000000000000000815290518592600160a060020a031691633fc15f159160048083019260209291908290030181865afa15801562001594573d6000803e3d6000fd5b505050506040513d601f19601f82011682018060405250810190620015ba9190620027d2565b6040517f70a08231000000000000000000000000000000000000000000000000000000008152600160a060020a03878116600483015291909116906370a0823190602401602060405180830381865afa1580156200161c573d6000803e3d6000fd5b505050506040513d601f19601f82011682018060405250810190620016429190620027f2565b1015620016bb5760405160e560020a62461bcd02815260206004820152602b60248201527f706c617965722773206877616e67206d61726b657420746f6b656e2062616c6160448201527f6e636520746f6f206c6f7700000000000000000000000000000000000000000060648201526084016200072c565b600260ff8316600103620016cd575060015b600954600160a060020a031660ff8416600103620016f35750600b54600160a060020a03165b6000620017026001876200284b565b905081600160a060020a03166319d1997a6040518163ffffffff1660e060020a028152600401602060405180830381865afa15801562001746573d6000803e3d6000fd5b505050506040513d601f19601f820116820180604052508101906200176c9190620027f2565b8183600160a060020a03166318160ddd6040518163ffffffff1660e060020a028152600401602060405180830381865afa158015620017af573d6000803e3d6000fd5b505050506040513d601f19601f82011682018060405250810190620017d59190620027f2565b620017e1919062002865565b11156200185a5760405160e560020a62461bcd02815260206004820152602760248201527f67616d6520746f6b656e2063616e6e6f74206d696e742072657175657374656460448201527f20616d6f756e740000000000000000000000000000000000000000000000000060648201526084016200072c565b6040517f40c10f19000000000000000000000000000000000000000000000000000000008152600160a060020a038881166004830152602482018390528316906340c10f1990604401600060405180830381600087803b158015620018be57600080fd5b505af1158015620018d3573d6000803e3d6000fd5b5050505062001961600760009054906101000a9004600160a060020a0316600160a060020a0316633fc15f156040518163ffffffff1660e060020a028152600401602060405180830381865afa15801562001932573d6000803e3d6000fd5b505050506040513d601f19601f82011682018060405250810190620019589190620027d2565b88308962002039565b85600360008560028111156200197b576200197b62002182565b60028111156200198f576200198f62002182565b81526020019081526020016000206000828254620019ae919062002865565b90915550506040805160e08101825260068054825282518084018452600381527f42455400000000000000000000000000000000000000000000000000000000006020828101919091528301908152928201899052426060830181905260ff891660808401523060a0840152600160a060020a038b1660c084015260058054600181018255600091909152835192027f036b6384b5eca791c62761152d0c79bb0604c104a5fb6f4eb0703f3154bb3db08101928355935190937f036b6384b5eca791c62761152d0c79bb0604c104a5fb6f4eb0703f3154bb3db1019062001a96908262002929565b506040820151600282015560608201516003820155608082015160048201805460a085015160ff90931674ffffffffffffffffffffffffffffffffffffffffff1990911617610100600160a060020a039384160217905560c0909201516005909101805473ffffffffffffffffffffffffffffffffffffffff1916919092161790556006805490600062001b2a83620029fc565b90915550506007546040517f5039eb97000000000000000000000000000000000000000000000000000000008152600160a060020a038a8116600483015260ff89166024830152604482018a90526064820184905290911690635039eb9790608401600060405180830381600087803b15801562001ba757600080fd5b505af115801562001bbc573d6000803e3d6000fd5b505050505050505050505050565b60048054604080517ffeaf968c00000000000000000000000000000000000000000000000000000000815290516000938493600160a060020a03169263feaf968c928183019260a0928290030181865afa15801562001c2d573d6000803e3d6000fd5b505050506040513d601f19601f8201168201806040525081019062001c53919062002a51565b509195945050505050565b6040517f75a02c20000000000000000000000000000000000000000000000000000000008152600c600482015260609073__IterableMapping_______________________906375a02c2090602401600060405180830381865af415801562001ccb573d6000803e3d6000fd5b505050506040513d6000823e601f3d908101601f1916820160405262001cf5919081019062002aa6565b905090565b80516040517f070b5eb400000000000000000000000000000000000000000000000000000000815273__IterableMapping_______________________9163070b5eb49162001d5191600c91869060040162002a18565b60006040518083038186803b15801562001d6a57600080fd5b505af415801562001d7f573d6000803e3d6000fd5b5050505050565b6040517fd31c830c000000000000000000000000000000000000000000000000000000008152600c60048201526024810182905260009073__IterableMapping_______________________9063d31c830c9060440161012060405180830381865af415801562001dfb573d6000803e3d6000fd5b505050506040513d601f19601f8201168201806040525081019062001e219190620027b2565b6020015192915050565b60008160ff166001148062001e4357508160ff166002145b62001e945760405160e560020a62461bcd02815260206004820152601a60248201527f73696465206d757374206265206f6e65206f662031206f72203200000000000060448201526064016200072c565b600260ff831660010362001ea6575060015b6003600082600281111562001ebf5762001ebf62002182565b600281111562001ed35762001ed362002182565b815260200190815260200160002054915050919050565b60606005805480602002602001604051908101604052809291908181526020016000905b828210156200203057838290600052602060002090600602016040518060e00160405290816000820154815260200160018201805462001f4e906200289b565b80601f016020809104026020016040519081016040528092919081815260200182805462001f7c906200289b565b801562001fcd5780601f1062001fa15761010080835404028352916020019162001fcd565b820191906000526020600020905b81548152906001019060200180831162001faf57829003601f168201915b5050509183525050600282015460208083019190915260038301546040830152600483015460ff81166060840152600160a060020a036101009091048116608084015260059093015490921660a090910152908252600192909201910162001f0e565b50505050905090565b6040517f23b872dd000000000000000000000000000000000000000000000000000000008152600160a060020a038481166004830152838116602483015260448201839052600091908616906323b872dd906064016020604051808303816000875af1158015620020ae573d6000803e3d6000fd5b505050506040513d601f19601f82011682018060405250810190620020d491906200287b565b90508062001d7f5760405160e560020a62461bcd02815260206004820152601560248201527f546f6b656e207472616e73666572206661696c6564000000000000000000000060448201526064016200072c565b6040805161012081018252600080825260208201819052918101829052606081018290526080810182905260a0810182905260c0810182905260e0810182905261010081019190915290565b6109e98062002b6483390190565b60e060020a634e487b7102600052602160045260246000fd5b60038110620021ae57620021ae62002182565b9052565b60208101620005ba82846200219b565b600160a060020a0381168114620021d857600080fd5b50565b8035620021e881620021c2565b919050565b600080604083850312156200220157600080fd5b82356200220e81620021c2565b915060208301356200222081620021c2565b809150509250929050565b805182526020810151600160a060020a03808216602085015280604084015116604085015280606084015116606085015250506080810151608083015260a08101516200228360a0840182600160a060020a03169052565b5060c08101516200229f60c0840182600160a060020a03169052565b5060e081015160e083015261010080820151620022bf8285018215159052565b50505050565b6101208101620005ba82846200222b565b600060208284031215620022e957600080fd5b5035919050565b6000602082840312156200230357600080fd5b8135600381106200231357600080fd5b9392505050565b60028110620021ae57620021ae62002182565b600160a060020a038616815260a081016200234c60208301876200231a565b6200235b60408301866200219b565b6060820193909352608001529392505050565b60208101620005ba82846200231a565b600080600080608085870312156200239557600080fd5b8435620023a281620021c2565b9350602085013592506040850135620023bb81620021c2565b9396929550929360600135925050565b803560ff81168114620021e857600080fd5b600080600060608486031215620023f357600080fd5b83356200240081620021c2565b9250602084013591506200241760408501620023cb565b90509250925092565b6020808252825182820181905260009190848201906040850190845b818110156200246757620024528385516200222b565b9284019261012092909201916001016200243c565b50909695505050505050565b60e060020a634e487b7102600052604160045260246000fd5b604051610120810167ffffffffffffffff81118282101715620024b357620024b362002473565b60405290565b604051601f8201601f1916810167ffffffffffffffff81118282101715620024e557620024e562002473565b604052919050565b8015158114620021d857600080fd5b8035620021e881620024ed565b600061012082840312156200251d57600080fd5b620025276200248c565b823581526200253960208401620021db565b60208201526200254c60408401620021db565b60408201526200255f60608401620021db565b6060820152608083013560808201526200257c60a08401620021db565b60a08201526200258f60c08401620021db565b60c082015260e083013560e0820152610100620025ae818501620024fc565b908201529392505050565b600060208284031215620025cc57600080fd5b6200231382620023cb565b6020808252825182820181905260009190604090818501908084028601830187850186805b84811015620026d857603f198a8503018652825160e08151865289820151818b880152805180838901528592505b808310156200264b578183018c01518884016101000152918b01916200262a565b61010092508583828a0101528a8401518b890152606091508184015182890152608091508184015162002682838a018260ff169052565b5060a0915081840151620026a0838a0182600160a060020a03169052565b5060c093840151600160a060020a03811689860152939150988b0198601f01601f1916969096010194505091870191600101620025fc565b50919998505050505050505050565b8051620021e881620021c2565b8051620021e881620024ed565b600061012082840312156200271557600080fd5b6200271f6200248c565b9050815181526200273360208301620026e7565b60208201526200274660408301620026e7565b60408201526200275960608301620026e7565b6060820152608082015160808201526200277660a08301620026e7565b60a08201526200278960c08301620026e7565b60c082015260e082015160e0820152610100620027a8818401620026f4565b9082015292915050565b60006101208284031215620027c657600080fd5b62002313838362002701565b600060208284031215620027e557600080fd5b81516200231381620021c2565b6000602082840312156200280557600080fd5b5051919050565b60e060020a634e487b7102600052601160045260246000fd5b600082620028465760e060020a634e487b7102600052601260045260246000fd5b500490565b8082028115828204841417620005ba57620005ba6200280c565b80820180821115620005ba57620005ba6200280c565b6000602082840312156200288e57600080fd5b81516200231381620024ed565b600281046001821680620028b057607f821691505b602082108103620028d45760e060020a634e487b7102600052602260045260246000fd5b50919050565b601f82111562002924576000818152602081206020601f86010481016020861015620029035750805b6020601f860104820191505b8181101562001219578281556001016200290f565b505050565b815167ffffffffffffffff81111562002946576200294662002473565b6200295e816200295784546200289b565b84620028da565b602080601f8311600181146200299a57600084156200297d5750858301515b60028086026008870290910a600019041982161786555062001219565b600085815260208120601f198616915b82811015620029cb57888601518255948401946001909101908401620029aa565b5085821015620029ec57878501516008601f88160260020a60001904191681555b5050505050600202600101905550565b60006001820162002a115762002a116200280c565b5060010190565b8381526020810183905261016081016200104e60408301846200222b565b805169ffffffffffffffffffff81168114620021e857600080fd5b600080600080600060a0868803121562002a6a57600080fd5b62002a758662002a36565b945060208601519350604086015192506060860151915062002a9a6080870162002a36565b90509295509295909350565b6000602080838503121562002aba57600080fd5b825167ffffffffffffffff8082111562002ad357600080fd5b818501915085601f83011262002ae857600080fd5b81518181111562002afd5762002afd62002473565b62002b0c8485830201620024b9565b818152848101925061012091820284018501918883111562002b2d57600080fd5b938501935b8285101562002b575762002b47898662002701565b8452938401939285019262002b32565b5097965050505050505056fe608060405234801561001057600080fd5b506040516109e93803806109e983398101604081905261002f9161020c565b6000805433600160a060020a03199182168117909255600a805461010060a860020a031916610100909302929092179091556001879055600280548216600160a060020a03888116918217909255600380548416888416908117909155600587905560078054851693871693909317909255600984905560048054909316821783556040517f70a082310000000000000000000000000000000000000000000000000000000081529283015284916370a0823190602401602060405180830381865afa158015610103573d6000803e3d6000fd5b505050506040513d601f19601f82011682018060405250810190610127919061026b565b10156101bb57604080517f08c379a00000000000000000000000000000000000000000000000000000000081526020600482015260248101919091527f706c6179657220312068617320696e73756666696369656e742062616c616e6360448201527f65206f6620746f6b656e203120746f206372656174652061206c697374696e67606482015260840160405180910390fd5b5060088054600160a060020a031916600160a060020a03929092169190911790555050600a805460ff19169055506102849050565b8051600160a060020a038116811461020757600080fd5b919050565b60008060008060008060c0878903121561022557600080fd5b86519550610235602088016101f0565b9450610243604088016101f0565b935060608701519250610258608088016101f0565b915060a087015190509295509295509295565b60006020828403121561027d57600080fd5b5051919050565b610756806102936000396000f3fe608060405234801561001057600080fd5b50600436106100d1576000357c010000000000000000000000000000000000000000000000000000000090048063c4e5edcd1161008e578063c4e5edcd14610176578063d21220a71461017f578063d30895e414610192578063d5488048146101a5578063d70c6703146101b8578063e2d46f98146101c157600080fd5b806302d05d3f146100d657806325be124e1461010657806358aaf0be1461011957806359a5f12d1461012c5780636f6ff4051461013f5780639405dfdd1461015f575b600080fd5b6000546100e990600160a060020a031681565b604051600160a060020a0390911681526020015b60405180910390f35b6007546100e990600160a060020a031681565b6008546100e990600160a060020a031681565b6006546100e990600160a060020a031681565b61015261014d366004610604565b6101de565b6040516100fd9190610634565b61016860015481565b6040519081526020016100fd565b61016860095481565b6003546100e990600160a060020a031681565b6002546100e990600160a060020a031681565b6004546100e990600160a060020a031681565b61016860055481565b600a546101ce9060ff1681565b60405190151581526020016100fd565b6040805161012081018252600080825260208201819052918101829052606081018290526080810182905260a0810182905260c0810182905260e08101829052610100810191909152600554600480546002546040517fdd62ed3e000000000000000000000000000000000000000000000000000000008152600160a060020a0391821693810193909352306024840152169063dd62ed3e90604401602060405180830381865afa158015610297573d6000803e3d6000fd5b505050506040513d601f19601f820116820180604052508101906102bb91906106e5565b1015610328576040517f08c379a000000000000000000000000000000000000000000000000000000000815260206004820152601960248201527f546f6b656e203120616c6c6f77616e636520746f6f206c6f770000000000000060448201526064015b60405180910390fd5b6009546008546040517fdd62ed3e000000000000000000000000000000000000000000000000000000008152600160a060020a0385811660048301523060248301529091169063dd62ed3e90604401602060405180830381865afa158015610394573d6000803e3d6000fd5b505050506040513d601f19601f820116820180604052508101906103b891906106e5565b1015610420576040517f08c379a000000000000000000000000000000000000000000000000000000000815260206004820152601960248201527f546f6b656e203220616c6c6f77616e636520746f6f206c6f7700000000000000604482015260640161031f565b60045460025460055461044292600160a060020a0390811692169085906104fc565b60085460025460095461046592600160a060020a039081169286929116906104fc565b506006805473ffffffffffffffffffffffffffffffffffffffff1916600160a060020a03928316908117909155600a805460ff1916600190811790915560408051610120810182528254815230602082015260025485169181019190915260035484166060820152600554608082015260a081019290925260075490921660c082015260095460e082015261010081019190915290565b6040517f23b872dd000000000000000000000000000000000000000000000000000000008152600160a060020a038481166004830152838116602483015260448201839052600091908616906323b872dd906064016020604051808303816000875af1158015610570573d6000803e3d6000fd5b505050506040513d601f19601f8201168201806040525081019061059491906106fe565b9050806105fd576040517f08c379a000000000000000000000000000000000000000000000000000000000815260206004820152601560248201527f546f6b656e207472616e73666572206661696c65640000000000000000000000604482015260640161031f565b5050505050565b60006020828403121561061657600080fd5b8135600160a060020a038116811461062d57600080fd5b9392505050565b600061012082019050825182526020830151600160a060020a0380821660208501528060408601511660408501525050606083015161067e6060840182600160a060020a03169052565b506080830151608083015260a08301516106a360a0840182600160a060020a03169052565b5060c08301516106be60c0840182600160a060020a03169052565b5060e083015160e0830152610100808401516106dd8285018215159052565b505092915050565b6000602082840312156106f757600080fd5b5051919050565b60006020828403121561071057600080fd5b8151801515811461062d57600080fdfea2646970667358221220632a1edddbe1b3964f3806c92cdcc4d525c409aae8eb4f671dcd2093f83196dc64736f6c63430008110033a2646970667358221220b252af4078d95e5180a3a443d5fe88aad706a5dc26c59e73989217382cd5a3e264736f6c6343000811003360806040523480156200001157600080fd5b506040516200155f3803806200155f833981016040819052620000349162000164565b60068054600160a060020a0319163317905560046200005484826200027f565b5060056200006383826200027f565b506000908155600155505060078054600160a060020a0319163317905562000351565b7f4e487b7100000000000000000000000000000000000000000000000000000000600052604160045260246000fd5b600082601f830112620000c757600080fd5b81516001604060020a0380821115620000e457620000e462000086565b604051601f8301601f19908116603f011681019082821181831017156200010f576200010f62000086565b816040528381526020925086838588010111156200012c57600080fd5b600091505b8382101562000150578582018301518183018401529082019062000131565b600093810190920192909252949350505050565b6000806000606084860312156200017a57600080fd5b83516001604060020a03808211156200019257600080fd5b620001a087838801620000b5565b94506020860151915080821115620001b757600080fd5b50620001c686828701620000b5565b925050604084015190509250925092565b600281046001821680620001ec57607f821691505b60208210810362000226577f4e487b7100000000000000000000000000000000000000000000000000000000600052602260045260246000fd5b50919050565b601f8211156200027a576000818152602081206020601f86010481016020861015620002555750805b6020601f860104820191505b81811015620002765782815560010162000261565b5050505b505050565b81516001604060020a038111156200029b576200029b62000086565b620002b381620002ac8454620001d7565b846200022c565b602080601f831160018114620002ef5760008415620002d25750858301515b60028086026008870290910a600019041982161786555062000276565b600085815260208120601f198616915b828110156200032057888601518255948401946001909101908401620002ff565b50858210156200034157878501516008601f88160260020a60001904191681555b5050505050600202600101905550565b6111fe80620003616000396000f3fe608060405234801561001057600080fd5b50600436106100d35760003560e060020a9004806342966c68116100905780639ea3c8201161006a5780639ea3c8201461019c578063a9059cbb146101bc578063dd62ed3e146101cf578063de6a8dc5146101fa57600080fd5b806342966c681461016157806370a082311461017457806395d89b411461019457600080fd5b806306fdde03146100d8578063095ea7b3146100f657806318160ddd1461011957806319d1997a1461013057806323b872dd1461013957806340c10f191461014c575b600080fd5b6100e061020d565b6040516100ed9190610d60565b60405180910390f35b610109610104366004610dc6565b61029b565b60405190151581526020016100ed565b61012260015481565b6040519081526020016100ed565b61012260005481565b610109610147366004610df2565b610359565b61015f61015a366004610dc6565b610509565b005b61015f61016f366004610e33565b610669565b610122610182366004610e4c565b60026020526000908152604090205481565b6100e0610701565b6101af6101aa366004610e4c565b61070e565b6040516100ed9190610e70565b6101096101ca366004610dc6565b610a94565b6101226101dd366004610f21565b600360209081526000928352604080842090915290825290205481565b6101af610208366004610f5a565b610b7a565b6004805461021a90610f81565b80601f016020809104026020016040519081016040528092919081815260200182805461024690610f81565b80156102935780601f1061026857610100808354040283529160200191610293565b820191906000526020600020905b81548152906001019060200180831161027657829003601f168201915b505050505081565b336000908152600260205260408120548211156102d65760405160e560020a62461bcd0281526004016102cd90610fd4565b60405180910390fd5b336000908152600360209081526040808320600160a060020a03871684529091528120805484929061030990849061103a565b9091555050604051828152600160a060020a0384169033907f8c5be1e5ebec7d5bd14f71427d1e84f3dd0314c0f7b2291e5b200ac8c7c3b925906020015b60405180910390a35060015b92915050565b600160a060020a03831660009081526003602090815260408083203384529091528120548211156103f55760405160e560020a62461bcd02815260206004820152602f60248201527f696e73756666696369656e7420616c6c6f77616e636520746f2072656369706960448201527f656e742066726f6d2073656e646572000000000000000000000000000000000060648201526084016102cd565b600160a060020a0384166000908152600260205260409020548211156104305760405160e560020a62461bcd0281526004016102cd90610fd4565b600160a060020a03841660009081526003602090815260408083203384529091528120805484929061046390849061104d565b9091555050600160a060020a0384166000908152600260205260408120805484929061049090849061104d565b9091555050600160a060020a038316600090815260026020526040812080548492906104bd90849061103a565b9250508190555082600160a060020a031684600160a060020a03166000805160206111a9833981519152846040516104f791815260200190565b60405180910390a35060019392505050565b600654600160a060020a031633146105665760405160e560020a62461bcd02815260206004820152600e60248201527f4e6f7420617574686f72697a656400000000000000000000000000000000000060448201526064016102cd565b60005481600154610577919061103a565b11156105f0576040805160e560020a62461bcd0281526020600482015260248101919091527f63616e6e6f74206d696e74207468652072657175657374656420616d6f756e7460448201527f206f6620746f6b656e732c20737570706c79206c696d697420746f6f206c6f7760648201526084016102cd565b600160a060020a0382166000908152600260205260408120805483929061061890849061103a565b925050819055508060016000828254610631919061103a565b9091555050604051818152600160a060020a038316906000906000805160206111a98339815191529060200160405180910390a35050565b3360009081526002602052604090205481111561069b5760405160e560020a62461bcd0281526004016102cd90610fd4565b33600090815260026020526040812080548392906106ba90849061104d565b9250508190555080600160008282546106d3919061104d565b909155505060405181815260009033906000805160206111a98339815191529060200160405180910390a350565b6005805461021a90610f81565b610716610d14565b600082905030600160a060020a031681600160a060020a03166325be124e6040518163ffffffff1660e060020a028152600401602060405180830381865afa158015610766573d6000803e3d6000fd5b505050506040513d601f19601f8201168201806040525081019061078a9190611070565b600160a060020a0316146107e35760405160e560020a62461bcd02815260206004820181905260248201527f6c697374696e672077616e7473206120646966666572656e7420746f6b656e3260448201526064016102cd565b80600160a060020a031663c4e5edcd6040518163ffffffff1660e060020a028152600401602060405180830381865afa158015610824573d6000803e3d6000fd5b505050506040513d601f19601f82011682018060405250810190610848919061108d565b3360009081526002602052604090205410156108795760405160e560020a62461bcd0281526004016102cd90610fd4565b80600160a060020a031663c4e5edcd6040518163ffffffff1660e060020a028152600401602060405180830381865afa1580156108ba573d6000803e3d6000fd5b505050506040513d601f19601f820116820180604052508101906108de919061108d565b336000908152600360209081526040808320600160a060020a03881684529091528120805490919061091190849061103a565b9250508190555082600160a060020a031633600160a060020a03167f8c5be1e5ebec7d5bd14f71427d1e84f3dd0314c0f7b2291e5b200ac8c7c3b92583600160a060020a031663c4e5edcd6040518163ffffffff1660e060020a028152600401602060405180830381865afa15801561098e573d6000803e3d6000fd5b505050506040513d601f19601f820116820180604052508101906109b2919061108d565b60405190815260200160405180910390a36007546040517f0726325f000000000000000000000000000000000000000000000000000000008152336004820152600160a060020a0385811660248301526000921690630726325f90604401610120604051808303816000875af1158015610a30573d6000803e3d6000fd5b505050506040513d601f19601f82011682018060405250810190610a549190611107565b90507f4758bcd8e425945eea731ed13074c209c3176197b970b6a78b278ad015ae907881604051610a859190610e70565b60405180910390a19392505050565b33600090815260026020526040812054821115610ac65760405160e560020a62461bcd0281526004016102cd90610fd4565b3360009081526002602052604081208054849290610ae590849061104d565b9091555050600160a060020a03831660009081526002602052604081208054849290610b1290849061103a565b9091555050336000908152600360209081526040808320600160a060020a038716845290915281208054849290610b4a90849061104d565b9091555050604051828152600160a060020a0384169033906000805160206111a983398151915290602001610347565b610b82610d14565b33600090815260026020526040902054841115610bb45760405160e560020a62461bcd0281526004016102cd90610fd4565b6007546040517f2cd1adfe00000000000000000000000000000000000000000000000000000000815233600482015260248101869052600160a060020a038581166044830152606482018590526000921690632cd1adfe90608401610120604051808303816000875af1158015610c2f573d6000803e3d6000fd5b505050506040513d601f19601f82011682018060405250810190610c539190611107565b602080820151336000908152600383526040808220600160a060020a038416835290935291822080549394509092889290610c8f90849061103a565b9091555050604051868152600160a060020a0382169033907f8c5be1e5ebec7d5bd14f71427d1e84f3dd0314c0f7b2291e5b200ac8c7c3b9259060200160405180910390a37fd1fe3704bd3aa4f4974d5168e39528bbb86b19e98e5f798beea49af58df3013982604051610d039190610e70565b60405180910390a150949350505050565b6040805161012081018252600080825260208201819052918101829052606081018290526080810182905260a0810182905260c0810182905260e0810182905261010081019190915290565b600060208083528351808285015260005b81811015610d8d57858101830151858201604001528201610d71565b506000604082860101526040601f19601f8301168501019250505092915050565b600160a060020a0381168114610dc357600080fd5b50565b60008060408385031215610dd957600080fd5b8235610de481610dae565b946020939093013593505050565b600080600060608486031215610e0757600080fd5b8335610e1281610dae565b92506020840135610e2281610dae565b929592945050506040919091013590565b600060208284031215610e4557600080fd5b5035919050565b600060208284031215610e5e57600080fd5b8135610e6981610dae565b9392505050565b600061012082019050825182526020830151600160a060020a03808216602085015280604086015116604085015250506060830151610eba6060840182600160a060020a03169052565b506080830151608083015260a0830151610edf60a0840182600160a060020a03169052565b5060c0830151610efa60c0840182600160a060020a03169052565b5060e083015160e083015261010080840151610f198285018215159052565b505092915050565b60008060408385031215610f3457600080fd5b8235610f3f81610dae565b91506020830135610f4f81610dae565b809150509250929050565b600080600060608486031215610f6f57600080fd5b833592506020840135610e2281610dae565b600281046001821680610f9557607f821691505b602082108103610fce577f4e487b7100000000000000000000000000000000000000000000000000000000600052602260045260246000fd5b50919050565b6020808252601e908201527f696e73756666696369656e742062616c616e636520696e2073656e6465720000604082015260600190565b7f4e487b7100000000000000000000000000000000000000000000000000000000600052601160045260246000fd5b808201808211156103535761035361100b565b818103818111156103535761035361100b565b805161106b81610dae565b919050565b60006020828403121561108257600080fd5b8151610e6981610dae565b60006020828403121561109f57600080fd5b5051919050565b604051610120810167ffffffffffffffff811182821017156110f1577f4e487b7100000000000000000000000000000000000000000000000000000000600052604160045260246000fd5b60405290565b8051801515811461106b57600080fd5b6000610120828403121561111a57600080fd5b6111226110a6565b8251815261113260208401611060565b602082015261114360408401611060565b604082015261115460608401611060565b60608201526080830151608082015261116f60a08401611060565b60a082015261118060c08401611060565b60c082015260e083015160e082015261010061119d8185016110f7565b90820152939250505056feddf252ad1be2c89b69c2b068fc378daa952ba7f163c4a11628f55a4df523b3efa2646970667358221220e79c55acc87bf0eb8177bb199de42d6ebfdef428b8515d04e1a87cdc35bf074b64736f6c63430008110033a26469706673582212209cf7691bd30a54636425ff543c28d9279846272ca450b2e56d640791385d638b64736f6c63430008110033",
  "immutableReferences": {},
  "source": "// SPDX-License-Identifier: MIT\npragma solidity >=0.4.22 <0.9.0;\n\nimport \"./MainToken.sol\";\nimport \"./IListingOwner.sol\";\nimport \"./GameContract.sol\";\nimport \"./GameContractFactory.sol\";\nimport \"./IterableMapping.sol\";\nimport \"./Models.sol\";\nimport \"@openzeppelin/contracts/utils/math/SafeMath.sol\";\nimport \"@openzeppelin/contracts/token/ERC20/IERC20.sol\";\n\ncontract HwangMarket is IListingOwner {\n  using IterableMapping for IterableMapping.ListingsMap;\n  using SafeMath for uint256;\n  address public mainTokenAddress;\n  MainToken public mainToken;\n\n  // game contract factory is used to reduce contract build size :(\n  GameContractFactory gameFactory;\n\n  // for all activity\n  uint256 private trxId;\n\n  // for all games created\n  uint256 private gameCount;\n  mapping(uint256 => Models.GameMetadata) public gameContractRegistry;\n  mapping(address => uint256) public gameAddr2Id;\n  \n  // for all ongoing games\n  uint256 private ongoingGamesCnt; // record end of ongoing games array\n  Models.GameMetadata[] public ongoingGames;\n  mapping(uint256 => uint256) ongoingGamesId2Idx;\n\n  // for all closed games\n  Models.GameMetadata[] public closedGames;\n\n  // Activity types constant\n  string constant BetActivityType = \"BET\";\n  string constant WithdrawActivityType = \"WITHDRAW\";\n\n  mapping(address => Models.Activity[]) public playersRecords;\n\n  IterableMapping.ListingsMap private listingContracts;\n  uint256 public listingsCount;\n  \n  mapping(address => Models.TokenInfo) public gameTokensRegistry;\n  constructor() {\n    // we start counting from game 1, game id 0 is nonsense since its also default value\n    gameCount = 1;\n\n    mainToken = new MainToken();\n    mainTokenAddress = address(mainToken);\n    gameFactory = new GameContractFactory();\n  }\n\n  event GameCreated(Models.GameMetadata gameMetadata);\n  event PlayerJoinedGameEvent(address player, uint256 gameId, address gameAddr, uint8 betSide, uint256 amount);\n  event PlayerWithdrawedWinnings(address player, uint256 gameId, address gameAddr, uint8 betSide, uint256 withdrawedAmt);\n  event GameConcluded(uint256 gameId, address gameAddr, uint8 gameOutcome);\n\n  // create game contract instance\n  function createGame(uint256 resolveTime, address oracleAddr, int256 threshold, string memory tag, string memory title) public returns (address) {\n    GameContract newGame = gameFactory.createGame(address(this), resolveTime, oracleAddr, threshold); \n    address newGameAddress = address(newGame);\n    gameContractRegistry[gameCount] = Models.GameMetadata({\n      id: gameCount,\n      addr: newGameAddress,\n      tag: tag,\n      title: title,\n      oracleAddr: oracleAddr,\n      resolveTime: resolveTime,\n      threshold: threshold,\n      totalAmount: 0,\n      betYesAmount: 0,\n      betNoAmount: 0,\n      ongoing: true,\n      gameOutcome: 0\n    });\n    gameTokensRegistry[newGame.gameYesTokenContractAddress()] = Models.TokenInfo({\n      tokenAddr: newGame.gameYesTokenContractAddress(),\n      betSide: 1,\n      gameId: gameCount,\n      gameAddr: newGameAddress,\n      gameTag: tag,\n      gameTitle: title,\n      gameOracleAddr: oracleAddr,\n      gameResolveTime: resolveTime,\n      gameThreshold: threshold\n    });\n    gameTokensRegistry[newGame.gameNoTokenContractAddress()] = Models.TokenInfo({\n      tokenAddr: newGame.gameNoTokenContractAddress(),\n      betSide: 0,\n      gameId: gameCount,\n      gameAddr: newGameAddress,\n      gameTag: tag,\n      gameTitle: title,\n      gameOracleAddr: oracleAddr,\n      gameResolveTime: resolveTime,\n      gameThreshold: threshold\n    });\n\n    gameAddr2Id[newGameAddress] = gameCount;\n\n    ongoingGamesId2Idx[gameCount] = ongoingGamesCnt;\n    ongoingGames.push(gameContractRegistry[gameCount]);\n\n    ongoingGamesCnt = SafeMath.add(ongoingGamesCnt, 1);\n    gameCount = SafeMath.add(gameCount, 1);\n\n    emit GameCreated(gameContractRegistry[gameCount]);\n\n    return newGameAddress;\n  }\n\n  function getGameCount() public view returns (uint256) {\n    return gameCount-1; // [1, gameCount)\n  }\n\n  \n  // fetches all games\n  function getAllGames() public view returns (Models.AllGames memory) {\n    return Models.AllGames({ongoingGames: ongoingGames, closedGames: closedGames});\n  }\n\n  // creates a new listing, intended to be called by the IERC20 and IListableToken compliant token\n  function newListing(address player, uint256 token1Amt, address token2, uint256 token2Amt) external returns (Models.ListingInfo memory) {\n    require(msg.sender == mainTokenAddress, \"only main token can call\");\n    uint256 newListingId = listingsCount;\n    ListingContract newListingContract = new ListingContract(newListingId, player, msg.sender, token1Amt, token2, token2Amt);\n    Models.ListingInfo memory listingInfo = Models.ListingInfo({\n      listingId: newListingId,\n      listingAddr: address(newListingContract),\n      player1: player,\n      token1: msg.sender,\n      token1Amt: token1Amt,\n      player2: address(0),\n      token2: token2,\n      token2Amt: token2Amt,\n      fulfilled: false\n    });\n    listingContracts.set(newListingId, listingInfo);\n\n    listingsCount++;\n    return listingInfo;\n  }\n\n  function getAllListings() external view returns (Models.ListingInfo[] memory) {\n    return listingContracts.getlistingValues();\n  }\n\n  function updateListing(Models.ListingInfo memory listingInfo) public {\n    listingContracts.set(listingInfo.listingId, listingInfo);\n  }\n\n  function partakeInListing(address _player, address listingAddr) public returns (Models.ListingInfo memory) {\n    ListingContract listingContract = ListingContract(listingAddr);\n    Models.ListingInfo memory listingInfo = listingContract.trigger(_player);\n    IListingOwner listingOwner = IListingOwner(listingContract.creator());\n    listingOwner.updateListing(listingInfo);\n\n    return listingInfo;\n  }\n\n  // callable only by the game itself\n  // A player joined the game on a particular side\n  function playerJoinedSide(address player, uint8 betSide, uint256 amount, uint256 timestamp) external {\n    require(gameAddr2Id[msg.sender] != 0);\n    address gameAddr = msg.sender;\n    uint256 gameId = gameAddr2Id[gameAddr];\n    Models.GameMetadata memory gameMetadata = gameContractRegistry[gameId];\n    gameMetadata.totalAmount += amount;\n    if (betSide == 2) {\n      gameMetadata.betNoAmount += amount;\n    } else {\n      gameMetadata.betYesAmount += amount;\n    }\n\n    // record this activity as well\n    playersRecords[player].push(Models.Activity({\n      trxId: trxId,\n      activityType: BetActivityType,\n      gameId: gameId,\n      trxAmt: amount,\n      trxTime: timestamp,\n      gameSide: betSide,\n      from: player,\n      to: gameAddr\n    }));\n\n    trxId = SafeMath.add(trxId, 1);\n\n    emit PlayerJoinedGameEvent(player, gameId, gameAddr, betSide, amount);\n  }\n\n  // callable only by contract\n  // note: withdraw winnings means recording player's owned game tokens -> hwang market tokens\n  function playerWithdrawWinnings(address _player, uint8 betSide, uint256 withdrawAmt, uint256 timestamp) external {\n    require(gameAddr2Id[msg.sender] != 0);\n    address gameAddr = msg.sender;\n    uint256 gameId = gameAddr2Id[gameAddr];\n    playersRecords[_player].push(Models.Activity({\n      trxId: trxId,\n      activityType: WithdrawActivityType,\n      gameId: gameId,\n      trxAmt: withdrawAmt,\n      trxTime: timestamp,\n      gameSide: betSide,\n      from: gameAddr,\n      to: _player\n    }));\n\n    trxId = SafeMath.add(trxId, 1);\n\n    emit PlayerWithdrawedWinnings(_player, gameId, gameAddr, betSide, withdrawAmt);\n  }\n\n  function concludeGame(uint8 gameOutcome) external {\n    require(gameAddr2Id[msg.sender] != 0);\n    address gameAddr = msg.sender;\n    uint256 gameId = gameAddr2Id[gameAddr];\n\n    // move game out of existing ongoing games\n    uint256 existingGameIdx = ongoingGamesId2Idx[gameId];\n    Models.GameMetadata memory finisedGame = ongoingGames[existingGameIdx];\n    Models.GameMetadata memory lastOngoingGame = ongoingGames[SafeMath.sub(ongoingGamesCnt, 1)];\n    ongoingGamesId2Idx[lastOngoingGame.id] = existingGameIdx;\n    delete ongoingGamesId2Idx[gameId];\n    ongoingGames[existingGameIdx] = lastOngoingGame;\n    ongoingGamesCnt = SafeMath.sub(ongoingGamesCnt, 1);\n\n    // // update metadata for the game\n    finisedGame.ongoing = false;\n    finisedGame.gameOutcome = gameOutcome;\n\n    gameContractRegistry[finisedGame.id].ongoing = false;\n    gameContractRegistry[finisedGame.id].gameOutcome = gameOutcome;\n\n    // add this game to array of closedGames\n    closedGames.push(finisedGame);\n    ongoingGames.pop();\n\n    emit GameConcluded(gameId, gameAddr, gameOutcome);\n  }\n\n  // to get smart contract's balance\n  function getBalance() public view returns (uint256) {\n    return address(this).balance;\n  }\n\n  function getPlayersTrxRecords(address player) public view returns (Models.Activity[] memory) {\n    return playersRecords[player];\n  }\n}\n",
  "sourcePath": "/Users/gerald/Desktop/HwangMarket/contracts/HwangMarket.sol",
  "compiler": {
    "name": "solc",
    "version": "0.8.17+commit.8df45f5f.Emscripten.clang"
  },
  "schemaVersion": "3.4.10",
  "updatedAt": "2022-10-25T11:52:27.300Z",
  "networkType": "ethereum",
  "devdoc": {
    "kind": "dev",
    "methods": {},
    "version": 1
  },
  "userdoc": {
    "kind": "user",
    "methods": {},
    "version": 1
  }
}