{
  "contractName": "HwangMarket",
  "abi": [
    {
      "inputs": [],
      "stateMutability": "nonpayable",
      "type": "constructor"
    },
    {
      "anonymous": false,
      "inputs": [
        {
          "indexed": false,
          "internalType": "uint256",
          "name": "gameId",
          "type": "uint256"
        },
        {
          "indexed": false,
          "internalType": "address",
          "name": "gameAddr",
          "type": "address"
        },
        {
          "indexed": false,
          "internalType": "uint8",
          "name": "gameOutcome",
          "type": "uint8"
        }
      ],
      "name": "GameConcluded",
      "type": "event"
    },
    {
      "anonymous": false,
      "inputs": [
        {
          "components": [
            {
              "internalType": "uint256",
              "name": "id",
              "type": "uint256"
            },
            {
              "internalType": "address",
              "name": "addr",
              "type": "address"
            },
            {
              "internalType": "string",
              "name": "tag",
              "type": "string"
            },
            {
              "internalType": "string",
              "name": "title",
              "type": "string"
            },
            {
              "internalType": "address",
              "name": "oracleAddr",
              "type": "address"
            },
            {
              "internalType": "uint256",
              "name": "resolveTime",
              "type": "uint256"
            },
            {
              "internalType": "int256",
              "name": "threshold",
              "type": "int256"
            },
            {
              "internalType": "uint256",
              "name": "totalAmount",
              "type": "uint256"
            },
            {
              "internalType": "uint256",
              "name": "betYesAmount",
              "type": "uint256"
            },
            {
              "internalType": "uint256",
              "name": "betNoAmount",
              "type": "uint256"
            },
            {
              "internalType": "bool",
              "name": "ongoing",
              "type": "bool"
            },
            {
              "internalType": "uint8",
              "name": "gameOutcome",
              "type": "uint8"
            }
          ],
          "indexed": false,
          "internalType": "struct HwangMarket.GameMetadata",
          "name": "gameMetadata",
          "type": "tuple"
        }
      ],
      "name": "GameCreated",
      "type": "event"
    },
    {
      "anonymous": false,
      "inputs": [
        {
          "indexed": false,
          "internalType": "address",
          "name": "player",
          "type": "address"
        },
        {
          "indexed": false,
          "internalType": "uint256",
          "name": "gameId",
          "type": "uint256"
        },
        {
          "indexed": false,
          "internalType": "address",
          "name": "gameAddr",
          "type": "address"
        },
        {
          "indexed": false,
          "internalType": "uint8",
          "name": "betSide",
          "type": "uint8"
        },
        {
          "indexed": false,
          "internalType": "uint256",
          "name": "amount",
          "type": "uint256"
        }
      ],
      "name": "PlayerJoinedGameEvent",
      "type": "event"
    },
    {
      "anonymous": false,
      "inputs": [
        {
          "indexed": false,
          "internalType": "address",
          "name": "player",
          "type": "address"
        },
        {
          "indexed": false,
          "internalType": "uint256",
          "name": "gameId",
          "type": "uint256"
        },
        {
          "indexed": false,
          "internalType": "address",
          "name": "gameAddr",
          "type": "address"
        },
        {
          "indexed": false,
          "internalType": "uint8",
          "name": "betSide",
          "type": "uint8"
        },
        {
          "indexed": false,
          "internalType": "uint256",
          "name": "withdrawedAmt",
          "type": "uint256"
        }
      ],
      "name": "PlayerWithdrawedWinnings",
      "type": "event"
    },
    {
      "inputs": [
        {
          "internalType": "uint256",
          "name": "",
          "type": "uint256"
        }
      ],
      "name": "closedGames",
      "outputs": [
        {
          "internalType": "uint256",
          "name": "id",
          "type": "uint256"
        },
        {
          "internalType": "address",
          "name": "addr",
          "type": "address"
        },
        {
          "internalType": "string",
          "name": "tag",
          "type": "string"
        },
        {
          "internalType": "string",
          "name": "title",
          "type": "string"
        },
        {
          "internalType": "address",
          "name": "oracleAddr",
          "type": "address"
        },
        {
          "internalType": "uint256",
          "name": "resolveTime",
          "type": "uint256"
        },
        {
          "internalType": "int256",
          "name": "threshold",
          "type": "int256"
        },
        {
          "internalType": "uint256",
          "name": "totalAmount",
          "type": "uint256"
        },
        {
          "internalType": "uint256",
          "name": "betYesAmount",
          "type": "uint256"
        },
        {
          "internalType": "uint256",
          "name": "betNoAmount",
          "type": "uint256"
        },
        {
          "internalType": "bool",
          "name": "ongoing",
          "type": "bool"
        },
        {
          "internalType": "uint8",
          "name": "gameOutcome",
          "type": "uint8"
        }
      ],
      "stateMutability": "view",
      "type": "function"
    },
    {
      "inputs": [
        {
          "internalType": "address",
          "name": "",
          "type": "address"
        }
      ],
      "name": "gameAddr2Id",
      "outputs": [
        {
          "internalType": "uint256",
          "name": "",
          "type": "uint256"
        }
      ],
      "stateMutability": "view",
      "type": "function"
    },
    {
      "inputs": [
        {
          "internalType": "uint256",
          "name": "",
          "type": "uint256"
        }
      ],
      "name": "gameContractRegistry",
      "outputs": [
        {
          "internalType": "uint256",
          "name": "id",
          "type": "uint256"
        },
        {
          "internalType": "address",
          "name": "addr",
          "type": "address"
        },
        {
          "internalType": "string",
          "name": "tag",
          "type": "string"
        },
        {
          "internalType": "string",
          "name": "title",
          "type": "string"
        },
        {
          "internalType": "address",
          "name": "oracleAddr",
          "type": "address"
        },
        {
          "internalType": "uint256",
          "name": "resolveTime",
          "type": "uint256"
        },
        {
          "internalType": "int256",
          "name": "threshold",
          "type": "int256"
        },
        {
          "internalType": "uint256",
          "name": "totalAmount",
          "type": "uint256"
        },
        {
          "internalType": "uint256",
          "name": "betYesAmount",
          "type": "uint256"
        },
        {
          "internalType": "uint256",
          "name": "betNoAmount",
          "type": "uint256"
        },
        {
          "internalType": "bool",
          "name": "ongoing",
          "type": "bool"
        },
        {
          "internalType": "uint8",
          "name": "gameOutcome",
          "type": "uint8"
        }
      ],
      "stateMutability": "view",
      "type": "function"
    },
    {
      "inputs": [],
      "name": "listingsCount",
      "outputs": [
        {
          "internalType": "uint256",
          "name": "",
          "type": "uint256"
        }
      ],
      "stateMutability": "view",
      "type": "function"
    },
    {
      "inputs": [],
      "name": "mainToken",
      "outputs": [
        {
          "internalType": "contract MainToken",
          "name": "",
          "type": "address"
        }
      ],
      "stateMutability": "view",
      "type": "function"
    },
    {
      "inputs": [],
      "name": "mainTokenAddress",
      "outputs": [
        {
          "internalType": "address",
          "name": "",
          "type": "address"
        }
      ],
      "stateMutability": "view",
      "type": "function"
    },
    {
      "inputs": [
        {
          "internalType": "uint256",
          "name": "",
          "type": "uint256"
        }
      ],
      "name": "ongoingGames",
      "outputs": [
        {
          "internalType": "uint256",
          "name": "id",
          "type": "uint256"
        },
        {
          "internalType": "address",
          "name": "addr",
          "type": "address"
        },
        {
          "internalType": "string",
          "name": "tag",
          "type": "string"
        },
        {
          "internalType": "string",
          "name": "title",
          "type": "string"
        },
        {
          "internalType": "address",
          "name": "oracleAddr",
          "type": "address"
        },
        {
          "internalType": "uint256",
          "name": "resolveTime",
          "type": "uint256"
        },
        {
          "internalType": "int256",
          "name": "threshold",
          "type": "int256"
        },
        {
          "internalType": "uint256",
          "name": "totalAmount",
          "type": "uint256"
        },
        {
          "internalType": "uint256",
          "name": "betYesAmount",
          "type": "uint256"
        },
        {
          "internalType": "uint256",
          "name": "betNoAmount",
          "type": "uint256"
        },
        {
          "internalType": "bool",
          "name": "ongoing",
          "type": "bool"
        },
        {
          "internalType": "uint8",
          "name": "gameOutcome",
          "type": "uint8"
        }
      ],
      "stateMutability": "view",
      "type": "function"
    },
    {
      "inputs": [
        {
          "internalType": "address",
          "name": "",
          "type": "address"
        },
        {
          "internalType": "uint256",
          "name": "",
          "type": "uint256"
        }
      ],
      "name": "playersRecords",
      "outputs": [
        {
          "internalType": "uint256",
          "name": "trxId",
          "type": "uint256"
        },
        {
          "internalType": "string",
          "name": "activityType",
          "type": "string"
        },
        {
          "internalType": "uint256",
          "name": "gameId",
          "type": "uint256"
        },
        {
          "internalType": "uint256",
          "name": "trxAmt",
          "type": "uint256"
        },
        {
          "internalType": "uint256",
          "name": "trxTime",
          "type": "uint256"
        },
        {
          "internalType": "uint8",
          "name": "gameSide",
          "type": "uint8"
        },
        {
          "internalType": "address",
          "name": "from",
          "type": "address"
        },
        {
          "internalType": "address",
          "name": "to",
          "type": "address"
        }
      ],
      "stateMutability": "view",
      "type": "function"
    },
    {
      "stateMutability": "payable",
      "type": "receive"
    },
    {
      "inputs": [
        {
          "internalType": "uint256",
          "name": "resolveTime",
          "type": "uint256"
        },
        {
          "internalType": "address",
          "name": "oracleAddr",
          "type": "address"
        },
        {
          "internalType": "int256",
          "name": "threshold",
          "type": "int256"
        },
        {
          "internalType": "string",
          "name": "tag",
          "type": "string"
        },
        {
          "internalType": "string",
          "name": "title",
          "type": "string"
        }
      ],
      "name": "createGame",
      "outputs": [
        {
          "internalType": "address",
          "name": "",
          "type": "address"
        }
      ],
      "stateMutability": "nonpayable",
      "type": "function"
    },
    {
      "inputs": [],
      "name": "getGameCount",
      "outputs": [
        {
          "internalType": "uint256",
          "name": "",
          "type": "uint256"
        }
      ],
      "stateMutability": "view",
      "type": "function"
    },
    {
      "inputs": [
        {
          "internalType": "uint256",
          "name": "X",
          "type": "uint256"
        },
        {
          "internalType": "uint256",
          "name": "Y",
          "type": "uint256"
        }
      ],
      "name": "getXtoYGame",
      "outputs": [
        {
          "components": [
            {
              "internalType": "uint256",
              "name": "id",
              "type": "uint256"
            },
            {
              "internalType": "address",
              "name": "addr",
              "type": "address"
            },
            {
              "internalType": "string",
              "name": "tag",
              "type": "string"
            },
            {
              "internalType": "string",
              "name": "title",
              "type": "string"
            },
            {
              "internalType": "address",
              "name": "oracleAddr",
              "type": "address"
            },
            {
              "internalType": "uint256",
              "name": "resolveTime",
              "type": "uint256"
            },
            {
              "internalType": "int256",
              "name": "threshold",
              "type": "int256"
            },
            {
              "internalType": "uint256",
              "name": "totalAmount",
              "type": "uint256"
            },
            {
              "internalType": "uint256",
              "name": "betYesAmount",
              "type": "uint256"
            },
            {
              "internalType": "uint256",
              "name": "betNoAmount",
              "type": "uint256"
            },
            {
              "internalType": "bool",
              "name": "ongoing",
              "type": "bool"
            },
            {
              "internalType": "uint8",
              "name": "gameOutcome",
              "type": "uint8"
            }
          ],
          "internalType": "struct HwangMarket.GameMetadata[]",
          "name": "",
          "type": "tuple[]"
        }
      ],
      "stateMutability": "view",
      "type": "function"
    },
    {
      "inputs": [],
      "name": "getAllGames",
      "outputs": [
        {
          "components": [
            {
              "internalType": "uint256",
              "name": "id",
              "type": "uint256"
            },
            {
              "internalType": "address",
              "name": "addr",
              "type": "address"
            },
            {
              "internalType": "string",
              "name": "tag",
              "type": "string"
            },
            {
              "internalType": "string",
              "name": "title",
              "type": "string"
            },
            {
              "internalType": "address",
              "name": "oracleAddr",
              "type": "address"
            },
            {
              "internalType": "uint256",
              "name": "resolveTime",
              "type": "uint256"
            },
            {
              "internalType": "int256",
              "name": "threshold",
              "type": "int256"
            },
            {
              "internalType": "uint256",
              "name": "totalAmount",
              "type": "uint256"
            },
            {
              "internalType": "uint256",
              "name": "betYesAmount",
              "type": "uint256"
            },
            {
              "internalType": "uint256",
              "name": "betNoAmount",
              "type": "uint256"
            },
            {
              "internalType": "bool",
              "name": "ongoing",
              "type": "bool"
            },
            {
              "internalType": "uint8",
              "name": "gameOutcome",
              "type": "uint8"
            }
          ],
          "internalType": "struct HwangMarket.GameMetadata[]",
          "name": "",
          "type": "tuple[]"
        }
      ],
      "stateMutability": "view",
      "type": "function"
    },
    {
      "inputs": [],
      "name": "getAllOngoingGames",
      "outputs": [
        {
          "components": [
            {
              "internalType": "uint256",
              "name": "id",
              "type": "uint256"
            },
            {
              "internalType": "address",
              "name": "addr",
              "type": "address"
            },
            {
              "internalType": "string",
              "name": "tag",
              "type": "string"
            },
            {
              "internalType": "string",
              "name": "title",
              "type": "string"
            },
            {
              "internalType": "address",
              "name": "oracleAddr",
              "type": "address"
            },
            {
              "internalType": "uint256",
              "name": "resolveTime",
              "type": "uint256"
            },
            {
              "internalType": "int256",
              "name": "threshold",
              "type": "int256"
            },
            {
              "internalType": "uint256",
              "name": "totalAmount",
              "type": "uint256"
            },
            {
              "internalType": "uint256",
              "name": "betYesAmount",
              "type": "uint256"
            },
            {
              "internalType": "uint256",
              "name": "betNoAmount",
              "type": "uint256"
            },
            {
              "internalType": "bool",
              "name": "ongoing",
              "type": "bool"
            },
            {
              "internalType": "uint8",
              "name": "gameOutcome",
              "type": "uint8"
            }
          ],
          "internalType": "struct HwangMarket.GameMetadata[]",
          "name": "",
          "type": "tuple[]"
        }
      ],
      "stateMutability": "view",
      "type": "function"
    },
    {
      "inputs": [
        {
          "internalType": "address",
          "name": "_player",
          "type": "address"
        },
        {
          "internalType": "address",
          "name": "token1",
          "type": "address"
        },
        {
          "internalType": "uint256",
          "name": "token1Amt",
          "type": "uint256"
        },
        {
          "internalType": "address",
          "name": "token2",
          "type": "address"
        },
        {
          "internalType": "uint256",
          "name": "token2Amt",
          "type": "uint256"
        }
      ],
      "name": "newListing",
      "outputs": [
        {
          "components": [
            {
              "internalType": "uint256",
              "name": "listingId",
              "type": "uint256"
            },
            {
              "internalType": "address",
              "name": "listingAddr",
              "type": "address"
            },
            {
              "internalType": "address",
              "name": "player1",
              "type": "address"
            },
            {
              "internalType": "address",
              "name": "token1",
              "type": "address"
            },
            {
              "internalType": "uint256",
              "name": "token1Amt",
              "type": "uint256"
            },
            {
              "internalType": "address",
              "name": "player2",
              "type": "address"
            },
            {
              "internalType": "address",
              "name": "token2",
              "type": "address"
            },
            {
              "internalType": "uint256",
              "name": "token2Amt",
              "type": "uint256"
            },
            {
              "internalType": "bool",
              "name": "fulfilled",
              "type": "bool"
            }
          ],
          "internalType": "struct Models.ListingInfo",
          "name": "",
          "type": "tuple"
        }
      ],
      "stateMutability": "nonpayable",
      "type": "function"
    },
    {
      "inputs": [
        {
          "internalType": "uint256",
          "name": "listingId",
          "type": "uint256"
        }
      ],
      "name": "getListingContractAddressById",
      "outputs": [
        {
          "internalType": "address",
          "name": "",
          "type": "address"
        }
      ],
      "stateMutability": "view",
      "type": "function"
    },
    {
      "inputs": [],
      "name": "getAllListings",
      "outputs": [
        {
          "components": [
            {
              "internalType": "uint256",
              "name": "listingId",
              "type": "uint256"
            },
            {
              "internalType": "address",
              "name": "listingAddr",
              "type": "address"
            },
            {
              "internalType": "address",
              "name": "player1",
              "type": "address"
            },
            {
              "internalType": "address",
              "name": "token1",
              "type": "address"
            },
            {
              "internalType": "uint256",
              "name": "token1Amt",
              "type": "uint256"
            },
            {
              "internalType": "address",
              "name": "player2",
              "type": "address"
            },
            {
              "internalType": "address",
              "name": "token2",
              "type": "address"
            },
            {
              "internalType": "uint256",
              "name": "token2Amt",
              "type": "uint256"
            },
            {
              "internalType": "bool",
              "name": "fulfilled",
              "type": "bool"
            }
          ],
          "internalType": "struct Models.ListingInfo[]",
          "name": "",
          "type": "tuple[]"
        }
      ],
      "stateMutability": "view",
      "type": "function"
    },
    {
      "inputs": [
        {
          "internalType": "address",
          "name": "_player",
          "type": "address"
        },
        {
          "internalType": "uint256",
          "name": "listingId",
          "type": "uint256"
        }
      ],
      "name": "partakeInListing",
      "outputs": [],
      "stateMutability": "nonpayable",
      "type": "function"
    },
    {
      "inputs": [
        {
          "internalType": "address",
          "name": "player",
          "type": "address"
        },
        {
          "internalType": "uint8",
          "name": "betSide",
          "type": "uint8"
        },
        {
          "internalType": "uint256",
          "name": "amount",
          "type": "uint256"
        },
        {
          "internalType": "uint256",
          "name": "timestamp",
          "type": "uint256"
        }
      ],
      "name": "playerJoinedSide",
      "outputs": [],
      "stateMutability": "nonpayable",
      "type": "function"
    },
    {
      "inputs": [
        {
          "internalType": "address",
          "name": "_player",
          "type": "address"
        },
        {
          "internalType": "uint8",
          "name": "betSide",
          "type": "uint8"
        },
        {
          "internalType": "uint256",
          "name": "withdrawAmt",
          "type": "uint256"
        },
        {
          "internalType": "uint256",
          "name": "timestamp",
          "type": "uint256"
        }
      ],
      "name": "playerWithdrawWinnings",
      "outputs": [],
      "stateMutability": "nonpayable",
      "type": "function"
    },
    {
      "inputs": [
        {
          "internalType": "uint8",
          "name": "gameOutcome",
          "type": "uint8"
        }
      ],
      "name": "concludeGame",
      "outputs": [],
      "stateMutability": "nonpayable",
      "type": "function"
    },
    {
      "inputs": [],
      "name": "playersSwapSide",
      "outputs": [],
      "stateMutability": "nonpayable",
      "type": "function"
    },
    {
      "inputs": [],
      "name": "getBalance",
      "outputs": [
        {
          "internalType": "uint256",
          "name": "",
          "type": "uint256"
        }
      ],
      "stateMutability": "view",
      "type": "function"
    }
  ],
  "bytecode": "0x60806040523480156200001157600080fd5b506001600355604051620000259062000074565b604051809103906000f08015801562000042573d6000803e3d6000fd5b5060018054600160a060020a0392909216600160a060020a031992831681179091556000805490921617905562000082565b6119c78062008b1b83390190565b618a8980620000926000396000f3fe6080604052600436106200016f576000357c0100000000000000000000000000000000000000000000000000000000900480637976948811620000d6578063db1c45f91162000095578063db1c45f9146200040b578063dc7dbf3e1462000423578063e005533b1462000457578063e07056af146200047c578063e362937d14620004a1578063e87c0ee614620004c657600080fd5b8063797694881462000331578063829a32ef1462000356578063ae73ccec1462000387578063ce1f335c14620003ae578063d3eb618c14620003d057600080fd5b80632980a3cb116200012f5780632980a3cb146200024a5780633f863f1914620002885780633fc15f1514620002ad57806346b1df0414620002cf5780635039eb9714620002e75780636435e817146200030c57600080fd5b8062ef52de146200017c57806304ad465f14620001a35780630561d0b214620001eb57806312065fe014620002035780632696d1de146200022357600080fd5b366200017757005b600080fd5b3480156200018957600080fd5b50620001a16200019b36600462002752565b620004de565b005b348015620001b057600080fd5b50620001c8620001c236600462002781565b620006fe565b604051620001e29c9b9a99989796959493929190620027e3565b60405180910390f35b348015620001f857600080fd5b50620001a1620008a8565b3480156200021057600080fd5b5030315b604051908152602001620001e2565b3480156200023057600080fd5b506200023b620008e1565b604051620001e291906200286f565b3480156200025757600080fd5b506200026f6200026936600462002a75565b62000afd565b604051600160a060020a039091168152602001620001e2565b3480156200029557600080fd5b50620001c8620002a736600462002781565b62000ec3565b348015620002ba57600080fd5b506001546200026f90600160a060020a031681565b348015620002dc57600080fd5b506200021460105481565b348015620002f457600080fd5b50620001a16200030636600462002b1f565b62000ef7565b3480156200031957600080fd5b50620001c86200032b36600462002781565b62001328565b3480156200033e57600080fd5b50620001a16200035036600462002b1f565b62001339565b3480156200036357600080fd5b50620002146200037536600462002b68565b60056020526000908152604090205481565b3480156200039457600080fd5b506200039f62001537565b604051620001e2919062002c22565b348015620003bb57600080fd5b506000546200026f90600160a060020a031681565b348015620003dd57600080fd5b50620003f5620003ef36600462002752565b620015d3565b604051620001e298979695949392919062002c75565b3480156200041857600080fd5b506200023b620016db565b3480156200043057600080fd5b50620004486200044236600462002cd3565b6200197f565b604051620001e2919062002d35565b3480156200046457600080fd5b506200023b6200047636600462002d46565b62001b39565b3480156200048957600080fd5b506200026f6200049b36600462002781565b62001e2b565b348015620004ae57600080fd5b50620001a1620004c036600462002d69565b62001ed0565b348015620004d357600080fd5b506200021462002672565b6040517f7e3bf307000000000000000000000000000000000000000000000000000000008152600b60048201526024810182905273__IterableMapping_______________________90637e3bf30790604401602060405180830381865af41580156200054f573d6000803e3d6000fd5b505050506040513d601f19601f8201168201806040525081019062000575919062002d98565b620005ca5760405160e560020a62461bcd02815260206004820152601f60248201527f6c697374696e6720636f6e747261637420646f6573206e6f742065786973740060448201526064015b60405180910390fd5b6040517fd31c830c000000000000000000000000000000000000000000000000000000008152600b60048201526024810182905260009073__IterableMapping_______________________9063d31c830c9060440161012060405180830381865af41580156200063f573d6000803e3d6000fd5b505050506040513d601f19601f8201168201806040525081019062000665919062002e74565b602001516040517f6f6ff405000000000000000000000000000000000000000000000000000000008152600160a060020a0385811660048301529192508291821690636f6ff40590602401610120604051808303816000875af1158015620006d1573d6000803e3d6000fd5b505050506040513d601f19601f82011682018060405250810190620006f7919062002e74565b5050505050565b600981815481106200070f57600080fd5b60009182526020909120600b9091020180546001820154600283018054929450600160a060020a039091169291620007479062002e94565b80601f0160208091040260200160405190810160405280929190818152602001828054620007759062002e94565b8015620007c65780601f106200079a57610100808354040283529160200191620007c6565b820191906000526020600020905b815481529060010190602001808311620007a857829003601f168201915b505050505090806003018054620007dd9062002e94565b80601f01602080910402602001604051908101604052809291908181526020018280546200080b9062002e94565b80156200085c5780601f1062000830576101008083540402835291602001916200085c565b820191906000526020600020905b8154815290600101906020018083116200083e57829003601f168201915b50505050600483015460058401546006850154600786015460088701546009880154600a909801549697600160a060020a03909516969395509193909260ff808216916101009004168c565b6001336000908152600560205260408120549003620008de5760405160e560020a62461bcd028152600401620005c19062002ecd565b50565b60606007805480602002602001604051908101604052809291908181526020016000905b8282101562000af45760008481526020908190206040805161018081018252600b8602909201805483526001810154600160a060020a031693830193909352600283018054929392918401916200095c9062002e94565b80601f01602080910402602001604051908101604052809291908181526020018280546200098a9062002e94565b8015620009db5780601f10620009af57610100808354040283529160200191620009db565b820191906000526020600020905b815481529060010190602001808311620009bd57829003601f168201915b50505050508152602001600382018054620009f69062002e94565b80601f016020809104026020016040519081016040528092919081815260200182805462000a249062002e94565b801562000a755780601f1062000a495761010080835404028352916020019162000a75565b820191906000526020600020905b81548152906001019060200180831162000a5757829003601f168201915b50505091835250506004820154600160a060020a0316602080830191909152600583015460408301526006830154606083015260078301546080830152600883015460a0830152600983015460c0830152600a9092015460ff808216151560e08401526101009182900416910152908252600192909201910162000905565b50505050905090565b6000803087878760405162000b1290620026a8565b600160a060020a0394851681526020810193909352921660408201526060810191909152608001604051809103906000f08015801562000b56573d6000803e3d6000fd5b506040805161018081018252600354808252600160a060020a0384811660208085019182528486018b8152606086018b90528d8416608087015260a086018f905260c086018d9052600060e087018190526101008701819052610120870181905260016101408801819052610160880182905295815260049092529590208451815590519281018054600160a060020a0319169390921692909217905591519293508392909190600282019062000c0e908262002f57565b506060820151600382019062000c25908262002f57565b50608082015160048083018054600160a060020a03938416600160a060020a03199182161790915560a085015160058086019190915560c086015160068087019190915560e0870151600780880191909155610100808901516008808a01919091556101208a015160098a01556101408a0151600a9099018054610160909b015160ff1690920261ff00199915159990991661ffff19909a16999099179790971790965560038054898716600090815260209485526040808220839055935491815298845282892055548752929052908420835460018181018655949095528054600b9095027fa66cc928b5edb82af9bd49922954155ab7b0942694bea4ce44661d9a8736c6888101958655938101547fa66cc928b5edb82af9bd49922954155ab7b0942694bea4ce44661d9a8736c68985018054909316931692909217905591907fa66cc928b5edb82af9bd49922954155ab7b0942694bea4ce44661d9a8736c68a0162000d9860028401826200302a565b5060038181019062000dad908401826200302a565b506004828101549082018054600160a060020a031916600160a060020a039092169190911790556005808301549082015560068083015481830155600780840154908301556008808401549083015560098084015490830155600a928301805493909201805460ff948516151560ff1982168117835593546101009081900490951690940261ff001990931661ffff1990941693909317919091179091555462000e5990600162002685565b60065560035462000e6c90600162002685565b60038190556000908152600460205260409081902090517f8cad400db0798c448aa0bfb2d4261c2b0fc665ba535995f2403c6fc716d794e39162000eb09162003199565b60405180910390a1979650505050505050565b6004602052600090815260409020805460018201546002830180549293600160a060020a0390921692620007479062002e94565b600133600090815260056020526040812054900362000f2d5760405160e560020a62461bcd028152600401620005c19062002ecd565b3360008181526005602090815260408083205480845260048352818420825161018081018452815481526001820154600160a060020a0316948101949094526002810180549295949391929184019162000f879062002e94565b80601f016020809104026020016040519081016040528092919081815260200182805462000fb59062002e94565b8015620010065780601f1062000fda5761010080835404028352916020019162001006565b820191906000526020600020905b81548152906001019060200180831162000fe857829003601f168201915b50505050508152602001600382018054620010219062002e94565b80601f01602080910402602001604051908101604052809291908181526020018280546200104f9062002e94565b8015620010a05780601f106200107457610100808354040283529160200191620010a0565b820191906000526020600020905b8154815290600101906020018083116200108257829003601f168201915b50505091835250506004820154600160a060020a03166020820152600582015460408201526006820154606082015260078201546080820152600882015460a0820152600982015460c0820152600a9091015460ff808216151560e080850191909152610100928390049091169190920152810180519192508791620011289083906200329a565b90525060ff871660020362001155578581610120018181516200114c91906200329a565b9052506200116e565b8581610100018181516200116a91906200329a565b9052505b600160a060020a038089166000818152600a60209081526040808320815161010081018352600254815282518084018452600381527f424554000000000000000000000000000000000000000000000000000000000081860152818501908152928101899052606081018d9052608081018c905260ff8e1660a082015260c081019590955294881660e0850152845460018181018755958452919092208351600790920201908155905191929091908201906200122c908262002f57565b506040820151600282810191909155606083015160038301556080830151600483015560a083015160058301805460c086015160ff90931674ffffffffffffffffffffffffffffffffffffffffff1990911617610100600160a060020a039384160217905560e09093015160069092018054600160a060020a031916929093169190911790915554620012c190600162002685565b60025560408051600160a060020a038a811682526020820185905285168183015260ff891660608201526080810188905290517f60f0179549292c7191bafdb03407a3080ad6bbb9354055fb0dba51a90dcead179181900360a00190a15050505050505050565b600781815481106200070f57600080fd5b60013360009081526005602052604081205490036200136f5760405160e560020a62461bcd028152600401620005c19062002ecd565b33600081815260056020908152604080832054600160a060020a038a16808552600a8452828520835161010081018552600254815284518086018652600881527f574954484452415700000000000000000000000000000000000000000000000081880152818701908152948101849052606081018b9052608081018a905260ff8c1660a082015260c0810188905260e08101929092528054600181810183559187529490952081516007909502019384559151909391929182019062001437908262002f57565b506040820151600282810191909155606083015160038301556080830151600483015560a083015160058301805460c086015160ff90931674ffffffffffffffffffffffffffffffffffffffffff1990911617610100600160a060020a039384160217905560e09093015160069092018054600160a060020a031916929093169190911790915554620014cc90600162002685565b60025560408051600160a060020a03808a1682526020820184905284169181019190915260ff87166060820152608081018690527f763849cb5b59f290f2394239aed08a4f73bef1c65b4debb49ed6324897c23a979060a0015b60405180910390a150505050505050565b6040517f75a02c20000000000000000000000000000000000000000000000000000000008152600b600482015260609073__IterableMapping_______________________906375a02c2090602401600060405180830381865af4158015620015a4573d6000803e3d6000fd5b505050506040513d6000823e601f3d908101601f19168201604052620015ce9190810190620032b0565b905090565b600a6020528160005260406000208181548110620015f057600080fd5b9060005260206000209060070201600091509150508060000154908060010180546200161c9062002e94565b80601f01602080910402602001604051908101604052809291908181526020018280546200164a9062002e94565b80156200169b5780601f106200166f576101008083540402835291602001916200169b565b820191906000526020600020905b8154815290600101906020018083116200167d57829003601f168201915b505050600284015460038501546004860154600587015460069097015495969295919450925060ff821691600160a060020a036101009091048116911688565b606060006001600354620016f091906200336d565b67ffffffffffffffff8111156200170b576200170b62002984565b6040519080825280602002602001820160405280156200174857816020015b62001734620026b6565b8152602001906001900390816200172a5790505b50905060015b6003548111620019795760046000620017696001846200336d565b81526020808201929092526040908101600020815161018081018352815481526001820154600160a060020a0316938101939093526002810180549192840191620017b49062002e94565b80601f0160208091040260200160405190810160405280929190818152602001828054620017e29062002e94565b8015620018335780601f10620018075761010080835404028352916020019162001833565b820191906000526020600020905b8154815290600101906020018083116200181557829003601f168201915b505050505081526020016003820180546200184e9062002e94565b80601f01602080910402602001604051908101604052809291908181526020018280546200187c9062002e94565b8015620018cd5780601f10620018a157610100808354040283529160200191620018cd565b820191906000526020600020905b815481529060010190602001808311620018af57829003601f168201915b50505091835250506004820154600160a060020a03166020820152600582015460408201526006820154606082015260078201546080820152600882015460a0820152600982015460c0820152600a9091015460ff808216151560e0840152610100918290041691015282620019456001846200336d565b8151811062001958576200195862003383565b6020026020010181905250808062001970906200339c565b9150506200174e565b50919050565b6040805161012081018252600080825260208201819052918101829052606081018290526080810182905260a0810182905260c0810182905260e08101829052610100810191909152600060105490506000818888888888604051620019e5906200272e565b958652600160a060020a03948516602087015292841660408601526060850191909152909116608083015260a082015260c001604051809103906000f08015801562001a35573d6000803e3d6000fd5b506040805161012081018252848152600160a060020a0380841660208301528b8116828401528a81166060830152608082018a9052600060a0830181905290891660c083015260e0820188905261010082015290517f070b5eb40000000000000000000000000000000000000000000000000000000081529192509073__IterableMapping_______________________9063070b5eb49062001ae290600b9087908690600401620033b8565b60006040518083038186803b15801562001afb57600080fd5b505af415801562001b10573d6000803e3d6000fd5b50506010805492509050600062001b27836200339c565b90915550909998505050505050505050565b60608183111562001b905760405160e560020a62461bcd02815260206004820152601a60248201527f582063616e6e6f742062652067726561746572207468616e20590000000000006044820152606401620005c1565b600062001b9e84846200336d565b62001bab9060016200329a565b67ffffffffffffffff81111562001bc65762001bc662002984565b60405190808252806020026020018201604052801562001c0357816020015b62001bef620026b6565b81526020019060019003908162001be55790505b509050835b83811162001e2157600081815260046020908152604091829020825161018081018452815481526001820154600160a060020a031692810192909252600281018054929391929184019162001c5d9062002e94565b80601f016020809104026020016040519081016040528092919081815260200182805462001c8b9062002e94565b801562001cdc5780601f1062001cb05761010080835404028352916020019162001cdc565b820191906000526020600020905b81548152906001019060200180831162001cbe57829003601f168201915b5050505050815260200160038201805462001cf79062002e94565b80601f016020809104026020016040519081016040528092919081815260200182805462001d259062002e94565b801562001d765780601f1062001d4a5761010080835404028352916020019162001d76565b820191906000526020600020905b81548152906001019060200180831162001d5857829003601f168201915b50505091835250506004820154600160a060020a03166020820152600582015460408201526006820154606082015260078201546080820152600882015460a0820152600982015460c0820152600a9091015460ff808216151560e084015261010091829004169101528262001ded87846200336d565b8151811062001e005762001e0062003383565b6020026020010181905250808062001e18906200339c565b91505062001c08565b5090505b92915050565b6040517fd31c830c000000000000000000000000000000000000000000000000000000008152600b60048201526024810182905260009073__IterableMapping_______________________9063d31c830c9060440161012060405180830381865af415801562001ea0573d6000803e3d6000fd5b505050506040513d601f19601f8201168201806040525081019062001ec6919062002e74565b6020015192915050565b600133600090815260056020526040812054900362001f065760405160e560020a62461bcd028152600401620005c19062002ecd565b33600081815260056020908152604080832054808452600890925282205460078054929391928390811062001f3f5762001f3f62003383565b90600052602060002090600b020160405180610180016040529081600082015481526020016001820160009054906101000a9004600160a060020a0316600160a060020a0316600160a060020a0316815260200160028201805462001fa49062002e94565b80601f016020809104026020016040519081016040528092919081815260200182805462001fd29062002e94565b8015620020235780601f1062001ff75761010080835404028352916020019162002023565b820191906000526020600020905b8154815290600101906020018083116200200557829003601f168201915b505050505081526020016003820180546200203e9062002e94565b80601f01602080910402602001604051908101604052809291908181526020018280546200206c9062002e94565b8015620020bd5780601f106200209157610100808354040283529160200191620020bd565b820191906000526020600020905b8154815290600101906020018083116200209f57829003601f168201915b50505091835250506004820154600160a060020a031660208201526005820154604082015260068083015460608301526007808401546080840152600884015460a0840152600984015460c0840152600a9093015460ff808216151560e0850152610100918290041692019190915254919250600091620021409060016200269a565b8154811062002153576200215362003383565b90600052602060002090600b020160405180610180016040529081600082015481526020016001820160009054906101000a9004600160a060020a0316600160a060020a0316600160a060020a03168152602001600282018054620021b89062002e94565b80601f0160208091040260200160405190810160405280929190818152602001828054620021e69062002e94565b8015620022375780601f106200220b5761010080835404028352916020019162002237565b820191906000526020600020905b8154815290600101906020018083116200221957829003601f168201915b50505050508152602001600382018054620022529062002e94565b80601f0160208091040260200160405190810160405280929190818152602001828054620022809062002e94565b8015620022d15780601f10620022a557610100808354040283529160200191620022d1565b820191906000526020600020905b815481529060010190602001808311620022b357829003601f168201915b50505091835250506004820154600160a060020a0316602080830191909152600583015460408084019190915260068401546060840152600780850154608085015260088086015460a0860152600986015460c0860152600a9095015460ff808216151560e08701526101009182900416940193909352845160009081529390915280832087905587835282209190915580549192508291859081106200237c576200237c62003383565b60009182526020918290208351600b929092020190815590820151600182018054600160a060020a031916600160a060020a0390921691909117905560408201516002820190620023ce908262002f57565b5060608201516003820190620023e5908262002f57565b506080820151600482018054600160a060020a031916600160a060020a0390921691909117905560a0820151600582015560c082015160068083019190915560e083015160078301556101008084015160088401556101208401516009840155610140840151600a90930180546101609095015161ffff1990951693151561ff0019169390931760ff9094160292909217905554620024869060016200269a565b6006556000610140830181905260ff8816610160840181905283518252600460209081526040808420600a908101805460ff191690558651855281852001805461ff0019166101009094029390931790925560098054600181018255935284517f6e1540171b6c0c960b71a7020d9f60077f6af931a8bbf590da0223dacf75c7af600b909402938401908155908501517f6e1540171b6c0c960b71a7020d9f60077f6af931a8bbf590da0223dacf75c7b084018054600160a060020a031916600160a060020a039092169190911790559084015184927f6e1540171b6c0c960b71a7020d9f60077f6af931a8bbf590da0223dacf75c7b101906200258b908262002f57565b5060608201516003820190620025a2908262002f57565b506080820151600482018054600160a060020a031916600160a060020a0392831617905560a0830151600583015560c0830151600683015560e083015160078301556101008084015160088401556101208401516009840155610140840151600a90930180546101609095015161ffff1990951693151561ff0019169390931760ff94851690910217909155604080518781529188166020830152918916918101919091527f6997c325fd49bb5c188e78d03aee9a56052bffb3dcecb7d89cad3946cfc9b1909060600162001526565b60006001600354620015ce91906200336d565b60006200269382846200329a565b9392505050565b60006200269382846200336d565b614c8380620033df83390190565b604051806101800160405280600081526020016000600160a060020a0316815260200160608152602001606081526020016000600160a060020a031681526020016000815260200160008152602001600081526020016000815260200160008152602001600015158152602001600060ff1681525090565b6109f2806200806283390190565b600160a060020a0381168114620008de57600080fd5b600080604083850312156200276657600080fd5b823562002773816200273c565b946020939093013593505050565b6000602082840312156200279457600080fd5b5035919050565b6000815180845260005b81811015620027c357602081850181015186830182015201620027a5565b506000602082860101526020601f19601f83011685010191505092915050565b60006101808e8352600160a060020a03808f1660208501528160408501526200280f8285018f6200279b565b9150838203606085015262002825828e6200279b565b9b166080840152505060a081019790975260c087019590955260e0860193909352610100850191909152610120840152151561014083015260ff1661016090910152949350505050565b60208082528251828201819052600091906040908185019080840286018301878501865b838110156200297657603f1989840301855281518051845287810151600160a060020a0316888501528681015161018088860181905290620028d8828701826200279b565b91505060608083015186830382880152620028f483826200279b565b925050506080808301516200291382880182600160a060020a03169052565b505060a0828101519086015260c0808301519086015260e0808301519086015261010080830151908601526101208083015190860152610140808301511515908601526101609182015160ff169190940152938601939086019060010162002893565b509098975050505050505050565b60e060020a634e487b7102600052604160045260246000fd5b604051610120810167ffffffffffffffff81118282101715620029c457620029c462002984565b60405290565b604051601f8201601f1916810167ffffffffffffffff81118282101715620029f657620029f662002984565b604052919050565b600082601f83011262002a1057600080fd5b813567ffffffffffffffff81111562002a2d5762002a2d62002984565b62002a42601f8201601f1916602001620029ca565b81815284602083860101111562002a5857600080fd5b816020850160208301376000918101602001919091529392505050565b600080600080600060a0868803121562002a8e57600080fd5b85359450602086013562002aa2816200273c565b935060408601359250606086013567ffffffffffffffff8082111562002ac757600080fd5b62002ad589838a01620029fe565b9350608088013591508082111562002aec57600080fd5b5062002afb88828901620029fe565b9150509295509295909350565b803560ff8116811462002b1a57600080fd5b919050565b6000806000806080858703121562002b3657600080fd5b843562002b43816200273c565b935062002b536020860162002b08565b93969395505050506040820135916060013590565b60006020828403121562002b7b57600080fd5b813562002693816200273c565b805182526020810151600160a060020a03808216602085015280604084015116604085015280606084015116606085015250506080810151608083015260a081015162002be060a0840182600160a060020a03169052565b5060c081015162002bfc60c0840182600160a060020a03169052565b5060e081015160e08301526101008082015162002c1c8285018215159052565b50505050565b6020808252825182820181905260009190848201906040850190845b8181101562002c695762002c5483855162002b88565b92840192610120929092019160010162002c3e565b50909695505050505050565b60006101008a835280602084015262002c918184018b6200279b565b604084019990995250506060810195909552608085019390935260ff9190911660a0840152600160a060020a0390811660c08401521660e09091015292915050565b600080600080600060a0868803121562002cec57600080fd5b853562002cf9816200273c565b9450602086013562002d0b816200273c565b935060408601359250606086013562002d24816200273c565b949793965091946080013592915050565b610120810162001e25828462002b88565b6000806040838503121562002d5a57600080fd5b50508035926020909101359150565b60006020828403121562002d7c57600080fd5b620026938262002b08565b8051801515811462002b1a57600080fd5b60006020828403121562002dab57600080fd5b620026938262002d87565b805162002b1a816200273c565b6000610120828403121562002dd757600080fd5b62002de16200299d565b90508151815262002df56020830162002db6565b602082015262002e086040830162002db6565b604082015262002e1b6060830162002db6565b60608201526080820151608082015262002e3860a0830162002db6565b60a082015262002e4b60c0830162002db6565b60c082015260e082015160e082015261010062002e6a81840162002d87565b9082015292915050565b6000610120828403121562002e8857600080fd5b62002693838362002dc3565b60028104600182168062002ea957607f821691505b602082108103620019795760e060020a634e487b7102600052602260045260246000fd5b60208082526015908201527f6e6f742061207265636f676e697365642067616d650000000000000000000000604082015260600190565b601f82111562002f52576000818152602081206020601f8601048101602086101562002f2d5750805b6020601f860104820191505b8181101562002f4e5782815560010162002f39565b5050505b505050565b815167ffffffffffffffff81111562002f745762002f7462002984565b62002f8c8162002f85845462002e94565b8462002f04565b602080601f83116001811462002fc8576000841562002fab5750858301515b60028086026008870290910a600019041982161786555062002f4e565b600085815260208120601f198616915b8281101562002ff95788860151825594840194600190910190840162002fd8565b50858210156200301a57878501516008601f88160260020a60001904191681555b5050505050600202600101905550565b81810362003036575050565b62003042825462002e94565b67ffffffffffffffff8111156200305d576200305d62002984565b6200306e8162002f85845462002e94565b6000601f821160018114620030a957600083156200308c5750848201545b60028085026008860290910a6000190419821617855550620006f7565b600085815260209020601f19841690600086815260209020845b83811015620030e55782860154825560019586019590910190602001620030c3565b50858310156200301a57818501546008601f88160260020a60001904191681555050505050600202600101905550565b60008154620031248162002e94565b8085526020600183811680156200314457600181146200315e576200318e565b60ff1985168884015283151583028801830195506200318e565b866000528260002060005b85811015620031865781548a820186015290830190840162003169565b890184019650505b505050505092915050565b60208152815460208201526000620031bb6001840154600160a060020a031690565b600160a060020a0316604083015261018060608301819052620031e66101a084016002860162003115565b838103601f1901608085015262003201816003870162003115565b9050620032186004860154600160a060020a031690565b600160a060020a031660a0850152600585015460c0850152600685015460e085015260078501546101008086019190915260088601546101208601526009860154610140860152600a86015460ff811615156101608701529060ff910416919093015250919050565b60e060020a634e487b7102600052601160045260246000fd5b8082018082111562001e255762001e2562003281565b60006020808385031215620032c457600080fd5b825167ffffffffffffffff80821115620032dd57600080fd5b818501915085601f830112620032f257600080fd5b81518181111562003307576200330762002984565b620033168485830201620029ca565b81815284810192506101209182028401850191888311156200333757600080fd5b938501935b82851015620033615762003351898662002dc3565b845293840193928501926200333c565b50979650505050505050565b8181038181111562001e255762001e2562003281565b60e060020a634e487b7102600052603260045260246000fd5b600060018201620033b157620033b162003281565b5060010190565b838152602081018390526101608101620033d6604083018462002b88565b94935050505056fe60806040523480156200001157600080fd5b5060405162004c8338038062004c8383398101604081905262000034916200024b565b6000805460078054600160a060020a03888116600160a060020a031992831681179093556001889055600160b060020a03199093169091179092556004805490921690841617905560028190556040516103e890620000939062000224565b6060808252600b908201527f47616d654e6f546f6b656e000000000000000000000000000000000000000000608082015260a0602082018190526003908201527f474e54000000000000000000000000000000000000000000000000000000000060c0820152604081019190915260e001604051809103906000f08015801562000121573d6000803e3d6000fd5b5060098054600160a060020a0392909216600160a060020a03199283168117909155600880549092161790556040516103e8906200015f9062000224565b6060808252600c908201527f47616d65596573546f6b656e0000000000000000000000000000000000000000608082015260a0602082018190526003908201527f475954000000000000000000000000000000000000000000000000000000000060c0820152604081019190915260e001604051809103906000f080158015620001ed573d6000803e3d6000fd5b50600b8054600160a060020a0392909216600160a060020a03199283168117909155600a8054909216179055506200029992505050565b6115ca80620036b983390190565b600160a060020a03811681146200024857600080fd5b50565b600080600080608085870312156200026257600080fd5b84516200026f8162000232565b602086015160408701519195509350620002898162000232565b6060959095015193969295505050565b61341080620002a96000396000f3fe60806040523480156200001157600080fd5b5060043610620001785760003560e060020a900480637256eba411620000d7578063d6875f95116200008a578063d6875f95146200033e578063dc7dbf3e1462000352578063e07056af1462000378578063e2cb747d146200038f578063f91c2cbc14620003a6578063f92a9e0914620003bf57600080fd5b80637256eba414620002c8578063846c6f4f14620002df5780638e15f47314620002f35780638f09cc8b14620002fd578063ae73ccec1462000311578063d270e7ab146200032a57600080fd5b80631746bd1b11620001305780631746bd1b1462000237578063200d2ed2146200027257806341ef10c8146200029657806342cde4e814620002aa57806346b1df0414620002b45780636e4d243a14620002be57600080fd5b8062ef52de146200017d57806302d05d3f1462000196578063053a2cfb14620001c75780630b66c67814620001eb57806312065fe014620002025780631486d6111462000214575b600080fd5b620001946200018e366004620020e3565b620003c9565b005b600054620001aa90600160a060020a031681565b604051600160a060020a0390911681526020015b60405180910390f35b600054620001dc9060a860020a900460ff1681565b604051620001be919062002142565b62000194620001fc366004620020e3565b620005e9565b30315b604051908152602001620001be565b620002056200022536600462002158565b60036020526000908152604090205481565b600054600154600254604051620001be93600160a060020a0381169360ff60a060020a830481169460a860020a909304169290919062002195565b600054620002879060a060020a900460ff1681565b604051620001be9190620021d6565b600854620001aa90600160a060020a031681565b6200020560025481565b6200020560115481565b6200019462000e97565b62000194620002d9366004620021fd565b62001062565b600a54620001aa90600160a060020a031681565b6200020562001a30565b600954620001aa90600160a060020a031681565b6200031b62001ac4565b604051620001be9190620022da565b600754620001aa90600160a060020a031681565b600b54620001aa90600160a060020a031681565b62000369620003633660046200232d565b62001b60565b604051620001be91906200238f565b620001aa62000389366004620023a0565b62001d1a565b62000205620003a0366004620023ba565b62001dbf565b620003b062001e7e565b604051620001be9190620023d8565b6200020560015481565b6040517f7e3bf307000000000000000000000000000000000000000000000000000000008152600c60048201526024810182905273__IterableMapping_______________________90637e3bf30790604401602060405180830381865af41580156200043a573d6000803e3d6000fd5b505050506040513d601f19601f82011682018060405250810190620004609190620024f9565b620004b55760405160e560020a62461bcd02815260206004820152601f60248201527f6c697374696e6720636f6e747261637420646f6573206e6f742065786973740060448201526064015b60405180910390fd5b6040517fd31c830c000000000000000000000000000000000000000000000000000000008152600c60048201526024810182905260009073__IterableMapping_______________________9063d31c830c9060440161012060405180830381865af41580156200052a573d6000803e3d6000fd5b505050506040513d601f19601f820116820180604052508101906200055091906200264f565b602001516040517f6f6ff405000000000000000000000000000000000000000000000000000000008152600160a060020a0385811660048301529192508291821690636f6ff40590602401610120604051808303816000875af1158015620005bc573d6000803e3d6000fd5b505050506040513d601f19601f82011682018060405250810190620005e291906200264f565b5050505050565b33600160a060020a038316146200066c5760405160e560020a62461bcd02815260206004820152602160248201527f63616e6e6f74207769746864726177206f6e20736f6d656f6e6520626568616c60448201527f66000000000000000000000000000000000000000000000000000000000000006064820152608401620004ac565b600160005460a060020a900460ff1660018111156200068f576200068f62002112565b14620006e15760405160e560020a62461bcd02815260206004820152601660248201527f67616d65206973206e6f742079657420636c6f736564000000000000000000006044820152606401620004ac565b6000805460a860020a900460ff16600281111562000703576200070362002112565b03620007555760405160e560020a62461bcd02815260206004820152601e60248201527f67616d65206f7574636f6d652063616e6e6f7420626520756e6b6e6f776e00006044820152606401620004ac565b600954600160a060020a0316600160005460a860020a900460ff16600281111562000784576200078462002112565b03620007985750600b54600160a060020a03165b6040517fdd62ed3e000000000000000000000000000000000000000000000000000000008152600160a060020a03848116600483015230602483015283919083169063dd62ed3e90604401602060405180830381865afa15801562000801573d6000803e3d6000fd5b505050506040513d601f19601f820116820180604052508101906200082791906200266f565b1015620008a05760405160e560020a62461bcd02815260206004820152602360248201527f706c61796572206d75737420617070726f766520776974686472617720616d6f60448201527f756e7400000000000000000000000000000000000000000000000000000000006064820152608401620004ac565b6040517f70a08231000000000000000000000000000000000000000000000000000000008152600160a060020a0384811660048301528391908316906370a0823190602401602060405180830381865afa15801562000903573d6000803e3d6000fd5b505050506040513d601f19601f820116820180604052508101906200092991906200266f565b1015620009a25760405160e560020a62461bcd02815260206004820152602e60248201527f706c61796572206d75737420686176652067616d6520746f6b656e20616d6f7560448201527f6e7420746f2077697468647261770000000000000000000000000000000000006064820152608401620004ac565b60028060005460a860020a900460ff166002811115620009c657620009c662002112565b03620009d0575060015b600083620009e0600180620026a2565b620009ec9190620026c8565b90506000816003600085600281111562000a0a5762000a0a62002112565b600281111562000a1e5762000a1e62002112565b815260200190815260200160002054600360008060159054906101000a900460ff16600281111562000a545762000a5462002112565b600281111562000a685762000a6862002112565b8152602001908152602001600020548462000a849190620026a2565b62000a909190620026c8565b62000a9c9190620026e2565b9050600760009054906101000a9004600160a060020a0316600160a060020a0316633fc15f156040518163ffffffff1660e060020a028152600401602060405180830381865afa15801562000af5573d6000803e3d6000fd5b505050506040513d601f19601f8201168201806040525081019062000b1b9190620026f8565b6040517f095ea7b3000000000000000000000000000000000000000000000000000000008152600160a060020a03888116600483015260248201849052919091169063095ea7b3906044016020604051808303816000875af115801562000b86573d6000803e3d6000fd5b505050506040513d601f19601f8201168201806040525081019062000bac9190620024f9565b50600754604080517f3fc15f15000000000000000000000000000000000000000000000000000000008152905162000c4292600160a060020a031691633fc15f159160048083019260209291908290030181865afa15801562000c13573d6000803e3d6000fd5b505050506040513d601f19601f8201168201806040525081019062000c399190620026f8565b30888462001fcd565b62000c508487308862001fcd565b6002600160005460a860020a900460ff16600281111562000c755762000c7562002112565b0362000c7f575060015b6040805160e08101825260068054825282518084018452600881527f57495448445241570000000000000000000000000000000000000000000000006020828101919091528301908152928201859052426060830181905260ff851660808401523060a0840152600160a060020a038b1660c084015260058054600181018255600091909152835192027f036b6384b5eca791c62761152d0c79bb0604c104a5fb6f4eb0703f3154bb3db08101928355935190937f036b6384b5eca791c62761152d0c79bb0604c104a5fb6f4eb0703f3154bb3db1019062000d629082620027a6565b506040820151600282015560608201516003820155608082015160048201805460a085015160ff90931674ffffffffffffffffffffffffffffffffffffffffff1990911617610100600160a060020a039384160217905560c0909201516005909101805473ffffffffffffffffffffffffffffffffffffffff1916919092161790556006805490600062000df68362002879565b90915550506007546040517f79769488000000000000000000000000000000000000000000000000000000008152600160a060020a038a8116600483015260ff851660248301526044820186905260648201849052909116906379769488906084015b600060405180830381600087803b15801562000e7457600080fd5b505af115801562000e89573d6000803e3d6000fd5b505050505050505050505050565b60015442101562000eee5760405160e560020a62461bcd02815260206004820181905260248201527f67616d65206973206e6f7420726561647920746f206265207265736f6c7665646044820152606401620004ac565b600160005460a060020a900460ff16600181111562000f115762000f1162002112565b0362000f635760405160e560020a62461bcd02815260206004820152601660248201527f67616d6520697320616c726561647920636c6f736564000000000000000000006044820152606401620004ac565b6000805474ff0000000000000000000000000000000000000000191660a060020a17905560028054819062000f9762001a30565b1262000fa4575060019050805b6000805483919075ff000000000000000000000000000000000000000000191660a860020a83600281111562000fde5762000fde62002112565b02179055506007546040517fe362937d00000000000000000000000000000000000000000000000000000000815260ff83166004820152600160a060020a039091169063e362937d90602401600060405180830381600087803b1580156200104557600080fd5b505af11580156200105a573d6000803e3d6000fd5b505050505050565b6000600160a060020a0384163314620010c15760405160e560020a62461bcd02815260206004820152601360248201527f496e76616c6964205472616e73616374696f6e000000000000000000000000006044820152606401620004ac565b6000805460a060020a900460ff166001811115620010e357620010e362002112565b146200115b5760405160e560020a62461bcd02815260206004820152602860248201527f47616d6520697320636c6f7365642c206e6f206675727468657220626574732060448201527f61636365707465640000000000000000000000000000000000000000000000006064820152608401620004ac565b8160ff16600114806200117157508160ff166002145b620011c25760405160e560020a62461bcd02815260206004820152601a60248201527f6265742073696465206973206e6f74207265636f676e697365640000000000006044820152606401620004ac565b6001544211156200123f5760405160e560020a62461bcd02815260206004820152602260248201527f63616e6e6f74207075742062657473206166746572207265736f6c766520746960448201527f6d650000000000000000000000000000000000000000000000000000000000006064820152608401620004ac565b600754604080517f3fc15f1500000000000000000000000000000000000000000000000000000000815290518592600160a060020a031691633fc15f159160048083019260209291908290030181865afa158015620012a2573d6000803e3d6000fd5b505050506040513d601f19601f82011682018060405250810190620012c89190620026f8565b6040517fdd62ed3e000000000000000000000000000000000000000000000000000000008152600160a060020a038781166004830152306024830152919091169063dd62ed3e90604401602060405180830381865afa15801562001330573d6000803e3d6000fd5b505050506040513d601f19601f820116820180604052508101906200135691906200266f565b1015620013cf5760405160e560020a62461bcd02815260206004820152602d60248201527f706c617965722773206877616e67206d61726b657420746f6b656e20616c6c6f60448201527f77616e636520746f6f206c6f77000000000000000000000000000000000000006064820152608401620004ac565b600754604080517f3fc15f1500000000000000000000000000000000000000000000000000000000815290518592600160a060020a031691633fc15f159160048083019260209291908290030181865afa15801562001432573d6000803e3d6000fd5b505050506040513d601f19601f82011682018060405250810190620014589190620026f8565b6040517f70a08231000000000000000000000000000000000000000000000000000000008152600160a060020a03878116600483015291909116906370a0823190602401602060405180830381865afa158015620014ba573d6000803e3d6000fd5b505050506040513d601f19601f82011682018060405250810190620014e091906200266f565b1015620015595760405160e560020a62461bcd02815260206004820152602b60248201527f706c617965722773206877616e67206d61726b657420746f6b656e2062616c6160448201527f6e636520746f6f206c6f770000000000000000000000000000000000000000006064820152608401620004ac565b600260ff83166001036200156b575060015b600954600160a060020a031660ff8416600103620015915750600b54600160a060020a03165b6000620015a0600187620026c8565b905081600160a060020a03166319d1997a6040518163ffffffff1660e060020a028152600401602060405180830381865afa158015620015e4573d6000803e3d6000fd5b505050506040513d601f19601f820116820180604052508101906200160a91906200266f565b8183600160a060020a03166318160ddd6040518163ffffffff1660e060020a028152600401602060405180830381865afa1580156200164d573d6000803e3d6000fd5b505050506040513d601f19601f820116820180604052508101906200167391906200266f565b6200167f9190620026e2565b1115620016f85760405160e560020a62461bcd02815260206004820152602760248201527f67616d6520746f6b656e2063616e6e6f74206d696e742072657175657374656460448201527f20616d6f756e74000000000000000000000000000000000000000000000000006064820152608401620004ac565b6040517f40c10f19000000000000000000000000000000000000000000000000000000008152600160a060020a038881166004830152602482018390528316906340c10f1990604401600060405180830381600087803b1580156200175c57600080fd5b505af115801562001771573d6000803e3d6000fd5b50505050620017ff600760009054906101000a9004600160a060020a0316600160a060020a0316633fc15f156040518163ffffffff1660e060020a028152600401602060405180830381865afa158015620017d0573d6000803e3d6000fd5b505050506040513d601f19601f82011682018060405250810190620017f69190620026f8565b88308962001fcd565b856003600085600281111562001819576200181962002112565b60028111156200182d576200182d62002112565b815260200190815260200160002060008282546200184c9190620026e2565b90915550506040805160e08101825260068054825282518084018452600381527f42455400000000000000000000000000000000000000000000000000000000006020828101919091528301908152928201899052426060830181905260ff891660808401523060a0840152600160a060020a038b1660c084015260058054600181018255600091909152835192027f036b6384b5eca791c62761152d0c79bb0604c104a5fb6f4eb0703f3154bb3db08101928355935190937f036b6384b5eca791c62761152d0c79bb0604c104a5fb6f4eb0703f3154bb3db10190620019349082620027a6565b506040820151600282015560608201516003820155608082015160048201805460a085015160ff90931674ffffffffffffffffffffffffffffffffffffffffff1990911617610100600160a060020a039384160217905560c0909201516005909101805473ffffffffffffffffffffffffffffffffffffffff19169190921617905560068054906000620019c88362002879565b90915550506007546040517f5039eb97000000000000000000000000000000000000000000000000000000008152600160a060020a038a8116600483015260ff89166024830152604482018a90526064820184905290911690635039eb979060840162000e59565b60048054604080517ffeaf968c00000000000000000000000000000000000000000000000000000000815290516000938493600160a060020a03169263feaf968c928183019260a0928290030181865afa15801562001a93573d6000803e3d6000fd5b505050506040513d601f19601f8201168201806040525081019062001ab99190620028b0565b509195945050505050565b6040517f75a02c20000000000000000000000000000000000000000000000000000000008152600c600482015260609073__IterableMapping_______________________906375a02c2090602401600060405180830381865af415801562001b31573d6000803e3d6000fd5b505050506040513d6000823e601f3d908101601f1916820160405262001b5b919081019062002905565b905090565b6040805161012081018252600080825260208201819052918101829052606081018290526080810182905260a0810182905260c0810182905260e0810182905261010081019190915260006011549050600081888888888860405162001bc690620020bc565b958652600160a060020a03948516602087015292841660408601526060850191909152909116608083015260a082015260c001604051809103906000f08015801562001c16573d6000803e3d6000fd5b506040805161012081018252848152600160a060020a0380841660208301528b8116828401528a81166060830152608082018a9052600060a0830181905290891660c083015260e0820188905261010082015290517f070b5eb40000000000000000000000000000000000000000000000000000000081529192509073__IterableMapping_______________________9063070b5eb49062001cc390600c9087908690600401620029c2565b60006040518083038186803b15801562001cdc57600080fd5b505af415801562001cf1573d6000803e3d6000fd5b50506011805492509050600062001d088362002879565b90915550909998505050505050505050565b6040517fd31c830c000000000000000000000000000000000000000000000000000000008152600c60048201526024810182905260009073__IterableMapping_______________________9063d31c830c9060440161012060405180830381865af415801562001d8f573d6000803e3d6000fd5b505050506040513d601f19601f8201168201806040525081019062001db591906200264f565b6020015192915050565b60008160ff166001148062001dd757508160ff166002145b62001e285760405160e560020a62461bcd02815260206004820152601a60248201527f73696465206d757374206265206f6e65206f662031206f7220320000000000006044820152606401620004ac565b600260ff831660010362001e3a575060015b6003600082600281111562001e535762001e5362002112565b600281111562001e675762001e6762002112565b815260200190815260200160002054915050919050565b60606005805480602002602001604051908101604052809291908181526020016000905b8282101562001fc457838290600052602060002090600602016040518060e00160405290816000820154815260200160018201805462001ee29062002718565b80601f016020809104026020016040519081016040528092919081815260200182805462001f109062002718565b801562001f615780601f1062001f355761010080835404028352916020019162001f61565b820191906000526020600020905b81548152906001019060200180831162001f4357829003601f168201915b5050509183525050600282015460208083019190915260038301546040830152600483015460ff81166060840152600160a060020a036101009091048116608084015260059093015490921660a090910152908252600192909201910162001ea2565b50505050905090565b6040517f23b872dd000000000000000000000000000000000000000000000000000000008152600160a060020a038481166004830152838116602483015260448201839052600091908616906323b872dd906064016020604051808303816000875af115801562002042573d6000803e3d6000fd5b505050506040513d601f19601f82011682018060405250810190620020689190620024f9565b905080620005e25760405160e560020a62461bcd02815260206004820152601560248201527f546f6b656e207472616e73666572206661696c656400000000000000000000006044820152606401620004ac565b6109f280620029e983390190565b600160a060020a0381168114620020e057600080fd5b50565b60008060408385031215620020f757600080fd5b82356200210481620020ca565b946020939093013593505050565b60e060020a634e487b7102600052602160045260246000fd5b600381106200213e576200213e62002112565b9052565b602081016200215282846200212b565b92915050565b6000602082840312156200216b57600080fd5b8135600381106200217b57600080fd5b9392505050565b600281106200213e576200213e62002112565b600160a060020a038616815260a08101620021b4602083018762002182565b620021c360408301866200212b565b6060820193909352608001529392505050565b6020810162002152828462002182565b803560ff81168114620021f857600080fd5b919050565b6000806000606084860312156200221357600080fd5b83356200222081620020ca565b9250602084013591506200223760408501620021e6565b90509250925092565b805182526020810151600160a060020a03808216602085015280604084015116604085015280606084015116606085015250506080810151608083015260a08101516200229860a0840182600160a060020a03169052565b5060c0810151620022b460c0840182600160a060020a03169052565b5060e081015160e083015261010080820151620022d48285018215159052565b50505050565b6020808252825182820181905260009190848201906040850190845b8181101562002321576200230c83855162002240565b928401926101209290920191600101620022f6565b50909695505050505050565b600080600080600060a086880312156200234657600080fd5b85356200235381620020ca565b945060208601356200236581620020ca565b93506040860135925060608601356200237e81620020ca565b949793965091946080013592915050565b610120810162002152828462002240565b600060208284031215620023b357600080fd5b5035919050565b600060208284031215620023cd57600080fd5b6200217b82620021e6565b6020808252825182820181905260009190604090818501908084028601830187850186805b84811015620024d957603f198a8503018652825160e08151865289820151818b880152805180838901528592505b808310156200244c578183018c01518884016101000152918b01916200242b565b61010092508583828a0101528a8401518b890152606091508184015182890152608091508184015162002483838a018260ff169052565b5060a0915081840151620024a1838a0182600160a060020a03169052565b5060c093840151600160a060020a03811689860152939150988b0198601f01601f1916969096010194505091870191600101620023fd565b50919998505050505050505050565b80518015158114620021f857600080fd5b6000602082840312156200250c57600080fd5b6200217b82620024e8565b60e060020a634e487b7102600052604160045260246000fd5b604051610120810167ffffffffffffffff8111828210171562002557576200255762002517565b60405290565b604051601f8201601f1916810167ffffffffffffffff8111828210171562002589576200258962002517565b604052919050565b8051620021f881620020ca565b60006101208284031215620025b257600080fd5b620025bc62002530565b905081518152620025d06020830162002591565b6020820152620025e36040830162002591565b6040820152620025f66060830162002591565b6060820152608082015160808201526200261360a0830162002591565b60a08201526200262660c0830162002591565b60c082015260e082015160e082015261010062002645818401620024e8565b9082015292915050565b600061012082840312156200266357600080fd5b6200217b83836200259e565b6000602082840312156200268257600080fd5b5051919050565b60e060020a634e487b7102600052601160045260246000fd5b600082620026c35760e060020a634e487b7102600052601260045260246000fd5b500490565b808202811582820484141762002152576200215262002689565b8082018082111562002152576200215262002689565b6000602082840312156200270b57600080fd5b81516200217b81620020ca565b6002810460018216806200272d57607f821691505b602082108103620027515760e060020a634e487b7102600052602260045260246000fd5b50919050565b601f821115620027a1576000818152602081206020601f86010481016020861015620027805750805b6020601f860104820191505b818110156200105a578281556001016200278c565b505050565b815167ffffffffffffffff811115620027c357620027c362002517565b620027db81620027d4845462002718565b8462002757565b602080601f831160018114620028175760008415620027fa5750858301515b60028086026008870290910a60001904198216178655506200105a565b600085815260208120601f198616915b82811015620028485788860151825594840194600190910190840162002827565b50858210156200286957878501516008601f88160260020a60001904191681555b5050505050600202600101905550565b6000600182016200288e576200288e62002689565b5060010190565b805169ffffffffffffffffffff81168114620021f857600080fd5b600080600080600060a08688031215620028c957600080fd5b620028d48662002895565b9450602086015193506040860151925060608601519150620028f96080870162002895565b90509295509295909350565b600060208083850312156200291957600080fd5b825167ffffffffffffffff808211156200293257600080fd5b818501915085601f8301126200294757600080fd5b8151818111156200295c576200295c62002517565b6200296b84858302016200255d565b81815284810192506101209182028401850191888311156200298c57600080fd5b938501935b82851015620029b657620029a689866200259e565b8452938401939285019262002991565b50979650505050505050565b838152602081018390526101608101620029e0604083018462002240565b94935050505056fe608060405234801561001057600080fd5b506040516109f23803806109f283398101604081905261002f9161020c565b6000805433600160a060020a03199182168117909255600a805461010060a860020a031916610100909302929092179091556001879055600280548216600160a060020a03888116918217909255600380548416888416908117909155600587905560078054851693871693909317909255600984905560048054909316821783556040517f70a082310000000000000000000000000000000000000000000000000000000081529283015284916370a0823190602401602060405180830381865afa158015610103573d6000803e3d6000fd5b505050506040513d601f19601f82011682018060405250810190610127919061026b565b10156101bb57604080517f08c379a00000000000000000000000000000000000000000000000000000000081526020600482015260248101919091527f706c6179657220312068617320696e73756666696369656e742062616c616e6360448201527f65206f6620746f6b656e203120746f206372656174652061206c697374696e67606482015260840160405180910390fd5b5060088054600160a060020a031916600160a060020a03929092169190911790555050600a805460ff19169055506102849050565b8051600160a060020a038116811461020757600080fd5b919050565b60008060008060008060c0878903121561022557600080fd5b86519550610235602088016101f0565b9450610243604088016101f0565b935060608701519250610258608088016101f0565b915060a087015190509295509295509295565b60006020828403121561027d57600080fd5b5051919050565b61075f806102936000396000f3fe608060405234801561001057600080fd5b50600436106100d1576000357c010000000000000000000000000000000000000000000000000000000090048063c4e5edcd1161008e578063c4e5edcd14610176578063d21220a71461017f578063d30895e414610192578063d5488048146101a5578063d70c6703146101b8578063e2d46f98146101c157600080fd5b806302d05d3f146100d657806325be124e1461010657806358aaf0be1461011957806359a5f12d1461012c5780636f6ff4051461013f5780639405dfdd1461015f575b600080fd5b6000546100e990600160a060020a031681565b604051600160a060020a0390911681526020015b60405180910390f35b6007546100e990600160a060020a031681565b6008546100e990600160a060020a031681565b6006546100e990600160a060020a031681565b61015261014d36600461060d565b6101de565b6040516100fd919061063d565b61016860015481565b6040519081526020016100fd565b61016860095481565b6003546100e990600160a060020a031681565b6002546100e990600160a060020a031681565b6004546100e990600160a060020a031681565b61016860055481565b600a546101ce9060ff1681565b60405190151581526020016100fd565b6040805161012081018252600080825260208201819052918101829052606081018290526080810182905260a0810182905260c0810182905260e08101829052610100810191909152600554600480546002546040517fdd62ed3e000000000000000000000000000000000000000000000000000000008152600160a060020a0391821693810193909352306024840152169063dd62ed3e90604401602060405180830381865afa158015610297573d6000803e3d6000fd5b505050506040513d601f19601f820116820180604052508101906102bb91906106ee565b1015610328576040517f08c379a000000000000000000000000000000000000000000000000000000000815260206004820152601960248201527f546f6b656e203120616c6c6f77616e636520746f6f206c6f770000000000000060448201526064015b60405180910390fd5b6009546008546006546040517fdd62ed3e000000000000000000000000000000000000000000000000000000008152600160a060020a03918216600482015230602482015291169063dd62ed3e90604401602060405180830381865afa158015610396573d6000803e3d6000fd5b505050506040513d601f19601f820116820180604052508101906103ba91906106ee565b1015610422576040517f08c379a000000000000000000000000000000000000000000000000000000000815260206004820152601960248201527f546f6b656e203220616c6c6f77616e636520746f6f206c6f7700000000000000604482015260640161031f565b60045460025460065460055461044893600160a060020a03908116938116921690610505565b60085460065460025460095461046e93600160a060020a03908116938116921690610505565b506006805473ffffffffffffffffffffffffffffffffffffffff1916600160a060020a03928316908117909155600a805460ff1916600190811790915560408051610120810182528254815230602082015260025485169181019190915260035484166060820152600554608082015260a081019290925260075490921660c082015260095460e082015261010081019190915290565b6040517f23b872dd000000000000000000000000000000000000000000000000000000008152600160a060020a038481166004830152838116602483015260448201839052600091908616906323b872dd906064016020604051808303816000875af1158015610579573d6000803e3d6000fd5b505050506040513d601f19601f8201168201806040525081019061059d9190610707565b905080610606576040517f08c379a000000000000000000000000000000000000000000000000000000000815260206004820152601560248201527f546f6b656e207472616e73666572206661696c65640000000000000000000000604482015260640161031f565b5050505050565b60006020828403121561061f57600080fd5b8135600160a060020a038116811461063657600080fd5b9392505050565b600061012082019050825182526020830151600160a060020a038082166020850152806040860151166040850152505060608301516106876060840182600160a060020a03169052565b506080830151608083015260a08301516106ac60a0840182600160a060020a03169052565b5060c08301516106c760c0840182600160a060020a03169052565b5060e083015160e0830152610100808401516106e68285018215159052565b505092915050565b60006020828403121561070057600080fd5b5051919050565b60006020828403121561071957600080fd5b8151801515811461063657600080fdfea2646970667358221220ed7b82c474aec5e19a71b5eab2fb14185d7e9264d9e2c3fb1abffa728b0ea90464736f6c63430008110033a2646970667358221220bae599ff8ca28e7f0b61367555018b53aca61b23d40adc3de86743933d936f2e64736f6c6343000811003360806040523480156200001157600080fd5b50604051620015ca380380620015ca833981016040819052620000349162000164565b60068054600160a060020a0319163317905560046200005484826200027f565b5060056200006383826200027f565b506000908155600155505060078054600160a060020a0319163317905562000351565b7f4e487b7100000000000000000000000000000000000000000000000000000000600052604160045260246000fd5b600082601f830112620000c757600080fd5b81516001604060020a0380821115620000e457620000e462000086565b604051601f8301601f19908116603f011681019082821181831017156200010f576200010f62000086565b816040528381526020925086838588010111156200012c57600080fd5b600091505b8382101562000150578582018301518183018401529082019062000131565b600093810190920192909252949350505050565b6000806000606084860312156200017a57600080fd5b83516001604060020a03808211156200019257600080fd5b620001a087838801620000b5565b94506020860151915080821115620001b757600080fd5b50620001c686828701620000b5565b925050604084015190509250925092565b600281046001821680620001ec57607f821691505b60208210810362000226577f4e487b7100000000000000000000000000000000000000000000000000000000600052602260045260246000fd5b50919050565b601f8211156200027a576000818152602081206020601f86010481016020861015620002555750805b6020601f860104820191505b81811015620002765782815560010162000261565b5050505b505050565b81516001604060020a038111156200029b576200029b62000086565b620002b381620002ac8454620001d7565b846200022c565b602080601f831160018114620002ef5760008415620002d25750858301515b60028086026008870290910a600019041982161786555062000276565b600085815260208120601f198616915b828110156200032057888601518255948401946001909101908401620002ff565b50858210156200034157878501516008601f88160260020a60001904191681555b5050505050600202600101905550565b61126980620003616000396000f3fe608060405234801561001057600080fd5b50600436106100d35760003560e060020a9004806340c10f191161009057806395d89b411161006a57806395d89b41146101a75780639ea3c820146101af578063a9059cbb146101cf578063dd62ed3e146101e257600080fd5b806340c10f191461015f57806342966c681461017457806370a082311461018757600080fd5b806306fdde03146100d8578063095ea7b3146100f657806318160ddd1461011957806319d1997a1461013057806321e382591461013957806323b872dd1461014c575b600080fd5b6100e061020d565b6040516100ed9190610daa565b60405180910390f35b610109610104366004610e10565b61029b565b60405190151581526020016100ed565b61012260015481565b6040519081526020016100ed565b61012260005481565b610109610147366004610e3c565b610359565b61010961015a366004610e84565b610552565b61017261016d366004610e10565b610702565b005b610172610182366004610ec5565b610862565b610122610195366004610ede565b60026020526000908152604090205481565b6100e06108fa565b6101c26101bd366004610ede565b610907565b6040516100ed9190610f02565b6101096101dd366004610e10565b610cc4565b6101226101f0366004610fb3565b600360209081526000928352604080842090915290825290205481565b6004805461021a90610fec565b80601f016020809104026020016040519081016040528092919081815260200182805461024690610fec565b80156102935780601f1061026857610100808354040283529160200191610293565b820191906000526020600020905b81548152906001019060200180831161027657829003601f168201915b505050505081565b336000908152600260205260408120548211156102d65760405160e560020a62461bcd0281526004016102cd9061103f565b60405180910390fd5b336000908152600360209081526040808320600160a060020a0387168452909152812080548492906103099084906110a5565b9091555050604051828152600160a060020a0384169033907f8c5be1e5ebec7d5bd14f71427d1e84f3dd0314c0f7b2291e5b200ac8c7c3b925906020015b60405180910390a35060015b92915050565b3360009081526002602052604081205484111561038b5760405160e560020a62461bcd0281526004016102cd9061103f565b600160a060020a03851630146103e65760405160e560020a62461bcd02815260206004820152601560248201527f746f6b656e206d75737420626520746f6b656e2031000000000000000000000060448201526064016102cd565b6007546040517fdc7dbf3e000000000000000000000000000000000000000000000000000000008152336004820152600160a060020a03878116602483015260448201879052858116606483015260848201859052600092169063dc7dbf3e9060a401610120604051808303816000875af1158015610469573d6000803e3d6000fd5b505050506040513d601f19601f8201168201806040525081019061048d9190611129565b602080820151336000908152600383526040808220600160a060020a0384168352909352918220805493945090928892906104c99084906110a5565b9091555050604051868152600160a060020a0382169033907f8c5be1e5ebec7d5bd14f71427d1e84f3dd0314c0f7b2291e5b200ac8c7c3b9259060200160405180910390a37fd1fe3704bd3aa4f4974d5168e39528bbb86b19e98e5f798beea49af58df301398260405161053d9190610f02565b60405180910390a15060019695505050505050565b600160a060020a03831660009081526003602090815260408083203384529091528120548211156105ee5760405160e560020a62461bcd02815260206004820152602f60248201527f696e73756666696369656e7420616c6c6f77616e636520746f2072656369706960448201527f656e742066726f6d2073656e646572000000000000000000000000000000000060648201526084016102cd565b600160a060020a0384166000908152600260205260409020548211156106295760405160e560020a62461bcd0281526004016102cd9061103f565b600160a060020a03841660009081526003602090815260408083203384529091528120805484929061065c9084906111ca565b9091555050600160a060020a038416600090815260026020526040812080548492906106899084906111ca565b9091555050600160a060020a038316600090815260026020526040812080548492906106b69084906110a5565b9250508190555082600160a060020a031684600160a060020a0316600080516020611214833981519152846040516106f091815260200190565b60405180910390a35060019392505050565b600654600160a060020a0316331461075f5760405160e560020a62461bcd02815260206004820152600e60248201527f4e6f7420617574686f72697a656400000000000000000000000000000000000060448201526064016102cd565b6000548160015461077091906110a5565b11156107e9576040805160e560020a62461bcd0281526020600482015260248101919091527f63616e6e6f74206d696e74207468652072657175657374656420616d6f756e7460448201527f206f6620746f6b656e732c20737570706c79206c696d697420746f6f206c6f7760648201526084016102cd565b600160a060020a038216600090815260026020526040812080548392906108119084906110a5565b92505081905550806001600082825461082a91906110a5565b9091555050604051818152600160a060020a038316906000906000805160206112148339815191529060200160405180910390a35050565b336000908152600260205260409020548111156108945760405160e560020a62461bcd0281526004016102cd9061103f565b33600090815260026020526040812080548392906108b39084906111ca565b9250508190555080600160008282546108cc91906111ca565b909155505060405181815260009033906000805160206112148339815191529060200160405180910390a350565b6005805461021a90610fec565b6040805161012081018252600080825260208201819052918101829052606081018290526080810182905260a0810182905260c0810182905260e08101829052610100810191909152600082905030600160a060020a031681600160a060020a03166325be124e6040518163ffffffff1660e060020a028152600401602060405180830381865afa1580156109a0573d6000803e3d6000fd5b505050506040513d601f19601f820116820180604052508101906109c491906111dd565b600160a060020a031614610a1d5760405160e560020a62461bcd02815260206004820181905260248201527f6c697374696e672077616e7473206120646966666572656e7420746f6b656e3260448201526064016102cd565b80600160a060020a031663c4e5edcd6040518163ffffffff1660e060020a028152600401602060405180830381865afa158015610a5e573d6000803e3d6000fd5b505050506040513d601f19601f82011682018060405250810190610a8291906111fa565b336000908152600260205260409020541015610ab35760405160e560020a62461bcd0281526004016102cd9061103f565b80600160a060020a031663c4e5edcd6040518163ffffffff1660e060020a028152600401602060405180830381865afa158015610af4573d6000803e3d6000fd5b505050506040513d601f19601f82011682018060405250810190610b1891906111fa565b336000908152600360209081526040808320600160a060020a038816845290915281208054909190610b4b9084906110a5565b9250508190555082600160a060020a031633600160a060020a03167f8c5be1e5ebec7d5bd14f71427d1e84f3dd0314c0f7b2291e5b200ac8c7c3b92583600160a060020a031663c4e5edcd6040518163ffffffff1660e060020a028152600401602060405180830381865afa158015610bc8573d6000803e3d6000fd5b505050506040513d601f19601f82011682018060405250810190610bec91906111fa565b60405190815260200160405180910390a36040517f6f6ff405000000000000000000000000000000000000000000000000000000008152336004820152600090600160a060020a03831690636f6ff40590602401610120604051808303816000875af1158015610c60573d6000803e3d6000fd5b505050506040513d601f19601f82011682018060405250810190610c849190611129565b90507f4758bcd8e425945eea731ed13074c209c3176197b970b6a78b278ad015ae907881604051610cb59190610f02565b60405180910390a19392505050565b33600090815260026020526040812054821115610cf65760405160e560020a62461bcd0281526004016102cd9061103f565b3360009081526002602052604081208054849290610d159084906111ca565b9091555050600160a060020a03831660009081526002602052604081208054849290610d429084906110a5565b9091555050336000908152600360209081526040808320600160a060020a038716845290915281208054849290610d7a9084906111ca565b9091555050604051828152600160a060020a03841690339060008051602061121483398151915290602001610347565b600060208083528351808285015260005b81811015610dd757858101830151858201604001528201610dbb565b506000604082860101526040601f19601f8301168501019250505092915050565b600160a060020a0381168114610e0d57600080fd5b50565b60008060408385031215610e2357600080fd5b8235610e2e81610df8565b946020939093013593505050565b60008060008060808587031215610e5257600080fd5b8435610e5d81610df8565b9350602085013592506040850135610e7481610df8565b9396929550929360600135925050565b600080600060608486031215610e9957600080fd5b8335610ea481610df8565b92506020840135610eb481610df8565b929592945050506040919091013590565b600060208284031215610ed757600080fd5b5035919050565b600060208284031215610ef057600080fd5b8135610efb81610df8565b9392505050565b600061012082019050825182526020830151600160a060020a03808216602085015280604086015116604085015250506060830151610f4c6060840182600160a060020a03169052565b506080830151608083015260a0830151610f7160a0840182600160a060020a03169052565b5060c0830151610f8c60c0840182600160a060020a03169052565b5060e083015160e083015261010080840151610fab8285018215159052565b505092915050565b60008060408385031215610fc657600080fd5b8235610fd181610df8565b91506020830135610fe181610df8565b809150509250929050565b60028104600182168061100057607f821691505b602082108103611039577f4e487b7100000000000000000000000000000000000000000000000000000000600052602260045260246000fd5b50919050565b6020808252601e908201527f696e73756666696369656e742062616c616e636520696e2073656e6465720000604082015260600190565b7f4e487b7100000000000000000000000000000000000000000000000000000000600052601160045260246000fd5b8082018082111561035357610353611076565b604051610120810167ffffffffffffffff81118282101715611103577f4e487b7100000000000000000000000000000000000000000000000000000000600052604160045260246000fd5b60405290565b805161111481610df8565b919050565b8051801515811461111457600080fd5b6000610120828403121561113c57600080fd5b6111446110b8565b8251815261115460208401611109565b602082015261116560408401611109565b604082015261117660608401611109565b60608201526080830151608082015261119160a08401611109565b60a08201526111a260c08401611109565b60c082015260e083015160e08201526101006111bf818501611119565b908201529392505050565b8181038181111561035357610353611076565b6000602082840312156111ef57600080fd5b8151610efb81610df8565b60006020828403121561120c57600080fd5b505191905056feddf252ad1be2c89b69c2b068fc378daa952ba7f163c4a11628f55a4df523b3efa2646970667358221220c9bbe330fc49d298f22a449f7e5f1b767177e3755614dbbe8263ed1aa307c43364736f6c63430008110033608060405234801561001057600080fd5b506040516109f23803806109f283398101604081905261002f9161020c565b6000805433600160a060020a03199182168117909255600a805461010060a860020a031916610100909302929092179091556001879055600280548216600160a060020a03888116918217909255600380548416888416908117909155600587905560078054851693871693909317909255600984905560048054909316821783556040517f70a082310000000000000000000000000000000000000000000000000000000081529283015284916370a0823190602401602060405180830381865afa158015610103573d6000803e3d6000fd5b505050506040513d601f19601f82011682018060405250810190610127919061026b565b10156101bb57604080517f08c379a00000000000000000000000000000000000000000000000000000000081526020600482015260248101919091527f706c6179657220312068617320696e73756666696369656e742062616c616e6360448201527f65206f6620746f6b656e203120746f206372656174652061206c697374696e67606482015260840160405180910390fd5b5060088054600160a060020a031916600160a060020a03929092169190911790555050600a805460ff19169055506102849050565b8051600160a060020a038116811461020757600080fd5b919050565b60008060008060008060c0878903121561022557600080fd5b86519550610235602088016101f0565b9450610243604088016101f0565b935060608701519250610258608088016101f0565b915060a087015190509295509295509295565b60006020828403121561027d57600080fd5b5051919050565b61075f806102936000396000f3fe608060405234801561001057600080fd5b50600436106100d1576000357c010000000000000000000000000000000000000000000000000000000090048063c4e5edcd1161008e578063c4e5edcd14610176578063d21220a71461017f578063d30895e414610192578063d5488048146101a5578063d70c6703146101b8578063e2d46f98146101c157600080fd5b806302d05d3f146100d657806325be124e1461010657806358aaf0be1461011957806359a5f12d1461012c5780636f6ff4051461013f5780639405dfdd1461015f575b600080fd5b6000546100e990600160a060020a031681565b604051600160a060020a0390911681526020015b60405180910390f35b6007546100e990600160a060020a031681565b6008546100e990600160a060020a031681565b6006546100e990600160a060020a031681565b61015261014d36600461060d565b6101de565b6040516100fd919061063d565b61016860015481565b6040519081526020016100fd565b61016860095481565b6003546100e990600160a060020a031681565b6002546100e990600160a060020a031681565b6004546100e990600160a060020a031681565b61016860055481565b600a546101ce9060ff1681565b60405190151581526020016100fd565b6040805161012081018252600080825260208201819052918101829052606081018290526080810182905260a0810182905260c0810182905260e08101829052610100810191909152600554600480546002546040517fdd62ed3e000000000000000000000000000000000000000000000000000000008152600160a060020a0391821693810193909352306024840152169063dd62ed3e90604401602060405180830381865afa158015610297573d6000803e3d6000fd5b505050506040513d601f19601f820116820180604052508101906102bb91906106ee565b1015610328576040517f08c379a000000000000000000000000000000000000000000000000000000000815260206004820152601960248201527f546f6b656e203120616c6c6f77616e636520746f6f206c6f770000000000000060448201526064015b60405180910390fd5b6009546008546006546040517fdd62ed3e000000000000000000000000000000000000000000000000000000008152600160a060020a03918216600482015230602482015291169063dd62ed3e90604401602060405180830381865afa158015610396573d6000803e3d6000fd5b505050506040513d601f19601f820116820180604052508101906103ba91906106ee565b1015610422576040517f08c379a000000000000000000000000000000000000000000000000000000000815260206004820152601960248201527f546f6b656e203220616c6c6f77616e636520746f6f206c6f7700000000000000604482015260640161031f565b60045460025460065460055461044893600160a060020a03908116938116921690610505565b60085460065460025460095461046e93600160a060020a03908116938116921690610505565b506006805473ffffffffffffffffffffffffffffffffffffffff1916600160a060020a03928316908117909155600a805460ff1916600190811790915560408051610120810182528254815230602082015260025485169181019190915260035484166060820152600554608082015260a081019290925260075490921660c082015260095460e082015261010081019190915290565b6040517f23b872dd000000000000000000000000000000000000000000000000000000008152600160a060020a038481166004830152838116602483015260448201839052600091908616906323b872dd906064016020604051808303816000875af1158015610579573d6000803e3d6000fd5b505050506040513d601f19601f8201168201806040525081019061059d9190610707565b905080610606576040517f08c379a000000000000000000000000000000000000000000000000000000000815260206004820152601560248201527f546f6b656e207472616e73666572206661696c65640000000000000000000000604482015260640161031f565b5050505050565b60006020828403121561061f57600080fd5b8135600160a060020a038116811461063657600080fd5b9392505050565b600061012082019050825182526020830151600160a060020a038082166020850152806040860151166040850152505060608301516106876060840182600160a060020a03169052565b506080830151608083015260a08301516106ac60a0840182600160a060020a03169052565b5060c08301516106c760c0840182600160a060020a03169052565b5060e083015160e0830152610100808401516106e68285018215159052565b505092915050565b60006020828403121561070057600080fd5b5051919050565b60006020828403121561071957600080fd5b8151801515811461063657600080fdfea2646970667358221220ed7b82c474aec5e19a71b5eab2fb14185d7e9264d9e2c3fb1abffa728b0ea90464736f6c63430008110033a2646970667358221220936c6683bbd6f5a0d7ebffd9219c3b5e75daefac004b34fb5f54d761798a1a5664736f6c6343000811003360c0604052600b60809081527f4877616e674d61726b657400000000000000000000000000000000000000000060a0526003906200003e9082620001a2565b5060408051808201909152600581527f484d544b4e0000000000000000000000000000000000000000000000000000006020820152600490620000829082620001a2565b506005805460ff191660121790556000600655348015620000a257600080fd5b506007805433600160a060020a0319918216811790925560088054909116909117905562000275565b7f4e487b7100000000000000000000000000000000000000000000000000000000600052604160045260246000fd5b6002810460018216806200010f57607f821691505b60208210810362000149577f4e487b7100000000000000000000000000000000000000000000000000000000600052602260045260246000fd5b50919050565b601f8211156200019d576000818152602081206020601f86010481016020861015620001785750805b6020601f860104820191505b81811015620001995782815560010162000184565b5050505b505050565b815167ffffffffffffffff811115620001bf57620001bf620000cb565b620001d781620001d08454620000fa565b846200014f565b602080601f831160018114620002135760008415620001f65750858301515b60028086026008870290910a600019041982161786555062000199565b600085815260208120601f198616915b82811015620002445788860151825594840194600190910190840162000223565b50858210156200026557878501516008601f88160260020a60001904191681555b5050505050600202600101905550565b61174280620002856000396000f3fe60806040526004361061011c5760003560e060020a9004806342966c68116100a4578063ac5388c811610068578063ac5388c81461031b578063b7b172b314610331578063d270e7ab14610351578063dd62ed3e14610371578063f16e4300146103a957600080fd5b806342966c681461026c57806370a082311461028c57806395d89b41146102b95780639ea3c820146102ce578063a9059cbb146102fb57600080fd5b8063156e29f6116100eb578063156e29f6146101d557806318160ddd146101ea57806321e382591461020057806323b872dd14610220578063313ce5671461024057600080fd5b806302d05d3f1461012857806306fdde0314610165578063095ea7b31461018757806312065fe0146101b757600080fd5b3661012357005b600080fd5b34801561013457600080fd5b5060075461014890600160a060020a031681565b604051600160a060020a0390911681526020015b60405180910390f35b34801561017157600080fd5b5061017a6103be565b60405161015c9190611254565b34801561019357600080fd5b506101a76101a23660046112ba565b61044c565b604051901515815260200161015c565b3480156101c357600080fd5b5030315b60405190815260200161015c565b6101e86101e33660046112e6565b6104ed565b005b3480156101f657600080fd5b506101c760005481565b34801561020c57600080fd5b506101a761021b36600461131b565b6106fc565b34801561022c57600080fd5b506101a761023b366004611363565b6108f5565b34801561024c57600080fd5b5060055461025a9060ff1681565b60405160ff909116815260200161015c565b34801561027857600080fd5b506101e86102873660046113a4565b610aa5565b34801561029857600080fd5b506101c76102a73660046113bd565b60016020526000908152604090205481565b3480156102c557600080fd5b5061017a610b3c565b3480156102da57600080fd5b506102ee6102e93660046113bd565b610b49565b60405161015c91906113e1565b34801561030757600080fd5b506101a76103163660046112ba565b610f06565b34801561032757600080fd5b506101c760065481565b34801561033d57600080fd5b506101e861034c3660046112ba565b611050565b34801561035d57600080fd5b5060085461014890600160a060020a031681565b34801561037d57600080fd5b506101c761038c366004611492565b600260209081526000928352604080842090915290825290205481565b3480156103b557600080fd5b506101c7600181565b600380546103cb906114cb565b80601f01602080910402602001604051908101604052809291908181526020018280546103f7906114cb565b80156104445780601f1061041957610100808354040283529160200191610444565b820191906000526020600020905b81548152906001019060200180831161042757829003601f168201915b505050505081565b336000908152600160205260408120548211156104875760405160e560020a62461bcd02815260040161047e90611508565b60405180910390fd5b336000818152600260209081526040808320600160a060020a03881680855290835292819020869055518581529192917f8c5be1e5ebec7d5bd14f71427d1e84f3dd0314c0f7b2291e5b200ac8c7c3b92591015b60405180910390a35060015b92915050565b82600160a060020a03163134111561054a5760405160e560020a62461bcd02815260206004820152601e60248201527f596f7520646f206e6f74206861766520656e6f7567682062616c616e63650000604482015260640161047e565b8034146105c25760405160e560020a62461bcd02815260206004820152602b60248201527f65746820616d6f756e7420737065636966696564206e6f7420657175616c207460448201527f6f206d73672076616c7565000000000000000000000000000000000000000000606482015260840161047e565b6105cd600182611558565b821461066a5760405160e560020a62461bcd02815260206004820152604160248201527f65746820616d6f756e74206f66666572656420646f6573206e6f74206d61746360448201527f6820616d6f756e74206f6620484d544b4e20746f6b656e20726571756573746560648201527f6400000000000000000000000000000000000000000000000000000000000000608482015260a40161047e565b600160a060020a0383166000908152600160205260408120805484929061069290849061156f565b92505081905550816000808282546106aa919061156f565b9250508190555081600660008282546106c3919061156f565b9091555050604051828152600160a060020a038416906000906000805160206116ed8339815191529060200160405180910390a3505050565b3360009081526001602052604081205484111561072e5760405160e560020a62461bcd02815260040161047e90611508565b600160a060020a03851630146107895760405160e560020a62461bcd02815260206004820152601560248201527f746f6b656e206d75737420626520746f6b656e20310000000000000000000000604482015260640161047e565b6008546040517fdc7dbf3e000000000000000000000000000000000000000000000000000000008152336004820152600160a060020a03878116602483015260448201879052858116606483015260848201859052600092169063dc7dbf3e9060a401610120604051808303816000875af115801561080c573d6000803e3d6000fd5b505050506040513d601f19601f8201168201806040525081019061083091906115dd565b602080820151336000908152600283526040808220600160a060020a03841683529093529182208054939450909288929061086c90849061156f565b9091555050604051868152600160a060020a0382169033907f8c5be1e5ebec7d5bd14f71427d1e84f3dd0314c0f7b2291e5b200ac8c7c3b9259060200160405180910390a37fd1fe3704bd3aa4f4974d5168e39528bbb86b19e98e5f798beea49af58df30139826040516108e091906113e1565b60405180910390a15060019695505050505050565b336000908152600260209081526040808320600160a060020a03861684529091528120548211156109915760405160e560020a62461bcd02815260206004820152602f60248201527f696e73756666696369656e7420616c6c6f77616e636520746f2072656369706960448201527f656e742066726f6d2073656e6465720000000000000000000000000000000000606482015260840161047e565b600160a060020a0384166000908152600160205260409020548211156109cc5760405160e560020a62461bcd02815260040161047e90611508565b600160a060020a0384166000908152600260209081526040808320338452909152812080548492906109ff90849061167e565b9091555050600160a060020a03841660009081526001602052604081208054849290610a2c90849061167e565b9091555050600160a060020a03831660009081526001602052604081208054849290610a5990849061156f565b9250508190555082600160a060020a031684600160a060020a03166000805160206116ed83398151915284604051610a9391815260200190565b60405180910390a35060019392505050565b33600090815260016020526040902054811115610ad75760405160e560020a62461bcd02815260040161047e90611508565b3360009081526001602052604081208054839290610af690849061167e565b9250508190555080600080828254610b0e919061167e565b909155505060405181815260009033906000805160206116ed8339815191529060200160405180910390a350565b600480546103cb906114cb565b6040805161012081018252600080825260208201819052918101829052606081018290526080810182905260a0810182905260c0810182905260e08101829052610100810191909152600082905030600160a060020a031681600160a060020a03166325be124e6040518163ffffffff1660e060020a028152600401602060405180830381865afa158015610be2573d6000803e3d6000fd5b505050506040513d601f19601f82011682018060405250810190610c069190611691565b600160a060020a031614610c5f5760405160e560020a62461bcd02815260206004820181905260248201527f6c697374696e672077616e7473206120646966666572656e7420746f6b656e32604482015260640161047e565b80600160a060020a031663c4e5edcd6040518163ffffffff1660e060020a028152600401602060405180830381865afa158015610ca0573d6000803e3d6000fd5b505050506040513d601f19601f82011682018060405250810190610cc491906116ae565b336000908152600160205260409020541015610cf55760405160e560020a62461bcd02815260040161047e90611508565b80600160a060020a031663c4e5edcd6040518163ffffffff1660e060020a028152600401602060405180830381865afa158015610d36573d6000803e3d6000fd5b505050506040513d601f19601f82011682018060405250810190610d5a91906116ae565b336000908152600260209081526040808320600160a060020a038816845290915281208054909190610d8d90849061156f565b9250508190555082600160a060020a031633600160a060020a03167f8c5be1e5ebec7d5bd14f71427d1e84f3dd0314c0f7b2291e5b200ac8c7c3b92583600160a060020a031663c4e5edcd6040518163ffffffff1660e060020a028152600401602060405180830381865afa158015610e0a573d6000803e3d6000fd5b505050506040513d601f19601f82011682018060405250810190610e2e91906116ae565b60405190815260200160405180910390a36040517f6f6ff405000000000000000000000000000000000000000000000000000000008152336004820152600090600160a060020a03831690636f6ff40590602401610120604051808303816000875af1158015610ea2573d6000803e3d6000fd5b505050506040513d601f19601f82011682018060405250810190610ec691906115dd565b90507f4758bcd8e425945eea731ed13074c209c3176197b970b6a78b278ad015ae907881604051610ef791906113e1565b60405180910390a19392505050565b336000908152600260209081526040808320600160a060020a0386168452909152812054821115610fa25760405160e560020a62461bcd02815260206004820152602f60248201527f696e73756666696369656e7420616c6c6f77616e63652066726f6d2073656e6460448201527f657220746f20726563697069656e740000000000000000000000000000000000606482015260840161047e565b33600090815260016020526040902054821115610fd45760405160e560020a62461bcd02815260040161047e90611508565b3360009081526001602052604081208054849290610ff390849061167e565b9091555050600160a060020a0383166000908152600160205260408120805484929061102090849061156f565b9091555050604051828152600160a060020a0384169033906000805160206116ed833981519152906020016104db565b600160a060020a03821633146110ab5760405160e560020a62461bcd02815260206004820152601360248201527f496e76616c6964205472616e73616374696f6e00000000000000000000000000604482015260640161047e565b33600090815260026020908152604080832030845290915290205481111561113e5760405160e560020a62461bcd02815260206004820152602c60248201527f696e73756666696369656e7420616c6c6f77616e636520696e20706c6179657260448201527f20746f20636f6e74726163740000000000000000000000000000000000000000606482015260840161047e565b336000908152600160205260409020548111156111a05760405160e560020a62461bcd02815260206004820152601e60248201527f696e73756666696369656e742062616c616e636520696e20706c617965720000604482015260640161047e565b60006111ad6001806116c7565b6111b79083611558565b604051909150600160a060020a0384169082156108fc029083906000818181858888f193505050501580156111f0573d6000803e3d6000fd5b50600160a060020a0383166000908152600160205260408120805484929061121990849061167e565b9250508190555081600080828254611231919061167e565b92505081905550806006600082825461124a919061167e565b9091555050505050565b600060208083528351808285015260005b8181101561128157858101830151858201604001528201611265565b506000604082860101526040601f19601f8301168501019250505092915050565b600160a060020a03811681146112b757600080fd5b50565b600080604083850312156112cd57600080fd5b82356112d8816112a2565b946020939093013593505050565b6000806000606084860312156112fb57600080fd5b8335611306816112a2565b95602085013595506040909401359392505050565b6000806000806080858703121561133157600080fd5b843561133c816112a2565b9350602085013592506040850135611353816112a2565b9396929550929360600135925050565b60008060006060848603121561137857600080fd5b8335611383816112a2565b92506020840135611393816112a2565b929592945050506040919091013590565b6000602082840312156113b657600080fd5b5035919050565b6000602082840312156113cf57600080fd5b81356113da816112a2565b9392505050565b600061012082019050825182526020830151600160a060020a0380821660208501528060408601511660408501525050606083015161142b6060840182600160a060020a03169052565b506080830151608083015260a083015161145060a0840182600160a060020a03169052565b5060c083015161146b60c0840182600160a060020a03169052565b5060e083015160e08301526101008084015161148a8285018215159052565b505092915050565b600080604083850312156114a557600080fd5b82356114b0816112a2565b915060208301356114c0816112a2565b809150509250929050565b6002810460018216806114df57607f821691505b6020821081036115025760e060020a634e487b7102600052602260045260246000fd5b50919050565b6020808252601e908201527f696e73756666696369656e742062616c616e636520696e2073656e6465720000604082015260600190565b60e060020a634e487b7102600052601160045260246000fd5b80820281158282048414176104e7576104e761153f565b808201808211156104e7576104e761153f565b604051610120810167ffffffffffffffff811182821017156115b75760e060020a634e487b7102600052604160045260246000fd5b60405290565b80516115c8816112a2565b919050565b805180151581146115c857600080fd5b600061012082840312156115f057600080fd5b6115f8611582565b82518152611608602084016115bd565b6020820152611619604084016115bd565b604082015261162a606084016115bd565b60608201526080830151608082015261164560a084016115bd565b60a082015261165660c084016115bd565b60c082015260e083015160e08201526101006116738185016115cd565b908201529392505050565b818103818111156104e7576104e761153f565b6000602082840312156116a357600080fd5b81516113da816112a2565b6000602082840312156116c057600080fd5b5051919050565b6000826116e75760e060020a634e487b7102600052601260045260246000fd5b50049056feddf252ad1be2c89b69c2b068fc378daa952ba7f163c4a11628f55a4df523b3efa264697066735822122027007f3517f23bfdafd20bb741558118acf442815648c45563809bb617090d5b64736f6c63430008110033",
  "immutableReferences": {},
  "source": "// SPDX-License-Identifier: MIT\npragma solidity >=0.4.22 <0.9.0;\n\nimport \"./MainToken.sol\";\nimport \"./GameContract.sol\";\nimport \"./IterableMapping.sol\";\nimport \"./Models.sol\";\nimport \"@openzeppelin/contracts/utils/math/SafeMath.sol\";\nimport \"@openzeppelin/contracts/token/ERC20/IERC20.sol\";\n\ncontract HwangMarket {\n  using IterableMapping for IterableMapping.ListingsMap;\n  using SafeMath for uint256;\n  address public mainTokenAddress;\n  MainToken public mainToken;\n\n  struct GameMetadata {\n    uint256 id;\n    address addr;\n    string tag;\n    string title;\n    address oracleAddr;\n    uint256 resolveTime;\n    int256 threshold;\n\n    uint256 totalAmount;\n    uint256 betYesAmount;\n    uint256 betNoAmount;\n    bool ongoing;\n    uint8 gameOutcome;\n  }\n\n  // for all activity\n  uint256 private trxId;\n\n  // for all games created\n  uint256 private gameCount;\n  mapping(uint256 => GameMetadata) public gameContractRegistry;\n  mapping(address => uint256) public gameAddr2Id;\n  \n  // for all ongoing games\n  uint256 private ongoingGamesCnt; // record end of ongoing games array\n  GameMetadata[] public ongoingGames;\n  mapping(uint256 => uint256) ongoingGamesId2Idx;\n\n  // for all closed games\n  GameMetadata[] public closedGames;\n\n  // Activity types constant\n  string constant BetActivityType = \"BET\";\n  string constant SellActivityType = \"SELL\";\n  string constant WithdrawActivityType = \"WITHDRAW\";\n\n  // Additionally, we want to keep a record of all player's movements on chain.\n  // That is, we want to record everytime a player bets (buys a position), or sells his position (and to who), or withdraws his winnings\n  struct Activity {\n    // Common fields\n    uint256 trxId;\n    string activityType;  // \"BET\", \"SELL\", \"WITHDRAW\"\n    uint256 gameId;\n    uint256 trxAmt;\n    uint256 trxTime; // when the trx was initiated\n    uint8 gameSide; // 1 - YES, 2 - NO\n    address from;\n    address to;\n  }\n  mapping(address => Activity[]) public playersRecords;\n\n  IterableMapping.ListingsMap private listingContracts;\n  uint256 public listingsCount;\n  \n\n  constructor() {\n    // we start counting from game 1, game id 0 is nonsense since its also default value\n    gameCount = 1;\n\n    mainToken = new MainToken();\n    mainTokenAddress = address(mainToken);\n  }\n\n  event GameCreated(GameMetadata gameMetadata);\n  event PlayerJoinedGameEvent(address player, uint256 gameId, address gameAddr, uint8 betSide, uint256 amount);\n  event PlayerWithdrawedWinnings(address player, uint256 gameId, address gameAddr, uint8 betSide, uint256 withdrawedAmt);\n  event GameConcluded(uint256 gameId, address gameAddr, uint8 gameOutcome);\n\n  // create game contract instance\n  function createGame(uint256 resolveTime, address oracleAddr, int256 threshold, string memory tag, string memory title) public returns (address) {\n    GameContract newGame = new GameContract(payable(address(this)), resolveTime, oracleAddr, threshold); \n    address newGameAddress = address(newGame);\n    gameContractRegistry[gameCount] = GameMetadata({\n      id: gameCount,\n      addr: newGameAddress,\n      tag: tag,\n      title: title,\n      oracleAddr: oracleAddr,\n      resolveTime: resolveTime,\n      threshold: threshold,\n      totalAmount: 0,\n      betYesAmount: 0,\n      betNoAmount: 0,\n      ongoing: true,\n      gameOutcome: 0\n    });\n\n    gameAddr2Id[newGameAddress] = gameCount;\n\n    ongoingGamesId2Idx[gameCount] = ongoingGamesCnt;\n    ongoingGames.push(gameContractRegistry[gameCount]);\n\n    ongoingGamesCnt = SafeMath.add(ongoingGamesCnt, 1);\n    gameCount = SafeMath.add(gameCount, 1);\n\n    emit GameCreated(gameContractRegistry[gameCount]);\n\n    return newGameAddress;\n  }\n\n  function getGameCount() public view returns (uint256) {\n    return gameCount-1; // [1, gameCount)\n  }\n\n  // Fetches all games with id from X to Y, (bounds inclusve)\n  // note: even if the game doesn't exist, a game object would still be returned with default values filled\n  function getXtoYGame(uint256 X, uint256 Y) public view returns (GameMetadata[] memory) {\n    require(X <= Y, \"X cannot be greater than Y\");\n\n    GameMetadata[] memory res = new GameMetadata[](Y-X+1);\n    for (uint256 j=X; j<=Y; j++) {\n      res[j-X] = gameContractRegistry[j];\n    }\n\n    return res;\n  }\n\n  // fetches all games\n  function getAllGames() public view returns (GameMetadata[] memory) {\n    GameMetadata[] memory res = new GameMetadata[](gameCount-1);\n    for (uint256 j=1; j<=gameCount; j++) {\n      res[j-1] = gameContractRegistry[j-1];\n    }\n\n    return res;\n  }\n\n  // fetches all ongoing games\n  function getAllOngoingGames() external view returns (GameMetadata[] memory) {\n    return ongoingGames;\n  }\n\n  modifier isExistingGame(bool mustBeGame) {\n    if (mustBeGame) {\n      require(\n        gameAddr2Id[msg.sender] != 0,\n        \"not a recognised game\"\n      );\n    }\n    _;\n  }\n\n  // creates a new listing\n  function newListing(address _player, address token1, uint256 token1Amt, address token2, uint256 token2Amt) public returns(Models.ListingInfo memory) {\n    uint256 newListingId = listingsCount;\n    ListingContract newListingContract = new ListingContract(newListingId, _player, token1, token1Amt, token2, token2Amt);\n    Models.ListingInfo memory listingInfo = Models.ListingInfo({\n      listingId: newListingId,\n      listingAddr: address(newListingContract),\n      player1: _player,\n      token1: token1,\n      token1Amt: token1Amt,\n      player2: address(0),\n      token2: token2,\n      token2Amt: token2Amt,\n      fulfilled: false\n    });\n    listingContracts.set(newListingId, listingInfo);\n\n    listingsCount++;\n    return listingInfo;\n  }\n\n  function getListingContractAddressById(uint listingId) external view returns(address) {\n    return listingContracts.get(listingId).listingAddr;\n  }\n\n  function getAllListings() external view returns (Models.ListingInfo[] memory) {\n    return listingContracts.getlistingValues();\n  }\n\n  // player joins an existing listing already posted by another player\n  // this player joining now is regarded as player2 under the listing contract\n  function partakeInListing(address _player, uint listingId) public {\n    require(listingContracts.contains(listingId), \"listing contract does not exist\");\n    address listingAddr = listingContracts.get(listingId).listingAddr;\n    ListingContract token2Contract = ListingContract(listingAddr);\n    token2Contract.trigger(_player);\n  }\n\n  // callable only by the game itself\n  // A player joined the game on a particular side\n  function playerJoinedSide(address player, uint8 betSide, uint256 amount, uint256 timestamp) external isExistingGame(true) {\n    address gameAddr = msg.sender;\n    uint256 gameId = gameAddr2Id[gameAddr];\n    GameMetadata memory gameMetadata = gameContractRegistry[gameId];\n    gameMetadata.totalAmount += amount;\n    if (betSide == 2) {\n      gameMetadata.betNoAmount += amount;\n    } else {\n      gameMetadata.betYesAmount += amount;\n    }\n\n    // record this activity as well\n    playersRecords[player].push(Activity({\n      trxId: trxId,\n      activityType: BetActivityType,\n      gameId: gameId,\n      trxAmt: amount,\n      trxTime: timestamp,\n      gameSide: betSide,\n      from: player,\n      to: gameAddr\n    }));\n\n    trxId = SafeMath.add(trxId, 1);\n\n    emit PlayerJoinedGameEvent(player, gameId, gameAddr, betSide, amount);\n  }\n\n  // callable only by contract\n  // note: withdraw winnings means recording player's owned game tokens -> hwang market tokens\n  function playerWithdrawWinnings(address _player, uint8 betSide, uint256 withdrawAmt, uint256 timestamp) external isExistingGame(true) {\n    address gameAddr = msg.sender;\n    uint256 gameId = gameAddr2Id[gameAddr];\n    playersRecords[_player].push(Activity({\n      trxId: trxId,\n      activityType: WithdrawActivityType,\n      gameId: gameId,\n      trxAmt: withdrawAmt,\n      trxTime: timestamp,\n      gameSide: betSide,\n      from: gameAddr,\n      to: _player\n    }));\n\n    trxId = SafeMath.add(trxId, 1);\n\n    emit PlayerWithdrawedWinnings(_player, gameId, gameAddr, betSide, withdrawAmt);\n  }\n\n  function concludeGame(uint8 gameOutcome) external isExistingGame(true) {\n    address gameAddr = msg.sender;\n    uint256 gameId = gameAddr2Id[gameAddr];\n\n    // move game out of existing ongoing games\n    uint256 existingGameIdx = ongoingGamesId2Idx[gameId];\n    GameMetadata memory finisedGame = ongoingGames[existingGameIdx];\n    GameMetadata memory lastOngoingGame = ongoingGames[SafeMath.sub(ongoingGamesCnt, 1)];\n    ongoingGamesId2Idx[lastOngoingGame.id] = existingGameIdx;\n    delete ongoingGamesId2Idx[gameId];\n    ongoingGames[existingGameIdx] = lastOngoingGame;\n    ongoingGamesCnt = SafeMath.sub(ongoingGamesCnt, 1);\n\n    // // update metadata for the game\n    finisedGame.ongoing = false;\n    finisedGame.gameOutcome = gameOutcome;\n\n    gameContractRegistry[finisedGame.id].ongoing = false;\n    gameContractRegistry[finisedGame.id].gameOutcome = gameOutcome;\n\n    // add this game to array of closedGames\n    closedGames.push(finisedGame);\n\n    emit GameConcluded(gameId, gameAddr, gameOutcome);\n  }\n\n  // callable only by the game itself\n  // A player gave his side to someone else\n  function playersSwapSide() external isExistingGame(true) {\n    // TODO: update the mappings to the latest game state\n    // address gameAddr = msg.sender;\n\n  }\n\n  // to get smart contract's balance\n  function getBalance() public view returns (uint256) {\n    return address(this).balance;\n  }\n\n  // @notice Will receive any eth sent to the contract\n  receive() external payable {\n  }\n}\n",
  "sourcePath": "/Users/gerald/Desktop/HwangMarket/contracts/HwangMarket.sol",
  "compiler": {
    "name": "solc",
    "version": "0.8.17+commit.8df45f5f.Emscripten.clang"
  },
  "schemaVersion": "3.4.10",
  "updatedAt": "2022-10-24T14:57:15.212Z",
  "devdoc": {
    "kind": "dev",
    "methods": {},
    "version": 1
  },
  "userdoc": {
    "kind": "user",
    "methods": {},
    "version": 1
  }
}