{
  "contractName": "HwangMarket",
  "abi": [
    {
      "inputs": [
        {
          "internalType": "address",
          "name": "mainTokenAddr",
          "type": "address"
        },
        {
          "internalType": "address",
          "name": "gameContractFactoryAddr",
          "type": "address"
        }
      ],
      "stateMutability": "nonpayable",
      "type": "constructor"
    },
    {
      "anonymous": false,
      "inputs": [
        {
          "indexed": false,
          "internalType": "uint256",
          "name": "gameId",
          "type": "uint256"
        },
        {
          "indexed": false,
          "internalType": "address",
          "name": "gameAddr",
          "type": "address"
        },
        {
          "indexed": false,
          "internalType": "uint8",
          "name": "gameOutcome",
          "type": "uint8"
        }
      ],
      "name": "GameConcluded",
      "type": "event"
    },
    {
      "anonymous": false,
      "inputs": [
        {
          "components": [
            {
              "internalType": "uint256",
              "name": "id",
              "type": "uint256"
            },
            {
              "internalType": "uint256",
              "name": "createdTime",
              "type": "uint256"
            },
            {
              "internalType": "address",
              "name": "addr",
              "type": "address"
            },
            {
              "internalType": "string",
              "name": "tag",
              "type": "string"
            },
            {
              "internalType": "string",
              "name": "title",
              "type": "string"
            },
            {
              "internalType": "address",
              "name": "oracleAddr",
              "type": "address"
            },
            {
              "internalType": "uint256",
              "name": "resolveTime",
              "type": "uint256"
            },
            {
              "internalType": "int256",
              "name": "threshold",
              "type": "int256"
            },
            {
              "internalType": "uint256",
              "name": "totalAmount",
              "type": "uint256"
            },
            {
              "internalType": "uint256",
              "name": "betYesAmount",
              "type": "uint256"
            },
            {
              "internalType": "uint256",
              "name": "betNoAmount",
              "type": "uint256"
            },
            {
              "internalType": "uint8",
              "name": "gameOutcome",
              "type": "uint8"
            }
          ],
          "indexed": false,
          "internalType": "struct Models.GameMetadata",
          "name": "gameMetadata",
          "type": "tuple"
        }
      ],
      "name": "GameCreated",
      "type": "event"
    },
    {
      "anonymous": false,
      "inputs": [
        {
          "components": [
            {
              "internalType": "uint256",
              "name": "listingId",
              "type": "uint256"
            },
            {
              "internalType": "uint256",
              "name": "createdTime",
              "type": "uint256"
            },
            {
              "internalType": "address",
              "name": "listingAddr",
              "type": "address"
            },
            {
              "internalType": "address",
              "name": "player1",
              "type": "address"
            },
            {
              "internalType": "address",
              "name": "token1",
              "type": "address"
            },
            {
              "internalType": "uint256",
              "name": "token1Amt",
              "type": "uint256"
            },
            {
              "internalType": "address",
              "name": "player2",
              "type": "address"
            },
            {
              "internalType": "address",
              "name": "token2",
              "type": "address"
            },
            {
              "internalType": "uint256",
              "name": "token2Amt",
              "type": "uint256"
            },
            {
              "internalType": "bool",
              "name": "fulfilled",
              "type": "bool"
            },
            {
              "internalType": "uint256",
              "name": "fulfilledTime",
              "type": "uint256"
            }
          ],
          "indexed": false,
          "internalType": "struct Models.ListingInfo",
          "name": "listingInfo",
          "type": "tuple"
        }
      ],
      "name": "ListingFulfilled",
      "type": "event"
    },
    {
      "anonymous": false,
      "inputs": [
        {
          "components": [
            {
              "internalType": "uint256",
              "name": "listingId",
              "type": "uint256"
            },
            {
              "internalType": "uint256",
              "name": "createdTime",
              "type": "uint256"
            },
            {
              "internalType": "address",
              "name": "listingAddr",
              "type": "address"
            },
            {
              "internalType": "address",
              "name": "player1",
              "type": "address"
            },
            {
              "internalType": "address",
              "name": "token1",
              "type": "address"
            },
            {
              "internalType": "uint256",
              "name": "token1Amt",
              "type": "uint256"
            },
            {
              "internalType": "address",
              "name": "player2",
              "type": "address"
            },
            {
              "internalType": "address",
              "name": "token2",
              "type": "address"
            },
            {
              "internalType": "uint256",
              "name": "token2Amt",
              "type": "uint256"
            },
            {
              "internalType": "bool",
              "name": "fulfilled",
              "type": "bool"
            },
            {
              "internalType": "uint256",
              "name": "fulfilledTime",
              "type": "uint256"
            }
          ],
          "indexed": false,
          "internalType": "struct Models.ListingInfo",
          "name": "listingInfo",
          "type": "tuple"
        }
      ],
      "name": "NewListing",
      "type": "event"
    },
    {
      "anonymous": false,
      "inputs": [
        {
          "indexed": false,
          "internalType": "address",
          "name": "player",
          "type": "address"
        },
        {
          "indexed": false,
          "internalType": "uint256",
          "name": "gameId",
          "type": "uint256"
        },
        {
          "indexed": false,
          "internalType": "address",
          "name": "gameAddr",
          "type": "address"
        },
        {
          "indexed": false,
          "internalType": "uint8",
          "name": "betSide",
          "type": "uint8"
        },
        {
          "indexed": false,
          "internalType": "uint256",
          "name": "amount",
          "type": "uint256"
        }
      ],
      "name": "PlayerJoinedGameEvent",
      "type": "event"
    },
    {
      "anonymous": false,
      "inputs": [
        {
          "indexed": false,
          "internalType": "address",
          "name": "player",
          "type": "address"
        },
        {
          "indexed": false,
          "internalType": "uint256",
          "name": "gameId",
          "type": "uint256"
        },
        {
          "indexed": false,
          "internalType": "address",
          "name": "gameAddr",
          "type": "address"
        },
        {
          "indexed": false,
          "internalType": "uint8",
          "name": "betSide",
          "type": "uint8"
        },
        {
          "indexed": false,
          "internalType": "uint256",
          "name": "withdrawedAmt",
          "type": "uint256"
        }
      ],
      "name": "PlayerWithdrawedWinnings",
      "type": "event"
    },
    {
      "inputs": [
        {
          "internalType": "uint256",
          "name": "",
          "type": "uint256"
        }
      ],
      "name": "closedGames",
      "outputs": [
        {
          "internalType": "address",
          "name": "",
          "type": "address"
        }
      ],
      "stateMutability": "view",
      "type": "function",
      "constant": true
    },
    {
      "inputs": [
        {
          "internalType": "address",
          "name": "",
          "type": "address"
        }
      ],
      "name": "gameAddr2Id",
      "outputs": [
        {
          "internalType": "uint256",
          "name": "",
          "type": "uint256"
        }
      ],
      "stateMutability": "view",
      "type": "function",
      "constant": true
    },
    {
      "inputs": [
        {
          "internalType": "uint256",
          "name": "",
          "type": "uint256"
        }
      ],
      "name": "gameId2Addr",
      "outputs": [
        {
          "internalType": "address",
          "name": "",
          "type": "address"
        }
      ],
      "stateMutability": "view",
      "type": "function",
      "constant": true
    },
    {
      "inputs": [],
      "name": "mainTokenAddress",
      "outputs": [
        {
          "internalType": "address",
          "name": "",
          "type": "address"
        }
      ],
      "stateMutability": "view",
      "type": "function",
      "constant": true
    },
    {
      "inputs": [
        {
          "internalType": "uint256",
          "name": "",
          "type": "uint256"
        }
      ],
      "name": "ongoingGames",
      "outputs": [
        {
          "internalType": "address",
          "name": "",
          "type": "address"
        }
      ],
      "stateMutability": "view",
      "type": "function",
      "constant": true
    },
    {
      "inputs": [
        {
          "internalType": "address",
          "name": "",
          "type": "address"
        },
        {
          "internalType": "uint256",
          "name": "",
          "type": "uint256"
        }
      ],
      "name": "playersRecords",
      "outputs": [
        {
          "internalType": "uint256",
          "name": "trxId",
          "type": "uint256"
        },
        {
          "internalType": "string",
          "name": "activityType",
          "type": "string"
        },
        {
          "internalType": "uint256",
          "name": "gameId",
          "type": "uint256"
        },
        {
          "internalType": "uint256",
          "name": "trxAmt",
          "type": "uint256"
        },
        {
          "internalType": "uint256",
          "name": "trxTime",
          "type": "uint256"
        },
        {
          "internalType": "uint8",
          "name": "gameSide",
          "type": "uint8"
        },
        {
          "internalType": "address",
          "name": "from",
          "type": "address"
        },
        {
          "internalType": "address",
          "name": "to",
          "type": "address"
        }
      ],
      "stateMutability": "view",
      "type": "function",
      "constant": true
    },
    {
      "inputs": [
        {
          "internalType": "uint256",
          "name": "resolveTime",
          "type": "uint256"
        },
        {
          "internalType": "address",
          "name": "oracleAddr",
          "type": "address"
        },
        {
          "internalType": "int256",
          "name": "threshold",
          "type": "int256"
        },
        {
          "internalType": "string",
          "name": "tag",
          "type": "string"
        },
        {
          "internalType": "string",
          "name": "title",
          "type": "string"
        }
      ],
      "name": "createGame",
      "outputs": [],
      "stateMutability": "nonpayable",
      "type": "function"
    },
    {
      "inputs": [],
      "name": "getAllGames",
      "outputs": [
        {
          "components": [
            {
              "internalType": "address[]",
              "name": "ongoingGames",
              "type": "address[]"
            },
            {
              "internalType": "address[]",
              "name": "closedGames",
              "type": "address[]"
            }
          ],
          "internalType": "struct Models.AllGames",
          "name": "",
          "type": "tuple"
        }
      ],
      "stateMutability": "view",
      "type": "function",
      "constant": true
    },
    {
      "inputs": [
        {
          "internalType": "address",
          "name": "player",
          "type": "address"
        },
        {
          "internalType": "uint8",
          "name": "betSide",
          "type": "uint8"
        },
        {
          "internalType": "uint256",
          "name": "amount",
          "type": "uint256"
        },
        {
          "internalType": "uint256",
          "name": "timestamp",
          "type": "uint256"
        }
      ],
      "name": "playerJoinedSide",
      "outputs": [],
      "stateMutability": "nonpayable",
      "type": "function"
    },
    {
      "inputs": [
        {
          "internalType": "address",
          "name": "_player",
          "type": "address"
        },
        {
          "internalType": "uint8",
          "name": "betSide",
          "type": "uint8"
        },
        {
          "internalType": "uint256",
          "name": "withdrawAmt",
          "type": "uint256"
        },
        {
          "internalType": "uint256",
          "name": "timestamp",
          "type": "uint256"
        }
      ],
      "name": "playerWithdrawWinnings",
      "outputs": [],
      "stateMutability": "nonpayable",
      "type": "function"
    },
    {
      "inputs": [
        {
          "internalType": "uint8",
          "name": "gameOutcome",
          "type": "uint8"
        }
      ],
      "name": "concludeGame",
      "outputs": [],
      "stateMutability": "nonpayable",
      "type": "function"
    },
    {
      "inputs": [
        {
          "internalType": "address",
          "name": "player",
          "type": "address"
        }
      ],
      "name": "getPlayersTrxRecords",
      "outputs": [
        {
          "components": [
            {
              "internalType": "uint256",
              "name": "trxId",
              "type": "uint256"
            },
            {
              "internalType": "string",
              "name": "activityType",
              "type": "string"
            },
            {
              "internalType": "uint256",
              "name": "gameId",
              "type": "uint256"
            },
            {
              "internalType": "uint256",
              "name": "trxAmt",
              "type": "uint256"
            },
            {
              "internalType": "uint256",
              "name": "trxTime",
              "type": "uint256"
            },
            {
              "internalType": "uint8",
              "name": "gameSide",
              "type": "uint8"
            },
            {
              "internalType": "address",
              "name": "from",
              "type": "address"
            },
            {
              "internalType": "address",
              "name": "to",
              "type": "address"
            }
          ],
          "internalType": "struct Models.Activity[]",
          "name": "",
          "type": "tuple[]"
        }
      ],
      "stateMutability": "view",
      "type": "function",
      "constant": true
    },
    {
      "inputs": [],
      "name": "checkAllOngoingGamesUpkeep",
      "outputs": [],
      "stateMutability": "nonpayable",
      "type": "function"
    }
  ],
  "bytecode": "0x60806040523480156200001157600080fd5b506040516200197438038062001974833981016040819052620000349162000087565b6001600381905560008054600160a060020a0319908116600160a060020a039586161790915581541691909216179055620000bf565b8051600160a060020a03811681146200008257600080fd5b919050565b600080604083850312156200009b57600080fd5b620000a6836200006a565b9150620000b6602084016200006a565b90509250929050565b6118a580620000cf6000396000f3fe608060405234801561001057600080fd5b50600436106100fc576000357c010000000000000000000000000000000000000000000000000000000090048063829a32ef116100a9578063d3eb618c11610083578063d3eb618c146101e8578063db1c45f91461020f578063e362937d14610224578063f0bfbfca1461023757600080fd5b8063829a32ef1461019f578063aa8f7760146101cd578063ce1f335c146101d557600080fd5b80635039eb97116100da5780635039eb97146101665780636435e81714610179578063797694881461018c57600080fd5b806304ad465f146101015780632980a3cb146101315780633751b87714610146575b600080fd5b61011461010f366004610ee0565b610260565b604051600160a060020a0390911681526020015b60405180910390f35b61014461013f366004611016565b61028a565b005b6101596101543660046110a0565b6104a7565b6040516101289190611114565b6101446101743660046111f4565b61060d565b610114610187366004610ee0565b610822565b61014461019a3660046111f4565b610832565b6101bf6101ad3660046110a0565b60056020526000908152604090205481565b604051908152602001610128565b610144610a11565b60005461011490600160a060020a031681565b6101fb6101f636600461123a565b610ac0565b604051610128989796959493929190611266565b610217610bbf565b6040516101289190611306565b610144610232366004611348565b610c9a565b610114610245366004610ee0565b600460205260009081526040902054600160a060020a031681565b6009818154811061027057600080fd5b600091825260209091200154600160a060020a0316905081565b6001546003546040517fe2ded77c000000000000000000000000000000000000000000000000000000008152600092600160a060020a03169163e2ded77c916102e29130918b918b918b918b918b9190600401611365565b6020604051808303816000875af1158015610301573d6000803e3d6000fd5b505050506040513d601f19601f8201168201806040525081019061032591906113d4565b6003805460009081526004602090815260408083208054600160a060020a03871673ffffffffffffffffffffffffffffffffffffffff199182168117909255945481855260058452828520819055600680549186526008909452918420919091556007805460018181018355919094527fa66cc928b5edb82af9bd49922954155ab7b0942694bea4ce44661d9a8736c68890930180549094161790925590549192506103d19190610ebf565b6006819055507fde3685ad4faa68a5594495852ca796fc2e5c3d8c1b045674ceeceeac0f4f69bf81600160a060020a0316631746bd1b6040518163ffffffff167c0100000000000000000000000000000000000000000000000000000000028152600401600060405180830381865afa158015610452573d6000803e3d6000fd5b505050506040513d6000823e601f3d908101601f1916820160405261047a9190810190611449565b604051610487919061155c565b60405180910390a161049c6003546001610ebf565b600355505050505050565b600160a060020a0381166000908152600a60209081526040808320805482518185028101850190935280835260609492939192909184015b828210156106025783829060005260206000209060070201604051806101000160405290816000820154815260200160018201805461051d9061163b565b80601f01602080910402602001604051908101604052809291908181526020018280546105499061163b565b80156105965780601f1061056b57610100808354040283529160200191610596565b820191906000526020600020905b81548152906001019060200180831161057957829003601f168201915b505050918352505060028201546020808301919091526003830154604083015260048301546060830152600583015460ff81166080840152600160a060020a03610100909104811660a084015260069093015490921660c09091015290825260019290920191016104df565b505050509050919050565b33600090815260056020526040902054158015906106495750336000908152600560209081526040808320548352600890915290205460001914155b61065257600080fd5b33600081815260056020908152604080832054600160a060020a038916808552600a8452828520835161010081018552600254815284518086018652600381527f424554000000000000000000000000000000000000000000000000000000000081880152818701908152948101849052606081018a90526080810189905260ff8b1660a082015260c081019290925260e082018790528054600181810183559187529490952081516007909502019384559151909391929182019061071890826116dd565b506040820151600282810191909155606083015160038301556080830151600483015560a083015160058301805460c086015160ff90931674ffffffffffffffffffffffffffffffffffffffffff1990911617610100600160a060020a039384160217905560e0909301516006909201805473ffffffffffffffffffffffffffffffffffffffff19169290931691909117909155546107b8906001610ebf565b60025560408051600160a060020a0380891682526020820184905284169181019190915260ff86166060820152608081018590527f60f0179549292c7191bafdb03407a3080ad6bbb9354055fb0dba51a90dcead179060a0015b60405180910390a1505050505050565b6007818154811061027057600080fd5b33600090815260056020526040812054900361084d57600080fd5b33600081815260056020908152604080832054600160a060020a038916808552600a8452828520835161010081018552600254815284518086018652600881527f574954484452415700000000000000000000000000000000000000000000000081880152818701908152948101849052606081018a90526080810189905260ff8b1660a082015260c0810188905260e08101929092528054600181810183559187529490952081516007909502019384559151909391929182019061091390826116dd565b506040820151600282810191909155606083015160038301556080830151600483015560a083015160058301805460c086015160ff90931674ffffffffffffffffffffffffffffffffffffffffff1990911617610100600160a060020a039384160217905560e0909301516006909201805473ffffffffffffffffffffffffffffffffffffffff19169290931691909117909155546109b3906001610ebf565b60025560408051600160a060020a0380891682526020820184905284169181019190915260ff86166060820152608081018590527f763849cb5b59f290f2394239aed08a4f73bef1c65b4debb49ed6324897c23a979060a001610812565b60005b600654811015610abd5760078181548110610a3157610a316117a3565b6000918252602082200154604080517f6e4d243a0000000000000000000000000000000000000000000000000000000081529051600160a060020a0390921692636e4d243a9260048084019382900301818387803b158015610a9257600080fd5b505af1158015610aa6573d6000803e3d6000fd5b505050508080610ab590611801565b915050610a14565b50565b600a6020528160005260406000208181548110610adc57600080fd5b906000526020600020906007020160009150915050806000015490806001018054610b069061163b565b80601f0160208091040260200160405190810160405280929190818152602001828054610b329061163b565b8015610b7f5780601f10610b5457610100808354040283529160200191610b7f565b820191906000526020600020905b815481529060010190602001808311610b6257829003601f168201915b505050600284015460038501546004860154600587015460069097015495969295919450925060ff821691600160a060020a036101009091048116911688565b6040805180820190915260608082526020820152604080516007805460606020820284018101855293830181815292938493929190840182828015610c2d57602002820191906000526020600020905b8154600160a060020a03168152600190910190602001808311610c0f575b505050505081526020016009805480602002602001604051908101604052809291908181526020018280548015610c8d57602002820191906000526020600020905b8154600160a060020a03168152600190910190602001808311610c6f575b5050505050815250905090565b336000908152600560205260408120549003610cb557600080fd5b336000818152600560209081526040808320548084526008909252909120548019610ce05750505050565b6000819050600060078281548110610cfa57610cfa6117a3565b6000918252602082200154600654600160a060020a039091169250600790610d23906001610ed4565b81548110610d3357610d336117a3565b6000918252602080832090910154600160a060020a031680835260058252604080842054845260089092528183208690558783529120600019905560078054919250829185908110610d8757610d876117a3565b9060005260206000200160006101000a815481600160a060020a030219169083600160a060020a03160217905550610dc26006546001610ed4565b600655600980546001810182556000919091527f6e1540171b6c0c960b71a7020d9f60077f6af931a8bbf590da0223dacf75c7af01805473ffffffffffffffffffffffffffffffffffffffff1916600160a060020a0384161790556007805480610e2e57610e2e61181a565b6000828152602090208101600019908101805473ffffffffffffffffffffffffffffffffffffffff191690550190556040517f6997c325fd49bb5c188e78d03aee9a56052bffb3dcecb7d89cad3946cfc9b19090610eae90879089908b90928352600160a060020a0391909116602083015260ff16604082015260600190565b60405180910390a150505050505050565b6000610ecb8284611849565b90505b92915050565b6000610ecb828461185c565b600060208284031215610ef257600080fd5b5035919050565b600160a060020a0381168114610abd57600080fd5b7f4e487b7100000000000000000000000000000000000000000000000000000000600052604160045260246000fd5b604051610180810167ffffffffffffffff81118282101715610f6157610f61610f0e565b60405290565b604051601f8201601f1916810167ffffffffffffffff81118282101715610f9057610f90610f0e565b604052919050565b600067ffffffffffffffff821115610fb257610fb2610f0e565b50601f01601f191660200190565b600082601f830112610fd157600080fd5b8135610fe4610fdf82610f98565b610f67565b818152846020838601011115610ff957600080fd5b816020850160208301376000918101602001919091529392505050565b600080600080600060a0868803121561102e57600080fd5b85359450602086013561104081610ef9565b935060408601359250606086013567ffffffffffffffff8082111561106457600080fd5b61107089838a01610fc0565b9350608088013591508082111561108657600080fd5b5061109388828901610fc0565b9150509295509295909350565b6000602082840312156110b257600080fd5b81356110bd81610ef9565b9392505050565b60005b838110156110df5781810151838201526020016110c7565b50506000910152565b600081518084526111008160208601602086016110c4565b601f01601f19169290920160200192915050565b60208082528251828201819052600091906040908185019080840286018301878501865b838110156111d757603f1989840301855281516101008151855288820151818a870152611167828701826110e8565b838a0151878b0152606080850151908801526080808501519088015260a08085015160ff169088015260c080850151600160a060020a03169088015260e0938401519390925090506111c381870184600160a060020a03169052565b509588019593505090860190600101611138565b509098975050505050505050565b60ff81168114610abd57600080fd5b6000806000806080858703121561120a57600080fd5b843561121581610ef9565b93506020850135611225816111e5565b93969395505050506040820135916060013590565b6000806040838503121561124d57600080fd5b823561125881610ef9565b946020939093013593505050565b60006101008a83528060208401526112808184018b6110e8565b604084019990995250506060810195909552608085019390935260ff9190911660a0840152600160a060020a0390811660c08401521660e09091015292915050565b600081518084526020808501945080840160005b838110156112fb578151600160a060020a0316875295820195908201906001016112d6565b509495945050505050565b60208152600082516040602084015261132260608401826112c2565b90506020840151601f1984830301604085015261133f82826112c2565b95945050505050565b60006020828403121561135a57600080fd5b81356110bd816111e5565b6000600160a060020a03808a16835288602084015280881660408401525085606083015260e0608083015261139d60e08301866110e8565b82810360a08401526113af81866110e8565b9150508260c083015298975050505050505050565b80516113cf81610ef9565b919050565b6000602082840312156113e657600080fd5b81516110bd81610ef9565b600082601f83011261140257600080fd5b8151611410610fdf82610f98565b81815284602083860101111561142557600080fd5b6114368260208301602087016110c4565b949350505050565b80516113cf816111e5565b60006020828403121561145b57600080fd5b815167ffffffffffffffff8082111561147357600080fd5b90830190610180828603121561148857600080fd5b611490610f3d565b82518152602083015160208201526114aa604084016113c4565b60408201526060830151828111156114c157600080fd5b6114cd878286016113f1565b6060830152506080830151828111156114e557600080fd5b6114f1878286016113f1565b60808301525061150360a084016113c4565b60a082015260c0838101519082015260e08084015190820152610100808401519082015261012080840151908201526101408084015190820152610160915061154d82840161143e565b91810191909152949350505050565b6020815281516020820152602082015160408201526000604083015161158d6060840182600160a060020a03169052565b5060608301516101808060808501526115aa6101a08501836110e8565b91506080850151601f198584030160a08601526115c783826110e8565b92505060a08501516115e460c0860182600160a060020a03169052565b5060c085015160e085810191909152850151610100808601919091528501516101208086019190915285015161014080860191909152850151610160808601919091529094015160ff169390920192909252919050565b60028104600182168061164f57607f821691505b602082108103611688577f4e487b7100000000000000000000000000000000000000000000000000000000600052602260045260246000fd5b50919050565b601f8211156116d8576000818152602081206020601f860104810160208610156116b55750805b6020601f860104820191505b818110156116d4578281556001016116c1565b5050505b505050565b815167ffffffffffffffff8111156116f7576116f7610f0e565b61170b81611705845461163b565b8461168e565b602080601f83116001811461174457600084156117285750858301515b60028086026008870290910a60001904198216178655506116d4565b600085815260208120601f198616915b8281101561177357888601518255948401946001909101908401611754565b508582101561179357878501516008601f88160260020a60001904191681555b5050505050600202600101905550565b7f4e487b7100000000000000000000000000000000000000000000000000000000600052603260045260246000fd5b7f4e487b7100000000000000000000000000000000000000000000000000000000600052601160045260246000fd5b600060018201611813576118136117d2565b5060010190565b7f4e487b7100000000000000000000000000000000000000000000000000000000600052603160045260246000fd5b80820180821115610ece57610ece6117d2565b81810381811115610ece57610ece6117d256fea2646970667358221220d6ceab524a9354b888ebe1b6baa2f723cd7338cfa4378072a5b7c0e4a13d16bd64736f6c63430008110033",
  "immutableReferences": {},
  "source": "// SPDX-License-Identifier: MIT\npragma solidity >=0.4.22 <0.9.0;\n\nimport \"./MainToken.sol\";\nimport \"./GameContract.sol\";\nimport \"./GameContractFactory.sol\";\nimport \"./GameERC20TokenFactory.sol\";\nimport \"./Models.sol\";\nimport \"@openzeppelin/contracts/utils/math/SafeMath.sol\";\nimport \"@openzeppelin/contracts/token/ERC20/IERC20.sol\";\n\ncontract HwangMarket {\n  using SafeMath for uint256;\n  address public mainTokenAddress;\n\n  // factory contracts are used to reduce contract build size :(\n  GameContractFactory gameFactory;\n\n  // for all activity\n  uint256 private trxId;\n\n  // for all games created\n  uint256 private gameCount;\n  mapping(uint256 => address) public gameId2Addr;\n  mapping(address => uint256) public gameAddr2Id;\n  \n  // for all ongoing games\n  uint256 private ongoingGamesCnt; // record end of ongoing games array\n  address[] public ongoingGames;\n  mapping(uint256 => int256) ongoingGamesId2Idx;\n\n  // for all closed games\n  address[] public closedGames;\n\n  // Activity types constant\n  string constant BetActivityType = \"BET\";\n  string constant WithdrawActivityType = \"WITHDRAW\";\n\n  mapping(address => Models.Activity[]) public playersRecords;\n\n  constructor(address mainTokenAddr, address gameContractFactoryAddr) {\n    // we start counting from game 1, game id 0 is nonsense since its also default value\n    gameCount = 1;\n    mainTokenAddress = mainTokenAddr;\n    gameFactory = GameContractFactory(gameContractFactoryAddr);\n  }\n\n  event GameCreated(Models.GameMetadata gameMetadata);\n  event PlayerJoinedGameEvent(address player, uint256 gameId, address gameAddr, uint8 betSide, uint256 amount);\n  event PlayerWithdrawedWinnings(address player, uint256 gameId, address gameAddr, uint8 betSide, uint256 withdrawedAmt);\n  event GameConcluded(uint256 gameId, address gameAddr, uint8 gameOutcome);\n  event NewListing(Models.ListingInfo listingInfo);\n  event ListingFulfilled(Models.ListingInfo listingInfo);\n\n  // create game contract instance\n  function createGame(uint256 resolveTime, address oracleAddr, int256 threshold, string memory tag, string memory title) external {\n    address newGameAddress = gameFactory.createGame(address(this), resolveTime, oracleAddr, threshold, tag, title, gameCount);\n    \n    gameId2Addr[gameCount] = newGameAddress;\n    gameAddr2Id[newGameAddress] = gameCount;\n\n    ongoingGamesId2Idx[gameCount] = int256(ongoingGamesCnt);\n    ongoingGames.push(newGameAddress);\n\n    ongoingGamesCnt = SafeMath.add(ongoingGamesCnt, 1);\n\n    emit GameCreated(GameContract(newGameAddress).getGameInfo());\n\n    gameCount = SafeMath.add(gameCount, 1);\n  }\n  \n  // fetches all games\n  function getAllGames() public view returns (Models.AllGames memory) {\n    return Models.AllGames({ongoingGames: ongoingGames, closedGames: closedGames});\n  }\n\n  // callable only by the game itself\n  // A player joined the game on a particular side\n  function playerJoinedSide(address player, uint8 betSide, uint256 amount, uint256 timestamp) external {\n    require(gameAddr2Id[msg.sender] != 0 && ongoingGamesId2Idx[gameAddr2Id[msg.sender]] != -1);\n    address gameAddr = msg.sender;\n    uint256 gameId = gameAddr2Id[gameAddr];\n\n    // record this activity as well\n    playersRecords[player].push(Models.Activity({\n      trxId: trxId,\n      activityType: BetActivityType,\n      gameId: gameId,\n      trxAmt: amount,\n      trxTime: timestamp,\n      gameSide: betSide,\n      from: player,\n      to: gameAddr\n    }));\n\n    trxId = SafeMath.add(trxId, 1);\n\n    emit PlayerJoinedGameEvent(player, gameId, gameAddr, betSide, amount);\n  }\n\n  // callable only by contract\n  // note: withdraw winnings means recording player's owned game tokens -> hwang market tokens\n  function playerWithdrawWinnings(address _player, uint8 betSide, uint256 withdrawAmt, uint256 timestamp) external {\n    require(gameAddr2Id[msg.sender] != 0);\n    address gameAddr = msg.sender;\n    uint256 gameId = gameAddr2Id[gameAddr];\n    playersRecords[_player].push(Models.Activity({\n      trxId: trxId,\n      activityType: WithdrawActivityType,\n      gameId: gameId,\n      trxAmt: withdrawAmt,\n      trxTime: timestamp,\n      gameSide: betSide,\n      from: gameAddr,\n      to: _player\n    }));\n\n    trxId = SafeMath.add(trxId, 1);\n\n    emit PlayerWithdrawedWinnings(_player, gameId, gameAddr, betSide, withdrawAmt);\n  }\n\n  function concludeGame(uint8 gameOutcome) external {\n    require(gameAddr2Id[msg.sender] != 0);\n    address gameAddr = msg.sender;\n    uint256 gameId = gameAddr2Id[gameAddr];\n\n    // move game out of existing ongoing games\n    int256 temp = ongoingGamesId2Idx[gameId];\n    if (temp == -1) { // already concluded\n      return;\n    }\n    uint256 existingGameIdx = uint256(temp);\n    address finishedGameAddress = ongoingGames[existingGameIdx];\n    address lastOngoingGameAddress = ongoingGames[SafeMath.sub(ongoingGamesCnt, 1)];\n    ongoingGamesId2Idx[gameAddr2Id[lastOngoingGameAddress]] = int256(existingGameIdx);\n    ongoingGamesId2Idx[gameId] = -1;\n    ongoingGames[existingGameIdx] = lastOngoingGameAddress;\n    ongoingGamesCnt = SafeMath.sub(ongoingGamesCnt, 1);\n\n    // add this game to array of closedGames\n    closedGames.push(finishedGameAddress);\n    ongoingGames.pop();\n\n    emit GameConcluded(gameId, gameAddr, gameOutcome);\n  }\n\n  function getPlayersTrxRecords(address player) public view returns (Models.Activity[] memory) {\n    return playersRecords[player];\n  }\n\n  function checkAllOngoingGamesUpkeep() external {\n    for (uint256 i=0; i<ongoingGamesCnt; i++) {\n      GameContract(ongoingGames[i]).performUpkeep();\n    }\n  }\n}\n",
  "sourcePath": "/Users/gerald/Desktop/HwangMarket/contracts/HwangMarket.sol",
  "compiler": {
    "name": "solc",
    "version": "0.8.17+commit.8df45f5f.Emscripten.clang"
  },
  "schemaVersion": "3.4.10",
  "updatedAt": "2022-11-05T11:13:32.741Z",
  "networkType": "ethereum",
  "devdoc": {
    "kind": "dev",
    "methods": {},
    "version": 1
  },
  "userdoc": {
    "kind": "user",
    "methods": {},
    "version": 1
  }
}