{
  "contractName": "HwangMarket",
  "abi": [
    {
      "inputs": [],
      "stateMutability": "nonpayable",
      "type": "constructor"
    },
    {
      "inputs": [
        {
          "internalType": "uint256",
          "name": "",
          "type": "uint256"
        }
      ],
      "name": "gameContractRegistry",
      "outputs": [
        {
          "internalType": "address",
          "name": "",
          "type": "address"
        }
      ],
      "stateMutability": "view",
      "type": "function",
      "constant": true
    },
    {
      "stateMutability": "payable",
      "type": "receive",
      "payable": true
    },
    {
      "inputs": [],
      "name": "createGame",
      "outputs": [
        {
          "internalType": "address",
          "name": "",
          "type": "address"
        }
      ],
      "stateMutability": "nonpayable",
      "type": "function"
    }
  ],
  "bytecode": "0x608060405234801561001057600080fd5b5061167b806100206000396000f3fe60806040526004361061002d5760003560e01c80633f863f19146100395780637255d7291461007657610034565b3661003457005b600080fd5b34801561004557600080fd5b50610060600480360381019061005b919061021a565b6100a1565b60405161006d9190610288565b60405180910390f35b34801561008257600080fd5b5061008b6100d4565b6040516100989190610288565b60405180910390f35b60016020528060005260406000206000915054906101000a900473ffffffffffffffffffffffffffffffffffffffff1681565b600080336064426100e591906102d2565b6040516100f1906101d2565b6100fc929190610315565b604051809103906000f080158015610118573d6000803e3d6000fd5b50905080600160008054815260200190815260200160002060006101000a81548173ffffffffffffffffffffffffffffffffffffffff021916908373ffffffffffffffffffffffffffffffffffffffff16021790555061017b60005460016101bc565b600081905550600160008054815260200190815260200160002060009054906101000a900473ffffffffffffffffffffffffffffffffffffffff1691505090565b600081836101ca91906102d2565b905092915050565b6113078061033f83390190565b600080fd5b6000819050919050565b6101f7816101e4565b811461020257600080fd5b50565b600081359050610214816101ee565b92915050565b6000602082840312156102305761022f6101df565b5b600061023e84828501610205565b91505092915050565b600073ffffffffffffffffffffffffffffffffffffffff82169050919050565b600061027282610247565b9050919050565b61028281610267565b82525050565b600060208201905061029d6000830184610279565b92915050565b7f4e487b7100000000000000000000000000000000000000000000000000000000600052601160045260246000fd5b60006102dd826101e4565b91506102e8836101e4565b9250828201905080821115610300576102ff6102a3565b5b92915050565b61030f816101e4565b82525050565b600060408201905061032a6000830185610279565b6103376020830184610306565b939250505056fe60806040523480156200001157600080fd5b506040516200130738038062001307833981810160405281019062000037919062000174565b816000806101000a81548173ffffffffffffffffffffffffffffffffffffffff021916908373ffffffffffffffffffffffffffffffffffffffff16021790555060008060146101000a81548160ff021916908360018111156200009f576200009e620001bb565b5b0217905550806001819055506002600060156101000a81548160ff021916908360ff1602179055505050620001ea565b600080fd5b600073ffffffffffffffffffffffffffffffffffffffff82169050919050565b60006200010182620000d4565b9050919050565b6200011381620000f4565b81146200011f57600080fd5b50565b600081519050620001338162000108565b92915050565b6000819050919050565b6200014e8162000139565b81146200015a57600080fd5b50565b6000815190506200016e8162000143565b92915050565b600080604083850312156200018e576200018d620000cf565b5b60006200019e8582860162000122565b9250506020620001b1858286016200015d565b9150509250929050565b7f4e487b7100000000000000000000000000000000000000000000000000000000600052602160045260246000fd5b61110d80620001fa6000396000f3fe6080604052600436106100955760003560e01c80637256eba4116100595780637256eba41461017957806378c4e9a9146101955780639260b33f146101be578063d84c1ac9146101e7578063f92a9e09146101fe5761009c565b806302d05d3f146100a1578063053a2cfb146100cc57806312065fe0146100f75780631746bd1b14610122578063200d2ed21461014e5761009c565b3661009c57005b600080fd5b3480156100ad57600080fd5b506100b6610229565b6040516100c39190610b10565b60405180910390f35b3480156100d857600080fd5b506100e161024d565b6040516100ee9190610b47565b60405180910390f35b34801561010357600080fd5b5061010c610260565b6040516101199190610b7b565b60405180910390f35b34801561012e57600080fd5b50610137610268565b604051610145929190610c0d565b60405180910390f35b34801561015a57600080fd5b506101636102a4565b6040516101709190610c36565b60405180910390f35b610193600480360381019061018e9190610cda565b6102b7565b005b3480156101a157600080fd5b506101bc60048036038101906101b79190610d2d565b6105c7565b005b3480156101ca57600080fd5b506101e560048036038101906101e09190610d98565b61074a565b005b3480156101f357600080fd5b506101fc610971565b005b34801561020a57600080fd5b50610213610ac9565b6040516102209190610b7b565b60405180910390f35b60008054906101000a900473ffffffffffffffffffffffffffffffffffffffff1681565b600060159054906101000a900460ff1681565b600047905090565b60008060008054906101000a900473ffffffffffffffffffffffffffffffffffffffff16600060149054906101000a900460ff16915091509091565b600060149054906101000a900460ff1681565b60008015610352573373ffffffffffffffffffffffffffffffffffffffff1660008054906101000a900473ffffffffffffffffffffffffffffffffffffffff1673ffffffffffffffffffffffffffffffffffffffff161461034d576040517f08c379a000000000000000000000000000000000000000000000000000000000815260040161034490610e48565b60405180910390fd5b6103e1565b3373ffffffffffffffffffffffffffffffffffffffff1660008054906101000a900473ffffffffffffffffffffffffffffffffffffffff1673ffffffffffffffffffffffffffffffffffffffff16036103e0576040517f08c379a00000000000000000000000000000000000000000000000000000000081526004016103d790610eda565b60405180910390fd5b5b8373ffffffffffffffffffffffffffffffffffffffff163134111561043b576040517f08c379a000000000000000000000000000000000000000000000000000000000815260040161043290610f46565b60405180910390fd5b3373ffffffffffffffffffffffffffffffffffffffff168473ffffffffffffffffffffffffffffffffffffffff16146104a9576040517f08c379a00000000000000000000000000000000000000000000000000000000081526004016104a090610fb2565b60405180910390fd5b8234146104b557600080fd5b600060018111156104c9576104c8610b96565b5b600060149054906101000a900460ff1660018111156104eb576104ea610b96565b5b146104f557600080fd5b34600360003373ffffffffffffffffffffffffffffffffffffffff1673ffffffffffffffffffffffffffffffffffffffff1681526020019081526020016000208190555081600260003373ffffffffffffffffffffffffffffffffffffffff1673ffffffffffffffffffffffffffffffffffffffff16815260200190815260200160002060006101000a81548160ff021916908360ff16021790555082600560008460ff1660ff16815260200190815260200160002060008282546105ba9190611001565b9250508190555050505050565b60018015610662573373ffffffffffffffffffffffffffffffffffffffff1660008054906101000a900473ffffffffffffffffffffffffffffffffffffffff1673ffffffffffffffffffffffffffffffffffffffff161461065d576040517f08c379a000000000000000000000000000000000000000000000000000000000815260040161065490610e48565b60405180910390fd5b6106f1565b3373ffffffffffffffffffffffffffffffffffffffff1660008054906101000a900473ffffffffffffffffffffffffffffffffffffffff1673ffffffffffffffffffffffffffffffffffffffff16036106f0576040517f08c379a00000000000000000000000000000000000000000000000000000000081526004016106e790610eda565b60405180910390fd5b5b60015442101561070057600080fd5b6001600060146101000a81548160ff0219169083600181111561072657610725610b96565b5b021790555081600060156101000a81548160ff021916908360ff1602179055505050565b8073ffffffffffffffffffffffffffffffffffffffff163373ffffffffffffffffffffffffffffffffffffffff161461078257600080fd5b6000600360003373ffffffffffffffffffffffffffffffffffffffff1673ffffffffffffffffffffffffffffffffffffffff16815260200190815260200160002054116107ce57600080fd5b6001808111156107e1576107e0610b96565b5b600060149054906101000a900460ff16600181111561080357610802610b96565b5b1461080d57600080fd5b600260008273ffffffffffffffffffffffffffffffffffffffff1673ffffffffffffffffffffffffffffffffffffffff16815260200190815260200160002060009054906101000a900460ff1660ff16600060159054906101000a900460ff1660ff161461087a57600080fd5b6000600560006001600060159054906101000a900460ff161860ff1660ff16815260200190815260200160002054600560008060159054906101000a900460ff1660ff1660ff16815260200190815260200160002054600360008573ffffffffffffffffffffffffffffffffffffffff1673ffffffffffffffffffffffffffffffffffffffff1681526020019081526020016000205461091a9190611064565b6109249190611095565b90508173ffffffffffffffffffffffffffffffffffffffff166108fc829081150290604051600060405180830381858888f1935050505015801561096c573d6000803e3d6000fd5b505050565b60018015610a0c573373ffffffffffffffffffffffffffffffffffffffff1660008054906101000a900473ffffffffffffffffffffffffffffffffffffffff1673ffffffffffffffffffffffffffffffffffffffff1614610a07576040517f08c379a00000000000000000000000000000000000000000000000000000000081526004016109fe90610e48565b60405180910390fd5b610a9b565b3373ffffffffffffffffffffffffffffffffffffffff1660008054906101000a900473ffffffffffffffffffffffffffffffffffffffff1673ffffffffffffffffffffffffffffffffffffffff1603610a9a576040517f08c379a0000000000000000000000000000000000000000000000000000000008152600401610a9190610eda565b60405180910390fd5b5b6001600060146101000a81548160ff02191690836001811115610ac157610ac0610b96565b5b021790555050565b60015481565b600073ffffffffffffffffffffffffffffffffffffffff82169050919050565b6000610afa82610acf565b9050919050565b610b0a81610aef565b82525050565b6000602082019050610b256000830184610b01565b92915050565b600060ff82169050919050565b610b4181610b2b565b82525050565b6000602082019050610b5c6000830184610b38565b92915050565b6000819050919050565b610b7581610b62565b82525050565b6000602082019050610b906000830184610b6c565b92915050565b7f4e487b7100000000000000000000000000000000000000000000000000000000600052602160045260246000fd5b60028110610bd657610bd5610b96565b5b50565b6000819050610be782610bc5565b919050565b6000610bf782610bd9565b9050919050565b610c0781610bec565b82525050565b6000604082019050610c226000830185610b01565b610c2f6020830184610bfe565b9392505050565b6000602082019050610c4b6000830184610bfe565b92915050565b600080fd5b610c5f81610aef565b8114610c6a57600080fd5b50565b600081359050610c7c81610c56565b92915050565b610c8b81610b62565b8114610c9657600080fd5b50565b600081359050610ca881610c82565b92915050565b610cb781610b2b565b8114610cc257600080fd5b50565b600081359050610cd481610cae565b92915050565b600080600060608486031215610cf357610cf2610c51565b5b6000610d0186828701610c6d565b9350506020610d1286828701610c99565b9250506040610d2386828701610cc5565b9150509250925092565b600060208284031215610d4357610d42610c51565b5b6000610d5184828501610cc5565b91505092915050565b6000610d6582610acf565b9050919050565b610d7581610d5a565b8114610d8057600080fd5b50565b600081359050610d9281610d6c565b92915050565b600060208284031215610dae57610dad610c51565b5b6000610dbc84828501610d83565b91505092915050565b600082825260208201905092915050565b7f596f7520617265206e6f74207468652063726561746f72206f6620746869732060008201527f67616d6521000000000000000000000000000000000000000000000000000000602082015250565b6000610e32602583610dc5565b9150610e3d82610dd6565b604082019050919050565b60006020820190508181036000830152610e6181610e25565b9050919050565b7f596f7520617265207468652063726561746f72206f6620746869732067616d6560008201527f2e00000000000000000000000000000000000000000000000000000000000000602082015250565b6000610ec4602183610dc5565b9150610ecf82610e68565b604082019050919050565b60006020820190508181036000830152610ef381610eb7565b9050919050565b7f596f7520646f206e6f74206861766520656e6f7567682062616c616e63650000600082015250565b6000610f30601e83610dc5565b9150610f3b82610efa565b602082019050919050565b60006020820190508181036000830152610f5f81610f23565b9050919050565b7f496e76616c6964205472616e73616374696f6e00000000000000000000000000600082015250565b6000610f9c601383610dc5565b9150610fa782610f66565b602082019050919050565b60006020820190508181036000830152610fcb81610f8f565b9050919050565b7f4e487b7100000000000000000000000000000000000000000000000000000000600052601160045260246000fd5b600061100c82610b62565b915061101783610b62565b925082820190508082111561102f5761102e610fd2565b5b92915050565b7f4e487b7100000000000000000000000000000000000000000000000000000000600052601260045260246000fd5b600061106f82610b62565b915061107a83610b62565b92508261108a57611089611035565b5b828204905092915050565b60006110a082610b62565b91506110ab83610b62565b92508282026110b981610b62565b915082820484148315176110d0576110cf610fd2565b5b509291505056fea2646970667358221220a74fb8abd181955e2b38679931910d4399c540bf3c0c1fb6b9a857211cb368bd64736f6c63430008110033a264697066735822122053618ce489bbf20d423dc0613b795934238406d18906561997f5b2be9145f4ac64736f6c63430008110033",
  "immutableReferences": {},
  "source": "// SPDX-License-Identifier: MIT\npragma solidity >=0.4.22 <0.9.0;\n\nimport \"./GameContract.sol\";\nimport \"@openzeppelin/contracts/utils/math/SafeMath.sol\";\n\ncontract HwangMarket {\n  using SafeMath for uint256;\n\n  uint256 private gameCount;\n  mapping(uint256 => address) public gameContractRegistry;\n  constructor() public {\n  }\n\n  // create game contract instance\n  function createGame() public returns (address) {\n    GameContract newGame = new GameContract(msg.sender, block.timestamp + 100); // only resolve after 100s from now\n    gameContractRegistry[gameCount] = address(newGame);\n    gameCount = SafeMath.add(gameCount, 1);\n\n    return gameContractRegistry[gameCount];\n  }\n\n  // @notice Will receive any eth sent to the contract\n  receive() external payable {\n  }\n}\n",
  "sourcePath": "/Users/gerald/Desktop/HwangMarket/contracts/HwangMarket.sol",
  "compiler": {
    "name": "solc",
    "version": "0.8.17+commit.8df45f5f.Emscripten.clang"
  },
  "schemaVersion": "3.4.10",
  "updatedAt": "2022-10-17T09:27:19.284Z",
  "networkType": "ethereum",
  "devdoc": {
    "kind": "dev",
    "methods": {},
    "version": 1
  },
  "userdoc": {
    "kind": "user",
    "methods": {},
    "version": 1
  }
}