{
  "contractName": "HwangMarket",
  "abi": [
    {
      "inputs": [],
      "stateMutability": "nonpayable",
      "type": "constructor"
    },
    {
      "anonymous": false,
      "inputs": [
        {
          "indexed": false,
          "internalType": "uint256",
          "name": "gameId",
          "type": "uint256"
        },
        {
          "indexed": false,
          "internalType": "address",
          "name": "gameAddr",
          "type": "address"
        },
        {
          "indexed": false,
          "internalType": "uint8",
          "name": "gameOutcome",
          "type": "uint8"
        }
      ],
      "name": "GameConcluded",
      "type": "event"
    },
    {
      "anonymous": false,
      "inputs": [
        {
          "components": [
            {
              "internalType": "uint256",
              "name": "id",
              "type": "uint256"
            },
            {
              "internalType": "uint256",
              "name": "createdTime",
              "type": "uint256"
            },
            {
              "internalType": "address",
              "name": "addr",
              "type": "address"
            },
            {
              "internalType": "string",
              "name": "tag",
              "type": "string"
            },
            {
              "internalType": "string",
              "name": "title",
              "type": "string"
            },
            {
              "internalType": "address",
              "name": "oracleAddr",
              "type": "address"
            },
            {
              "internalType": "uint256",
              "name": "resolveTime",
              "type": "uint256"
            },
            {
              "internalType": "int256",
              "name": "threshold",
              "type": "int256"
            },
            {
              "internalType": "uint256",
              "name": "totalAmount",
              "type": "uint256"
            },
            {
              "internalType": "uint256",
              "name": "betYesAmount",
              "type": "uint256"
            },
            {
              "internalType": "uint256",
              "name": "betNoAmount",
              "type": "uint256"
            },
            {
              "internalType": "bool",
              "name": "ongoing",
              "type": "bool"
            },
            {
              "internalType": "uint8",
              "name": "gameOutcome",
              "type": "uint8"
            }
          ],
          "indexed": false,
          "internalType": "struct Models.GameMetadata",
          "name": "gameMetadata",
          "type": "tuple"
        }
      ],
      "name": "GameCreated",
      "type": "event"
    },
    {
      "anonymous": false,
      "inputs": [
        {
          "components": [
            {
              "internalType": "uint256",
              "name": "listingId",
              "type": "uint256"
            },
            {
              "internalType": "address",
              "name": "listingAddr",
              "type": "address"
            },
            {
              "internalType": "address",
              "name": "player1",
              "type": "address"
            },
            {
              "internalType": "address",
              "name": "token1",
              "type": "address"
            },
            {
              "internalType": "uint256",
              "name": "token1Amt",
              "type": "uint256"
            },
            {
              "internalType": "address",
              "name": "player2",
              "type": "address"
            },
            {
              "internalType": "address",
              "name": "token2",
              "type": "address"
            },
            {
              "internalType": "uint256",
              "name": "token2Amt",
              "type": "uint256"
            },
            {
              "internalType": "bool",
              "name": "fulfilled",
              "type": "bool"
            }
          ],
          "indexed": false,
          "internalType": "struct Models.ListingInfo",
          "name": "listingInfo",
          "type": "tuple"
        }
      ],
      "name": "ListingFulfilled",
      "type": "event"
    },
    {
      "anonymous": false,
      "inputs": [
        {
          "components": [
            {
              "internalType": "uint256",
              "name": "listingId",
              "type": "uint256"
            },
            {
              "internalType": "address",
              "name": "listingAddr",
              "type": "address"
            },
            {
              "internalType": "address",
              "name": "player1",
              "type": "address"
            },
            {
              "internalType": "address",
              "name": "token1",
              "type": "address"
            },
            {
              "internalType": "uint256",
              "name": "token1Amt",
              "type": "uint256"
            },
            {
              "internalType": "address",
              "name": "player2",
              "type": "address"
            },
            {
              "internalType": "address",
              "name": "token2",
              "type": "address"
            },
            {
              "internalType": "uint256",
              "name": "token2Amt",
              "type": "uint256"
            },
            {
              "internalType": "bool",
              "name": "fulfilled",
              "type": "bool"
            }
          ],
          "indexed": false,
          "internalType": "struct Models.ListingInfo",
          "name": "listingInfo",
          "type": "tuple"
        }
      ],
      "name": "NewListing",
      "type": "event"
    },
    {
      "anonymous": false,
      "inputs": [
        {
          "indexed": false,
          "internalType": "address",
          "name": "player",
          "type": "address"
        },
        {
          "indexed": false,
          "internalType": "uint256",
          "name": "gameId",
          "type": "uint256"
        },
        {
          "indexed": false,
          "internalType": "address",
          "name": "gameAddr",
          "type": "address"
        },
        {
          "indexed": false,
          "internalType": "uint8",
          "name": "betSide",
          "type": "uint8"
        },
        {
          "indexed": false,
          "internalType": "uint256",
          "name": "amount",
          "type": "uint256"
        }
      ],
      "name": "PlayerJoinedGameEvent",
      "type": "event"
    },
    {
      "anonymous": false,
      "inputs": [
        {
          "indexed": false,
          "internalType": "address",
          "name": "player",
          "type": "address"
        },
        {
          "indexed": false,
          "internalType": "uint256",
          "name": "gameId",
          "type": "uint256"
        },
        {
          "indexed": false,
          "internalType": "address",
          "name": "gameAddr",
          "type": "address"
        },
        {
          "indexed": false,
          "internalType": "uint8",
          "name": "betSide",
          "type": "uint8"
        },
        {
          "indexed": false,
          "internalType": "uint256",
          "name": "withdrawedAmt",
          "type": "uint256"
        }
      ],
      "name": "PlayerWithdrawedWinnings",
      "type": "event"
    },
    {
      "inputs": [
        {
          "internalType": "uint256",
          "name": "",
          "type": "uint256"
        }
      ],
      "name": "closedGames",
      "outputs": [
        {
          "internalType": "uint256",
          "name": "id",
          "type": "uint256"
        },
        {
          "internalType": "uint256",
          "name": "createdTime",
          "type": "uint256"
        },
        {
          "internalType": "address",
          "name": "addr",
          "type": "address"
        },
        {
          "internalType": "string",
          "name": "tag",
          "type": "string"
        },
        {
          "internalType": "string",
          "name": "title",
          "type": "string"
        },
        {
          "internalType": "address",
          "name": "oracleAddr",
          "type": "address"
        },
        {
          "internalType": "uint256",
          "name": "resolveTime",
          "type": "uint256"
        },
        {
          "internalType": "int256",
          "name": "threshold",
          "type": "int256"
        },
        {
          "internalType": "uint256",
          "name": "totalAmount",
          "type": "uint256"
        },
        {
          "internalType": "uint256",
          "name": "betYesAmount",
          "type": "uint256"
        },
        {
          "internalType": "uint256",
          "name": "betNoAmount",
          "type": "uint256"
        },
        {
          "internalType": "bool",
          "name": "ongoing",
          "type": "bool"
        },
        {
          "internalType": "uint8",
          "name": "gameOutcome",
          "type": "uint8"
        }
      ],
      "stateMutability": "view",
      "type": "function",
      "constant": true
    },
    {
      "inputs": [
        {
          "internalType": "address",
          "name": "",
          "type": "address"
        }
      ],
      "name": "gameAddr2Id",
      "outputs": [
        {
          "internalType": "uint256",
          "name": "",
          "type": "uint256"
        }
      ],
      "stateMutability": "view",
      "type": "function",
      "constant": true
    },
    {
      "inputs": [
        {
          "internalType": "uint256",
          "name": "",
          "type": "uint256"
        }
      ],
      "name": "gameContractRegistry",
      "outputs": [
        {
          "internalType": "uint256",
          "name": "id",
          "type": "uint256"
        },
        {
          "internalType": "uint256",
          "name": "createdTime",
          "type": "uint256"
        },
        {
          "internalType": "address",
          "name": "addr",
          "type": "address"
        },
        {
          "internalType": "string",
          "name": "tag",
          "type": "string"
        },
        {
          "internalType": "string",
          "name": "title",
          "type": "string"
        },
        {
          "internalType": "address",
          "name": "oracleAddr",
          "type": "address"
        },
        {
          "internalType": "uint256",
          "name": "resolveTime",
          "type": "uint256"
        },
        {
          "internalType": "int256",
          "name": "threshold",
          "type": "int256"
        },
        {
          "internalType": "uint256",
          "name": "totalAmount",
          "type": "uint256"
        },
        {
          "internalType": "uint256",
          "name": "betYesAmount",
          "type": "uint256"
        },
        {
          "internalType": "uint256",
          "name": "betNoAmount",
          "type": "uint256"
        },
        {
          "internalType": "bool",
          "name": "ongoing",
          "type": "bool"
        },
        {
          "internalType": "uint8",
          "name": "gameOutcome",
          "type": "uint8"
        }
      ],
      "stateMutability": "view",
      "type": "function",
      "constant": true
    },
    {
      "inputs": [
        {
          "internalType": "address",
          "name": "",
          "type": "address"
        }
      ],
      "name": "gameTokensRegistry",
      "outputs": [
        {
          "internalType": "address",
          "name": "tokenAddr",
          "type": "address"
        },
        {
          "internalType": "uint8",
          "name": "betSide",
          "type": "uint8"
        },
        {
          "internalType": "uint256",
          "name": "gameId",
          "type": "uint256"
        },
        {
          "internalType": "address",
          "name": "gameAddr",
          "type": "address"
        },
        {
          "internalType": "string",
          "name": "gameTag",
          "type": "string"
        },
        {
          "internalType": "string",
          "name": "gameTitle",
          "type": "string"
        },
        {
          "internalType": "address",
          "name": "gameOracleAddr",
          "type": "address"
        },
        {
          "internalType": "uint256",
          "name": "gameResolveTime",
          "type": "uint256"
        },
        {
          "internalType": "int256",
          "name": "gameThreshold",
          "type": "int256"
        }
      ],
      "stateMutability": "view",
      "type": "function",
      "constant": true
    },
    {
      "inputs": [],
      "name": "listingsCount",
      "outputs": [
        {
          "internalType": "uint256",
          "name": "",
          "type": "uint256"
        }
      ],
      "stateMutability": "view",
      "type": "function",
      "constant": true
    },
    {
      "inputs": [],
      "name": "mainToken",
      "outputs": [
        {
          "internalType": "contract MainToken",
          "name": "",
          "type": "address"
        }
      ],
      "stateMutability": "view",
      "type": "function",
      "constant": true
    },
    {
      "inputs": [],
      "name": "mainTokenAddress",
      "outputs": [
        {
          "internalType": "address",
          "name": "",
          "type": "address"
        }
      ],
      "stateMutability": "view",
      "type": "function",
      "constant": true
    },
    {
      "inputs": [
        {
          "internalType": "uint256",
          "name": "",
          "type": "uint256"
        }
      ],
      "name": "ongoingGames",
      "outputs": [
        {
          "internalType": "uint256",
          "name": "id",
          "type": "uint256"
        },
        {
          "internalType": "uint256",
          "name": "createdTime",
          "type": "uint256"
        },
        {
          "internalType": "address",
          "name": "addr",
          "type": "address"
        },
        {
          "internalType": "string",
          "name": "tag",
          "type": "string"
        },
        {
          "internalType": "string",
          "name": "title",
          "type": "string"
        },
        {
          "internalType": "address",
          "name": "oracleAddr",
          "type": "address"
        },
        {
          "internalType": "uint256",
          "name": "resolveTime",
          "type": "uint256"
        },
        {
          "internalType": "int256",
          "name": "threshold",
          "type": "int256"
        },
        {
          "internalType": "uint256",
          "name": "totalAmount",
          "type": "uint256"
        },
        {
          "internalType": "uint256",
          "name": "betYesAmount",
          "type": "uint256"
        },
        {
          "internalType": "uint256",
          "name": "betNoAmount",
          "type": "uint256"
        },
        {
          "internalType": "bool",
          "name": "ongoing",
          "type": "bool"
        },
        {
          "internalType": "uint8",
          "name": "gameOutcome",
          "type": "uint8"
        }
      ],
      "stateMutability": "view",
      "type": "function",
      "constant": true
    },
    {
      "inputs": [
        {
          "internalType": "address",
          "name": "",
          "type": "address"
        },
        {
          "internalType": "uint256",
          "name": "",
          "type": "uint256"
        }
      ],
      "name": "playersRecords",
      "outputs": [
        {
          "internalType": "uint256",
          "name": "trxId",
          "type": "uint256"
        },
        {
          "internalType": "string",
          "name": "activityType",
          "type": "string"
        },
        {
          "internalType": "uint256",
          "name": "gameId",
          "type": "uint256"
        },
        {
          "internalType": "uint256",
          "name": "trxAmt",
          "type": "uint256"
        },
        {
          "internalType": "uint256",
          "name": "trxTime",
          "type": "uint256"
        },
        {
          "internalType": "uint8",
          "name": "gameSide",
          "type": "uint8"
        },
        {
          "internalType": "address",
          "name": "from",
          "type": "address"
        },
        {
          "internalType": "address",
          "name": "to",
          "type": "address"
        }
      ],
      "stateMutability": "view",
      "type": "function",
      "constant": true
    },
    {
      "inputs": [
        {
          "internalType": "uint256",
          "name": "resolveTime",
          "type": "uint256"
        },
        {
          "internalType": "address",
          "name": "oracleAddr",
          "type": "address"
        },
        {
          "internalType": "int256",
          "name": "threshold",
          "type": "int256"
        },
        {
          "internalType": "string",
          "name": "tag",
          "type": "string"
        },
        {
          "internalType": "string",
          "name": "title",
          "type": "string"
        }
      ],
      "name": "createGame",
      "outputs": [
        {
          "internalType": "address",
          "name": "",
          "type": "address"
        }
      ],
      "stateMutability": "nonpayable",
      "type": "function"
    },
    {
      "inputs": [],
      "name": "getGameCount",
      "outputs": [
        {
          "internalType": "uint256",
          "name": "",
          "type": "uint256"
        }
      ],
      "stateMutability": "view",
      "type": "function",
      "constant": true
    },
    {
      "inputs": [],
      "name": "getAllGames",
      "outputs": [
        {
          "components": [
            {
              "components": [
                {
                  "internalType": "uint256",
                  "name": "id",
                  "type": "uint256"
                },
                {
                  "internalType": "uint256",
                  "name": "createdTime",
                  "type": "uint256"
                },
                {
                  "internalType": "address",
                  "name": "addr",
                  "type": "address"
                },
                {
                  "internalType": "string",
                  "name": "tag",
                  "type": "string"
                },
                {
                  "internalType": "string",
                  "name": "title",
                  "type": "string"
                },
                {
                  "internalType": "address",
                  "name": "oracleAddr",
                  "type": "address"
                },
                {
                  "internalType": "uint256",
                  "name": "resolveTime",
                  "type": "uint256"
                },
                {
                  "internalType": "int256",
                  "name": "threshold",
                  "type": "int256"
                },
                {
                  "internalType": "uint256",
                  "name": "totalAmount",
                  "type": "uint256"
                },
                {
                  "internalType": "uint256",
                  "name": "betYesAmount",
                  "type": "uint256"
                },
                {
                  "internalType": "uint256",
                  "name": "betNoAmount",
                  "type": "uint256"
                },
                {
                  "internalType": "bool",
                  "name": "ongoing",
                  "type": "bool"
                },
                {
                  "internalType": "uint8",
                  "name": "gameOutcome",
                  "type": "uint8"
                }
              ],
              "internalType": "struct Models.GameMetadata[]",
              "name": "ongoingGames",
              "type": "tuple[]"
            },
            {
              "components": [
                {
                  "internalType": "uint256",
                  "name": "id",
                  "type": "uint256"
                },
                {
                  "internalType": "uint256",
                  "name": "createdTime",
                  "type": "uint256"
                },
                {
                  "internalType": "address",
                  "name": "addr",
                  "type": "address"
                },
                {
                  "internalType": "string",
                  "name": "tag",
                  "type": "string"
                },
                {
                  "internalType": "string",
                  "name": "title",
                  "type": "string"
                },
                {
                  "internalType": "address",
                  "name": "oracleAddr",
                  "type": "address"
                },
                {
                  "internalType": "uint256",
                  "name": "resolveTime",
                  "type": "uint256"
                },
                {
                  "internalType": "int256",
                  "name": "threshold",
                  "type": "int256"
                },
                {
                  "internalType": "uint256",
                  "name": "totalAmount",
                  "type": "uint256"
                },
                {
                  "internalType": "uint256",
                  "name": "betYesAmount",
                  "type": "uint256"
                },
                {
                  "internalType": "uint256",
                  "name": "betNoAmount",
                  "type": "uint256"
                },
                {
                  "internalType": "bool",
                  "name": "ongoing",
                  "type": "bool"
                },
                {
                  "internalType": "uint8",
                  "name": "gameOutcome",
                  "type": "uint8"
                }
              ],
              "internalType": "struct Models.GameMetadata[]",
              "name": "closedGames",
              "type": "tuple[]"
            }
          ],
          "internalType": "struct Models.AllGames",
          "name": "",
          "type": "tuple"
        }
      ],
      "stateMutability": "view",
      "type": "function",
      "constant": true
    },
    {
      "inputs": [
        {
          "internalType": "address",
          "name": "player",
          "type": "address"
        },
        {
          "internalType": "uint256",
          "name": "token1Amt",
          "type": "uint256"
        },
        {
          "internalType": "address",
          "name": "token2",
          "type": "address"
        },
        {
          "internalType": "uint256",
          "name": "token2Amt",
          "type": "uint256"
        }
      ],
      "name": "newListing",
      "outputs": [
        {
          "components": [
            {
              "internalType": "uint256",
              "name": "listingId",
              "type": "uint256"
            },
            {
              "internalType": "address",
              "name": "listingAddr",
              "type": "address"
            },
            {
              "internalType": "address",
              "name": "player1",
              "type": "address"
            },
            {
              "internalType": "address",
              "name": "token1",
              "type": "address"
            },
            {
              "internalType": "uint256",
              "name": "token1Amt",
              "type": "uint256"
            },
            {
              "internalType": "address",
              "name": "player2",
              "type": "address"
            },
            {
              "internalType": "address",
              "name": "token2",
              "type": "address"
            },
            {
              "internalType": "uint256",
              "name": "token2Amt",
              "type": "uint256"
            },
            {
              "internalType": "bool",
              "name": "fulfilled",
              "type": "bool"
            }
          ],
          "internalType": "struct Models.ListingInfo",
          "name": "",
          "type": "tuple"
        }
      ],
      "stateMutability": "nonpayable",
      "type": "function"
    },
    {
      "inputs": [],
      "name": "getAllListings",
      "outputs": [
        {
          "components": [
            {
              "internalType": "uint256",
              "name": "listingId",
              "type": "uint256"
            },
            {
              "internalType": "address",
              "name": "listingAddr",
              "type": "address"
            },
            {
              "internalType": "address",
              "name": "player1",
              "type": "address"
            },
            {
              "internalType": "address",
              "name": "token1",
              "type": "address"
            },
            {
              "internalType": "uint256",
              "name": "token1Amt",
              "type": "uint256"
            },
            {
              "internalType": "address",
              "name": "player2",
              "type": "address"
            },
            {
              "internalType": "address",
              "name": "token2",
              "type": "address"
            },
            {
              "internalType": "uint256",
              "name": "token2Amt",
              "type": "uint256"
            },
            {
              "internalType": "bool",
              "name": "fulfilled",
              "type": "bool"
            }
          ],
          "internalType": "struct Models.ListingInfo[]",
          "name": "",
          "type": "tuple[]"
        }
      ],
      "stateMutability": "view",
      "type": "function",
      "constant": true
    },
    {
      "inputs": [
        {
          "components": [
            {
              "internalType": "uint256",
              "name": "listingId",
              "type": "uint256"
            },
            {
              "internalType": "address",
              "name": "listingAddr",
              "type": "address"
            },
            {
              "internalType": "address",
              "name": "player1",
              "type": "address"
            },
            {
              "internalType": "address",
              "name": "token1",
              "type": "address"
            },
            {
              "internalType": "uint256",
              "name": "token1Amt",
              "type": "uint256"
            },
            {
              "internalType": "address",
              "name": "player2",
              "type": "address"
            },
            {
              "internalType": "address",
              "name": "token2",
              "type": "address"
            },
            {
              "internalType": "uint256",
              "name": "token2Amt",
              "type": "uint256"
            },
            {
              "internalType": "bool",
              "name": "fulfilled",
              "type": "bool"
            }
          ],
          "internalType": "struct Models.ListingInfo",
          "name": "listingInfo",
          "type": "tuple"
        }
      ],
      "name": "updateListing",
      "outputs": [],
      "stateMutability": "nonpayable",
      "type": "function"
    },
    {
      "inputs": [
        {
          "internalType": "address",
          "name": "player",
          "type": "address"
        },
        {
          "internalType": "uint8",
          "name": "betSide",
          "type": "uint8"
        },
        {
          "internalType": "uint256",
          "name": "amount",
          "type": "uint256"
        },
        {
          "internalType": "uint256",
          "name": "timestamp",
          "type": "uint256"
        }
      ],
      "name": "playerJoinedSide",
      "outputs": [],
      "stateMutability": "nonpayable",
      "type": "function"
    },
    {
      "inputs": [
        {
          "internalType": "address",
          "name": "_player",
          "type": "address"
        },
        {
          "internalType": "uint8",
          "name": "betSide",
          "type": "uint8"
        },
        {
          "internalType": "uint256",
          "name": "withdrawAmt",
          "type": "uint256"
        },
        {
          "internalType": "uint256",
          "name": "timestamp",
          "type": "uint256"
        }
      ],
      "name": "playerWithdrawWinnings",
      "outputs": [],
      "stateMutability": "nonpayable",
      "type": "function"
    },
    {
      "inputs": [
        {
          "internalType": "uint8",
          "name": "gameOutcome",
          "type": "uint8"
        }
      ],
      "name": "concludeGame",
      "outputs": [],
      "stateMutability": "nonpayable",
      "type": "function"
    },
    {
      "inputs": [],
      "name": "getBalance",
      "outputs": [
        {
          "internalType": "uint256",
          "name": "",
          "type": "uint256"
        }
      ],
      "stateMutability": "view",
      "type": "function",
      "constant": true
    },
    {
      "inputs": [
        {
          "internalType": "address",
          "name": "player",
          "type": "address"
        }
      ],
      "name": "getPlayersTrxRecords",
      "outputs": [
        {
          "components": [
            {
              "internalType": "uint256",
              "name": "trxId",
              "type": "uint256"
            },
            {
              "internalType": "string",
              "name": "activityType",
              "type": "string"
            },
            {
              "internalType": "uint256",
              "name": "gameId",
              "type": "uint256"
            },
            {
              "internalType": "uint256",
              "name": "trxAmt",
              "type": "uint256"
            },
            {
              "internalType": "uint256",
              "name": "trxTime",
              "type": "uint256"
            },
            {
              "internalType": "uint8",
              "name": "gameSide",
              "type": "uint8"
            },
            {
              "internalType": "address",
              "name": "from",
              "type": "address"
            },
            {
              "internalType": "address",
              "name": "to",
              "type": "address"
            }
          ],
          "internalType": "struct Models.Activity[]",
          "name": "",
          "type": "tuple[]"
        }
      ],
      "stateMutability": "view",
      "type": "function",
      "constant": true
    },
    {
      "inputs": [],
      "name": "checkAllOngoingGamesUpkeep",
      "outputs": [],
      "stateMutability": "nonpayable",
      "type": "function"
    }
  ],
  "bytecode": "0x60806040523480156200001157600080fd5b5060016004556040516200002590620000c0565b604051809103906000f08015801562000042573d6000803e3d6000fd5b5060018054600160a060020a0392909216600160a060020a03199283168117909155600080549092161790556040516200007c90620000ce565b604051809103906000f08015801562000099573d6000803e3d6000fd5b5060028054600160a060020a031916600160a060020a0392909216919091179055620000dc565b611754806200435e83390190565b614d788062005ab283390190565b61427280620000ec6000396000f3fe60806040523480156200001157600080fd5b5060043610620001555760003560e060020a900480637976948811620000cb578063ce1f335c116200008a578063ce1f335c1462000313578063d3eb618c1462000327578063db1c45f91462000354578063dc8046f0146200036d578063e362937d1462000384578063e87c0ee6146200039b57600080fd5b8063797694881462000288578063829a32ef146200029f5780638c055c0f14620002c2578063aa8f776014620002f0578063ae73ccec14620002fa57600080fd5b80633f863f1911620001185780633f863f1914620002235780633fc15f15146200023a57806346b1df04146200024e5780635039eb9714620002585780636435e817146200027157600080fd5b806304ad465f146200015a57806312065fe014620001955780632980a3cb14620001a75780632cd1adfe14620001d75780633751b87714620001fd575b600080fd5b620001716200016b366004620029a4565b620003a5565b6040516200018c9d9c9b9a9998979695949392919062002a06565b60405180910390f35b30315b6040519081526020016200018c565b620001be620001b836600462002bc0565b62000558565b604051600160a060020a0390911681526020016200018c565b620001ee620001e836600462002c53565b62000e34565b6040516200018c919062002d3a565b620002146200020e36600462002d4b565b6200109e565b6040516200018c919062002d72565b6200017162000234366004620029a4565b6200120e565b600154620001be90600160a060020a031681565b6200019860115481565b6200026f6200026936600462002e5a565b6200124a565b005b6200017162000282366004620029a4565b6200155d565b6200026f6200029936600462002e5a565b6200156e565b62000198620002b036600462002d4b565b60066020526000908152604090205481565b620002d9620002d336600462002d4b565b6200174c565b6040516200018c9998979695949392919062002ea3565b6200026f620018e2565b62000304620019af565b6040516200018c919062002f18565b600054620001be90600160a060020a031681565b6200033e6200033836600462002f6b565b62001a4b565b6040516200018c98979695949392919062002f9a565b6200035e62001b53565b6040516200018c919062003117565b6200026f6200037e36600462003179565b62001fb8565b6200026f6200039536600462003229565b6200207d565b620001986200290a565b600a8181548110620003b657600080fd5b60009182526020909120600c909102018054600182015460028301546003840180549395509193600160a060020a0390911692909190620003f79062003247565b80601f0160208091040260200160405190810160405280929190818152602001828054620004259062003247565b8015620004765780601f106200044a5761010080835404028352916020019162000476565b820191906000526020600020905b8154815290600101906020018083116200045857829003601f168201915b5050505050908060040180546200048d9062003247565b80601f0160208091040260200160405190810160405280929190818152602001828054620004bb9062003247565b80156200050c5780601f10620004e0576101008083540402835291602001916200050c565b820191906000526020600020905b815481529060010190602001808311620004ee57829003601f168201915b5050505060058301546006840154600785015460088601546009870154600a880154600b909801549697600160a060020a03909516969395509193909260ff808216916101009004168d565b6002546040517f956a2a1000000000000000000000000000000000000000000000000000000000815230600482015260248101879052600160a060020a03868116604483015260648201869052600092839291169063956a2a10906084016020604051808303816000875af1158015620005d6573d6000803e3d6000fd5b505050506040513d601f19601f82011682018060405250810190620005fc919062003286565b90506000819050604051806101a00160405280600454815260200142815260200182600160a060020a0316815260200186815260200185815260200188600160a060020a03168152602001898152602001878152602001600081526020016000815260200160008152602001600115158152602001600060ff16815250600560006004548152602001908152602001600020600082015181600001556020820151816001015560408201518160020160006101000a815481600160a060020a030219169083600160a060020a031602179055506060820151816003019081620006e69190620032f9565b5060808201516004820190620006fd9082620032f9565b5060a0820151600582018054600160a060020a031916600160a060020a0392831617905560c0830151600683015560e08301516007830155610100808401516008840155610120808501516009850155610140850151600a850155610160850151600b90940180546101809096015161ffff1990961694151561ff0019169490941760ff90951690910293909317909155604080519283018082527f846c6f4f00000000000000000000000000000000000000000000000000000000905251829185169063846c6f4f90610124808501916020918187030181865afa158015620007eb573d6000803e3d6000fd5b505050506040513d601f19601f8201168201806040525081019062000811919062003286565b600160a060020a03168152602001600160ff168152602001600454815260200182600160a060020a0316815260200186815260200185815260200188600160a060020a03168152602001898152602001878152506012600084600160a060020a031663846c6f4f6040518163ffffffff1660e060020a028152600401602060405180830381865afa158015620008ab573d6000803e3d6000fd5b505050506040513d601f19601f82011682018060405250810190620008d1919062003286565b600160a060020a0390811682526020808301939093526040918201600020845181549486015160ff16740100000000000000000000000000000000000000000274ffffffffffffffffffffffffffffffffffffffffff1990951690831617939093178355908301516001830155606083015160028301805491909216600160a060020a03199190911617905560808201516003820190620009739082620032f9565b5060a082015160048201906200098a9082620032f9565b5060c0820151600582018054600160a060020a031916600160a060020a0392831617905560e08301516006830155610100909201516007909101556040805161012081018083527f41ef10c8000000000000000000000000000000000000000000000000000000009052905190918291908516906341ef10c890610124808501916020918187030181865afa15801562000a28573d6000803e3d6000fd5b505050506040513d601f19601f8201168201806040525081019062000a4e919062003286565b600160a060020a03168152602001600060ff168152602001600454815260200182600160a060020a0316815260200186815260200185815260200188600160a060020a03168152602001898152602001878152506012600084600160a060020a03166341ef10c86040518163ffffffff1660e060020a028152600401602060405180830381865afa15801562000ae8573d6000803e3d6000fd5b505050506040513d601f19601f8201168201806040525081019062000b0e919062003286565b600160a060020a0390811682526020808301939093526040918201600020845181549486015160ff16740100000000000000000000000000000000000000000274ffffffffffffffffffffffffffffffffffffffffff1990951690831617939093178355908301516001830155606083015160028301805491909216600160a060020a0319919091161790556080820151600382019062000bb09082620032f9565b5060a0820151600482019062000bc79082620032f9565b5060c082015160058083018054600160a060020a03938416600160a060020a03199182161790915560e085015160068086019190915561010090950151600794850155600480548785166000908152602097885260408082208390559654918152600988528681209190915590548152919094529182206008805460018181018355919094528154600c9094027ff3f7a9fe364faab93b216da50a3214154f22a0a2b415b23a84c8169e8b636ee38101948555908201547ff3f7a9fe364faab93b216da50a3214154f22a0a2b415b23a84c8169e8b636ee482015560028201547ff3f7a9fe364faab93b216da50a3214154f22a0a2b415b23a84c8169e8b636ee5820180549096169316929092179093557ff3f7a9fe364faab93b216da50a3214154f22a0a2b415b23a84c8169e8b636ee60162000d096003840182620033d9565b5060048181019062000d1e90840182620033d9565b506005828101549082018054600160a060020a031916600160a060020a0390921691909117905560068083015490820155600780830154818301556008808401549083015560098084015490830155600a8084015490830155600b928301805493909201805460ff948516151560ff1982168117835593546101009081900490951690940261ff001990931661ffff1990941693909317919091179091555462000dca9060016200291d565b6007556004546000908152600560205260409081902090517f149022832779c6ebc9c5b5594a2aacdf1e5937175d1408086b385724ef265e579162000e0f916200354d565b60405180910390a162000e2660045460016200291d565b600455979650505050505050565b6040805161012081018252600080825260208201819052918101829052606081018290526080810182905260a0810182905260c0810182905260e08101829052610100810191909152600054600160a060020a0316331462000ef6576040517f08c379a000000000000000000000000000000000000000000000000000000000815260206004820152601860248201527f6f6e6c79206d61696e20746f6b656e2063616e2063616c6c0000000000000000604482015260640160405180910390fd5b60006011549050600081873388888860405162000f139062002942565b958652600160a060020a03948516602087015292841660408601526060850191909152909116608083015260a082015260c001604051809103906000f08015801562000f63573d6000803e3d6000fd5b506040805161012081018252848152600160a060020a0380841660208301528a811682840152336060830152608082018a9052600060a0830181905290891660c083015260e0820188905261010082015290517f070b5eb40000000000000000000000000000000000000000000000000000000081529192509073__IterableMapping_______________________9063070b5eb4906200100e90600c908790869060040162003640565b60006040518083038186803b1580156200102757600080fd5b505af41580156200103c573d6000803e3d6000fd5b505060118054925090506000620010538362003677565b91905055507fd1fe3704bd3aa4f4974d5168e39528bbb86b19e98e5f798beea49af58df301398160405162001089919062002d3a565b60405180910390a1925050505b949350505050565b600160a060020a0381166000908152600b60209081526040808320805482518185028101850190935280835260609492939192909184015b828210156200120357838290600052602060002090600702016040518061010001604052908160008201548152602001600182018054620011179062003247565b80601f0160208091040260200160405190810160405280929190818152602001828054620011459062003247565b8015620011965780601f106200116a5761010080835404028352916020019162001196565b820191906000526020600020905b8154815290600101906020018083116200117857829003601f168201915b505050918352505060028201546020808301919091526003830154604083015260048301546060830152600583015460ff81166080840152600160a060020a03610100909104811660a084015260069093015490921660c0909101529082526001929092019101620010d6565b505050509050919050565b600560205260009081526040902080546001820154600283015460038401805493949293600160a060020a039092169291620003f79062003247565b3360009081526006602052604090205415801590620012875750336000908152600660209081526040808320548352600990915290205460001914155b6200129157600080fd5b3360008181526006602090815260408083205480845260058352818420600990935290832054600880549294929091908110620012d257620012d262003693565b90600052602060002090600c0201905085826008016000828254620012f89190620036ac565b9250508190555085816008016000828254620013159190620036ac565b909155505060ff871660020362001365578582600a0160008282546200133c9190620036ac565b925050819055508581600a016000828254620013599190620036ac565b909155506200139e9050565b858260090160008282546200137b9190620036ac565b9250508190555085816009016000828254620013989190620036ac565b90915550505b600160a060020a038089166000818152600b60209081526040808320815161010081018352600380548252835180850185529081527f4245540000000000000000000000000000000000000000000000000000000000818601528185019081529281018a9052606081018d9052608081018c905260ff8e1660a082015260c081019590955294891660e0850152845460018181018755958452919092208351600790920201908155905191929091908201906200145c9082620032f9565b506040820151600282015560608201516003808301919091556080830151600483015560a083015160058301805460c086015160ff90931674ffffffffffffffffffffffffffffffffffffffffff1990911617610100600160a060020a039384160217905560e09093015160069092018054600160a060020a031916929093169190911790915554620014f19060016200291d565b60035560408051600160a060020a03808b1682526020820186905286169181019190915260ff88166060820152608081018790527f60f0179549292c7191bafdb03407a3080ad6bbb9354055fb0dba51a90dcead179060a0015b60405180910390a15050505050505050565b60088181548110620003b657600080fd5b3360009081526006602052604081205490036200158a57600080fd5b33600081815260066020908152604080832054600160a060020a038916808552600b8452828520835161010081018552600354815284518086018652600881527f574954484452415700000000000000000000000000000000000000000000000081880152818701908152948101849052606081018a90526080810189905260ff8b1660a082015260c0810188905260e081019290925280546001818101835591875294909520815160079095020193845591519093919291820190620016529082620032f9565b506040820151600282015560608201516003808301919091556080830151600483015560a083015160058301805460c086015160ff90931674ffffffffffffffffffffffffffffffffffffffffff1990911617610100600160a060020a039384160217905560e09093015160069092018054600160a060020a031916929093169190911790915554620016e79060016200291d565b60035560408051600160a060020a0388811682526020820184905284168183015260ff871660608201526080810186905290517f763849cb5b59f290f2394239aed08a4f73bef1c65b4debb49ed6324897c23a979181900360a00190a1505050505050565b6012602052600090815260409020805460018201546002830154600384018054600160a060020a03808616967401000000000000000000000000000000000000000090960460ff16959316929190620017a59062003247565b80601f0160208091040260200160405190810160405280929190818152602001828054620017d39062003247565b8015620018245780601f10620017f85761010080835404028352916020019162001824565b820191906000526020600020905b8154815290600101906020018083116200180657829003601f168201915b5050505050908060040180546200183b9062003247565b80601f0160208091040260200160405190810160405280929190818152602001828054620018699062003247565b8015620018ba5780601f106200188e57610100808354040283529160200191620018ba565b820191906000526020600020905b8154815290600101906020018083116200189c57829003601f168201915b50505050600583015460068401546007909401549293600160a060020a039091169290915089565b60005b600754811015620019ac5760006008828154811062001908576200190862003693565b6000918252602082206002600c9092020190810154604080517f6e4d243a0000000000000000000000000000000000000000000000000000000081529051929450600160a060020a03909116928392636e4d243a92600480820193929182900301818387803b1580156200197b57600080fd5b505af115801562001990573d6000803e3d6000fd5b5050505050508080620019a39062003677565b915050620018e5565b50565b6040517f75a02c20000000000000000000000000000000000000000000000000000000008152600c600482015260609073__IterableMapping_______________________906375a02c2090602401600060405180830381865af415801562001a1c573d6000803e3d6000fd5b505050506040513d6000823e601f3d908101601f1916820160405262001a469190810190620036cf565b905090565b600b602052816000526040600020818154811062001a6857600080fd5b90600052602060002090600702016000915091505080600001549080600101805462001a949062003247565b80601f016020809104026020016040519081016040528092919081815260200182805462001ac29062003247565b801562001b135780601f1062001ae75761010080835404028352916020019162001b13565b820191906000526020600020905b81548152906001019060200180831162001af557829003601f168201915b505050600284015460038501546004860154600587015460069097015495969295919450925060ff821691600160a060020a036101009091048116911688565b604080518082019091526060808252602082015260408051600880546060602082028401810185529383018181529293849392919060009085015b8282101562001d88576000848152602090819020604080516101a081018252600c8602909201805483526001810154938301939093526002830154600160a060020a03169082015260038201805491929160608401919062001bf09062003247565b80601f016020809104026020016040519081016040528092919081815260200182805462001c1e9062003247565b801562001c6f5780601f1062001c435761010080835404028352916020019162001c6f565b820191906000526020600020905b81548152906001019060200180831162001c5157829003601f168201915b5050505050815260200160048201805462001c8a9062003247565b80601f016020809104026020016040519081016040528092919081815260200182805462001cb89062003247565b801562001d095780601f1062001cdd5761010080835404028352916020019162001d09565b820191906000526020600020905b81548152906001019060200180831162001ceb57829003601f168201915b50505091835250506005820154600160a060020a0316602080830191909152600683015460408301526007830154606083015260088301546080830152600983015460a0830152600a83015460c0830152600b9092015460ff808216151560e08401526101009182900416910152908252600192909201910162001b8e565b505050508152602001600a805480602002602001604051908101604052809291908181526020016000905b8282101562001fad576000848152602090819020604080516101a081018252600c8602909201805483526001810154938301939093526002830154600160a060020a03169082015260038201805491929160608401919062001e159062003247565b80601f016020809104026020016040519081016040528092919081815260200182805462001e439062003247565b801562001e945780601f1062001e685761010080835404028352916020019162001e94565b820191906000526020600020905b81548152906001019060200180831162001e7657829003601f168201915b5050505050815260200160048201805462001eaf9062003247565b80601f016020809104026020016040519081016040528092919081815260200182805462001edd9062003247565b801562001f2e5780601f1062001f025761010080835404028352916020019162001f2e565b820191906000526020600020905b81548152906001019060200180831162001f1057829003601f168201915b50505091835250506005820154600160a060020a0316602080830191909152600683015460408301526007830154606083015260088301546080830152600983015460a0830152600a83015460c0830152600b9092015460ff808216151560e08401526101009182900416910152908252600192909201910162001db3565b505050915250919050565b80516040517f070b5eb400000000000000000000000000000000000000000000000000000000815273__IterableMapping_______________________9163070b5eb4916200200f91600c91869060040162003640565b60006040518083038186803b1580156200202857600080fd5b505af41580156200203d573d6000803e3d6000fd5b505050507f4758bcd8e425945eea731ed13074c209c3176197b970b6a78b278ad015ae90788160405162002072919062002d3a565b60405180910390a150565b3360009081526006602052604081205490036200209957600080fd5b336000818152600660209081526040808320548084526009909252909120548019620020c55750505050565b6000819050600060088281548110620020e257620020e262003693565b90600052602060002090600c0201604051806101a001604052908160008201548152602001600182015481526020016002820160009054906101000a9004600160a060020a0316600160a060020a0316600160a060020a03168152602001600382018054620021519062003247565b80601f01602080910402602001604051908101604052809291908181526020018280546200217f9062003247565b8015620021d05780601f10620021a457610100808354040283529160200191620021d0565b820191906000526020600020905b815481529060010190602001808311620021b257829003601f168201915b50505050508152602001600482018054620021eb9062003247565b80601f0160208091040260200160405190810160405280929190818152602001828054620022199062003247565b80156200226a5780601f106200223e576101008083540402835291602001916200226a565b820191906000526020600020905b8154815290600101906020018083116200224c57829003601f168201915b50505091835250506005820154600160a060020a031660208201526006820154604082015260078083015460608301526008808401546080840152600984015460a0840152600a84015460c0840152600b9093015460ff808216151560e0850152610100918290041692019190915254919250600091620022ed90600162002934565b8154811062002300576200230062003693565b90600052602060002090600c0201604051806101a001604052908160008201548152602001600182015481526020016002820160009054906101000a9004600160a060020a0316600160a060020a0316600160a060020a031681526020016003820180546200236f9062003247565b80601f01602080910402602001604051908101604052809291908181526020018280546200239d9062003247565b8015620023ee5780601f10620023c257610100808354040283529160200191620023ee565b820191906000526020600020905b815481529060010190602001808311620023d057829003601f168201915b50505050508152602001600482018054620024099062003247565b80601f0160208091040260200160405190810160405280929190818152602001828054620024379062003247565b8015620024885780601f106200245c5761010080835404028352916020019162002488565b820191906000526020600020905b8154815290600101906020018083116200246a57829003601f168201915b50505091835250506005820154600160a060020a0316602080830191909152600683015460408084019190915260078401546060840152600880850154608085015260098086015460a0860152600a86015460c0860152600b9095015460ff808216151560e0870152610100918290041694019390935284516000908152939091528083208790558883529091206000199055805491925082918590811062002535576200253562003693565b60009182526020918290208351600c92909202019081559082015160018201556040820151600282018054600160a060020a031916600160a060020a0390921691909117905560608201516003820190620025919082620032f9565b5060808201516004820190620025a89082620032f9565b5060a0820151600582018054600160a060020a031916600160a060020a0390921691909117905560c0820151600682015560e08201516007808301919091556101008084015160088401556101208401516009840155610140840151600a840155610160840151600b90930180546101809095015161ffff1990951693151561ff0019169390931760ff90941602929092179055546200264a90600162002934565b6007556000610160830181905260ff8816610180840181905283518252600560209081526040808420600b8101805461ffff191661010090950294909417909355600a8054600181018255945285517fc65a7bb8d6351c1cf70c95a316cc6a92839c986682d98bc35f958f4883f9d2a8600c909502948501908155918601517fc65a7bb8d6351c1cf70c95a316cc6a92839c986682d98bc35f958f4883f9d2a98501558501517fc65a7bb8d6351c1cf70c95a316cc6a92839c986682d98bc35f958f4883f9d2aa84018054600160a060020a031916600160a060020a039092169190911790556060850151919285927fc65a7bb8d6351c1cf70c95a316cc6a92839c986682d98bc35f958f4883f9d2ab909101906200276a9082620032f9565b5060808201516004820190620027819082620032f9565b5060a0820151600582018054600160a060020a031916600160a060020a0390921691909117905560c0820151600682015560e08201516007820155610100808301516008808401919091556101208401516009840155610140840151600a840155610160840151600b90930180546101809095015161ffff1990951693151561ff0019169390931760ff90941690910292909217905580548062002829576200282962003824565b600082815260208120600c6000199093019283020181815560018101829055600281018054600160a060020a0319169055906200286a600383018262002950565b6200287a60048301600062002950565b50600581018054600160a060020a0319169055600060068201819055600782018190556008820181905560098201819055600a820155600b01805461ffff19169055905560408051878152600160a060020a038916602082015260ff8a16918101919091527f6997c325fd49bb5c188e78d03aee9a56052bffb3dcecb7d89cad3946cfc9b190906060016200154b565b6000600160045462001a4691906200383d565b60006200292b8284620036ac565b90505b92915050565b60006200292b82846200383d565b6109e9806200385483390190565b5080546200295e9062003247565b6000825580601f106200296f575050565b601f016020900490600052602060002090810190620019ac91905b80821115620029a057600081556001016200298a565b5090565b600060208284031215620029b757600080fd5b5035919050565b6000815180845260005b81811015620029e657602081850181015186830182015201620029c8565b506000602082860101526020601f19601f83011685010191505092915050565b60006101a08f83528e6020840152600160a060020a03808f16604085015281606085015262002a388285018f620029be565b9150838203608085015262002a4e828e620029be565b9250808c1660a085015250508860c08301528760e083015286610100830152856101208301528461014083015283151561016083015262002a9561018083018460ff169052565b9e9d5050505050505050505050505050565b600160a060020a0381168114620019ac57600080fd5b803562002aca8162002aa7565b919050565b60e060020a634e487b7102600052604160045260246000fd5b604051610120810167ffffffffffffffff8111828210171562002b0f5762002b0f62002acf565b60405290565b604051601f8201601f1916810167ffffffffffffffff8111828210171562002b415762002b4162002acf565b604052919050565b600082601f83011262002b5b57600080fd5b813567ffffffffffffffff81111562002b785762002b7862002acf565b62002b8d601f8201601f191660200162002b15565b81815284602083860101111562002ba357600080fd5b816020850160208301376000918101602001919091529392505050565b600080600080600060a0868803121562002bd957600080fd5b85359450602086013562002bed8162002aa7565b935060408601359250606086013567ffffffffffffffff8082111562002c1257600080fd5b62002c2089838a0162002b49565b9350608088013591508082111562002c3757600080fd5b5062002c468882890162002b49565b9150509295509295909350565b6000806000806080858703121562002c6a57600080fd5b843562002c778162002aa7565b935060208501359250604085013562002c908162002aa7565b9396929550929360600135925050565b805182526020810151600160a060020a03808216602085015280604084015116604085015280606084015116606085015250506080810151608083015260a081015162002cf860a0840182600160a060020a03169052565b5060c081015162002d1460c0840182600160a060020a03169052565b5060e081015160e08301526101008082015162002d348285018215159052565b50505050565b61012081016200292e828462002ca0565b60006020828403121562002d5e57600080fd5b813562002d6b8162002aa7565b9392505050565b60208082528251828201819052600091906040908185019080840286018301878501865b8381101562002e3a57603f1989840301855281516101008151855288820151818a87015262002dc882870182620029be565b838a0151878b0152606080850151908801526080808501519088015260a08085015160ff169088015260c080850151600160a060020a03169088015260e09384015193909250905062002e2581870184600160a060020a03169052565b50958801959350509086019060010162002d96565b509098975050505050505050565b803560ff8116811462002aca57600080fd5b6000806000806080858703121562002e7157600080fd5b843562002e7e8162002aa7565b935062002e8e6020860162002e48565b93969395505050506040820135916060013590565b6000610120600160a060020a03808d16845260ff8c1660208501528a6040850152808a16606085015281608085015262002ee08285018a620029be565b915083820360a085015262002ef68289620029be565b961660c0840152505060e0810192909252610100909101529695505050505050565b6020808252825182820181905260009190848201906040850190845b8181101562002f5f5762002f4a83855162002ca0565b92840192610120929092019160010162002f34565b50909695505050505050565b6000806040838503121562002f7f57600080fd5b823562002f8c8162002aa7565b946020939093013593505050565b60006101008a835280602084015262002fb68184018b620029be565b604084019990995250506060810195909552608085019390935260ff9190911660a0840152600160a060020a0390811660c08401521660e09091015292915050565b600081518084526020808501808196508284028101915082860160005b858110156200310a57828403895281516101a08151865286820151878701526040808301516200304f82890182600160a060020a03169052565b505060608083015182828901526200306a83890182620029be565b9250505060808083015187830382890152620030878382620029be565b9250505060a080830151620030a682890182600160a060020a03169052565b505060c0828101519087015260e08083015190870152610100808301519087015261012080830151908701526101408083015190870152610160808301511515908701526101809182015160ff169190950152978401979084019060010162003015565b5091979650505050505050565b60208152600082516040602084015262003135606084018262002ff8565b90506020840151601f1984830301604085015262003154828262002ff8565b95945050505050565b8015158114620019ac57600080fd5b803562002aca816200315d565b600061012082840312156200318d57600080fd5b6200319762002ae8565b82358152620031a96020840162002abd565b6020820152620031bc6040840162002abd565b6040820152620031cf6060840162002abd565b606082015260808301356080820152620031ec60a0840162002abd565b60a0820152620031ff60c0840162002abd565b60c082015260e083013560e08201526101006200321e8185016200316c565b908201529392505050565b6000602082840312156200323c57600080fd5b6200292b8262002e48565b6002810460018216806200325c57607f821691505b602082108103620032805760e060020a634e487b7102600052602260045260246000fd5b50919050565b6000602082840312156200329957600080fd5b815162002d6b8162002aa7565b601f821115620032f4576000818152602081206020601f86010481016020861015620032cf5750805b6020601f860104820191505b81811015620032f057828155600101620032db565b5050505b505050565b815167ffffffffffffffff81111562003316576200331662002acf565b6200332e8162003327845462003247565b84620032a6565b602080601f8311600181146200336a57600084156200334d5750858301515b60028086026008870290910a6000190419821617865550620032f0565b600085815260208120601f198616915b828110156200339b578886015182559484019460019091019084016200337a565b5085821015620033bc57878501516008601f88160260020a60001904191681555b5050505050600202600101905550565b805162002aca8162002aa7565b818103620033e5575050565b620033f1825462003247565b67ffffffffffffffff8111156200340c576200340c62002acf565b6200341d8162003327845462003247565b6000601f8211600181146200345857600083156200343b5750848201545b60028085026008860290910a6000190419821617855550620034c2565b600085815260209020601f19841690600086815260209020845b8381101562003494578286015482556001958601959091019060200162003472565b5085831015620034b557818501546008601f88160260020a60001904191681555b5050506001600284020184555b5050505050565b60008154620034d88162003247565b808552602060018381168015620034f85760018114620035125762003542565b60ff19851688840152831515830288018301955062003542565b866000528260002060005b858110156200353a5781548a82018601529083019084016200351d565b890184019650505b505050505092915050565b6020815281546020820152600182015460408201526000620035796002840154600160a060020a031690565b600160a060020a031660608301526101a060808301819052620035a46101c0840160038601620034c9565b838103601f190160a0850152620035bf8160048701620034c9565b9050620035d66005860154600160a060020a031690565b600160a060020a031660c0850152600685015460e085015260078501546101008086019190915260088601546101208601526009860154610140860152600a860154610160860152600b86015460ff811615156101808701529060ff910416919093015250919050565b83815260208101839052610160810162001096604083018462002ca0565b60e060020a634e487b7102600052601160045260246000fd5b6000600182016200368c576200368c6200365e565b5060010190565b60e060020a634e487b7102600052603260045260246000fd5b808201808211156200292e576200292e6200365e565b805162002aca816200315d565b60006020808385031215620036e357600080fd5b825167ffffffffffffffff80821115620036fc57600080fd5b818501915085601f8301126200371157600080fd5b81518181111562003726576200372662002acf565b62003735848583020162002b15565b81815284810192506101209182028401850191888311156200375657600080fd5b938501935b82851015620038185780858a031215620037755760008081fd5b6200377f62002ae8565b8551815262003790878701620033cc565b878201526040620037a3818801620033cc565b908201526060620037b6878201620033cc565b908201526080868101519082015260a0620037d3818801620033cc565b9082015260c0620037e6878201620033cc565b9082015260e0868101519082015261010062003804818801620036c2565b90820152845293840193928501926200375b565b50979650505050505050565b60e060020a634e487b7102600052603160045260246000fd5b818103818111156200292e576200292e6200365e56fe608060405234801561001057600080fd5b506040516109e93803806109e983398101604081905261002f9161020c565b6000805433600160a060020a03199182168117909255600a805461010060a860020a031916610100909302929092179091556001879055600280548216600160a060020a03888116918217909255600380548416888416908117909155600587905560078054851693871693909317909255600984905560048054909316821783556040517f70a082310000000000000000000000000000000000000000000000000000000081529283015284916370a0823190602401602060405180830381865afa158015610103573d6000803e3d6000fd5b505050506040513d601f19601f82011682018060405250810190610127919061026b565b10156101bb57604080517f08c379a00000000000000000000000000000000000000000000000000000000081526020600482015260248101919091527f706c6179657220312068617320696e73756666696369656e742062616c616e6360448201527f65206f6620746f6b656e203120746f206372656174652061206c697374696e67606482015260840160405180910390fd5b5060088054600160a060020a031916600160a060020a03929092169190911790555050600a805460ff19169055506102849050565b8051600160a060020a038116811461020757600080fd5b919050565b60008060008060008060c0878903121561022557600080fd5b86519550610235602088016101f0565b9450610243604088016101f0565b935060608701519250610258608088016101f0565b915060a087015190509295509295509295565b60006020828403121561027d57600080fd5b5051919050565b610756806102936000396000f3fe608060405234801561001057600080fd5b50600436106100d1576000357c010000000000000000000000000000000000000000000000000000000090048063c4e5edcd1161008e578063c4e5edcd14610176578063d21220a71461017f578063d30895e414610192578063d5488048146101a5578063d70c6703146101b8578063e2d46f98146101c157600080fd5b806302d05d3f146100d657806325be124e1461010657806358aaf0be1461011957806359a5f12d1461012c5780636f6ff4051461013f5780639405dfdd1461015f575b600080fd5b6000546100e990600160a060020a031681565b604051600160a060020a0390911681526020015b60405180910390f35b6007546100e990600160a060020a031681565b6008546100e990600160a060020a031681565b6006546100e990600160a060020a031681565b61015261014d366004610604565b6101de565b6040516100fd9190610634565b61016860015481565b6040519081526020016100fd565b61016860095481565b6003546100e990600160a060020a031681565b6002546100e990600160a060020a031681565b6004546100e990600160a060020a031681565b61016860055481565b600a546101ce9060ff1681565b60405190151581526020016100fd565b6040805161012081018252600080825260208201819052918101829052606081018290526080810182905260a0810182905260c0810182905260e08101829052610100810191909152600554600480546002546040517fdd62ed3e000000000000000000000000000000000000000000000000000000008152600160a060020a0391821693810193909352306024840152169063dd62ed3e90604401602060405180830381865afa158015610297573d6000803e3d6000fd5b505050506040513d601f19601f820116820180604052508101906102bb91906106e5565b1015610328576040517f08c379a000000000000000000000000000000000000000000000000000000000815260206004820152601960248201527f546f6b656e203120616c6c6f77616e636520746f6f206c6f770000000000000060448201526064015b60405180910390fd5b6009546008546040517fdd62ed3e000000000000000000000000000000000000000000000000000000008152600160a060020a0385811660048301523060248301529091169063dd62ed3e90604401602060405180830381865afa158015610394573d6000803e3d6000fd5b505050506040513d601f19601f820116820180604052508101906103b891906106e5565b1015610420576040517f08c379a000000000000000000000000000000000000000000000000000000000815260206004820152601960248201527f546f6b656e203220616c6c6f77616e636520746f6f206c6f7700000000000000604482015260640161031f565b60045460025460055461044292600160a060020a0390811692169085906104fc565b60085460025460095461046592600160a060020a039081169286929116906104fc565b506006805473ffffffffffffffffffffffffffffffffffffffff1916600160a060020a03928316908117909155600a805460ff1916600190811790915560408051610120810182528254815230602082015260025485169181019190915260035484166060820152600554608082015260a081019290925260075490921660c082015260095460e082015261010081019190915290565b6040517f23b872dd000000000000000000000000000000000000000000000000000000008152600160a060020a038481166004830152838116602483015260448201839052600091908616906323b872dd906064016020604051808303816000875af1158015610570573d6000803e3d6000fd5b505050506040513d601f19601f8201168201806040525081019061059491906106fe565b9050806105fd576040517f08c379a000000000000000000000000000000000000000000000000000000000815260206004820152601560248201527f546f6b656e207472616e73666572206661696c65640000000000000000000000604482015260640161031f565b5050505050565b60006020828403121561061657600080fd5b8135600160a060020a038116811461062d57600080fd5b9392505050565b600061012082019050825182526020830151600160a060020a0380821660208501528060408601511660408501525050606083015161067e6060840182600160a060020a03169052565b506080830151608083015260a08301516106a360a0840182600160a060020a03169052565b5060c08301516106be60c0840182600160a060020a03169052565b5060e083015160e0830152610100808401516106dd8285018215159052565b505092915050565b6000602082840312156106f757600080fd5b5051919050565b60006020828403121561071057600080fd5b8151801515811461062d57600080fdfea264697066735822122066b699f42a2ea5acf9ea5525debaed24c0fc4f8e9463bb92ae1fc7330c04736e64736f6c63430008110033a26469706673582212202f0bdd655066d271640845e93cba903e7e6af6fbd90af0b771e69a5c7091602364736f6c6343000811003360c0604052600b60809081527f4877616e674d61726b657400000000000000000000000000000000000000000060a0526003906200003e9082620001a2565b5060408051808201909152600581527f484d544b4e0000000000000000000000000000000000000000000000000000006020820152600490620000829082620001a2565b506005805460ff191660121790556000600655348015620000a257600080fd5b506007805433600160a060020a0319918216811790925560088054909116909117905562000275565b7f4e487b7100000000000000000000000000000000000000000000000000000000600052604160045260246000fd5b6002810460018216806200010f57607f821691505b60208210810362000149577f4e487b7100000000000000000000000000000000000000000000000000000000600052602260045260246000fd5b50919050565b601f8211156200019d576000818152602081206020601f86010481016020861015620001785750805b6020601f860104820191505b81811015620001995782815560010162000184565b5050505b505050565b815167ffffffffffffffff811115620001bf57620001bf620000cb565b620001d781620001d08454620000fa565b846200014f565b602080601f831160018114620002135760008415620001f65750858301515b60028086026008870290910a600019041982161786555062000199565b600085815260208120601f198616915b82811015620002445788860151825594840194600190910190840162000223565b50858210156200026557878501516008601f88160260020a60001904191681555b5050505050600202600101905550565b6114cf80620002856000396000f3fe60806040526004361061011c5760003560e060020a9004806370a08231116100a4578063ac5388c811610068578063ac5388c81461031b578063d270e7ab14610331578063dd62ed3e14610351578063de6a8dc514610389578063f16e4300146103a957600080fd5b806370a082311461026c57806395d89b41146102995780639ea3c820146102ae578063a9059cbb146102db578063a9e732bb146102fb57600080fd5b806318160ddd116100eb57806318160ddd146101d557806323b872dd146101eb578063313ce5671461020b57806340c10f191461023757806342966c681461024c57600080fd5b806302d05d3f1461012857806306fdde0314610165578063095ea7b31461018757806312065fe0146101b757600080fd5b3661012357005b600080fd5b34801561013457600080fd5b5060075461014890600160a060020a031681565b604051600160a060020a0390911681526020015b60405180910390f35b34801561017157600080fd5b5061017a6103be565b60405161015c9190611037565b34801561019357600080fd5b506101a76101a236600461109d565b61044c565b604051901515815260200161015c565b3480156101c357600080fd5b5030315b60405190815260200161015c565b3480156101e157600080fd5b506101c760005481565b3480156101f757600080fd5b506101a76102063660046110c9565b6104ed565b34801561021757600080fd5b506005546102259060ff1681565b60405160ff909116815260200161015c565b61024a61024536600461109d565b61069d565b005b34801561025857600080fd5b5061024a61026736600461110a565b610814565b34801561027857600080fd5b506101c7610287366004611123565b60016020526000908152604090205481565b3480156102a557600080fd5b5061017a6108ab565b3480156102ba57600080fd5b506102ce6102c9366004611123565b6108b8565b60405161015c9190611147565b3480156102e757600080fd5b506101a76102f636600461109d565b610ccd565b34801561030757600080fd5b5061024a61031636600461110a565b610d7b565b34801561032757600080fd5b506101c760065481565b34801561033d57600080fd5b5060085461014890600160a060020a031681565b34801561035d57600080fd5b506101c761036c3660046111f8565b600260209081526000928352604080842090915290825290205481565b34801561039557600080fd5b506102ce6103a4366004611231565b610ea1565b3480156103b557600080fd5b506101c7600181565b600380546103cb90611258565b80601f01602080910402602001604051908101604052809291908181526020018280546103f790611258565b80156104445780601f1061041957610100808354040283529160200191610444565b820191906000526020600020905b81548152906001019060200180831161042757829003601f168201915b505050505081565b336000908152600160205260408120548211156104875760405160e560020a62461bcd02815260040161047e90611295565b60405180910390fd5b336000818152600260209081526040808320600160a060020a03881680855290835292819020869055518581529192917f8c5be1e5ebec7d5bd14f71427d1e84f3dd0314c0f7b2291e5b200ac8c7c3b92591015b60405180910390a35060015b92915050565b600160a060020a03831660009081526002602090815260408083203384529091528120548211156105895760405160e560020a62461bcd02815260206004820152603360248201527f696e73756666696369656e7420616c6c6f77616e636520746f2072656369706960448201527f656e742066726f6d206d73672073656e64657200000000000000000000000000606482015260840161047e565b600160a060020a0384166000908152600160205260409020548211156105c45760405160e560020a62461bcd02815260040161047e90611295565b600160a060020a0384166000908152600260209081526040808320338452909152812080548492906105f79084906112e5565b9091555050600160a060020a038416600090815260016020526040812080548492906106249084906112e5565b9091555050600160a060020a038316600090815260016020526040812080548492906106519084906112f8565b9250508190555082600160a060020a031684600160a060020a031660008051602061147a8339815191528460405161068b91815260200190565b60405180910390a35060019392505050565b60006106aa60018061130b565b6106b49083611330565b90508034101561072f5760405160e560020a62461bcd02815260206004820152602a60248201527f496e73756666696369656e74206d73672076616c756520746f20636f7665722060448201527f65746820616d6f756e7400000000000000000000000000000000000000000000606482015260840161047e565b33318111156107835760405160e560020a62461bcd02815260206004820152601e60248201527f596f7520646f206e6f74206861766520656e6f7567682062616c616e63650000604482015260640161047e565b600160a060020a038316600090815260016020526040812080548492906107ab9084906112f8565b92505081905550816000808282546107c391906112f8565b9250508190555034600660008282546107dc91906112f8565b9091555050604051828152600160a060020a03841690309060008051602061147a8339815191529060200160405180910390a3505050565b336000908152600160205260409020548111156108465760405160e560020a62461bcd02815260040161047e90611295565b33600090815260016020526040812080548392906108659084906112e5565b925050819055508060008082825461087d91906112e5565b9091555050604051818152600090339060008051602061147a8339815191529060200160405180910390a350565b600480546103cb90611258565b6108c0610feb565b600082905030600160a060020a031681600160a060020a03166325be124e6040518163ffffffff1660e060020a028152600401602060405180830381865afa158015610910573d6000803e3d6000fd5b505050506040513d601f19601f820116820180604052508101906109349190611357565b600160a060020a03161461098d5760405160e560020a62461bcd02815260206004820181905260248201527f6c697374696e672077616e7473206120646966666572656e7420746f6b656e32604482015260640161047e565b80600160a060020a031663c4e5edcd6040518163ffffffff1660e060020a028152600401602060405180830381865afa1580156109ce573d6000803e3d6000fd5b505050506040513d601f19601f820116820180604052508101906109f29190611374565b336000908152600160205260409020541015610a235760405160e560020a62461bcd02815260040161047e90611295565b80600160a060020a031663c4e5edcd6040518163ffffffff1660e060020a028152600401602060405180830381865afa158015610a64573d6000803e3d6000fd5b505050506040513d601f19601f82011682018060405250810190610a889190611374565b336000818152600260209081526040808320600160a060020a03898116808652918452938290209590955580517fc4e5edcd00000000000000000000000000000000000000000000000000000000815290517f8c5be1e5ebec7d5bd14f71427d1e84f3dd0314c0f7b2291e5b200ac8c7c3b9259387169263c4e5edcd92600480820193918290030181865afa158015610b25573d6000803e3d6000fd5b505050506040513d601f19601f82011682018060405250810190610b499190611374565b60405190815260200160405180910390a36040517f6f6ff405000000000000000000000000000000000000000000000000000000008152336004820152600090600160a060020a03831690636f6ff40590602401610120604051808303816000875af1158015610bbd573d6000803e3d6000fd5b505050506040513d601f19601f82011682018060405250810190610be191906113d8565b9050600082600160a060020a03166302d05d3f6040518163ffffffff1660e060020a028152600401602060405180830381865afa158015610c26573d6000803e3d6000fd5b505050506040513d601f19601f82011682018060405250810190610c4a9190611357565b6040517fdc8046f0000000000000000000000000000000000000000000000000000000008152909150600160a060020a0382169063dc8046f090610c92908590600401611147565b600060405180830381600087803b158015610cac57600080fd5b505af1158015610cc0573d6000803e3d6000fd5b5093979650505050505050565b33600090815260016020526040812054821115610cff5760405160e560020a62461bcd02815260040161047e90611295565b3360009081526001602052604081208054849290610d1e9084906112e5565b9091555050600160a060020a03831660009081526001602052604081208054849290610d4b9084906112f8565b9091555050604051828152600160a060020a03841690339060008051602061147a833981519152906020016104db565b33600090815260016020526040902054811115610ddd5760405160e560020a62461bcd02815260206004820152601e60248201527f696e73756666696369656e742062616c616e636520696e20706c617965720000604482015260640161047e565b6000610dea60018061130b565b610df49083611330565b604051909150339082156108fc029083906000818181858888f19350505050158015610e24573d6000803e3d6000fd5b503360009081526001602052604081208054849290610e449084906112e5565b90915550506040518281523090339060008051602061147a8339815191529060200160405180910390a381600080828254610e7f91906112e5565b925050819055508060066000828254610e9891906112e5565b90915550505050565b610ea9610feb565b33600090815260016020526040902054841115610edb5760405160e560020a62461bcd02815260040161047e90611295565b6008546040517f2cd1adfe00000000000000000000000000000000000000000000000000000000815233600482015260248101869052600160a060020a038581166044830152606482018590526000921690632cd1adfe90608401610120604051808303816000875af1158015610f56573d6000803e3d6000fd5b505050506040513d601f19601f82011682018060405250810190610f7a91906113d8565b602080820151336000818152600284526040808220600160a060020a0385168084529552908190208a90555193945090927f8c5be1e5ebec7d5bd14f71427d1e84f3dd0314c0f7b2291e5b200ac8c7c3b92590610fda908a815260200190565b60405180910390a350949350505050565b6040805161012081018252600080825260208201819052918101829052606081018290526080810182905260a0810182905260c0810182905260e0810182905261010081019190915290565b600060208083528351808285015260005b8181101561106457858101830151858201604001528201611048565b506000604082860101526040601f19601f8301168501019250505092915050565b600160a060020a038116811461109a57600080fd5b50565b600080604083850312156110b057600080fd5b82356110bb81611085565b946020939093013593505050565b6000806000606084860312156110de57600080fd5b83356110e981611085565b925060208401356110f981611085565b929592945050506040919091013590565b60006020828403121561111c57600080fd5b5035919050565b60006020828403121561113557600080fd5b813561114081611085565b9392505050565b600061012082019050825182526020830151600160a060020a038082166020850152806040860151166040850152505060608301516111916060840182600160a060020a03169052565b506080830151608083015260a08301516111b660a0840182600160a060020a03169052565b5060c08301516111d160c0840182600160a060020a03169052565b5060e083015160e0830152610100808401516111f08285018215159052565b505092915050565b6000806040838503121561120b57600080fd5b823561121681611085565b9150602083013561122681611085565b809150509250929050565b60008060006060848603121561124657600080fd5b8335925060208401356110f981611085565b60028104600182168061126c57607f821691505b60208210810361128f5760e060020a634e487b7102600052602260045260246000fd5b50919050565b6020808252601e908201527f696e73756666696369656e742062616c616e636520696e2073656e6465720000604082015260600190565b60e060020a634e487b7102600052601160045260246000fd5b818103818111156104e7576104e76112cc565b808201808211156104e7576104e76112cc565b60008261132b5760e060020a634e487b7102600052601260045260246000fd5b500490565b80820281158282048414176104e7576104e76112cc565b805161135281611085565b919050565b60006020828403121561136957600080fd5b815161114081611085565b60006020828403121561138657600080fd5b5051919050565b604051610120810167ffffffffffffffff811182821017156113c25760e060020a634e487b7102600052604160045260246000fd5b60405290565b8051801515811461135257600080fd5b600061012082840312156113eb57600080fd5b6113f361138d565b8251815261140360208401611347565b602082015261141460408401611347565b604082015261142560608401611347565b60608201526080830151608082015261144060a08401611347565b60a082015261145160c08401611347565b60c082015260e083015160e082015261010061146e8185016113c8565b90820152939250505056feddf252ad1be2c89b69c2b068fc378daa952ba7f163c4a11628f55a4df523b3efa2646970667358221220cfb38a6cd5e24aa8c54ce7a6722f9e8d6a9b56b0153d6de328742149af12958464736f6c63430008110033608060405234801561001057600080fd5b50614d58806100206000396000f3fe608060405234801561001057600080fd5b5060043610610047577c01000000000000000000000000000000000000000000000000000000006000350463956a2a10811461004c575b600080fd5b61005f61005a36600461012a565b610088565b60405173ffffffffffffffffffffffffffffffffffffffff909116815260200160405180910390f35b60008484848460405161009a906100f4565b73ffffffffffffffffffffffffffffffffffffffff94851681526020810193909352921660408201526060810191909152608001604051809103906000f0801580156100ea573d6000803e3d6000fd5b5095945050505050565b614bb48061016f83390190565b803573ffffffffffffffffffffffffffffffffffffffff8116811461012557600080fd5b919050565b6000806000806080858703121561014057600080fd5b61014985610101565b93506020850135925061015e60408601610101565b939692955092936060013592505056fe60806040523480156200001157600080fd5b5060405162004bb438038062004bb483398101604081905262000034916200024f565b6000805460078054600160a060020a03888116600160a060020a031992831681179093556001889055600160b060020a03199093169091179092556004805490921690841617905560028190556040516103e890620000939062000224565b6060808252600b908201527f47616d654e6f546f6b656e000000000000000000000000000000000000000000608082015260a0602082018190526003908201527f474e54000000000000000000000000000000000000000000000000000000000060c0820152604081019190915260e001604051809103906000f08015801562000121573d6000803e3d6000fd5b5060098054600160a060020a0392909216600160a060020a03199283168117909155600880549092161790556040516103e8906200015f9062000224565b6060808252600c908201527f47616d65596573546f6b656e0000000000000000000000000000000000000000608082015260a0602082018190526003908201527f475954000000000000000000000000000000000000000000000000000000000060c0820152604081019190915260e001604051809103906000f080158015620001ed573d6000803e3d6000fd5b50600b8054600160a060020a0392909216600160a060020a03199283168117909155600a8054909216179055506200029892505050565b6115ad806200360783390190565b8051600160a060020a03811681146200024a57600080fd5b919050565b600080600080608085870312156200026657600080fd5b620002718562000232565b935060208501519250620002886040860162000232565b6060959095015193969295505050565b61335f80620002a86000396000f3fe60806040523480156200001157600080fd5b5060043610620001965760003560e060020a900480636e4d243a11620000f4578063d270e7ab11620000a7578063e07056af116200007e578063e07056af14620003ad578063e2cb747d14620003c4578063f91c2cbc14620003db578063f92a9e0914620003f457600080fd5b8063d270e7ab146200036e578063d6875f951462000382578063dc8046f0146200039657600080fd5b80636e4d243a14620003025780637256eba4146200030c578063846c6f4f14620003235780638e15f47314620003375780638f09cc8b1462000341578063ae73ccec146200035557600080fd5b80631746bd1b116200014d5780631746bd1b1462000255578063200d2ed214620002905780632cd1adfe14620002b457806341ef10c814620002da57806342cde4e814620002ee57806346b1df0414620002f857600080fd5b806302d05d3f146200019b578063053a2cfb14620001cc578063097cd6c914620001f057806312065fe0146200020957806314794702146200021b5780631486d6111462000232575b600080fd5b600054620001af90600160a060020a031681565b604051600160a060020a0390911681526020015b60405180910390f35b600054620001e19060a860020a900460ff1681565b604051620001c3919062001fc7565b620002076200020136600462001fdd565b620003fe565b005b30315b604051908152602001620001c3565b620002076200022c36600462001fdd565b620004f9565b6200020c6200024336600462001ff7565b60036020526000908152604090205481565b600054600154600254604051620001c393600160a060020a0381169360ff60a060020a830481169460a860020a909304169290919062002034565b600054620002a59060a060020a900460ff1681565b604051620001c3919062002075565b620002cb620002c5366004620020b0565b62000c7e565b604051620001c3919062002197565b600854620001af90600160a060020a031681565b6200020c60025481565b6200020c60115481565b6200020762000f0a565b620002076200031d366004620021ba565b62001042565b600a54620001af90600160a060020a031681565b6200020c620019eb565b600954620001af90600160a060020a031681565b6200035f62001a7f565b604051620001c39190620021fd565b600754620001af90600160a060020a031681565b600b54620001af90600160a060020a031681565b62000207620003a7366004620022e6565b62001b1b565b620001af620003be36600462001fdd565b62001be0565b6200020c620003d536600462002396565b62001c85565b620003e562001d44565b604051620001c39190620023b4565b6200020c60015481565b6000805474ff0000000000000000000000000000000000000000191660a060020a179055600280548190831262000436575060019050805b6000805483919075ff000000000000000000000000000000000000000000191660a860020a83600281111562000470576200047062001f97565b0217905550426001556007546040517fe362937d00000000000000000000000000000000000000000000000000000000815260ff83166004820152600160a060020a039091169063e362937d90602401600060405180830381600087803b158015620004db57600080fd5b505af1158015620004f0573d6000803e3d6000fd5b50505050505050565b600160005460a060020a900460ff1660018111156200051c576200051c62001f97565b14620005725760405160e560020a62461bcd02815260206004820152601660248201527f67616d65206973206e6f742079657420636c6f7365640000000000000000000060448201526064015b60405180910390fd5b6000805460a860020a900460ff16600281111562000594576200059462001f97565b03620005e65760405160e560020a62461bcd02815260206004820152601e60248201527f67616d65206f7574636f6d652063616e6e6f7420626520756e6b6e6f776e0000604482015260640162000569565b600954600160a060020a0316600160005460a860020a900460ff16600281111562000615576200061562001f97565b03620006295750600b54600160a060020a03165b6040517fdd62ed3e0000000000000000000000000000000000000000000000000000000081523360048201523060248201528290600160a060020a0383169063dd62ed3e90604401602060405180830381865afa1580156200068f573d6000803e3d6000fd5b505050506040513d601f19601f82011682018060405250810190620006b59190620024c4565b10156200072e5760405160e560020a62461bcd02815260206004820152602360248201527f706c61796572206d75737420617070726f766520776974686472617720616d6f60448201527f756e740000000000000000000000000000000000000000000000000000000000606482015260840162000569565b6040517f70a082310000000000000000000000000000000000000000000000000000000081523360048201528290600160a060020a038316906370a0823190602401602060405180830381865afa1580156200078e573d6000803e3d6000fd5b505050506040513d601f19601f82011682018060405250810190620007b49190620024c4565b10156200082d5760405160e560020a62461bcd02815260206004820152602e60248201527f706c61796572206d75737420686176652067616d6520746f6b656e20616d6f7560448201527f6e7420746f207769746864726177000000000000000000000000000000000000606482015260840162000569565b60028060005460a860020a900460ff16600281111562000851576200085162001f97565b036200085b575060015b6000836200086b600180620024f7565b6200087791906200251d565b90506000816003600085600281111562000895576200089562001f97565b6002811115620008a957620008a962001f97565b815260200190815260200160002054600360008060159054906101000a900460ff166002811115620008df57620008df62001f97565b6002811115620008f357620008f362001f97565b815260200190815260200160002054846200090f9190620024f7565b6200091b91906200251d565b62000927919062002537565b9050600760009054906101000a9004600160a060020a0316600160a060020a0316633fc15f156040518163ffffffff1660e060020a028152600401602060405180830381865afa15801562000980573d6000803e3d6000fd5b505050506040513d601f19601f82011682018060405250810190620009a691906200254d565b6040517fa9059cbb00000000000000000000000000000000000000000000000000000000815233600482015260248101839052600160a060020a03919091169063a9059cbb906044016020604051808303816000875af115801562000a0f573d6000803e3d6000fd5b505050506040513d601f19601f8201168201806040525081019062000a3591906200257a565b5062000a448433308862001e93565b6002600160005460a860020a900460ff16600281111562000a695762000a6962001f97565b0362000a73575060015b6040805160e08101825260068054825282518084018452600881527f57495448445241570000000000000000000000000000000000000000000000006020828101919091528301908152928201859052426060830181905260ff851660808401523060a08401523360c084015260058054600181018255600091909152835192027f036b6384b5eca791c62761152d0c79bb0604c104a5fb6f4eb0703f3154bb3db08101928355935190937f036b6384b5eca791c62761152d0c79bb0604c104a5fb6f4eb0703f3154bb3db1019062000b4d908262002628565b506040820151600282015560608201516003820155608082015160048201805460a085015160ff90931674ffffffffffffffffffffffffffffffffffffffffff1990911617610100600160a060020a039384160217905560c0909201516005909101805473ffffffffffffffffffffffffffffffffffffffff1916919092161790556006805490600062000be183620026fb565b90915550506007546040517f7976948800000000000000000000000000000000000000000000000000000000815233600482015260ff841660248201526044810185905260648101839052600160a060020a0390911690637976948890608401600060405180830381600087803b15801562000c5c57600080fd5b505af115801562000c71573d6000803e3d6000fd5b5050505050505050505050565b6040805161012081018252600080825260208201819052918101829052606081018290526080810182905260a0810182905260c0810182905260e08101829052610100810191909152600854600160a060020a031633148062000ceb5750600a54600160a060020a031633145b62000d625760405160e560020a62461bcd02815260206004820152602760248201527f6f6e6c792067616d6520746f6b656e2063616e20637265617465206e6577206c60448201527f697374696e677300000000000000000000000000000000000000000000000000606482015260840162000569565b60006011549050600081873388888860405162000d7f9062001f89565b958652600160a060020a03948516602087015292841660408601526060850191909152909116608083015260a082015260c001604051809103906000f08015801562000dcf573d6000803e3d6000fd5b506040805161012081018252848152600160a060020a0380841660208301528a811682840152336060830152608082018a9052600060a0830181905290891660c083015260e0820188905261010082015290517f070b5eb40000000000000000000000000000000000000000000000000000000081529192509073__IterableMapping_______________________9063070b5eb49062000e7a90600c908790869060040162002717565b60006040518083038186803b15801562000e9357600080fd5b505af415801562000ea8573d6000803e3d6000fd5b50506011805492509050600062000ebf83620026fb565b91905055507fd1fe3704bd3aa4f4974d5168e39528bbb86b19e98e5f798beea49af58df301398160405162000ef5919062002197565b60405180910390a1925050505b949350505050565b60015442108062000f3b5750600160005460a060020a900460ff16600181111562000f395762000f3962001f97565b145b1562000f4357565b6000805474ff0000000000000000000000000000000000000000191660a060020a17905560028054819062000f77620019eb565b1262000f84575060019050805b6000805483919075ff000000000000000000000000000000000000000000191660a860020a83600281111562000fbe5762000fbe62001f97565b02179055506007546040517fe362937d00000000000000000000000000000000000000000000000000000000815260ff83166004820152600160a060020a039091169063e362937d90602401600060405180830381600087803b1580156200102557600080fd5b505af11580156200103a573d6000803e3d6000fd5b505050505050565b60008060005460a060020a900460ff16600181111562001066576200106662001f97565b14620010de5760405160e560020a62461bcd02815260206004820152602860248201527f47616d6520697320636c6f7365642c206e6f206675727468657220626574732060448201527f6163636570746564000000000000000000000000000000000000000000000000606482015260840162000569565b8160ff1660011480620010f457508160ff166002145b620011455760405160e560020a62461bcd02815260206004820152601a60248201527f6265742073696465206973206e6f74207265636f676e69736564000000000000604482015260640162000569565b600154421115620011c25760405160e560020a62461bcd02815260206004820152602260248201527f63616e6e6f74207075742062657473206166746572207265736f6c766520746960448201527f6d65000000000000000000000000000000000000000000000000000000000000606482015260840162000569565b600754604080517f3fc15f1500000000000000000000000000000000000000000000000000000000815290518592600160a060020a031691633fc15f159160048083019260209291908290030181865afa15801562001225573d6000803e3d6000fd5b505050506040513d601f19601f820116820180604052508101906200124b91906200254d565b6040517fdd62ed3e000000000000000000000000000000000000000000000000000000008152600160a060020a038781166004830152306024830152919091169063dd62ed3e90604401602060405180830381865afa158015620012b3573d6000803e3d6000fd5b505050506040513d601f19601f82011682018060405250810190620012d99190620024c4565b1015620013525760405160e560020a62461bcd02815260206004820152602d60248201527f706c617965722773206877616e67206d61726b657420746f6b656e20616c6c6f60448201527f77616e636520746f6f206c6f7700000000000000000000000000000000000000606482015260840162000569565b600754604080517f3fc15f1500000000000000000000000000000000000000000000000000000000815290518592600160a060020a031691633fc15f159160048083019260209291908290030181865afa158015620013b5573d6000803e3d6000fd5b505050506040513d601f19601f82011682018060405250810190620013db91906200254d565b6040517f70a08231000000000000000000000000000000000000000000000000000000008152600160a060020a03878116600483015291909116906370a0823190602401602060405180830381865afa1580156200143d573d6000803e3d6000fd5b505050506040513d601f19601f82011682018060405250810190620014639190620024c4565b1015620014dc5760405160e560020a62461bcd02815260206004820152602b60248201527f706c617965722773206877616e67206d61726b657420746f6b656e2062616c6160448201527f6e636520746f6f206c6f77000000000000000000000000000000000000000000606482015260840162000569565b600260ff8316600103620014ee575060015b600954600160a060020a031660ff8416600103620015145750600b54600160a060020a03165b6000620015236001876200251d565b905081600160a060020a03166319d1997a6040518163ffffffff1660e060020a028152600401602060405180830381865afa15801562001567573d6000803e3d6000fd5b505050506040513d601f19601f820116820180604052508101906200158d9190620024c4565b8183600160a060020a03166318160ddd6040518163ffffffff1660e060020a028152600401602060405180830381865afa158015620015d0573d6000803e3d6000fd5b505050506040513d601f19601f82011682018060405250810190620015f69190620024c4565b62001602919062002537565b11156200167b5760405160e560020a62461bcd02815260206004820152602760248201527f67616d6520746f6b656e2063616e6e6f74206d696e742072657175657374656460448201527f20616d6f756e7400000000000000000000000000000000000000000000000000606482015260840162000569565b6040517f40c10f19000000000000000000000000000000000000000000000000000000008152600160a060020a038881166004830152602482018390528316906340c10f1990604401600060405180830381600087803b158015620016df57600080fd5b505af1158015620016f4573d6000803e3d6000fd5b5050505062001782600760009054906101000a9004600160a060020a0316600160a060020a0316633fc15f156040518163ffffffff1660e060020a028152600401602060405180830381865afa15801562001753573d6000803e3d6000fd5b505050506040513d601f19601f820116820180604052508101906200177991906200254d565b88308962001e93565b85600360008560028111156200179c576200179c62001f97565b6002811115620017b057620017b062001f97565b81526020019081526020016000206000828254620017cf919062002537565b90915550506040805160e08101825260068054825282518084018452600381527f42455400000000000000000000000000000000000000000000000000000000006020828101919091528301908152928201899052426060830181905260ff891660808401523060a0840152600160a060020a038b1660c084015260058054600181018255600091909152835192027f036b6384b5eca791c62761152d0c79bb0604c104a5fb6f4eb0703f3154bb3db08101928355935190937f036b6384b5eca791c62761152d0c79bb0604c104a5fb6f4eb0703f3154bb3db10190620018b7908262002628565b506040820151600282015560608201516003820155608082015160048201805460a085015160ff90931674ffffffffffffffffffffffffffffffffffffffffff1990911617610100600160a060020a039384160217905560c0909201516005909101805473ffffffffffffffffffffffffffffffffffffffff191691909216179055600680549060006200194b83620026fb565b90915550506007546040517f5039eb97000000000000000000000000000000000000000000000000000000008152600160a060020a038a8116600483015260ff89166024830152604482018a90526064820184905290911690635039eb9790608401600060405180830381600087803b158015620019c857600080fd5b505af1158015620019dd573d6000803e3d6000fd5b505050505050505050505050565b60048054604080517ffeaf968c00000000000000000000000000000000000000000000000000000000815290516000938493600160a060020a03169263feaf968c928183019260a0928290030181865afa15801562001a4e573d6000803e3d6000fd5b505050506040513d601f19601f8201168201806040525081019062001a74919062002750565b509195945050505050565b6040517f75a02c20000000000000000000000000000000000000000000000000000000008152600c600482015260609073__IterableMapping_______________________906375a02c2090602401600060405180830381865af415801562001aec573d6000803e3d6000fd5b505050506040513d6000823e601f3d908101601f1916820160405262001b16919081019062002863565b905090565b80516040517f070b5eb400000000000000000000000000000000000000000000000000000000815273__IterableMapping_______________________9163070b5eb49162001b7291600c91869060040162002717565b60006040518083038186803b15801562001b8b57600080fd5b505af415801562001ba0573d6000803e3d6000fd5b505050507f4758bcd8e425945eea731ed13074c209c3176197b970b6a78b278ad015ae90788160405162001bd5919062002197565b60405180910390a150565b6040517fd31c830c000000000000000000000000000000000000000000000000000000008152600c60048201526024810182905260009073__IterableMapping_______________________9063d31c830c9060440161012060405180830381865af415801562001c55573d6000803e3d6000fd5b505050506040513d601f19601f8201168201806040525081019062001c7b919062002920565b6020015192915050565b60008160ff166001148062001c9d57508160ff166002145b62001cee5760405160e560020a62461bcd02815260206004820152601a60248201527f73696465206d757374206265206f6e65206f662031206f722032000000000000604482015260640162000569565b600260ff831660010362001d00575060015b6003600082600281111562001d195762001d1962001f97565b600281111562001d2d5762001d2d62001f97565b815260200190815260200160002054915050919050565b60606005805480602002602001604051908101604052809291908181526020016000905b8282101562001e8a57838290600052602060002090600602016040518060e00160405290816000820154815260200160018201805462001da8906200259a565b80601f016020809104026020016040519081016040528092919081815260200182805462001dd6906200259a565b801562001e275780601f1062001dfb5761010080835404028352916020019162001e27565b820191906000526020600020905b81548152906001019060200180831162001e0957829003601f168201915b5050509183525050600282015460208083019190915260038301546040830152600483015460ff81166060840152600160a060020a036101009091048116608084015260059093015490921660a090910152908252600192909201910162001d68565b50505050905090565b6040517f23b872dd000000000000000000000000000000000000000000000000000000008152600160a060020a038481166004830152838116602483015260448201839052600091908616906323b872dd906064016020604051808303816000875af115801562001f08573d6000803e3d6000fd5b505050506040513d601f19601f8201168201806040525081019062001f2e91906200257a565b90508062001f825760405160e560020a62461bcd02815260206004820152601560248201527f546f6b656e207472616e73666572206661696c65640000000000000000000000604482015260640162000569565b5050505050565b6109e9806200294183390190565b60e060020a634e487b7102600052602160045260246000fd5b6003811062001fc35762001fc362001f97565b9052565b6020810162001fd7828462001fb0565b92915050565b60006020828403121562001ff057600080fd5b5035919050565b6000602082840312156200200a57600080fd5b8135600381106200201a57600080fd5b9392505050565b6002811062001fc35762001fc362001f97565b600160a060020a038616815260a0810162002053602083018762002021565b62002062604083018662001fb0565b6060820193909352608001529392505050565b6020810162001fd7828462002021565b600160a060020a03811681146200209b57600080fd5b50565b8035620020ab8162002085565b919050565b60008060008060808587031215620020c757600080fd5b8435620020d48162002085565b9350602085013592506040850135620020ed8162002085565b9396929550929360600135925050565b805182526020810151600160a060020a03808216602085015280604084015116604085015280606084015116606085015250506080810151608083015260a08101516200215560a0840182600160a060020a03169052565b5060c08101516200217160c0840182600160a060020a03169052565b5060e081015160e083015261010080820151620021918285018215159052565b50505050565b610120810162001fd78284620020fd565b803560ff81168114620020ab57600080fd5b600080600060608486031215620021d057600080fd5b8335620021dd8162002085565b925060208401359150620021f460408501620021a8565b90509250925092565b6020808252825182820181905260009190848201906040850190845b8181101562002244576200222f838551620020fd565b92840192610120929092019160010162002219565b50909695505050505050565b60e060020a634e487b7102600052604160045260246000fd5b604051610120810167ffffffffffffffff8111828210171562002290576200229062002250565b60405290565b604051601f8201601f1916810167ffffffffffffffff81118282101715620022c257620022c262002250565b604052919050565b80151581146200209b57600080fd5b8035620020ab81620022ca565b60006101208284031215620022fa57600080fd5b6200230462002269565b8235815262002316602084016200209e565b602082015262002329604084016200209e565b60408201526200233c606084016200209e565b6060820152608083013560808201526200235960a084016200209e565b60a08201526200236c60c084016200209e565b60c082015260e083013560e08201526101006200238b818501620022d9565b908201529392505050565b600060208284031215620023a957600080fd5b6200201a82620021a8565b6020808252825182820181905260009190604090818501908084028601830187850186805b84811015620024b557603f198a8503018652825160e08151865289820151818b880152805180838901528592505b8083101562002428578183018c01518884016101000152918b019162002407565b61010092508583828a0101528a8401518b89015260609150818401518289015260809150818401516200245f838a018260ff169052565b5060a09150818401516200247d838a0182600160a060020a03169052565b5060c093840151600160a060020a03811689860152939150988b0198601f01601f1916969096010194505091870191600101620023d9565b50919998505050505050505050565b600060208284031215620024d757600080fd5b5051919050565b60e060020a634e487b7102600052601160045260246000fd5b600082620025185760e060020a634e487b7102600052601260045260246000fd5b500490565b808202811582820484141762001fd75762001fd7620024de565b8082018082111562001fd75762001fd7620024de565b6000602082840312156200256057600080fd5b81516200201a8162002085565b8051620020ab81620022ca565b6000602082840312156200258d57600080fd5b81516200201a81620022ca565b600281046001821680620025af57607f821691505b602082108103620025d35760e060020a634e487b7102600052602260045260246000fd5b50919050565b601f82111562002623576000818152602081206020601f86010481016020861015620026025750805b6020601f860104820191505b818110156200103a578281556001016200260e565b505050565b815167ffffffffffffffff81111562002645576200264562002250565b6200265d816200265684546200259a565b84620025d9565b602080601f8311600181146200269957600084156200267c5750858301515b60028086026008870290910a60001904198216178655506200103a565b600085815260208120601f198616915b82811015620026ca57888601518255948401946001909101908401620026a9565b5085821015620026eb57878501516008601f88160260020a60001904191681555b5050505050600202600101905550565b600060018201620027105762002710620024de565b5060010190565b83815260208101839052610160810162000f026040830184620020fd565b805169ffffffffffffffffffff81168114620020ab57600080fd5b600080600080600060a086880312156200276957600080fd5b620027748662002735565b9450602086015193506040860151925060608601519150620027996080870162002735565b90509295509295909350565b8051620020ab8162002085565b60006101208284031215620027c657600080fd5b620027d062002269565b905081518152620027e460208301620027a5565b6020820152620027f760408301620027a5565b60408201526200280a60608301620027a5565b6060820152608082015160808201526200282760a08301620027a5565b60a08201526200283a60c08301620027a5565b60c082015260e082015160e0820152610100620028598184016200256d565b9082015292915050565b600060208083850312156200287757600080fd5b825167ffffffffffffffff808211156200289057600080fd5b818501915085601f830112620028a557600080fd5b815181811115620028ba57620028ba62002250565b620028c9848583020162002296565b8181528481019250610120918202840185019188831115620028ea57600080fd5b938501935b828510156200291457620029048986620027b2565b84529384019392850192620028ef565b50979650505050505050565b600061012082840312156200293457600080fd5b6200201a8383620027b256fe608060405234801561001057600080fd5b506040516109e93803806109e983398101604081905261002f9161020c565b6000805433600160a060020a03199182168117909255600a805461010060a860020a031916610100909302929092179091556001879055600280548216600160a060020a03888116918217909255600380548416888416908117909155600587905560078054851693871693909317909255600984905560048054909316821783556040517f70a082310000000000000000000000000000000000000000000000000000000081529283015284916370a0823190602401602060405180830381865afa158015610103573d6000803e3d6000fd5b505050506040513d601f19601f82011682018060405250810190610127919061026b565b10156101bb57604080517f08c379a00000000000000000000000000000000000000000000000000000000081526020600482015260248101919091527f706c6179657220312068617320696e73756666696369656e742062616c616e6360448201527f65206f6620746f6b656e203120746f206372656174652061206c697374696e67606482015260840160405180910390fd5b5060088054600160a060020a031916600160a060020a03929092169190911790555050600a805460ff19169055506102849050565b8051600160a060020a038116811461020757600080fd5b919050565b60008060008060008060c0878903121561022557600080fd5b86519550610235602088016101f0565b9450610243604088016101f0565b935060608701519250610258608088016101f0565b915060a087015190509295509295509295565b60006020828403121561027d57600080fd5b5051919050565b610756806102936000396000f3fe608060405234801561001057600080fd5b50600436106100d1576000357c010000000000000000000000000000000000000000000000000000000090048063c4e5edcd1161008e578063c4e5edcd14610176578063d21220a71461017f578063d30895e414610192578063d5488048146101a5578063d70c6703146101b8578063e2d46f98146101c157600080fd5b806302d05d3f146100d657806325be124e1461010657806358aaf0be1461011957806359a5f12d1461012c5780636f6ff4051461013f5780639405dfdd1461015f575b600080fd5b6000546100e990600160a060020a031681565b604051600160a060020a0390911681526020015b60405180910390f35b6007546100e990600160a060020a031681565b6008546100e990600160a060020a031681565b6006546100e990600160a060020a031681565b61015261014d366004610604565b6101de565b6040516100fd9190610634565b61016860015481565b6040519081526020016100fd565b61016860095481565b6003546100e990600160a060020a031681565b6002546100e990600160a060020a031681565b6004546100e990600160a060020a031681565b61016860055481565b600a546101ce9060ff1681565b60405190151581526020016100fd565b6040805161012081018252600080825260208201819052918101829052606081018290526080810182905260a0810182905260c0810182905260e08101829052610100810191909152600554600480546002546040517fdd62ed3e000000000000000000000000000000000000000000000000000000008152600160a060020a0391821693810193909352306024840152169063dd62ed3e90604401602060405180830381865afa158015610297573d6000803e3d6000fd5b505050506040513d601f19601f820116820180604052508101906102bb91906106e5565b1015610328576040517f08c379a000000000000000000000000000000000000000000000000000000000815260206004820152601960248201527f546f6b656e203120616c6c6f77616e636520746f6f206c6f770000000000000060448201526064015b60405180910390fd5b6009546008546040517fdd62ed3e000000000000000000000000000000000000000000000000000000008152600160a060020a0385811660048301523060248301529091169063dd62ed3e90604401602060405180830381865afa158015610394573d6000803e3d6000fd5b505050506040513d601f19601f820116820180604052508101906103b891906106e5565b1015610420576040517f08c379a000000000000000000000000000000000000000000000000000000000815260206004820152601960248201527f546f6b656e203220616c6c6f77616e636520746f6f206c6f7700000000000000604482015260640161031f565b60045460025460055461044292600160a060020a0390811692169085906104fc565b60085460025460095461046592600160a060020a039081169286929116906104fc565b506006805473ffffffffffffffffffffffffffffffffffffffff1916600160a060020a03928316908117909155600a805460ff1916600190811790915560408051610120810182528254815230602082015260025485169181019190915260035484166060820152600554608082015260a081019290925260075490921660c082015260095460e082015261010081019190915290565b6040517f23b872dd000000000000000000000000000000000000000000000000000000008152600160a060020a038481166004830152838116602483015260448201839052600091908616906323b872dd906064016020604051808303816000875af1158015610570573d6000803e3d6000fd5b505050506040513d601f19601f8201168201806040525081019061059491906106fe565b9050806105fd576040517f08c379a000000000000000000000000000000000000000000000000000000000815260206004820152601560248201527f546f6b656e207472616e73666572206661696c65640000000000000000000000604482015260640161031f565b5050505050565b60006020828403121561061657600080fd5b8135600160a060020a038116811461062d57600080fd5b9392505050565b600061012082019050825182526020830151600160a060020a0380821660208501528060408601511660408501525050606083015161067e6060840182600160a060020a03169052565b506080830151608083015260a08301516106a360a0840182600160a060020a03169052565b5060c08301516106be60c0840182600160a060020a03169052565b5060e083015160e0830152610100808401516106dd8285018215159052565b505092915050565b6000602082840312156106f757600080fd5b5051919050565b60006020828403121561071057600080fd5b8151801515811461062d57600080fdfea264697066735822122066b699f42a2ea5acf9ea5525debaed24c0fc4f8e9463bb92ae1fc7330c04736e64736f6c63430008110033a2646970667358221220a303c7be4ba9b0dd5d07671570e6fc2647652e8f8fb3affdce55638569f0a08664736f6c6343000811003360806040523480156200001157600080fd5b50604051620015ad380380620015ad833981016040819052620000349162000164565b60068054600160a060020a0319163317905560046200005484826200027f565b5060056200006383826200027f565b506000908155600155505060078054600160a060020a0319163317905562000351565b7f4e487b7100000000000000000000000000000000000000000000000000000000600052604160045260246000fd5b600082601f830112620000c757600080fd5b81516001604060020a0380821115620000e457620000e462000086565b604051601f8301601f19908116603f011681019082821181831017156200010f576200010f62000086565b816040528381526020925086838588010111156200012c57600080fd5b600091505b8382101562000150578582018301518183018401529082019062000131565b600093810190920192909252949350505050565b6000806000606084860312156200017a57600080fd5b83516001604060020a03808211156200019257600080fd5b620001a087838801620000b5565b94506020860151915080821115620001b757600080fd5b50620001c686828701620000b5565b925050604084015190509250925092565b600281046001821680620001ec57607f821691505b60208210810362000226577f4e487b7100000000000000000000000000000000000000000000000000000000600052602260045260246000fd5b50919050565b601f8211156200027a576000818152602081206020601f86010481016020861015620002555750805b6020601f860104820191505b81811015620002765782815560010162000261565b5050505b505050565b81516001604060020a038111156200029b576200029b62000086565b620002b381620002ac8454620001d7565b846200022c565b602080601f831160018114620002ef5760008415620002d25750858301515b60028086026008870290910a600019041982161786555062000276565b600085815260208120601f198616915b828110156200032057888601518255948401946001909101908401620002ff565b50858210156200034157878501516008601f88160260020a60001904191681555b5050505050600202600101905550565b61124c80620003616000396000f3fe608060405234801561001057600080fd5b50600436106100d35760003560e060020a9004806342966c68116100905780639ea3c8201161006a5780639ea3c8201461019c578063a9059cbb146101bc578063dd62ed3e146101cf578063de6a8dc5146101fa57600080fd5b806342966c681461016157806370a082311461017457806395d89b411461019457600080fd5b806306fdde03146100d8578063095ea7b3146100f657806318160ddd1461011957806319d1997a1461013057806323b872dd1461013957806340c10f191461014c575b600080fd5b6100e061020d565b6040516100ed9190610dae565b60405180910390f35b610109610104366004610e14565b61029b565b60405190151581526020016100ed565b61012260015481565b6040519081526020016100ed565b61012260005481565b610109610147366004610e40565b61033c565b61015f61015a366004610e14565b6104ec565b005b61015f61016f366004610e81565b61064c565b610122610182366004610e9a565b60026020526000908152604090205481565b6100e06106e4565b6101af6101aa366004610e9a565b6106f1565b6040516100ed9190610ebe565b6101096101ca366004610e14565b610b19565b6101226101dd366004610f6f565b600360209081526000928352604080842090915290825290205481565b6101af610208366004610fa8565b610bff565b6004805461021a90610fcf565b80601f016020809104026020016040519081016040528092919081815260200182805461024690610fcf565b80156102935780601f1061026857610100808354040283529160200191610293565b820191906000526020600020905b81548152906001019060200180831161027657829003601f168201915b505050505081565b336000908152600260205260408120548211156102d65760405160e560020a62461bcd0281526004016102cd90611022565b60405180910390fd5b336000818152600360209081526040808320600160a060020a03881680855290835292819020869055518581529192917f8c5be1e5ebec7d5bd14f71427d1e84f3dd0314c0f7b2291e5b200ac8c7c3b92591015b60405180910390a35060015b92915050565b600160a060020a03831660009081526003602090815260408083203384529091528120548211156103d85760405160e560020a62461bcd02815260206004820152602f60248201527f696e73756666696369656e7420616c6c6f77616e636520746f2072656369706960448201527f656e742066726f6d2073656e646572000000000000000000000000000000000060648201526084016102cd565b600160a060020a0384166000908152600260205260409020548211156104135760405160e560020a62461bcd0281526004016102cd90611022565b600160a060020a038416600090815260036020908152604080832033845290915281208054849290610446908490611088565b9091555050600160a060020a03841660009081526002602052604081208054849290610473908490611088565b9091555050600160a060020a038316600090815260026020526040812080548492906104a090849061109b565b9250508190555082600160a060020a031684600160a060020a03166000805160206111f7833981519152846040516104da91815260200190565b60405180910390a35060019392505050565b600654600160a060020a031633146105495760405160e560020a62461bcd02815260206004820152600e60248201527f4e6f7420617574686f72697a656400000000000000000000000000000000000060448201526064016102cd565b6000548160015461055a919061109b565b11156105d3576040805160e560020a62461bcd0281526020600482015260248101919091527f63616e6e6f74206d696e74207468652072657175657374656420616d6f756e7460448201527f206f6620746f6b656e732c20737570706c79206c696d697420746f6f206c6f7760648201526084016102cd565b600160a060020a038216600090815260026020526040812080548392906105fb90849061109b565b925050819055508060016000828254610614919061109b565b9091555050604051818152600160a060020a038316906000906000805160206111f78339815191529060200160405180910390a35050565b3360009081526002602052604090205481111561067e5760405160e560020a62461bcd0281526004016102cd90611022565b336000908152600260205260408120805483929061069d908490611088565b9250508190555080600160008282546106b69190611088565b909155505060405181815260009033906000805160206111f78339815191529060200160405180910390a350565b6005805461021a90610fcf565b6106f9610d62565b600082905030600160a060020a031681600160a060020a03166325be124e6040518163ffffffff1660e060020a028152600401602060405180830381865afa158015610749573d6000803e3d6000fd5b505050506040513d601f19601f8201168201806040525081019061076d91906110be565b600160a060020a0316146107c65760405160e560020a62461bcd02815260206004820181905260248201527f6c697374696e672077616e7473206120646966666572656e7420746f6b656e3260448201526064016102cd565b80600160a060020a031663c4e5edcd6040518163ffffffff1660e060020a028152600401602060405180830381865afa158015610807573d6000803e3d6000fd5b505050506040513d601f19601f8201168201806040525081019061082b91906110db565b33600090815260026020526040902054101561085c5760405160e560020a62461bcd0281526004016102cd90611022565b80600160a060020a031663c4e5edcd6040518163ffffffff1660e060020a028152600401602060405180830381865afa15801561089d573d6000803e3d6000fd5b505050506040513d601f19601f820116820180604052508101906108c191906110db565b336000908152600360209081526040808320600160a060020a0388168452909152812080549091906108f490849061109b565b9250508190555082600160a060020a031633600160a060020a03167f8c5be1e5ebec7d5bd14f71427d1e84f3dd0314c0f7b2291e5b200ac8c7c3b92583600160a060020a031663c4e5edcd6040518163ffffffff1660e060020a028152600401602060405180830381865afa158015610971573d6000803e3d6000fd5b505050506040513d601f19601f8201168201806040525081019061099591906110db565b60405190815260200160405180910390a36040517f6f6ff405000000000000000000000000000000000000000000000000000000008152336004820152600090600160a060020a03831690636f6ff40590602401610120604051808303816000875af1158015610a09573d6000803e3d6000fd5b505050506040513d601f19601f82011682018060405250810190610a2d9190611155565b9050600082600160a060020a03166302d05d3f6040518163ffffffff1660e060020a028152600401602060405180830381865afa158015610a72573d6000803e3d6000fd5b505050506040513d601f19601f82011682018060405250810190610a9691906110be565b6040517fdc8046f0000000000000000000000000000000000000000000000000000000008152909150600160a060020a0382169063dc8046f090610ade908590600401610ebe565b600060405180830381600087803b158015610af857600080fd5b505af1158015610b0c573d6000803e3d6000fd5b5093979650505050505050565b33600090815260026020526040812054821115610b4b5760405160e560020a62461bcd0281526004016102cd90611022565b3360009081526002602052604081208054849290610b6a908490611088565b9091555050600160a060020a03831660009081526002602052604081208054849290610b9790849061109b565b9091555050336000908152600360209081526040808320600160a060020a038716845290915281208054849290610bcf908490611088565b9091555050604051828152600160a060020a0384169033906000805160206111f78339815191529060200161032a565b610c07610d62565b33600090815260026020526040902054841115610c395760405160e560020a62461bcd0281526004016102cd90611022565b6007546040517f2cd1adfe00000000000000000000000000000000000000000000000000000000815233600482015260248101869052600160a060020a038581166044830152606482018590526000921690632cd1adfe90608401610120604051808303816000875af1158015610cb4573d6000803e3d6000fd5b505050506040513d601f19601f82011682018060405250810190610cd89190611155565b602080820151336000908152600383526040808220600160a060020a038416835290935291822080549394509092889290610d1490849061109b565b9091555050604051868152600160a060020a0382169033907f8c5be1e5ebec7d5bd14f71427d1e84f3dd0314c0f7b2291e5b200ac8c7c3b9259060200160405180910390a350949350505050565b6040805161012081018252600080825260208201819052918101829052606081018290526080810182905260a0810182905260c0810182905260e0810182905261010081019190915290565b600060208083528351808285015260005b81811015610ddb57858101830151858201604001528201610dbf565b506000604082860101526040601f19601f8301168501019250505092915050565b600160a060020a0381168114610e1157600080fd5b50565b60008060408385031215610e2757600080fd5b8235610e3281610dfc565b946020939093013593505050565b600080600060608486031215610e5557600080fd5b8335610e6081610dfc565b92506020840135610e7081610dfc565b929592945050506040919091013590565b600060208284031215610e9357600080fd5b5035919050565b600060208284031215610eac57600080fd5b8135610eb781610dfc565b9392505050565b600061012082019050825182526020830151600160a060020a03808216602085015280604086015116604085015250506060830151610f086060840182600160a060020a03169052565b506080830151608083015260a0830151610f2d60a0840182600160a060020a03169052565b5060c0830151610f4860c0840182600160a060020a03169052565b5060e083015160e083015261010080840151610f678285018215159052565b505092915050565b60008060408385031215610f8257600080fd5b8235610f8d81610dfc565b91506020830135610f9d81610dfc565b809150509250929050565b600080600060608486031215610fbd57600080fd5b833592506020840135610e7081610dfc565b600281046001821680610fe357607f821691505b60208210810361101c577f4e487b7100000000000000000000000000000000000000000000000000000000600052602260045260246000fd5b50919050565b6020808252601e908201527f696e73756666696369656e742062616c616e636520696e2073656e6465720000604082015260600190565b7f4e487b7100000000000000000000000000000000000000000000000000000000600052601160045260246000fd5b8181038181111561033657610336611059565b8082018082111561033657610336611059565b80516110b981610dfc565b919050565b6000602082840312156110d057600080fd5b8151610eb781610dfc565b6000602082840312156110ed57600080fd5b5051919050565b604051610120810167ffffffffffffffff8111828210171561113f577f4e487b7100000000000000000000000000000000000000000000000000000000600052604160045260246000fd5b60405290565b805180151581146110b957600080fd5b6000610120828403121561116857600080fd5b6111706110f4565b82518152611180602084016110ae565b6020820152611191604084016110ae565b60408201526111a2606084016110ae565b6060820152608083015160808201526111bd60a084016110ae565b60a08201526111ce60c084016110ae565b60c082015260e083015160e08201526101006111eb818501611145565b90820152939250505056feddf252ad1be2c89b69c2b068fc378daa952ba7f163c4a11628f55a4df523b3efa2646970667358221220bc41be6b1c0b46c13f4e05c51fc0bd1920b3fc6af4171d45c5921a9e2bbe0ada64736f6c63430008110033a264697066735822122007e1d43df930cbec16f051360d2b6ef9318ca3687078287849e774991e1256a364736f6c63430008110033",
  "immutableReferences": {},
  "source": "// SPDX-License-Identifier: MIT\npragma solidity >=0.4.22 <0.9.0;\n\nimport \"./MainToken.sol\";\nimport \"./IListingOwner.sol\";\nimport \"./GameContract.sol\";\nimport \"./GameContractFactory.sol\";\nimport \"./IterableMapping.sol\";\nimport \"./Models.sol\";\nimport \"@openzeppelin/contracts/utils/math/SafeMath.sol\";\nimport \"@openzeppelin/contracts/token/ERC20/IERC20.sol\";\n\ncontract HwangMarket is IListingOwner {\n  using IterableMapping for IterableMapping.ListingsMap;\n  using SafeMath for uint256;\n  address public mainTokenAddress;\n  MainToken public mainToken;\n\n  // game contract factory is used to reduce contract build size :(\n  GameContractFactory gameFactory;\n\n  // for all activity\n  uint256 private trxId;\n\n  // for all games created\n  uint256 private gameCount;\n  mapping(uint256 => Models.GameMetadata) public gameContractRegistry;\n  mapping(address => uint256) public gameAddr2Id;\n  \n  // for all ongoing games\n  uint256 private ongoingGamesCnt; // record end of ongoing games array\n  Models.GameMetadata[] public ongoingGames;\n  mapping(uint256 => int256) ongoingGamesId2Idx;\n\n  // for all closed games\n  Models.GameMetadata[] public closedGames;\n\n  // Activity types constant\n  string constant BetActivityType = \"BET\";\n  string constant WithdrawActivityType = \"WITHDRAW\";\n\n  mapping(address => Models.Activity[]) public playersRecords;\n\n  IterableMapping.ListingsMap private listingContracts;\n  uint256 public listingsCount;\n  \n  mapping(address => Models.TokenInfo) public gameTokensRegistry;\n  constructor() {\n    // we start counting from game 1, game id 0 is nonsense since its also default value\n    gameCount = 1;\n\n    mainToken = new MainToken();\n    mainTokenAddress = address(mainToken);\n    gameFactory = new GameContractFactory();\n  }\n\n  event GameCreated(Models.GameMetadata gameMetadata);\n  event PlayerJoinedGameEvent(address player, uint256 gameId, address gameAddr, uint8 betSide, uint256 amount);\n  event PlayerWithdrawedWinnings(address player, uint256 gameId, address gameAddr, uint8 betSide, uint256 withdrawedAmt);\n  event GameConcluded(uint256 gameId, address gameAddr, uint8 gameOutcome);\n  event NewListing(Models.ListingInfo listingInfo);\n  event ListingFulfilled(Models.ListingInfo listingInfo);\n\n  // create game contract instance\n  function createGame(uint256 resolveTime, address oracleAddr, int256 threshold, string memory tag, string memory title) public returns (address) {\n    GameContract newGame = gameFactory.createGame(address(this), resolveTime, oracleAddr, threshold); \n    address newGameAddress = address(newGame);\n    gameContractRegistry[gameCount] = Models.GameMetadata({\n      id: gameCount,\n      createdTime: block.timestamp,\n      addr: newGameAddress,\n      tag: tag,\n      title: title,\n      oracleAddr: oracleAddr,\n      resolveTime: resolveTime,\n      threshold: threshold,\n      totalAmount: 0,\n      betYesAmount: 0,\n      betNoAmount: 0,\n      ongoing: true,\n      gameOutcome: 0\n    });\n    gameTokensRegistry[newGame.gameYesTokenContractAddress()] = Models.TokenInfo({\n      tokenAddr: newGame.gameYesTokenContractAddress(),\n      betSide: 1,\n      gameId: gameCount,\n      gameAddr: newGameAddress,\n      gameTag: tag,\n      gameTitle: title,\n      gameOracleAddr: oracleAddr,\n      gameResolveTime: resolveTime,\n      gameThreshold: threshold\n    });\n    gameTokensRegistry[newGame.gameNoTokenContractAddress()] = Models.TokenInfo({\n      tokenAddr: newGame.gameNoTokenContractAddress(),\n      betSide: 0,\n      gameId: gameCount,\n      gameAddr: newGameAddress,\n      gameTag: tag,\n      gameTitle: title,\n      gameOracleAddr: oracleAddr,\n      gameResolveTime: resolveTime,\n      gameThreshold: threshold\n    });\n\n    gameAddr2Id[newGameAddress] = gameCount;\n\n    ongoingGamesId2Idx[gameCount] = int256(ongoingGamesCnt);\n    ongoingGames.push(gameContractRegistry[gameCount]);\n\n    ongoingGamesCnt = SafeMath.add(ongoingGamesCnt, 1);\n\n    emit GameCreated(gameContractRegistry[gameCount]);\n\n    gameCount = SafeMath.add(gameCount, 1);\n    return newGameAddress;\n  }\n\n  function getGameCount() public view returns (uint256) {\n    return gameCount-1; // [1, gameCount)\n  }\n\n  \n  // fetches all games\n  function getAllGames() public view returns (Models.AllGames memory) {\n    return Models.AllGames({ongoingGames: ongoingGames, closedGames: closedGames});\n  }\n\n  // creates a new listing, intended to be called by the IERC20 and IListableToken compliant token\n  function newListing(address player, uint256 token1Amt, address token2, uint256 token2Amt) external returns (Models.ListingInfo memory) {\n    require(msg.sender == mainTokenAddress, \"only main token can call\");\n    uint256 newListingId = listingsCount;\n    ListingContract newListingContract = new ListingContract(newListingId, player, msg.sender, token1Amt, token2, token2Amt);\n    Models.ListingInfo memory listingInfo = Models.ListingInfo({\n      listingId: newListingId,\n      listingAddr: address(newListingContract),\n      player1: player,\n      token1: msg.sender,\n      token1Amt: token1Amt,\n      player2: address(0),\n      token2: token2,\n      token2Amt: token2Amt,\n      fulfilled: false\n    });\n    listingContracts.set(newListingId, listingInfo);\n\n    listingsCount++;\n    emit NewListing(listingInfo);\n    return listingInfo;\n  }\n\n  function getAllListings() external view returns (Models.ListingInfo[] memory) {\n    return listingContracts.getlistingValues();\n  }\n\n  function updateListing(Models.ListingInfo memory listingInfo) public {\n    listingContracts.set(listingInfo.listingId, listingInfo);\n\n    emit ListingFulfilled(listingInfo);\n  }\n\n\n  // callable only by the game itself\n  // A player joined the game on a particular side\n  function playerJoinedSide(address player, uint8 betSide, uint256 amount, uint256 timestamp) external {\n    require(gameAddr2Id[msg.sender] != 0 && ongoingGamesId2Idx[gameAddr2Id[msg.sender]] != -1);\n    address gameAddr = msg.sender;\n    uint256 gameId = gameAddr2Id[gameAddr];\n    Models.GameMetadata storage game = gameContractRegistry[gameId];\n    Models.GameMetadata storage ongoingGameRef = ongoingGames[uint256(ongoingGamesId2Idx[gameId])];\n    game.totalAmount += amount;\n    ongoingGameRef.totalAmount += amount;\n    if (betSide == 2) {\n      game.betNoAmount += amount;\n      ongoingGameRef.betNoAmount += amount;\n    } else {\n      game.betYesAmount += amount;\n      ongoingGameRef.betYesAmount += amount;\n    }\n\n    // record this activity as well\n    playersRecords[player].push(Models.Activity({\n      trxId: trxId,\n      activityType: BetActivityType,\n      gameId: gameId,\n      trxAmt: amount,\n      trxTime: timestamp,\n      gameSide: betSide,\n      from: player,\n      to: gameAddr\n    }));\n\n    trxId = SafeMath.add(trxId, 1);\n\n    emit PlayerJoinedGameEvent(player, gameId, gameAddr, betSide, amount);\n  }\n\n  // callable only by contract\n  // note: withdraw winnings means recording player's owned game tokens -> hwang market tokens\n  function playerWithdrawWinnings(address _player, uint8 betSide, uint256 withdrawAmt, uint256 timestamp) external {\n    require(gameAddr2Id[msg.sender] != 0);\n    address gameAddr = msg.sender;\n    uint256 gameId = gameAddr2Id[gameAddr];\n    playersRecords[_player].push(Models.Activity({\n      trxId: trxId,\n      activityType: WithdrawActivityType,\n      gameId: gameId,\n      trxAmt: withdrawAmt,\n      trxTime: timestamp,\n      gameSide: betSide,\n      from: gameAddr,\n      to: _player\n    }));\n\n    trxId = SafeMath.add(trxId, 1);\n\n    emit PlayerWithdrawedWinnings(_player, gameId, gameAddr, betSide, withdrawAmt);\n  }\n\n  function concludeGame(uint8 gameOutcome) external {\n    require(gameAddr2Id[msg.sender] != 0);\n    address gameAddr = msg.sender;\n    uint256 gameId = gameAddr2Id[gameAddr];\n\n    // move game out of existing ongoing games\n    int256 temp = ongoingGamesId2Idx[gameId];\n    if (temp == -1) { // already concluded\n      return;\n    }\n    uint256 existingGameIdx = uint256(temp);\n    Models.GameMetadata memory finisedGame = ongoingGames[existingGameIdx];\n    Models.GameMetadata memory lastOngoingGame = ongoingGames[SafeMath.sub(ongoingGamesCnt, 1)];\n    ongoingGamesId2Idx[lastOngoingGame.id] = int256(existingGameIdx);\n    ongoingGamesId2Idx[gameId] = -1;\n    ongoingGames[existingGameIdx] = lastOngoingGame;\n    ongoingGamesCnt = SafeMath.sub(ongoingGamesCnt, 1);\n\n    // // update metadata for the game\n    finisedGame.ongoing = false;\n    finisedGame.gameOutcome = gameOutcome;\n\n    Models.GameMetadata storage g = gameContractRegistry[finisedGame.id];\n    g.ongoing = false;\n    g.gameOutcome = gameOutcome;\n\n    // add this game to array of closedGames\n    closedGames.push(finisedGame);\n    ongoingGames.pop();\n\n    emit GameConcluded(gameId, gameAddr, gameOutcome);\n  }\n\n  // to get smart contract's balance\n  function getBalance() public view returns (uint256) {\n    return address(this).balance;\n  }\n\n  function getPlayersTrxRecords(address player) public view returns (Models.Activity[] memory) {\n    return playersRecords[player];\n  }\n\n  function checkAllOngoingGamesUpkeep() external {\n    for (uint256 i=0; i<ongoingGamesCnt; i++) {\n      Models.GameMetadata storage game = ongoingGames[i];\n      GameContract gameContract = GameContract(game.addr);\n      gameContract.performUpkeep();\n    }\n  }\n}\n",
  "sourcePath": "/Users/gerald/Desktop/HwangMarket/contracts/HwangMarket.sol",
  "compiler": {
    "name": "solc",
    "version": "0.8.17+commit.8df45f5f.Emscripten.clang"
  },
  "schemaVersion": "3.4.10",
  "updatedAt": "2022-11-01T18:58:56.623Z",
  "networkType": "ethereum",
  "devdoc": {
    "kind": "dev",
    "methods": {},
    "version": 1
  },
  "userdoc": {
    "kind": "user",
    "methods": {},
    "version": 1
  }
}