{
  "contractName": "HwangMarket",
  "abi": [
    {
      "inputs": [],
      "stateMutability": "nonpayable",
      "type": "constructor"
    },
    {
      "anonymous": false,
      "inputs": [
        {
          "indexed": false,
          "internalType": "uint256",
          "name": "gameId",
          "type": "uint256"
        },
        {
          "indexed": false,
          "internalType": "address",
          "name": "gameAddr",
          "type": "address"
        },
        {
          "indexed": false,
          "internalType": "uint8",
          "name": "gameOutcome",
          "type": "uint8"
        }
      ],
      "name": "GameConcluded",
      "type": "event"
    },
    {
      "anonymous": false,
      "inputs": [
        {
          "components": [
            {
              "internalType": "uint256",
              "name": "id",
              "type": "uint256"
            },
            {
              "internalType": "uint256",
              "name": "createdTime",
              "type": "uint256"
            },
            {
              "internalType": "address",
              "name": "addr",
              "type": "address"
            },
            {
              "internalType": "string",
              "name": "tag",
              "type": "string"
            },
            {
              "internalType": "string",
              "name": "title",
              "type": "string"
            },
            {
              "internalType": "address",
              "name": "oracleAddr",
              "type": "address"
            },
            {
              "internalType": "uint256",
              "name": "resolveTime",
              "type": "uint256"
            },
            {
              "internalType": "int256",
              "name": "threshold",
              "type": "int256"
            },
            {
              "internalType": "uint256",
              "name": "totalAmount",
              "type": "uint256"
            },
            {
              "internalType": "uint256",
              "name": "betYesAmount",
              "type": "uint256"
            },
            {
              "internalType": "uint256",
              "name": "betNoAmount",
              "type": "uint256"
            },
            {
              "internalType": "bool",
              "name": "ongoing",
              "type": "bool"
            },
            {
              "internalType": "uint8",
              "name": "gameOutcome",
              "type": "uint8"
            }
          ],
          "indexed": false,
          "internalType": "struct Models.GameMetadata",
          "name": "gameMetadata",
          "type": "tuple"
        }
      ],
      "name": "GameCreated",
      "type": "event"
    },
    {
      "anonymous": false,
      "inputs": [
        {
          "components": [
            {
              "internalType": "uint256",
              "name": "listingId",
              "type": "uint256"
            },
            {
              "internalType": "address",
              "name": "listingAddr",
              "type": "address"
            },
            {
              "internalType": "address",
              "name": "player1",
              "type": "address"
            },
            {
              "internalType": "address",
              "name": "token1",
              "type": "address"
            },
            {
              "internalType": "uint256",
              "name": "token1Amt",
              "type": "uint256"
            },
            {
              "internalType": "address",
              "name": "player2",
              "type": "address"
            },
            {
              "internalType": "address",
              "name": "token2",
              "type": "address"
            },
            {
              "internalType": "uint256",
              "name": "token2Amt",
              "type": "uint256"
            },
            {
              "internalType": "bool",
              "name": "fulfilled",
              "type": "bool"
            }
          ],
          "indexed": false,
          "internalType": "struct Models.ListingInfo",
          "name": "listingInfo",
          "type": "tuple"
        }
      ],
      "name": "ListingFulfilled",
      "type": "event"
    },
    {
      "anonymous": false,
      "inputs": [
        {
          "components": [
            {
              "internalType": "uint256",
              "name": "listingId",
              "type": "uint256"
            },
            {
              "internalType": "address",
              "name": "listingAddr",
              "type": "address"
            },
            {
              "internalType": "address",
              "name": "player1",
              "type": "address"
            },
            {
              "internalType": "address",
              "name": "token1",
              "type": "address"
            },
            {
              "internalType": "uint256",
              "name": "token1Amt",
              "type": "uint256"
            },
            {
              "internalType": "address",
              "name": "player2",
              "type": "address"
            },
            {
              "internalType": "address",
              "name": "token2",
              "type": "address"
            },
            {
              "internalType": "uint256",
              "name": "token2Amt",
              "type": "uint256"
            },
            {
              "internalType": "bool",
              "name": "fulfilled",
              "type": "bool"
            }
          ],
          "indexed": false,
          "internalType": "struct Models.ListingInfo",
          "name": "listingInfo",
          "type": "tuple"
        }
      ],
      "name": "NewListing",
      "type": "event"
    },
    {
      "anonymous": false,
      "inputs": [
        {
          "indexed": false,
          "internalType": "address",
          "name": "player",
          "type": "address"
        },
        {
          "indexed": false,
          "internalType": "uint256",
          "name": "gameId",
          "type": "uint256"
        },
        {
          "indexed": false,
          "internalType": "address",
          "name": "gameAddr",
          "type": "address"
        },
        {
          "indexed": false,
          "internalType": "uint8",
          "name": "betSide",
          "type": "uint8"
        },
        {
          "indexed": false,
          "internalType": "uint256",
          "name": "amount",
          "type": "uint256"
        }
      ],
      "name": "PlayerJoinedGameEvent",
      "type": "event"
    },
    {
      "anonymous": false,
      "inputs": [
        {
          "indexed": false,
          "internalType": "address",
          "name": "player",
          "type": "address"
        },
        {
          "indexed": false,
          "internalType": "uint256",
          "name": "gameId",
          "type": "uint256"
        },
        {
          "indexed": false,
          "internalType": "address",
          "name": "gameAddr",
          "type": "address"
        },
        {
          "indexed": false,
          "internalType": "uint8",
          "name": "betSide",
          "type": "uint8"
        },
        {
          "indexed": false,
          "internalType": "uint256",
          "name": "withdrawedAmt",
          "type": "uint256"
        }
      ],
      "name": "PlayerWithdrawedWinnings",
      "type": "event"
    },
    {
      "inputs": [
        {
          "internalType": "uint256",
          "name": "",
          "type": "uint256"
        }
      ],
      "name": "closedGames",
      "outputs": [
        {
          "internalType": "uint256",
          "name": "id",
          "type": "uint256"
        },
        {
          "internalType": "uint256",
          "name": "createdTime",
          "type": "uint256"
        },
        {
          "internalType": "address",
          "name": "addr",
          "type": "address"
        },
        {
          "internalType": "string",
          "name": "tag",
          "type": "string"
        },
        {
          "internalType": "string",
          "name": "title",
          "type": "string"
        },
        {
          "internalType": "address",
          "name": "oracleAddr",
          "type": "address"
        },
        {
          "internalType": "uint256",
          "name": "resolveTime",
          "type": "uint256"
        },
        {
          "internalType": "int256",
          "name": "threshold",
          "type": "int256"
        },
        {
          "internalType": "uint256",
          "name": "totalAmount",
          "type": "uint256"
        },
        {
          "internalType": "uint256",
          "name": "betYesAmount",
          "type": "uint256"
        },
        {
          "internalType": "uint256",
          "name": "betNoAmount",
          "type": "uint256"
        },
        {
          "internalType": "bool",
          "name": "ongoing",
          "type": "bool"
        },
        {
          "internalType": "uint8",
          "name": "gameOutcome",
          "type": "uint8"
        }
      ],
      "stateMutability": "view",
      "type": "function",
      "constant": true
    },
    {
      "inputs": [
        {
          "internalType": "address",
          "name": "",
          "type": "address"
        }
      ],
      "name": "gameAddr2Id",
      "outputs": [
        {
          "internalType": "uint256",
          "name": "",
          "type": "uint256"
        }
      ],
      "stateMutability": "view",
      "type": "function",
      "constant": true
    },
    {
      "inputs": [
        {
          "internalType": "uint256",
          "name": "",
          "type": "uint256"
        }
      ],
      "name": "gameContractRegistry",
      "outputs": [
        {
          "internalType": "uint256",
          "name": "id",
          "type": "uint256"
        },
        {
          "internalType": "uint256",
          "name": "createdTime",
          "type": "uint256"
        },
        {
          "internalType": "address",
          "name": "addr",
          "type": "address"
        },
        {
          "internalType": "string",
          "name": "tag",
          "type": "string"
        },
        {
          "internalType": "string",
          "name": "title",
          "type": "string"
        },
        {
          "internalType": "address",
          "name": "oracleAddr",
          "type": "address"
        },
        {
          "internalType": "uint256",
          "name": "resolveTime",
          "type": "uint256"
        },
        {
          "internalType": "int256",
          "name": "threshold",
          "type": "int256"
        },
        {
          "internalType": "uint256",
          "name": "totalAmount",
          "type": "uint256"
        },
        {
          "internalType": "uint256",
          "name": "betYesAmount",
          "type": "uint256"
        },
        {
          "internalType": "uint256",
          "name": "betNoAmount",
          "type": "uint256"
        },
        {
          "internalType": "bool",
          "name": "ongoing",
          "type": "bool"
        },
        {
          "internalType": "uint8",
          "name": "gameOutcome",
          "type": "uint8"
        }
      ],
      "stateMutability": "view",
      "type": "function",
      "constant": true
    },
    {
      "inputs": [
        {
          "internalType": "address",
          "name": "",
          "type": "address"
        }
      ],
      "name": "gameTokensRegistry",
      "outputs": [
        {
          "internalType": "address",
          "name": "tokenAddr",
          "type": "address"
        },
        {
          "internalType": "uint8",
          "name": "betSide",
          "type": "uint8"
        },
        {
          "internalType": "uint256",
          "name": "gameId",
          "type": "uint256"
        },
        {
          "internalType": "address",
          "name": "gameAddr",
          "type": "address"
        },
        {
          "internalType": "string",
          "name": "gameTag",
          "type": "string"
        },
        {
          "internalType": "string",
          "name": "gameTitle",
          "type": "string"
        },
        {
          "internalType": "address",
          "name": "gameOracleAddr",
          "type": "address"
        },
        {
          "internalType": "uint256",
          "name": "gameResolveTime",
          "type": "uint256"
        },
        {
          "internalType": "int256",
          "name": "gameThreshold",
          "type": "int256"
        }
      ],
      "stateMutability": "view",
      "type": "function",
      "constant": true
    },
    {
      "inputs": [],
      "name": "listingsCount",
      "outputs": [
        {
          "internalType": "uint256",
          "name": "",
          "type": "uint256"
        }
      ],
      "stateMutability": "view",
      "type": "function",
      "constant": true
    },
    {
      "inputs": [],
      "name": "mainToken",
      "outputs": [
        {
          "internalType": "contract MainToken",
          "name": "",
          "type": "address"
        }
      ],
      "stateMutability": "view",
      "type": "function",
      "constant": true
    },
    {
      "inputs": [],
      "name": "mainTokenAddress",
      "outputs": [
        {
          "internalType": "address",
          "name": "",
          "type": "address"
        }
      ],
      "stateMutability": "view",
      "type": "function",
      "constant": true
    },
    {
      "inputs": [
        {
          "internalType": "uint256",
          "name": "",
          "type": "uint256"
        }
      ],
      "name": "ongoingGames",
      "outputs": [
        {
          "internalType": "uint256",
          "name": "id",
          "type": "uint256"
        },
        {
          "internalType": "uint256",
          "name": "createdTime",
          "type": "uint256"
        },
        {
          "internalType": "address",
          "name": "addr",
          "type": "address"
        },
        {
          "internalType": "string",
          "name": "tag",
          "type": "string"
        },
        {
          "internalType": "string",
          "name": "title",
          "type": "string"
        },
        {
          "internalType": "address",
          "name": "oracleAddr",
          "type": "address"
        },
        {
          "internalType": "uint256",
          "name": "resolveTime",
          "type": "uint256"
        },
        {
          "internalType": "int256",
          "name": "threshold",
          "type": "int256"
        },
        {
          "internalType": "uint256",
          "name": "totalAmount",
          "type": "uint256"
        },
        {
          "internalType": "uint256",
          "name": "betYesAmount",
          "type": "uint256"
        },
        {
          "internalType": "uint256",
          "name": "betNoAmount",
          "type": "uint256"
        },
        {
          "internalType": "bool",
          "name": "ongoing",
          "type": "bool"
        },
        {
          "internalType": "uint8",
          "name": "gameOutcome",
          "type": "uint8"
        }
      ],
      "stateMutability": "view",
      "type": "function",
      "constant": true
    },
    {
      "inputs": [
        {
          "internalType": "address",
          "name": "",
          "type": "address"
        },
        {
          "internalType": "uint256",
          "name": "",
          "type": "uint256"
        }
      ],
      "name": "playersRecords",
      "outputs": [
        {
          "internalType": "uint256",
          "name": "trxId",
          "type": "uint256"
        },
        {
          "internalType": "string",
          "name": "activityType",
          "type": "string"
        },
        {
          "internalType": "uint256",
          "name": "gameId",
          "type": "uint256"
        },
        {
          "internalType": "uint256",
          "name": "trxAmt",
          "type": "uint256"
        },
        {
          "internalType": "uint256",
          "name": "trxTime",
          "type": "uint256"
        },
        {
          "internalType": "uint8",
          "name": "gameSide",
          "type": "uint8"
        },
        {
          "internalType": "address",
          "name": "from",
          "type": "address"
        },
        {
          "internalType": "address",
          "name": "to",
          "type": "address"
        }
      ],
      "stateMutability": "view",
      "type": "function",
      "constant": true
    },
    {
      "inputs": [
        {
          "internalType": "uint256",
          "name": "resolveTime",
          "type": "uint256"
        },
        {
          "internalType": "address",
          "name": "oracleAddr",
          "type": "address"
        },
        {
          "internalType": "int256",
          "name": "threshold",
          "type": "int256"
        },
        {
          "internalType": "string",
          "name": "tag",
          "type": "string"
        },
        {
          "internalType": "string",
          "name": "title",
          "type": "string"
        }
      ],
      "name": "createGame",
      "outputs": [
        {
          "internalType": "address",
          "name": "",
          "type": "address"
        }
      ],
      "stateMutability": "nonpayable",
      "type": "function"
    },
    {
      "inputs": [],
      "name": "getGameCount",
      "outputs": [
        {
          "internalType": "uint256",
          "name": "",
          "type": "uint256"
        }
      ],
      "stateMutability": "view",
      "type": "function",
      "constant": true
    },
    {
      "inputs": [],
      "name": "getAllGames",
      "outputs": [
        {
          "components": [
            {
              "components": [
                {
                  "internalType": "uint256",
                  "name": "id",
                  "type": "uint256"
                },
                {
                  "internalType": "uint256",
                  "name": "createdTime",
                  "type": "uint256"
                },
                {
                  "internalType": "address",
                  "name": "addr",
                  "type": "address"
                },
                {
                  "internalType": "string",
                  "name": "tag",
                  "type": "string"
                },
                {
                  "internalType": "string",
                  "name": "title",
                  "type": "string"
                },
                {
                  "internalType": "address",
                  "name": "oracleAddr",
                  "type": "address"
                },
                {
                  "internalType": "uint256",
                  "name": "resolveTime",
                  "type": "uint256"
                },
                {
                  "internalType": "int256",
                  "name": "threshold",
                  "type": "int256"
                },
                {
                  "internalType": "uint256",
                  "name": "totalAmount",
                  "type": "uint256"
                },
                {
                  "internalType": "uint256",
                  "name": "betYesAmount",
                  "type": "uint256"
                },
                {
                  "internalType": "uint256",
                  "name": "betNoAmount",
                  "type": "uint256"
                },
                {
                  "internalType": "bool",
                  "name": "ongoing",
                  "type": "bool"
                },
                {
                  "internalType": "uint8",
                  "name": "gameOutcome",
                  "type": "uint8"
                }
              ],
              "internalType": "struct Models.GameMetadata[]",
              "name": "ongoingGames",
              "type": "tuple[]"
            },
            {
              "components": [
                {
                  "internalType": "uint256",
                  "name": "id",
                  "type": "uint256"
                },
                {
                  "internalType": "uint256",
                  "name": "createdTime",
                  "type": "uint256"
                },
                {
                  "internalType": "address",
                  "name": "addr",
                  "type": "address"
                },
                {
                  "internalType": "string",
                  "name": "tag",
                  "type": "string"
                },
                {
                  "internalType": "string",
                  "name": "title",
                  "type": "string"
                },
                {
                  "internalType": "address",
                  "name": "oracleAddr",
                  "type": "address"
                },
                {
                  "internalType": "uint256",
                  "name": "resolveTime",
                  "type": "uint256"
                },
                {
                  "internalType": "int256",
                  "name": "threshold",
                  "type": "int256"
                },
                {
                  "internalType": "uint256",
                  "name": "totalAmount",
                  "type": "uint256"
                },
                {
                  "internalType": "uint256",
                  "name": "betYesAmount",
                  "type": "uint256"
                },
                {
                  "internalType": "uint256",
                  "name": "betNoAmount",
                  "type": "uint256"
                },
                {
                  "internalType": "bool",
                  "name": "ongoing",
                  "type": "bool"
                },
                {
                  "internalType": "uint8",
                  "name": "gameOutcome",
                  "type": "uint8"
                }
              ],
              "internalType": "struct Models.GameMetadata[]",
              "name": "closedGames",
              "type": "tuple[]"
            }
          ],
          "internalType": "struct Models.AllGames",
          "name": "",
          "type": "tuple"
        }
      ],
      "stateMutability": "view",
      "type": "function",
      "constant": true
    },
    {
      "inputs": [
        {
          "internalType": "address",
          "name": "player",
          "type": "address"
        },
        {
          "internalType": "uint256",
          "name": "token1Amt",
          "type": "uint256"
        },
        {
          "internalType": "address",
          "name": "token2",
          "type": "address"
        },
        {
          "internalType": "uint256",
          "name": "token2Amt",
          "type": "uint256"
        }
      ],
      "name": "newListing",
      "outputs": [
        {
          "components": [
            {
              "internalType": "uint256",
              "name": "listingId",
              "type": "uint256"
            },
            {
              "internalType": "address",
              "name": "listingAddr",
              "type": "address"
            },
            {
              "internalType": "address",
              "name": "player1",
              "type": "address"
            },
            {
              "internalType": "address",
              "name": "token1",
              "type": "address"
            },
            {
              "internalType": "uint256",
              "name": "token1Amt",
              "type": "uint256"
            },
            {
              "internalType": "address",
              "name": "player2",
              "type": "address"
            },
            {
              "internalType": "address",
              "name": "token2",
              "type": "address"
            },
            {
              "internalType": "uint256",
              "name": "token2Amt",
              "type": "uint256"
            },
            {
              "internalType": "bool",
              "name": "fulfilled",
              "type": "bool"
            }
          ],
          "internalType": "struct Models.ListingInfo",
          "name": "",
          "type": "tuple"
        }
      ],
      "stateMutability": "nonpayable",
      "type": "function"
    },
    {
      "inputs": [],
      "name": "getAllListings",
      "outputs": [
        {
          "components": [
            {
              "internalType": "uint256",
              "name": "listingId",
              "type": "uint256"
            },
            {
              "internalType": "address",
              "name": "listingAddr",
              "type": "address"
            },
            {
              "internalType": "address",
              "name": "player1",
              "type": "address"
            },
            {
              "internalType": "address",
              "name": "token1",
              "type": "address"
            },
            {
              "internalType": "uint256",
              "name": "token1Amt",
              "type": "uint256"
            },
            {
              "internalType": "address",
              "name": "player2",
              "type": "address"
            },
            {
              "internalType": "address",
              "name": "token2",
              "type": "address"
            },
            {
              "internalType": "uint256",
              "name": "token2Amt",
              "type": "uint256"
            },
            {
              "internalType": "bool",
              "name": "fulfilled",
              "type": "bool"
            }
          ],
          "internalType": "struct Models.ListingInfo[]",
          "name": "",
          "type": "tuple[]"
        }
      ],
      "stateMutability": "view",
      "type": "function",
      "constant": true
    },
    {
      "inputs": [
        {
          "components": [
            {
              "internalType": "uint256",
              "name": "listingId",
              "type": "uint256"
            },
            {
              "internalType": "address",
              "name": "listingAddr",
              "type": "address"
            },
            {
              "internalType": "address",
              "name": "player1",
              "type": "address"
            },
            {
              "internalType": "address",
              "name": "token1",
              "type": "address"
            },
            {
              "internalType": "uint256",
              "name": "token1Amt",
              "type": "uint256"
            },
            {
              "internalType": "address",
              "name": "player2",
              "type": "address"
            },
            {
              "internalType": "address",
              "name": "token2",
              "type": "address"
            },
            {
              "internalType": "uint256",
              "name": "token2Amt",
              "type": "uint256"
            },
            {
              "internalType": "bool",
              "name": "fulfilled",
              "type": "bool"
            }
          ],
          "internalType": "struct Models.ListingInfo",
          "name": "listingInfo",
          "type": "tuple"
        }
      ],
      "name": "updateListing",
      "outputs": [],
      "stateMutability": "nonpayable",
      "type": "function"
    },
    {
      "inputs": [
        {
          "internalType": "address",
          "name": "player",
          "type": "address"
        },
        {
          "internalType": "uint8",
          "name": "betSide",
          "type": "uint8"
        },
        {
          "internalType": "uint256",
          "name": "amount",
          "type": "uint256"
        },
        {
          "internalType": "uint256",
          "name": "timestamp",
          "type": "uint256"
        }
      ],
      "name": "playerJoinedSide",
      "outputs": [],
      "stateMutability": "nonpayable",
      "type": "function"
    },
    {
      "inputs": [
        {
          "internalType": "address",
          "name": "_player",
          "type": "address"
        },
        {
          "internalType": "uint8",
          "name": "betSide",
          "type": "uint8"
        },
        {
          "internalType": "uint256",
          "name": "withdrawAmt",
          "type": "uint256"
        },
        {
          "internalType": "uint256",
          "name": "timestamp",
          "type": "uint256"
        }
      ],
      "name": "playerWithdrawWinnings",
      "outputs": [],
      "stateMutability": "nonpayable",
      "type": "function"
    },
    {
      "inputs": [
        {
          "internalType": "uint8",
          "name": "gameOutcome",
          "type": "uint8"
        }
      ],
      "name": "concludeGame",
      "outputs": [],
      "stateMutability": "nonpayable",
      "type": "function"
    },
    {
      "inputs": [],
      "name": "getBalance",
      "outputs": [
        {
          "internalType": "uint256",
          "name": "",
          "type": "uint256"
        }
      ],
      "stateMutability": "view",
      "type": "function",
      "constant": true
    },
    {
      "inputs": [
        {
          "internalType": "address",
          "name": "player",
          "type": "address"
        }
      ],
      "name": "getPlayersTrxRecords",
      "outputs": [
        {
          "components": [
            {
              "internalType": "uint256",
              "name": "trxId",
              "type": "uint256"
            },
            {
              "internalType": "string",
              "name": "activityType",
              "type": "string"
            },
            {
              "internalType": "uint256",
              "name": "gameId",
              "type": "uint256"
            },
            {
              "internalType": "uint256",
              "name": "trxAmt",
              "type": "uint256"
            },
            {
              "internalType": "uint256",
              "name": "trxTime",
              "type": "uint256"
            },
            {
              "internalType": "uint8",
              "name": "gameSide",
              "type": "uint8"
            },
            {
              "internalType": "address",
              "name": "from",
              "type": "address"
            },
            {
              "internalType": "address",
              "name": "to",
              "type": "address"
            }
          ],
          "internalType": "struct Models.Activity[]",
          "name": "",
          "type": "tuple[]"
        }
      ],
      "stateMutability": "view",
      "type": "function",
      "constant": true
    },
    {
      "inputs": [],
      "name": "checkAllOngoingGamesUpkeep",
      "outputs": [],
      "stateMutability": "nonpayable",
      "type": "function"
    }
  ],
  "bytecode": "0x60806040523480156200001157600080fd5b5060016004556040516200002590620000c0565b604051809103906000f08015801562000042573d6000803e3d6000fd5b5060018054600160a060020a0392909216600160a060020a03199283168117909155600080549092161790556040516200007c90620000ce565b604051809103906000f08015801562000099573d6000803e3d6000fd5b5060028054600160a060020a031916600160a060020a0392909216919091179055620000dc565b61172e806200425183390190565b614b01806200597f83390190565b61416580620000ec6000396000f3fe60806040523480156200001157600080fd5b5060043610620001555760003560e060020a900480637976948811620000cb578063ce1f335c116200008a578063ce1f335c1462000313578063d3eb618c1462000327578063db1c45f91462000354578063dc8046f0146200036d578063e362937d1462000384578063e87c0ee6146200039b57600080fd5b8063797694881462000288578063829a32ef146200029f5780638c055c0f14620002c2578063aa8f776014620002f0578063ae73ccec14620002fa57600080fd5b80633f863f1911620001185780633f863f1914620002235780633fc15f15146200023a57806346b1df04146200024e5780635039eb9714620002585780636435e817146200027157600080fd5b806304ad465f146200015a57806312065fe014620001955780632980a3cb14620001a75780632cd1adfe14620001d75780633751b87714620001fd575b600080fd5b620001716200016b366004620028d8565b620003a5565b6040516200018c9d9c9b9a9998979695949392919062002947565b60405180910390f35b30315b6040519081526020016200018c565b620001be620001b836600462002b01565b62000558565b604051600160a060020a0390911681526020016200018c565b620001ee620001e836600462002b94565b62000df6565b6040516200018c919062002c6d565b620002146200020e36600462002c7e565b6200104a565b6040516200018c919062002ca5565b6200017162000234366004620028d8565b620011ba565b600154620001be90600160a060020a031681565b6200019860115481565b6200026f6200026936600462002d86565b620011f6565b005b6200017162000282366004620028d8565b620014de565b6200026f6200029936600462002d86565b620014ef565b62000198620002b036600462002c7e565b60066020526000908152604090205481565b620002d9620002d336600462002c7e565b620016a7565b6040516200018c9998979695949392919062002dcf565b6200026f6200182c565b62000304620018f9565b6040516200018c919062002e44565b600054620001be90600160a060020a031681565b6200033e6200033836600462002e97565b62001995565b6040516200018c98979695949392919062002ec6565b6200035e62001a9d565b6040516200018c919062003035565b6200026f6200037e36600462003097565b62001f02565b6200026f6200039536600462003147565b62001fb1565b620001986200283e565b600a8181548110620003b657600080fd5b60009182526020909120600c909102018054600182015460028301546003840180549395509193600160a060020a0390911692909190620003f79062003165565b80601f0160208091040260200160405190810160405280929190818152602001828054620004259062003165565b8015620004765780601f106200044a5761010080835404028352916020019162000476565b820191906000526020600020905b8154815290600101906020018083116200045857829003601f168201915b5050505050908060040180546200048d9062003165565b80601f0160208091040260200160405190810160405280929190818152602001828054620004bb9062003165565b80156200050c5780601f10620004e0576101008083540402835291602001916200050c565b820191906000526020600020905b815481529060010190602001808311620004ee57829003601f168201915b5050505060058301546006840154600785015460088601546009870154600a880154600b909801549697600160a060020a03909516969395509193909260ff808216916101009004168d565b6002546040517f956a2a1000000000000000000000000000000000000000000000000000000000815230600482015260248101879052600160a060020a03868116604483015260648201869052600092839291169063956a2a10906084016020604051808303816000875af1158015620005d6573d6000803e3d6000fd5b505050506040513d601f19601f82011682018060405250810190620005fc9190620031a4565b90506000819050604051806101a00160405280600454815260200142815260200182600160a060020a0316815260200186815260200185815260200188600160a060020a03168152602001898152602001878152602001600081526020016000815260200160008152602001600115158152602001600060ff16815250600560006004548152602001908152602001600020600082015181600001556020820151816001015560408201518160020160006101000a815481600160a060020a030219169083600160a060020a031602179055506060820151816003019081620006e691906200322e565b5060808201516004820190620006fd90826200322e565b5060a0820151600582018054600160a060020a031916600160a060020a0392831617905560c0830151600683015560e08301516007830155610100808401516008840155610120808501516009850155610140850151600a850155610160850151600b90940180546101809096015161ffff1990961694151561ff0019169490941760ff90951690910293909317909155604080519283018082527f846c6f4f00000000000000000000000000000000000000000000000000000000905251829185169063846c6f4f90610124808501916020918187030181865afa158015620007eb573d6000803e3d6000fd5b505050506040513d601f19601f82011682018060405250810190620008119190620031a4565b600160a060020a03168152602001600160ff168152602001600454815260200182600160a060020a0316815260200186815260200185815260200188600160a060020a03168152602001898152602001878152506012600084600160a060020a031663846c6f4f6040518163ffffffff1660e060020a028152600401602060405180830381865afa158015620008ab573d6000803e3d6000fd5b505050506040513d601f19601f82011682018060405250810190620008d19190620031a4565b600160a060020a0390811682526020808301939093526040918201600020845181549486015160ff1660a060020a02600160a860020a031990951690831617939093178355908301516001830155606083015160028301805491909216600160a060020a031991909116179055608082015160038201906200095490826200322e565b5060a082015160048201906200096b90826200322e565b5060c0820151600582018054600160a060020a031916600160a060020a0392831617905560e08301516006830155610100909201516007909101556040805161012081018083527f41ef10c8000000000000000000000000000000000000000000000000000000009052905190918291908516906341ef10c890610124808501916020918187030181865afa15801562000a09573d6000803e3d6000fd5b505050506040513d601f19601f8201168201806040525081019062000a2f9190620031a4565b600160a060020a03168152602001600060ff168152602001600454815260200182600160a060020a0316815260200186815260200185815260200188600160a060020a03168152602001898152602001878152506012600084600160a060020a03166341ef10c86040518163ffffffff1660e060020a028152600401602060405180830381865afa15801562000ac9573d6000803e3d6000fd5b505050506040513d601f19601f8201168201806040525081019062000aef9190620031a4565b600160a060020a0390811682526020808301939093526040918201600020845181549486015160ff1660a060020a02600160a860020a031990951690831617939093178355908301516001830155606083015160028301805491909216600160a060020a0319919091161790556080820151600382019062000b7290826200322e565b5060a0820151600482019062000b8990826200322e565b5060c082015160058083018054600160a060020a03938416600160a060020a03199182161790915560e085015160068086019190915561010090950151600794850155600480548785166000908152602097885260408082208390559654918152600988528681209190915590548152919094529182206008805460018181018355919094528154600c9094027ff3f7a9fe364faab93b216da50a3214154f22a0a2b415b23a84c8169e8b636ee38101948555908201547ff3f7a9fe364faab93b216da50a3214154f22a0a2b415b23a84c8169e8b636ee482015560028201547ff3f7a9fe364faab93b216da50a3214154f22a0a2b415b23a84c8169e8b636ee5820180549096169316929092179093557ff3f7a9fe364faab93b216da50a3214154f22a0a2b415b23a84c8169e8b636ee60162000ccb600384018262003306565b5060048181019062000ce09084018262003306565b506005828101549082018054600160a060020a031916600160a060020a0390921691909117905560068083015490820155600780830154818301556008808401549083015560098084015490830155600a8084015490830155600b928301805493909201805460ff948516151560ff1982168117835593546101009081900490951690940261ff001990931661ffff1990941693909317919091179091555462000d8c90600162002851565b6007556004546000908152600560205260409081902090517f149022832779c6ebc9c5b5594a2aacdf1e5937175d1408086b385724ef265e579162000dd19162003472565b60405180910390a162000de8600454600162002851565b600455979650505050505050565b6040805161012081018252600080825260208201819052918101829052606081018290526080810182905260a0810182905260c0810182905260e08101829052610100810191909152600054600160a060020a0316331462000eb8576040517f08c379a000000000000000000000000000000000000000000000000000000000815260206004820152601860248201527f6f6e6c79206d61696e20746f6b656e2063616e2063616c6c0000000000000000604482015260640160405180910390fd5b60006011549050600081873388888860405162000ed59062002876565b958652600160a060020a03948516602087015292841660408601526060850191909152909116608083015260a082015260c001604051809103906000f08015801562000f25573d6000803e3d6000fd5b506040805161012081018252848152600160a060020a0380841660208301528a811682840152336060830152608082018a9052600060a0830181905290891660c083015260e08201889052610100820152905160e260020a6301c2d7ad0281529192509073__IterableMapping_______________________9063070b5eb49062000fba90600c90879086906004016200356e565b60006040518083038186803b15801562000fd357600080fd5b505af415801562000fe8573d6000803e3d6000fd5b50506011805492509050600062000fff83620035a5565b91905055507fd1fe3704bd3aa4f4974d5168e39528bbb86b19e98e5f798beea49af58df301398160405162001035919062002c6d565b60405180910390a1925050505b949350505050565b600160a060020a0381166000908152600b60209081526040808320805482518185028101850190935280835260609492939192909184015b82821015620011af57838290600052602060002090600702016040518061010001604052908160008201548152602001600182018054620010c39062003165565b80601f0160208091040260200160405190810160405280929190818152602001828054620010f19062003165565b8015620011425780601f10620011165761010080835404028352916020019162001142565b820191906000526020600020905b8154815290600101906020018083116200112457829003601f168201915b505050918352505060028201546020808301919091526003830154604083015260048301546060830152600583015460ff81166080840152600160a060020a03610100909104811660a084015260069093015490921660c090910152908252600192909201910162001082565b505050509050919050565b600560205260009081526040902080546001820154600283015460038401805493949293600160a060020a039092169291620003f79062003165565b3360009081526006602052604090205415801590620012335750336000908152600660209081526040808320548352600990915290205460001914155b6200123d57600080fd5b33600081815260066020908152604080832054808452600583528184206009909352908320546008805492949290919081106200127e576200127e620035c1565b90600052602060002090600c0201905085826008016000828254620012a49190620035da565b9250508190555085816008016000828254620012c19190620035da565b909155505060ff871660020362001311578582600a016000828254620012e89190620035da565b925050819055508581600a016000828254620013059190620035da565b909155506200134a9050565b85826009016000828254620013279190620035da565b9250508190555085816009016000828254620013449190620035da565b90915550505b600160a060020a038089166000818152600b60209081526040808320815161010081018352600380548252835180850185529081527f4245540000000000000000000000000000000000000000000000000000000000818601528185019081529281018a9052606081018d9052608081018c905260ff8e1660a082015260c081019590955294891660e0850152845460018181018755958452919092208351600790920201908155905191929091908201906200140890826200322e565b506040820151600282015560608201516003808301919091556080830151600483015560a083015160058301805460c086015160ff909316600160a860020a031990911617610100600160a060020a039384160217905560e09093015160069092018054600160a060020a0319169290931691909117909155546200148f90600162002851565b6003556040517f60f0179549292c7191bafdb03407a3080ad6bbb9354055fb0dba51a90dcead1790620014cc908a90869088908c908c90620035f0565b60405180910390a15050505050505050565b60088181548110620003b657600080fd5b3360009081526006602052604081205490036200150b57600080fd5b33600081815260066020908152604080832054600160a060020a038916808552600b8452828520835161010081018552600354815284518086018652600881527f574954484452415700000000000000000000000000000000000000000000000081880152818701908152948101849052606081018a90526080810189905260ff8b1660a082015260c0810188905260e081019290925280546001818101835591875294909520815160079095020193845591519093919291820190620015d390826200322e565b506040820151600282015560608201516003808301919091556080830151600483015560a083015160058301805460c086015160ff909316600160a860020a031990911617610100600160a060020a039384160217905560e09093015160069092018054600160a060020a0319169290931691909117909155546200165a90600162002851565b6003556040517f763849cb5b59f290f2394239aed08a4f73bef1c65b4debb49ed6324897c23a979062001697908890849086908a908a90620035f0565b60405180910390a1505050505050565b6012602052600090815260409020805460018201546002830154600384018054600160a060020a038086169660a060020a90960460ff16959316929190620016ef9062003165565b80601f01602080910402602001604051908101604052809291908181526020018280546200171d9062003165565b80156200176e5780601f1062001742576101008083540402835291602001916200176e565b820191906000526020600020905b8154815290600101906020018083116200175057829003601f168201915b505050505090806004018054620017859062003165565b80601f0160208091040260200160405190810160405280929190818152602001828054620017b39062003165565b8015620018045780601f10620017d85761010080835404028352916020019162001804565b820191906000526020600020905b815481529060010190602001808311620017e657829003601f168201915b50505050600583015460068401546007909401549293600160a060020a039091169290915089565b60005b600754811015620018f657600060088281548110620018525762001852620035c1565b6000918252602082206002600c9092020190810154604080517f6e4d243a0000000000000000000000000000000000000000000000000000000081529051929450600160a060020a03909116928392636e4d243a92600480820193929182900301818387803b158015620018c557600080fd5b505af1158015620018da573d6000803e3d6000fd5b5050505050508080620018ed90620035a5565b9150506200182f565b50565b6040517f75a02c20000000000000000000000000000000000000000000000000000000008152600c600482015260609073__IterableMapping_______________________906375a02c2090602401600060405180830381865af415801562001966573d6000803e3d6000fd5b505050506040513d6000823e601f3d908101601f1916820160405262001990919081019062003633565b905090565b600b6020528160005260406000208181548110620019b257600080fd5b906000526020600020906007020160009150915050806000015490806001018054620019de9062003165565b80601f016020809104026020016040519081016040528092919081815260200182805462001a0c9062003165565b801562001a5d5780601f1062001a315761010080835404028352916020019162001a5d565b820191906000526020600020905b81548152906001019060200180831162001a3f57829003601f168201915b505050600284015460038501546004860154600587015460069097015495969295919450925060ff821691600160a060020a036101009091048116911688565b604080518082019091526060808252602082015260408051600880546060602082028401810185529383018181529293849392919060009085015b8282101562001cd2576000848152602090819020604080516101a081018252600c8602909201805483526001810154938301939093526002830154600160a060020a03169082015260038201805491929160608401919062001b3a9062003165565b80601f016020809104026020016040519081016040528092919081815260200182805462001b689062003165565b801562001bb95780601f1062001b8d5761010080835404028352916020019162001bb9565b820191906000526020600020905b81548152906001019060200180831162001b9b57829003601f168201915b5050505050815260200160048201805462001bd49062003165565b80601f016020809104026020016040519081016040528092919081815260200182805462001c029062003165565b801562001c535780601f1062001c275761010080835404028352916020019162001c53565b820191906000526020600020905b81548152906001019060200180831162001c3557829003601f168201915b50505091835250506005820154600160a060020a0316602080830191909152600683015460408301526007830154606083015260088301546080830152600983015460a0830152600a83015460c0830152600b9092015460ff808216151560e08401526101009182900416910152908252600192909201910162001ad8565b505050508152602001600a805480602002602001604051908101604052809291908181526020016000905b8282101562001ef7576000848152602090819020604080516101a081018252600c8602909201805483526001810154938301939093526002830154600160a060020a03169082015260038201805491929160608401919062001d5f9062003165565b80601f016020809104026020016040519081016040528092919081815260200182805462001d8d9062003165565b801562001dde5780601f1062001db25761010080835404028352916020019162001dde565b820191906000526020600020905b81548152906001019060200180831162001dc057829003601f168201915b5050505050815260200160048201805462001df99062003165565b80601f016020809104026020016040519081016040528092919081815260200182805462001e279062003165565b801562001e785780601f1062001e4c5761010080835404028352916020019162001e78565b820191906000526020600020905b81548152906001019060200180831162001e5a57829003601f168201915b50505091835250506005820154600160a060020a0316602080830191909152600683015460408301526007830154606083015260088301546080830152600983015460a0830152600a83015460c0830152600b9092015460ff808216151560e08401526101009182900416910152908252600192909201910162001cfd565b505050915250919050565b805160405160e260020a6301c2d7ad02815273__IterableMapping_______________________9163070b5eb49162001f4391600c9186906004016200356e565b60006040518083038186803b15801562001f5c57600080fd5b505af415801562001f71573d6000803e3d6000fd5b505050507f4758bcd8e425945eea731ed13074c209c3176197b970b6a78b278ad015ae90788160405162001fa6919062002c6d565b60405180910390a150565b33600090815260066020526040812054900362001fcd57600080fd5b33600081815260066020908152604080832054808452600990925290912054801962001ff95750505050565b6000819050600060088281548110620020165762002016620035c1565b90600052602060002090600c0201604051806101a001604052908160008201548152602001600182015481526020016002820160009054906101000a9004600160a060020a0316600160a060020a0316600160a060020a03168152602001600382018054620020859062003165565b80601f0160208091040260200160405190810160405280929190818152602001828054620020b39062003165565b8015620021045780601f10620020d85761010080835404028352916020019162002104565b820191906000526020600020905b815481529060010190602001808311620020e657829003601f168201915b505050505081526020016004820180546200211f9062003165565b80601f01602080910402602001604051908101604052809291908181526020018280546200214d9062003165565b80156200219e5780601f1062002172576101008083540402835291602001916200219e565b820191906000526020600020905b8154815290600101906020018083116200218057829003601f168201915b50505091835250506005820154600160a060020a031660208201526006820154604082015260078083015460608301526008808401546080840152600984015460a0840152600a84015460c0840152600b9093015460ff808216151560e08501526101009182900416920191909152549192506000916200222190600162002868565b81548110620022345762002234620035c1565b90600052602060002090600c0201604051806101a001604052908160008201548152602001600182015481526020016002820160009054906101000a9004600160a060020a0316600160a060020a0316600160a060020a03168152602001600382018054620022a39062003165565b80601f0160208091040260200160405190810160405280929190818152602001828054620022d19062003165565b8015620023225780601f10620022f65761010080835404028352916020019162002322565b820191906000526020600020905b8154815290600101906020018083116200230457829003601f168201915b505050505081526020016004820180546200233d9062003165565b80601f01602080910402602001604051908101604052809291908181526020018280546200236b9062003165565b8015620023bc5780601f106200239057610100808354040283529160200191620023bc565b820191906000526020600020905b8154815290600101906020018083116200239e57829003601f168201915b50505091835250506005820154600160a060020a0316602080830191909152600683015460408084019190915260078401546060840152600880850154608085015260098086015460a0860152600a86015460c0860152600b9095015460ff808216151560e08701526101009182900416940193909352845160009081529390915280832087905588835290912060001990558054919250829185908110620024695762002469620035c1565b60009182526020918290208351600c92909202019081559082015160018201556040820151600282018054600160a060020a031916600160a060020a0390921691909117905560608201516003820190620024c590826200322e565b5060808201516004820190620024dc90826200322e565b5060a0820151600582018054600160a060020a031916600160a060020a0390921691909117905560c0820151600682015560e08201516007808301919091556101008084015160088401556101208401516009840155610140840151600a840155610160840151600b90930180546101809095015161ffff1990951693151561ff0019169390931760ff90941602929092179055546200257e90600162002868565b6007556000610160830181905260ff8816610180840181905283518252600560209081526040808420600b8101805461ffff191661010090950294909417909355600a8054600181018255945285517fc65a7bb8d6351c1cf70c95a316cc6a92839c986682d98bc35f958f4883f9d2a8600c909502948501908155918601517fc65a7bb8d6351c1cf70c95a316cc6a92839c986682d98bc35f958f4883f9d2a98501558501517fc65a7bb8d6351c1cf70c95a316cc6a92839c986682d98bc35f958f4883f9d2aa84018054600160a060020a031916600160a060020a039092169190911790556060850151919285927fc65a7bb8d6351c1cf70c95a316cc6a92839c986682d98bc35f958f4883f9d2ab909101906200269e90826200322e565b5060808201516004820190620026b590826200322e565b5060a0820151600582018054600160a060020a031916600160a060020a0390921691909117905560c0820151600682015560e08201516007820155610100808301516008808401919091556101208401516009840155610140840151600a840155610160840151600b90930180546101809095015161ffff1990951693151561ff0019169390931760ff9094169091029290921790558054806200275d576200275d62003788565b600082815260208120600c6000199093019283020181815560018101829055600281018054600160a060020a0319169055906200279e600383018262002884565b620027ae60048301600062002884565b50600581018054600160a060020a0319169055600060068201819055600782018190556008820181905560098201819055600a820155600b01805461ffff19169055905560408051878152600160a060020a038916602082015260ff8a16918101919091527f6997c325fd49bb5c188e78d03aee9a56052bffb3dcecb7d89cad3946cfc9b19090606001620014cc565b60006001600454620019909190620037a1565b60006200285f8284620035da565b90505b92915050565b60006200285f8284620037a1565b61097880620037b883390190565b508054620028929062003165565b6000825580601f10620028a3575050565b601f016020900490600052602060002090810190620018f691905b80821115620028d45760008155600101620028be565b5090565b600060208284031215620028eb57600080fd5b5035919050565b600160a060020a03169052565b6000815180845260005b81811015620029275760208185018101518683018201520162002909565b506000602082860101526020601f19601f83011685010191505092915050565b60006101a08f83528e6020840152600160a060020a03808f166040850152816060850152620029798285018f620028ff565b915083820360808501526200298f828e620028ff565b9250808c1660a085015250508860c08301528760e0830152866101008301528561012083015284610140830152831515610160830152620029d661018083018460ff169052565b9e9d5050505050505050505050505050565b600160a060020a0381168114620018f657600080fd5b803562002a0b81620029e8565b919050565b60e060020a634e487b7102600052604160045260246000fd5b604051610120810167ffffffffffffffff8111828210171562002a505762002a5062002a10565b60405290565b604051601f8201601f1916810167ffffffffffffffff8111828210171562002a825762002a8262002a10565b604052919050565b600082601f83011262002a9c57600080fd5b813567ffffffffffffffff81111562002ab95762002ab962002a10565b62002ace601f8201601f191660200162002a56565b81815284602083860101111562002ae457600080fd5b816020850160208301376000918101602001919091529392505050565b600080600080600060a0868803121562002b1a57600080fd5b85359450602086013562002b2e81620029e8565b935060408601359250606086013567ffffffffffffffff8082111562002b5357600080fd5b62002b6189838a0162002a8a565b9350608088013591508082111562002b7857600080fd5b5062002b878882890162002a8a565b9150509295509295909350565b6000806000806080858703121562002bab57600080fd5b843562002bb881620029e8565b935060208501359250604085013562002bd181620029e8565b9396929550929360600135925050565b805182526020810151600160a060020a03808216602085015280604084015116604085015280606084015116606085015250506080810151608083015260a081015162002c3260a0840182620028f2565b5060c081015162002c4760c0840182620028f2565b5060e081015160e08301526101008082015162002c678285018215159052565b50505050565b610120810162002862828462002be1565b60006020828403121562002c9157600080fd5b813562002c9e81620029e8565b9392505050565b60208082528251828201819052600091906040908185019080840286018301878501865b8381101562002d6657603f1989840301855281516101008151855288820151818a87015262002cfb82870182620028ff565b838a0151878b0152606080850151908801526080808501519088015260a08085015160ff169088015260c080850151600160a060020a03169088015260e09384015193909250905062002d5181870184620028f2565b50958801959350509086019060010162002cc9565b509098975050505050505050565b803560ff8116811462002a0b57600080fd5b6000806000806080858703121562002d9d57600080fd5b843562002daa81620029e8565b935062002dba6020860162002d74565b93969395505050506040820135916060013590565b6000610120600160a060020a03808d16845260ff8c1660208501528a6040850152808a16606085015281608085015262002e0c8285018a620028ff565b915083820360a085015262002e228289620028ff565b961660c0840152505060e0810192909252610100909101529695505050505050565b6020808252825182820181905260009190848201906040850190845b8181101562002e8b5762002e7683855162002be1565b92840192610120929092019160010162002e60565b50909695505050505050565b6000806040838503121562002eab57600080fd5b823562002eb881620029e8565b946020939093013593505050565b60006101008a835280602084015262002ee28184018b620028ff565b604084019990995250506060810195909552608085019390935260ff9190911660a0840152600160a060020a0390811660c08401521660e09091015292915050565b600081518084526020808501808196508284028101915082860160005b858110156200302857828403895281516101a081518652868201518787015260408083015162002f7482890182620028f2565b5050606080830151828289015262002f8f83890182620028ff565b925050506080808301518783038289015262002fac8382620028ff565b9250505060a08083015162002fc482890182620028f2565b505060c0828101519087015260e08083015190870152610100808301519087015261012080830151908701526101408083015190870152610160808301511515908701526101809182015160ff169190950152978401979084019060010162002f41565b5091979650505050505050565b60208152600082516040602084015262003053606084018262002f24565b90506020840151601f1984830301604085015262003072828262002f24565b95945050505050565b8015158114620018f657600080fd5b803562002a0b816200307b565b60006101208284031215620030ab57600080fd5b620030b562002a29565b82358152620030c760208401620029fe565b6020820152620030da60408401620029fe565b6040820152620030ed60608401620029fe565b6060820152608083013560808201526200310a60a08401620029fe565b60a08201526200311d60c08401620029fe565b60c082015260e083013560e08201526101006200313c8185016200308a565b908201529392505050565b6000602082840312156200315a57600080fd5b6200285f8262002d74565b6002810460018216806200317a57607f821691505b6020821081036200319e5760e060020a634e487b7102600052602260045260246000fd5b50919050565b600060208284031215620031b757600080fd5b815162002c9e81620029e8565b601f82111562003212576000818152602081206020601f86010481016020861015620031ed5750805b6020601f860104820191505b818110156200320e57828155600101620031f9565b5050505b505050565b6002808302600893909302900a6000190419161790565b815167ffffffffffffffff8111156200324b576200324b62002a10565b62003263816200325c845462003165565b84620031c4565b602080601f831160018114620032975760008415620032825750858301515b6200328e858262003217565b8655506200320e565b600085815260208120601f198616915b82811015620032c857888601518255948401946001909101908401620032a7565b5085821015620032e957878501516008601f88160260020a60001904191681555b5050505050600202600101905550565b805162002a0b81620029e8565b81810362003312575050565b6200331e825462003165565b67ffffffffffffffff81111562003339576200333962002a10565b6200334a816200325c845462003165565b6000601f8211600181146200337d5760008315620033685750848201545b62003374848262003217565b855550620033e7565b600085815260209020601f19841690600086815260209020845b83811015620033b9578286015482556001958601959091019060200162003397565b5085831015620033da57818501546008601f88160260020a60001904191681555b5050506001600284020184555b5050505050565b60008154620033fd8162003165565b8085526020600183811680156200341d5760018114620034375762003467565b60ff19851688840152831515830288018301955062003467565b866000528260002060005b858110156200345f5781548a820186015290830190840162003442565b890184019650505b505050505092915050565b60208152815460208201526001820154604082015260006200349e6002840154600160a060020a031690565b620034ad6060840182620028f2565b506101a0806080840152620034ca6101c0840160038601620033ee565b838103601f190160a0850152620034e58160048701620033ee565b9050620034fc6005860154600160a060020a031690565b6200350b60c0860182620028f2565b50600685015460e08501526007850154610100818187015260088701546101208701526009870154610140870152600a870154610160870152600b87015491506200355e610180870160ff841615159052565b60ff910416919093015250919050565b83815260208101839052610160810162001042604083018462002be1565b60e060020a634e487b7102600052601160045260246000fd5b600060018201620035ba57620035ba6200358c565b5060010190565b60e060020a634e487b7102600052603260045260246000fd5b808201808211156200286257620028626200358c565b600160a060020a039586168152602081019490945291909316604083015260ff9092166060820152608081019190915260a00190565b805162002a0b816200307b565b600060208083850312156200364757600080fd5b825167ffffffffffffffff808211156200366057600080fd5b818501915085601f8301126200367557600080fd5b8151818111156200368a576200368a62002a10565b62003699848583020162002a56565b8181528481019250610120918202840185019188831115620036ba57600080fd5b938501935b828510156200377c5780858a031215620036d95760008081fd5b620036e362002a29565b85518152620036f4878701620032f9565b87820152604062003707818801620032f9565b9082015260606200371a878201620032f9565b908201526080868101519082015260a062003737818801620032f9565b9082015260c06200374a878201620032f9565b9082015260e086810151908201526101006200376881880162003626565b9082015284529384019392850192620036bf565b50979650505050505050565b60e060020a634e487b7102600052603160045260246000fd5b818103818111156200286257620028626200358c56fe608060405234801561001057600080fd5b5060405161097838038061097883398101604081905261002f9161020c565b6000805433600160a060020a03199182168117909255600a805461010060a860020a031916610100909302929092179091556001879055600280548216600160a060020a03888116918217909255600380548416888416908117909155600587905560078054851693871693909317909255600984905560048054909316821783556040517f70a082310000000000000000000000000000000000000000000000000000000081529283015284916370a0823190602401602060405180830381865afa158015610103573d6000803e3d6000fd5b505050506040513d601f19601f82011682018060405250810190610127919061026b565b10156101bb57604080517f08c379a00000000000000000000000000000000000000000000000000000000081526020600482015260248101919091527f706c6179657220312068617320696e73756666696369656e742062616c616e6360448201527f65206f6620746f6b656e203120746f206372656174652061206c697374696e67606482015260840160405180910390fd5b5060088054600160a060020a031916600160a060020a03929092169190911790555050600a805460ff19169055506102849050565b8051600160a060020a038116811461020757600080fd5b919050565b60008060008060008060c0878903121561022557600080fd5b86519550610235602088016101f0565b9450610243604088016101f0565b935060608701519250610258608088016101f0565b915060a087015190509295509295509295565b60006020828403121561027d57600080fd5b5051919050565b6106e5806102936000396000f3fe608060405234801561001057600080fd5b50600436106100d1576000357c010000000000000000000000000000000000000000000000000000000090048063c4e5edcd1161008e578063c4e5edcd14610176578063d21220a71461017f578063d30895e414610192578063d5488048146101a5578063d70c6703146101b8578063e2d46f98146101c157600080fd5b806302d05d3f146100d657806325be124e1461010657806358aaf0be1461011957806359a5f12d1461012c5780636f6ff4051461013f5780639405dfdd1461015f575b600080fd5b6000546100e990600160a060020a031681565b604051600160a060020a0390911681526020015b60405180910390f35b6007546100e990600160a060020a031681565b6008546100e990600160a060020a031681565b6006546100e990600160a060020a031681565b61015261014d366004610593565b6101de565b6040516100fd91906105c3565b61016860015481565b6040519081526020016100fd565b61016860095481565b6003546100e990600160a060020a031681565b6002546100e990600160a060020a031681565b6004546100e990600160a060020a031681565b61016860055481565b600a546101ce9060ff1681565b60405190151581526020016100fd565b6040805161012081018252600080825260208201819052918101829052606081018290526080810182905260a0810182905260c0810182905260e081018290526101008101919091526005546004805460025460405160e160020a636eb1769f028152600160a060020a0391821693810193909352306024840152169063dd62ed3e90604401602060405180830381865afa158015610281573d6000803e3d6000fd5b505050506040513d601f19601f820116820180604052508101906102a59190610674565b10156102fb5760405160e560020a62461bcd02815260206004820152601960248201527f546f6b656e203120616c6c6f77616e636520746f6f206c6f770000000000000060448201526064015b60405180910390fd5b60095460085460405160e160020a636eb1769f028152600160a060020a0385811660048301523060248301529091169063dd62ed3e90604401602060405180830381865afa158015610351573d6000803e3d6000fd5b505050506040513d601f19601f820116820180604052508101906103759190610674565b10156103c65760405160e560020a62461bcd02815260206004820152601960248201527f546f6b656e203220616c6c6f77616e636520746f6f206c6f770000000000000060448201526064016102f2565b6004546002546005546103e892600160a060020a0390811692169085906104a2565b60085460025460095461040b92600160a060020a039081169286929116906104a2565b506006805473ffffffffffffffffffffffffffffffffffffffff1916600160a060020a03928316908117909155600a805460ff1916600190811790915560408051610120810182528254815230602082015260025485169181019190915260035484166060820152600554608082015260a081019290925260075490921660c082015260095460e082015261010081019190915290565b6040517f23b872dd000000000000000000000000000000000000000000000000000000008152600160a060020a038481166004830152838116602483015260448201839052600091908616906323b872dd906064016020604051808303816000875af1158015610516573d6000803e3d6000fd5b505050506040513d601f19601f8201168201806040525081019061053a919061068d565b90508061058c5760405160e560020a62461bcd02815260206004820152601560248201527f546f6b656e207472616e73666572206661696c6564000000000000000000000060448201526064016102f2565b5050505050565b6000602082840312156105a557600080fd5b8135600160a060020a03811681146105bc57600080fd5b9392505050565b600061012082019050825182526020830151600160a060020a0380821660208501528060408601511660408501525050606083015161060d6060840182600160a060020a03169052565b506080830151608083015260a083015161063260a0840182600160a060020a03169052565b5060c083015161064d60c0840182600160a060020a03169052565b5060e083015160e08301526101008084015161066c8285018215159052565b505092915050565b60006020828403121561068657600080fd5b5051919050565b60006020828403121561069f57600080fd5b815180151581146105bc57600080fdfea2646970667358221220390088a1b0c1e56a66e9da22b3d155c6149f1428e5d1016c33317b095f3ab81b64736f6c63430008110033a2646970667358221220f9e3a16d255288b1605847a6b70c5eaf87f829ddbd7328afee7a39aae5b2b32064736f6c6343000811003360c0604052600b60809081527f4877616e674d61726b657400000000000000000000000000000000000000000060a0526003906200003e9082620001a2565b5060408051808201909152600581527f484d544b4e0000000000000000000000000000000000000000000000000000006020820152600490620000829082620001a2565b506005805460ff191660121790556000600655348015620000a257600080fd5b506007805433600160a060020a0319918216811790925560088054909116909117905562000275565b7f4e487b7100000000000000000000000000000000000000000000000000000000600052604160045260246000fd5b6002810460018216806200010f57607f821691505b60208210810362000149577f4e487b7100000000000000000000000000000000000000000000000000000000600052602260045260246000fd5b50919050565b601f8211156200019d576000818152602081206020601f86010481016020861015620001785750805b6020601f860104820191505b81811015620001995782815560010162000184565b5050505b505050565b815167ffffffffffffffff811115620001bf57620001bf620000cb565b620001d781620001d08454620000fa565b846200014f565b602080601f831160018114620002135760008415620001f65750858301515b60028086026008870290910a600019041982161786555062000199565b600085815260208120601f198616915b82811015620002445788860151825594840194600190910190840162000223565b50858210156200026557878501516008601f88160260020a60001904191681555b5050505050600202600101905550565b6114a980620002856000396000f3fe60806040526004361061010c5760003560e060020a9004806370a08231116100a4578063ac5388c811610068578063ac5388c81461030b578063d270e7ab14610321578063dd62ed3e14610341578063de6a8dc514610379578063f16e43001461039957600080fd5b806370a082311461025c57806395d89b41146102895780639ea3c8201461029e578063a9059cbb146102cb578063a9e732bb146102eb57600080fd5b806302d05d3f1461011857806306fdde0314610155578063095ea7b31461017757806312065fe0146101a757806318160ddd146101c557806323b872dd146101db578063313ce567146101fb57806340c10f191461022757806342966c681461023c57600080fd5b3661011357005b600080fd5b34801561012457600080fd5b5060075461013890600160a060020a031681565b604051600160a060020a0390911681526020015b60405180910390f35b34801561016157600080fd5b5061016a6103ae565b60405161014c9190610ff1565b34801561018357600080fd5b50610197610192366004611057565b61043c565b604051901515815260200161014c565b3480156101b357600080fd5b5030315b60405190815260200161014c565b3480156101d157600080fd5b506101b760005481565b3480156101e757600080fd5b506101976101f6366004611083565b6104cb565b34801561020757600080fd5b506005546102159060ff1681565b60405160ff909116815260200161014c565b61023a610235366004611057565b61067b565b005b34801561024857600080fd5b5061023a6102573660046110c4565b6107f2565b34801561026857600080fd5b506101b76102773660046110dd565b60016020526000908152604090205481565b34801561029557600080fd5b5061016a610889565b3480156102aa57600080fd5b506102be6102b93660046110dd565b610896565b60405161014c9190611101565b3480156102d757600080fd5b506101976102e6366004611057565b610c99565b3480156102f757600080fd5b5061023a6103063660046110c4565b610d47565b34801561031757600080fd5b506101b760065481565b34801561032d57600080fd5b5060085461013890600160a060020a031681565b34801561034d57600080fd5b506101b761035c3660046111b2565b600260209081526000928352604080842090915290825290205481565b34801561038557600080fd5b506102be6103943660046111eb565b610e6d565b3480156103a557600080fd5b506101b7600181565b600380546103bb90611212565b80601f01602080910402602001604051908101604052809291908181526020018280546103e790611212565b80156104345780601f1061040957610100808354040283529160200191610434565b820191906000526020600020905b81548152906001019060200180831161041757829003601f168201915b505050505081565b336000908152600160205260408120548211156104775760405160e560020a62461bcd02815260040161046e9061124f565b60405180910390fd5b336000818152600260209081526040808320600160a060020a038816808552908352928190208690555185815291929160008051602061145483398151915291015b60405180910390a35060015b92915050565b600160a060020a03831660009081526002602090815260408083203384529091528120548211156105675760405160e560020a62461bcd02815260206004820152603360248201527f696e73756666696369656e7420616c6c6f77616e636520746f2072656369706960448201527f656e742066726f6d206d73672073656e64657200000000000000000000000000606482015260840161046e565b600160a060020a0384166000908152600160205260409020548211156105a25760405160e560020a62461bcd02815260040161046e9061124f565b600160a060020a0384166000908152600260209081526040808320338452909152812080548492906105d590849061129f565b9091555050600160a060020a0384166000908152600160205260408120805484929061060290849061129f565b9091555050600160a060020a0383166000908152600160205260408120805484929061062f9084906112b2565b9250508190555082600160a060020a031684600160a060020a03166000805160206114348339815191528460405161066991815260200190565b60405180910390a35060019392505050565b60006106886001806112c5565b61069290836112ea565b90508034101561070d5760405160e560020a62461bcd02815260206004820152602a60248201527f496e73756666696369656e74206d73672076616c756520746f20636f7665722060448201527f65746820616d6f756e7400000000000000000000000000000000000000000000606482015260840161046e565b33318111156107615760405160e560020a62461bcd02815260206004820152601e60248201527f596f7520646f206e6f74206861766520656e6f7567682062616c616e63650000604482015260640161046e565b600160a060020a038316600090815260016020526040812080548492906107899084906112b2565b92505081905550816000808282546107a191906112b2565b9250508190555034600660008282546107ba91906112b2565b9091555050604051828152600160a060020a0384169030906000805160206114348339815191529060200160405180910390a3505050565b336000908152600160205260409020548111156108245760405160e560020a62461bcd02815260040161046e9061124f565b336000908152600160205260408120805483929061084390849061129f565b925050819055508060008082825461085b919061129f565b909155505060405181815260009033906000805160206114348339815191529060200160405180910390a350565b600480546103bb90611212565b61089e610fa5565b600082905030600160a060020a031681600160a060020a03166325be124e6040518163ffffffff1660e060020a028152600401602060405180830381865afa1580156108ee573d6000803e3d6000fd5b505050506040513d601f19601f820116820180604052508101906109129190611311565b600160a060020a03161461096b5760405160e560020a62461bcd02815260206004820181905260248201527f6c697374696e672077616e7473206120646966666572656e7420746f6b656e32604482015260640161046e565b80600160a060020a031663c4e5edcd6040518163ffffffff1660e060020a028152600401602060405180830381865afa1580156109ac573d6000803e3d6000fd5b505050506040513d601f19601f820116820180604052508101906109d0919061132e565b336000908152600160205260409020541015610a015760405160e560020a62461bcd02815260040161046e9061124f565b80600160a060020a031663c4e5edcd6040518163ffffffff1660e060020a028152600401602060405180830381865afa158015610a42573d6000803e3d6000fd5b505050506040513d601f19601f82011682018060405250810190610a66919061132e565b336000818152600260209081526040808320600160a060020a03898116808652918452938290209590955580517fc4e5edcd00000000000000000000000000000000000000000000000000000000815290516000805160206114548339815191529387169263c4e5edcd92600480820193918290030181865afa158015610af1573d6000803e3d6000fd5b505050506040513d601f19601f82011682018060405250810190610b15919061132e565b60405190815260200160405180910390a36040517f6f6ff405000000000000000000000000000000000000000000000000000000008152336004820152600090600160a060020a03831690636f6ff40590602401610120604051808303816000875af1158015610b89573d6000803e3d6000fd5b505050506040513d601f19601f82011682018060405250810190610bad9190611392565b9050600082600160a060020a03166302d05d3f6040518163ffffffff1660e060020a028152600401602060405180830381865afa158015610bf2573d6000803e3d6000fd5b505050506040513d601f19601f82011682018060405250810190610c169190611311565b6040517fdc8046f0000000000000000000000000000000000000000000000000000000008152909150600160a060020a0382169063dc8046f090610c5e908590600401611101565b600060405180830381600087803b158015610c7857600080fd5b505af1158015610c8c573d6000803e3d6000fd5b5093979650505050505050565b33600090815260016020526040812054821115610ccb5760405160e560020a62461bcd02815260040161046e9061124f565b3360009081526001602052604081208054849290610cea90849061129f565b9091555050600160a060020a03831660009081526001602052604081208054849290610d179084906112b2565b9091555050604051828152600160a060020a038416903390600080516020611434833981519152906020016104b9565b33600090815260016020526040902054811115610da95760405160e560020a62461bcd02815260206004820152601e60248201527f696e73756666696369656e742062616c616e636520696e20706c617965720000604482015260640161046e565b6000610db66001806112c5565b610dc090836112ea565b604051909150339082156108fc029083906000818181858888f19350505050158015610df0573d6000803e3d6000fd5b503360009081526001602052604081208054849290610e1090849061129f565b9091555050604051828152309033906000805160206114348339815191529060200160405180910390a381600080828254610e4b919061129f565b925050819055508060066000828254610e64919061129f565b90915550505050565b610e75610fa5565b33600090815260016020526040902054841115610ea75760405160e560020a62461bcd02815260040161046e9061124f565b6008546040517f2cd1adfe00000000000000000000000000000000000000000000000000000000815233600482015260248101869052600160a060020a038581166044830152606482018590526000921690632cd1adfe90608401610120604051808303816000875af1158015610f22573d6000803e3d6000fd5b505050506040513d601f19601f82011682018060405250810190610f469190611392565b602080820151336000818152600284526040808220600160a060020a0385168084529552908190208a905551939450909260008051602061145483398151915290610f94908a815260200190565b60405180910390a350949350505050565b6040805161012081018252600080825260208201819052918101829052606081018290526080810182905260a0810182905260c0810182905260e0810182905261010081019190915290565b600060208083528351808285015260005b8181101561101e57858101830151858201604001528201611002565b506000604082860101526040601f19601f8301168501019250505092915050565b600160a060020a038116811461105457600080fd5b50565b6000806040838503121561106a57600080fd5b82356110758161103f565b946020939093013593505050565b60008060006060848603121561109857600080fd5b83356110a38161103f565b925060208401356110b38161103f565b929592945050506040919091013590565b6000602082840312156110d657600080fd5b5035919050565b6000602082840312156110ef57600080fd5b81356110fa8161103f565b9392505050565b600061012082019050825182526020830151600160a060020a0380821660208501528060408601511660408501525050606083015161114b6060840182600160a060020a03169052565b506080830151608083015260a083015161117060a0840182600160a060020a03169052565b5060c083015161118b60c0840182600160a060020a03169052565b5060e083015160e0830152610100808401516111aa8285018215159052565b505092915050565b600080604083850312156111c557600080fd5b82356111d08161103f565b915060208301356111e08161103f565b809150509250929050565b60008060006060848603121561120057600080fd5b8335925060208401356110b38161103f565b60028104600182168061122657607f821691505b6020821081036112495760e060020a634e487b7102600052602260045260246000fd5b50919050565b6020808252601e908201527f696e73756666696369656e742062616c616e636520696e2073656e6465720000604082015260600190565b60e060020a634e487b7102600052601160045260246000fd5b818103818111156104c5576104c5611286565b808201808211156104c5576104c5611286565b6000826112e55760e060020a634e487b7102600052601260045260246000fd5b500490565b80820281158282048414176104c5576104c5611286565b805161130c8161103f565b919050565b60006020828403121561132357600080fd5b81516110fa8161103f565b60006020828403121561134057600080fd5b5051919050565b604051610120810167ffffffffffffffff8111828210171561137c5760e060020a634e487b7102600052604160045260246000fd5b60405290565b8051801515811461130c57600080fd5b600061012082840312156113a557600080fd5b6113ad611347565b825181526113bd60208401611301565b60208201526113ce60408401611301565b60408201526113df60608401611301565b6060820152608083015160808201526113fa60a08401611301565b60a082015261140b60c08401611301565b60c082015260e083015160e0820152610100611428818501611382565b90820152939250505056feddf252ad1be2c89b69c2b068fc378daa952ba7f163c4a11628f55a4df523b3ef8c5be1e5ebec7d5bd14f71427d1e84f3dd0314c0f7b2291e5b200ac8c7c3b925a26469706673582212204400c9c9e2e9896422886dc5a071f2ca4158258fa32d1575e4bf6b2e45f1fd4864736f6c63430008110033608060405234801561001057600080fd5b50614ae1806100206000396000f3fe608060405234801561001057600080fd5b5060043610610047577c01000000000000000000000000000000000000000000000000000000006000350463956a2a10811461004c575b600080fd5b61005f61005a36600461012a565b610088565b60405173ffffffffffffffffffffffffffffffffffffffff909116815260200160405180910390f35b60008484848460405161009a906100f4565b73ffffffffffffffffffffffffffffffffffffffff94851681526020810193909352921660408201526060810191909152608001604051809103906000f0801580156100ea573d6000803e3d6000fd5b5095945050505050565b61493d8061016f83390190565b803573ffffffffffffffffffffffffffffffffffffffff8116811461012557600080fd5b919050565b6000806000806080858703121561014057600080fd5b61014985610101565b93506020850135925061015e60408601610101565b939692955092936060013592505056fe60806040523480156200001157600080fd5b506040516200493d3803806200493d83398101604081905262000034916200024f565b6000805460078054600160a060020a03888116600160a060020a031992831681179093556001889055600160b060020a03199093169091179092556004805490921690841617905560028190556040516103e890620000939062000224565b6060808252600b908201527f47616d654e6f546f6b656e000000000000000000000000000000000000000000608082015260a0602082018190526003908201527f474e54000000000000000000000000000000000000000000000000000000000060c0820152604081019190915260e001604051809103906000f08015801562000121573d6000803e3d6000fd5b5060098054600160a060020a0392909216600160a060020a03199283168117909155600880549092161790556040516103e8906200015f9062000224565b6060808252600c908201527f47616d65596573546f6b656e0000000000000000000000000000000000000000608082015260a0602082018190526003908201527f475954000000000000000000000000000000000000000000000000000000000060c0820152604081019190915260e001604051809103906000f080158015620001ed573d6000803e3d6000fd5b50600b8054600160a060020a0392909216600160a060020a03199283168117909155600a8054909216179055506200029892505050565b61154580620033f883390190565b8051600160a060020a03811681146200024a57600080fd5b919050565b600080600080608085870312156200026657600080fd5b620002718562000232565b935060208501519250620002886040860162000232565b6060959095015193969295505050565b61315080620002a86000396000f3fe60806040523480156200001157600080fd5b5060043610620001795760003560e060020a900480637256eba411620000d7578063d6875f95116200008a578063d6875f951462000349578063dc8046f0146200035d578063e07056af1462000374578063e2cb747d146200038b578063f91c2cbc14620003a2578063f92a9e0914620003bb57600080fd5b80637256eba414620002d3578063846c6f4f14620002ea5780638e15f47314620002fe5780638f09cc8b1462000308578063ae73ccec146200031c578063d270e7ab146200033557600080fd5b8063200d2ed21162000130578063200d2ed214620002575780632cd1adfe146200027b57806341ef10c814620002a157806342cde4e814620002b557806346b1df0414620002bf5780636e4d243a14620002c957600080fd5b806302d05d3f146200017e578063053a2cfb14620001aa57806312065fe014620001ce5780631479470214620001e05780631486d61114620001f95780631746bd1b146200021c575b600080fd5b6000546200019290600160a060020a031681565b604051620001a1919062001dbc565b60405180910390f35b600054620001bf9060a860020a900460ff1681565b604051620001a1919062001e00565b30315b604051908152602001620001a1565b620001f7620001f136600462001e16565b620003c5565b005b620001d16200020a36600462001e30565b60036020526000908152604090205481565b600054600154600254604051620001a193600160a060020a0381169360ff60a060020a830481169460a860020a909304169290919062001e6d565b6000546200026c9060a060020a900460ff1681565b604051620001a1919062001eae565b620002926200028c36600462001ee9565b62000b31565b604051620001a1919062001fd0565b6008546200019290600160a060020a031681565b620001d160025481565b620001d160115481565b620001f762000da7565b620001f7620002e436600462001ff3565b62000edf565b600a546200019290600160a060020a031681565b620001d162001826565b6009546200019290600160a060020a031681565b62000326620018ba565b604051620001a1919062002036565b6007546200019290600160a060020a031681565b600b546200019290600160a060020a031681565b620001f76200036e3660046200211f565b62001956565b620001926200038536600462001e16565b62001a05565b620001d16200039c366004620021cf565b62001aaa565b620003ac62001b69565b604051620001a19190620021ed565b620001d160015481565b600160005460a060020a900460ff166001811115620003e857620003e862001dd0565b146200043e5760405160e560020a62461bcd02815260206004820152601660248201527f67616d65206973206e6f742079657420636c6f7365640000000000000000000060448201526064015b60405180910390fd5b6000805460a860020a900460ff16600281111562000460576200046062001dd0565b03620004b25760405160e560020a62461bcd02815260206004820152601e60248201527f67616d65206f7574636f6d652063616e6e6f7420626520756e6b6e6f776e0000604482015260640162000435565b600954600160a060020a0316600160005460a860020a900460ff166002811115620004e157620004e162001dd0565b03620004f55750600b54600160a060020a03165b60405160e160020a636eb1769f0281523360048201523060248201528290600160a060020a0383169063dd62ed3e90604401602060405180830381865afa15801562000545573d6000803e3d6000fd5b505050506040513d601f19601f820116820180604052508101906200056b9190620022fd565b1015620005e45760405160e560020a62461bcd02815260206004820152602360248201527f706c61796572206d75737420617070726f766520776974686472617720616d6f60448201527f756e740000000000000000000000000000000000000000000000000000000000606482015260840162000435565b6040517f70a082310000000000000000000000000000000000000000000000000000000081528290600160a060020a038316906370a08231906200062d90339060040162001dbc565b602060405180830381865afa1580156200064b573d6000803e3d6000fd5b505050506040513d601f19601f82011682018060405250810190620006719190620022fd565b1015620006ea5760405160e560020a62461bcd02815260206004820152602e60248201527f706c61796572206d75737420686176652067616d6520746f6b656e20616d6f7560448201527f6e7420746f207769746864726177000000000000000000000000000000000000606482015260840162000435565b60028060005460a860020a900460ff1660028111156200070e576200070e62001dd0565b0362000718575060015b6000836200072860018062002330565b62000734919062002356565b90506000816003600085600281111562000752576200075262001dd0565b600281111562000766576200076662001dd0565b815260200190815260200160002054600360008060159054906101000a900460ff1660028111156200079c576200079c62001dd0565b6002811115620007b057620007b062001dd0565b81526020019081526020016000205484620007cc919062002330565b620007d8919062002356565b620007e4919062002370565b9050600760009054906101000a9004600160a060020a0316600160a060020a0316633fc15f156040518163ffffffff1660e060020a028152600401602060405180830381865afa1580156200083d573d6000803e3d6000fd5b505050506040513d601f19601f8201168201806040525081019062000863919062002386565b6040517fa9059cbb00000000000000000000000000000000000000000000000000000000815233600482015260248101839052600160a060020a03919091169063a9059cbb906044016020604051808303816000875af1158015620008cc573d6000803e3d6000fd5b505050506040513d601f19601f82011682018060405250810190620008f29190620023b3565b50620009018433308862001cb8565b6002600160005460a860020a900460ff16600281111562000926576200092662001dd0565b0362000930575060015b6040805160e08101825260068054825282518084018452600881527f57495448445241570000000000000000000000000000000000000000000000006020828101919091528301908152928201859052426060830181905260ff851660808401523060a08401523360c084015260058054600181018255600091909152835192027f036b6384b5eca791c62761152d0c79bb0604c104a5fb6f4eb0703f3154bb3db08101928355935190937f036b6384b5eca791c62761152d0c79bb0604c104a5fb6f4eb0703f3154bb3db1019062000a0a908262002461565b506040820151600282015560608201516003820155608082015160048201805460a085015160ff90931674ffffffffffffffffffffffffffffffffffffffffff1990911617610100600160a060020a039384160217905560c0909201516005909101805473ffffffffffffffffffffffffffffffffffffffff1916919092161790556006805490600062000a9e8362002534565b90915550506007546040517f79769488000000000000000000000000000000000000000000000000000000008152600160a060020a039091169063797694889062000af490339086908890879060040162002550565b600060405180830381600087803b15801562000b0f57600080fd5b505af115801562000b24573d6000803e3d6000fd5b5050505050505050505050565b6040805161012081018252600080825260208201819052918101829052606081018290526080810182905260a0810182905260c0810182905260e08101829052610100810191909152600854600160a060020a031633148062000b9e5750600a54600160a060020a031633145b62000c155760405160e560020a62461bcd02815260206004820152602760248201527f6f6e6c792067616d6520746f6b656e2063616e20637265617465206e6577206c60448201527f697374696e677300000000000000000000000000000000000000000000000000606482015260840162000435565b60006011549050600081873388888860405162000c329062001dae565b958652600160a060020a03948516602087015292841660408601526060850191909152909116608083015260a082015260c001604051809103906000f08015801562000c82573d6000803e3d6000fd5b506040805161012081018252848152600160a060020a0380841660208301528a811682840152336060830152608082018a9052600060a0830181905290891660c083015260e08201889052610100820152905160e260020a6301c2d7ad0281529192509073__IterableMapping_______________________9063070b5eb49062000d1790600c908790869060040162002579565b60006040518083038186803b15801562000d3057600080fd5b505af415801562000d45573d6000803e3d6000fd5b50506011805492509050600062000d5c8362002534565b91905055507fd1fe3704bd3aa4f4974d5168e39528bbb86b19e98e5f798beea49af58df301398160405162000d92919062001fd0565b60405180910390a1925050505b949350505050565b60015442108062000dd85750600160005460a060020a900460ff16600181111562000dd65762000dd662001dd0565b145b1562000de057565b6000805474ff0000000000000000000000000000000000000000191660a060020a17905560028054819062000e1462001826565b1262000e21575060019050805b6000805483919075ff000000000000000000000000000000000000000000191660a860020a83600281111562000e5b5762000e5b62001dd0565b02179055506007546040517fe362937d00000000000000000000000000000000000000000000000000000000815260ff83166004820152600160a060020a039091169063e362937d90602401600060405180830381600087803b15801562000ec257600080fd5b505af115801562000ed7573d6000803e3d6000fd5b505050505050565b60008060005460a060020a900460ff16600181111562000f035762000f0362001dd0565b1462000f7b5760405160e560020a62461bcd02815260206004820152602860248201527f47616d6520697320636c6f7365642c206e6f206675727468657220626574732060448201527f6163636570746564000000000000000000000000000000000000000000000000606482015260840162000435565b8160ff166001148062000f9157508160ff166002145b62000fe25760405160e560020a62461bcd02815260206004820152601a60248201527f6265742073696465206973206e6f74207265636f676e69736564000000000000604482015260640162000435565b6001544211156200105f5760405160e560020a62461bcd02815260206004820152602260248201527f63616e6e6f74207075742062657473206166746572207265736f6c766520746960448201527f6d65000000000000000000000000000000000000000000000000000000000000606482015260840162000435565b6007546040805160e060020a633fc15f1502815290518592600160a060020a031691633fc15f159160048083019260209291908290030181865afa158015620010ac573d6000803e3d6000fd5b505050506040513d601f19601f82011682018060405250810190620010d2919062002386565b60405160e160020a636eb1769f028152600160a060020a038781166004830152306024830152919091169063dd62ed3e90604401602060405180830381865afa15801562001124573d6000803e3d6000fd5b505050506040513d601f19601f820116820180604052508101906200114a9190620022fd565b1015620011c35760405160e560020a62461bcd02815260206004820152602d60248201527f706c617965722773206877616e67206d61726b657420746f6b656e20616c6c6f60448201527f77616e636520746f6f206c6f7700000000000000000000000000000000000000606482015260840162000435565b6007546040805160e060020a633fc15f1502815290518592600160a060020a031691633fc15f159160048083019260209291908290030181865afa15801562001210573d6000803e3d6000fd5b505050506040513d601f19601f8201168201806040525081019062001236919062002386565b600160a060020a03166370a08231866040518263ffffffff1660e060020a02815260040162001266919062001dbc565b602060405180830381865afa15801562001284573d6000803e3d6000fd5b505050506040513d601f19601f82011682018060405250810190620012aa9190620022fd565b1015620013235760405160e560020a62461bcd02815260206004820152602b60248201527f706c617965722773206877616e67206d61726b657420746f6b656e2062616c6160448201527f6e636520746f6f206c6f77000000000000000000000000000000000000000000606482015260840162000435565b600260ff831660010362001335575060015b600954600160a060020a031660ff84166001036200135b5750600b54600160a060020a03165b60006200136a60018762002356565b905081600160a060020a03166319d1997a6040518163ffffffff1660e060020a028152600401602060405180830381865afa158015620013ae573d6000803e3d6000fd5b505050506040513d601f19601f82011682018060405250810190620013d49190620022fd565b8183600160a060020a03166318160ddd6040518163ffffffff1660e060020a028152600401602060405180830381865afa15801562001417573d6000803e3d6000fd5b505050506040513d601f19601f820116820180604052508101906200143d9190620022fd565b62001449919062002370565b1115620014c25760405160e560020a62461bcd02815260206004820152602760248201527f67616d6520746f6b656e2063616e6e6f74206d696e742072657175657374656460448201527f20616d6f756e7400000000000000000000000000000000000000000000000000606482015260840162000435565b6040517f40c10f19000000000000000000000000000000000000000000000000000000008152600160a060020a038881166004830152602482018390528316906340c10f1990604401600060405180830381600087803b1580156200152657600080fd5b505af11580156200153b573d6000803e3d6000fd5b50505050620015c9600760009054906101000a9004600160a060020a0316600160a060020a0316633fc15f156040518163ffffffff1660e060020a028152600401602060405180830381865afa1580156200159a573d6000803e3d6000fd5b505050506040513d601f19601f82011682018060405250810190620015c0919062002386565b88308962001cb8565b8560036000856002811115620015e357620015e362001dd0565b6002811115620015f757620015f762001dd0565b8152602001908152602001600020600082825462001616919062002370565b90915550506040805160e08101825260068054825282518084018452600381527f42455400000000000000000000000000000000000000000000000000000000006020828101919091528301908152928201899052426060830181905260ff891660808401523060a0840152600160a060020a038b1660c084015260058054600181018255600091909152835192027f036b6384b5eca791c62761152d0c79bb0604c104a5fb6f4eb0703f3154bb3db08101928355935190937f036b6384b5eca791c62761152d0c79bb0604c104a5fb6f4eb0703f3154bb3db10190620016fe908262002461565b506040820151600282015560608201516003820155608082015160048201805460a085015160ff90931674ffffffffffffffffffffffffffffffffffffffffff1990911617610100600160a060020a039384160217905560c0909201516005909101805473ffffffffffffffffffffffffffffffffffffffff19169190921617905560068054906000620017928362002534565b90915550506007546040517f5039eb97000000000000000000000000000000000000000000000000000000008152600160a060020a0390911690635039eb9790620017e8908b908a908c90879060040162002550565b600060405180830381600087803b1580156200180357600080fd5b505af115801562001818573d6000803e3d6000fd5b505050505050505050505050565b60048054604080517ffeaf968c00000000000000000000000000000000000000000000000000000000815290516000938493600160a060020a03169263feaf968c928183019260a0928290030181865afa15801562001889573d6000803e3d6000fd5b505050506040513d601f19601f82011682018060405250810190620018af9190620025b2565b509195945050505050565b6040517f75a02c20000000000000000000000000000000000000000000000000000000008152600c600482015260609073__IterableMapping_______________________906375a02c2090602401600060405180830381865af415801562001927573d6000803e3d6000fd5b505050506040513d6000823e601f3d908101601f19168201604052620019519190810190620026c5565b905090565b805160405160e260020a6301c2d7ad02815273__IterableMapping_______________________9163070b5eb4916200199791600c91869060040162002579565b60006040518083038186803b158015620019b057600080fd5b505af4158015620019c5573d6000803e3d6000fd5b505050507f4758bcd8e425945eea731ed13074c209c3176197b970b6a78b278ad015ae907881604051620019fa919062001fd0565b60405180910390a150565b6040517fd31c830c000000000000000000000000000000000000000000000000000000008152600c60048201526024810182905260009073__IterableMapping_______________________9063d31c830c9060440161012060405180830381865af415801562001a7a573d6000803e3d6000fd5b505050506040513d601f19601f8201168201806040525081019062001aa0919062002782565b6020015192915050565b60008160ff166001148062001ac257508160ff166002145b62001b135760405160e560020a62461bcd02815260206004820152601a60248201527f73696465206d757374206265206f6e65206f662031206f722032000000000000604482015260640162000435565b600260ff831660010362001b25575060015b6003600082600281111562001b3e5762001b3e62001dd0565b600281111562001b525762001b5262001dd0565b815260200190815260200160002054915050919050565b60606005805480602002602001604051908101604052809291908181526020016000905b8282101562001caf57838290600052602060002090600602016040518060e00160405290816000820154815260200160018201805462001bcd90620023d3565b80601f016020809104026020016040519081016040528092919081815260200182805462001bfb90620023d3565b801562001c4c5780601f1062001c205761010080835404028352916020019162001c4c565b820191906000526020600020905b81548152906001019060200180831162001c2e57829003601f168201915b5050509183525050600282015460208083019190915260038301546040830152600483015460ff81166060840152600160a060020a036101009091048116608084015260059093015490921660a090910152908252600192909201910162001b8d565b50505050905090565b6040517f23b872dd000000000000000000000000000000000000000000000000000000008152600160a060020a038481166004830152838116602483015260448201839052600091908616906323b872dd906064016020604051808303816000875af115801562001d2d573d6000803e3d6000fd5b505050506040513d601f19601f8201168201806040525081019062001d539190620023b3565b90508062001da75760405160e560020a62461bcd02815260206004820152601560248201527f546f6b656e207472616e73666572206661696c65640000000000000000000000604482015260640162000435565b5050505050565b61097880620027a383390190565b600160a060020a0391909116815260200190565b60e060020a634e487b7102600052602160045260246000fd5b6003811062001dfc5762001dfc62001dd0565b9052565b6020810162001e10828462001de9565b92915050565b60006020828403121562001e2957600080fd5b5035919050565b60006020828403121562001e4357600080fd5b81356003811062001e5357600080fd5b9392505050565b6002811062001dfc5762001dfc62001dd0565b600160a060020a038616815260a0810162001e8c602083018762001e5a565b62001e9b604083018662001de9565b6060820193909352608001529392505050565b6020810162001e10828462001e5a565b600160a060020a038116811462001ed457600080fd5b50565b803562001ee48162001ebe565b919050565b6000806000806080858703121562001f0057600080fd5b843562001f0d8162001ebe565b935060208501359250604085013562001f268162001ebe565b9396929550929360600135925050565b805182526020810151600160a060020a03808216602085015280604084015116604085015280606084015116606085015250506080810151608083015260a081015162001f8e60a0840182600160a060020a03169052565b5060c081015162001faa60c0840182600160a060020a03169052565b5060e081015160e08301526101008082015162001fca8285018215159052565b50505050565b610120810162001e10828462001f36565b803560ff8116811462001ee457600080fd5b6000806000606084860312156200200957600080fd5b8335620020168162001ebe565b9250602084013591506200202d6040850162001fe1565b90509250925092565b6020808252825182820181905260009190848201906040850190845b818110156200207d576200206883855162001f36565b92840192610120929092019160010162002052565b50909695505050505050565b60e060020a634e487b7102600052604160045260246000fd5b604051610120810167ffffffffffffffff81118282101715620020c957620020c962002089565b60405290565b604051601f8201601f1916810167ffffffffffffffff81118282101715620020fb57620020fb62002089565b604052919050565b801515811462001ed457600080fd5b803562001ee48162002103565b600061012082840312156200213357600080fd5b6200213d620020a2565b823581526200214f6020840162001ed7565b6020820152620021626040840162001ed7565b6040820152620021756060840162001ed7565b6060820152608083013560808201526200219260a0840162001ed7565b60a0820152620021a560c0840162001ed7565b60c082015260e083013560e0820152610100620021c481850162002112565b908201529392505050565b600060208284031215620021e257600080fd5b62001e538262001fe1565b6020808252825182820181905260009190604090818501908084028601830187850186805b84811015620022ee57603f198a8503018652825160e08151865289820151818b880152805180838901528592505b8083101562002261578183018c01518884016101000152918b019162002240565b61010092508583828a0101528a8401518b890152606091508184015182890152608091508184015162002298838a018260ff169052565b5060a0915081840151620022b6838a0182600160a060020a03169052565b5060c093840151600160a060020a03811689860152939150988b0198601f01601f191696909601019450509187019160010162002212565b50919998505050505050505050565b6000602082840312156200231057600080fd5b5051919050565b60e060020a634e487b7102600052601160045260246000fd5b600082620023515760e060020a634e487b7102600052601260045260246000fd5b500490565b808202811582820484141762001e105762001e1062002317565b8082018082111562001e105762001e1062002317565b6000602082840312156200239957600080fd5b815162001e538162001ebe565b805162001ee48162002103565b600060208284031215620023c657600080fd5b815162001e538162002103565b600281046001821680620023e857607f821691505b6020821081036200240c5760e060020a634e487b7102600052602260045260246000fd5b50919050565b601f8211156200245c576000818152602081206020601f860104810160208610156200243b5750805b6020601f860104820191505b8181101562000ed75782815560010162002447565b505050565b815167ffffffffffffffff8111156200247e576200247e62002089565b62002496816200248f8454620023d3565b8462002412565b602080601f831160018114620024d25760008415620024b55750858301515b60028086026008870290910a600019041982161786555062000ed7565b600085815260208120601f198616915b828110156200250357888601518255948401946001909101908401620024e2565b50858210156200252457878501516008601f88160260020a60001904191681555b5050505050600202600101905550565b60006001820162002549576200254962002317565b5060010190565b600160a060020a0394909416845260ff9290921660208401526040830152606082015260800190565b83815260208101839052610160810162000d9f604083018462001f36565b805169ffffffffffffffffffff8116811462001ee457600080fd5b600080600080600060a08688031215620025cb57600080fd5b620025d68662002597565b9450602086015193506040860151925060608601519150620025fb6080870162002597565b90509295509295909350565b805162001ee48162001ebe565b600061012082840312156200262857600080fd5b62002632620020a2565b905081518152620026466020830162002607565b6020820152620026596040830162002607565b60408201526200266c6060830162002607565b6060820152608082015160808201526200268960a0830162002607565b60a08201526200269c60c0830162002607565b60c082015260e082015160e0820152610100620026bb818401620023a6565b9082015292915050565b60006020808385031215620026d957600080fd5b825167ffffffffffffffff80821115620026f257600080fd5b818501915085601f8301126200270757600080fd5b8151818111156200271c576200271c62002089565b6200272b8485830201620020cf565b81815284810192506101209182028401850191888311156200274c57600080fd5b938501935b82851015620027765762002766898662002614565b8452938401939285019262002751565b50979650505050505050565b600061012082840312156200279657600080fd5b62001e5383836200261456fe608060405234801561001057600080fd5b5060405161097838038061097883398101604081905261002f9161020c565b6000805433600160a060020a03199182168117909255600a805461010060a860020a031916610100909302929092179091556001879055600280548216600160a060020a03888116918217909255600380548416888416908117909155600587905560078054851693871693909317909255600984905560048054909316821783556040517f70a082310000000000000000000000000000000000000000000000000000000081529283015284916370a0823190602401602060405180830381865afa158015610103573d6000803e3d6000fd5b505050506040513d601f19601f82011682018060405250810190610127919061026b565b10156101bb57604080517f08c379a00000000000000000000000000000000000000000000000000000000081526020600482015260248101919091527f706c6179657220312068617320696e73756666696369656e742062616c616e6360448201527f65206f6620746f6b656e203120746f206372656174652061206c697374696e67606482015260840160405180910390fd5b5060088054600160a060020a031916600160a060020a03929092169190911790555050600a805460ff19169055506102849050565b8051600160a060020a038116811461020757600080fd5b919050565b60008060008060008060c0878903121561022557600080fd5b86519550610235602088016101f0565b9450610243604088016101f0565b935060608701519250610258608088016101f0565b915060a087015190509295509295509295565b60006020828403121561027d57600080fd5b5051919050565b6106e5806102936000396000f3fe608060405234801561001057600080fd5b50600436106100d1576000357c010000000000000000000000000000000000000000000000000000000090048063c4e5edcd1161008e578063c4e5edcd14610176578063d21220a71461017f578063d30895e414610192578063d5488048146101a5578063d70c6703146101b8578063e2d46f98146101c157600080fd5b806302d05d3f146100d657806325be124e1461010657806358aaf0be1461011957806359a5f12d1461012c5780636f6ff4051461013f5780639405dfdd1461015f575b600080fd5b6000546100e990600160a060020a031681565b604051600160a060020a0390911681526020015b60405180910390f35b6007546100e990600160a060020a031681565b6008546100e990600160a060020a031681565b6006546100e990600160a060020a031681565b61015261014d366004610593565b6101de565b6040516100fd91906105c3565b61016860015481565b6040519081526020016100fd565b61016860095481565b6003546100e990600160a060020a031681565b6002546100e990600160a060020a031681565b6004546100e990600160a060020a031681565b61016860055481565b600a546101ce9060ff1681565b60405190151581526020016100fd565b6040805161012081018252600080825260208201819052918101829052606081018290526080810182905260a0810182905260c0810182905260e081018290526101008101919091526005546004805460025460405160e160020a636eb1769f028152600160a060020a0391821693810193909352306024840152169063dd62ed3e90604401602060405180830381865afa158015610281573d6000803e3d6000fd5b505050506040513d601f19601f820116820180604052508101906102a59190610674565b10156102fb5760405160e560020a62461bcd02815260206004820152601960248201527f546f6b656e203120616c6c6f77616e636520746f6f206c6f770000000000000060448201526064015b60405180910390fd5b60095460085460405160e160020a636eb1769f028152600160a060020a0385811660048301523060248301529091169063dd62ed3e90604401602060405180830381865afa158015610351573d6000803e3d6000fd5b505050506040513d601f19601f820116820180604052508101906103759190610674565b10156103c65760405160e560020a62461bcd02815260206004820152601960248201527f546f6b656e203220616c6c6f77616e636520746f6f206c6f770000000000000060448201526064016102f2565b6004546002546005546103e892600160a060020a0390811692169085906104a2565b60085460025460095461040b92600160a060020a039081169286929116906104a2565b506006805473ffffffffffffffffffffffffffffffffffffffff1916600160a060020a03928316908117909155600a805460ff1916600190811790915560408051610120810182528254815230602082015260025485169181019190915260035484166060820152600554608082015260a081019290925260075490921660c082015260095460e082015261010081019190915290565b6040517f23b872dd000000000000000000000000000000000000000000000000000000008152600160a060020a038481166004830152838116602483015260448201839052600091908616906323b872dd906064016020604051808303816000875af1158015610516573d6000803e3d6000fd5b505050506040513d601f19601f8201168201806040525081019061053a919061068d565b90508061058c5760405160e560020a62461bcd02815260206004820152601560248201527f546f6b656e207472616e73666572206661696c6564000000000000000000000060448201526064016102f2565b5050505050565b6000602082840312156105a557600080fd5b8135600160a060020a03811681146105bc57600080fd5b9392505050565b600061012082019050825182526020830151600160a060020a0380821660208501528060408601511660408501525050606083015161060d6060840182600160a060020a03169052565b506080830151608083015260a083015161063260a0840182600160a060020a03169052565b5060c083015161064d60c0840182600160a060020a03169052565b5060e083015160e08301526101008084015161066c8285018215159052565b505092915050565b60006020828403121561068657600080fd5b5051919050565b60006020828403121561069f57600080fd5b815180151581146105bc57600080fdfea2646970667358221220390088a1b0c1e56a66e9da22b3d155c6149f1428e5d1016c33317b095f3ab81b64736f6c63430008110033a26469706673582212201fd094b6eceec2bcb4c13e9115ca778462f6d4ff2be622c2fb3d03b9062c2b4b64736f6c6343000811003360806040523480156200001157600080fd5b506040516200154538038062001545833981016040819052620000349162000164565b60068054600160a060020a0319163317905560046200005484826200027f565b5060056200006383826200027f565b506000908155600155505060078054600160a060020a0319163317905562000351565b7f4e487b7100000000000000000000000000000000000000000000000000000000600052604160045260246000fd5b600082601f830112620000c757600080fd5b81516001604060020a0380821115620000e457620000e462000086565b604051601f8301601f19908116603f011681019082821181831017156200010f576200010f62000086565b816040528381526020925086838588010111156200012c57600080fd5b600091505b8382101562000150578582018301518183018401529082019062000131565b600093810190920192909252949350505050565b6000806000606084860312156200017a57600080fd5b83516001604060020a03808211156200019257600080fd5b620001a087838801620000b5565b94506020860151915080821115620001b757600080fd5b50620001c686828701620000b5565b925050604084015190509250925092565b600281046001821680620001ec57607f821691505b60208210810362000226577f4e487b7100000000000000000000000000000000000000000000000000000000600052602260045260246000fd5b50919050565b601f8211156200027a576000818152602081206020601f86010481016020861015620002555750805b6020601f860104820191505b81811015620002765782815560010162000261565b5050505b505050565b81516001604060020a038111156200029b576200029b62000086565b620002b381620002ac8454620001d7565b846200022c565b602080601f831160018114620002ef5760008415620002d25750858301515b60028086026008870290910a600019041982161786555062000276565b600085815260208120601f198616915b828110156200032057888601518255948401946001909101908401620002ff565b50858210156200034157878501516008601f88160260020a60001904191681555b5050505050600202600101905550565b6111e480620003616000396000f3fe608060405234801561001057600080fd5b50600436106100c35760003560e060020a9004806342966c681161008057806342966c681461015157806370a082311461016457806395d89b41146101845780639ea3c8201461018c578063a9059cbb146101ac578063dd62ed3e146101bf578063de6a8dc5146101ea57600080fd5b806306fdde03146100c8578063095ea7b3146100e657806318160ddd1461010957806319d1997a1461012057806323b872dd1461012957806340c10f191461013c575b600080fd5b6100d06101fd565b6040516100dd9190610d68565b60405180910390f35b6100f96100f4366004610dce565b61028b565b60405190151581526020016100dd565b61011260015481565b6040519081526020016100dd565b61011260005481565b6100f9610137366004610dfa565b61031a565b61014f61014a366004610dce565b6104ca565b005b61014f61015f366004610e3b565b61062a565b610112610172366004610e54565b60026020526000908152604090205481565b6100d06106c2565b61019f61019a366004610e54565b6106cf565b6040516100dd9190610e78565b6100f96101ba366004610dce565b610ae5565b6101126101cd366004610f29565b600360209081526000928352604080842090915290825290205481565b61019f6101f8366004610f62565b610bcb565b6004805461020a90610f89565b80601f016020809104026020016040519081016040528092919081815260200182805461023690610f89565b80156102835780601f1061025857610100808354040283529160200191610283565b820191906000526020600020905b81548152906001019060200180831161026657829003601f168201915b505050505081565b336000908152600260205260408120548211156102c65760405160e560020a62461bcd0281526004016102bd90610fc6565b60405180910390fd5b336000818152600360209081526040808320600160a060020a038816808552908352928190208690555185815291929160008051602061118f83398151915291015b60405180910390a35060015b92915050565b600160a060020a03831660009081526003602090815260408083203384529091528120548211156103b65760405160e560020a62461bcd02815260206004820152602f60248201527f696e73756666696369656e7420616c6c6f77616e636520746f2072656369706960448201527f656e742066726f6d2073656e646572000000000000000000000000000000000060648201526084016102bd565b600160a060020a0384166000908152600260205260409020548211156103f15760405160e560020a62461bcd0281526004016102bd90610fc6565b600160a060020a038416600090815260036020908152604080832033845290915281208054849290610424908490611016565b9091555050600160a060020a03841660009081526002602052604081208054849290610451908490611016565b9091555050600160a060020a0383166000908152600260205260408120805484929061047e908490611029565b9250508190555082600160a060020a031684600160a060020a031660008051602061116f833981519152846040516104b891815260200190565b60405180910390a35060019392505050565b600654600160a060020a031633146105275760405160e560020a62461bcd02815260206004820152600e60248201527f4e6f7420617574686f72697a656400000000000000000000000000000000000060448201526064016102bd565b600054816001546105389190611029565b11156105b1576040805160e560020a62461bcd0281526020600482015260248101919091527f63616e6e6f74206d696e74207468652072657175657374656420616d6f756e7460448201527f206f6620746f6b656e732c20737570706c79206c696d697420746f6f206c6f7760648201526084016102bd565b600160a060020a038216600090815260026020526040812080548392906105d9908490611029565b9250508190555080600160008282546105f29190611029565b9091555050604051818152600160a060020a0383169060009060008051602061116f8339815191529060200160405180910390a35050565b3360009081526002602052604090205481111561065c5760405160e560020a62461bcd0281526004016102bd90610fc6565b336000908152600260205260408120805483929061067b908490611016565b9250508190555080600160008282546106949190611016565b9091555050604051818152600090339060008051602061116f8339815191529060200160405180910390a350565b6005805461020a90610f89565b6106d7610d1c565b600082905030600160a060020a031681600160a060020a03166325be124e6040518163ffffffff1660e060020a028152600401602060405180830381865afa158015610727573d6000803e3d6000fd5b505050506040513d601f19601f8201168201806040525081019061074b919061104c565b600160a060020a0316146107a45760405160e560020a62461bcd02815260206004820181905260248201527f6c697374696e672077616e7473206120646966666572656e7420746f6b656e3260448201526064016102bd565b80600160a060020a031663c4e5edcd6040518163ffffffff1660e060020a028152600401602060405180830381865afa1580156107e5573d6000803e3d6000fd5b505050506040513d601f19601f820116820180604052508101906108099190611069565b33600090815260026020526040902054101561083a5760405160e560020a62461bcd0281526004016102bd90610fc6565b80600160a060020a031663c4e5edcd6040518163ffffffff1660e060020a028152600401602060405180830381865afa15801561087b573d6000803e3d6000fd5b505050506040513d601f19601f8201168201806040525081019061089f9190611069565b336000908152600360209081526040808320600160a060020a0388168452909152812080549091906108d2908490611029565b9250508190555082600160a060020a031633600160a060020a031660008051602061118f83398151915283600160a060020a031663c4e5edcd6040518163ffffffff1660e060020a028152600401602060405180830381865afa15801561093d573d6000803e3d6000fd5b505050506040513d601f19601f820116820180604052508101906109619190611069565b60405190815260200160405180910390a36040517f6f6ff405000000000000000000000000000000000000000000000000000000008152336004820152600090600160a060020a03831690636f6ff40590602401610120604051808303816000875af11580156109d5573d6000803e3d6000fd5b505050506040513d601f19601f820116820180604052508101906109f991906110cd565b9050600082600160a060020a03166302d05d3f6040518163ffffffff1660e060020a028152600401602060405180830381865afa158015610a3e573d6000803e3d6000fd5b505050506040513d601f19601f82011682018060405250810190610a62919061104c565b6040517fdc8046f0000000000000000000000000000000000000000000000000000000008152909150600160a060020a0382169063dc8046f090610aaa908590600401610e78565b600060405180830381600087803b158015610ac457600080fd5b505af1158015610ad8573d6000803e3d6000fd5b5093979650505050505050565b33600090815260026020526040812054821115610b175760405160e560020a62461bcd0281526004016102bd90610fc6565b3360009081526002602052604081208054849290610b36908490611016565b9091555050600160a060020a03831660009081526002602052604081208054849290610b63908490611029565b9091555050336000908152600360209081526040808320600160a060020a038716845290915281208054849290610b9b908490611016565b9091555050604051828152600160a060020a03841690339060008051602061116f83398151915290602001610308565b610bd3610d1c565b33600090815260026020526040902054841115610c055760405160e560020a62461bcd0281526004016102bd90610fc6565b6007546040517f2cd1adfe00000000000000000000000000000000000000000000000000000000815233600482015260248101869052600160a060020a038581166044830152606482018590526000921690632cd1adfe90608401610120604051808303816000875af1158015610c80573d6000803e3d6000fd5b505050506040513d601f19601f82011682018060405250810190610ca491906110cd565b602080820151336000908152600383526040808220600160a060020a038416835290935291822080549394509092889290610ce0908490611029565b9091555050604051868152600160a060020a03821690339060008051602061118f8339815191529060200160405180910390a350949350505050565b6040805161012081018252600080825260208201819052918101829052606081018290526080810182905260a0810182905260c0810182905260e0810182905261010081019190915290565b600060208083528351808285015260005b81811015610d9557858101830151858201604001528201610d79565b506000604082860101526040601f19601f8301168501019250505092915050565b600160a060020a0381168114610dcb57600080fd5b50565b60008060408385031215610de157600080fd5b8235610dec81610db6565b946020939093013593505050565b600080600060608486031215610e0f57600080fd5b8335610e1a81610db6565b92506020840135610e2a81610db6565b929592945050506040919091013590565b600060208284031215610e4d57600080fd5b5035919050565b600060208284031215610e6657600080fd5b8135610e7181610db6565b9392505050565b600061012082019050825182526020830151600160a060020a03808216602085015280604086015116604085015250506060830151610ec26060840182600160a060020a03169052565b506080830151608083015260a0830151610ee760a0840182600160a060020a03169052565b5060c0830151610f0260c0840182600160a060020a03169052565b5060e083015160e083015261010080840151610f218285018215159052565b505092915050565b60008060408385031215610f3c57600080fd5b8235610f4781610db6565b91506020830135610f5781610db6565b809150509250929050565b600080600060608486031215610f7757600080fd5b833592506020840135610e2a81610db6565b600281046001821680610f9d57607f821691505b602082108103610fc05760e060020a634e487b7102600052602260045260246000fd5b50919050565b6020808252601e908201527f696e73756666696369656e742062616c616e636520696e2073656e6465720000604082015260600190565b60e060020a634e487b7102600052601160045260246000fd5b8181038181111561031457610314610ffd565b8082018082111561031457610314610ffd565b805161104781610db6565b919050565b60006020828403121561105e57600080fd5b8151610e7181610db6565b60006020828403121561107b57600080fd5b5051919050565b604051610120810167ffffffffffffffff811182821017156110b75760e060020a634e487b7102600052604160045260246000fd5b60405290565b8051801515811461104757600080fd5b600061012082840312156110e057600080fd5b6110e8611082565b825181526110f86020840161103c565b60208201526111096040840161103c565b604082015261111a6060840161103c565b60608201526080830151608082015261113560a0840161103c565b60a082015261114660c0840161103c565b60c082015260e083015160e08201526101006111638185016110bd565b90820152939250505056feddf252ad1be2c89b69c2b068fc378daa952ba7f163c4a11628f55a4df523b3ef8c5be1e5ebec7d5bd14f71427d1e84f3dd0314c0f7b2291e5b200ac8c7c3b925a264697066735822122051fd6d576929a17b45ca244c8987bd6181fe0ff0fc31404ddcac14075bf6a23f64736f6c63430008110033a2646970667358221220ecc9beee1e525966cd6f35585578a9d9ad9b19094b5c1b61574b7dd365e2c2af64736f6c63430008110033",
  "immutableReferences": {},
  "source": "// SPDX-License-Identifier: MIT\npragma solidity >=0.4.22 <0.9.0;\n\nimport \"./MainToken.sol\";\nimport \"./IListingOwner.sol\";\nimport \"./GameContract.sol\";\nimport \"./GameContractFactory.sol\";\nimport \"./IterableMapping.sol\";\nimport \"./Models.sol\";\nimport \"@openzeppelin/contracts/utils/math/SafeMath.sol\";\nimport \"@openzeppelin/contracts/token/ERC20/IERC20.sol\";\n\ncontract HwangMarket is IListingOwner {\n  using IterableMapping for IterableMapping.ListingsMap;\n  using SafeMath for uint256;\n  address public mainTokenAddress;\n  MainToken public mainToken;\n\n  // game contract factory is used to reduce contract build size :(\n  GameContractFactory gameFactory;\n\n  // for all activity\n  uint256 private trxId;\n\n  // for all games created\n  uint256 private gameCount;\n  mapping(uint256 => Models.GameMetadata) public gameContractRegistry;\n  mapping(address => uint256) public gameAddr2Id;\n  \n  // for all ongoing games\n  uint256 private ongoingGamesCnt; // record end of ongoing games array\n  Models.GameMetadata[] public ongoingGames;\n  mapping(uint256 => int256) ongoingGamesId2Idx;\n\n  // for all closed games\n  Models.GameMetadata[] public closedGames;\n\n  // Activity types constant\n  string constant BetActivityType = \"BET\";\n  string constant WithdrawActivityType = \"WITHDRAW\";\n\n  mapping(address => Models.Activity[]) public playersRecords;\n\n  IterableMapping.ListingsMap private listingContracts;\n  uint256 public listingsCount;\n  \n  mapping(address => Models.TokenInfo) public gameTokensRegistry;\n  constructor() {\n    // we start counting from game 1, game id 0 is nonsense since its also default value\n    gameCount = 1;\n    mainToken = new MainToken();\n    mainTokenAddress = address(mainToken);\n    gameFactory = new GameContractFactory();\n  }\n\n  event GameCreated(Models.GameMetadata gameMetadata);\n  event PlayerJoinedGameEvent(address player, uint256 gameId, address gameAddr, uint8 betSide, uint256 amount);\n  event PlayerWithdrawedWinnings(address player, uint256 gameId, address gameAddr, uint8 betSide, uint256 withdrawedAmt);\n  event GameConcluded(uint256 gameId, address gameAddr, uint8 gameOutcome);\n  event NewListing(Models.ListingInfo listingInfo);\n  event ListingFulfilled(Models.ListingInfo listingInfo);\n\n  // create game contract instance\n  function createGame(uint256 resolveTime, address oracleAddr, int256 threshold, string memory tag, string memory title) public returns (address) {\n    GameContract newGame = gameFactory.createGame(address(this), resolveTime, oracleAddr, threshold); \n    address newGameAddress = address(newGame);\n    gameContractRegistry[gameCount] = Models.GameMetadata({\n      id: gameCount,\n      createdTime: block.timestamp,\n      addr: newGameAddress,\n      tag: tag,\n      title: title,\n      oracleAddr: oracleAddr,\n      resolveTime: resolveTime,\n      threshold: threshold,\n      totalAmount: 0,\n      betYesAmount: 0,\n      betNoAmount: 0,\n      ongoing: true,\n      gameOutcome: 0\n    });\n    gameTokensRegistry[newGame.gameYesTokenContractAddress()] = Models.TokenInfo({\n      tokenAddr: newGame.gameYesTokenContractAddress(),\n      betSide: 1,\n      gameId: gameCount,\n      gameAddr: newGameAddress,\n      gameTag: tag,\n      gameTitle: title,\n      gameOracleAddr: oracleAddr,\n      gameResolveTime: resolveTime,\n      gameThreshold: threshold\n    });\n    gameTokensRegistry[newGame.gameNoTokenContractAddress()] = Models.TokenInfo({\n      tokenAddr: newGame.gameNoTokenContractAddress(),\n      betSide: 0,\n      gameId: gameCount,\n      gameAddr: newGameAddress,\n      gameTag: tag,\n      gameTitle: title,\n      gameOracleAddr: oracleAddr,\n      gameResolveTime: resolveTime,\n      gameThreshold: threshold\n    });\n\n    gameAddr2Id[newGameAddress] = gameCount;\n\n    ongoingGamesId2Idx[gameCount] = int256(ongoingGamesCnt);\n    ongoingGames.push(gameContractRegistry[gameCount]);\n\n    ongoingGamesCnt = SafeMath.add(ongoingGamesCnt, 1);\n\n    emit GameCreated(gameContractRegistry[gameCount]);\n\n    gameCount = SafeMath.add(gameCount, 1);\n    return newGameAddress;\n  }\n\n  function getGameCount() public view returns (uint256) {\n    return gameCount-1; // [1, gameCount)\n  }\n\n  \n  // fetches all games\n  function getAllGames() public view returns (Models.AllGames memory) {\n    return Models.AllGames({ongoingGames: ongoingGames, closedGames: closedGames});\n  }\n\n  // creates a new listing, intended to be called by the IERC20 and IListableToken compliant token\n  function newListing(address player, uint256 token1Amt, address token2, uint256 token2Amt) external returns (Models.ListingInfo memory) {\n    require(msg.sender == mainTokenAddress, \"only main token can call\");\n    uint256 newListingId = listingsCount;\n    ListingContract newListingContract = new ListingContract(newListingId, player, msg.sender, token1Amt, token2, token2Amt);\n    Models.ListingInfo memory listingInfo = Models.ListingInfo({\n      listingId: newListingId,\n      listingAddr: address(newListingContract),\n      player1: player,\n      token1: msg.sender,\n      token1Amt: token1Amt,\n      player2: address(0),\n      token2: token2,\n      token2Amt: token2Amt,\n      fulfilled: false\n    });\n    listingContracts.set(newListingId, listingInfo);\n\n    listingsCount++;\n    emit NewListing(listingInfo);\n    return listingInfo;\n  }\n\n  function getAllListings() external view returns (Models.ListingInfo[] memory) {\n    return listingContracts.getlistingValues();\n  }\n\n  function updateListing(Models.ListingInfo memory listingInfo) public {\n    listingContracts.set(listingInfo.listingId, listingInfo);\n\n    emit ListingFulfilled(listingInfo);\n  }\n\n\n  // callable only by the game itself\n  // A player joined the game on a particular side\n  function playerJoinedSide(address player, uint8 betSide, uint256 amount, uint256 timestamp) external {\n    require(gameAddr2Id[msg.sender] != 0 && ongoingGamesId2Idx[gameAddr2Id[msg.sender]] != -1);\n    address gameAddr = msg.sender;\n    uint256 gameId = gameAddr2Id[gameAddr];\n    Models.GameMetadata storage game = gameContractRegistry[gameId];\n    Models.GameMetadata storage ongoingGameRef = ongoingGames[uint256(ongoingGamesId2Idx[gameId])];\n    game.totalAmount += amount;\n    ongoingGameRef.totalAmount += amount;\n    if (betSide == 2) {\n      game.betNoAmount += amount;\n      ongoingGameRef.betNoAmount += amount;\n    } else {\n      game.betYesAmount += amount;\n      ongoingGameRef.betYesAmount += amount;\n    }\n\n    // record this activity as well\n    playersRecords[player].push(Models.Activity({\n      trxId: trxId,\n      activityType: BetActivityType,\n      gameId: gameId,\n      trxAmt: amount,\n      trxTime: timestamp,\n      gameSide: betSide,\n      from: player,\n      to: gameAddr\n    }));\n\n    trxId = SafeMath.add(trxId, 1);\n\n    emit PlayerJoinedGameEvent(player, gameId, gameAddr, betSide, amount);\n  }\n\n  // callable only by contract\n  // note: withdraw winnings means recording player's owned game tokens -> hwang market tokens\n  function playerWithdrawWinnings(address _player, uint8 betSide, uint256 withdrawAmt, uint256 timestamp) external {\n    require(gameAddr2Id[msg.sender] != 0);\n    address gameAddr = msg.sender;\n    uint256 gameId = gameAddr2Id[gameAddr];\n    playersRecords[_player].push(Models.Activity({\n      trxId: trxId,\n      activityType: WithdrawActivityType,\n      gameId: gameId,\n      trxAmt: withdrawAmt,\n      trxTime: timestamp,\n      gameSide: betSide,\n      from: gameAddr,\n      to: _player\n    }));\n\n    trxId = SafeMath.add(trxId, 1);\n\n    emit PlayerWithdrawedWinnings(_player, gameId, gameAddr, betSide, withdrawAmt);\n  }\n\n  function concludeGame(uint8 gameOutcome) external {\n    require(gameAddr2Id[msg.sender] != 0);\n    address gameAddr = msg.sender;\n    uint256 gameId = gameAddr2Id[gameAddr];\n\n    // move game out of existing ongoing games\n    int256 temp = ongoingGamesId2Idx[gameId];\n    if (temp == -1) { // already concluded\n      return;\n    }\n    uint256 existingGameIdx = uint256(temp);\n    Models.GameMetadata memory finisedGame = ongoingGames[existingGameIdx];\n    Models.GameMetadata memory lastOngoingGame = ongoingGames[SafeMath.sub(ongoingGamesCnt, 1)];\n    ongoingGamesId2Idx[lastOngoingGame.id] = int256(existingGameIdx);\n    ongoingGamesId2Idx[gameId] = -1;\n    ongoingGames[existingGameIdx] = lastOngoingGame;\n    ongoingGamesCnt = SafeMath.sub(ongoingGamesCnt, 1);\n\n    // // update metadata for the game\n    finisedGame.ongoing = false;\n    finisedGame.gameOutcome = gameOutcome;\n\n    Models.GameMetadata storage g = gameContractRegistry[finisedGame.id];\n    g.ongoing = false;\n    g.gameOutcome = gameOutcome;\n\n    // add this game to array of closedGames\n    closedGames.push(finisedGame);\n    ongoingGames.pop();\n\n    emit GameConcluded(gameId, gameAddr, gameOutcome);\n  }\n\n  // to get smart contract's balance\n  function getBalance() public view returns (uint256) {\n    return address(this).balance;\n  }\n\n  function getPlayersTrxRecords(address player) public view returns (Models.Activity[] memory) {\n    return playersRecords[player];\n  }\n\n  function checkAllOngoingGamesUpkeep() external {\n    for (uint256 i=0; i<ongoingGamesCnt; i++) {\n      Models.GameMetadata storage game = ongoingGames[i];\n      GameContract gameContract = GameContract(game.addr);\n      gameContract.performUpkeep();\n    }\n  }\n}\n",
  "sourcePath": "/Users/gerald/Desktop/HwangMarket/contracts/HwangMarket.sol",
  "compiler": {
    "name": "solc",
    "version": "0.8.17+commit.8df45f5f.Emscripten.clang"
  },
  "schemaVersion": "3.4.10",
  "updatedAt": "2022-11-02T10:27:46.512Z",
  "networkType": "ethereum",
  "devdoc": {
    "kind": "dev",
    "methods": {},
    "version": 1
  },
  "userdoc": {
    "kind": "user",
    "methods": {},
    "version": 1
  }
}