{
  "contractName": "HwangMarket",
  "abi": [
    {
      "inputs": [],
      "stateMutability": "nonpayable",
      "type": "constructor"
    },
    {
      "anonymous": false,
      "inputs": [
        {
          "indexed": false,
          "internalType": "address",
          "name": "gameAddr",
          "type": "address"
        }
      ],
      "name": "GameCreated",
      "type": "event"
    },
    {
      "inputs": [
        {
          "internalType": "uint256",
          "name": "",
          "type": "uint256"
        }
      ],
      "name": "gameContractRegistry",
      "outputs": [
        {
          "internalType": "address",
          "name": "",
          "type": "address"
        }
      ],
      "stateMutability": "view",
      "type": "function",
      "constant": true
    },
    {
      "stateMutability": "payable",
      "type": "receive",
      "payable": true
    },
    {
      "inputs": [
        {
          "internalType": "uint256",
          "name": "resolveTime",
          "type": "uint256"
        },
        {
          "internalType": "address",
          "name": "oracleAddr",
          "type": "address"
        },
        {
          "internalType": "int256",
          "name": "threshold",
          "type": "int256"
        }
      ],
      "name": "createGame",
      "outputs": [
        {
          "internalType": "address",
          "name": "",
          "type": "address"
        }
      ],
      "stateMutability": "nonpayable",
      "type": "function"
    },
    {
      "inputs": [],
      "name": "getAllGames",
      "outputs": [
        {
          "components": [
            {
              "internalType": "uint256",
              "name": "id",
              "type": "uint256"
            },
            {
              "internalType": "address",
              "name": "addr",
              "type": "address"
            }
          ],
          "internalType": "struct HwangMarket.GameIdAndAddr[]",
          "name": "",
          "type": "tuple[]"
        }
      ],
      "stateMutability": "view",
      "type": "function",
      "constant": true
    }
  ],
  "bytecode": "0x608060405234801561001057600080fd5b506128dd806100206000396000f3fe6080604052600436106200003d5760003560e01c80633f863f19146200004a578063db1c45f9146200008e578063feee4a1b14620000be5762000045565b366200004557005b600080fd5b3480156200005757600080fd5b50620000766004803603810190620000709190620003c9565b62000102565b60405162000085919062000440565b60405180910390f35b3480156200009b57600080fd5b50620000a662000135565b604051620000b591906200056f565b60405180910390f35b348015620000cb57600080fd5b50620000ea6004803603810190620000e49190620005ff565b62000243565b604051620000f9919062000440565b60405180910390f35b60016020528060005260406000206000915054906101000a900473ffffffffffffffffffffffffffffffffffffffff1681565b60606000805467ffffffffffffffff8111156200015757620001566200065b565b5b6040519080825280602002602001820160405280156200019457816020015b620001806200034b565b815260200190600190039081620001765790505b50905060005b6000548110156200023b576040518060400160405280828152602001600160008054815260200190815260200160002060009054906101000a900473ffffffffffffffffffffffffffffffffffffffff1673ffffffffffffffffffffffffffffffffffffffff168152508282815181106200021a57620002196200068a565b5b602002602001018190525080806200023290620006e8565b9150506200019a565b508091505090565b6000803385858560405162000258906200037b565b62000267949392919062000757565b604051809103906000f08015801562000284573d6000803e3d6000fd5b50905080600160008054815260200190815260200160002060006101000a81548173ffffffffffffffffffffffffffffffffffffffff021916908373ffffffffffffffffffffffffffffffffffffffff1602179055507f4f0d1d413a983b9df8ab6ab954635b186a1e9a09ee6dc1b43263ddbf48412267816040516200030b919062000440565b60405180910390a162000322600054600162000333565b600081905550809150509392505050565b60008183620003439190620007a4565b905092915050565b604051806040016040528060008152602001600073ffffffffffffffffffffffffffffffffffffffff1681525090565b6120c880620007e083390190565b600080fd5b6000819050919050565b620003a3816200038e565b8114620003af57600080fd5b50565b600081359050620003c38162000398565b92915050565b600060208284031215620003e257620003e162000389565b5b6000620003f284828501620003b2565b91505092915050565b600073ffffffffffffffffffffffffffffffffffffffff82169050919050565b60006200042882620003fb565b9050919050565b6200043a816200041b565b82525050565b60006020820190506200045760008301846200042f565b92915050565b600081519050919050565b600082825260208201905092915050565b6000819050602082019050919050565b62000494816200038e565b82525050565b620004a5816200041b565b82525050565b604082016000820151620004c3600085018262000489565b506020820151620004d860208501826200049a565b50505050565b6000620004ec8383620004ab565b60408301905092915050565b6000602082019050919050565b600062000512826200045d565b6200051e818562000468565b93506200052b8362000479565b8060005b8381101562000562578151620005468882620004de565b97506200055383620004f8565b9250506001810190506200052f565b5085935050505092915050565b600060208201905081810360008301526200058b818462000505565b905092915050565b6200059e816200041b565b8114620005aa57600080fd5b50565b600081359050620005be8162000593565b92915050565b6000819050919050565b620005d981620005c4565b8114620005e557600080fd5b50565b600081359050620005f981620005ce565b92915050565b6000806000606084860312156200061b576200061a62000389565b5b60006200062b86828701620003b2565b93505060206200063e86828701620005ad565b92505060406200065186828701620005e8565b9150509250925092565b7f4e487b7100000000000000000000000000000000000000000000000000000000600052604160045260246000fd5b7f4e487b7100000000000000000000000000000000000000000000000000000000600052603260045260246000fd5b7f4e487b7100000000000000000000000000000000000000000000000000000000600052601160045260246000fd5b6000620006f5826200038e565b91507fffffffffffffffffffffffffffffffffffffffffffffffffffffffffffffffff82036200072a5762000729620006b9565b5b600182019050919050565b62000740816200038e565b82525050565b6200075181620005c4565b82525050565b60006080820190506200076e60008301876200042f565b6200077d602083018662000735565b6200078c60408301856200042f565b6200079b606083018462000746565b95945050505050565b6000620007b1826200038e565b9150620007be836200038e565b9250828201905080821115620007d957620007d8620006b9565b5b9291505056fe60806040523480156200001157600080fd5b50604051620020c8380380620020c883398181016040528101906200003791906200020a565b836000806101000a81548173ffffffffffffffffffffffffffffffffffffffff021916908373ffffffffffffffffffffffffffffffffffffffff16021790555060008060146101000a81548160ff021916908360018111156200009f576200009e6200027c565b5b02179055508260018190555060008060156101000a81548160ff02191690836002811115620000d357620000d26200027c565b5b021790555081600760006101000a81548173ffffffffffffffffffffffffffffffffffffffff021916908373ffffffffffffffffffffffffffffffffffffffff1602179055508060028190555050505050620002ab565b600080fd5b600073ffffffffffffffffffffffffffffffffffffffff82169050919050565b60006200015c826200012f565b9050919050565b6200016e816200014f565b81146200017a57600080fd5b50565b6000815190506200018e8162000163565b92915050565b6000819050919050565b620001a98162000194565b8114620001b557600080fd5b50565b600081519050620001c9816200019e565b92915050565b6000819050919050565b620001e481620001cf565b8114620001f057600080fd5b50565b6000815190506200020481620001d9565b92915050565b600080600080608085870312156200022757620002266200012a565b5b600062000237878288016200017d565b94505060206200024a87828801620001b8565b93505060406200025d878288016200017d565b92505060606200027087828801620001f3565b91505092959194509250565b7f4e487b7100000000000000000000000000000000000000000000000000000000600052602160045260246000fd5b611e0d80620002bb6000396000f3fe6080604052600436106100f75760003560e01c80636e4d243a1161008a5780639260b33f116100595780639260b33f1461031b5780639b2900ed14610344578063e2cb747d14610381578063f92a9e09146103be576100fe565b80636e4d243a146102805780637256eba4146102975780637a576ab3146102b35780638e15f473146102f0576100fe565b80631746bd1b116100c65780631746bd1b146101c1578063200d2ed2146101ed5780633618d3431461021857806342cde4e814610255576100fe565b806302d05d3f14610103578063053a2cfb1461012e57806312065fe0146101595780631486d61114610184576100fe565b366100fe57005b600080fd5b34801561010f57600080fd5b506101186103e9565b6040516101259190611087565b60405180910390f35b34801561013a57600080fd5b5061014361040d565b6040516101509190611119565b60405180910390f35b34801561016557600080fd5b5061016e610420565b60405161017b919061114d565b60405180910390f35b34801561019057600080fd5b506101ab60048036038101906101a69190611192565b610428565b6040516101b8919061114d565b60405180910390f35b3480156101cd57600080fd5b506101d6610440565b6040516101e4929190611207565b60405180910390f35b3480156101f957600080fd5b5061020261047c565b60405161020f9190611230565b60405180910390f35b34801561022457600080fd5b5061023f600480360381019061023a9190611277565b61048f565b60405161024c9190611119565b60405180910390f35b34801561026157600080fd5b5061026a6104af565b60405161027791906112bd565b60405180910390f35b34801561028c57600080fd5b506102956104b5565b005b6102b160048036038101906102ac919061133d565b6105e2565b005b3480156102bf57600080fd5b506102da60048036038101906102d59190611277565b6109a8565b6040516102e7919061114d565b60405180910390f35b3480156102fc57600080fd5b506103056109c0565b60405161031291906112bd565b60405180910390f35b34801561032757600080fd5b50610342600480360381019061033d91906113ce565b610a61565b005b34801561035057600080fd5b5061036b60048036038101906103669190611277565b610fc9565b6040516103789190611443565b60405180910390f35b34801561038d57600080fd5b506103a860048036038101906103a3919061145e565b610fe9565b6040516103b5919061114d565b60405180910390f35b3480156103ca57600080fd5b506103d3611040565b6040516103e0919061114d565b60405180910390f35b60008054906101000a900473ffffffffffffffffffffffffffffffffffffffff1681565b600060159054906101000a900460ff1681565b600047905090565b60066020528060005260406000206000915090505481565b60008060008054906101000a900473ffffffffffffffffffffffffffffffffffffffff16600060149054906101000a900460ff16915091509091565b600060149054906101000a900460ff1681565b60036020528060005260406000206000915054906101000a900460ff1681565b60025481565b6001544210156104fa576040517f08c379a00000000000000000000000000000000000000000000000000000000081526004016104f1906114e8565b60405180910390fd5b60018081111561050d5761050c6110a2565b5b600060149054906101000a900460ff16600181111561052f5761052e6110a2565b5b0361056f576040517f08c379a000000000000000000000000000000000000000000000000000000000815260040161056690611554565b60405180910390fd5b6001600060146101000a81548160ff02191690836001811115610595576105946110a2565b5b02179055506000600290506002546105ab6109c0565b126105b557600190505b80600060156101000a81548160ff021916908360028111156105da576105d96110a2565b5b021790555050565b60008015610679573373ffffffffffffffffffffffffffffffffffffffff1660008054906101000a900473ffffffffffffffffffffffffffffffffffffffff1673ffffffffffffffffffffffffffffffffffffffff1614610678576040517f08c379a000000000000000000000000000000000000000000000000000000000815260040161066f906115e6565b60405180910390fd5b5b8373ffffffffffffffffffffffffffffffffffffffff16313411156106d3576040517f08c379a00000000000000000000000000000000000000000000000000000000081526004016106ca90611652565b60405180910390fd5b3373ffffffffffffffffffffffffffffffffffffffff168473ffffffffffffffffffffffffffffffffffffffff1614610741576040517f08c379a0000000000000000000000000000000000000000000000000000000008152600401610738906116be565b60405180910390fd5b823414610783576040517f08c379a000000000000000000000000000000000000000000000000000000000815260040161077a90611750565b60405180910390fd5b60006001811115610797576107966110a2565b5b600060149054906101000a900460ff1660018111156107b9576107b86110a2565b5b146107f9576040517f08c379a00000000000000000000000000000000000000000000000000000000081526004016107f0906117e2565b60405180910390fd5b60008260ff16148061080e575060018260ff16145b61084d576040517f08c379a00000000000000000000000000000000000000000000000000000000081526004016108449061184e565b60405180910390fd5b600154421115610892576040517f08c379a0000000000000000000000000000000000000000000000000000000008152600401610889906118e0565b60405180910390fd5b34600460008673ffffffffffffffffffffffffffffffffffffffff1673ffffffffffffffffffffffffffffffffffffffff1681526020019081526020016000208190555060006002905060018360ff16036108ec57600190505b80600360008773ffffffffffffffffffffffffffffffffffffffff1673ffffffffffffffffffffffffffffffffffffffff16815260200190815260200160002060006101000a81548160ff0219169083600281111561094e5761094d6110a2565b5b0217905550836006600083600281111561096b5761096a6110a2565b5b600281111561097d5761097c6110a2565b5b8152602001908152602001600020600082825461099a919061192f565b925050819055505050505050565b60046020528060005260406000206000915090505481565b600080600760009054906101000a900473ffffffffffffffffffffffffffffffffffffffff1673ffffffffffffffffffffffffffffffffffffffff1663feaf968c6040518163ffffffff1660e01b815260040160a060405180830381865afa158015610a30573d6000803e3d6000fd5b505050506040513d601f19601f82011682018060405250810190610a5491906119e6565b5050509150508091505090565b8073ffffffffffffffffffffffffffffffffffffffff163373ffffffffffffffffffffffffffffffffffffffff1614610acf576040517f08c379a0000000000000000000000000000000000000000000000000000000008152600401610ac690611ad3565b60405180910390fd5b6000600460003373ffffffffffffffffffffffffffffffffffffffff1673ffffffffffffffffffffffffffffffffffffffff1681526020019081526020016000205411610b51576040517f08c379a0000000000000000000000000000000000000000000000000000000008152600401610b4890611b3f565b60405180910390fd5b600180811115610b6457610b636110a2565b5b600060149054906101000a900460ff166001811115610b8657610b856110a2565b5b14610bc6576040517f08c379a0000000000000000000000000000000000000000000000000000000008152600401610bbd90611bab565b60405180910390fd5b600360008273ffffffffffffffffffffffffffffffffffffffff1673ffffffffffffffffffffffffffffffffffffffff16815260200190815260200160002060009054906101000a900460ff166002811115610c2557610c246110a2565b5b600060159054906101000a900460ff166002811115610c4757610c466110a2565b5b14610c87576040517f08c379a0000000000000000000000000000000000000000000000000000000008152600401610c7e90611c17565b60405180910390fd5b60006002811115610c9b57610c9a6110a2565b5b600060159054906101000a900460ff166002811115610cbd57610cbc6110a2565b5b03610cfd576040517f08c379a0000000000000000000000000000000000000000000000000000000008152600401610cf490611c83565b60405180910390fd5b60006001811115610d1157610d106110a2565b5b600560008373ffffffffffffffffffffffffffffffffffffffff1673ffffffffffffffffffffffffffffffffffffffff16815260200190815260200160002060009054906101000a900460ff166001811115610d7057610d6f6110a2565b5b03610db0576040517f08c379a0000000000000000000000000000000000000000000000000000000008152600401610da790611d15565b60405180910390fd5b600060029050600280811115610dc957610dc86110a2565b5b600060159054906101000a900460ff166002811115610deb57610dea6110a2565b5b03610df557600190505b600060066000836002811115610e0e57610e0d6110a2565b5b6002811115610e2057610e1f6110a2565b5b815260200190815260200160002054600660008060159054906101000a900460ff166002811115610e5457610e536110a2565b5b6002811115610e6657610e656110a2565b5b815260200190815260200160002054600460008673ffffffffffffffffffffffffffffffffffffffff1673ffffffffffffffffffffffffffffffffffffffff16815260200190815260200160002054610ebf9190611d64565b610ec99190611d95565b90508273ffffffffffffffffffffffffffffffffffffffff166108fc600460008673ffffffffffffffffffffffffffffffffffffffff1673ffffffffffffffffffffffffffffffffffffffff1681526020019081526020016000205483610f30919061192f565b9081150290604051600060405180830381858888f19350505050158015610f5b573d6000803e3d6000fd5b506000600560008573ffffffffffffffffffffffffffffffffffffffff1673ffffffffffffffffffffffffffffffffffffffff16815260200190815260200160002060006101000a81548160ff02191690836001811115610fbf57610fbe6110a2565b5b0217905550505050565b60056020528060005260406000206000915054906101000a900460ff1681565b6000806002905060018360ff160361100057600190505b60066000826002811115611017576110166110a2565b5b6002811115611029576110286110a2565b5b815260200190815260200160002054915050919050565b60015481565b600073ffffffffffffffffffffffffffffffffffffffff82169050919050565b600061107182611046565b9050919050565b61108181611066565b82525050565b600060208201905061109c6000830184611078565b92915050565b7f4e487b7100000000000000000000000000000000000000000000000000000000600052602160045260246000fd5b600381106110e2576110e16110a2565b5b50565b60008190506110f3826110d1565b919050565b6000611103826110e5565b9050919050565b611113816110f8565b82525050565b600060208201905061112e600083018461110a565b92915050565b6000819050919050565b61114781611134565b82525050565b6000602082019050611162600083018461113e565b92915050565b600080fd5b6003811061117a57600080fd5b50565b60008135905061118c8161116d565b92915050565b6000602082840312156111a8576111a7611168565b5b60006111b68482850161117d565b91505092915050565b600281106111d0576111cf6110a2565b5b50565b60008190506111e1826111bf565b919050565b60006111f1826111d3565b9050919050565b611201816111e6565b82525050565b600060408201905061121c6000830185611078565b61122960208301846111f8565b9392505050565b600060208201905061124560008301846111f8565b92915050565b61125481611066565b811461125f57600080fd5b50565b6000813590506112718161124b565b92915050565b60006020828403121561128d5761128c611168565b5b600061129b84828501611262565b91505092915050565b6000819050919050565b6112b7816112a4565b82525050565b60006020820190506112d260008301846112ae565b92915050565b6112e181611134565b81146112ec57600080fd5b50565b6000813590506112fe816112d8565b92915050565b600060ff82169050919050565b61131a81611304565b811461132557600080fd5b50565b60008135905061133781611311565b92915050565b60008060006060848603121561135657611355611168565b5b600061136486828701611262565b9350506020611375868287016112ef565b925050604061138686828701611328565b9150509250925092565b600061139b82611046565b9050919050565b6113ab81611390565b81146113b657600080fd5b50565b6000813590506113c8816113a2565b92915050565b6000602082840312156113e4576113e3611168565b5b60006113f2848285016113b9565b91505092915050565b6002811061140c5761140b6110a2565b5b50565b600081905061141d826113fb565b919050565b600061142d8261140f565b9050919050565b61143d81611422565b82525050565b60006020820190506114586000830184611434565b92915050565b60006020828403121561147457611473611168565b5b600061148284828501611328565b91505092915050565b600082825260208201905092915050565b7f67616d65206973206e6f7420726561647920746f206265207265736f6c766564600082015250565b60006114d260208361148b565b91506114dd8261149c565b602082019050919050565b60006020820190508181036000830152611501816114c5565b9050919050565b7f67616d6520697320616c726561647920636c6f73656400000000000000000000600082015250565b600061153e60168361148b565b915061154982611508565b602082019050919050565b6000602082019050818103600083015261156d81611531565b9050919050565b7f596f7520617265206e6f74207468652063726561746f72206f6620746869732060008201527f67616d6521000000000000000000000000000000000000000000000000000000602082015250565b60006115d060258361148b565b91506115db82611574565b604082019050919050565b600060208201905081810360008301526115ff816115c3565b9050919050565b7f596f7520646f206e6f74206861766520656e6f7567682062616c616e63650000600082015250565b600061163c601e8361148b565b915061164782611606565b602082019050919050565b6000602082019050818103600083015261166b8161162f565b9050919050565b7f496e76616c6964205472616e73616374696f6e00000000000000000000000000600082015250565b60006116a860138361148b565b91506116b382611672565b602082019050919050565b600060208201905081810360008301526116d78161169b565b9050919050565b7f4d73672076616c7565206e6f7420657175616c20746f2065746820616d6f756e60008201527f7420737065636966696564000000000000000000000000000000000000000000602082015250565b600061173a602b8361148b565b9150611745826116de565b604082019050919050565b600060208201905081810360008301526117698161172d565b9050919050565b7f47616d6520697320636c6f7365642c206e6f206675727468657220626574732060008201527f6163636570746564000000000000000000000000000000000000000000000000602082015250565b60006117cc60288361148b565b91506117d782611770565b604082019050919050565b600060208201905081810360008301526117fb816117bf565b9050919050565b7f6265742073696465206973206e6f74207265636f676e69736564000000000000600082015250565b6000611838601a8361148b565b915061184382611802565b602082019050919050565b600060208201905081810360008301526118678161182b565b9050919050565b7f63616e6e6f74207075742062657473206166746572207265736f6c766520746960008201527f6d65000000000000000000000000000000000000000000000000000000000000602082015250565b60006118ca60228361148b565b91506118d58261186e565b604082019050919050565b600060208201905081810360008301526118f9816118bd565b9050919050565b7f4e487b7100000000000000000000000000000000000000000000000000000000600052601160045260246000fd5b600061193a82611134565b915061194583611134565b925082820190508082111561195d5761195c611900565b5b92915050565b600069ffffffffffffffffffff82169050919050565b61198281611963565b811461198d57600080fd5b50565b60008151905061199f81611979565b92915050565b6119ae816112a4565b81146119b957600080fd5b50565b6000815190506119cb816119a5565b92915050565b6000815190506119e0816112d8565b92915050565b600080600080600060a08688031215611a0257611a01611168565b5b6000611a1088828901611990565b9550506020611a21888289016119bc565b9450506040611a32888289016119d1565b9350506060611a43888289016119d1565b9250506080611a5488828901611990565b9150509295509295909350565b7f63616e6e6f74207769746864726177206f6e20736f6d656f6e6520626568616c60008201527f6600000000000000000000000000000000000000000000000000000000000000602082015250565b6000611abd60218361148b565b9150611ac882611a61565b604082019050919050565b60006020820190508181036000830152611aec81611ab0565b9050919050565b7f706c61796572206d75737420686176652062657420736f6d657468696e670000600082015250565b6000611b29601e8361148b565b9150611b3482611af3565b602082019050919050565b60006020820190508181036000830152611b5881611b1c565b9050919050565b7f67616d65206973206e6f742079657420636c6f73656400000000000000000000600082015250565b6000611b9560168361148b565b9150611ba082611b5f565b602082019050919050565b60006020820190508181036000830152611bc481611b88565b9050919050565b7f706c61796572206d757374206265206f6e2077696e6e696e6720736964650000600082015250565b6000611c01601e8361148b565b9150611c0c82611bcb565b602082019050919050565b60006020820190508181036000830152611c3081611bf4565b9050919050565b7f67616d65206f7574636f6d652063616e6e6f7420626520756e6b6e6f776e0000600082015250565b6000611c6d601e8361148b565b9150611c7882611c37565b602082019050919050565b60006020820190508181036000830152611c9c81611c60565b9050919050565b7f706c617965722068617320616c72656164792077697468647261776e2077696e60008201527f6e696e6773000000000000000000000000000000000000000000000000000000602082015250565b6000611cff60258361148b565b9150611d0a82611ca3565b604082019050919050565b60006020820190508181036000830152611d2e81611cf2565b9050919050565b7f4e487b7100000000000000000000000000000000000000000000000000000000600052601260045260246000fd5b6000611d6f82611134565b9150611d7a83611134565b925082611d8a57611d89611d35565b5b828204905092915050565b6000611da082611134565b9150611dab83611134565b9250828202611db981611134565b91508282048414831517611dd057611dcf611900565b5b509291505056fea26469706673582212204e8eb0033d2235aafc56db48cdb4ed5de453b5932e16405f71c216342860125f64736f6c63430008110033a26469706673582212206edb9e0b862464e64a80642f424993283a451d5c5e9a7d5c86dbf5f23f9fec7d64736f6c63430008110033",
  "immutableReferences": {},
  "source": "// SPDX-License-Identifier: MIT\npragma solidity >=0.4.22 <0.9.0;\n\nimport \"./GameContract.sol\";\nimport \"@openzeppelin/contracts/utils/math/SafeMath.sol\";\n\ncontract HwangMarket {\n  using SafeMath for uint256;\n\n  uint256 private gameCount;\n  mapping(uint256 => address) public gameContractRegistry;\n  constructor() public {\n  }\n\n  event GameCreated(address gameAddr);\n\n  struct GameIdAndAddr {\n    uint256 id;\n    address addr;\n  }\n\n  // create game contract instance\n  function createGame(uint256 resolveTime, address oracleAddr, int256 threshold) public returns (address) {\n    // 0xD4a33860578De61DBAbDc8BFdb98FD742fA7028e   <- Goerli ETH / USD\n    // 135000000000 <- 1350 USD\n    // for testing purposes, only allow resolve after 5min from contract creation from now\n    // the contract below bets if eth will break 1350 USD after mins\n    GameContract newGame = new GameContract(msg.sender, resolveTime, oracleAddr, threshold); \n    gameContractRegistry[gameCount] = address(newGame);\n    \n    emit GameCreated(address(newGame));\n    gameCount = SafeMath.add(gameCount, 1);\n\n    return address(newGame);\n  }\n\n  function getAllGames() public view returns (GameIdAndAddr[] memory) {\n    GameIdAndAddr[] memory res = new GameIdAndAddr[](gameCount);\n    for (uint256 j=0; j<gameCount; j++) {\n      res[j] = GameIdAndAddr({id: j, addr: gameContractRegistry[gameCount]});\n    }\n\n    return res;\n  }\n\n  // @notice Will receive any eth sent to the contract\n  receive() external payable {\n  }\n}\n",
  "sourcePath": "/Users/gerald/Desktop/HwangMarket/contracts/HwangMarket.sol",
  "compiler": {
    "name": "solc",
    "version": "0.8.17+commit.8df45f5f.Emscripten.clang"
  },
  "schemaVersion": "3.4.10",
  "updatedAt": "2022-10-19T18:31:17.182Z",
  "networkType": "ethereum",
  "devdoc": {
    "kind": "dev",
    "methods": {},
    "version": 1
  },
  "userdoc": {
    "kind": "user",
    "methods": {},
    "version": 1
  }
}