{
  "contractName": "HwangMarket",
  "abi": [
    {
      "inputs": [],
      "stateMutability": "nonpayable",
      "type": "constructor"
    },
    {
      "anonymous": false,
      "inputs": [
        {
          "indexed": false,
          "internalType": "uint256",
          "name": "gameId",
          "type": "uint256"
        },
        {
          "indexed": false,
          "internalType": "address",
          "name": "gameAddr",
          "type": "address"
        },
        {
          "indexed": false,
          "internalType": "uint8",
          "name": "gameOutcome",
          "type": "uint8"
        }
      ],
      "name": "GameConcluded",
      "type": "event"
    },
    {
      "anonymous": false,
      "inputs": [
        {
          "components": [
            {
              "internalType": "uint256",
              "name": "id",
              "type": "uint256"
            },
            {
              "internalType": "uint256",
              "name": "createdTime",
              "type": "uint256"
            },
            {
              "internalType": "address",
              "name": "addr",
              "type": "address"
            },
            {
              "internalType": "string",
              "name": "tag",
              "type": "string"
            },
            {
              "internalType": "string",
              "name": "title",
              "type": "string"
            },
            {
              "internalType": "address",
              "name": "oracleAddr",
              "type": "address"
            },
            {
              "internalType": "uint256",
              "name": "resolveTime",
              "type": "uint256"
            },
            {
              "internalType": "int256",
              "name": "threshold",
              "type": "int256"
            },
            {
              "internalType": "uint256",
              "name": "totalAmount",
              "type": "uint256"
            },
            {
              "internalType": "uint256",
              "name": "betYesAmount",
              "type": "uint256"
            },
            {
              "internalType": "uint256",
              "name": "betNoAmount",
              "type": "uint256"
            },
            {
              "internalType": "bool",
              "name": "ongoing",
              "type": "bool"
            },
            {
              "internalType": "uint8",
              "name": "gameOutcome",
              "type": "uint8"
            }
          ],
          "indexed": false,
          "internalType": "struct Models.GameMetadata",
          "name": "gameMetadata",
          "type": "tuple"
        }
      ],
      "name": "GameCreated",
      "type": "event"
    },
    {
      "anonymous": false,
      "inputs": [
        {
          "components": [
            {
              "internalType": "uint256",
              "name": "listingId",
              "type": "uint256"
            },
            {
              "internalType": "address",
              "name": "listingAddr",
              "type": "address"
            },
            {
              "internalType": "address",
              "name": "player1",
              "type": "address"
            },
            {
              "internalType": "address",
              "name": "token1",
              "type": "address"
            },
            {
              "internalType": "uint256",
              "name": "token1Amt",
              "type": "uint256"
            },
            {
              "internalType": "address",
              "name": "player2",
              "type": "address"
            },
            {
              "internalType": "address",
              "name": "token2",
              "type": "address"
            },
            {
              "internalType": "uint256",
              "name": "token2Amt",
              "type": "uint256"
            },
            {
              "internalType": "bool",
              "name": "fulfilled",
              "type": "bool"
            }
          ],
          "indexed": false,
          "internalType": "struct Models.ListingInfo",
          "name": "listingInfo",
          "type": "tuple"
        }
      ],
      "name": "ListingFulfilled",
      "type": "event"
    },
    {
      "anonymous": false,
      "inputs": [
        {
          "components": [
            {
              "internalType": "uint256",
              "name": "listingId",
              "type": "uint256"
            },
            {
              "internalType": "address",
              "name": "listingAddr",
              "type": "address"
            },
            {
              "internalType": "address",
              "name": "player1",
              "type": "address"
            },
            {
              "internalType": "address",
              "name": "token1",
              "type": "address"
            },
            {
              "internalType": "uint256",
              "name": "token1Amt",
              "type": "uint256"
            },
            {
              "internalType": "address",
              "name": "player2",
              "type": "address"
            },
            {
              "internalType": "address",
              "name": "token2",
              "type": "address"
            },
            {
              "internalType": "uint256",
              "name": "token2Amt",
              "type": "uint256"
            },
            {
              "internalType": "bool",
              "name": "fulfilled",
              "type": "bool"
            }
          ],
          "indexed": false,
          "internalType": "struct Models.ListingInfo",
          "name": "listingInfo",
          "type": "tuple"
        }
      ],
      "name": "NewListing",
      "type": "event"
    },
    {
      "anonymous": false,
      "inputs": [
        {
          "indexed": false,
          "internalType": "address",
          "name": "player",
          "type": "address"
        },
        {
          "indexed": false,
          "internalType": "uint256",
          "name": "gameId",
          "type": "uint256"
        },
        {
          "indexed": false,
          "internalType": "address",
          "name": "gameAddr",
          "type": "address"
        },
        {
          "indexed": false,
          "internalType": "uint8",
          "name": "betSide",
          "type": "uint8"
        },
        {
          "indexed": false,
          "internalType": "uint256",
          "name": "amount",
          "type": "uint256"
        }
      ],
      "name": "PlayerJoinedGameEvent",
      "type": "event"
    },
    {
      "anonymous": false,
      "inputs": [
        {
          "indexed": false,
          "internalType": "address",
          "name": "player",
          "type": "address"
        },
        {
          "indexed": false,
          "internalType": "uint256",
          "name": "gameId",
          "type": "uint256"
        },
        {
          "indexed": false,
          "internalType": "address",
          "name": "gameAddr",
          "type": "address"
        },
        {
          "indexed": false,
          "internalType": "uint8",
          "name": "betSide",
          "type": "uint8"
        },
        {
          "indexed": false,
          "internalType": "uint256",
          "name": "withdrawedAmt",
          "type": "uint256"
        }
      ],
      "name": "PlayerWithdrawedWinnings",
      "type": "event"
    },
    {
      "inputs": [
        {
          "internalType": "uint256",
          "name": "",
          "type": "uint256"
        }
      ],
      "name": "closedGames",
      "outputs": [
        {
          "internalType": "uint256",
          "name": "id",
          "type": "uint256"
        },
        {
          "internalType": "uint256",
          "name": "createdTime",
          "type": "uint256"
        },
        {
          "internalType": "address",
          "name": "addr",
          "type": "address"
        },
        {
          "internalType": "string",
          "name": "tag",
          "type": "string"
        },
        {
          "internalType": "string",
          "name": "title",
          "type": "string"
        },
        {
          "internalType": "address",
          "name": "oracleAddr",
          "type": "address"
        },
        {
          "internalType": "uint256",
          "name": "resolveTime",
          "type": "uint256"
        },
        {
          "internalType": "int256",
          "name": "threshold",
          "type": "int256"
        },
        {
          "internalType": "uint256",
          "name": "totalAmount",
          "type": "uint256"
        },
        {
          "internalType": "uint256",
          "name": "betYesAmount",
          "type": "uint256"
        },
        {
          "internalType": "uint256",
          "name": "betNoAmount",
          "type": "uint256"
        },
        {
          "internalType": "bool",
          "name": "ongoing",
          "type": "bool"
        },
        {
          "internalType": "uint8",
          "name": "gameOutcome",
          "type": "uint8"
        }
      ],
      "stateMutability": "view",
      "type": "function",
      "constant": true
    },
    {
      "inputs": [
        {
          "internalType": "address",
          "name": "",
          "type": "address"
        }
      ],
      "name": "gameAddr2Id",
      "outputs": [
        {
          "internalType": "uint256",
          "name": "",
          "type": "uint256"
        }
      ],
      "stateMutability": "view",
      "type": "function",
      "constant": true
    },
    {
      "inputs": [
        {
          "internalType": "uint256",
          "name": "",
          "type": "uint256"
        }
      ],
      "name": "gameContractRegistry",
      "outputs": [
        {
          "internalType": "uint256",
          "name": "id",
          "type": "uint256"
        },
        {
          "internalType": "uint256",
          "name": "createdTime",
          "type": "uint256"
        },
        {
          "internalType": "address",
          "name": "addr",
          "type": "address"
        },
        {
          "internalType": "string",
          "name": "tag",
          "type": "string"
        },
        {
          "internalType": "string",
          "name": "title",
          "type": "string"
        },
        {
          "internalType": "address",
          "name": "oracleAddr",
          "type": "address"
        },
        {
          "internalType": "uint256",
          "name": "resolveTime",
          "type": "uint256"
        },
        {
          "internalType": "int256",
          "name": "threshold",
          "type": "int256"
        },
        {
          "internalType": "uint256",
          "name": "totalAmount",
          "type": "uint256"
        },
        {
          "internalType": "uint256",
          "name": "betYesAmount",
          "type": "uint256"
        },
        {
          "internalType": "uint256",
          "name": "betNoAmount",
          "type": "uint256"
        },
        {
          "internalType": "bool",
          "name": "ongoing",
          "type": "bool"
        },
        {
          "internalType": "uint8",
          "name": "gameOutcome",
          "type": "uint8"
        }
      ],
      "stateMutability": "view",
      "type": "function",
      "constant": true
    },
    {
      "inputs": [
        {
          "internalType": "address",
          "name": "",
          "type": "address"
        }
      ],
      "name": "gameTokensRegistry",
      "outputs": [
        {
          "internalType": "address",
          "name": "tokenAddr",
          "type": "address"
        },
        {
          "internalType": "uint8",
          "name": "betSide",
          "type": "uint8"
        },
        {
          "internalType": "uint256",
          "name": "gameId",
          "type": "uint256"
        },
        {
          "internalType": "address",
          "name": "gameAddr",
          "type": "address"
        },
        {
          "internalType": "string",
          "name": "gameTag",
          "type": "string"
        },
        {
          "internalType": "string",
          "name": "gameTitle",
          "type": "string"
        },
        {
          "internalType": "address",
          "name": "gameOracleAddr",
          "type": "address"
        },
        {
          "internalType": "uint256",
          "name": "gameResolveTime",
          "type": "uint256"
        },
        {
          "internalType": "int256",
          "name": "gameThreshold",
          "type": "int256"
        }
      ],
      "stateMutability": "view",
      "type": "function",
      "constant": true
    },
    {
      "inputs": [],
      "name": "listingsCount",
      "outputs": [
        {
          "internalType": "uint256",
          "name": "",
          "type": "uint256"
        }
      ],
      "stateMutability": "view",
      "type": "function",
      "constant": true
    },
    {
      "inputs": [],
      "name": "mainToken",
      "outputs": [
        {
          "internalType": "contract MainToken",
          "name": "",
          "type": "address"
        }
      ],
      "stateMutability": "view",
      "type": "function",
      "constant": true
    },
    {
      "inputs": [],
      "name": "mainTokenAddress",
      "outputs": [
        {
          "internalType": "address",
          "name": "",
          "type": "address"
        }
      ],
      "stateMutability": "view",
      "type": "function",
      "constant": true
    },
    {
      "inputs": [
        {
          "internalType": "uint256",
          "name": "",
          "type": "uint256"
        }
      ],
      "name": "ongoingGames",
      "outputs": [
        {
          "internalType": "uint256",
          "name": "id",
          "type": "uint256"
        },
        {
          "internalType": "uint256",
          "name": "createdTime",
          "type": "uint256"
        },
        {
          "internalType": "address",
          "name": "addr",
          "type": "address"
        },
        {
          "internalType": "string",
          "name": "tag",
          "type": "string"
        },
        {
          "internalType": "string",
          "name": "title",
          "type": "string"
        },
        {
          "internalType": "address",
          "name": "oracleAddr",
          "type": "address"
        },
        {
          "internalType": "uint256",
          "name": "resolveTime",
          "type": "uint256"
        },
        {
          "internalType": "int256",
          "name": "threshold",
          "type": "int256"
        },
        {
          "internalType": "uint256",
          "name": "totalAmount",
          "type": "uint256"
        },
        {
          "internalType": "uint256",
          "name": "betYesAmount",
          "type": "uint256"
        },
        {
          "internalType": "uint256",
          "name": "betNoAmount",
          "type": "uint256"
        },
        {
          "internalType": "bool",
          "name": "ongoing",
          "type": "bool"
        },
        {
          "internalType": "uint8",
          "name": "gameOutcome",
          "type": "uint8"
        }
      ],
      "stateMutability": "view",
      "type": "function",
      "constant": true
    },
    {
      "inputs": [
        {
          "internalType": "address",
          "name": "",
          "type": "address"
        },
        {
          "internalType": "uint256",
          "name": "",
          "type": "uint256"
        }
      ],
      "name": "playersRecords",
      "outputs": [
        {
          "internalType": "uint256",
          "name": "trxId",
          "type": "uint256"
        },
        {
          "internalType": "string",
          "name": "activityType",
          "type": "string"
        },
        {
          "internalType": "uint256",
          "name": "gameId",
          "type": "uint256"
        },
        {
          "internalType": "uint256",
          "name": "trxAmt",
          "type": "uint256"
        },
        {
          "internalType": "uint256",
          "name": "trxTime",
          "type": "uint256"
        },
        {
          "internalType": "uint8",
          "name": "gameSide",
          "type": "uint8"
        },
        {
          "internalType": "address",
          "name": "from",
          "type": "address"
        },
        {
          "internalType": "address",
          "name": "to",
          "type": "address"
        }
      ],
      "stateMutability": "view",
      "type": "function",
      "constant": true
    },
    {
      "inputs": [
        {
          "internalType": "uint256",
          "name": "resolveTime",
          "type": "uint256"
        },
        {
          "internalType": "address",
          "name": "oracleAddr",
          "type": "address"
        },
        {
          "internalType": "int256",
          "name": "threshold",
          "type": "int256"
        },
        {
          "internalType": "string",
          "name": "tag",
          "type": "string"
        },
        {
          "internalType": "string",
          "name": "title",
          "type": "string"
        }
      ],
      "name": "createGame",
      "outputs": [
        {
          "internalType": "address",
          "name": "",
          "type": "address"
        }
      ],
      "stateMutability": "nonpayable",
      "type": "function"
    },
    {
      "inputs": [],
      "name": "getGameCount",
      "outputs": [
        {
          "internalType": "uint256",
          "name": "",
          "type": "uint256"
        }
      ],
      "stateMutability": "view",
      "type": "function",
      "constant": true
    },
    {
      "inputs": [],
      "name": "getAllGames",
      "outputs": [
        {
          "components": [
            {
              "components": [
                {
                  "internalType": "uint256",
                  "name": "id",
                  "type": "uint256"
                },
                {
                  "internalType": "uint256",
                  "name": "createdTime",
                  "type": "uint256"
                },
                {
                  "internalType": "address",
                  "name": "addr",
                  "type": "address"
                },
                {
                  "internalType": "string",
                  "name": "tag",
                  "type": "string"
                },
                {
                  "internalType": "string",
                  "name": "title",
                  "type": "string"
                },
                {
                  "internalType": "address",
                  "name": "oracleAddr",
                  "type": "address"
                },
                {
                  "internalType": "uint256",
                  "name": "resolveTime",
                  "type": "uint256"
                },
                {
                  "internalType": "int256",
                  "name": "threshold",
                  "type": "int256"
                },
                {
                  "internalType": "uint256",
                  "name": "totalAmount",
                  "type": "uint256"
                },
                {
                  "internalType": "uint256",
                  "name": "betYesAmount",
                  "type": "uint256"
                },
                {
                  "internalType": "uint256",
                  "name": "betNoAmount",
                  "type": "uint256"
                },
                {
                  "internalType": "bool",
                  "name": "ongoing",
                  "type": "bool"
                },
                {
                  "internalType": "uint8",
                  "name": "gameOutcome",
                  "type": "uint8"
                }
              ],
              "internalType": "struct Models.GameMetadata[]",
              "name": "ongoingGames",
              "type": "tuple[]"
            },
            {
              "components": [
                {
                  "internalType": "uint256",
                  "name": "id",
                  "type": "uint256"
                },
                {
                  "internalType": "uint256",
                  "name": "createdTime",
                  "type": "uint256"
                },
                {
                  "internalType": "address",
                  "name": "addr",
                  "type": "address"
                },
                {
                  "internalType": "string",
                  "name": "tag",
                  "type": "string"
                },
                {
                  "internalType": "string",
                  "name": "title",
                  "type": "string"
                },
                {
                  "internalType": "address",
                  "name": "oracleAddr",
                  "type": "address"
                },
                {
                  "internalType": "uint256",
                  "name": "resolveTime",
                  "type": "uint256"
                },
                {
                  "internalType": "int256",
                  "name": "threshold",
                  "type": "int256"
                },
                {
                  "internalType": "uint256",
                  "name": "totalAmount",
                  "type": "uint256"
                },
                {
                  "internalType": "uint256",
                  "name": "betYesAmount",
                  "type": "uint256"
                },
                {
                  "internalType": "uint256",
                  "name": "betNoAmount",
                  "type": "uint256"
                },
                {
                  "internalType": "bool",
                  "name": "ongoing",
                  "type": "bool"
                },
                {
                  "internalType": "uint8",
                  "name": "gameOutcome",
                  "type": "uint8"
                }
              ],
              "internalType": "struct Models.GameMetadata[]",
              "name": "closedGames",
              "type": "tuple[]"
            }
          ],
          "internalType": "struct Models.AllGames",
          "name": "",
          "type": "tuple"
        }
      ],
      "stateMutability": "view",
      "type": "function",
      "constant": true
    },
    {
      "inputs": [
        {
          "internalType": "address",
          "name": "player",
          "type": "address"
        },
        {
          "internalType": "uint256",
          "name": "token1Amt",
          "type": "uint256"
        },
        {
          "internalType": "address",
          "name": "token2",
          "type": "address"
        },
        {
          "internalType": "uint256",
          "name": "token2Amt",
          "type": "uint256"
        }
      ],
      "name": "newListing",
      "outputs": [
        {
          "components": [
            {
              "internalType": "uint256",
              "name": "listingId",
              "type": "uint256"
            },
            {
              "internalType": "address",
              "name": "listingAddr",
              "type": "address"
            },
            {
              "internalType": "address",
              "name": "player1",
              "type": "address"
            },
            {
              "internalType": "address",
              "name": "token1",
              "type": "address"
            },
            {
              "internalType": "uint256",
              "name": "token1Amt",
              "type": "uint256"
            },
            {
              "internalType": "address",
              "name": "player2",
              "type": "address"
            },
            {
              "internalType": "address",
              "name": "token2",
              "type": "address"
            },
            {
              "internalType": "uint256",
              "name": "token2Amt",
              "type": "uint256"
            },
            {
              "internalType": "bool",
              "name": "fulfilled",
              "type": "bool"
            }
          ],
          "internalType": "struct Models.ListingInfo",
          "name": "",
          "type": "tuple"
        }
      ],
      "stateMutability": "nonpayable",
      "type": "function"
    },
    {
      "inputs": [],
      "name": "getAllListings",
      "outputs": [
        {
          "components": [
            {
              "internalType": "uint256",
              "name": "listingId",
              "type": "uint256"
            },
            {
              "internalType": "address",
              "name": "listingAddr",
              "type": "address"
            },
            {
              "internalType": "address",
              "name": "player1",
              "type": "address"
            },
            {
              "internalType": "address",
              "name": "token1",
              "type": "address"
            },
            {
              "internalType": "uint256",
              "name": "token1Amt",
              "type": "uint256"
            },
            {
              "internalType": "address",
              "name": "player2",
              "type": "address"
            },
            {
              "internalType": "address",
              "name": "token2",
              "type": "address"
            },
            {
              "internalType": "uint256",
              "name": "token2Amt",
              "type": "uint256"
            },
            {
              "internalType": "bool",
              "name": "fulfilled",
              "type": "bool"
            }
          ],
          "internalType": "struct Models.ListingInfo[]",
          "name": "",
          "type": "tuple[]"
        }
      ],
      "stateMutability": "view",
      "type": "function",
      "constant": true
    },
    {
      "inputs": [
        {
          "components": [
            {
              "internalType": "uint256",
              "name": "listingId",
              "type": "uint256"
            },
            {
              "internalType": "address",
              "name": "listingAddr",
              "type": "address"
            },
            {
              "internalType": "address",
              "name": "player1",
              "type": "address"
            },
            {
              "internalType": "address",
              "name": "token1",
              "type": "address"
            },
            {
              "internalType": "uint256",
              "name": "token1Amt",
              "type": "uint256"
            },
            {
              "internalType": "address",
              "name": "player2",
              "type": "address"
            },
            {
              "internalType": "address",
              "name": "token2",
              "type": "address"
            },
            {
              "internalType": "uint256",
              "name": "token2Amt",
              "type": "uint256"
            },
            {
              "internalType": "bool",
              "name": "fulfilled",
              "type": "bool"
            }
          ],
          "internalType": "struct Models.ListingInfo",
          "name": "listingInfo",
          "type": "tuple"
        }
      ],
      "name": "updateListing",
      "outputs": [],
      "stateMutability": "nonpayable",
      "type": "function"
    },
    {
      "inputs": [
        {
          "internalType": "address",
          "name": "player",
          "type": "address"
        },
        {
          "internalType": "uint8",
          "name": "betSide",
          "type": "uint8"
        },
        {
          "internalType": "uint256",
          "name": "amount",
          "type": "uint256"
        },
        {
          "internalType": "uint256",
          "name": "timestamp",
          "type": "uint256"
        }
      ],
      "name": "playerJoinedSide",
      "outputs": [],
      "stateMutability": "nonpayable",
      "type": "function"
    },
    {
      "inputs": [
        {
          "internalType": "address",
          "name": "_player",
          "type": "address"
        },
        {
          "internalType": "uint8",
          "name": "betSide",
          "type": "uint8"
        },
        {
          "internalType": "uint256",
          "name": "withdrawAmt",
          "type": "uint256"
        },
        {
          "internalType": "uint256",
          "name": "timestamp",
          "type": "uint256"
        }
      ],
      "name": "playerWithdrawWinnings",
      "outputs": [],
      "stateMutability": "nonpayable",
      "type": "function"
    },
    {
      "inputs": [
        {
          "internalType": "uint8",
          "name": "gameOutcome",
          "type": "uint8"
        }
      ],
      "name": "concludeGame",
      "outputs": [],
      "stateMutability": "nonpayable",
      "type": "function"
    },
    {
      "inputs": [],
      "name": "getBalance",
      "outputs": [
        {
          "internalType": "uint256",
          "name": "",
          "type": "uint256"
        }
      ],
      "stateMutability": "view",
      "type": "function",
      "constant": true
    },
    {
      "inputs": [
        {
          "internalType": "address",
          "name": "player",
          "type": "address"
        }
      ],
      "name": "getPlayersTrxRecords",
      "outputs": [
        {
          "components": [
            {
              "internalType": "uint256",
              "name": "trxId",
              "type": "uint256"
            },
            {
              "internalType": "string",
              "name": "activityType",
              "type": "string"
            },
            {
              "internalType": "uint256",
              "name": "gameId",
              "type": "uint256"
            },
            {
              "internalType": "uint256",
              "name": "trxAmt",
              "type": "uint256"
            },
            {
              "internalType": "uint256",
              "name": "trxTime",
              "type": "uint256"
            },
            {
              "internalType": "uint8",
              "name": "gameSide",
              "type": "uint8"
            },
            {
              "internalType": "address",
              "name": "from",
              "type": "address"
            },
            {
              "internalType": "address",
              "name": "to",
              "type": "address"
            }
          ],
          "internalType": "struct Models.Activity[]",
          "name": "",
          "type": "tuple[]"
        }
      ],
      "stateMutability": "view",
      "type": "function",
      "constant": true
    }
  ],
  "bytecode": "0x60806040523480156200001157600080fd5b5060016004556040516200002590620000c0565b604051809103906000f08015801562000042573d6000803e3d6000fd5b5060018054600160a060020a0392909216600160a060020a03199283168117909155600080549092161790556040516200007c90620000ce565b604051809103906000f08015801562000099573d6000803e3d6000fd5b5060028054600160a060020a031916600160a060020a0392909216919091179055620000dc565b6117548062003eb483390190565b614e0b806200560883390190565b613dc880620000ec6000396000f3fe60806040523480156200001157600080fd5b5060043610620001495760003560e060020a900480637976948811620000bf578063d3eb618c116200007e578063d3eb618c1462000311578063db1c45f9146200033e578063dc8046f01462000357578063e362937d146200036e578063e87c0ee6146200038557600080fd5b806379769488146200027c578063829a32ef14620002935780638c055c0f14620002b6578063ae73ccec14620002e4578063ce1f335c14620002fd57600080fd5b80633f863f19116200010c5780633f863f1914620002175780633fc15f15146200022e57806346b1df0414620002425780635039eb97146200024c5780636435e817146200026557600080fd5b806304ad465f146200014e57806312065fe014620001895780632980a3cb146200019b5780632cd1adfe14620001cb5780633751b87714620001f1575b600080fd5b620001656200015f366004620024fa565b6200038f565b604051620001809d9c9b9a999897969594939291906200255c565b60405180910390f35b30315b60405190815260200162000180565b620001b2620001ac36600462002716565b62000542565b604051600160a060020a03909116815260200162000180565b620001e2620001dc366004620027a9565b62000e1e565b60405162000180919062002890565b6200020862000202366004620028a1565b62001088565b604051620001809190620028c8565b6200016562000228366004620024fa565b620011f8565b600154620001b290600160a060020a031681565b6200018c60115481565b620002636200025d366004620029b0565b62001234565b005b6200016562000276366004620024fa565b62001547565b620002636200028d366004620029b0565b62001558565b6200018c620002a4366004620028a1565b60066020526000908152604090205481565b620002cd620002c7366004620028a1565b62001736565b6040516200018099989796959493929190620029f9565b620002ee620018cc565b60405162000180919062002a6e565b600054620001b290600160a060020a031681565b620003286200032236600462002ac1565b62001968565b6040516200018098979695949392919062002af0565b6200034862001a70565b60405162000180919062002c6d565b620002636200036836600462002ccf565b62001ed5565b620002636200037f36600462002d7f565b62001f9a565b6200018c62002457565b600a8181548110620003a057600080fd5b60009182526020909120600c909102018054600182015460028301546003840180549395509193600160a060020a0390911692909190620003e19062002d9d565b80601f01602080910402602001604051908101604052809291908181526020018280546200040f9062002d9d565b8015620004605780601f10620004345761010080835404028352916020019162000460565b820191906000526020600020905b8154815290600101906020018083116200044257829003601f168201915b505050505090806004018054620004779062002d9d565b80601f0160208091040260200160405190810160405280929190818152602001828054620004a59062002d9d565b8015620004f65780601f10620004ca57610100808354040283529160200191620004f6565b820191906000526020600020905b815481529060010190602001808311620004d857829003601f168201915b5050505060058301546006840154600785015460088601546009870154600a880154600b909801549697600160a060020a03909516969395509193909260ff808216916101009004168d565b6002546040517f956a2a1000000000000000000000000000000000000000000000000000000000815230600482015260248101879052600160a060020a03868116604483015260648201869052600092839291169063956a2a10906084016020604051808303816000875af1158015620005c0573d6000803e3d6000fd5b505050506040513d601f19601f82011682018060405250810190620005e6919062002ddc565b90506000819050604051806101a00160405280600454815260200142815260200182600160a060020a0316815260200186815260200185815260200188600160a060020a03168152602001898152602001878152602001600081526020016000815260200160008152602001600115158152602001600060ff16815250600560006004548152602001908152602001600020600082015181600001556020820151816001015560408201518160020160006101000a815481600160a060020a030219169083600160a060020a031602179055506060820151816003019081620006d0919062002e4f565b5060808201516004820190620006e7908262002e4f565b5060a0820151600582018054600160a060020a031916600160a060020a0392831617905560c0830151600683015560e08301516007830155610100808401516008840155610120808501516009850155610140850151600a850155610160850151600b90940180546101809096015161ffff1990961694151561ff0019169490941760ff90951690910293909317909155604080519283018082527f846c6f4f00000000000000000000000000000000000000000000000000000000905251829185169063846c6f4f90610124808501916020918187030181865afa158015620007d5573d6000803e3d6000fd5b505050506040513d601f19601f82011682018060405250810190620007fb919062002ddc565b600160a060020a03168152602001600160ff168152602001600454815260200182600160a060020a0316815260200186815260200185815260200188600160a060020a03168152602001898152602001878152506012600084600160a060020a031663846c6f4f6040518163ffffffff1660e060020a028152600401602060405180830381865afa15801562000895573d6000803e3d6000fd5b505050506040513d601f19601f82011682018060405250810190620008bb919062002ddc565b600160a060020a0390811682526020808301939093526040918201600020845181549486015160ff16740100000000000000000000000000000000000000000274ffffffffffffffffffffffffffffffffffffffffff1990951690831617939093178355908301516001830155606083015160028301805491909216600160a060020a031991909116179055608082015160038201906200095d908262002e4f565b5060a0820151600482019062000974908262002e4f565b5060c0820151600582018054600160a060020a031916600160a060020a0392831617905560e08301516006830155610100909201516007909101556040805161012081018083527f41ef10c8000000000000000000000000000000000000000000000000000000009052905190918291908516906341ef10c890610124808501916020918187030181865afa15801562000a12573d6000803e3d6000fd5b505050506040513d601f19601f8201168201806040525081019062000a38919062002ddc565b600160a060020a03168152602001600060ff168152602001600454815260200182600160a060020a0316815260200186815260200185815260200188600160a060020a03168152602001898152602001878152506012600084600160a060020a03166341ef10c86040518163ffffffff1660e060020a028152600401602060405180830381865afa15801562000ad2573d6000803e3d6000fd5b505050506040513d601f19601f8201168201806040525081019062000af8919062002ddc565b600160a060020a0390811682526020808301939093526040918201600020845181549486015160ff16740100000000000000000000000000000000000000000274ffffffffffffffffffffffffffffffffffffffffff1990951690831617939093178355908301516001830155606083015160028301805491909216600160a060020a0319919091161790556080820151600382019062000b9a908262002e4f565b5060a0820151600482019062000bb1908262002e4f565b5060c082015160058083018054600160a060020a03938416600160a060020a03199182161790915560e085015160068086019190915561010090950151600794850155600480548785166000908152602097885260408082208390559654918152600988528681209190915590548152919094529182206008805460018181018355919094528154600c9094027ff3f7a9fe364faab93b216da50a3214154f22a0a2b415b23a84c8169e8b636ee38101948555908201547ff3f7a9fe364faab93b216da50a3214154f22a0a2b415b23a84c8169e8b636ee482015560028201547ff3f7a9fe364faab93b216da50a3214154f22a0a2b415b23a84c8169e8b636ee5820180549096169316929092179093557ff3f7a9fe364faab93b216da50a3214154f22a0a2b415b23a84c8169e8b636ee60162000cf3600384018262002f2f565b5060048181019062000d089084018262002f2f565b506005828101549082018054600160a060020a031916600160a060020a0390921691909117905560068083015490820155600780830154818301556008808401549083015560098084015490830155600a8084015490830155600b928301805493909201805460ff948516151560ff1982168117835593546101009081900490951690940261ff001990931661ffff1990941693909317919091179091555462000db49060016200246a565b6007556004546000908152600560205260409081902090517f149022832779c6ebc9c5b5594a2aacdf1e5937175d1408086b385724ef265e579162000df991620030a3565b60405180910390a162000e1060045460016200246a565b600455979650505050505050565b6040805161012081018252600080825260208201819052918101829052606081018290526080810182905260a0810182905260c0810182905260e08101829052610100810191909152600054600160a060020a0316331462000ee0576040517f08c379a000000000000000000000000000000000000000000000000000000000815260206004820152601860248201527f6f6e6c79206d61696e20746f6b656e2063616e2063616c6c0000000000000000604482015260640160405180910390fd5b60006011549050600081873388888860405162000efd906200248f565b958652600160a060020a03948516602087015292841660408601526060850191909152909116608083015260a082015260c001604051809103906000f08015801562000f4d573d6000803e3d6000fd5b506040805161012081018252848152600160a060020a0380841660208301528a811682840152336060830152608082018a9052600060a0830181905290891660c083015260e0820188905261010082015290517f070b5eb40000000000000000000000000000000000000000000000000000000081529192509073__IterableMapping_______________________9063070b5eb49062000ff890600c908790869060040162003196565b60006040518083038186803b1580156200101157600080fd5b505af415801562001026573d6000803e3d6000fd5b5050601180549250905060006200103d83620031cd565b91905055507fd1fe3704bd3aa4f4974d5168e39528bbb86b19e98e5f798beea49af58df301398160405162001073919062002890565b60405180910390a1925050505b949350505050565b600160a060020a0381166000908152600b60209081526040808320805482518185028101850190935280835260609492939192909184015b82821015620011ed57838290600052602060002090600702016040518061010001604052908160008201548152602001600182018054620011019062002d9d565b80601f01602080910402602001604051908101604052809291908181526020018280546200112f9062002d9d565b8015620011805780601f10620011545761010080835404028352916020019162001180565b820191906000526020600020905b8154815290600101906020018083116200116257829003601f168201915b505050918352505060028201546020808301919091526003830154604083015260048301546060830152600583015460ff81166080840152600160a060020a03610100909104811660a084015260069093015490921660c0909101529082526001929092019101620010c0565b505050509050919050565b600560205260009081526040902080546001820154600283015460038401805493949293600160a060020a039092169291620003e19062002d9d565b3360009081526006602052604090205415801590620012715750336000908152600660209081526040808320548352600990915290205460001914155b6200127b57600080fd5b3360008181526006602090815260408083205480845260058352818420600990935290832054600880549294929091908110620012bc57620012bc620031e9565b90600052602060002090600c0201905085826008016000828254620012e2919062003202565b9250508190555085816008016000828254620012ff919062003202565b909155505060ff87166002036200134f578582600a01600082825462001326919062003202565b925050819055508581600a01600082825462001343919062003202565b90915550620013889050565b8582600901600082825462001365919062003202565b925050819055508581600901600082825462001382919062003202565b90915550505b600160a060020a038089166000818152600b60209081526040808320815161010081018352600380548252835180850185529081527f4245540000000000000000000000000000000000000000000000000000000000818601528185019081529281018a9052606081018d9052608081018c905260ff8e1660a082015260c081019590955294891660e08501528454600181810187559584529190922083516007909202019081559051919290919082019062001446908262002e4f565b506040820151600282015560608201516003808301919091556080830151600483015560a083015160058301805460c086015160ff90931674ffffffffffffffffffffffffffffffffffffffffff1990911617610100600160a060020a039384160217905560e09093015160069092018054600160a060020a031916929093169190911790915554620014db9060016200246a565b60035560408051600160a060020a03808b1682526020820186905286169181019190915260ff88166060820152608081018790527f60f0179549292c7191bafdb03407a3080ad6bbb9354055fb0dba51a90dcead179060a0015b60405180910390a15050505050505050565b60088181548110620003a057600080fd5b3360009081526006602052604081205490036200157457600080fd5b33600081815260066020908152604080832054600160a060020a038916808552600b8452828520835161010081018552600354815284518086018652600881527f574954484452415700000000000000000000000000000000000000000000000081880152818701908152948101849052606081018a90526080810189905260ff8b1660a082015260c0810188905260e0810192909252805460018181018355918752949095208151600790950201938455915190939192918201906200163c908262002e4f565b506040820151600282015560608201516003808301919091556080830151600483015560a083015160058301805460c086015160ff90931674ffffffffffffffffffffffffffffffffffffffffff1990911617610100600160a060020a039384160217905560e09093015160069092018054600160a060020a031916929093169190911790915554620016d19060016200246a565b60035560408051600160a060020a0388811682526020820184905284168183015260ff871660608201526080810186905290517f763849cb5b59f290f2394239aed08a4f73bef1c65b4debb49ed6324897c23a979181900360a00190a1505050505050565b6012602052600090815260409020805460018201546002830154600384018054600160a060020a03808616967401000000000000000000000000000000000000000090960460ff169593169291906200178f9062002d9d565b80601f0160208091040260200160405190810160405280929190818152602001828054620017bd9062002d9d565b80156200180e5780601f10620017e2576101008083540402835291602001916200180e565b820191906000526020600020905b815481529060010190602001808311620017f057829003601f168201915b505050505090806004018054620018259062002d9d565b80601f0160208091040260200160405190810160405280929190818152602001828054620018539062002d9d565b8015620018a45780601f106200187857610100808354040283529160200191620018a4565b820191906000526020600020905b8154815290600101906020018083116200188657829003601f168201915b50505050600583015460068401546007909401549293600160a060020a039091169290915089565b6040517f75a02c20000000000000000000000000000000000000000000000000000000008152600c600482015260609073__IterableMapping_______________________906375a02c2090602401600060405180830381865af415801562001939573d6000803e3d6000fd5b505050506040513d6000823e601f3d908101601f1916820160405262001963919081019062003225565b905090565b600b60205281600052604060002081815481106200198557600080fd5b906000526020600020906007020160009150915050806000015490806001018054620019b19062002d9d565b80601f0160208091040260200160405190810160405280929190818152602001828054620019df9062002d9d565b801562001a305780601f1062001a045761010080835404028352916020019162001a30565b820191906000526020600020905b81548152906001019060200180831162001a1257829003601f168201915b505050600284015460038501546004860154600587015460069097015495969295919450925060ff821691600160a060020a036101009091048116911688565b604080518082019091526060808252602082015260408051600880546060602082028401810185529383018181529293849392919060009085015b8282101562001ca5576000848152602090819020604080516101a081018252600c8602909201805483526001810154938301939093526002830154600160a060020a03169082015260038201805491929160608401919062001b0d9062002d9d565b80601f016020809104026020016040519081016040528092919081815260200182805462001b3b9062002d9d565b801562001b8c5780601f1062001b605761010080835404028352916020019162001b8c565b820191906000526020600020905b81548152906001019060200180831162001b6e57829003601f168201915b5050505050815260200160048201805462001ba79062002d9d565b80601f016020809104026020016040519081016040528092919081815260200182805462001bd59062002d9d565b801562001c265780601f1062001bfa5761010080835404028352916020019162001c26565b820191906000526020600020905b81548152906001019060200180831162001c0857829003601f168201915b50505091835250506005820154600160a060020a0316602080830191909152600683015460408301526007830154606083015260088301546080830152600983015460a0830152600a83015460c0830152600b9092015460ff808216151560e08401526101009182900416910152908252600192909201910162001aab565b505050508152602001600a805480602002602001604051908101604052809291908181526020016000905b8282101562001eca576000848152602090819020604080516101a081018252600c8602909201805483526001810154938301939093526002830154600160a060020a03169082015260038201805491929160608401919062001d329062002d9d565b80601f016020809104026020016040519081016040528092919081815260200182805462001d609062002d9d565b801562001db15780601f1062001d855761010080835404028352916020019162001db1565b820191906000526020600020905b81548152906001019060200180831162001d9357829003601f168201915b5050505050815260200160048201805462001dcc9062002d9d565b80601f016020809104026020016040519081016040528092919081815260200182805462001dfa9062002d9d565b801562001e4b5780601f1062001e1f5761010080835404028352916020019162001e4b565b820191906000526020600020905b81548152906001019060200180831162001e2d57829003601f168201915b50505091835250506005820154600160a060020a0316602080830191909152600683015460408301526007830154606083015260088301546080830152600983015460a0830152600a83015460c0830152600b9092015460ff808216151560e08401526101009182900416910152908252600192909201910162001cd0565b505050915250919050565b80516040517f070b5eb400000000000000000000000000000000000000000000000000000000815273__IterableMapping_______________________9163070b5eb49162001f2c91600c91869060040162003196565b60006040518083038186803b15801562001f4557600080fd5b505af415801562001f5a573d6000803e3d6000fd5b505050507f4758bcd8e425945eea731ed13074c209c3176197b970b6a78b278ad015ae90788160405162001f8f919062002890565b60405180910390a150565b33600090815260066020526040812054900362001fb657600080fd5b33600081815260066020908152604080832054808452600990925290912054801962001fe25750505050565b600081905060006008828154811062001fff5762001fff620031e9565b90600052602060002090600c020190506000600862002022600754600162002481565b81548110620020355762002035620031e9565b60009182526020808320600c90920290910180548352600990915260408083208690558783529091206000199055600880549192508291859081106200207f576200207f620031e9565b600091825260209091208254600c90920201908155600180830154908201556002808301549082018054600160a060020a031916600160a060020a03909216919091179055600380820190620020d89084018262002f2f565b50600481810190620020ed9084018262002f2f565b506005828101549082018054600160a060020a031916600160a060020a0390921691909117905560068083015490820155600780830154818301556008808401549083015560098084015490830155600a8084015490830155600b928301805493909201805460ff948516151560ff1982168117835593546101009081900490951690940261ff001990931661ffff199094169390931791909117909155546200219990600162002481565b600755600b808301805460ff8a166101000261ffff1991821681179092558454600090815260056020526040812093840180549092169092179055600a805460018181018355919092528454600c9092027fc65a7bb8d6351c1cf70c95a316cc6a92839c986682d98bc35f958f4883f9d2a88101928355908501547fc65a7bb8d6351c1cf70c95a316cc6a92839c986682d98bc35f958f4883f9d2a982015560028501547fc65a7bb8d6351c1cf70c95a316cc6a92839c986682d98bc35f958f4883f9d2aa82018054600160a060020a031916600160a060020a039092169190911790558491907fc65a7bb8d6351c1cf70c95a316cc6a92839c986682d98bc35f958f4883f9d2ab01620022b1600384018262002f2f565b50600481810190620022c69084018262002f2f565b506005828101549082018054600160a060020a031916600160a060020a0390921691909117905560068083015490820155600780830154908201556008808301548183015560098084015490830155600a8084015490830155600b928301805493909201805460ff948516151560ff1982168117835593546101009081900490951690940261ff001990931661ffff1990941693909317919091179091558054806200237657620023766200337a565b600082815260208120600c6000199093019283020181815560018101829055600281018054600160a060020a031916905590620023b760038301826200249d565b620023c76004830160006200249d565b50600581018054600160a060020a0319169055600060068201819055600782018190556008820181905560098201819055600a820155600b01805461ffff19169055905560408051878152600160a060020a038916602082015260ff8a16918101919091527f6997c325fd49bb5c188e78d03aee9a56052bffb3dcecb7d89cad3946cfc9b1909060600162001535565b6000600160045462001963919062003393565b600062002478828462003202565b90505b92915050565b600062002478828462003393565b6109e980620033aa83390190565b508054620024ab9062002d9d565b6000825580601f10620024bc575050565b601f016020900490600052602060002090810190620024dc9190620024df565b50565b5b80821115620024f65760008155600101620024e0565b5090565b6000602082840312156200250d57600080fd5b5035919050565b6000815180845260005b818110156200253c576020818501810151868301820152016200251e565b506000602082860101526020601f19601f83011685010191505092915050565b60006101a08f83528e6020840152600160a060020a03808f1660408501528160608501526200258e8285018f62002514565b91508382036080850152620025a4828e62002514565b9250808c1660a085015250508860c08301528760e0830152866101008301528561012083015284610140830152831515610160830152620025eb61018083018460ff169052565b9e9d5050505050505050505050505050565b600160a060020a0381168114620024dc57600080fd5b80356200262081620025fd565b919050565b60e060020a634e487b7102600052604160045260246000fd5b604051610120810167ffffffffffffffff8111828210171562002665576200266562002625565b60405290565b604051601f8201601f1916810167ffffffffffffffff8111828210171562002697576200269762002625565b604052919050565b600082601f830112620026b157600080fd5b813567ffffffffffffffff811115620026ce57620026ce62002625565b620026e3601f8201601f19166020016200266b565b818152846020838601011115620026f957600080fd5b816020850160208301376000918101602001919091529392505050565b600080600080600060a086880312156200272f57600080fd5b8535945060208601356200274381620025fd565b935060408601359250606086013567ffffffffffffffff808211156200276857600080fd5b6200277689838a016200269f565b935060808801359150808211156200278d57600080fd5b506200279c888289016200269f565b9150509295509295909350565b60008060008060808587031215620027c057600080fd5b8435620027cd81620025fd565b9350602085013592506040850135620027e681620025fd565b9396929550929360600135925050565b805182526020810151600160a060020a03808216602085015280604084015116604085015280606084015116606085015250506080810151608083015260a08101516200284e60a0840182600160a060020a03169052565b5060c08101516200286a60c0840182600160a060020a03169052565b5060e081015160e0830152610100808201516200288a8285018215159052565b50505050565b61012081016200247b8284620027f6565b600060208284031215620028b457600080fd5b8135620028c181620025fd565b9392505050565b60208082528251828201819052600091906040908185019080840286018301878501865b838110156200299057603f1989840301855281516101008151855288820151818a8701526200291e8287018262002514565b838a0151878b0152606080850151908801526080808501519088015260a08085015160ff169088015260c080850151600160a060020a03169088015260e0938401519390925090506200297b81870184600160a060020a03169052565b509588019593505090860190600101620028ec565b509098975050505050505050565b803560ff811681146200262057600080fd5b60008060008060808587031215620029c757600080fd5b8435620029d481620025fd565b9350620029e4602086016200299e565b93969395505050506040820135916060013590565b6000610120600160a060020a03808d16845260ff8c1660208501528a6040850152808a16606085015281608085015262002a368285018a62002514565b915083820360a085015262002a4c828962002514565b961660c0840152505060e0810192909252610100909101529695505050505050565b6020808252825182820181905260009190848201906040850190845b8181101562002ab55762002aa0838551620027f6565b92840192610120929092019160010162002a8a565b50909695505050505050565b6000806040838503121562002ad557600080fd5b823562002ae281620025fd565b946020939093013593505050565b60006101008a835280602084015262002b0c8184018b62002514565b604084019990995250506060810195909552608085019390935260ff9190911660a0840152600160a060020a0390811660c08401521660e09091015292915050565b600081518084526020808501808196508284028101915082860160005b8581101562002c6057828403895281516101a081518652868201518787015260408083015162002ba582890182600160a060020a03169052565b5050606080830151828289015262002bc08389018262002514565b925050506080808301518783038289015262002bdd838262002514565b9250505060a08083015162002bfc82890182600160a060020a03169052565b505060c0828101519087015260e08083015190870152610100808301519087015261012080830151908701526101408083015190870152610160808301511515908701526101809182015160ff169190950152978401979084019060010162002b6b565b5091979650505050505050565b60208152600082516040602084015262002c8b606084018262002b4e565b90506020840151601f1984830301604085015262002caa828262002b4e565b95945050505050565b8015158114620024dc57600080fd5b8035620026208162002cb3565b6000610120828403121562002ce357600080fd5b62002ced6200263e565b8235815262002cff6020840162002613565b602082015262002d126040840162002613565b604082015262002d256060840162002613565b60608201526080830135608082015262002d4260a0840162002613565b60a082015262002d5560c0840162002613565b60c082015260e083013560e082015261010062002d7481850162002cc2565b908201529392505050565b60006020828403121562002d9257600080fd5b62002478826200299e565b60028104600182168062002db257607f821691505b60208210810362002dd65760e060020a634e487b7102600052602260045260246000fd5b50919050565b60006020828403121562002def57600080fd5b8151620028c181620025fd565b601f82111562002e4a576000818152602081206020601f8601048101602086101562002e255750805b6020601f860104820191505b8181101562002e465782815560010162002e31565b5050505b505050565b815167ffffffffffffffff81111562002e6c5762002e6c62002625565b62002e848162002e7d845462002d9d565b8462002dfc565b602080601f83116001811462002ec0576000841562002ea35750858301515b60028086026008870290910a600019041982161786555062002e46565b600085815260208120601f198616915b8281101562002ef15788860151825594840194600190910190840162002ed0565b508582101562002f1257878501516008601f88160260020a60001904191681555b5050505050600202600101905550565b80516200262081620025fd565b81810362002f3b575050565b62002f47825462002d9d565b67ffffffffffffffff81111562002f625762002f6262002625565b62002f738162002e7d845462002d9d565b6000601f82116001811462002fae576000831562002f915750848201545b60028085026008860290910a600019041982161785555062003018565b600085815260209020601f19841690600086815260209020845b8381101562002fea578286015482556001958601959091019060200162002fc8565b50858310156200300b57818501546008601f88160260020a60001904191681555b5050506001600284020184555b5050505050565b600081546200302e8162002d9d565b8085526020600183811680156200304e5760018114620030685762003098565b60ff19851688840152831515830288018301955062003098565b866000528260002060005b85811015620030905781548a820186015290830190840162003073565b890184019650505b505050505092915050565b6020815281546020820152600182015460408201526000620030cf6002840154600160a060020a031690565b600160a060020a031660608301526101a060808301819052620030fa6101c08401600386016200301f565b838103601f190160a08501526200311581600487016200301f565b90506200312c6005860154600160a060020a031690565b600160a060020a031660c0850152600685015460e085015260078501546101008086019190915260088601546101208601526009860154610140860152600a860154610160860152600b86015460ff811615156101808701529060ff910416919093015250919050565b838152602081018390526101608101620010806040830184620027f6565b60e060020a634e487b7102600052601160045260246000fd5b600060018201620031e257620031e2620031b4565b5060010190565b60e060020a634e487b7102600052603260045260246000fd5b808201808211156200247b576200247b620031b4565b8051620026208162002cb3565b600060208083850312156200323957600080fd5b825167ffffffffffffffff808211156200325257600080fd5b818501915085601f8301126200326757600080fd5b8151818111156200327c576200327c62002625565b6200328b84858302016200266b565b8181528481019250610120918202840185019188831115620032ac57600080fd5b938501935b828510156200336e5780858a031215620032cb5760008081fd5b620032d56200263e565b85518152620032e687870162002f22565b878201526040620032f981880162002f22565b9082015260606200330c87820162002f22565b908201526080868101519082015260a06200332981880162002f22565b9082015260c06200333c87820162002f22565b9082015260e086810151908201526101006200335a81880162003218565b9082015284529384019392850192620032b1565b50979650505050505050565b60e060020a634e487b7102600052603160045260246000fd5b818103818111156200247b576200247b620031b456fe608060405234801561001057600080fd5b506040516109e93803806109e983398101604081905261002f9161020c565b6000805433600160a060020a03199182168117909255600a805461010060a860020a031916610100909302929092179091556001879055600280548216600160a060020a03888116918217909255600380548416888416908117909155600587905560078054851693871693909317909255600984905560048054909316821783556040517f70a082310000000000000000000000000000000000000000000000000000000081529283015284916370a0823190602401602060405180830381865afa158015610103573d6000803e3d6000fd5b505050506040513d601f19601f82011682018060405250810190610127919061026b565b10156101bb57604080517f08c379a00000000000000000000000000000000000000000000000000000000081526020600482015260248101919091527f706c6179657220312068617320696e73756666696369656e742062616c616e6360448201527f65206f6620746f6b656e203120746f206372656174652061206c697374696e67606482015260840160405180910390fd5b5060088054600160a060020a031916600160a060020a03929092169190911790555050600a805460ff19169055506102849050565b8051600160a060020a038116811461020757600080fd5b919050565b60008060008060008060c0878903121561022557600080fd5b86519550610235602088016101f0565b9450610243604088016101f0565b935060608701519250610258608088016101f0565b915060a087015190509295509295509295565b60006020828403121561027d57600080fd5b5051919050565b610756806102936000396000f3fe608060405234801561001057600080fd5b50600436106100d1576000357c010000000000000000000000000000000000000000000000000000000090048063c4e5edcd1161008e578063c4e5edcd14610176578063d21220a71461017f578063d30895e414610192578063d5488048146101a5578063d70c6703146101b8578063e2d46f98146101c157600080fd5b806302d05d3f146100d657806325be124e1461010657806358aaf0be1461011957806359a5f12d1461012c5780636f6ff4051461013f5780639405dfdd1461015f575b600080fd5b6000546100e990600160a060020a031681565b604051600160a060020a0390911681526020015b60405180910390f35b6007546100e990600160a060020a031681565b6008546100e990600160a060020a031681565b6006546100e990600160a060020a031681565b61015261014d366004610604565b6101de565b6040516100fd9190610634565b61016860015481565b6040519081526020016100fd565b61016860095481565b6003546100e990600160a060020a031681565b6002546100e990600160a060020a031681565b6004546100e990600160a060020a031681565b61016860055481565b600a546101ce9060ff1681565b60405190151581526020016100fd565b6040805161012081018252600080825260208201819052918101829052606081018290526080810182905260a0810182905260c0810182905260e08101829052610100810191909152600554600480546002546040517fdd62ed3e000000000000000000000000000000000000000000000000000000008152600160a060020a0391821693810193909352306024840152169063dd62ed3e90604401602060405180830381865afa158015610297573d6000803e3d6000fd5b505050506040513d601f19601f820116820180604052508101906102bb91906106e5565b1015610328576040517f08c379a000000000000000000000000000000000000000000000000000000000815260206004820152601960248201527f546f6b656e203120616c6c6f77616e636520746f6f206c6f770000000000000060448201526064015b60405180910390fd5b6009546008546040517fdd62ed3e000000000000000000000000000000000000000000000000000000008152600160a060020a0385811660048301523060248301529091169063dd62ed3e90604401602060405180830381865afa158015610394573d6000803e3d6000fd5b505050506040513d601f19601f820116820180604052508101906103b891906106e5565b1015610420576040517f08c379a000000000000000000000000000000000000000000000000000000000815260206004820152601960248201527f546f6b656e203220616c6c6f77616e636520746f6f206c6f7700000000000000604482015260640161031f565b60045460025460055461044292600160a060020a0390811692169085906104fc565b60085460025460095461046592600160a060020a039081169286929116906104fc565b506006805473ffffffffffffffffffffffffffffffffffffffff1916600160a060020a03928316908117909155600a805460ff1916600190811790915560408051610120810182528254815230602082015260025485169181019190915260035484166060820152600554608082015260a081019290925260075490921660c082015260095460e082015261010081019190915290565b6040517f23b872dd000000000000000000000000000000000000000000000000000000008152600160a060020a038481166004830152838116602483015260448201839052600091908616906323b872dd906064016020604051808303816000875af1158015610570573d6000803e3d6000fd5b505050506040513d601f19601f8201168201806040525081019061059491906106fe565b9050806105fd576040517f08c379a000000000000000000000000000000000000000000000000000000000815260206004820152601560248201527f546f6b656e207472616e73666572206661696c65640000000000000000000000604482015260640161031f565b5050505050565b60006020828403121561061657600080fd5b8135600160a060020a038116811461062d57600080fd5b9392505050565b600061012082019050825182526020830151600160a060020a0380821660208501528060408601511660408501525050606083015161067e6060840182600160a060020a03169052565b506080830151608083015260a08301516106a360a0840182600160a060020a03169052565b5060c08301516106be60c0840182600160a060020a03169052565b5060e083015160e0830152610100808401516106dd8285018215159052565b505092915050565b6000602082840312156106f757600080fd5b5051919050565b60006020828403121561071057600080fd5b8151801515811461062d57600080fdfea2646970667358221220291fab86590a1c78fe6bab1e0d4ff8042a2dea4b60ac258dce3dce917fc890d164736f6c63430008110033a264697066735822122092bc9099e4d58a40f4d83d3572dd697fd5a17a8aeeb7d39f9972c0d5a88dee3864736f6c6343000811003360c0604052600b60809081527f4877616e674d61726b657400000000000000000000000000000000000000000060a0526003906200003e9082620001a2565b5060408051808201909152600581527f484d544b4e0000000000000000000000000000000000000000000000000000006020820152600490620000829082620001a2565b506005805460ff191660121790556000600655348015620000a257600080fd5b506007805433600160a060020a0319918216811790925560088054909116909117905562000275565b7f4e487b7100000000000000000000000000000000000000000000000000000000600052604160045260246000fd5b6002810460018216806200010f57607f821691505b60208210810362000149577f4e487b7100000000000000000000000000000000000000000000000000000000600052602260045260246000fd5b50919050565b601f8211156200019d576000818152602081206020601f86010481016020861015620001785750805b6020601f860104820191505b81811015620001995782815560010162000184565b5050505b505050565b815167ffffffffffffffff811115620001bf57620001bf620000cb565b620001d781620001d08454620000fa565b846200014f565b602080601f831160018114620002135760008415620001f65750858301515b60028086026008870290910a600019041982161786555062000199565b600085815260208120601f198616915b82811015620002445788860151825594840194600190910190840162000223565b50858210156200026557878501516008601f88160260020a60001904191681555b5050505050600202600101905550565b6114cf80620002856000396000f3fe60806040526004361061011c5760003560e060020a9004806370a08231116100a4578063ac5388c811610068578063ac5388c81461031b578063d270e7ab14610331578063dd62ed3e14610351578063de6a8dc514610389578063f16e4300146103a957600080fd5b806370a082311461026c57806395d89b41146102995780639ea3c820146102ae578063a9059cbb146102db578063a9e732bb146102fb57600080fd5b806318160ddd116100eb57806318160ddd146101d557806323b872dd146101eb578063313ce5671461020b57806340c10f191461023757806342966c681461024c57600080fd5b806302d05d3f1461012857806306fdde0314610165578063095ea7b31461018757806312065fe0146101b757600080fd5b3661012357005b600080fd5b34801561013457600080fd5b5060075461014890600160a060020a031681565b604051600160a060020a0390911681526020015b60405180910390f35b34801561017157600080fd5b5061017a6103be565b60405161015c9190611037565b34801561019357600080fd5b506101a76101a236600461109d565b61044c565b604051901515815260200161015c565b3480156101c357600080fd5b5030315b60405190815260200161015c565b3480156101e157600080fd5b506101c760005481565b3480156101f757600080fd5b506101a76102063660046110c9565b6104ed565b34801561021757600080fd5b506005546102259060ff1681565b60405160ff909116815260200161015c565b61024a61024536600461109d565b61069d565b005b34801561025857600080fd5b5061024a61026736600461110a565b610814565b34801561027857600080fd5b506101c7610287366004611123565b60016020526000908152604090205481565b3480156102a557600080fd5b5061017a6108ab565b3480156102ba57600080fd5b506102ce6102c9366004611123565b6108b8565b60405161015c9190611147565b3480156102e757600080fd5b506101a76102f636600461109d565b610ccd565b34801561030757600080fd5b5061024a61031636600461110a565b610d7b565b34801561032757600080fd5b506101c760065481565b34801561033d57600080fd5b5060085461014890600160a060020a031681565b34801561035d57600080fd5b506101c761036c3660046111f8565b600260209081526000928352604080842090915290825290205481565b34801561039557600080fd5b506102ce6103a4366004611231565b610ea1565b3480156103b557600080fd5b506101c7600181565b600380546103cb90611258565b80601f01602080910402602001604051908101604052809291908181526020018280546103f790611258565b80156104445780601f1061041957610100808354040283529160200191610444565b820191906000526020600020905b81548152906001019060200180831161042757829003601f168201915b505050505081565b336000908152600160205260408120548211156104875760405160e560020a62461bcd02815260040161047e90611295565b60405180910390fd5b336000818152600260209081526040808320600160a060020a03881680855290835292819020869055518581529192917f8c5be1e5ebec7d5bd14f71427d1e84f3dd0314c0f7b2291e5b200ac8c7c3b92591015b60405180910390a35060015b92915050565b600160a060020a03831660009081526002602090815260408083203384529091528120548211156105895760405160e560020a62461bcd02815260206004820152603360248201527f696e73756666696369656e7420616c6c6f77616e636520746f2072656369706960448201527f656e742066726f6d206d73672073656e64657200000000000000000000000000606482015260840161047e565b600160a060020a0384166000908152600160205260409020548211156105c45760405160e560020a62461bcd02815260040161047e90611295565b600160a060020a0384166000908152600260209081526040808320338452909152812080548492906105f79084906112e5565b9091555050600160a060020a038416600090815260016020526040812080548492906106249084906112e5565b9091555050600160a060020a038316600090815260016020526040812080548492906106519084906112f8565b9250508190555082600160a060020a031684600160a060020a031660008051602061147a8339815191528460405161068b91815260200190565b60405180910390a35060019392505050565b60006106aa60018061130b565b6106b49083611330565b90508034101561072f5760405160e560020a62461bcd02815260206004820152602a60248201527f496e73756666696369656e74206d73672076616c756520746f20636f7665722060448201527f65746820616d6f756e7400000000000000000000000000000000000000000000606482015260840161047e565b33318111156107835760405160e560020a62461bcd02815260206004820152601e60248201527f596f7520646f206e6f74206861766520656e6f7567682062616c616e63650000604482015260640161047e565b600160a060020a038316600090815260016020526040812080548492906107ab9084906112f8565b92505081905550816000808282546107c391906112f8565b9250508190555034600660008282546107dc91906112f8565b9091555050604051828152600160a060020a03841690309060008051602061147a8339815191529060200160405180910390a3505050565b336000908152600160205260409020548111156108465760405160e560020a62461bcd02815260040161047e90611295565b33600090815260016020526040812080548392906108659084906112e5565b925050819055508060008082825461087d91906112e5565b9091555050604051818152600090339060008051602061147a8339815191529060200160405180910390a350565b600480546103cb90611258565b6108c0610feb565b600082905030600160a060020a031681600160a060020a03166325be124e6040518163ffffffff1660e060020a028152600401602060405180830381865afa158015610910573d6000803e3d6000fd5b505050506040513d601f19601f820116820180604052508101906109349190611357565b600160a060020a03161461098d5760405160e560020a62461bcd02815260206004820181905260248201527f6c697374696e672077616e7473206120646966666572656e7420746f6b656e32604482015260640161047e565b80600160a060020a031663c4e5edcd6040518163ffffffff1660e060020a028152600401602060405180830381865afa1580156109ce573d6000803e3d6000fd5b505050506040513d601f19601f820116820180604052508101906109f29190611374565b336000908152600160205260409020541015610a235760405160e560020a62461bcd02815260040161047e90611295565b80600160a060020a031663c4e5edcd6040518163ffffffff1660e060020a028152600401602060405180830381865afa158015610a64573d6000803e3d6000fd5b505050506040513d601f19601f82011682018060405250810190610a889190611374565b336000818152600260209081526040808320600160a060020a03898116808652918452938290209590955580517fc4e5edcd00000000000000000000000000000000000000000000000000000000815290517f8c5be1e5ebec7d5bd14f71427d1e84f3dd0314c0f7b2291e5b200ac8c7c3b9259387169263c4e5edcd92600480820193918290030181865afa158015610b25573d6000803e3d6000fd5b505050506040513d601f19601f82011682018060405250810190610b499190611374565b60405190815260200160405180910390a36040517f6f6ff405000000000000000000000000000000000000000000000000000000008152336004820152600090600160a060020a03831690636f6ff40590602401610120604051808303816000875af1158015610bbd573d6000803e3d6000fd5b505050506040513d601f19601f82011682018060405250810190610be191906113d8565b9050600082600160a060020a03166302d05d3f6040518163ffffffff1660e060020a028152600401602060405180830381865afa158015610c26573d6000803e3d6000fd5b505050506040513d601f19601f82011682018060405250810190610c4a9190611357565b6040517fdc8046f0000000000000000000000000000000000000000000000000000000008152909150600160a060020a0382169063dc8046f090610c92908590600401611147565b600060405180830381600087803b158015610cac57600080fd5b505af1158015610cc0573d6000803e3d6000fd5b5093979650505050505050565b33600090815260016020526040812054821115610cff5760405160e560020a62461bcd02815260040161047e90611295565b3360009081526001602052604081208054849290610d1e9084906112e5565b9091555050600160a060020a03831660009081526001602052604081208054849290610d4b9084906112f8565b9091555050604051828152600160a060020a03841690339060008051602061147a833981519152906020016104db565b33600090815260016020526040902054811115610ddd5760405160e560020a62461bcd02815260206004820152601e60248201527f696e73756666696369656e742062616c616e636520696e20706c617965720000604482015260640161047e565b6000610dea60018061130b565b610df49083611330565b604051909150339082156108fc029083906000818181858888f19350505050158015610e24573d6000803e3d6000fd5b503360009081526001602052604081208054849290610e449084906112e5565b90915550506040518281523090339060008051602061147a8339815191529060200160405180910390a381600080828254610e7f91906112e5565b925050819055508060066000828254610e9891906112e5565b90915550505050565b610ea9610feb565b33600090815260016020526040902054841115610edb5760405160e560020a62461bcd02815260040161047e90611295565b6008546040517f2cd1adfe00000000000000000000000000000000000000000000000000000000815233600482015260248101869052600160a060020a038581166044830152606482018590526000921690632cd1adfe90608401610120604051808303816000875af1158015610f56573d6000803e3d6000fd5b505050506040513d601f19601f82011682018060405250810190610f7a91906113d8565b602080820151336000818152600284526040808220600160a060020a0385168084529552908190208a90555193945090927f8c5be1e5ebec7d5bd14f71427d1e84f3dd0314c0f7b2291e5b200ac8c7c3b92590610fda908a815260200190565b60405180910390a350949350505050565b6040805161012081018252600080825260208201819052918101829052606081018290526080810182905260a0810182905260c0810182905260e0810182905261010081019190915290565b600060208083528351808285015260005b8181101561106457858101830151858201604001528201611048565b506000604082860101526040601f19601f8301168501019250505092915050565b600160a060020a038116811461109a57600080fd5b50565b600080604083850312156110b057600080fd5b82356110bb81611085565b946020939093013593505050565b6000806000606084860312156110de57600080fd5b83356110e981611085565b925060208401356110f981611085565b929592945050506040919091013590565b60006020828403121561111c57600080fd5b5035919050565b60006020828403121561113557600080fd5b813561114081611085565b9392505050565b600061012082019050825182526020830151600160a060020a038082166020850152806040860151166040850152505060608301516111916060840182600160a060020a03169052565b506080830151608083015260a08301516111b660a0840182600160a060020a03169052565b5060c08301516111d160c0840182600160a060020a03169052565b5060e083015160e0830152610100808401516111f08285018215159052565b505092915050565b6000806040838503121561120b57600080fd5b823561121681611085565b9150602083013561122681611085565b809150509250929050565b60008060006060848603121561124657600080fd5b8335925060208401356110f981611085565b60028104600182168061126c57607f821691505b60208210810361128f5760e060020a634e487b7102600052602260045260246000fd5b50919050565b6020808252601e908201527f696e73756666696369656e742062616c616e636520696e2073656e6465720000604082015260600190565b60e060020a634e487b7102600052601160045260246000fd5b818103818111156104e7576104e76112cc565b808201808211156104e7576104e76112cc565b60008261132b5760e060020a634e487b7102600052601260045260246000fd5b500490565b80820281158282048414176104e7576104e76112cc565b805161135281611085565b919050565b60006020828403121561136957600080fd5b815161114081611085565b60006020828403121561138657600080fd5b5051919050565b604051610120810167ffffffffffffffff811182821017156113c25760e060020a634e487b7102600052604160045260246000fd5b60405290565b8051801515811461135257600080fd5b600061012082840312156113eb57600080fd5b6113f361138d565b8251815261140360208401611347565b602082015261141460408401611347565b604082015261142560608401611347565b60608201526080830151608082015261144060a08401611347565b60a082015261145160c08401611347565b60c082015260e083015160e082015261010061146e8185016113c8565b90820152939250505056feddf252ad1be2c89b69c2b068fc378daa952ba7f163c4a11628f55a4df523b3efa26469706673582212203fdb59351b164a8f1f2f9ad1d205f63b07895997bec9c7117d1e9d6a5ca840a064736f6c63430008110033608060405234801561001057600080fd5b50614deb806100206000396000f3fe608060405234801561001057600080fd5b5060043610610047577c01000000000000000000000000000000000000000000000000000000006000350463956a2a10811461004c575b600080fd5b61005f61005a36600461012a565b610088565b60405173ffffffffffffffffffffffffffffffffffffffff909116815260200160405180910390f35b60008484848460405161009a906100f4565b73ffffffffffffffffffffffffffffffffffffffff94851681526020810193909352921660408201526060810191909152608001604051809103906000f0801580156100ea573d6000803e3d6000fd5b5095945050505050565b614c478061016f83390190565b803573ffffffffffffffffffffffffffffffffffffffff8116811461012557600080fd5b919050565b6000806000806080858703121561014057600080fd5b61014985610101565b93506020850135925061015e60408601610101565b939692955092936060013592505056fe60806040523480156200001157600080fd5b5060405162004c4738038062004c4783398101604081905262000034916200024f565b6000805460078054600160a060020a03888116600160a060020a031992831681179093556001889055600160b060020a03199093169091179092556004805490921690841617905560028190556040516103e890620000939062000224565b6060808252600b908201527f47616d654e6f546f6b656e000000000000000000000000000000000000000000608082015260a0602082018190526003908201527f474e54000000000000000000000000000000000000000000000000000000000060c0820152604081019190915260e001604051809103906000f08015801562000121573d6000803e3d6000fd5b5060098054600160a060020a0392909216600160a060020a03199283168117909155600880549092161790556040516103e8906200015f9062000224565b6060808252600c908201527f47616d65596573546f6b656e0000000000000000000000000000000000000000608082015260a0602082018190526003908201527f475954000000000000000000000000000000000000000000000000000000000060c0820152604081019190915260e001604051809103906000f080158015620001ed573d6000803e3d6000fd5b50600b8054600160a060020a0392909216600160a060020a03199283168117909155600a8054909216179055506200029892505050565b6115ad806200369a83390190565b8051600160a060020a03811681146200024a57600080fd5b919050565b600080600080608085870312156200026657600080fd5b620002718562000232565b935060208501519250620002886040860162000232565b6060959095015193969295505050565b6133f280620002a86000396000f3fe60806040523480156200001157600080fd5b5060043610620001965760003560e060020a900480636e4d243a11620000f4578063d270e7ab11620000a7578063e07056af116200007e578063e07056af14620003ad578063e2cb747d14620003c4578063f91c2cbc14620003db578063f92a9e0914620003f457600080fd5b8063d270e7ab146200036e578063d6875f951462000382578063dc8046f0146200039657600080fd5b80636e4d243a14620003025780637256eba4146200030c578063846c6f4f14620003235780638e15f47314620003375780638f09cc8b1462000341578063ae73ccec146200035557600080fd5b80631746bd1b116200014d5780631746bd1b1462000255578063200d2ed214620002905780632cd1adfe14620002b457806341ef10c814620002da57806342cde4e814620002ee57806346b1df0414620002f857600080fd5b806302d05d3f146200019b578063053a2cfb14620001cc578063097cd6c914620001f057806312065fe0146200020957806314794702146200021b5780631486d6111462000232575b600080fd5b600054620001af90600160a060020a031681565b604051600160a060020a0390911681526020015b60405180910390f35b600054620001e19060a860020a900460ff1681565b604051620001c391906200205a565b620002076200020136600462002070565b620003fe565b005b30315b604051908152602001620001c3565b620002076200022c36600462002070565b620004f9565b6200020c620002433660046200208a565b60036020526000908152604090205481565b600054600154600254604051620001c393600160a060020a0381169360ff60a060020a830481169460a860020a9093041692909190620020c7565b600054620002a59060a060020a900460ff1681565b604051620001c3919062002108565b620002cb620002c536600462002143565b62000c7e565b604051620001c391906200222a565b600854620001af90600160a060020a031681565b6200020c60025481565b6200020c60115481565b6200020762000f0a565b620002076200031d3660046200224d565b620010d5565b600a54620001af90600160a060020a031681565b6200020c62001a7e565b600954620001af90600160a060020a031681565b6200035f62001b12565b604051620001c3919062002290565b600754620001af90600160a060020a031681565b600b54620001af90600160a060020a031681565b62000207620003a736600462002379565b62001bae565b620001af620003be36600462002070565b62001c73565b6200020c620003d536600462002429565b62001d18565b620003e562001dd7565b604051620001c3919062002447565b6200020c60015481565b6000805474ff0000000000000000000000000000000000000000191660a060020a179055600280548190831262000436575060019050805b6000805483919075ff000000000000000000000000000000000000000000191660a860020a8360028111156200047057620004706200202a565b0217905550426001556007546040517fe362937d00000000000000000000000000000000000000000000000000000000815260ff83166004820152600160a060020a039091169063e362937d90602401600060405180830381600087803b158015620004db57600080fd5b505af1158015620004f0573d6000803e3d6000fd5b50505050505050565b600160005460a060020a900460ff1660018111156200051c576200051c6200202a565b14620005725760405160e560020a62461bcd02815260206004820152601660248201527f67616d65206973206e6f742079657420636c6f7365640000000000000000000060448201526064015b60405180910390fd5b6000805460a860020a900460ff1660028111156200059457620005946200202a565b03620005e65760405160e560020a62461bcd02815260206004820152601e60248201527f67616d65206f7574636f6d652063616e6e6f7420626520756e6b6e6f776e0000604482015260640162000569565b600954600160a060020a0316600160005460a860020a900460ff1660028111156200061557620006156200202a565b03620006295750600b54600160a060020a03165b6040517fdd62ed3e0000000000000000000000000000000000000000000000000000000081523360048201523060248201528290600160a060020a0383169063dd62ed3e90604401602060405180830381865afa1580156200068f573d6000803e3d6000fd5b505050506040513d601f19601f82011682018060405250810190620006b5919062002557565b10156200072e5760405160e560020a62461bcd02815260206004820152602360248201527f706c61796572206d75737420617070726f766520776974686472617720616d6f60448201527f756e740000000000000000000000000000000000000000000000000000000000606482015260840162000569565b6040517f70a082310000000000000000000000000000000000000000000000000000000081523360048201528290600160a060020a038316906370a0823190602401602060405180830381865afa1580156200078e573d6000803e3d6000fd5b505050506040513d601f19601f82011682018060405250810190620007b4919062002557565b10156200082d5760405160e560020a62461bcd02815260206004820152602e60248201527f706c61796572206d75737420686176652067616d6520746f6b656e20616d6f7560448201527f6e7420746f207769746864726177000000000000000000000000000000000000606482015260840162000569565b60028060005460a860020a900460ff1660028111156200085157620008516200202a565b036200085b575060015b6000836200086b6001806200258a565b620008779190620025b0565b9050600081600360008560028111156200089557620008956200202a565b6002811115620008a957620008a96200202a565b815260200190815260200160002054600360008060159054906101000a900460ff166002811115620008df57620008df6200202a565b6002811115620008f357620008f36200202a565b815260200190815260200160002054846200090f91906200258a565b6200091b9190620025b0565b620009279190620025ca565b9050600760009054906101000a9004600160a060020a0316600160a060020a0316633fc15f156040518163ffffffff1660e060020a028152600401602060405180830381865afa15801562000980573d6000803e3d6000fd5b505050506040513d601f19601f82011682018060405250810190620009a69190620025e0565b6040517fa9059cbb00000000000000000000000000000000000000000000000000000000815233600482015260248101839052600160a060020a03919091169063a9059cbb906044016020604051808303816000875af115801562000a0f573d6000803e3d6000fd5b505050506040513d601f19601f8201168201806040525081019062000a3591906200260d565b5062000a448433308862001f26565b6002600160005460a860020a900460ff16600281111562000a695762000a696200202a565b0362000a73575060015b6040805160e08101825260068054825282518084018452600881527f57495448445241570000000000000000000000000000000000000000000000006020828101919091528301908152928201859052426060830181905260ff851660808401523060a08401523360c084015260058054600181018255600091909152835192027f036b6384b5eca791c62761152d0c79bb0604c104a5fb6f4eb0703f3154bb3db08101928355935190937f036b6384b5eca791c62761152d0c79bb0604c104a5fb6f4eb0703f3154bb3db1019062000b4d9082620026bb565b506040820151600282015560608201516003820155608082015160048201805460a085015160ff90931674ffffffffffffffffffffffffffffffffffffffffff1990911617610100600160a060020a039384160217905560c0909201516005909101805473ffffffffffffffffffffffffffffffffffffffff1916919092161790556006805490600062000be1836200278e565b90915550506007546040517f7976948800000000000000000000000000000000000000000000000000000000815233600482015260ff841660248201526044810185905260648101839052600160a060020a0390911690637976948890608401600060405180830381600087803b15801562000c5c57600080fd5b505af115801562000c71573d6000803e3d6000fd5b5050505050505050505050565b6040805161012081018252600080825260208201819052918101829052606081018290526080810182905260a0810182905260c0810182905260e08101829052610100810191909152600854600160a060020a031633148062000ceb5750600a54600160a060020a031633145b62000d625760405160e560020a62461bcd02815260206004820152602760248201527f6f6e6c792067616d6520746f6b656e2063616e20637265617465206e6577206c60448201527f697374696e677300000000000000000000000000000000000000000000000000606482015260840162000569565b60006011549050600081873388888860405162000d7f906200201c565b958652600160a060020a03948516602087015292841660408601526060850191909152909116608083015260a082015260c001604051809103906000f08015801562000dcf573d6000803e3d6000fd5b506040805161012081018252848152600160a060020a0380841660208301528a811682840152336060830152608082018a9052600060a0830181905290891660c083015260e0820188905261010082015290517f070b5eb40000000000000000000000000000000000000000000000000000000081529192509073__IterableMapping_______________________9063070b5eb49062000e7a90600c9087908690600401620027aa565b60006040518083038186803b15801562000e9357600080fd5b505af415801562000ea8573d6000803e3d6000fd5b50506011805492509050600062000ebf836200278e565b91905055507fd1fe3704bd3aa4f4974d5168e39528bbb86b19e98e5f798beea49af58df301398160405162000ef591906200222a565b60405180910390a1925050505b949350505050565b60015442101562000f615760405160e560020a62461bcd02815260206004820181905260248201527f67616d65206973206e6f7420726561647920746f206265207265736f6c766564604482015260640162000569565b600160005460a060020a900460ff16600181111562000f845762000f846200202a565b0362000fd65760405160e560020a62461bcd02815260206004820152601660248201527f67616d6520697320616c726561647920636c6f73656400000000000000000000604482015260640162000569565b6000805474ff0000000000000000000000000000000000000000191660a060020a1790556002805481906200100a62001a7e565b1262001017575060019050805b6000805483919075ff000000000000000000000000000000000000000000191660a860020a8360028111156200105157620010516200202a565b02179055506007546040517fe362937d00000000000000000000000000000000000000000000000000000000815260ff83166004820152600160a060020a039091169063e362937d90602401600060405180830381600087803b158015620010b857600080fd5b505af1158015620010cd573d6000803e3d6000fd5b505050505050565b60008060005460a060020a900460ff166001811115620010f957620010f96200202a565b14620011715760405160e560020a62461bcd02815260206004820152602860248201527f47616d6520697320636c6f7365642c206e6f206675727468657220626574732060448201527f6163636570746564000000000000000000000000000000000000000000000000606482015260840162000569565b8160ff16600114806200118757508160ff166002145b620011d85760405160e560020a62461bcd02815260206004820152601a60248201527f6265742073696465206973206e6f74207265636f676e69736564000000000000604482015260640162000569565b600154421115620012555760405160e560020a62461bcd02815260206004820152602260248201527f63616e6e6f74207075742062657473206166746572207265736f6c766520746960448201527f6d65000000000000000000000000000000000000000000000000000000000000606482015260840162000569565b600754604080517f3fc15f1500000000000000000000000000000000000000000000000000000000815290518592600160a060020a031691633fc15f159160048083019260209291908290030181865afa158015620012b8573d6000803e3d6000fd5b505050506040513d601f19601f82011682018060405250810190620012de9190620025e0565b6040517fdd62ed3e000000000000000000000000000000000000000000000000000000008152600160a060020a038781166004830152306024830152919091169063dd62ed3e90604401602060405180830381865afa15801562001346573d6000803e3d6000fd5b505050506040513d601f19601f820116820180604052508101906200136c919062002557565b1015620013e55760405160e560020a62461bcd02815260206004820152602d60248201527f706c617965722773206877616e67206d61726b657420746f6b656e20616c6c6f60448201527f77616e636520746f6f206c6f7700000000000000000000000000000000000000606482015260840162000569565b600754604080517f3fc15f1500000000000000000000000000000000000000000000000000000000815290518592600160a060020a031691633fc15f159160048083019260209291908290030181865afa15801562001448573d6000803e3d6000fd5b505050506040513d601f19601f820116820180604052508101906200146e9190620025e0565b6040517f70a08231000000000000000000000000000000000000000000000000000000008152600160a060020a03878116600483015291909116906370a0823190602401602060405180830381865afa158015620014d0573d6000803e3d6000fd5b505050506040513d601f19601f82011682018060405250810190620014f6919062002557565b10156200156f5760405160e560020a62461bcd02815260206004820152602b60248201527f706c617965722773206877616e67206d61726b657420746f6b656e2062616c6160448201527f6e636520746f6f206c6f77000000000000000000000000000000000000000000606482015260840162000569565b600260ff831660010362001581575060015b600954600160a060020a031660ff8416600103620015a75750600b54600160a060020a03165b6000620015b6600187620025b0565b905081600160a060020a03166319d1997a6040518163ffffffff1660e060020a028152600401602060405180830381865afa158015620015fa573d6000803e3d6000fd5b505050506040513d601f19601f8201168201806040525081019062001620919062002557565b8183600160a060020a03166318160ddd6040518163ffffffff1660e060020a028152600401602060405180830381865afa15801562001663573d6000803e3d6000fd5b505050506040513d601f19601f8201168201806040525081019062001689919062002557565b620016959190620025ca565b11156200170e5760405160e560020a62461bcd02815260206004820152602760248201527f67616d6520746f6b656e2063616e6e6f74206d696e742072657175657374656460448201527f20616d6f756e7400000000000000000000000000000000000000000000000000606482015260840162000569565b6040517f40c10f19000000000000000000000000000000000000000000000000000000008152600160a060020a038881166004830152602482018390528316906340c10f1990604401600060405180830381600087803b1580156200177257600080fd5b505af115801562001787573d6000803e3d6000fd5b5050505062001815600760009054906101000a9004600160a060020a0316600160a060020a0316633fc15f156040518163ffffffff1660e060020a028152600401602060405180830381865afa158015620017e6573d6000803e3d6000fd5b505050506040513d601f19601f820116820180604052508101906200180c9190620025e0565b88308962001f26565b85600360008560028111156200182f576200182f6200202a565b60028111156200184357620018436200202a565b81526020019081526020016000206000828254620018629190620025ca565b90915550506040805160e08101825260068054825282518084018452600381527f42455400000000000000000000000000000000000000000000000000000000006020828101919091528301908152928201899052426060830181905260ff891660808401523060a0840152600160a060020a038b1660c084015260058054600181018255600091909152835192027f036b6384b5eca791c62761152d0c79bb0604c104a5fb6f4eb0703f3154bb3db08101928355935190937f036b6384b5eca791c62761152d0c79bb0604c104a5fb6f4eb0703f3154bb3db101906200194a9082620026bb565b506040820151600282015560608201516003820155608082015160048201805460a085015160ff90931674ffffffffffffffffffffffffffffffffffffffffff1990911617610100600160a060020a039384160217905560c0909201516005909101805473ffffffffffffffffffffffffffffffffffffffff19169190921617905560068054906000620019de836200278e565b90915550506007546040517f5039eb97000000000000000000000000000000000000000000000000000000008152600160a060020a038a8116600483015260ff89166024830152604482018a90526064820184905290911690635039eb9790608401600060405180830381600087803b15801562001a5b57600080fd5b505af115801562001a70573d6000803e3d6000fd5b505050505050505050505050565b60048054604080517ffeaf968c00000000000000000000000000000000000000000000000000000000815290516000938493600160a060020a03169263feaf968c928183019260a0928290030181865afa15801562001ae1573d6000803e3d6000fd5b505050506040513d601f19601f8201168201806040525081019062001b079190620027e3565b509195945050505050565b6040517f75a02c20000000000000000000000000000000000000000000000000000000008152600c600482015260609073__IterableMapping_______________________906375a02c2090602401600060405180830381865af415801562001b7f573d6000803e3d6000fd5b505050506040513d6000823e601f3d908101601f1916820160405262001ba99190810190620028f6565b905090565b80516040517f070b5eb400000000000000000000000000000000000000000000000000000000815273__IterableMapping_______________________9163070b5eb49162001c0591600c918690600401620027aa565b60006040518083038186803b15801562001c1e57600080fd5b505af415801562001c33573d6000803e3d6000fd5b505050507f4758bcd8e425945eea731ed13074c209c3176197b970b6a78b278ad015ae90788160405162001c6891906200222a565b60405180910390a150565b6040517fd31c830c000000000000000000000000000000000000000000000000000000008152600c60048201526024810182905260009073__IterableMapping_______________________9063d31c830c9060440161012060405180830381865af415801562001ce8573d6000803e3d6000fd5b505050506040513d601f19601f8201168201806040525081019062001d0e9190620029b3565b6020015192915050565b60008160ff166001148062001d3057508160ff166002145b62001d815760405160e560020a62461bcd02815260206004820152601a60248201527f73696465206d757374206265206f6e65206f662031206f722032000000000000604482015260640162000569565b600260ff831660010362001d93575060015b6003600082600281111562001dac5762001dac6200202a565b600281111562001dc05762001dc06200202a565b815260200190815260200160002054915050919050565b60606005805480602002602001604051908101604052809291908181526020016000905b8282101562001f1d57838290600052602060002090600602016040518060e00160405290816000820154815260200160018201805462001e3b906200262d565b80601f016020809104026020016040519081016040528092919081815260200182805462001e69906200262d565b801562001eba5780601f1062001e8e5761010080835404028352916020019162001eba565b820191906000526020600020905b81548152906001019060200180831162001e9c57829003601f168201915b5050509183525050600282015460208083019190915260038301546040830152600483015460ff81166060840152600160a060020a036101009091048116608084015260059093015490921660a090910152908252600192909201910162001dfb565b50505050905090565b6040517f23b872dd000000000000000000000000000000000000000000000000000000008152600160a060020a038481166004830152838116602483015260448201839052600091908616906323b872dd906064016020604051808303816000875af115801562001f9b573d6000803e3d6000fd5b505050506040513d601f19601f8201168201806040525081019062001fc191906200260d565b905080620020155760405160e560020a62461bcd02815260206004820152601560248201527f546f6b656e207472616e73666572206661696c65640000000000000000000000604482015260640162000569565b5050505050565b6109e980620029d483390190565b60e060020a634e487b7102600052602160045260246000fd5b600381106200205657620020566200202a565b9052565b602081016200206a828462002043565b92915050565b6000602082840312156200208357600080fd5b5035919050565b6000602082840312156200209d57600080fd5b813560038110620020ad57600080fd5b9392505050565b600281106200205657620020566200202a565b600160a060020a038616815260a08101620020e66020830187620020b4565b620020f5604083018662002043565b6060820193909352608001529392505050565b602081016200206a8284620020b4565b600160a060020a03811681146200212e57600080fd5b50565b80356200213e8162002118565b919050565b600080600080608085870312156200215a57600080fd5b8435620021678162002118565b9350602085013592506040850135620021808162002118565b9396929550929360600135925050565b805182526020810151600160a060020a03808216602085015280604084015116604085015280606084015116606085015250506080810151608083015260a0810151620021e860a0840182600160a060020a03169052565b5060c08101516200220460c0840182600160a060020a03169052565b5060e081015160e083015261010080820151620022248285018215159052565b50505050565b61012081016200206a828462002190565b803560ff811681146200213e57600080fd5b6000806000606084860312156200226357600080fd5b8335620022708162002118565b92506020840135915062002287604085016200223b565b90509250925092565b6020808252825182820181905260009190848201906040850190845b81811015620022d757620022c283855162002190565b928401926101209290920191600101620022ac565b50909695505050505050565b60e060020a634e487b7102600052604160045260246000fd5b604051610120810167ffffffffffffffff81118282101715620023235762002323620022e3565b60405290565b604051601f8201601f1916810167ffffffffffffffff81118282101715620023555762002355620022e3565b604052919050565b80151581146200212e57600080fd5b80356200213e816200235d565b600061012082840312156200238d57600080fd5b62002397620022fc565b82358152620023a96020840162002131565b6020820152620023bc6040840162002131565b6040820152620023cf6060840162002131565b606082015260808301356080820152620023ec60a0840162002131565b60a0820152620023ff60c0840162002131565b60c082015260e083013560e08201526101006200241e8185016200236c565b908201529392505050565b6000602082840312156200243c57600080fd5b620020ad826200223b565b6020808252825182820181905260009190604090818501908084028601830187850186805b848110156200254857603f198a8503018652825160e08151865289820151818b880152805180838901528592505b80831015620024bb578183018c01518884016101000152918b01916200249a565b61010092508583828a0101528a8401518b8901526060915081840151828901526080915081840151620024f2838a018260ff169052565b5060a091508184015162002510838a0182600160a060020a03169052565b5060c093840151600160a060020a03811689860152939150988b0198601f01601f19169690960101945050918701916001016200246c565b50919998505050505050505050565b6000602082840312156200256a57600080fd5b5051919050565b60e060020a634e487b7102600052601160045260246000fd5b600082620025ab5760e060020a634e487b7102600052601260045260246000fd5b500490565b80820281158282048414176200206a576200206a62002571565b808201808211156200206a576200206a62002571565b600060208284031215620025f357600080fd5b8151620020ad8162002118565b80516200213e816200235d565b6000602082840312156200262057600080fd5b8151620020ad816200235d565b6002810460018216806200264257607f821691505b602082108103620026665760e060020a634e487b7102600052602260045260246000fd5b50919050565b601f821115620026b6576000818152602081206020601f86010481016020861015620026955750805b6020601f860104820191505b81811015620010cd57828155600101620026a1565b505050565b815167ffffffffffffffff811115620026d857620026d8620022e3565b620026f081620026e984546200262d565b846200266c565b602080601f8311600181146200272c57600084156200270f5750858301515b60028086026008870290910a6000190419821617865550620010cd565b600085815260208120601f198616915b828110156200275d578886015182559484019460019091019084016200273c565b50858210156200277e57878501516008601f88160260020a60001904191681555b5050505050600202600101905550565b600060018201620027a357620027a362002571565b5060010190565b83815260208101839052610160810162000f02604083018462002190565b805169ffffffffffffffffffff811681146200213e57600080fd5b600080600080600060a08688031215620027fc57600080fd5b6200280786620027c8565b94506020860151935060408601519250606086015191506200282c60808701620027c8565b90509295509295909350565b80516200213e8162002118565b600061012082840312156200285957600080fd5b62002863620022fc565b905081518152620028776020830162002838565b60208201526200288a6040830162002838565b60408201526200289d6060830162002838565b606082015260808201516080820152620028ba60a0830162002838565b60a0820152620028cd60c0830162002838565b60c082015260e082015160e0820152610100620028ec81840162002600565b9082015292915050565b600060208083850312156200290a57600080fd5b825167ffffffffffffffff808211156200292357600080fd5b818501915085601f8301126200293857600080fd5b8151818111156200294d576200294d620022e3565b6200295c848583020162002329565b81815284810192506101209182028401850191888311156200297d57600080fd5b938501935b82851015620029a75762002997898662002845565b8452938401939285019262002982565b50979650505050505050565b60006101208284031215620029c757600080fd5b620020ad83836200284556fe608060405234801561001057600080fd5b506040516109e93803806109e983398101604081905261002f9161020c565b6000805433600160a060020a03199182168117909255600a805461010060a860020a031916610100909302929092179091556001879055600280548216600160a060020a03888116918217909255600380548416888416908117909155600587905560078054851693871693909317909255600984905560048054909316821783556040517f70a082310000000000000000000000000000000000000000000000000000000081529283015284916370a0823190602401602060405180830381865afa158015610103573d6000803e3d6000fd5b505050506040513d601f19601f82011682018060405250810190610127919061026b565b10156101bb57604080517f08c379a00000000000000000000000000000000000000000000000000000000081526020600482015260248101919091527f706c6179657220312068617320696e73756666696369656e742062616c616e6360448201527f65206f6620746f6b656e203120746f206372656174652061206c697374696e67606482015260840160405180910390fd5b5060088054600160a060020a031916600160a060020a03929092169190911790555050600a805460ff19169055506102849050565b8051600160a060020a038116811461020757600080fd5b919050565b60008060008060008060c0878903121561022557600080fd5b86519550610235602088016101f0565b9450610243604088016101f0565b935060608701519250610258608088016101f0565b915060a087015190509295509295509295565b60006020828403121561027d57600080fd5b5051919050565b610756806102936000396000f3fe608060405234801561001057600080fd5b50600436106100d1576000357c010000000000000000000000000000000000000000000000000000000090048063c4e5edcd1161008e578063c4e5edcd14610176578063d21220a71461017f578063d30895e414610192578063d5488048146101a5578063d70c6703146101b8578063e2d46f98146101c157600080fd5b806302d05d3f146100d657806325be124e1461010657806358aaf0be1461011957806359a5f12d1461012c5780636f6ff4051461013f5780639405dfdd1461015f575b600080fd5b6000546100e990600160a060020a031681565b604051600160a060020a0390911681526020015b60405180910390f35b6007546100e990600160a060020a031681565b6008546100e990600160a060020a031681565b6006546100e990600160a060020a031681565b61015261014d366004610604565b6101de565b6040516100fd9190610634565b61016860015481565b6040519081526020016100fd565b61016860095481565b6003546100e990600160a060020a031681565b6002546100e990600160a060020a031681565b6004546100e990600160a060020a031681565b61016860055481565b600a546101ce9060ff1681565b60405190151581526020016100fd565b6040805161012081018252600080825260208201819052918101829052606081018290526080810182905260a0810182905260c0810182905260e08101829052610100810191909152600554600480546002546040517fdd62ed3e000000000000000000000000000000000000000000000000000000008152600160a060020a0391821693810193909352306024840152169063dd62ed3e90604401602060405180830381865afa158015610297573d6000803e3d6000fd5b505050506040513d601f19601f820116820180604052508101906102bb91906106e5565b1015610328576040517f08c379a000000000000000000000000000000000000000000000000000000000815260206004820152601960248201527f546f6b656e203120616c6c6f77616e636520746f6f206c6f770000000000000060448201526064015b60405180910390fd5b6009546008546040517fdd62ed3e000000000000000000000000000000000000000000000000000000008152600160a060020a0385811660048301523060248301529091169063dd62ed3e90604401602060405180830381865afa158015610394573d6000803e3d6000fd5b505050506040513d601f19601f820116820180604052508101906103b891906106e5565b1015610420576040517f08c379a000000000000000000000000000000000000000000000000000000000815260206004820152601960248201527f546f6b656e203220616c6c6f77616e636520746f6f206c6f7700000000000000604482015260640161031f565b60045460025460055461044292600160a060020a0390811692169085906104fc565b60085460025460095461046592600160a060020a039081169286929116906104fc565b506006805473ffffffffffffffffffffffffffffffffffffffff1916600160a060020a03928316908117909155600a805460ff1916600190811790915560408051610120810182528254815230602082015260025485169181019190915260035484166060820152600554608082015260a081019290925260075490921660c082015260095460e082015261010081019190915290565b6040517f23b872dd000000000000000000000000000000000000000000000000000000008152600160a060020a038481166004830152838116602483015260448201839052600091908616906323b872dd906064016020604051808303816000875af1158015610570573d6000803e3d6000fd5b505050506040513d601f19601f8201168201806040525081019061059491906106fe565b9050806105fd576040517f08c379a000000000000000000000000000000000000000000000000000000000815260206004820152601560248201527f546f6b656e207472616e73666572206661696c65640000000000000000000000604482015260640161031f565b5050505050565b60006020828403121561061657600080fd5b8135600160a060020a038116811461062d57600080fd5b9392505050565b600061012082019050825182526020830151600160a060020a0380821660208501528060408601511660408501525050606083015161067e6060840182600160a060020a03169052565b506080830151608083015260a08301516106a360a0840182600160a060020a03169052565b5060c08301516106be60c0840182600160a060020a03169052565b5060e083015160e0830152610100808401516106dd8285018215159052565b505092915050565b6000602082840312156106f757600080fd5b5051919050565b60006020828403121561071057600080fd5b8151801515811461062d57600080fdfea2646970667358221220291fab86590a1c78fe6bab1e0d4ff8042a2dea4b60ac258dce3dce917fc890d164736f6c63430008110033a2646970667358221220ade0813f94b4f3e89f03caabdd893af8fd7b4cf5887d3021a6ffe1ec4a0cba9864736f6c6343000811003360806040523480156200001157600080fd5b50604051620015ad380380620015ad833981016040819052620000349162000164565b60068054600160a060020a0319163317905560046200005484826200027f565b5060056200006383826200027f565b506000908155600155505060078054600160a060020a0319163317905562000351565b7f4e487b7100000000000000000000000000000000000000000000000000000000600052604160045260246000fd5b600082601f830112620000c757600080fd5b81516001604060020a0380821115620000e457620000e462000086565b604051601f8301601f19908116603f011681019082821181831017156200010f576200010f62000086565b816040528381526020925086838588010111156200012c57600080fd5b600091505b8382101562000150578582018301518183018401529082019062000131565b600093810190920192909252949350505050565b6000806000606084860312156200017a57600080fd5b83516001604060020a03808211156200019257600080fd5b620001a087838801620000b5565b94506020860151915080821115620001b757600080fd5b50620001c686828701620000b5565b925050604084015190509250925092565b600281046001821680620001ec57607f821691505b60208210810362000226577f4e487b7100000000000000000000000000000000000000000000000000000000600052602260045260246000fd5b50919050565b601f8211156200027a576000818152602081206020601f86010481016020861015620002555750805b6020601f860104820191505b81811015620002765782815560010162000261565b5050505b505050565b81516001604060020a038111156200029b576200029b62000086565b620002b381620002ac8454620001d7565b846200022c565b602080601f831160018114620002ef5760008415620002d25750858301515b60028086026008870290910a600019041982161786555062000276565b600085815260208120601f198616915b828110156200032057888601518255948401946001909101908401620002ff565b50858210156200034157878501516008601f88160260020a60001904191681555b5050505050600202600101905550565b61124c80620003616000396000f3fe608060405234801561001057600080fd5b50600436106100d35760003560e060020a9004806342966c68116100905780639ea3c8201161006a5780639ea3c8201461019c578063a9059cbb146101bc578063dd62ed3e146101cf578063de6a8dc5146101fa57600080fd5b806342966c681461016157806370a082311461017457806395d89b411461019457600080fd5b806306fdde03146100d8578063095ea7b3146100f657806318160ddd1461011957806319d1997a1461013057806323b872dd1461013957806340c10f191461014c575b600080fd5b6100e061020d565b6040516100ed9190610dae565b60405180910390f35b610109610104366004610e14565b61029b565b60405190151581526020016100ed565b61012260015481565b6040519081526020016100ed565b61012260005481565b610109610147366004610e40565b61033c565b61015f61015a366004610e14565b6104ec565b005b61015f61016f366004610e81565b61064c565b610122610182366004610e9a565b60026020526000908152604090205481565b6100e06106e4565b6101af6101aa366004610e9a565b6106f1565b6040516100ed9190610ebe565b6101096101ca366004610e14565b610b19565b6101226101dd366004610f6f565b600360209081526000928352604080842090915290825290205481565b6101af610208366004610fa8565b610bff565b6004805461021a90610fcf565b80601f016020809104026020016040519081016040528092919081815260200182805461024690610fcf565b80156102935780601f1061026857610100808354040283529160200191610293565b820191906000526020600020905b81548152906001019060200180831161027657829003601f168201915b505050505081565b336000908152600260205260408120548211156102d65760405160e560020a62461bcd0281526004016102cd90611022565b60405180910390fd5b336000818152600360209081526040808320600160a060020a03881680855290835292819020869055518581529192917f8c5be1e5ebec7d5bd14f71427d1e84f3dd0314c0f7b2291e5b200ac8c7c3b92591015b60405180910390a35060015b92915050565b600160a060020a03831660009081526003602090815260408083203384529091528120548211156103d85760405160e560020a62461bcd02815260206004820152602f60248201527f696e73756666696369656e7420616c6c6f77616e636520746f2072656369706960448201527f656e742066726f6d2073656e646572000000000000000000000000000000000060648201526084016102cd565b600160a060020a0384166000908152600260205260409020548211156104135760405160e560020a62461bcd0281526004016102cd90611022565b600160a060020a038416600090815260036020908152604080832033845290915281208054849290610446908490611088565b9091555050600160a060020a03841660009081526002602052604081208054849290610473908490611088565b9091555050600160a060020a038316600090815260026020526040812080548492906104a090849061109b565b9250508190555082600160a060020a031684600160a060020a03166000805160206111f7833981519152846040516104da91815260200190565b60405180910390a35060019392505050565b600654600160a060020a031633146105495760405160e560020a62461bcd02815260206004820152600e60248201527f4e6f7420617574686f72697a656400000000000000000000000000000000000060448201526064016102cd565b6000548160015461055a919061109b565b11156105d3576040805160e560020a62461bcd0281526020600482015260248101919091527f63616e6e6f74206d696e74207468652072657175657374656420616d6f756e7460448201527f206f6620746f6b656e732c20737570706c79206c696d697420746f6f206c6f7760648201526084016102cd565b600160a060020a038216600090815260026020526040812080548392906105fb90849061109b565b925050819055508060016000828254610614919061109b565b9091555050604051818152600160a060020a038316906000906000805160206111f78339815191529060200160405180910390a35050565b3360009081526002602052604090205481111561067e5760405160e560020a62461bcd0281526004016102cd90611022565b336000908152600260205260408120805483929061069d908490611088565b9250508190555080600160008282546106b69190611088565b909155505060405181815260009033906000805160206111f78339815191529060200160405180910390a350565b6005805461021a90610fcf565b6106f9610d62565b600082905030600160a060020a031681600160a060020a03166325be124e6040518163ffffffff1660e060020a028152600401602060405180830381865afa158015610749573d6000803e3d6000fd5b505050506040513d601f19601f8201168201806040525081019061076d91906110be565b600160a060020a0316146107c65760405160e560020a62461bcd02815260206004820181905260248201527f6c697374696e672077616e7473206120646966666572656e7420746f6b656e3260448201526064016102cd565b80600160a060020a031663c4e5edcd6040518163ffffffff1660e060020a028152600401602060405180830381865afa158015610807573d6000803e3d6000fd5b505050506040513d601f19601f8201168201806040525081019061082b91906110db565b33600090815260026020526040902054101561085c5760405160e560020a62461bcd0281526004016102cd90611022565b80600160a060020a031663c4e5edcd6040518163ffffffff1660e060020a028152600401602060405180830381865afa15801561089d573d6000803e3d6000fd5b505050506040513d601f19601f820116820180604052508101906108c191906110db565b336000908152600360209081526040808320600160a060020a0388168452909152812080549091906108f490849061109b565b9250508190555082600160a060020a031633600160a060020a03167f8c5be1e5ebec7d5bd14f71427d1e84f3dd0314c0f7b2291e5b200ac8c7c3b92583600160a060020a031663c4e5edcd6040518163ffffffff1660e060020a028152600401602060405180830381865afa158015610971573d6000803e3d6000fd5b505050506040513d601f19601f8201168201806040525081019061099591906110db565b60405190815260200160405180910390a36040517f6f6ff405000000000000000000000000000000000000000000000000000000008152336004820152600090600160a060020a03831690636f6ff40590602401610120604051808303816000875af1158015610a09573d6000803e3d6000fd5b505050506040513d601f19601f82011682018060405250810190610a2d9190611155565b9050600082600160a060020a03166302d05d3f6040518163ffffffff1660e060020a028152600401602060405180830381865afa158015610a72573d6000803e3d6000fd5b505050506040513d601f19601f82011682018060405250810190610a9691906110be565b6040517fdc8046f0000000000000000000000000000000000000000000000000000000008152909150600160a060020a0382169063dc8046f090610ade908590600401610ebe565b600060405180830381600087803b158015610af857600080fd5b505af1158015610b0c573d6000803e3d6000fd5b5093979650505050505050565b33600090815260026020526040812054821115610b4b5760405160e560020a62461bcd0281526004016102cd90611022565b3360009081526002602052604081208054849290610b6a908490611088565b9091555050600160a060020a03831660009081526002602052604081208054849290610b9790849061109b565b9091555050336000908152600360209081526040808320600160a060020a038716845290915281208054849290610bcf908490611088565b9091555050604051828152600160a060020a0384169033906000805160206111f78339815191529060200161032a565b610c07610d62565b33600090815260026020526040902054841115610c395760405160e560020a62461bcd0281526004016102cd90611022565b6007546040517f2cd1adfe00000000000000000000000000000000000000000000000000000000815233600482015260248101869052600160a060020a038581166044830152606482018590526000921690632cd1adfe90608401610120604051808303816000875af1158015610cb4573d6000803e3d6000fd5b505050506040513d601f19601f82011682018060405250810190610cd89190611155565b602080820151336000908152600383526040808220600160a060020a038416835290935291822080549394509092889290610d1490849061109b565b9091555050604051868152600160a060020a0382169033907f8c5be1e5ebec7d5bd14f71427d1e84f3dd0314c0f7b2291e5b200ac8c7c3b9259060200160405180910390a350949350505050565b6040805161012081018252600080825260208201819052918101829052606081018290526080810182905260a0810182905260c0810182905260e0810182905261010081019190915290565b600060208083528351808285015260005b81811015610ddb57858101830151858201604001528201610dbf565b506000604082860101526040601f19601f8301168501019250505092915050565b600160a060020a0381168114610e1157600080fd5b50565b60008060408385031215610e2757600080fd5b8235610e3281610dfc565b946020939093013593505050565b600080600060608486031215610e5557600080fd5b8335610e6081610dfc565b92506020840135610e7081610dfc565b929592945050506040919091013590565b600060208284031215610e9357600080fd5b5035919050565b600060208284031215610eac57600080fd5b8135610eb781610dfc565b9392505050565b600061012082019050825182526020830151600160a060020a03808216602085015280604086015116604085015250506060830151610f086060840182600160a060020a03169052565b506080830151608083015260a0830151610f2d60a0840182600160a060020a03169052565b5060c0830151610f4860c0840182600160a060020a03169052565b5060e083015160e083015261010080840151610f678285018215159052565b505092915050565b60008060408385031215610f8257600080fd5b8235610f8d81610dfc565b91506020830135610f9d81610dfc565b809150509250929050565b600080600060608486031215610fbd57600080fd5b833592506020840135610e7081610dfc565b600281046001821680610fe357607f821691505b60208210810361101c577f4e487b7100000000000000000000000000000000000000000000000000000000600052602260045260246000fd5b50919050565b6020808252601e908201527f696e73756666696369656e742062616c616e636520696e2073656e6465720000604082015260600190565b7f4e487b7100000000000000000000000000000000000000000000000000000000600052601160045260246000fd5b8181038181111561033657610336611059565b8082018082111561033657610336611059565b80516110b981610dfc565b919050565b6000602082840312156110d057600080fd5b8151610eb781610dfc565b6000602082840312156110ed57600080fd5b5051919050565b604051610120810167ffffffffffffffff8111828210171561113f577f4e487b7100000000000000000000000000000000000000000000000000000000600052604160045260246000fd5b60405290565b805180151581146110b957600080fd5b6000610120828403121561116857600080fd5b6111706110f4565b82518152611180602084016110ae565b6020820152611191604084016110ae565b60408201526111a2606084016110ae565b6060820152608083015160808201526111bd60a084016110ae565b60a08201526111ce60c084016110ae565b60c082015260e083015160e08201526101006111eb818501611145565b90820152939250505056feddf252ad1be2c89b69c2b068fc378daa952ba7f163c4a11628f55a4df523b3efa264697066735822122012b85a07d5d51eccae038328f48184f93551bbe85a4e3c463be1b1860853bc4b64736f6c63430008110033a264697066735822122089033da1e8b4001e10d11a928339c68805a890421bf51b5165816f7e6e6c9f9164736f6c63430008110033",
  "immutableReferences": {},
  "source": "// SPDX-License-Identifier: MIT\npragma solidity >=0.4.22 <0.9.0;\n\nimport \"./MainToken.sol\";\nimport \"./IListingOwner.sol\";\nimport \"./GameContract.sol\";\nimport \"./GameContractFactory.sol\";\nimport \"./IterableMapping.sol\";\nimport \"./Models.sol\";\nimport \"@openzeppelin/contracts/utils/math/SafeMath.sol\";\nimport \"@openzeppelin/contracts/token/ERC20/IERC20.sol\";\n\ncontract HwangMarket is IListingOwner {\n  using IterableMapping for IterableMapping.ListingsMap;\n  using SafeMath for uint256;\n  address public mainTokenAddress;\n  MainToken public mainToken;\n\n  // game contract factory is used to reduce contract build size :(\n  GameContractFactory gameFactory;\n\n  // for all activity\n  uint256 private trxId;\n\n  // for all games created\n  uint256 private gameCount;\n  mapping(uint256 => Models.GameMetadata) public gameContractRegistry;\n  mapping(address => uint256) public gameAddr2Id;\n  \n  // for all ongoing games\n  uint256 private ongoingGamesCnt; // record end of ongoing games array\n  Models.GameMetadata[] public ongoingGames;\n  mapping(uint256 => int256) ongoingGamesId2Idx;\n\n  // for all closed games\n  Models.GameMetadata[] public closedGames;\n\n  // Activity types constant\n  string constant BetActivityType = \"BET\";\n  string constant WithdrawActivityType = \"WITHDRAW\";\n\n  mapping(address => Models.Activity[]) public playersRecords;\n\n  IterableMapping.ListingsMap private listingContracts;\n  uint256 public listingsCount;\n  \n  mapping(address => Models.TokenInfo) public gameTokensRegistry;\n  constructor() {\n    // we start counting from game 1, game id 0 is nonsense since its also default value\n    gameCount = 1;\n\n    mainToken = new MainToken();\n    mainTokenAddress = address(mainToken);\n    gameFactory = new GameContractFactory();\n  }\n\n  event GameCreated(Models.GameMetadata gameMetadata);\n  event PlayerJoinedGameEvent(address player, uint256 gameId, address gameAddr, uint8 betSide, uint256 amount);\n  event PlayerWithdrawedWinnings(address player, uint256 gameId, address gameAddr, uint8 betSide, uint256 withdrawedAmt);\n  event GameConcluded(uint256 gameId, address gameAddr, uint8 gameOutcome);\n  event NewListing(Models.ListingInfo listingInfo);\n  event ListingFulfilled(Models.ListingInfo listingInfo);\n\n  // create game contract instance\n  function createGame(uint256 resolveTime, address oracleAddr, int256 threshold, string memory tag, string memory title) public returns (address) {\n    GameContract newGame = gameFactory.createGame(address(this), resolveTime, oracleAddr, threshold); \n    address newGameAddress = address(newGame);\n    gameContractRegistry[gameCount] = Models.GameMetadata({\n      id: gameCount,\n      createdTime: block.timestamp,\n      addr: newGameAddress,\n      tag: tag,\n      title: title,\n      oracleAddr: oracleAddr,\n      resolveTime: resolveTime,\n      threshold: threshold,\n      totalAmount: 0,\n      betYesAmount: 0,\n      betNoAmount: 0,\n      ongoing: true,\n      gameOutcome: 0\n    });\n    gameTokensRegistry[newGame.gameYesTokenContractAddress()] = Models.TokenInfo({\n      tokenAddr: newGame.gameYesTokenContractAddress(),\n      betSide: 1,\n      gameId: gameCount,\n      gameAddr: newGameAddress,\n      gameTag: tag,\n      gameTitle: title,\n      gameOracleAddr: oracleAddr,\n      gameResolveTime: resolveTime,\n      gameThreshold: threshold\n    });\n    gameTokensRegistry[newGame.gameNoTokenContractAddress()] = Models.TokenInfo({\n      tokenAddr: newGame.gameNoTokenContractAddress(),\n      betSide: 0,\n      gameId: gameCount,\n      gameAddr: newGameAddress,\n      gameTag: tag,\n      gameTitle: title,\n      gameOracleAddr: oracleAddr,\n      gameResolveTime: resolveTime,\n      gameThreshold: threshold\n    });\n\n    gameAddr2Id[newGameAddress] = gameCount;\n\n    ongoingGamesId2Idx[gameCount] = int256(ongoingGamesCnt);\n    ongoingGames.push(gameContractRegistry[gameCount]);\n\n    ongoingGamesCnt = SafeMath.add(ongoingGamesCnt, 1);\n\n    emit GameCreated(gameContractRegistry[gameCount]);\n\n    gameCount = SafeMath.add(gameCount, 1);\n    return newGameAddress;\n  }\n\n  function getGameCount() public view returns (uint256) {\n    return gameCount-1; // [1, gameCount)\n  }\n\n  \n  // fetches all games\n  function getAllGames() public view returns (Models.AllGames memory) {\n    return Models.AllGames({ongoingGames: ongoingGames, closedGames: closedGames});\n  }\n\n  // creates a new listing, intended to be called by the IERC20 and IListableToken compliant token\n  function newListing(address player, uint256 token1Amt, address token2, uint256 token2Amt) external returns (Models.ListingInfo memory) {\n    require(msg.sender == mainTokenAddress, \"only main token can call\");\n    uint256 newListingId = listingsCount;\n    ListingContract newListingContract = new ListingContract(newListingId, player, msg.sender, token1Amt, token2, token2Amt);\n    Models.ListingInfo memory listingInfo = Models.ListingInfo({\n      listingId: newListingId,\n      listingAddr: address(newListingContract),\n      player1: player,\n      token1: msg.sender,\n      token1Amt: token1Amt,\n      player2: address(0),\n      token2: token2,\n      token2Amt: token2Amt,\n      fulfilled: false\n    });\n    listingContracts.set(newListingId, listingInfo);\n\n    listingsCount++;\n    emit NewListing(listingInfo);\n    return listingInfo;\n  }\n\n  function getAllListings() external view returns (Models.ListingInfo[] memory) {\n    return listingContracts.getlistingValues();\n  }\n\n  function updateListing(Models.ListingInfo memory listingInfo) public {\n    listingContracts.set(listingInfo.listingId, listingInfo);\n\n    emit ListingFulfilled(listingInfo);\n  }\n\n\n  // callable only by the game itself\n  // A player joined the game on a particular side\n  function playerJoinedSide(address player, uint8 betSide, uint256 amount, uint256 timestamp) external {\n    require(gameAddr2Id[msg.sender] != 0 && ongoingGamesId2Idx[gameAddr2Id[msg.sender]] != -1);\n    address gameAddr = msg.sender;\n    uint256 gameId = gameAddr2Id[gameAddr];\n    Models.GameMetadata storage game = gameContractRegistry[gameId];\n    Models.GameMetadata storage ongoingGameRef = ongoingGames[uint256(ongoingGamesId2Idx[gameId])];\n    game.totalAmount += amount;\n    ongoingGameRef.totalAmount += amount;\n    if (betSide == 2) {\n      game.betNoAmount += amount;\n      ongoingGameRef.betNoAmount += amount;\n    } else {\n      game.betYesAmount += amount;\n      ongoingGameRef.betYesAmount += amount;\n    }\n\n    // record this activity as well\n    playersRecords[player].push(Models.Activity({\n      trxId: trxId,\n      activityType: BetActivityType,\n      gameId: gameId,\n      trxAmt: amount,\n      trxTime: timestamp,\n      gameSide: betSide,\n      from: player,\n      to: gameAddr\n    }));\n\n    trxId = SafeMath.add(trxId, 1);\n\n    emit PlayerJoinedGameEvent(player, gameId, gameAddr, betSide, amount);\n  }\n\n  // callable only by contract\n  // note: withdraw winnings means recording player's owned game tokens -> hwang market tokens\n  function playerWithdrawWinnings(address _player, uint8 betSide, uint256 withdrawAmt, uint256 timestamp) external {\n    require(gameAddr2Id[msg.sender] != 0);\n    address gameAddr = msg.sender;\n    uint256 gameId = gameAddr2Id[gameAddr];\n    playersRecords[_player].push(Models.Activity({\n      trxId: trxId,\n      activityType: WithdrawActivityType,\n      gameId: gameId,\n      trxAmt: withdrawAmt,\n      trxTime: timestamp,\n      gameSide: betSide,\n      from: gameAddr,\n      to: _player\n    }));\n\n    trxId = SafeMath.add(trxId, 1);\n\n    emit PlayerWithdrawedWinnings(_player, gameId, gameAddr, betSide, withdrawAmt);\n  }\n\n  function concludeGame(uint8 gameOutcome) external {\n    require(gameAddr2Id[msg.sender] != 0);\n    address gameAddr = msg.sender;\n    uint256 gameId = gameAddr2Id[gameAddr];\n\n    // move game out of existing ongoing games\n    int256 temp = ongoingGamesId2Idx[gameId];\n    if (temp == -1) { // already concluded\n      return;\n    }\n    uint256 existingGameIdx = uint256(temp);\n    Models.GameMetadata storage finisedGame = ongoingGames[existingGameIdx];\n    Models.GameMetadata storage lastOngoingGame = ongoingGames[SafeMath.sub(ongoingGamesCnt, 1)];\n    ongoingGamesId2Idx[lastOngoingGame.id] = int256(existingGameIdx);\n    ongoingGamesId2Idx[gameId] = -1;\n    ongoingGames[existingGameIdx] = lastOngoingGame;\n    ongoingGamesCnt = SafeMath.sub(ongoingGamesCnt, 1);\n\n    // // update metadata for the game\n    finisedGame.ongoing = false;\n    finisedGame.gameOutcome = gameOutcome;\n\n    Models.GameMetadata storage g = gameContractRegistry[finisedGame.id];\n    g.ongoing = false;\n    g.gameOutcome = gameOutcome;\n\n    // add this game to array of closedGames\n    closedGames.push(finisedGame);\n    ongoingGames.pop();\n\n    emit GameConcluded(gameId, gameAddr, gameOutcome);\n  }\n\n  // to get smart contract's balance\n  function getBalance() public view returns (uint256) {\n    return address(this).balance;\n  }\n\n  function getPlayersTrxRecords(address player) public view returns (Models.Activity[] memory) {\n    return playersRecords[player];\n  }\n}\n",
  "sourcePath": "/Users/gerald/Desktop/HwangMarket/contracts/HwangMarket.sol",
  "compiler": {
    "name": "solc",
    "version": "0.8.17+commit.8df45f5f.Emscripten.clang"
  },
  "schemaVersion": "3.4.10",
  "updatedAt": "2022-10-31T11:27:16.417Z",
  "networkType": "ethereum",
  "devdoc": {
    "kind": "dev",
    "methods": {},
    "version": 1
  },
  "userdoc": {
    "kind": "user",
    "methods": {},
    "version": 1
  }
}